{
	"ETH - Henry/contracts/register/Register13_1.sol": {
		"Register13": {
			"abi": [
				{
					"inputs": [],
					"stateMutability": "nonpayable",
					"type": "constructor"
				},
				{
					"inputs": [],
					"name": "getInfo",
					"outputs": [
						{
							"components": [
								{
									"internalType": "string",
									"name": "info",
									"type": "string"
								},
								{
									"internalType": "enum Register13.Colors",
									"name": "color",
									"type": "uint8"
								},
								{
									"internalType": "uint256",
									"name": "countChanges",
									"type": "uint256"
								}
							],
							"internalType": "struct Register13.InfoStruct",
							"name": "",
							"type": "tuple"
						}
					],
					"stateMutability": "view",
					"type": "function"
				},
				{
					"inputs": [
						{
							"internalType": "enum Register13.Colors",
							"name": "myColor",
							"type": "uint8"
						},
						{
							"internalType": "string",
							"name": "myInfo",
							"type": "string"
						}
					],
					"name": "setInfo",
					"outputs": [],
					"stateMutability": "nonpayable",
					"type": "function"
				}
			],
			"devdoc": {
				"author": "Solange Gueiros",
				"kind": "dev",
				"methods": {
					"getInfo()": {
						"details": "return the struct storedInfo",
						"returns": {
							"_0": "the stored struct storedInfo"
						}
					},
					"setInfo(uint8,string)": {
						"details": "update the strict `storedInfo` with the parameters `myColor` and `myInfo`increase the counter",
						"params": {
							"myColor": "the new color to store",
							"myInfo": "the new string to store"
						}
					}
				},
				"title": "Concepts: struct",
				"version": 1
			},
			"evm": {
				"assembly": "    /* \"ETH - Henry/contracts/register/Register13_1.sol\":118:1327  contract Register13 {... */\n  mstore(0x40, 0x80)\n    /* \"ETH - Henry/contracts/register/Register13_1.sol\":379:551  constructor() {... */\n  callvalue\n  dup1\n  iszero\n  tag_1\n  jumpi\n  revert(0x00, 0x00)\ntag_1:\n  pop\n    /* \"ETH - Henry/contracts/register/Register13_1.sol\":417:543  InfoStruct ({... */\n  mload(0x40)\n  dup1\n  0x60\n  add\n  0x40\n  mstore\n  dup1\n  mload(0x40)\n  dup1\n  0x40\n  add\n  0x40\n  mstore\n  dup1\n  0x0b\n  dup2\n  mstore\n  0x20\n  add\n  0x48656c6c6f20776f726c64000000000000000000000000000000000000000000\n  dup2\n  mstore\n  pop\n  dup2\n  mstore\n  0x20\n  add\n    /* \"ETH - Henry/contracts/register/Register13_1.sol\":485:501  Colors.Undefined */\n  0x00\n    /* \"ETH - Henry/contracts/register/Register13_1.sol\":417:543  InfoStruct ({... */\n  0x02\n  dup2\n  gt\n  iszero\n  tag_4\n  jumpi\n  tag_5\n  tag_6\n  jump\t// in\ntag_5:\ntag_4:\n  dup2\n  mstore\n  0x20\n  add\n    /* \"ETH - Henry/contracts/register/Register13_1.sol\":530:531  0 */\n  0x00\n    /* \"ETH - Henry/contracts/register/Register13_1.sol\":417:543  InfoStruct ({... */\n  dup2\n  mstore\n  pop\n    /* \"ETH - Henry/contracts/register/Register13_1.sol\":404:414  storedInfo */\n  0x00\n    /* \"ETH - Henry/contracts/register/Register13_1.sol\":404:543  storedInfo = InfoStruct ({... */\n  0x00\n  dup3\n  add\n  mload\n  dup2\n  0x00\n  add\n  swap1\n  dup2\n  tag_7\n  swap2\n  swap1\n  tag_8\n  jump\t// in\ntag_7:\n  pop\n  0x20\n  dup3\n  add\n  mload\n  dup2\n  0x01\n  add\n  exp(0x0100, 0x00)\n  dup2\n  sload\n  dup2\n  0xff\n  mul\n  not\n  and\n  swap1\n  dup4\n  0x02\n  dup2\n  gt\n  iszero\n  tag_9\n  jumpi\n  tag_10\n  tag_6\n  jump\t// in\ntag_10:\ntag_9:\n  mul\n  or\n  swap1\n  sstore\n  pop\n  0x40\n  dup3\n  add\n  mload\n  dup2\n  0x02\n  add\n  sstore\n  swap1\n  pop\n  pop\n    /* \"ETH - Henry/contracts/register/Register13_1.sol\":118:1327  contract Register13 {... */\n  jump(tag_11)\n    /* \"#utility.yul\":7:187   */\ntag_6:\n    /* \"#utility.yul\":55:132   */\n  0x4e487b7100000000000000000000000000000000000000000000000000000000\n    /* \"#utility.yul\":52:53   */\n  0x00\n    /* \"#utility.yul\":45:133   */\n  mstore\n    /* \"#utility.yul\":152:156   */\n  0x21\n    /* \"#utility.yul\":149:150   */\n  0x04\n    /* \"#utility.yul\":142:157   */\n  mstore\n    /* \"#utility.yul\":176:180   */\n  0x24\n    /* \"#utility.yul\":173:174   */\n  0x00\n    /* \"#utility.yul\":166:181   */\n  revert\n    /* \"#utility.yul\":193:292   */\ntag_12:\n    /* \"#utility.yul\":245:251   */\n  0x00\n    /* \"#utility.yul\":279:284   */\n  dup2\n    /* \"#utility.yul\":273:285   */\n  mload\n    /* \"#utility.yul\":263:285   */\n  swap1\n  pop\n    /* \"#utility.yul\":193:292   */\n  swap2\n  swap1\n  pop\n  jump\t// out\n    /* \"#utility.yul\":298:478   */\ntag_13:\n    /* \"#utility.yul\":346:423   */\n  0x4e487b7100000000000000000000000000000000000000000000000000000000\n    /* \"#utility.yul\":343:344   */\n  0x00\n    /* \"#utility.yul\":336:424   */\n  mstore\n    /* \"#utility.yul\":443:447   */\n  0x41\n    /* \"#utility.yul\":440:441   */\n  0x04\n    /* \"#utility.yul\":433:448   */\n  mstore\n    /* \"#utility.yul\":467:471   */\n  0x24\n    /* \"#utility.yul\":464:465   */\n  0x00\n    /* \"#utility.yul\":457:472   */\n  revert\n    /* \"#utility.yul\":484:664   */\ntag_14:\n    /* \"#utility.yul\":532:609   */\n  0x4e487b7100000000000000000000000000000000000000000000000000000000\n    /* \"#utility.yul\":529:530   */\n  0x00\n    /* \"#utility.yul\":522:610   */\n  mstore\n    /* \"#utility.yul\":629:633   */\n  0x22\n    /* \"#utility.yul\":626:627   */\n  0x04\n    /* \"#utility.yul\":619:634   */\n  mstore\n    /* \"#utility.yul\":653:657   */\n  0x24\n    /* \"#utility.yul\":650:651   */\n  0x00\n    /* \"#utility.yul\":643:658   */\n  revert\n    /* \"#utility.yul\":670:990   */\ntag_15:\n    /* \"#utility.yul\":714:720   */\n  0x00\n    /* \"#utility.yul\":751:752   */\n  0x02\n    /* \"#utility.yul\":745:749   */\n  dup3\n    /* \"#utility.yul\":741:753   */\n  div\n    /* \"#utility.yul\":731:753   */\n  swap1\n  pop\n    /* \"#utility.yul\":798:799   */\n  0x01\n    /* \"#utility.yul\":792:796   */\n  dup3\n    /* \"#utility.yul\":788:800   */\n  and\n    /* \"#utility.yul\":819:837   */\n  dup1\n    /* \"#utility.yul\":809:890   */\n  tag_38\n  jumpi\n    /* \"#utility.yul\":875:879   */\n  0x7f\n    /* \"#utility.yul\":867:873   */\n  dup3\n    /* \"#utility.yul\":863:880   */\n  and\n    /* \"#utility.yul\":853:880   */\n  swap2\n  pop\n    /* \"#utility.yul\":809:890   */\ntag_38:\n    /* \"#utility.yul\":937:939   */\n  0x20\n    /* \"#utility.yul\":929:935   */\n  dup3\n    /* \"#utility.yul\":926:940   */\n  lt\n    /* \"#utility.yul\":906:924   */\n  dup2\n    /* \"#utility.yul\":903:941   */\n  sub\n    /* \"#utility.yul\":900:984   */\n  tag_39\n  jumpi\n    /* \"#utility.yul\":956:974   */\n  tag_40\n  tag_14\n  jump\t// in\ntag_40:\n    /* \"#utility.yul\":900:984   */\ntag_39:\n    /* \"#utility.yul\":721:990   */\n  pop\n    /* \"#utility.yul\":670:990   */\n  swap2\n  swap1\n  pop\n  jump\t// out\n    /* \"#utility.yul\":996:1137   */\ntag_16:\n    /* \"#utility.yul\":1045:1049   */\n  0x00\n    /* \"#utility.yul\":1068:1071   */\n  dup2\n    /* \"#utility.yul\":1060:1071   */\n  swap1\n  pop\n    /* \"#utility.yul\":1091:1094   */\n  dup2\n    /* \"#utility.yul\":1088:1089   */\n  0x00\n    /* \"#utility.yul\":1081:1095   */\n  mstore\n    /* \"#utility.yul\":1125:1129   */\n  0x20\n    /* \"#utility.yul\":1122:1123   */\n  0x00\n    /* \"#utility.yul\":1112:1130   */\n  keccak256\n    /* \"#utility.yul\":1104:1130   */\n  swap1\n  pop\n    /* \"#utility.yul\":996:1137   */\n  swap2\n  swap1\n  pop\n  jump\t// out\n    /* \"#utility.yul\":1143:1236   */\ntag_17:\n    /* \"#utility.yul\":1180:1186   */\n  0x00\n    /* \"#utility.yul\":1227:1229   */\n  0x20\n    /* \"#utility.yul\":1222:1224   */\n  0x1f\n    /* \"#utility.yul\":1215:1220   */\n  dup4\n    /* \"#utility.yul\":1211:1225   */\n  add\n    /* \"#utility.yul\":1207:1230   */\n  div\n    /* \"#utility.yul\":1197:1230   */\n  swap1\n  pop\n    /* \"#utility.yul\":1143:1236   */\n  swap2\n  swap1\n  pop\n  jump\t// out\n    /* \"#utility.yul\":1242:1349   */\ntag_18:\n    /* \"#utility.yul\":1286:1294   */\n  0x00\n    /* \"#utility.yul\":1336:1341   */\n  dup3\n    /* \"#utility.yul\":1330:1334   */\n  dup3\n    /* \"#utility.yul\":1326:1342   */\n  shl\n    /* \"#utility.yul\":1305:1342   */\n  swap1\n  pop\n    /* \"#utility.yul\":1242:1349   */\n  swap3\n  swap2\n  pop\n  pop\n  jump\t// out\n    /* \"#utility.yul\":1355:1748   */\ntag_19:\n    /* \"#utility.yul\":1424:1430   */\n  0x00\n    /* \"#utility.yul\":1474:1475   */\n  0x08\n    /* \"#utility.yul\":1462:1472   */\n  dup4\n    /* \"#utility.yul\":1458:1476   */\n  mul\n    /* \"#utility.yul\":1497:1594   */\n  tag_45\n    /* \"#utility.yul\":1527:1593   */\n  0xffffffffffffffffffffffffffffffffffffffffffffffffffffffffffffffff\n    /* \"#utility.yul\":1516:1525   */\n  dup3\n    /* \"#utility.yul\":1497:1594   */\n  tag_18\n  jump\t// in\ntag_45:\n    /* \"#utility.yul\":1615:1654   */\n  tag_46\n    /* \"#utility.yul\":1645:1653   */\n  dup7\n    /* \"#utility.yul\":1634:1643   */\n  dup4\n    /* \"#utility.yul\":1615:1654   */\n  tag_18\n  jump\t// in\ntag_46:\n    /* \"#utility.yul\":1603:1654   */\n  swap6\n  pop\n    /* \"#utility.yul\":1687:1691   */\n  dup1\n    /* \"#utility.yul\":1683:1692   */\n  not\n    /* \"#utility.yul\":1676:1681   */\n  dup5\n    /* \"#utility.yul\":1672:1693   */\n  and\n    /* \"#utility.yul\":1663:1693   */\n  swap4\n  pop\n    /* \"#utility.yul\":1736:1740   */\n  dup1\n    /* \"#utility.yul\":1726:1734   */\n  dup7\n    /* \"#utility.yul\":1722:1741   */\n  and\n    /* \"#utility.yul\":1715:1720   */\n  dup5\n    /* \"#utility.yul\":1712:1742   */\n  or\n    /* \"#utility.yul\":1702:1742   */\n  swap3\n  pop\n    /* \"#utility.yul\":1431:1748   */\n  pop\n  pop\n    /* \"#utility.yul\":1355:1748   */\n  swap4\n  swap3\n  pop\n  pop\n  pop\n  jump\t// out\n    /* \"#utility.yul\":1754:1831   */\ntag_20:\n    /* \"#utility.yul\":1791:1798   */\n  0x00\n    /* \"#utility.yul\":1820:1825   */\n  dup2\n    /* \"#utility.yul\":1809:1825   */\n  swap1\n  pop\n    /* \"#utility.yul\":1754:1831   */\n  swap2\n  swap1\n  pop\n  jump\t// out\n    /* \"#utility.yul\":1837:1897   */\ntag_21:\n    /* \"#utility.yul\":1865:1868   */\n  0x00\n    /* \"#utility.yul\":1886:1891   */\n  dup2\n    /* \"#utility.yul\":1879:1891   */\n  swap1\n  pop\n    /* \"#utility.yul\":1837:1897   */\n  swap2\n  swap1\n  pop\n  jump\t// out\n    /* \"#utility.yul\":1903:2045   */\ntag_22:\n    /* \"#utility.yul\":1953:1962   */\n  0x00\n    /* \"#utility.yul\":1986:2039   */\n  tag_50\n    /* \"#utility.yul\":2004:2038   */\n  tag_51\n    /* \"#utility.yul\":2013:2037   */\n  tag_52\n    /* \"#utility.yul\":2031:2036   */\n  dup5\n    /* \"#utility.yul\":2013:2037   */\n  tag_20\n  jump\t// in\ntag_52:\n    /* \"#utility.yul\":2004:2038   */\n  tag_21\n  jump\t// in\ntag_51:\n    /* \"#utility.yul\":1986:2039   */\n  tag_20\n  jump\t// in\ntag_50:\n    /* \"#utility.yul\":1973:2039   */\n  swap1\n  pop\n    /* \"#utility.yul\":1903:2045   */\n  swap2\n  swap1\n  pop\n  jump\t// out\n    /* \"#utility.yul\":2051:2126   */\ntag_23:\n    /* \"#utility.yul\":2094:2097   */\n  0x00\n    /* \"#utility.yul\":2115:2120   */\n  dup2\n    /* \"#utility.yul\":2108:2120   */\n  swap1\n  pop\n    /* \"#utility.yul\":2051:2126   */\n  swap2\n  swap1\n  pop\n  jump\t// out\n    /* \"#utility.yul\":2132:2401   */\ntag_24:\n    /* \"#utility.yul\":2242:2281   */\n  tag_55\n    /* \"#utility.yul\":2273:2280   */\n  dup4\n    /* \"#utility.yul\":2242:2281   */\n  tag_22\n  jump\t// in\ntag_55:\n    /* \"#utility.yul\":2303:2394   */\n  tag_56\n    /* \"#utility.yul\":2352:2393   */\n  tag_57\n    /* \"#utility.yul\":2376:2392   */\n  dup3\n    /* \"#utility.yul\":2352:2393   */\n  tag_23\n  jump\t// in\ntag_57:\n    /* \"#utility.yul\":2344:2350   */\n  dup5\n    /* \"#utility.yul\":2337:2341   */\n  dup5\n    /* \"#utility.yul\":2331:2342   */\n  sload\n    /* \"#utility.yul\":2303:2394   */\n  tag_19\n  jump\t// in\ntag_56:\n    /* \"#utility.yul\":2297:2301   */\n  dup3\n    /* \"#utility.yul\":2290:2395   */\n  sstore\n    /* \"#utility.yul\":2208:2401   */\n  pop\n    /* \"#utility.yul\":2132:2401   */\n  pop\n  pop\n  pop\n  jump\t// out\n    /* \"#utility.yul\":2407:2480   */\ntag_25:\n    /* \"#utility.yul\":2452:2455   */\n  0x00\n    /* \"#utility.yul\":2473:2474   */\n  0x00\n    /* \"#utility.yul\":2466:2474   */\n  swap1\n  pop\n    /* \"#utility.yul\":2407:2480   */\n  swap1\n  jump\t// out\n    /* \"#utility.yul\":2486:2675   */\ntag_26:\n    /* \"#utility.yul\":2563:2595   */\n  tag_60\n  tag_25\n  jump\t// in\ntag_60:\n    /* \"#utility.yul\":2604:2669   */\n  tag_61\n    /* \"#utility.yul\":2662:2668   */\n  dup2\n    /* \"#utility.yul\":2654:2660   */\n  dup5\n    /* \"#utility.yul\":2648:2652   */\n  dup5\n    /* \"#utility.yul\":2604:2669   */\n  tag_24\n  jump\t// in\ntag_61:\n    /* \"#utility.yul\":2539:2675   */\n  pop\n    /* \"#utility.yul\":2486:2675   */\n  pop\n  pop\n  jump\t// out\n    /* \"#utility.yul\":2681:2867   */\ntag_27:\n    /* \"#utility.yul\":2741:2861   */\ntag_63:\n    /* \"#utility.yul\":2758:2761   */\n  dup2\n    /* \"#utility.yul\":2751:2756   */\n  dup2\n    /* \"#utility.yul\":2748:2762   */\n  lt\n    /* \"#utility.yul\":2741:2861   */\n  iszero\n  tag_65\n  jumpi\n    /* \"#utility.yul\":2812:2851   */\n  tag_66\n    /* \"#utility.yul\":2849:2850   */\n  0x00\n    /* \"#utility.yul\":2842:2847   */\n  dup3\n    /* \"#utility.yul\":2812:2851   */\n  tag_26\n  jump\t// in\ntag_66:\n    /* \"#utility.yul\":2785:2786   */\n  0x01\n    /* \"#utility.yul\":2778:2783   */\n  dup2\n    /* \"#utility.yul\":2774:2787   */\n  add\n    /* \"#utility.yul\":2765:2787   */\n  swap1\n  pop\n    /* \"#utility.yul\":2741:2861   */\n  jump(tag_63)\ntag_65:\n    /* \"#utility.yul\":2681:2867   */\n  pop\n  pop\n  jump\t// out\n    /* \"#utility.yul\":2873:3416   */\ntag_28:\n    /* \"#utility.yul\":2974:2976   */\n  0x1f\n    /* \"#utility.yul\":2969:2972   */\n  dup3\n    /* \"#utility.yul\":2966:2977   */\n  gt\n    /* \"#utility.yul\":2963:3409   */\n  iszero\n  tag_68\n  jumpi\n    /* \"#utility.yul\":3008:3046   */\n  tag_69\n    /* \"#utility.yul\":3040:3045   */\n  dup2\n    /* \"#utility.yul\":3008:3046   */\n  tag_16\n  jump\t// in\ntag_69:\n    /* \"#utility.yul\":3092:3121   */\n  tag_70\n    /* \"#utility.yul\":3110:3120   */\n  dup5\n    /* \"#utility.yul\":3092:3121   */\n  tag_17\n  jump\t// in\ntag_70:\n    /* \"#utility.yul\":3082:3090   */\n  dup2\n    /* \"#utility.yul\":3078:3122   */\n  add\n    /* \"#utility.yul\":3275:3277   */\n  0x20\n    /* \"#utility.yul\":3263:3273   */\n  dup6\n    /* \"#utility.yul\":3260:3278   */\n  lt\n    /* \"#utility.yul\":3257:3306   */\n  iszero\n  tag_71\n  jumpi\n    /* \"#utility.yul\":3296:3304   */\n  dup2\n    /* \"#utility.yul\":3281:3304   */\n  swap1\n  pop\n    /* \"#utility.yul\":3257:3306   */\ntag_71:\n    /* \"#utility.yul\":3319:3399   */\n  tag_72\n    /* \"#utility.yul\":3375:3397   */\n  tag_73\n    /* \"#utility.yul\":3393:3396   */\n  dup6\n    /* \"#utility.yul\":3375:3397   */\n  tag_17\n  jump\t// in\ntag_73:\n    /* \"#utility.yul\":3365:3373   */\n  dup4\n    /* \"#utility.yul\":3361:3398   */\n  add\n    /* \"#utility.yul\":3348:3359   */\n  dup3\n    /* \"#utility.yul\":3319:3399   */\n  tag_27\n  jump\t// in\ntag_72:\n    /* \"#utility.yul\":2978:3409   */\n  pop\n  pop\n    /* \"#utility.yul\":2963:3409   */\ntag_68:\n    /* \"#utility.yul\":2873:3416   */\n  pop\n  pop\n  pop\n  jump\t// out\n    /* \"#utility.yul\":3422:3539   */\ntag_29:\n    /* \"#utility.yul\":3476:3484   */\n  0x00\n    /* \"#utility.yul\":3526:3531   */\n  dup3\n    /* \"#utility.yul\":3520:3524   */\n  dup3\n    /* \"#utility.yul\":3516:3532   */\n  shr\n    /* \"#utility.yul\":3495:3532   */\n  swap1\n  pop\n    /* \"#utility.yul\":3422:3539   */\n  swap3\n  swap2\n  pop\n  pop\n  jump\t// out\n    /* \"#utility.yul\":3545:3714   */\ntag_30:\n    /* \"#utility.yul\":3589:3595   */\n  0x00\n    /* \"#utility.yul\":3622:3673   */\n  tag_76\n    /* \"#utility.yul\":3670:3671   */\n  0x00\n    /* \"#utility.yul\":3666:3672   */\n  not\n    /* \"#utility.yul\":3658:3663   */\n  dup5\n    /* \"#utility.yul\":3655:3656   */\n  0x08\n    /* \"#utility.yul\":3651:3664   */\n  mul\n    /* \"#utility.yul\":3622:3673   */\n  tag_29\n  jump\t// in\ntag_76:\n    /* \"#utility.yul\":3618:3674   */\n  not\n    /* \"#utility.yul\":3703:3707   */\n  dup1\n    /* \"#utility.yul\":3697:3701   */\n  dup4\n    /* \"#utility.yul\":3693:3708   */\n  and\n    /* \"#utility.yul\":3683:3708   */\n  swap2\n  pop\n    /* \"#utility.yul\":3596:3714   */\n  pop\n    /* \"#utility.yul\":3545:3714   */\n  swap3\n  swap2\n  pop\n  pop\n  jump\t// out\n    /* \"#utility.yul\":3719:4014   */\ntag_31:\n    /* \"#utility.yul\":3795:3799   */\n  0x00\n    /* \"#utility.yul\":3941:3970   */\n  tag_78\n    /* \"#utility.yul\":3966:3969   */\n  dup4\n    /* \"#utility.yul\":3960:3964   */\n  dup4\n    /* \"#utility.yul\":3941:3970   */\n  tag_30\n  jump\t// in\ntag_78:\n    /* \"#utility.yul\":3933:3970   */\n  swap2\n  pop\n    /* \"#utility.yul\":4003:4006   */\n  dup3\n    /* \"#utility.yul\":4000:4001   */\n  0x02\n    /* \"#utility.yul\":3996:4007   */\n  mul\n    /* \"#utility.yul\":3990:3994   */\n  dup3\n    /* \"#utility.yul\":3987:4008   */\n  or\n    /* \"#utility.yul\":3979:4008   */\n  swap1\n  pop\n    /* \"#utility.yul\":3719:4014   */\n  swap3\n  swap2\n  pop\n  pop\n  jump\t// out\n    /* \"#utility.yul\":4019:5414   */\ntag_8:\n    /* \"#utility.yul\":4136:4173   */\n  tag_80\n    /* \"#utility.yul\":4169:4172   */\n  dup3\n    /* \"#utility.yul\":4136:4173   */\n  tag_12\n  jump\t// in\ntag_80:\n    /* \"#utility.yul\":4238:4256   */\n  0xffffffffffffffff\n    /* \"#utility.yul\":4230:4236   */\n  dup2\n    /* \"#utility.yul\":4227:4257   */\n  gt\n    /* \"#utility.yul\":4224:4280   */\n  iszero\n  tag_81\n  jumpi\n    /* \"#utility.yul\":4260:4278   */\n  tag_82\n  tag_13\n  jump\t// in\ntag_82:\n    /* \"#utility.yul\":4224:4280   */\ntag_81:\n    /* \"#utility.yul\":4304:4342   */\n  tag_83\n    /* \"#utility.yul\":4336:4340   */\n  dup3\n    /* \"#utility.yul\":4330:4341   */\n  sload\n    /* \"#utility.yul\":4304:4342   */\n  tag_15\n  jump\t// in\ntag_83:\n    /* \"#utility.yul\":4389:4456   */\n  tag_84\n    /* \"#utility.yul\":4449:4455   */\n  dup3\n    /* \"#utility.yul\":4441:4447   */\n  dup3\n    /* \"#utility.yul\":4435:4439   */\n  dup6\n    /* \"#utility.yul\":4389:4456   */\n  tag_28\n  jump\t// in\ntag_84:\n    /* \"#utility.yul\":4483:4484   */\n  0x00\n    /* \"#utility.yul\":4507:4511   */\n  0x20\n    /* \"#utility.yul\":4494:4511   */\n  swap1\n  pop\n    /* \"#utility.yul\":4539:4541   */\n  0x1f\n    /* \"#utility.yul\":4531:4537   */\n  dup4\n    /* \"#utility.yul\":4528:4542   */\n  gt\n    /* \"#utility.yul\":4556:4557   */\n  0x01\n    /* \"#utility.yul\":4551:5169   */\n  dup2\n  eq\n  tag_86\n  jumpi\n    /* \"#utility.yul\":5213:5214   */\n  0x00\n    /* \"#utility.yul\":5230:5236   */\n  dup5\n    /* \"#utility.yul\":5227:5304   */\n  iszero\n  tag_87\n  jumpi\n    /* \"#utility.yul\":5279:5288   */\n  dup3\n    /* \"#utility.yul\":5274:5277   */\n  dup8\n    /* \"#utility.yul\":5270:5289   */\n  add\n    /* \"#utility.yul\":5264:5290   */\n  mload\n    /* \"#utility.yul\":5255:5290   */\n  swap1\n  pop\n    /* \"#utility.yul\":5227:5304   */\ntag_87:\n    /* \"#utility.yul\":5330:5397   */\n  tag_88\n    /* \"#utility.yul\":5390:5396   */\n  dup6\n    /* \"#utility.yul\":5383:5388   */\n  dup3\n    /* \"#utility.yul\":5330:5397   */\n  tag_31\n  jump\t// in\ntag_88:\n    /* \"#utility.yul\":5324:5328   */\n  dup7\n    /* \"#utility.yul\":5317:5398   */\n  sstore\n    /* \"#utility.yul\":5186:5408   */\n  pop\n    /* \"#utility.yul\":4521:5408   */\n  jump(tag_85)\n    /* \"#utility.yul\":4551:5169   */\ntag_86:\n    /* \"#utility.yul\":4603:4607   */\n  0x1f\n    /* \"#utility.yul\":4599:4608   */\n  not\n    /* \"#utility.yul\":4591:4597   */\n  dup5\n    /* \"#utility.yul\":4587:4609   */\n  and\n    /* \"#utility.yul\":4637:4674   */\n  tag_89\n    /* \"#utility.yul\":4669:4673   */\n  dup7\n    /* \"#utility.yul\":4637:4674   */\n  tag_16\n  jump\t// in\ntag_89:\n    /* \"#utility.yul\":4696:4697   */\n  0x00\n    /* \"#utility.yul\":4710:4918   */\ntag_90:\n    /* \"#utility.yul\":4724:4731   */\n  dup3\n    /* \"#utility.yul\":4721:4722   */\n  dup2\n    /* \"#utility.yul\":4718:4732   */\n  lt\n    /* \"#utility.yul\":4710:4918   */\n  iszero\n  tag_92\n  jumpi\n    /* \"#utility.yul\":4803:4812   */\n  dup5\n    /* \"#utility.yul\":4798:4801   */\n  dup10\n    /* \"#utility.yul\":4794:4813   */\n  add\n    /* \"#utility.yul\":4788:4814   */\n  mload\n    /* \"#utility.yul\":4780:4786   */\n  dup3\n    /* \"#utility.yul\":4773:4815   */\n  sstore\n    /* \"#utility.yul\":4854:4855   */\n  0x01\n    /* \"#utility.yul\":4846:4852   */\n  dup3\n    /* \"#utility.yul\":4842:4856   */\n  add\n    /* \"#utility.yul\":4832:4856   */\n  swap2\n  pop\n    /* \"#utility.yul\":4901:4903   */\n  0x20\n    /* \"#utility.yul\":4890:4899   */\n  dup6\n    /* \"#utility.yul\":4886:4904   */\n  add\n    /* \"#utility.yul\":4873:4904   */\n  swap5\n  pop\n    /* \"#utility.yul\":4747:4751   */\n  0x20\n    /* \"#utility.yul\":4744:4745   */\n  dup2\n    /* \"#utility.yul\":4740:4752   */\n  add\n    /* \"#utility.yul\":4735:4752   */\n  swap1\n  pop\n    /* \"#utility.yul\":4710:4918   */\n  jump(tag_90)\ntag_92:\n    /* \"#utility.yul\":4946:4952   */\n  dup7\n    /* \"#utility.yul\":4937:4944   */\n  dup4\n    /* \"#utility.yul\":4934:4953   */\n  lt\n    /* \"#utility.yul\":4931:5110   */\n  iszero\n  tag_93\n  jumpi\n    /* \"#utility.yul\":5004:5013   */\n  dup5\n    /* \"#utility.yul\":4999:5002   */\n  dup10\n    /* \"#utility.yul\":4995:5014   */\n  add\n    /* \"#utility.yul\":4989:5015   */\n  mload\n    /* \"#utility.yul\":5047:5095   */\n  tag_94\n    /* \"#utility.yul\":5089:5093   */\n  0x1f\n    /* \"#utility.yul\":5081:5087   */\n  dup10\n    /* \"#utility.yul\":5077:5094   */\n  and\n    /* \"#utility.yul\":5066:5075   */\n  dup3\n    /* \"#utility.yul\":5047:5095   */\n  tag_30\n  jump\t// in\ntag_94:\n    /* \"#utility.yul\":5039:5045   */\n  dup4\n    /* \"#utility.yul\":5032:5096   */\n  sstore\n    /* \"#utility.yul\":4954:5110   */\n  pop\n    /* \"#utility.yul\":4931:5110   */\ntag_93:\n    /* \"#utility.yul\":5156:5157   */\n  0x01\n    /* \"#utility.yul\":5152:5153   */\n  0x02\n    /* \"#utility.yul\":5144:5150   */\n  dup9\n    /* \"#utility.yul\":5140:5154   */\n  mul\n    /* \"#utility.yul\":5136:5158   */\n  add\n    /* \"#utility.yul\":5130:5134   */\n  dup9\n    /* \"#utility.yul\":5123:5159   */\n  sstore\n    /* \"#utility.yul\":4558:5169   */\n  pop\n  pop\n  pop\n    /* \"#utility.yul\":4521:5408   */\ntag_85:\n  pop\n    /* \"#utility.yul\":4111:5414   */\n  pop\n  pop\n  pop\n    /* \"#utility.yul\":4019:5414   */\n  pop\n  pop\n  jump\t// out\n    /* \"ETH - Henry/contracts/register/Register13_1.sol\":118:1327  contract Register13 {... */\ntag_11:\n  dataSize(sub_0)\n  dup1\n  dataOffset(sub_0)\n  0x00\n  codecopy\n  0x00\n  return\nstop\n\nsub_0: assembly {\n        /* \"ETH - Henry/contracts/register/Register13_1.sol\":118:1327  contract Register13 {... */\n      mstore(0x40, 0x80)\n      callvalue\n      dup1\n      iszero\n      tag_1\n      jumpi\n      revert(0x00, 0x00)\n    tag_1:\n      pop\n      jumpi(tag_2, lt(calldatasize, 0x04))\n      shr(0xe0, calldataload(0x00))\n      dup1\n      0x5a9b0b89\n      eq\n      tag_3\n      jumpi\n      dup1\n      0xae15d4fc\n      eq\n      tag_4\n      jumpi\n    tag_2:\n      revert(0x00, 0x00)\n        /* \"ETH - Henry/contracts/register/Register13_1.sol\":1224:1321  function getInfo() external view returns (InfoStruct memory) {... */\n    tag_3:\n      tag_5\n      tag_6\n      jump\t// in\n    tag_5:\n      mload(0x40)\n      tag_7\n      swap2\n      swap1\n      tag_8\n      jump\t// in\n    tag_7:\n      mload(0x40)\n      dup1\n      swap2\n      sub\n      swap1\n      return\n        /* \"ETH - Henry/contracts/register/Register13_1.sol\":892:1078  function setInfo(Colors myColor, string memory myInfo) external {... */\n    tag_4:\n      tag_9\n      0x04\n      dup1\n      calldatasize\n      sub\n      dup2\n      add\n      swap1\n      tag_10\n      swap2\n      swap1\n      tag_11\n      jump\t// in\n    tag_10:\n      tag_12\n      jump\t// in\n    tag_9:\n      stop\n        /* \"ETH - Henry/contracts/register/Register13_1.sol\":1224:1321  function getInfo() external view returns (InfoStruct memory) {... */\n    tag_6:\n        /* \"ETH - Henry/contracts/register/Register13_1.sol\":1266:1283  InfoStruct memory */\n      tag_13\n      tag_14\n      jump\t// in\n    tag_13:\n        /* \"ETH - Henry/contracts/register/Register13_1.sol\":1303:1313  storedInfo */\n      0x00\n        /* \"ETH - Henry/contracts/register/Register13_1.sol\":1296:1313  return storedInfo */\n      mload(0x40)\n      dup1\n      0x60\n      add\n      0x40\n      mstore\n      swap1\n      dup2\n      0x00\n      dup3\n      add\n      dup1\n      sload\n      tag_16\n      swap1\n      tag_17\n      jump\t// in\n    tag_16:\n      dup1\n      0x1f\n      add\n      0x20\n      dup1\n      swap2\n      div\n      mul\n      0x20\n      add\n      mload(0x40)\n      swap1\n      dup2\n      add\n      0x40\n      mstore\n      dup1\n      swap3\n      swap2\n      swap1\n      dup2\n      dup2\n      mstore\n      0x20\n      add\n      dup3\n      dup1\n      sload\n      tag_18\n      swap1\n      tag_17\n      jump\t// in\n    tag_18:\n      dup1\n      iszero\n      tag_19\n      jumpi\n      dup1\n      0x1f\n      lt\n      tag_20\n      jumpi\n      0x0100\n      dup1\n      dup4\n      sload\n      div\n      mul\n      dup4\n      mstore\n      swap2\n      0x20\n      add\n      swap2\n      jump(tag_19)\n    tag_20:\n      dup3\n      add\n      swap2\n      swap1\n      0x00\n      mstore\n      keccak256(0x00, 0x20)\n      swap1\n    tag_21:\n      dup2\n      sload\n      dup2\n      mstore\n      swap1\n      0x01\n      add\n      swap1\n      0x20\n      add\n      dup1\n      dup4\n      gt\n      tag_21\n      jumpi\n      dup3\n      swap1\n      sub\n      0x1f\n      and\n      dup3\n      add\n      swap2\n    tag_19:\n      pop\n      pop\n      pop\n      pop\n      pop\n      dup2\n      mstore\n      0x20\n      add\n      0x01\n      dup3\n      add\n      0x00\n      swap1\n      sload\n      swap1\n      0x0100\n      exp\n      swap1\n      div\n      0xff\n      and\n      0x02\n      dup2\n      gt\n      iszero\n      tag_22\n      jumpi\n      tag_23\n      tag_24\n      jump\t// in\n    tag_23:\n    tag_22:\n      0x02\n      dup2\n      gt\n      iszero\n      tag_25\n      jumpi\n      tag_26\n      tag_24\n      jump\t// in\n    tag_26:\n    tag_25:\n      dup2\n      mstore\n      0x20\n      add\n      0x02\n      dup3\n      add\n      sload\n      dup2\n      mstore\n      pop\n      pop\n      swap1\n      pop\n        /* \"ETH - Henry/contracts/register/Register13_1.sol\":1224:1321  function getInfo() external view returns (InfoStruct memory) {... */\n      swap1\n      jump\t// out\n        /* \"ETH - Henry/contracts/register/Register13_1.sol\":892:1078  function setInfo(Colors myColor, string memory myInfo) external {... */\n    tag_12:\n        /* \"ETH - Henry/contracts/register/Register13_1.sol\":967:977  storedInfo */\n      0x00\n        /* \"ETH - Henry/contracts/register/Register13_1.sol\":967:990  storedInfo.countChanges */\n      0x02\n      add\n      0x00\n        /* \"ETH - Henry/contracts/register/Register13_1.sol\":967:992  storedInfo.countChanges++ */\n      dup2\n      sload\n      dup1\n      swap3\n      swap2\n      swap1\n      tag_28\n      swap1\n      tag_29\n      jump\t// in\n    tag_28:\n      swap2\n      swap1\n      pop\n      sstore\n      pop\n        /* \"ETH - Henry/contracts/register/Register13_1.sol\":1022:1029  myColor */\n      dup2\n        /* \"ETH - Henry/contracts/register/Register13_1.sol\":1003:1013  storedInfo */\n      0x00\n        /* \"ETH - Henry/contracts/register/Register13_1.sol\":1003:1019  storedInfo.color */\n      0x01\n      add\n      0x00\n        /* \"ETH - Henry/contracts/register/Register13_1.sol\":1003:1029  storedInfo.color = myColor */\n      0x0100\n      exp\n      dup2\n      sload\n      dup2\n      0xff\n      mul\n      not\n      and\n      swap1\n      dup4\n      0x02\n      dup2\n      gt\n      iszero\n      tag_30\n      jumpi\n      tag_31\n      tag_24\n      jump\t// in\n    tag_31:\n    tag_30:\n      mul\n      or\n      swap1\n      sstore\n      pop\n        /* \"ETH - Henry/contracts/register/Register13_1.sol\":1060:1066  myInfo */\n      dup1\n        /* \"ETH - Henry/contracts/register/Register13_1.sol\":1042:1052  storedInfo */\n      0x00\n        /* \"ETH - Henry/contracts/register/Register13_1.sol\":1042:1057  storedInfo.info */\n      0x00\n      add\n        /* \"ETH - Henry/contracts/register/Register13_1.sol\":1042:1066  storedInfo.info = myInfo */\n      swap1\n      dup2\n      tag_32\n      swap2\n      swap1\n      tag_33\n      jump\t// in\n    tag_32:\n      pop\n        /* \"ETH - Henry/contracts/register/Register13_1.sol\":892:1078  function setInfo(Colors myColor, string memory myInfo) external {... */\n      pop\n      pop\n      jump\t// out\n    tag_14:\n      mload(0x40)\n      dup1\n      0x60\n      add\n      0x40\n      mstore\n      dup1\n      0x60\n      dup2\n      mstore\n      0x20\n      add\n      0x00\n      0x02\n      dup2\n      gt\n      iszero\n      tag_34\n      jumpi\n      tag_35\n      tag_24\n      jump\t// in\n    tag_35:\n    tag_34:\n      dup2\n      mstore\n      0x20\n      add\n      0x00\n      dup2\n      mstore\n      pop\n      swap1\n      jump\t// out\n        /* \"#utility.yul\":7:106   */\n    tag_36:\n        /* \"#utility.yul\":59:65   */\n      0x00\n        /* \"#utility.yul\":93:98   */\n      dup2\n        /* \"#utility.yul\":87:99   */\n      mload\n        /* \"#utility.yul\":77:99   */\n      swap1\n      pop\n        /* \"#utility.yul\":7:106   */\n      swap2\n      swap1\n      pop\n      jump\t// out\n        /* \"#utility.yul\":112:271   */\n    tag_37:\n        /* \"#utility.yul\":186:197   */\n      0x00\n        /* \"#utility.yul\":220:226   */\n      dup3\n        /* \"#utility.yul\":215:218   */\n      dup3\n        /* \"#utility.yul\":208:227   */\n      mstore\n        /* \"#utility.yul\":260:264   */\n      0x20\n        /* \"#utility.yul\":255:258   */\n      dup3\n        /* \"#utility.yul\":251:265   */\n      add\n        /* \"#utility.yul\":236:265   */\n      swap1\n      pop\n        /* \"#utility.yul\":112:271   */\n      swap3\n      swap2\n      pop\n      pop\n      jump\t// out\n        /* \"#utility.yul\":277:416   */\n    tag_38:\n        /* \"#utility.yul\":366:372   */\n      dup3\n        /* \"#utility.yul\":361:364   */\n      dup2\n        /* \"#utility.yul\":356:359   */\n      dup4\n        /* \"#utility.yul\":350:373   */\n      mcopy\n        /* \"#utility.yul\":407:408   */\n      0x00\n        /* \"#utility.yul\":398:404   */\n      dup4\n        /* \"#utility.yul\":393:396   */\n      dup4\n        /* \"#utility.yul\":389:405   */\n      add\n        /* \"#utility.yul\":382:409   */\n      mstore\n        /* \"#utility.yul\":277:416   */\n      pop\n      pop\n      pop\n      jump\t// out\n        /* \"#utility.yul\":422:524   */\n    tag_39:\n        /* \"#utility.yul\":463:469   */\n      0x00\n        /* \"#utility.yul\":514:516   */\n      0x1f\n        /* \"#utility.yul\":510:517   */\n      not\n        /* \"#utility.yul\":505:507   */\n      0x1f\n        /* \"#utility.yul\":498:503   */\n      dup4\n        /* \"#utility.yul\":494:508   */\n      add\n        /* \"#utility.yul\":490:518   */\n      and\n        /* \"#utility.yul\":480:518   */\n      swap1\n      pop\n        /* \"#utility.yul\":422:524   */\n      swap2\n      swap1\n      pop\n      jump\t// out\n        /* \"#utility.yul\":530:887   */\n    tag_40:\n        /* \"#utility.yul\":608:611   */\n      0x00\n        /* \"#utility.yul\":636:675   */\n      tag_85\n        /* \"#utility.yul\":669:674   */\n      dup3\n        /* \"#utility.yul\":636:675   */\n      tag_36\n      jump\t// in\n    tag_85:\n        /* \"#utility.yul\":691:752   */\n      tag_86\n        /* \"#utility.yul\":745:751   */\n      dup2\n        /* \"#utility.yul\":740:743   */\n      dup6\n        /* \"#utility.yul\":691:752   */\n      tag_37\n      jump\t// in\n    tag_86:\n        /* \"#utility.yul\":684:752   */\n      swap4\n      pop\n        /* \"#utility.yul\":761:826   */\n      tag_87\n        /* \"#utility.yul\":819:825   */\n      dup2\n        /* \"#utility.yul\":814:817   */\n      dup6\n        /* \"#utility.yul\":807:811   */\n      0x20\n        /* \"#utility.yul\":800:805   */\n      dup7\n        /* \"#utility.yul\":796:812   */\n      add\n        /* \"#utility.yul\":761:826   */\n      tag_38\n      jump\t// in\n    tag_87:\n        /* \"#utility.yul\":851:880   */\n      tag_88\n        /* \"#utility.yul\":873:879   */\n      dup2\n        /* \"#utility.yul\":851:880   */\n      tag_39\n      jump\t// in\n    tag_88:\n        /* \"#utility.yul\":846:849   */\n      dup5\n        /* \"#utility.yul\":842:881   */\n      add\n        /* \"#utility.yul\":835:881   */\n      swap2\n      pop\n        /* \"#utility.yul\":612:887   */\n      pop\n        /* \"#utility.yul\":530:887   */\n      swap3\n      swap2\n      pop\n      pop\n      jump\t// out\n        /* \"#utility.yul\":893:1073   */\n    tag_24:\n        /* \"#utility.yul\":941:1018   */\n      0x4e487b7100000000000000000000000000000000000000000000000000000000\n        /* \"#utility.yul\":938:939   */\n      0x00\n        /* \"#utility.yul\":931:1019   */\n      mstore\n        /* \"#utility.yul\":1038:1042   */\n      0x21\n        /* \"#utility.yul\":1035:1036   */\n      0x04\n        /* \"#utility.yul\":1028:1043   */\n      mstore\n        /* \"#utility.yul\":1062:1066   */\n      0x24\n        /* \"#utility.yul\":1059:1060   */\n      0x00\n        /* \"#utility.yul\":1052:1067   */\n      revert\n        /* \"#utility.yul\":1079:1192   */\n    tag_41:\n        /* \"#utility.yul\":1160:1161   */\n      0x03\n        /* \"#utility.yul\":1153:1158   */\n      dup2\n        /* \"#utility.yul\":1150:1162   */\n      lt\n        /* \"#utility.yul\":1140:1186   */\n      tag_91\n      jumpi\n        /* \"#utility.yul\":1166:1184   */\n      tag_92\n      tag_24\n      jump\t// in\n    tag_92:\n        /* \"#utility.yul\":1140:1186   */\n    tag_91:\n        /* \"#utility.yul\":1079:1192   */\n      pop\n      jump\t// out\n        /* \"#utility.yul\":1198:1325   */\n    tag_42:\n        /* \"#utility.yul\":1243:1250   */\n      0x00\n        /* \"#utility.yul\":1272:1277   */\n      dup2\n        /* \"#utility.yul\":1261:1277   */\n      swap1\n      pop\n        /* \"#utility.yul\":1278:1319   */\n      tag_94\n        /* \"#utility.yul\":1313:1318   */\n      dup3\n        /* \"#utility.yul\":1278:1319   */\n      tag_41\n      jump\t// in\n    tag_94:\n        /* \"#utility.yul\":1198:1325   */\n      swap2\n      swap1\n      pop\n      jump\t// out\n        /* \"#utility.yul\":1331:1458   */\n    tag_43:\n        /* \"#utility.yul\":1387:1396   */\n      0x00\n        /* \"#utility.yul\":1420:1452   */\n      tag_96\n        /* \"#utility.yul\":1446:1451   */\n      dup3\n        /* \"#utility.yul\":1420:1452   */\n      tag_42\n      jump\t// in\n    tag_96:\n        /* \"#utility.yul\":1407:1452   */\n      swap1\n      pop\n        /* \"#utility.yul\":1331:1458   */\n      swap2\n      swap1\n      pop\n      jump\t// out\n        /* \"#utility.yul\":1464:1597   */\n    tag_44:\n        /* \"#utility.yul\":1547:1590   */\n      tag_98\n        /* \"#utility.yul\":1584:1589   */\n      dup2\n        /* \"#utility.yul\":1547:1590   */\n      tag_43\n      jump\t// in\n    tag_98:\n        /* \"#utility.yul\":1542:1545   */\n      dup3\n        /* \"#utility.yul\":1535:1591   */\n      mstore\n        /* \"#utility.yul\":1464:1597   */\n      pop\n      pop\n      jump\t// out\n        /* \"#utility.yul\":1603:1680   */\n    tag_45:\n        /* \"#utility.yul\":1640:1647   */\n      0x00\n        /* \"#utility.yul\":1669:1674   */\n      dup2\n        /* \"#utility.yul\":1658:1674   */\n      swap1\n      pop\n        /* \"#utility.yul\":1603:1680   */\n      swap2\n      swap1\n      pop\n      jump\t// out\n        /* \"#utility.yul\":1686:1794   */\n    tag_46:\n        /* \"#utility.yul\":1763:1787   */\n      tag_101\n        /* \"#utility.yul\":1781:1786   */\n      dup2\n        /* \"#utility.yul\":1763:1787   */\n      tag_45\n      jump\t// in\n    tag_101:\n        /* \"#utility.yul\":1758:1761   */\n      dup3\n        /* \"#utility.yul\":1751:1788   */\n      mstore\n        /* \"#utility.yul\":1686:1794   */\n      pop\n      pop\n      jump\t// out\n        /* \"#utility.yul\":1868:2665   */\n    tag_47:\n        /* \"#utility.yul\":1989:1992   */\n      0x00\n        /* \"#utility.yul\":2025:2029   */\n      0x60\n        /* \"#utility.yul\":2020:2023   */\n      dup4\n        /* \"#utility.yul\":2016:2030   */\n      add\n        /* \"#utility.yul\":2112:2116   */\n      0x00\n        /* \"#utility.yul\":2105:2110   */\n      dup4\n        /* \"#utility.yul\":2101:2117   */\n      add\n        /* \"#utility.yul\":2095:2118   */\n      mload\n        /* \"#utility.yul\":2165:2168   */\n      dup5\n        /* \"#utility.yul\":2159:2163   */\n      dup3\n        /* \"#utility.yul\":2155:2169   */\n      sub\n        /* \"#utility.yul\":2148:2152   */\n      0x00\n        /* \"#utility.yul\":2143:2146   */\n      dup7\n        /* \"#utility.yul\":2139:2153   */\n      add\n        /* \"#utility.yul\":2132:2170   */\n      mstore\n        /* \"#utility.yul\":2191:2264   */\n      tag_103\n        /* \"#utility.yul\":2259:2263   */\n      dup3\n        /* \"#utility.yul\":2245:2257   */\n      dup3\n        /* \"#utility.yul\":2191:2264   */\n      tag_40\n      jump\t// in\n    tag_103:\n        /* \"#utility.yul\":2183:2264   */\n      swap2\n      pop\n        /* \"#utility.yul\":2040:2275   */\n      pop\n        /* \"#utility.yul\":2358:2362   */\n      0x20\n        /* \"#utility.yul\":2351:2356   */\n      dup4\n        /* \"#utility.yul\":2347:2363   */\n      add\n        /* \"#utility.yul\":2341:2364   */\n      mload\n        /* \"#utility.yul\":2377:2446   */\n      tag_104\n        /* \"#utility.yul\":2440:2444   */\n      0x20\n        /* \"#utility.yul\":2435:2438   */\n      dup7\n        /* \"#utility.yul\":2431:2445   */\n      add\n        /* \"#utility.yul\":2417:2429   */\n      dup3\n        /* \"#utility.yul\":2377:2446   */\n      tag_44\n      jump\t// in\n    tag_104:\n        /* \"#utility.yul\":2285:2456   */\n      pop\n        /* \"#utility.yul\":2546:2550   */\n      0x40\n        /* \"#utility.yul\":2539:2544   */\n      dup4\n        /* \"#utility.yul\":2535:2551   */\n      add\n        /* \"#utility.yul\":2529:2552   */\n      mload\n        /* \"#utility.yul\":2565:2628   */\n      tag_105\n        /* \"#utility.yul\":2622:2626   */\n      0x40\n        /* \"#utility.yul\":2617:2620   */\n      dup7\n        /* \"#utility.yul\":2613:2627   */\n      add\n        /* \"#utility.yul\":2599:2611   */\n      dup3\n        /* \"#utility.yul\":2565:2628   */\n      tag_46\n      jump\t// in\n    tag_105:\n        /* \"#utility.yul\":2466:2638   */\n      pop\n        /* \"#utility.yul\":2655:2659   */\n      dup1\n        /* \"#utility.yul\":2648:2659   */\n      swap2\n      pop\n        /* \"#utility.yul\":1994:2665   */\n      pop\n        /* \"#utility.yul\":1868:2665   */\n      swap3\n      swap2\n      pop\n      pop\n      jump\t// out\n        /* \"#utility.yul\":2671:3048   */\n    tag_8:\n        /* \"#utility.yul\":2816:2820   */\n      0x00\n        /* \"#utility.yul\":2854:2856   */\n      0x20\n        /* \"#utility.yul\":2843:2852   */\n      dup3\n        /* \"#utility.yul\":2839:2857   */\n      add\n        /* \"#utility.yul\":2831:2857   */\n      swap1\n      pop\n        /* \"#utility.yul\":2903:2912   */\n      dup2\n        /* \"#utility.yul\":2897:2901   */\n      dup2\n        /* \"#utility.yul\":2893:2913   */\n      sub\n        /* \"#utility.yul\":2889:2890   */\n      0x00\n        /* \"#utility.yul\":2878:2887   */\n      dup4\n        /* \"#utility.yul\":2874:2891   */\n      add\n        /* \"#utility.yul\":2867:2914   */\n      mstore\n        /* \"#utility.yul\":2931:3041   */\n      tag_107\n        /* \"#utility.yul\":3036:3040   */\n      dup2\n        /* \"#utility.yul\":3027:3033   */\n      dup5\n        /* \"#utility.yul\":2931:3041   */\n      tag_47\n      jump\t// in\n    tag_107:\n        /* \"#utility.yul\":2923:3041   */\n      swap1\n      pop\n        /* \"#utility.yul\":2671:3048   */\n      swap3\n      swap2\n      pop\n      pop\n      jump\t// out\n        /* \"#utility.yul\":3054:3129   */\n    tag_48:\n        /* \"#utility.yul\":3087:3093   */\n      0x00\n        /* \"#utility.yul\":3120:3122   */\n      0x40\n        /* \"#utility.yul\":3114:3123   */\n      mload\n        /* \"#utility.yul\":3104:3123   */\n      swap1\n      pop\n        /* \"#utility.yul\":3054:3129   */\n      swap1\n      jump\t// out\n        /* \"#utility.yul\":3135:3252   */\n    tag_49:\n        /* \"#utility.yul\":3244:3245   */\n      0x00\n        /* \"#utility.yul\":3241:3242   */\n      0x00\n        /* \"#utility.yul\":3234:3246   */\n      revert\n        /* \"#utility.yul\":3258:3375   */\n    tag_50:\n        /* \"#utility.yul\":3367:3368   */\n      0x00\n        /* \"#utility.yul\":3364:3365   */\n      0x00\n        /* \"#utility.yul\":3357:3369   */\n      revert\n        /* \"#utility.yul\":3381:3488   */\n    tag_51:\n        /* \"#utility.yul\":3462:3463   */\n      0x03\n        /* \"#utility.yul\":3455:3460   */\n      dup2\n        /* \"#utility.yul\":3452:3464   */\n      lt\n        /* \"#utility.yul\":3442:3482   */\n      tag_112\n      jumpi\n        /* \"#utility.yul\":3478:3479   */\n      0x00\n        /* \"#utility.yul\":3475:3476   */\n      0x00\n        /* \"#utility.yul\":3468:3480   */\n      revert\n        /* \"#utility.yul\":3442:3482   */\n    tag_112:\n        /* \"#utility.yul\":3381:3488   */\n      pop\n      jump\t// out\n        /* \"#utility.yul\":3494:3649   */\n    tag_52:\n        /* \"#utility.yul\":3548:3553   */\n      0x00\n        /* \"#utility.yul\":3586:3592   */\n      dup2\n        /* \"#utility.yul\":3573:3593   */\n      calldataload\n        /* \"#utility.yul\":3564:3593   */\n      swap1\n      pop\n        /* \"#utility.yul\":3602:3643   */\n      tag_114\n        /* \"#utility.yul\":3637:3642   */\n      dup2\n        /* \"#utility.yul\":3602:3643   */\n      tag_51\n      jump\t// in\n    tag_114:\n        /* \"#utility.yul\":3494:3649   */\n      swap3\n      swap2\n      pop\n      pop\n      jump\t// out\n        /* \"#utility.yul\":3655:3772   */\n    tag_53:\n        /* \"#utility.yul\":3764:3765   */\n      0x00\n        /* \"#utility.yul\":3761:3762   */\n      0x00\n        /* \"#utility.yul\":3754:3766   */\n      revert\n        /* \"#utility.yul\":3778:3895   */\n    tag_54:\n        /* \"#utility.yul\":3887:3888   */\n      0x00\n        /* \"#utility.yul\":3884:3885   */\n      0x00\n        /* \"#utility.yul\":3877:3889   */\n      revert\n        /* \"#utility.yul\":3901:4081   */\n    tag_55:\n        /* \"#utility.yul\":3949:4026   */\n      0x4e487b7100000000000000000000000000000000000000000000000000000000\n        /* \"#utility.yul\":3946:3947   */\n      0x00\n        /* \"#utility.yul\":3939:4027   */\n      mstore\n        /* \"#utility.yul\":4046:4050   */\n      0x41\n        /* \"#utility.yul\":4043:4044   */\n      0x04\n        /* \"#utility.yul\":4036:4051   */\n      mstore\n        /* \"#utility.yul\":4070:4074   */\n      0x24\n        /* \"#utility.yul\":4067:4068   */\n      0x00\n        /* \"#utility.yul\":4060:4075   */\n      revert\n        /* \"#utility.yul\":4087:4368   */\n    tag_56:\n        /* \"#utility.yul\":4170:4197   */\n      tag_119\n        /* \"#utility.yul\":4192:4196   */\n      dup3\n        /* \"#utility.yul\":4170:4197   */\n      tag_39\n      jump\t// in\n    tag_119:\n        /* \"#utility.yul\":4162:4168   */\n      dup2\n        /* \"#utility.yul\":4158:4198   */\n      add\n        /* \"#utility.yul\":4300:4306   */\n      dup2\n        /* \"#utility.yul\":4288:4298   */\n      dup2\n        /* \"#utility.yul\":4285:4307   */\n      lt\n        /* \"#utility.yul\":4264:4282   */\n      0xffffffffffffffff\n        /* \"#utility.yul\":4252:4262   */\n      dup3\n        /* \"#utility.yul\":4249:4283   */\n      gt\n        /* \"#utility.yul\":4246:4308   */\n      or\n        /* \"#utility.yul\":4243:4331   */\n      iszero\n      tag_120\n      jumpi\n        /* \"#utility.yul\":4311:4329   */\n      tag_121\n      tag_55\n      jump\t// in\n    tag_121:\n        /* \"#utility.yul\":4243:4331   */\n    tag_120:\n        /* \"#utility.yul\":4351:4361   */\n      dup1\n        /* \"#utility.yul\":4347:4349   */\n      0x40\n        /* \"#utility.yul\":4340:4362   */\n      mstore\n        /* \"#utility.yul\":4130:4368   */\n      pop\n        /* \"#utility.yul\":4087:4368   */\n      pop\n      pop\n      jump\t// out\n        /* \"#utility.yul\":4374:4503   */\n    tag_57:\n        /* \"#utility.yul\":4408:4414   */\n      0x00\n        /* \"#utility.yul\":4435:4455   */\n      tag_123\n      tag_48\n      jump\t// in\n    tag_123:\n        /* \"#utility.yul\":4425:4455   */\n      swap1\n      pop\n        /* \"#utility.yul\":4464:4497   */\n      tag_124\n        /* \"#utility.yul\":4492:4496   */\n      dup3\n        /* \"#utility.yul\":4484:4490   */\n      dup3\n        /* \"#utility.yul\":4464:4497   */\n      tag_56\n      jump\t// in\n    tag_124:\n        /* \"#utility.yul\":4374:4503   */\n      swap2\n      swap1\n      pop\n      jump\t// out\n        /* \"#utility.yul\":4509:4817   */\n    tag_58:\n        /* \"#utility.yul\":4571:4575   */\n      0x00\n        /* \"#utility.yul\":4661:4679   */\n      0xffffffffffffffff\n        /* \"#utility.yul\":4653:4659   */\n      dup3\n        /* \"#utility.yul\":4650:4680   */\n      gt\n        /* \"#utility.yul\":4647:4703   */\n      iszero\n      tag_126\n      jumpi\n        /* \"#utility.yul\":4683:4701   */\n      tag_127\n      tag_55\n      jump\t// in\n    tag_127:\n        /* \"#utility.yul\":4647:4703   */\n    tag_126:\n        /* \"#utility.yul\":4721:4750   */\n      tag_128\n        /* \"#utility.yul\":4743:4749   */\n      dup3\n        /* \"#utility.yul\":4721:4750   */\n      tag_39\n      jump\t// in\n    tag_128:\n        /* \"#utility.yul\":4713:4750   */\n      swap1\n      pop\n        /* \"#utility.yul\":4805:4809   */\n      0x20\n        /* \"#utility.yul\":4799:4803   */\n      dup2\n        /* \"#utility.yul\":4795:4810   */\n      add\n        /* \"#utility.yul\":4787:4810   */\n      swap1\n      pop\n        /* \"#utility.yul\":4509:4817   */\n      swap2\n      swap1\n      pop\n      jump\t// out\n        /* \"#utility.yul\":4823:4971   */\n    tag_59:\n        /* \"#utility.yul\":4921:4927   */\n      dup3\n        /* \"#utility.yul\":4916:4919   */\n      dup2\n        /* \"#utility.yul\":4911:4914   */\n      dup4\n        /* \"#utility.yul\":4898:4928   */\n      calldatacopy\n        /* \"#utility.yul\":4962:4963   */\n      0x00\n        /* \"#utility.yul\":4953:4959   */\n      dup4\n        /* \"#utility.yul\":4948:4951   */\n      dup4\n        /* \"#utility.yul\":4944:4960   */\n      add\n        /* \"#utility.yul\":4937:4964   */\n      mstore\n        /* \"#utility.yul\":4823:4971   */\n      pop\n      pop\n      pop\n      jump\t// out\n        /* \"#utility.yul\":4977:5402   */\n    tag_60:\n        /* \"#utility.yul\":5055:5060   */\n      0x00\n        /* \"#utility.yul\":5080:5146   */\n      tag_131\n        /* \"#utility.yul\":5096:5145   */\n      tag_132\n        /* \"#utility.yul\":5138:5144   */\n      dup5\n        /* \"#utility.yul\":5096:5145   */\n      tag_58\n      jump\t// in\n    tag_132:\n        /* \"#utility.yul\":5080:5146   */\n      tag_57\n      jump\t// in\n    tag_131:\n        /* \"#utility.yul\":5071:5146   */\n      swap1\n      pop\n        /* \"#utility.yul\":5169:5175   */\n      dup3\n        /* \"#utility.yul\":5162:5167   */\n      dup2\n        /* \"#utility.yul\":5155:5176   */\n      mstore\n        /* \"#utility.yul\":5207:5211   */\n      0x20\n        /* \"#utility.yul\":5200:5205   */\n      dup2\n        /* \"#utility.yul\":5196:5212   */\n      add\n        /* \"#utility.yul\":5245:5248   */\n      dup5\n        /* \"#utility.yul\":5236:5242   */\n      dup5\n        /* \"#utility.yul\":5231:5234   */\n      dup5\n        /* \"#utility.yul\":5227:5243   */\n      add\n        /* \"#utility.yul\":5224:5249   */\n      gt\n        /* \"#utility.yul\":5221:5333   */\n      iszero\n      tag_133\n      jumpi\n        /* \"#utility.yul\":5252:5331   */\n      tag_134\n      tag_54\n      jump\t// in\n    tag_134:\n        /* \"#utility.yul\":5221:5333   */\n    tag_133:\n        /* \"#utility.yul\":5342:5396   */\n      tag_135\n        /* \"#utility.yul\":5389:5395   */\n      dup5\n        /* \"#utility.yul\":5384:5387   */\n      dup3\n        /* \"#utility.yul\":5379:5382   */\n      dup6\n        /* \"#utility.yul\":5342:5396   */\n      tag_59\n      jump\t// in\n    tag_135:\n        /* \"#utility.yul\":5061:5402   */\n      pop\n        /* \"#utility.yul\":4977:5402   */\n      swap4\n      swap3\n      pop\n      pop\n      pop\n      jump\t// out\n        /* \"#utility.yul\":5422:5762   */\n    tag_61:\n        /* \"#utility.yul\":5478:5483   */\n      0x00\n        /* \"#utility.yul\":5527:5530   */\n      dup3\n        /* \"#utility.yul\":5520:5524   */\n      0x1f\n        /* \"#utility.yul\":5512:5518   */\n      dup4\n        /* \"#utility.yul\":5508:5525   */\n      add\n        /* \"#utility.yul\":5504:5531   */\n      slt\n        /* \"#utility.yul\":5494:5616   */\n      tag_137\n      jumpi\n        /* \"#utility.yul\":5535:5614   */\n      tag_138\n      tag_53\n      jump\t// in\n    tag_138:\n        /* \"#utility.yul\":5494:5616   */\n    tag_137:\n        /* \"#utility.yul\":5652:5658   */\n      dup2\n        /* \"#utility.yul\":5639:5659   */\n      calldataload\n        /* \"#utility.yul\":5677:5756   */\n      tag_139\n        /* \"#utility.yul\":5752:5755   */\n      dup5\n        /* \"#utility.yul\":5744:5750   */\n      dup3\n        /* \"#utility.yul\":5737:5741   */\n      0x20\n        /* \"#utility.yul\":5729:5735   */\n      dup7\n        /* \"#utility.yul\":5725:5742   */\n      add\n        /* \"#utility.yul\":5677:5756   */\n      tag_60\n      jump\t// in\n    tag_139:\n        /* \"#utility.yul\":5668:5756   */\n      swap2\n      pop\n        /* \"#utility.yul\":5484:5762   */\n      pop\n        /* \"#utility.yul\":5422:5762   */\n      swap3\n      swap2\n      pop\n      pop\n      jump\t// out\n        /* \"#utility.yul\":5768:6438   */\n    tag_11:\n        /* \"#utility.yul\":5854:5860   */\n      0x00\n        /* \"#utility.yul\":5862:5868   */\n      0x00\n        /* \"#utility.yul\":5911:5913   */\n      0x40\n        /* \"#utility.yul\":5899:5908   */\n      dup4\n        /* \"#utility.yul\":5890:5897   */\n      dup6\n        /* \"#utility.yul\":5886:5909   */\n      sub\n        /* \"#utility.yul\":5882:5914   */\n      slt\n        /* \"#utility.yul\":5879:5998   */\n      iszero\n      tag_141\n      jumpi\n        /* \"#utility.yul\":5917:5996   */\n      tag_142\n      tag_49\n      jump\t// in\n    tag_142:\n        /* \"#utility.yul\":5879:5998   */\n    tag_141:\n        /* \"#utility.yul\":6037:6038   */\n      0x00\n        /* \"#utility.yul\":6062:6123   */\n      tag_143\n        /* \"#utility.yul\":6115:6122   */\n      dup6\n        /* \"#utility.yul\":6106:6112   */\n      dup3\n        /* \"#utility.yul\":6095:6104   */\n      dup7\n        /* \"#utility.yul\":6091:6113   */\n      add\n        /* \"#utility.yul\":6062:6123   */\n      tag_52\n      jump\t// in\n    tag_143:\n        /* \"#utility.yul\":6052:6123   */\n      swap3\n      pop\n        /* \"#utility.yul\":6008:6133   */\n      pop\n        /* \"#utility.yul\":6200:6202   */\n      0x20\n        /* \"#utility.yul\":6189:6198   */\n      dup4\n        /* \"#utility.yul\":6185:6203   */\n      add\n        /* \"#utility.yul\":6172:6204   */\n      calldataload\n        /* \"#utility.yul\":6231:6249   */\n      0xffffffffffffffff\n        /* \"#utility.yul\":6223:6229   */\n      dup2\n        /* \"#utility.yul\":6220:6250   */\n      gt\n        /* \"#utility.yul\":6217:6334   */\n      iszero\n      tag_144\n      jumpi\n        /* \"#utility.yul\":6253:6332   */\n      tag_145\n      tag_50\n      jump\t// in\n    tag_145:\n        /* \"#utility.yul\":6217:6334   */\n    tag_144:\n        /* \"#utility.yul\":6358:6421   */\n      tag_146\n        /* \"#utility.yul\":6413:6420   */\n      dup6\n        /* \"#utility.yul\":6404:6410   */\n      dup3\n        /* \"#utility.yul\":6393:6402   */\n      dup7\n        /* \"#utility.yul\":6389:6411   */\n      add\n        /* \"#utility.yul\":6358:6421   */\n      tag_61\n      jump\t// in\n    tag_146:\n        /* \"#utility.yul\":6348:6421   */\n      swap2\n      pop\n        /* \"#utility.yul\":6143:6431   */\n      pop\n        /* \"#utility.yul\":5768:6438   */\n      swap3\n      pop\n      swap3\n      swap1\n      pop\n      jump\t// out\n        /* \"#utility.yul\":6444:6624   */\n    tag_62:\n        /* \"#utility.yul\":6492:6569   */\n      0x4e487b7100000000000000000000000000000000000000000000000000000000\n        /* \"#utility.yul\":6489:6490   */\n      0x00\n        /* \"#utility.yul\":6482:6570   */\n      mstore\n        /* \"#utility.yul\":6589:6593   */\n      0x22\n        /* \"#utility.yul\":6586:6587   */\n      0x04\n        /* \"#utility.yul\":6579:6594   */\n      mstore\n        /* \"#utility.yul\":6613:6617   */\n      0x24\n        /* \"#utility.yul\":6610:6611   */\n      0x00\n        /* \"#utility.yul\":6603:6618   */\n      revert\n        /* \"#utility.yul\":6630:6950   */\n    tag_17:\n        /* \"#utility.yul\":6674:6680   */\n      0x00\n        /* \"#utility.yul\":6711:6712   */\n      0x02\n        /* \"#utility.yul\":6705:6709   */\n      dup3\n        /* \"#utility.yul\":6701:6713   */\n      div\n        /* \"#utility.yul\":6691:6713   */\n      swap1\n      pop\n        /* \"#utility.yul\":6758:6759   */\n      0x01\n        /* \"#utility.yul\":6752:6756   */\n      dup3\n        /* \"#utility.yul\":6748:6760   */\n      and\n        /* \"#utility.yul\":6779:6797   */\n      dup1\n        /* \"#utility.yul\":6769:6850   */\n      tag_149\n      jumpi\n        /* \"#utility.yul\":6835:6839   */\n      0x7f\n        /* \"#utility.yul\":6827:6833   */\n      dup3\n        /* \"#utility.yul\":6823:6840   */\n      and\n        /* \"#utility.yul\":6813:6840   */\n      swap2\n      pop\n        /* \"#utility.yul\":6769:6850   */\n    tag_149:\n        /* \"#utility.yul\":6897:6899   */\n      0x20\n        /* \"#utility.yul\":6889:6895   */\n      dup3\n        /* \"#utility.yul\":6886:6900   */\n      lt\n        /* \"#utility.yul\":6866:6884   */\n      dup2\n        /* \"#utility.yul\":6863:6901   */\n      sub\n        /* \"#utility.yul\":6860:6944   */\n      tag_150\n      jumpi\n        /* \"#utility.yul\":6916:6934   */\n      tag_151\n      tag_62\n      jump\t// in\n    tag_151:\n        /* \"#utility.yul\":6860:6944   */\n    tag_150:\n        /* \"#utility.yul\":6681:6950   */\n      pop\n        /* \"#utility.yul\":6630:6950   */\n      swap2\n      swap1\n      pop\n      jump\t// out\n        /* \"#utility.yul\":6956:7136   */\n    tag_63:\n        /* \"#utility.yul\":7004:7081   */\n      0x4e487b7100000000000000000000000000000000000000000000000000000000\n        /* \"#utility.yul\":7001:7002   */\n      0x00\n        /* \"#utility.yul\":6994:7082   */\n      mstore\n        /* \"#utility.yul\":7101:7105   */\n      0x11\n        /* \"#utility.yul\":7098:7099   */\n      0x04\n        /* \"#utility.yul\":7091:7106   */\n      mstore\n        /* \"#utility.yul\":7125:7129   */\n      0x24\n        /* \"#utility.yul\":7122:7123   */\n      0x00\n        /* \"#utility.yul\":7115:7130   */\n      revert\n        /* \"#utility.yul\":7142:7375   */\n    tag_29:\n        /* \"#utility.yul\":7181:7184   */\n      0x00\n        /* \"#utility.yul\":7204:7228   */\n      tag_154\n        /* \"#utility.yul\":7222:7227   */\n      dup3\n        /* \"#utility.yul\":7204:7228   */\n      tag_45\n      jump\t// in\n    tag_154:\n        /* \"#utility.yul\":7195:7228   */\n      swap2\n      pop\n        /* \"#utility.yul\":7250:7316   */\n      0xffffffffffffffffffffffffffffffffffffffffffffffffffffffffffffffff\n        /* \"#utility.yul\":7243:7248   */\n      dup3\n        /* \"#utility.yul\":7240:7317   */\n      sub\n        /* \"#utility.yul\":7237:7340   */\n      tag_155\n      jumpi\n        /* \"#utility.yul\":7320:7338   */\n      tag_156\n      tag_63\n      jump\t// in\n    tag_156:\n        /* \"#utility.yul\":7237:7340   */\n    tag_155:\n        /* \"#utility.yul\":7367:7368   */\n      0x01\n        /* \"#utility.yul\":7360:7365   */\n      dup3\n        /* \"#utility.yul\":7356:7369   */\n      add\n        /* \"#utility.yul\":7349:7369   */\n      swap1\n      pop\n        /* \"#utility.yul\":7142:7375   */\n      swap2\n      swap1\n      pop\n      jump\t// out\n        /* \"#utility.yul\":7381:7522   */\n    tag_64:\n        /* \"#utility.yul\":7430:7434   */\n      0x00\n        /* \"#utility.yul\":7453:7456   */\n      dup2\n        /* \"#utility.yul\":7445:7456   */\n      swap1\n      pop\n        /* \"#utility.yul\":7476:7479   */\n      dup2\n        /* \"#utility.yul\":7473:7474   */\n      0x00\n        /* \"#utility.yul\":7466:7480   */\n      mstore\n        /* \"#utility.yul\":7510:7514   */\n      0x20\n        /* \"#utility.yul\":7507:7508   */\n      0x00\n        /* \"#utility.yul\":7497:7515   */\n      keccak256\n        /* \"#utility.yul\":7489:7515   */\n      swap1\n      pop\n        /* \"#utility.yul\":7381:7522   */\n      swap2\n      swap1\n      pop\n      jump\t// out\n        /* \"#utility.yul\":7528:7621   */\n    tag_65:\n        /* \"#utility.yul\":7565:7571   */\n      0x00\n        /* \"#utility.yul\":7612:7614   */\n      0x20\n        /* \"#utility.yul\":7607:7609   */\n      0x1f\n        /* \"#utility.yul\":7600:7605   */\n      dup4\n        /* \"#utility.yul\":7596:7610   */\n      add\n        /* \"#utility.yul\":7592:7615   */\n      div\n        /* \"#utility.yul\":7582:7615   */\n      swap1\n      pop\n        /* \"#utility.yul\":7528:7621   */\n      swap2\n      swap1\n      pop\n      jump\t// out\n        /* \"#utility.yul\":7627:7734   */\n    tag_66:\n        /* \"#utility.yul\":7671:7679   */\n      0x00\n        /* \"#utility.yul\":7721:7726   */\n      dup3\n        /* \"#utility.yul\":7715:7719   */\n      dup3\n        /* \"#utility.yul\":7711:7727   */\n      shl\n        /* \"#utility.yul\":7690:7727   */\n      swap1\n      pop\n        /* \"#utility.yul\":7627:7734   */\n      swap3\n      swap2\n      pop\n      pop\n      jump\t// out\n        /* \"#utility.yul\":7740:8133   */\n    tag_67:\n        /* \"#utility.yul\":7809:7815   */\n      0x00\n        /* \"#utility.yul\":7859:7860   */\n      0x08\n        /* \"#utility.yul\":7847:7857   */\n      dup4\n        /* \"#utility.yul\":7843:7861   */\n      mul\n        /* \"#utility.yul\":7882:7979   */\n      tag_161\n        /* \"#utility.yul\":7912:7978   */\n      0xffffffffffffffffffffffffffffffffffffffffffffffffffffffffffffffff\n        /* \"#utility.yul\":7901:7910   */\n      dup3\n        /* \"#utility.yul\":7882:7979   */\n      tag_66\n      jump\t// in\n    tag_161:\n        /* \"#utility.yul\":8000:8039   */\n      tag_162\n        /* \"#utility.yul\":8030:8038   */\n      dup7\n        /* \"#utility.yul\":8019:8028   */\n      dup4\n        /* \"#utility.yul\":8000:8039   */\n      tag_66\n      jump\t// in\n    tag_162:\n        /* \"#utility.yul\":7988:8039   */\n      swap6\n      pop\n        /* \"#utility.yul\":8072:8076   */\n      dup1\n        /* \"#utility.yul\":8068:8077   */\n      not\n        /* \"#utility.yul\":8061:8066   */\n      dup5\n        /* \"#utility.yul\":8057:8078   */\n      and\n        /* \"#utility.yul\":8048:8078   */\n      swap4\n      pop\n        /* \"#utility.yul\":8121:8125   */\n      dup1\n        /* \"#utility.yul\":8111:8119   */\n      dup7\n        /* \"#utility.yul\":8107:8126   */\n      and\n        /* \"#utility.yul\":8100:8105   */\n      dup5\n        /* \"#utility.yul\":8097:8127   */\n      or\n        /* \"#utility.yul\":8087:8127   */\n      swap3\n      pop\n        /* \"#utility.yul\":7816:8133   */\n      pop\n      pop\n        /* \"#utility.yul\":7740:8133   */\n      swap4\n      swap3\n      pop\n      pop\n      pop\n      jump\t// out\n        /* \"#utility.yul\":8139:8199   */\n    tag_68:\n        /* \"#utility.yul\":8167:8170   */\n      0x00\n        /* \"#utility.yul\":8188:8193   */\n      dup2\n        /* \"#utility.yul\":8181:8193   */\n      swap1\n      pop\n        /* \"#utility.yul\":8139:8199   */\n      swap2\n      swap1\n      pop\n      jump\t// out\n        /* \"#utility.yul\":8205:8347   */\n    tag_69:\n        /* \"#utility.yul\":8255:8264   */\n      0x00\n        /* \"#utility.yul\":8288:8341   */\n      tag_165\n        /* \"#utility.yul\":8306:8340   */\n      tag_166\n        /* \"#utility.yul\":8315:8339   */\n      tag_167\n        /* \"#utility.yul\":8333:8338   */\n      dup5\n        /* \"#utility.yul\":8315:8339   */\n      tag_45\n      jump\t// in\n    tag_167:\n        /* \"#utility.yul\":8306:8340   */\n      tag_68\n      jump\t// in\n    tag_166:\n        /* \"#utility.yul\":8288:8341   */\n      tag_45\n      jump\t// in\n    tag_165:\n        /* \"#utility.yul\":8275:8341   */\n      swap1\n      pop\n        /* \"#utility.yul\":8205:8347   */\n      swap2\n      swap1\n      pop\n      jump\t// out\n        /* \"#utility.yul\":8353:8428   */\n    tag_70:\n        /* \"#utility.yul\":8396:8399   */\n      0x00\n        /* \"#utility.yul\":8417:8422   */\n      dup2\n        /* \"#utility.yul\":8410:8422   */\n      swap1\n      pop\n        /* \"#utility.yul\":8353:8428   */\n      swap2\n      swap1\n      pop\n      jump\t// out\n        /* \"#utility.yul\":8434:8703   */\n    tag_71:\n        /* \"#utility.yul\":8544:8583   */\n      tag_170\n        /* \"#utility.yul\":8575:8582   */\n      dup4\n        /* \"#utility.yul\":8544:8583   */\n      tag_69\n      jump\t// in\n    tag_170:\n        /* \"#utility.yul\":8605:8696   */\n      tag_171\n        /* \"#utility.yul\":8654:8695   */\n      tag_172\n        /* \"#utility.yul\":8678:8694   */\n      dup3\n        /* \"#utility.yul\":8654:8695   */\n      tag_70\n      jump\t// in\n    tag_172:\n        /* \"#utility.yul\":8646:8652   */\n      dup5\n        /* \"#utility.yul\":8639:8643   */\n      dup5\n        /* \"#utility.yul\":8633:8644   */\n      sload\n        /* \"#utility.yul\":8605:8696   */\n      tag_67\n      jump\t// in\n    tag_171:\n        /* \"#utility.yul\":8599:8603   */\n      dup3\n        /* \"#utility.yul\":8592:8697   */\n      sstore\n        /* \"#utility.yul\":8510:8703   */\n      pop\n        /* \"#utility.yul\":8434:8703   */\n      pop\n      pop\n      pop\n      jump\t// out\n        /* \"#utility.yul\":8709:8782   */\n    tag_72:\n        /* \"#utility.yul\":8754:8757   */\n      0x00\n        /* \"#utility.yul\":8775:8776   */\n      0x00\n        /* \"#utility.yul\":8768:8776   */\n      swap1\n      pop\n        /* \"#utility.yul\":8709:8782   */\n      swap1\n      jump\t// out\n        /* \"#utility.yul\":8788:8977   */\n    tag_73:\n        /* \"#utility.yul\":8865:8897   */\n      tag_175\n      tag_72\n      jump\t// in\n    tag_175:\n        /* \"#utility.yul\":8906:8971   */\n      tag_176\n        /* \"#utility.yul\":8964:8970   */\n      dup2\n        /* \"#utility.yul\":8956:8962   */\n      dup5\n        /* \"#utility.yul\":8950:8954   */\n      dup5\n        /* \"#utility.yul\":8906:8971   */\n      tag_71\n      jump\t// in\n    tag_176:\n        /* \"#utility.yul\":8841:8977   */\n      pop\n        /* \"#utility.yul\":8788:8977   */\n      pop\n      pop\n      jump\t// out\n        /* \"#utility.yul\":8983:9169   */\n    tag_74:\n        /* \"#utility.yul\":9043:9163   */\n    tag_178:\n        /* \"#utility.yul\":9060:9063   */\n      dup2\n        /* \"#utility.yul\":9053:9058   */\n      dup2\n        /* \"#utility.yul\":9050:9064   */\n      lt\n        /* \"#utility.yul\":9043:9163   */\n      iszero\n      tag_180\n      jumpi\n        /* \"#utility.yul\":9114:9153   */\n      tag_181\n        /* \"#utility.yul\":9151:9152   */\n      0x00\n        /* \"#utility.yul\":9144:9149   */\n      dup3\n        /* \"#utility.yul\":9114:9153   */\n      tag_73\n      jump\t// in\n    tag_181:\n        /* \"#utility.yul\":9087:9088   */\n      0x01\n        /* \"#utility.yul\":9080:9085   */\n      dup2\n        /* \"#utility.yul\":9076:9089   */\n      add\n        /* \"#utility.yul\":9067:9089   */\n      swap1\n      pop\n        /* \"#utility.yul\":9043:9163   */\n      jump(tag_178)\n    tag_180:\n        /* \"#utility.yul\":8983:9169   */\n      pop\n      pop\n      jump\t// out\n        /* \"#utility.yul\":9175:9718   */\n    tag_75:\n        /* \"#utility.yul\":9276:9278   */\n      0x1f\n        /* \"#utility.yul\":9271:9274   */\n      dup3\n        /* \"#utility.yul\":9268:9279   */\n      gt\n        /* \"#utility.yul\":9265:9711   */\n      iszero\n      tag_183\n      jumpi\n        /* \"#utility.yul\":9310:9348   */\n      tag_184\n        /* \"#utility.yul\":9342:9347   */\n      dup2\n        /* \"#utility.yul\":9310:9348   */\n      tag_64\n      jump\t// in\n    tag_184:\n        /* \"#utility.yul\":9394:9423   */\n      tag_185\n        /* \"#utility.yul\":9412:9422   */\n      dup5\n        /* \"#utility.yul\":9394:9423   */\n      tag_65\n      jump\t// in\n    tag_185:\n        /* \"#utility.yul\":9384:9392   */\n      dup2\n        /* \"#utility.yul\":9380:9424   */\n      add\n        /* \"#utility.yul\":9577:9579   */\n      0x20\n        /* \"#utility.yul\":9565:9575   */\n      dup6\n        /* \"#utility.yul\":9562:9580   */\n      lt\n        /* \"#utility.yul\":9559:9608   */\n      iszero\n      tag_186\n      jumpi\n        /* \"#utility.yul\":9598:9606   */\n      dup2\n        /* \"#utility.yul\":9583:9606   */\n      swap1\n      pop\n        /* \"#utility.yul\":9559:9608   */\n    tag_186:\n        /* \"#utility.yul\":9621:9701   */\n      tag_187\n        /* \"#utility.yul\":9677:9699   */\n      tag_188\n        /* \"#utility.yul\":9695:9698   */\n      dup6\n        /* \"#utility.yul\":9677:9699   */\n      tag_65\n      jump\t// in\n    tag_188:\n        /* \"#utility.yul\":9667:9675   */\n      dup4\n        /* \"#utility.yul\":9663:9700   */\n      add\n        /* \"#utility.yul\":9650:9661   */\n      dup3\n        /* \"#utility.yul\":9621:9701   */\n      tag_74\n      jump\t// in\n    tag_187:\n        /* \"#utility.yul\":9280:9711   */\n      pop\n      pop\n        /* \"#utility.yul\":9265:9711   */\n    tag_183:\n        /* \"#utility.yul\":9175:9718   */\n      pop\n      pop\n      pop\n      jump\t// out\n        /* \"#utility.yul\":9724:9841   */\n    tag_76:\n        /* \"#utility.yul\":9778:9786   */\n      0x00\n        /* \"#utility.yul\":9828:9833   */\n      dup3\n        /* \"#utility.yul\":9822:9826   */\n      dup3\n        /* \"#utility.yul\":9818:9834   */\n      shr\n        /* \"#utility.yul\":9797:9834   */\n      swap1\n      pop\n        /* \"#utility.yul\":9724:9841   */\n      swap3\n      swap2\n      pop\n      pop\n      jump\t// out\n        /* \"#utility.yul\":9847:10016   */\n    tag_77:\n        /* \"#utility.yul\":9891:9897   */\n      0x00\n        /* \"#utility.yul\":9924:9975   */\n      tag_191\n        /* \"#utility.yul\":9972:9973   */\n      0x00\n        /* \"#utility.yul\":9968:9974   */\n      not\n        /* \"#utility.yul\":9960:9965   */\n      dup5\n        /* \"#utility.yul\":9957:9958   */\n      0x08\n        /* \"#utility.yul\":9953:9966   */\n      mul\n        /* \"#utility.yul\":9924:9975   */\n      tag_76\n      jump\t// in\n    tag_191:\n        /* \"#utility.yul\":9920:9976   */\n      not\n        /* \"#utility.yul\":10005:10009   */\n      dup1\n        /* \"#utility.yul\":9999:10003   */\n      dup4\n        /* \"#utility.yul\":9995:10010   */\n      and\n        /* \"#utility.yul\":9985:10010   */\n      swap2\n      pop\n        /* \"#utility.yul\":9898:10016   */\n      pop\n        /* \"#utility.yul\":9847:10016   */\n      swap3\n      swap2\n      pop\n      pop\n      jump\t// out\n        /* \"#utility.yul\":10021:10316   */\n    tag_78:\n        /* \"#utility.yul\":10097:10101   */\n      0x00\n        /* \"#utility.yul\":10243:10272   */\n      tag_193\n        /* \"#utility.yul\":10268:10271   */\n      dup4\n        /* \"#utility.yul\":10262:10266   */\n      dup4\n        /* \"#utility.yul\":10243:10272   */\n      tag_77\n      jump\t// in\n    tag_193:\n        /* \"#utility.yul\":10235:10272   */\n      swap2\n      pop\n        /* \"#utility.yul\":10305:10308   */\n      dup3\n        /* \"#utility.yul\":10302:10303   */\n      0x02\n        /* \"#utility.yul\":10298:10309   */\n      mul\n        /* \"#utility.yul\":10292:10296   */\n      dup3\n        /* \"#utility.yul\":10289:10310   */\n      or\n        /* \"#utility.yul\":10281:10310   */\n      swap1\n      pop\n        /* \"#utility.yul\":10021:10316   */\n      swap3\n      swap2\n      pop\n      pop\n      jump\t// out\n        /* \"#utility.yul\":10321:11716   */\n    tag_33:\n        /* \"#utility.yul\":10438:10475   */\n      tag_195\n        /* \"#utility.yul\":10471:10474   */\n      dup3\n        /* \"#utility.yul\":10438:10475   */\n      tag_36\n      jump\t// in\n    tag_195:\n        /* \"#utility.yul\":10540:10558   */\n      0xffffffffffffffff\n        /* \"#utility.yul\":10532:10538   */\n      dup2\n        /* \"#utility.yul\":10529:10559   */\n      gt\n        /* \"#utility.yul\":10526:10582   */\n      iszero\n      tag_196\n      jumpi\n        /* \"#utility.yul\":10562:10580   */\n      tag_197\n      tag_55\n      jump\t// in\n    tag_197:\n        /* \"#utility.yul\":10526:10582   */\n    tag_196:\n        /* \"#utility.yul\":10606:10644   */\n      tag_198\n        /* \"#utility.yul\":10638:10642   */\n      dup3\n        /* \"#utility.yul\":10632:10643   */\n      sload\n        /* \"#utility.yul\":10606:10644   */\n      tag_17\n      jump\t// in\n    tag_198:\n        /* \"#utility.yul\":10691:10758   */\n      tag_199\n        /* \"#utility.yul\":10751:10757   */\n      dup3\n        /* \"#utility.yul\":10743:10749   */\n      dup3\n        /* \"#utility.yul\":10737:10741   */\n      dup6\n        /* \"#utility.yul\":10691:10758   */\n      tag_75\n      jump\t// in\n    tag_199:\n        /* \"#utility.yul\":10785:10786   */\n      0x00\n        /* \"#utility.yul\":10809:10813   */\n      0x20\n        /* \"#utility.yul\":10796:10813   */\n      swap1\n      pop\n        /* \"#utility.yul\":10841:10843   */\n      0x1f\n        /* \"#utility.yul\":10833:10839   */\n      dup4\n        /* \"#utility.yul\":10830:10844   */\n      gt\n        /* \"#utility.yul\":10858:10859   */\n      0x01\n        /* \"#utility.yul\":10853:11471   */\n      dup2\n      eq\n      tag_201\n      jumpi\n        /* \"#utility.yul\":11515:11516   */\n      0x00\n        /* \"#utility.yul\":11532:11538   */\n      dup5\n        /* \"#utility.yul\":11529:11606   */\n      iszero\n      tag_202\n      jumpi\n        /* \"#utility.yul\":11581:11590   */\n      dup3\n        /* \"#utility.yul\":11576:11579   */\n      dup8\n        /* \"#utility.yul\":11572:11591   */\n      add\n        /* \"#utility.yul\":11566:11592   */\n      mload\n        /* \"#utility.yul\":11557:11592   */\n      swap1\n      pop\n        /* \"#utility.yul\":11529:11606   */\n    tag_202:\n        /* \"#utility.yul\":11632:11699   */\n      tag_203\n        /* \"#utility.yul\":11692:11698   */\n      dup6\n        /* \"#utility.yul\":11685:11690   */\n      dup3\n        /* \"#utility.yul\":11632:11699   */\n      tag_78\n      jump\t// in\n    tag_203:\n        /* \"#utility.yul\":11626:11630   */\n      dup7\n        /* \"#utility.yul\":11619:11700   */\n      sstore\n        /* \"#utility.yul\":11488:11710   */\n      pop\n        /* \"#utility.yul\":10823:11710   */\n      jump(tag_200)\n        /* \"#utility.yul\":10853:11471   */\n    tag_201:\n        /* \"#utility.yul\":10905:10909   */\n      0x1f\n        /* \"#utility.yul\":10901:10910   */\n      not\n        /* \"#utility.yul\":10893:10899   */\n      dup5\n        /* \"#utility.yul\":10889:10911   */\n      and\n        /* \"#utility.yul\":10939:10976   */\n      tag_204\n        /* \"#utility.yul\":10971:10975   */\n      dup7\n        /* \"#utility.yul\":10939:10976   */\n      tag_64\n      jump\t// in\n    tag_204:\n        /* \"#utility.yul\":10998:10999   */\n      0x00\n        /* \"#utility.yul\":11012:11220   */\n    tag_205:\n        /* \"#utility.yul\":11026:11033   */\n      dup3\n        /* \"#utility.yul\":11023:11024   */\n      dup2\n        /* \"#utility.yul\":11020:11034   */\n      lt\n        /* \"#utility.yul\":11012:11220   */\n      iszero\n      tag_207\n      jumpi\n        /* \"#utility.yul\":11105:11114   */\n      dup5\n        /* \"#utility.yul\":11100:11103   */\n      dup10\n        /* \"#utility.yul\":11096:11115   */\n      add\n        /* \"#utility.yul\":11090:11116   */\n      mload\n        /* \"#utility.yul\":11082:11088   */\n      dup3\n        /* \"#utility.yul\":11075:11117   */\n      sstore\n        /* \"#utility.yul\":11156:11157   */\n      0x01\n        /* \"#utility.yul\":11148:11154   */\n      dup3\n        /* \"#utility.yul\":11144:11158   */\n      add\n        /* \"#utility.yul\":11134:11158   */\n      swap2\n      pop\n        /* \"#utility.yul\":11203:11205   */\n      0x20\n        /* \"#utility.yul\":11192:11201   */\n      dup6\n        /* \"#utility.yul\":11188:11206   */\n      add\n        /* \"#utility.yul\":11175:11206   */\n      swap5\n      pop\n        /* \"#utility.yul\":11049:11053   */\n      0x20\n        /* \"#utility.yul\":11046:11047   */\n      dup2\n        /* \"#utility.yul\":11042:11054   */\n      add\n        /* \"#utility.yul\":11037:11054   */\n      swap1\n      pop\n        /* \"#utility.yul\":11012:11220   */\n      jump(tag_205)\n    tag_207:\n        /* \"#utility.yul\":11248:11254   */\n      dup7\n        /* \"#utility.yul\":11239:11246   */\n      dup4\n        /* \"#utility.yul\":11236:11255   */\n      lt\n        /* \"#utility.yul\":11233:11412   */\n      iszero\n      tag_208\n      jumpi\n        /* \"#utility.yul\":11306:11315   */\n      dup5\n        /* \"#utility.yul\":11301:11304   */\n      dup10\n        /* \"#utility.yul\":11297:11316   */\n      add\n        /* \"#utility.yul\":11291:11317   */\n      mload\n        /* \"#utility.yul\":11349:11397   */\n      tag_209\n        /* \"#utility.yul\":11391:11395   */\n      0x1f\n        /* \"#utility.yul\":11383:11389   */\n      dup10\n        /* \"#utility.yul\":11379:11396   */\n      and\n        /* \"#utility.yul\":11368:11377   */\n      dup3\n        /* \"#utility.yul\":11349:11397   */\n      tag_77\n      jump\t// in\n    tag_209:\n        /* \"#utility.yul\":11341:11347   */\n      dup4\n        /* \"#utility.yul\":11334:11398   */\n      sstore\n        /* \"#utility.yul\":11256:11412   */\n      pop\n        /* \"#utility.yul\":11233:11412   */\n    tag_208:\n        /* \"#utility.yul\":11458:11459   */\n      0x01\n        /* \"#utility.yul\":11454:11455   */\n      0x02\n        /* \"#utility.yul\":11446:11452   */\n      dup9\n        /* \"#utility.yul\":11442:11456   */\n      mul\n        /* \"#utility.yul\":11438:11460   */\n      add\n        /* \"#utility.yul\":11432:11436   */\n      dup9\n        /* \"#utility.yul\":11425:11461   */\n      sstore\n        /* \"#utility.yul\":10860:11471   */\n      pop\n      pop\n      pop\n        /* \"#utility.yul\":10823:11710   */\n    tag_200:\n      pop\n        /* \"#utility.yul\":10413:11716   */\n      pop\n      pop\n      pop\n        /* \"#utility.yul\":10321:11716   */\n      pop\n      pop\n      jump\t// out\n\n    auxdata: 0xa264697066735822122005cf1680ba5e4ea8df933644c85023d584611feaf50ee1592a8861e12d9a6a9b64736f6c634300081c0033\n}\n",
				"bytecode": {
					"linkReferences": {},
					"object": "608060405234801561000f575f5ffd5b5060405180606001604052806040518060400160405280600b81526020017f48656c6c6f20776f726c6400000000000000000000000000000000000000000081525081526020015f6002811115610069576100686100c8565b5b81526020015f8152505f5f820151815f0190816100869190610332565b506020820151816001015f6101000a81548160ff021916908360028111156100b1576100b06100c8565b5b021790555060408201518160020155905050610401565b7f4e487b71000000000000000000000000000000000000000000000000000000005f52602160045260245ffd5b5f81519050919050565b7f4e487b71000000000000000000000000000000000000000000000000000000005f52604160045260245ffd5b7f4e487b71000000000000000000000000000000000000000000000000000000005f52602260045260245ffd5b5f600282049050600182168061017057607f821691505b6020821081036101835761018261012c565b5b50919050565b5f819050815f5260205f209050919050565b5f6020601f8301049050919050565b5f82821b905092915050565b5f600883026101e57fffffffffffffffffffffffffffffffffffffffffffffffffffffffffffffffff826101aa565b6101ef86836101aa565b95508019841693508086168417925050509392505050565b5f819050919050565b5f819050919050565b5f61023361022e61022984610207565b610210565b610207565b9050919050565b5f819050919050565b61024c83610219565b6102606102588261023a565b8484546101b6565b825550505050565b5f5f905090565b610277610268565b610282818484610243565b505050565b5b818110156102a55761029a5f8261026f565b600181019050610288565b5050565b601f8211156102ea576102bb81610189565b6102c48461019b565b810160208510156102d3578190505b6102e76102df8561019b565b830182610287565b50505b505050565b5f82821c905092915050565b5f61030a5f19846008026102ef565b1980831691505092915050565b5f61032283836102fb565b9150826002028217905092915050565b61033b826100f5565b67ffffffffffffffff811115610354576103536100ff565b5b61035e8254610159565b6103698282856102a9565b5f60209050601f83116001811461039a575f8415610388578287015190505b6103928582610317565b8655506103f9565b601f1984166103a886610189565b5f5b828110156103cf578489015182556001820191506020850194506020810190506103aa565b868310156103ec57848901516103e8601f8916826102fb565b8355505b6001600288020188555050505b505050505050565b6108808061040e5f395ff3fe608060405234801561000f575f5ffd5b5060043610610034575f3560e01c80635a9b0b8914610038578063ae15d4fc14610056575b5f5ffd5b610040610072565b60405161004d9190610330565b60405180910390f35b610070600480360381019061006b91906104b0565b61015e565b005b61007a6101b7565b5f6040518060600160405290815f8201805461009590610537565b80601f01602080910402602001604051908101604052809291908181526020018280546100c190610537565b801561010c5780601f106100e35761010080835404028352916020019161010c565b820191905f5260205f20905b8154815290600101906020018083116100ef57829003601f168201915b50505050508152602001600182015f9054906101000a900460ff16600281111561013957610138610258565b5b600281111561014b5761014a610258565b5b8152602001600282015481525050905090565b5f6002015f81548092919061017290610594565b9190505550815f6001015f6101000a81548160ff0219169083600281111561019d5761019c610258565b5b0217905550805f5f0190816101b2919061077b565b505050565b6040518060600160405280606081526020015f60028111156101dc576101db610258565b5b81526020015f81525090565b5f81519050919050565b5f82825260208201905092915050565b8281835e5f83830152505050565b5f601f19601f8301169050919050565b5f61022a826101e8565b61023481856101f2565b9350610244818560208601610202565b61024d81610210565b840191505092915050565b7f4e487b71000000000000000000000000000000000000000000000000000000005f52602160045260245ffd5b6003811061029657610295610258565b5b50565b5f8190506102a682610285565b919050565b5f6102b582610299565b9050919050565b6102c5816102ab565b82525050565b5f819050919050565b6102dd816102cb565b82525050565b5f606083015f8301518482035f8601526102fd8282610220565b915050602083015161031260208601826102bc565b50604083015161032560408601826102d4565b508091505092915050565b5f6020820190508181035f83015261034881846102e3565b905092915050565b5f604051905090565b5f5ffd5b5f5ffd5b6003811061036d575f5ffd5b50565b5f8135905061037e81610361565b92915050565b5f5ffd5b5f5ffd5b7f4e487b71000000000000000000000000000000000000000000000000000000005f52604160045260245ffd5b6103c282610210565b810181811067ffffffffffffffff821117156103e1576103e061038c565b5b80604052505050565b5f6103f3610350565b90506103ff82826103b9565b919050565b5f67ffffffffffffffff82111561041e5761041d61038c565b5b61042782610210565b9050602081019050919050565b828183375f83830152505050565b5f61045461044f84610404565b6103ea565b9050828152602081018484840111156104705761046f610388565b5b61047b848285610434565b509392505050565b5f82601f83011261049757610496610384565b5b81356104a7848260208601610442565b91505092915050565b5f5f604083850312156104c6576104c5610359565b5b5f6104d385828601610370565b925050602083013567ffffffffffffffff8111156104f4576104f361035d565b5b61050085828601610483565b9150509250929050565b7f4e487b71000000000000000000000000000000000000000000000000000000005f52602260045260245ffd5b5f600282049050600182168061054e57607f821691505b6020821081036105615761056061050a565b5b50919050565b7f4e487b71000000000000000000000000000000000000000000000000000000005f52601160045260245ffd5b5f61059e826102cb565b91507fffffffffffffffffffffffffffffffffffffffffffffffffffffffffffffffff82036105d0576105cf610567565b5b600182019050919050565b5f819050815f5260205f209050919050565b5f6020601f8301049050919050565b5f82821b905092915050565b5f600883026106377fffffffffffffffffffffffffffffffffffffffffffffffffffffffffffffffff826105fc565b61064186836105fc565b95508019841693508086168417925050509392505050565b5f819050919050565b5f61067c610677610672846102cb565b610659565b6102cb565b9050919050565b5f819050919050565b61069583610662565b6106a96106a182610683565b848454610608565b825550505050565b5f5f905090565b6106c06106b1565b6106cb81848461068c565b505050565b5b818110156106ee576106e35f826106b8565b6001810190506106d1565b5050565b601f82111561073357610704816105db565b61070d846105ed565b8101602085101561071c578190505b610730610728856105ed565b8301826106d0565b50505b505050565b5f82821c905092915050565b5f6107535f1984600802610738565b1980831691505092915050565b5f61076b8383610744565b9150826002028217905092915050565b610784826101e8565b67ffffffffffffffff81111561079d5761079c61038c565b5b6107a78254610537565b6107b28282856106f2565b5f60209050601f8311600181146107e3575f84156107d1578287015190505b6107db8582610760565b865550610842565b601f1984166107f1866105db565b5f5b82811015610818578489015182556001820191506020850194506020810190506107f3565b868310156108355784890151610831601f891682610744565b8355505b6001600288020188555050505b50505050505056fea264697066735822122005cf1680ba5e4ea8df933644c85023d584611feaf50ee1592a8861e12d9a6a9b64736f6c634300081c0033",
					"opcodes": "PUSH1 0x80 PUSH1 0x40 MSTORE CALLVALUE DUP1 ISZERO PUSH2 0xF JUMPI PUSH0 PUSH0 REVERT JUMPDEST POP PUSH1 0x40 MLOAD DUP1 PUSH1 0x60 ADD PUSH1 0x40 MSTORE DUP1 PUSH1 0x40 MLOAD DUP1 PUSH1 0x40 ADD PUSH1 0x40 MSTORE DUP1 PUSH1 0xB DUP2 MSTORE PUSH1 0x20 ADD PUSH32 0x48656C6C6F20776F726C64000000000000000000000000000000000000000000 DUP2 MSTORE POP DUP2 MSTORE PUSH1 0x20 ADD PUSH0 PUSH1 0x2 DUP2 GT ISZERO PUSH2 0x69 JUMPI PUSH2 0x68 PUSH2 0xC8 JUMP JUMPDEST JUMPDEST DUP2 MSTORE PUSH1 0x20 ADD PUSH0 DUP2 MSTORE POP PUSH0 PUSH0 DUP3 ADD MLOAD DUP2 PUSH0 ADD SWAP1 DUP2 PUSH2 0x86 SWAP2 SWAP1 PUSH2 0x332 JUMP JUMPDEST POP PUSH1 0x20 DUP3 ADD MLOAD DUP2 PUSH1 0x1 ADD PUSH0 PUSH2 0x100 EXP DUP2 SLOAD DUP2 PUSH1 0xFF MUL NOT AND SWAP1 DUP4 PUSH1 0x2 DUP2 GT ISZERO PUSH2 0xB1 JUMPI PUSH2 0xB0 PUSH2 0xC8 JUMP JUMPDEST JUMPDEST MUL OR SWAP1 SSTORE POP PUSH1 0x40 DUP3 ADD MLOAD DUP2 PUSH1 0x2 ADD SSTORE SWAP1 POP POP PUSH2 0x401 JUMP JUMPDEST PUSH32 0x4E487B7100000000000000000000000000000000000000000000000000000000 PUSH0 MSTORE PUSH1 0x21 PUSH1 0x4 MSTORE PUSH1 0x24 PUSH0 REVERT JUMPDEST PUSH0 DUP2 MLOAD SWAP1 POP SWAP2 SWAP1 POP JUMP JUMPDEST PUSH32 0x4E487B7100000000000000000000000000000000000000000000000000000000 PUSH0 MSTORE PUSH1 0x41 PUSH1 0x4 MSTORE PUSH1 0x24 PUSH0 REVERT JUMPDEST PUSH32 0x4E487B7100000000000000000000000000000000000000000000000000000000 PUSH0 MSTORE PUSH1 0x22 PUSH1 0x4 MSTORE PUSH1 0x24 PUSH0 REVERT JUMPDEST PUSH0 PUSH1 0x2 DUP3 DIV SWAP1 POP PUSH1 0x1 DUP3 AND DUP1 PUSH2 0x170 JUMPI PUSH1 0x7F DUP3 AND SWAP2 POP JUMPDEST PUSH1 0x20 DUP3 LT DUP2 SUB PUSH2 0x183 JUMPI PUSH2 0x182 PUSH2 0x12C JUMP JUMPDEST JUMPDEST POP SWAP2 SWAP1 POP JUMP JUMPDEST PUSH0 DUP2 SWAP1 POP DUP2 PUSH0 MSTORE PUSH1 0x20 PUSH0 KECCAK256 SWAP1 POP SWAP2 SWAP1 POP JUMP JUMPDEST PUSH0 PUSH1 0x20 PUSH1 0x1F DUP4 ADD DIV SWAP1 POP SWAP2 SWAP1 POP JUMP JUMPDEST PUSH0 DUP3 DUP3 SHL SWAP1 POP SWAP3 SWAP2 POP POP JUMP JUMPDEST PUSH0 PUSH1 0x8 DUP4 MUL PUSH2 0x1E5 PUSH32 0xFFFFFFFFFFFFFFFFFFFFFFFFFFFFFFFFFFFFFFFFFFFFFFFFFFFFFFFFFFFFFFFF DUP3 PUSH2 0x1AA JUMP JUMPDEST PUSH2 0x1EF DUP7 DUP4 PUSH2 0x1AA JUMP JUMPDEST SWAP6 POP DUP1 NOT DUP5 AND SWAP4 POP DUP1 DUP7 AND DUP5 OR SWAP3 POP POP POP SWAP4 SWAP3 POP POP POP JUMP JUMPDEST PUSH0 DUP2 SWAP1 POP SWAP2 SWAP1 POP JUMP JUMPDEST PUSH0 DUP2 SWAP1 POP SWAP2 SWAP1 POP JUMP JUMPDEST PUSH0 PUSH2 0x233 PUSH2 0x22E PUSH2 0x229 DUP5 PUSH2 0x207 JUMP JUMPDEST PUSH2 0x210 JUMP JUMPDEST PUSH2 0x207 JUMP JUMPDEST SWAP1 POP SWAP2 SWAP1 POP JUMP JUMPDEST PUSH0 DUP2 SWAP1 POP SWAP2 SWAP1 POP JUMP JUMPDEST PUSH2 0x24C DUP4 PUSH2 0x219 JUMP JUMPDEST PUSH2 0x260 PUSH2 0x258 DUP3 PUSH2 0x23A JUMP JUMPDEST DUP5 DUP5 SLOAD PUSH2 0x1B6 JUMP JUMPDEST DUP3 SSTORE POP POP POP POP JUMP JUMPDEST PUSH0 PUSH0 SWAP1 POP SWAP1 JUMP JUMPDEST PUSH2 0x277 PUSH2 0x268 JUMP JUMPDEST PUSH2 0x282 DUP2 DUP5 DUP5 PUSH2 0x243 JUMP JUMPDEST POP POP POP JUMP JUMPDEST JUMPDEST DUP2 DUP2 LT ISZERO PUSH2 0x2A5 JUMPI PUSH2 0x29A PUSH0 DUP3 PUSH2 0x26F JUMP JUMPDEST PUSH1 0x1 DUP2 ADD SWAP1 POP PUSH2 0x288 JUMP JUMPDEST POP POP JUMP JUMPDEST PUSH1 0x1F DUP3 GT ISZERO PUSH2 0x2EA JUMPI PUSH2 0x2BB DUP2 PUSH2 0x189 JUMP JUMPDEST PUSH2 0x2C4 DUP5 PUSH2 0x19B JUMP JUMPDEST DUP2 ADD PUSH1 0x20 DUP6 LT ISZERO PUSH2 0x2D3 JUMPI DUP2 SWAP1 POP JUMPDEST PUSH2 0x2E7 PUSH2 0x2DF DUP6 PUSH2 0x19B JUMP JUMPDEST DUP4 ADD DUP3 PUSH2 0x287 JUMP JUMPDEST POP POP JUMPDEST POP POP POP JUMP JUMPDEST PUSH0 DUP3 DUP3 SHR SWAP1 POP SWAP3 SWAP2 POP POP JUMP JUMPDEST PUSH0 PUSH2 0x30A PUSH0 NOT DUP5 PUSH1 0x8 MUL PUSH2 0x2EF JUMP JUMPDEST NOT DUP1 DUP4 AND SWAP2 POP POP SWAP3 SWAP2 POP POP JUMP JUMPDEST PUSH0 PUSH2 0x322 DUP4 DUP4 PUSH2 0x2FB JUMP JUMPDEST SWAP2 POP DUP3 PUSH1 0x2 MUL DUP3 OR SWAP1 POP SWAP3 SWAP2 POP POP JUMP JUMPDEST PUSH2 0x33B DUP3 PUSH2 0xF5 JUMP JUMPDEST PUSH8 0xFFFFFFFFFFFFFFFF DUP2 GT ISZERO PUSH2 0x354 JUMPI PUSH2 0x353 PUSH2 0xFF JUMP JUMPDEST JUMPDEST PUSH2 0x35E DUP3 SLOAD PUSH2 0x159 JUMP JUMPDEST PUSH2 0x369 DUP3 DUP3 DUP6 PUSH2 0x2A9 JUMP JUMPDEST PUSH0 PUSH1 0x20 SWAP1 POP PUSH1 0x1F DUP4 GT PUSH1 0x1 DUP2 EQ PUSH2 0x39A JUMPI PUSH0 DUP5 ISZERO PUSH2 0x388 JUMPI DUP3 DUP8 ADD MLOAD SWAP1 POP JUMPDEST PUSH2 0x392 DUP6 DUP3 PUSH2 0x317 JUMP JUMPDEST DUP7 SSTORE POP PUSH2 0x3F9 JUMP JUMPDEST PUSH1 0x1F NOT DUP5 AND PUSH2 0x3A8 DUP7 PUSH2 0x189 JUMP JUMPDEST PUSH0 JUMPDEST DUP3 DUP2 LT ISZERO PUSH2 0x3CF JUMPI DUP5 DUP10 ADD MLOAD DUP3 SSTORE PUSH1 0x1 DUP3 ADD SWAP2 POP PUSH1 0x20 DUP6 ADD SWAP5 POP PUSH1 0x20 DUP2 ADD SWAP1 POP PUSH2 0x3AA JUMP JUMPDEST DUP7 DUP4 LT ISZERO PUSH2 0x3EC JUMPI DUP5 DUP10 ADD MLOAD PUSH2 0x3E8 PUSH1 0x1F DUP10 AND DUP3 PUSH2 0x2FB JUMP JUMPDEST DUP4 SSTORE POP JUMPDEST PUSH1 0x1 PUSH1 0x2 DUP9 MUL ADD DUP9 SSTORE POP POP POP JUMPDEST POP POP POP POP POP POP JUMP JUMPDEST PUSH2 0x880 DUP1 PUSH2 0x40E PUSH0 CODECOPY PUSH0 RETURN INVALID PUSH1 0x80 PUSH1 0x40 MSTORE CALLVALUE DUP1 ISZERO PUSH2 0xF JUMPI PUSH0 PUSH0 REVERT JUMPDEST POP PUSH1 0x4 CALLDATASIZE LT PUSH2 0x34 JUMPI PUSH0 CALLDATALOAD PUSH1 0xE0 SHR DUP1 PUSH4 0x5A9B0B89 EQ PUSH2 0x38 JUMPI DUP1 PUSH4 0xAE15D4FC EQ PUSH2 0x56 JUMPI JUMPDEST PUSH0 PUSH0 REVERT JUMPDEST PUSH2 0x40 PUSH2 0x72 JUMP JUMPDEST PUSH1 0x40 MLOAD PUSH2 0x4D SWAP2 SWAP1 PUSH2 0x330 JUMP JUMPDEST PUSH1 0x40 MLOAD DUP1 SWAP2 SUB SWAP1 RETURN JUMPDEST PUSH2 0x70 PUSH1 0x4 DUP1 CALLDATASIZE SUB DUP2 ADD SWAP1 PUSH2 0x6B SWAP2 SWAP1 PUSH2 0x4B0 JUMP JUMPDEST PUSH2 0x15E JUMP JUMPDEST STOP JUMPDEST PUSH2 0x7A PUSH2 0x1B7 JUMP JUMPDEST PUSH0 PUSH1 0x40 MLOAD DUP1 PUSH1 0x60 ADD PUSH1 0x40 MSTORE SWAP1 DUP2 PUSH0 DUP3 ADD DUP1 SLOAD PUSH2 0x95 SWAP1 PUSH2 0x537 JUMP JUMPDEST DUP1 PUSH1 0x1F ADD PUSH1 0x20 DUP1 SWAP2 DIV MUL PUSH1 0x20 ADD PUSH1 0x40 MLOAD SWAP1 DUP2 ADD PUSH1 0x40 MSTORE DUP1 SWAP3 SWAP2 SWAP1 DUP2 DUP2 MSTORE PUSH1 0x20 ADD DUP3 DUP1 SLOAD PUSH2 0xC1 SWAP1 PUSH2 0x537 JUMP JUMPDEST DUP1 ISZERO PUSH2 0x10C JUMPI DUP1 PUSH1 0x1F LT PUSH2 0xE3 JUMPI PUSH2 0x100 DUP1 DUP4 SLOAD DIV MUL DUP4 MSTORE SWAP2 PUSH1 0x20 ADD SWAP2 PUSH2 0x10C JUMP JUMPDEST DUP3 ADD SWAP2 SWAP1 PUSH0 MSTORE PUSH1 0x20 PUSH0 KECCAK256 SWAP1 JUMPDEST DUP2 SLOAD DUP2 MSTORE SWAP1 PUSH1 0x1 ADD SWAP1 PUSH1 0x20 ADD DUP1 DUP4 GT PUSH2 0xEF JUMPI DUP3 SWAP1 SUB PUSH1 0x1F AND DUP3 ADD SWAP2 JUMPDEST POP POP POP POP POP DUP2 MSTORE PUSH1 0x20 ADD PUSH1 0x1 DUP3 ADD PUSH0 SWAP1 SLOAD SWAP1 PUSH2 0x100 EXP SWAP1 DIV PUSH1 0xFF AND PUSH1 0x2 DUP2 GT ISZERO PUSH2 0x139 JUMPI PUSH2 0x138 PUSH2 0x258 JUMP JUMPDEST JUMPDEST PUSH1 0x2 DUP2 GT ISZERO PUSH2 0x14B JUMPI PUSH2 0x14A PUSH2 0x258 JUMP JUMPDEST JUMPDEST DUP2 MSTORE PUSH1 0x20 ADD PUSH1 0x2 DUP3 ADD SLOAD DUP2 MSTORE POP POP SWAP1 POP SWAP1 JUMP JUMPDEST PUSH0 PUSH1 0x2 ADD PUSH0 DUP2 SLOAD DUP1 SWAP3 SWAP2 SWAP1 PUSH2 0x172 SWAP1 PUSH2 0x594 JUMP JUMPDEST SWAP2 SWAP1 POP SSTORE POP DUP2 PUSH0 PUSH1 0x1 ADD PUSH0 PUSH2 0x100 EXP DUP2 SLOAD DUP2 PUSH1 0xFF MUL NOT AND SWAP1 DUP4 PUSH1 0x2 DUP2 GT ISZERO PUSH2 0x19D JUMPI PUSH2 0x19C PUSH2 0x258 JUMP JUMPDEST JUMPDEST MUL OR SWAP1 SSTORE POP DUP1 PUSH0 PUSH0 ADD SWAP1 DUP2 PUSH2 0x1B2 SWAP2 SWAP1 PUSH2 0x77B JUMP JUMPDEST POP POP POP JUMP JUMPDEST PUSH1 0x40 MLOAD DUP1 PUSH1 0x60 ADD PUSH1 0x40 MSTORE DUP1 PUSH1 0x60 DUP2 MSTORE PUSH1 0x20 ADD PUSH0 PUSH1 0x2 DUP2 GT ISZERO PUSH2 0x1DC JUMPI PUSH2 0x1DB PUSH2 0x258 JUMP JUMPDEST JUMPDEST DUP2 MSTORE PUSH1 0x20 ADD PUSH0 DUP2 MSTORE POP SWAP1 JUMP JUMPDEST PUSH0 DUP2 MLOAD SWAP1 POP SWAP2 SWAP1 POP JUMP JUMPDEST PUSH0 DUP3 DUP3 MSTORE PUSH1 0x20 DUP3 ADD SWAP1 POP SWAP3 SWAP2 POP POP JUMP JUMPDEST DUP3 DUP2 DUP4 MCOPY PUSH0 DUP4 DUP4 ADD MSTORE POP POP POP JUMP JUMPDEST PUSH0 PUSH1 0x1F NOT PUSH1 0x1F DUP4 ADD AND SWAP1 POP SWAP2 SWAP1 POP JUMP JUMPDEST PUSH0 PUSH2 0x22A DUP3 PUSH2 0x1E8 JUMP JUMPDEST PUSH2 0x234 DUP2 DUP6 PUSH2 0x1F2 JUMP JUMPDEST SWAP4 POP PUSH2 0x244 DUP2 DUP6 PUSH1 0x20 DUP7 ADD PUSH2 0x202 JUMP JUMPDEST PUSH2 0x24D DUP2 PUSH2 0x210 JUMP JUMPDEST DUP5 ADD SWAP2 POP POP SWAP3 SWAP2 POP POP JUMP JUMPDEST PUSH32 0x4E487B7100000000000000000000000000000000000000000000000000000000 PUSH0 MSTORE PUSH1 0x21 PUSH1 0x4 MSTORE PUSH1 0x24 PUSH0 REVERT JUMPDEST PUSH1 0x3 DUP2 LT PUSH2 0x296 JUMPI PUSH2 0x295 PUSH2 0x258 JUMP JUMPDEST JUMPDEST POP JUMP JUMPDEST PUSH0 DUP2 SWAP1 POP PUSH2 0x2A6 DUP3 PUSH2 0x285 JUMP JUMPDEST SWAP2 SWAP1 POP JUMP JUMPDEST PUSH0 PUSH2 0x2B5 DUP3 PUSH2 0x299 JUMP JUMPDEST SWAP1 POP SWAP2 SWAP1 POP JUMP JUMPDEST PUSH2 0x2C5 DUP2 PUSH2 0x2AB JUMP JUMPDEST DUP3 MSTORE POP POP JUMP JUMPDEST PUSH0 DUP2 SWAP1 POP SWAP2 SWAP1 POP JUMP JUMPDEST PUSH2 0x2DD DUP2 PUSH2 0x2CB JUMP JUMPDEST DUP3 MSTORE POP POP JUMP JUMPDEST PUSH0 PUSH1 0x60 DUP4 ADD PUSH0 DUP4 ADD MLOAD DUP5 DUP3 SUB PUSH0 DUP7 ADD MSTORE PUSH2 0x2FD DUP3 DUP3 PUSH2 0x220 JUMP JUMPDEST SWAP2 POP POP PUSH1 0x20 DUP4 ADD MLOAD PUSH2 0x312 PUSH1 0x20 DUP7 ADD DUP3 PUSH2 0x2BC JUMP JUMPDEST POP PUSH1 0x40 DUP4 ADD MLOAD PUSH2 0x325 PUSH1 0x40 DUP7 ADD DUP3 PUSH2 0x2D4 JUMP JUMPDEST POP DUP1 SWAP2 POP POP SWAP3 SWAP2 POP POP JUMP JUMPDEST PUSH0 PUSH1 0x20 DUP3 ADD SWAP1 POP DUP2 DUP2 SUB PUSH0 DUP4 ADD MSTORE PUSH2 0x348 DUP2 DUP5 PUSH2 0x2E3 JUMP JUMPDEST SWAP1 POP SWAP3 SWAP2 POP POP JUMP JUMPDEST PUSH0 PUSH1 0x40 MLOAD SWAP1 POP SWAP1 JUMP JUMPDEST PUSH0 PUSH0 REVERT JUMPDEST PUSH0 PUSH0 REVERT JUMPDEST PUSH1 0x3 DUP2 LT PUSH2 0x36D JUMPI PUSH0 PUSH0 REVERT JUMPDEST POP JUMP JUMPDEST PUSH0 DUP2 CALLDATALOAD SWAP1 POP PUSH2 0x37E DUP2 PUSH2 0x361 JUMP JUMPDEST SWAP3 SWAP2 POP POP JUMP JUMPDEST PUSH0 PUSH0 REVERT JUMPDEST PUSH0 PUSH0 REVERT JUMPDEST PUSH32 0x4E487B7100000000000000000000000000000000000000000000000000000000 PUSH0 MSTORE PUSH1 0x41 PUSH1 0x4 MSTORE PUSH1 0x24 PUSH0 REVERT JUMPDEST PUSH2 0x3C2 DUP3 PUSH2 0x210 JUMP JUMPDEST DUP2 ADD DUP2 DUP2 LT PUSH8 0xFFFFFFFFFFFFFFFF DUP3 GT OR ISZERO PUSH2 0x3E1 JUMPI PUSH2 0x3E0 PUSH2 0x38C JUMP JUMPDEST JUMPDEST DUP1 PUSH1 0x40 MSTORE POP POP POP JUMP JUMPDEST PUSH0 PUSH2 0x3F3 PUSH2 0x350 JUMP JUMPDEST SWAP1 POP PUSH2 0x3FF DUP3 DUP3 PUSH2 0x3B9 JUMP JUMPDEST SWAP2 SWAP1 POP JUMP JUMPDEST PUSH0 PUSH8 0xFFFFFFFFFFFFFFFF DUP3 GT ISZERO PUSH2 0x41E JUMPI PUSH2 0x41D PUSH2 0x38C JUMP JUMPDEST JUMPDEST PUSH2 0x427 DUP3 PUSH2 0x210 JUMP JUMPDEST SWAP1 POP PUSH1 0x20 DUP2 ADD SWAP1 POP SWAP2 SWAP1 POP JUMP JUMPDEST DUP3 DUP2 DUP4 CALLDATACOPY PUSH0 DUP4 DUP4 ADD MSTORE POP POP POP JUMP JUMPDEST PUSH0 PUSH2 0x454 PUSH2 0x44F DUP5 PUSH2 0x404 JUMP JUMPDEST PUSH2 0x3EA JUMP JUMPDEST SWAP1 POP DUP3 DUP2 MSTORE PUSH1 0x20 DUP2 ADD DUP5 DUP5 DUP5 ADD GT ISZERO PUSH2 0x470 JUMPI PUSH2 0x46F PUSH2 0x388 JUMP JUMPDEST JUMPDEST PUSH2 0x47B DUP5 DUP3 DUP6 PUSH2 0x434 JUMP JUMPDEST POP SWAP4 SWAP3 POP POP POP JUMP JUMPDEST PUSH0 DUP3 PUSH1 0x1F DUP4 ADD SLT PUSH2 0x497 JUMPI PUSH2 0x496 PUSH2 0x384 JUMP JUMPDEST JUMPDEST DUP2 CALLDATALOAD PUSH2 0x4A7 DUP5 DUP3 PUSH1 0x20 DUP7 ADD PUSH2 0x442 JUMP JUMPDEST SWAP2 POP POP SWAP3 SWAP2 POP POP JUMP JUMPDEST PUSH0 PUSH0 PUSH1 0x40 DUP4 DUP6 SUB SLT ISZERO PUSH2 0x4C6 JUMPI PUSH2 0x4C5 PUSH2 0x359 JUMP JUMPDEST JUMPDEST PUSH0 PUSH2 0x4D3 DUP6 DUP3 DUP7 ADD PUSH2 0x370 JUMP JUMPDEST SWAP3 POP POP PUSH1 0x20 DUP4 ADD CALLDATALOAD PUSH8 0xFFFFFFFFFFFFFFFF DUP2 GT ISZERO PUSH2 0x4F4 JUMPI PUSH2 0x4F3 PUSH2 0x35D JUMP JUMPDEST JUMPDEST PUSH2 0x500 DUP6 DUP3 DUP7 ADD PUSH2 0x483 JUMP JUMPDEST SWAP2 POP POP SWAP3 POP SWAP3 SWAP1 POP JUMP JUMPDEST PUSH32 0x4E487B7100000000000000000000000000000000000000000000000000000000 PUSH0 MSTORE PUSH1 0x22 PUSH1 0x4 MSTORE PUSH1 0x24 PUSH0 REVERT JUMPDEST PUSH0 PUSH1 0x2 DUP3 DIV SWAP1 POP PUSH1 0x1 DUP3 AND DUP1 PUSH2 0x54E JUMPI PUSH1 0x7F DUP3 AND SWAP2 POP JUMPDEST PUSH1 0x20 DUP3 LT DUP2 SUB PUSH2 0x561 JUMPI PUSH2 0x560 PUSH2 0x50A JUMP JUMPDEST JUMPDEST POP SWAP2 SWAP1 POP JUMP JUMPDEST PUSH32 0x4E487B7100000000000000000000000000000000000000000000000000000000 PUSH0 MSTORE PUSH1 0x11 PUSH1 0x4 MSTORE PUSH1 0x24 PUSH0 REVERT JUMPDEST PUSH0 PUSH2 0x59E DUP3 PUSH2 0x2CB JUMP JUMPDEST SWAP2 POP PUSH32 0xFFFFFFFFFFFFFFFFFFFFFFFFFFFFFFFFFFFFFFFFFFFFFFFFFFFFFFFFFFFFFFFF DUP3 SUB PUSH2 0x5D0 JUMPI PUSH2 0x5CF PUSH2 0x567 JUMP JUMPDEST JUMPDEST PUSH1 0x1 DUP3 ADD SWAP1 POP SWAP2 SWAP1 POP JUMP JUMPDEST PUSH0 DUP2 SWAP1 POP DUP2 PUSH0 MSTORE PUSH1 0x20 PUSH0 KECCAK256 SWAP1 POP SWAP2 SWAP1 POP JUMP JUMPDEST PUSH0 PUSH1 0x20 PUSH1 0x1F DUP4 ADD DIV SWAP1 POP SWAP2 SWAP1 POP JUMP JUMPDEST PUSH0 DUP3 DUP3 SHL SWAP1 POP SWAP3 SWAP2 POP POP JUMP JUMPDEST PUSH0 PUSH1 0x8 DUP4 MUL PUSH2 0x637 PUSH32 0xFFFFFFFFFFFFFFFFFFFFFFFFFFFFFFFFFFFFFFFFFFFFFFFFFFFFFFFFFFFFFFFF DUP3 PUSH2 0x5FC JUMP JUMPDEST PUSH2 0x641 DUP7 DUP4 PUSH2 0x5FC JUMP JUMPDEST SWAP6 POP DUP1 NOT DUP5 AND SWAP4 POP DUP1 DUP7 AND DUP5 OR SWAP3 POP POP POP SWAP4 SWAP3 POP POP POP JUMP JUMPDEST PUSH0 DUP2 SWAP1 POP SWAP2 SWAP1 POP JUMP JUMPDEST PUSH0 PUSH2 0x67C PUSH2 0x677 PUSH2 0x672 DUP5 PUSH2 0x2CB JUMP JUMPDEST PUSH2 0x659 JUMP JUMPDEST PUSH2 0x2CB JUMP JUMPDEST SWAP1 POP SWAP2 SWAP1 POP JUMP JUMPDEST PUSH0 DUP2 SWAP1 POP SWAP2 SWAP1 POP JUMP JUMPDEST PUSH2 0x695 DUP4 PUSH2 0x662 JUMP JUMPDEST PUSH2 0x6A9 PUSH2 0x6A1 DUP3 PUSH2 0x683 JUMP JUMPDEST DUP5 DUP5 SLOAD PUSH2 0x608 JUMP JUMPDEST DUP3 SSTORE POP POP POP POP JUMP JUMPDEST PUSH0 PUSH0 SWAP1 POP SWAP1 JUMP JUMPDEST PUSH2 0x6C0 PUSH2 0x6B1 JUMP JUMPDEST PUSH2 0x6CB DUP2 DUP5 DUP5 PUSH2 0x68C JUMP JUMPDEST POP POP POP JUMP JUMPDEST JUMPDEST DUP2 DUP2 LT ISZERO PUSH2 0x6EE JUMPI PUSH2 0x6E3 PUSH0 DUP3 PUSH2 0x6B8 JUMP JUMPDEST PUSH1 0x1 DUP2 ADD SWAP1 POP PUSH2 0x6D1 JUMP JUMPDEST POP POP JUMP JUMPDEST PUSH1 0x1F DUP3 GT ISZERO PUSH2 0x733 JUMPI PUSH2 0x704 DUP2 PUSH2 0x5DB JUMP JUMPDEST PUSH2 0x70D DUP5 PUSH2 0x5ED JUMP JUMPDEST DUP2 ADD PUSH1 0x20 DUP6 LT ISZERO PUSH2 0x71C JUMPI DUP2 SWAP1 POP JUMPDEST PUSH2 0x730 PUSH2 0x728 DUP6 PUSH2 0x5ED JUMP JUMPDEST DUP4 ADD DUP3 PUSH2 0x6D0 JUMP JUMPDEST POP POP JUMPDEST POP POP POP JUMP JUMPDEST PUSH0 DUP3 DUP3 SHR SWAP1 POP SWAP3 SWAP2 POP POP JUMP JUMPDEST PUSH0 PUSH2 0x753 PUSH0 NOT DUP5 PUSH1 0x8 MUL PUSH2 0x738 JUMP JUMPDEST NOT DUP1 DUP4 AND SWAP2 POP POP SWAP3 SWAP2 POP POP JUMP JUMPDEST PUSH0 PUSH2 0x76B DUP4 DUP4 PUSH2 0x744 JUMP JUMPDEST SWAP2 POP DUP3 PUSH1 0x2 MUL DUP3 OR SWAP1 POP SWAP3 SWAP2 POP POP JUMP JUMPDEST PUSH2 0x784 DUP3 PUSH2 0x1E8 JUMP JUMPDEST PUSH8 0xFFFFFFFFFFFFFFFF DUP2 GT ISZERO PUSH2 0x79D JUMPI PUSH2 0x79C PUSH2 0x38C JUMP JUMPDEST JUMPDEST PUSH2 0x7A7 DUP3 SLOAD PUSH2 0x537 JUMP JUMPDEST PUSH2 0x7B2 DUP3 DUP3 DUP6 PUSH2 0x6F2 JUMP JUMPDEST PUSH0 PUSH1 0x20 SWAP1 POP PUSH1 0x1F DUP4 GT PUSH1 0x1 DUP2 EQ PUSH2 0x7E3 JUMPI PUSH0 DUP5 ISZERO PUSH2 0x7D1 JUMPI DUP3 DUP8 ADD MLOAD SWAP1 POP JUMPDEST PUSH2 0x7DB DUP6 DUP3 PUSH2 0x760 JUMP JUMPDEST DUP7 SSTORE POP PUSH2 0x842 JUMP JUMPDEST PUSH1 0x1F NOT DUP5 AND PUSH2 0x7F1 DUP7 PUSH2 0x5DB JUMP JUMPDEST PUSH0 JUMPDEST DUP3 DUP2 LT ISZERO PUSH2 0x818 JUMPI DUP5 DUP10 ADD MLOAD DUP3 SSTORE PUSH1 0x1 DUP3 ADD SWAP2 POP PUSH1 0x20 DUP6 ADD SWAP5 POP PUSH1 0x20 DUP2 ADD SWAP1 POP PUSH2 0x7F3 JUMP JUMPDEST DUP7 DUP4 LT ISZERO PUSH2 0x835 JUMPI DUP5 DUP10 ADD MLOAD PUSH2 0x831 PUSH1 0x1F DUP10 AND DUP3 PUSH2 0x744 JUMP JUMPDEST DUP4 SSTORE POP JUMPDEST PUSH1 0x1 PUSH1 0x2 DUP9 MUL ADD DUP9 SSTORE POP POP POP JUMPDEST POP POP POP POP POP POP JUMP INVALID LOG2 PUSH5 0x6970667358 0x22 SLT KECCAK256 SDIV 0xCF AND DUP1 0xBA MCOPY 0x4E 0xA8 0xDF SWAP4 CALLDATASIZE PREVRANDAO 0xC8 POP 0x23 0xD5 DUP5 PUSH2 0x1FEA CREATE2 0xE 0xE1 MSIZE 0x2A DUP9 PUSH2 0xE12D SWAP11 PUSH11 0x9B64736F6C634300081C00 CALLER "
				},
				"gasEstimates": {
					"creation": {
						"codeDepositCost": "435200",
						"executionCost": "infinite",
						"totalCost": "infinite"
					},
					"external": {
						"getInfo()": "infinite",
						"setInfo(uint8,string)": "infinite"
					}
				},
				"methodIdentifiers": {
					"getInfo()": "5a9b0b89",
					"setInfo(uint8,string)": "ae15d4fc"
				}
			},
			"storageLayout": {
				"storage": [
					{
						"astId": 17,
						"contract": "ETH - Henry/contracts/register/Register13_1.sol:Register13",
						"label": "storedInfo",
						"offset": 0,
						"slot": "0",
						"type": "t_struct(InfoStruct)14_storage"
					}
				],
				"types": {
					"t_enum(Colors)6": {
						"encoding": "inplace",
						"label": "enum Register13.Colors",
						"numberOfBytes": "1"
					},
					"t_string_storage": {
						"encoding": "bytes",
						"label": "string",
						"numberOfBytes": "32"
					},
					"t_struct(InfoStruct)14_storage": {
						"encoding": "inplace",
						"label": "struct Register13.InfoStruct",
						"members": [
							{
								"astId": 8,
								"contract": "ETH - Henry/contracts/register/Register13_1.sol:Register13",
								"label": "info",
								"offset": 0,
								"slot": "0",
								"type": "t_string_storage"
							},
							{
								"astId": 11,
								"contract": "ETH - Henry/contracts/register/Register13_1.sol:Register13",
								"label": "color",
								"offset": 0,
								"slot": "1",
								"type": "t_enum(Colors)6"
							},
							{
								"astId": 13,
								"contract": "ETH - Henry/contracts/register/Register13_1.sol:Register13",
								"label": "countChanges",
								"offset": 0,
								"slot": "2",
								"type": "t_uint256"
							}
						],
						"numberOfBytes": "96"
					},
					"t_uint256": {
						"encoding": "inplace",
						"label": "uint256",
						"numberOfBytes": "32"
					}
				}
			},
			"userdoc": {
				"kind": "user",
				"methods": {
					"getInfo()": {
						"notice": "Return the struct storedInfo"
					},
					"setInfo(uint8,string)": {
						"notice": "Store `myColor` and `myInfo` Increase the counter which how many times storedInfo is updated"
					}
				},
				"version": 1
			}
		}
	}
}