{
	"ETH - Henry/contracts/register/Register13_2.sol": {
		"AdvancedMapping": {
			"abi": [
				{
					"inputs": [
						{
							"internalType": "address",
							"name": "userAddress",
							"type": "address"
						}
					],
					"name": "getUser",
					"outputs": [
						{
							"internalType": "string",
							"name": "",
							"type": "string"
						},
						{
							"internalType": "uint256",
							"name": "",
							"type": "uint256"
						},
						{
							"internalType": "bool",
							"name": "",
							"type": "bool"
						}
					],
					"stateMutability": "view",
					"type": "function"
				},
				{
					"inputs": [
						{
							"internalType": "string",
							"name": "_name",
							"type": "string"
						}
					],
					"name": "registerUser",
					"outputs": [],
					"stateMutability": "nonpayable",
					"type": "function"
				},
				{
					"inputs": [
						{
							"internalType": "uint256",
							"name": "_amount",
							"type": "uint256"
						}
					],
					"name": "updateBalance",
					"outputs": [],
					"stateMutability": "nonpayable",
					"type": "function"
				},
				{
					"inputs": [
						{
							"internalType": "address",
							"name": "",
							"type": "address"
						}
					],
					"name": "users",
					"outputs": [
						{
							"internalType": "string",
							"name": "name",
							"type": "string"
						},
						{
							"internalType": "uint256",
							"name": "balance",
							"type": "uint256"
						},
						{
							"internalType": "bool",
							"name": "isClient",
							"type": "bool"
						}
					],
					"stateMutability": "view",
					"type": "function"
				}
			],
			"devdoc": {
				"kind": "dev",
				"methods": {},
				"version": 1
			},
			"evm": {
				"assembly": "    /* \"ETH - Henry/contracts/register/Register13_2.sol\":525:1991  contract AdvancedMapping {... */\n  mstore(0x40, 0x80)\n  callvalue\n  dup1\n  iszero\n  tag_1\n  jumpi\n  revert(0x00, 0x00)\ntag_1:\n  pop\n  dataSize(sub_0)\n  dup1\n  dataOffset(sub_0)\n  0x00\n  codecopy\n  0x00\n  return\nstop\n\nsub_0: assembly {\n        /* \"ETH - Henry/contracts/register/Register13_2.sol\":525:1991  contract AdvancedMapping {... */\n      mstore(0x40, 0x80)\n      callvalue\n      dup1\n      iszero\n      tag_1\n      jumpi\n      revert(0x00, 0x00)\n    tag_1:\n      pop\n      jumpi(tag_2, lt(calldatasize, 0x04))\n      shr(0xe0, calldataload(0x00))\n      dup1\n      0x6f77926b\n      eq\n      tag_3\n      jumpi\n      dup1\n      0x704f1b94\n      eq\n      tag_4\n      jumpi\n      dup1\n      0xa87430ba\n      eq\n      tag_5\n      jumpi\n      dup1\n      0xba7b37d4\n      eq\n      tag_6\n      jumpi\n    tag_2:\n      revert(0x00, 0x00)\n        /* \"ETH - Henry/contracts/register/Register13_2.sol\":1785:1988  function getUser(address userAddress) public view returns (string memory, uint256, bool) {... */\n    tag_3:\n      tag_7\n      0x04\n      dup1\n      calldatasize\n      sub\n      dup2\n      add\n      swap1\n      tag_8\n      swap2\n      swap1\n      tag_9\n      jump\t// in\n    tag_8:\n      tag_10\n      jump\t// in\n    tag_7:\n      mload(0x40)\n      tag_11\n      swap4\n      swap3\n      swap2\n      swap1\n      tag_12\n      jump\t// in\n    tag_11:\n      mload(0x40)\n      dup1\n      swap2\n      sub\n      swap1\n      return\n        /* \"ETH - Henry/contracts/register/Register13_2.sol\":887:1068  function registerUser(string memory _name) public {... */\n    tag_4:\n      tag_13\n      0x04\n      dup1\n      calldatasize\n      sub\n      dup2\n      add\n      swap1\n      tag_14\n      swap2\n      swap1\n      tag_15\n      jump\t// in\n    tag_14:\n      tag_16\n      jump\t// in\n    tag_13:\n      stop\n        /* \"ETH - Henry/contracts/register/Register13_2.sol\":798:835  mapping(address => User) public users */\n    tag_5:\n      tag_17\n      0x04\n      dup1\n      calldatasize\n      sub\n      dup2\n      add\n      swap1\n      tag_18\n      swap2\n      swap1\n      tag_9\n      jump\t// in\n    tag_18:\n      tag_19\n      jump\t// in\n    tag_17:\n      mload(0x40)\n      tag_20\n      swap4\n      swap3\n      swap2\n      swap1\n      tag_12\n      jump\t// in\n    tag_20:\n      mload(0x40)\n      dup1\n      swap2\n      sub\n      swap1\n      return\n        /* \"ETH - Henry/contracts/register/Register13_2.sol\":1134:1717  function updateBalance(uint256 _amount) public {... */\n    tag_6:\n      tag_21\n      0x04\n      dup1\n      calldatasize\n      sub\n      dup2\n      add\n      swap1\n      tag_22\n      swap2\n      swap1\n      tag_23\n      jump\t// in\n    tag_22:\n      tag_24\n      jump\t// in\n    tag_21:\n      stop\n        /* \"ETH - Henry/contracts/register/Register13_2.sol\":1785:1988  function getUser(address userAddress) public view returns (string memory, uint256, bool) {... */\n    tag_10:\n        /* \"ETH - Henry/contracts/register/Register13_2.sol\":1844:1857  string memory */\n      0x60\n        /* \"ETH - Henry/contracts/register/Register13_2.sol\":1859:1866  uint256 */\n      0x00\n        /* \"ETH - Henry/contracts/register/Register13_2.sol\":1868:1872  bool */\n      0x00\n        /* \"ETH - Henry/contracts/register/Register13_2.sol\":1885:1901  User memory user */\n      0x00\n        /* \"ETH - Henry/contracts/register/Register13_2.sol\":1904:1909  users */\n      0x00\n        /* \"ETH - Henry/contracts/register/Register13_2.sol\":1904:1922  users[userAddress] */\n      0x00\n        /* \"ETH - Henry/contracts/register/Register13_2.sol\":1910:1921  userAddress */\n      dup7\n        /* \"ETH - Henry/contracts/register/Register13_2.sol\":1904:1922  users[userAddress] */\n      0xffffffffffffffffffffffffffffffffffffffff\n      and\n      0xffffffffffffffffffffffffffffffffffffffff\n      and\n      dup2\n      mstore\n      0x20\n      add\n      swap1\n      dup2\n      mstore\n      0x20\n      add\n      0x00\n      keccak256\n        /* \"ETH - Henry/contracts/register/Register13_2.sol\":1885:1922  User memory user = users[userAddress] */\n      mload(0x40)\n      dup1\n      0x60\n      add\n      0x40\n      mstore\n      swap1\n      dup2\n      0x00\n      dup3\n      add\n      dup1\n      sload\n      tag_26\n      swap1\n      tag_27\n      jump\t// in\n    tag_26:\n      dup1\n      0x1f\n      add\n      0x20\n      dup1\n      swap2\n      div\n      mul\n      0x20\n      add\n      mload(0x40)\n      swap1\n      dup2\n      add\n      0x40\n      mstore\n      dup1\n      swap3\n      swap2\n      swap1\n      dup2\n      dup2\n      mstore\n      0x20\n      add\n      dup3\n      dup1\n      sload\n      tag_28\n      swap1\n      tag_27\n      jump\t// in\n    tag_28:\n      dup1\n      iszero\n      tag_29\n      jumpi\n      dup1\n      0x1f\n      lt\n      tag_30\n      jumpi\n      0x0100\n      dup1\n      dup4\n      sload\n      div\n      mul\n      dup4\n      mstore\n      swap2\n      0x20\n      add\n      swap2\n      jump(tag_29)\n    tag_30:\n      dup3\n      add\n      swap2\n      swap1\n      0x00\n      mstore\n      keccak256(0x00, 0x20)\n      swap1\n    tag_31:\n      dup2\n      sload\n      dup2\n      mstore\n      swap1\n      0x01\n      add\n      swap1\n      0x20\n      add\n      dup1\n      dup4\n      gt\n      tag_31\n      jumpi\n      dup3\n      swap1\n      sub\n      0x1f\n      and\n      dup3\n      add\n      swap2\n    tag_29:\n      pop\n      pop\n      pop\n      pop\n      pop\n      dup2\n      mstore\n      0x20\n      add\n      0x01\n      dup3\n      add\n      sload\n      dup2\n      mstore\n      0x20\n      add\n      0x02\n      dup3\n      add\n      0x00\n      swap1\n      sload\n      swap1\n      0x0100\n      exp\n      swap1\n      div\n      0xff\n      and\n      iszero\n      iszero\n      iszero\n      iszero\n      dup2\n      mstore\n      pop\n      pop\n      swap1\n      pop\n        /* \"ETH - Henry/contracts/register/Register13_2.sol\":1941:1945  user */\n      dup1\n        /* \"ETH - Henry/contracts/register/Register13_2.sol\":1941:1950  user.name */\n      0x00\n      add\n      mload\n        /* \"ETH - Henry/contracts/register/Register13_2.sol\":1952:1956  user */\n      dup2\n        /* \"ETH - Henry/contracts/register/Register13_2.sol\":1952:1964  user.balance */\n      0x20\n      add\n      mload\n        /* \"ETH - Henry/contracts/register/Register13_2.sol\":1966:1970  user */\n      dup3\n        /* \"ETH - Henry/contracts/register/Register13_2.sol\":1966:1979  user.isClient */\n      0x40\n      add\n      mload\n        /* \"ETH - Henry/contracts/register/Register13_2.sol\":1933:1980  return (user.name, user.balance, user.isClient) */\n      swap4\n      pop\n      swap4\n      pop\n      swap4\n      pop\n      pop\n        /* \"ETH - Henry/contracts/register/Register13_2.sol\":1785:1988  function getUser(address userAddress) public view returns (string memory, uint256, bool) {... */\n      swap2\n      swap4\n      swap1\n      swap3\n      pop\n      jump\t// out\n        /* \"ETH - Henry/contracts/register/Register13_2.sol\":887:1068  function registerUser(string memory _name) public {... */\n    tag_16:\n        /* \"ETH - Henry/contracts/register/Register13_2.sol\":957:962  users */\n      0x00\n        /* \"ETH - Henry/contracts/register/Register13_2.sol\":957:974  users[msg.sender] */\n      0x00\n        /* \"ETH - Henry/contracts/register/Register13_2.sol\":963:973  msg.sender */\n      caller\n        /* \"ETH - Henry/contracts/register/Register13_2.sol\":957:974  users[msg.sender] */\n      0xffffffffffffffffffffffffffffffffffffffff\n      and\n      0xffffffffffffffffffffffffffffffffffffffff\n      and\n      dup2\n      mstore\n      0x20\n      add\n      swap1\n      dup2\n      mstore\n      0x20\n      add\n      0x00\n      keccak256\n        /* \"ETH - Henry/contracts/register/Register13_2.sol\":957:983  users[msg.sender].isClient */\n      0x02\n      add\n      0x00\n      swap1\n      sload\n      swap1\n      0x0100\n      exp\n      swap1\n      div\n      0xff\n      and\n        /* \"ETH - Henry/contracts/register/Register13_2.sol\":956:983  !users[msg.sender].isClient */\n      iszero\n        /* \"ETH - Henry/contracts/register/Register13_2.sol\":948:1009  require(!users[msg.sender].isClient, \"Usuario ya registrado\") */\n      tag_33\n      jumpi\n      mload(0x40)\n      0x08c379a000000000000000000000000000000000000000000000000000000000\n      dup2\n      mstore\n      0x04\n      add\n      tag_34\n      swap1\n      tag_35\n      jump\t// in\n    tag_34:\n      mload(0x40)\n      dup1\n      swap2\n      sub\n      swap1\n      revert\n    tag_33:\n        /* \"ETH - Henry/contracts/register/Register13_2.sol\":1040:1060  User(_name, 0, true) */\n      mload(0x40)\n      dup1\n      0x60\n      add\n      0x40\n      mstore\n      dup1\n        /* \"ETH - Henry/contracts/register/Register13_2.sol\":1045:1050  _name */\n      dup3\n        /* \"ETH - Henry/contracts/register/Register13_2.sol\":1040:1060  User(_name, 0, true) */\n      dup2\n      mstore\n      0x20\n      add\n        /* \"ETH - Henry/contracts/register/Register13_2.sol\":1052:1053  0 */\n      0x00\n        /* \"ETH - Henry/contracts/register/Register13_2.sol\":1040:1060  User(_name, 0, true) */\n      dup2\n      mstore\n      0x20\n      add\n        /* \"ETH - Henry/contracts/register/Register13_2.sol\":1055:1059  true */\n      0x01\n        /* \"ETH - Henry/contracts/register/Register13_2.sol\":1040:1060  User(_name, 0, true) */\n      iszero\n      iszero\n      dup2\n      mstore\n      pop\n        /* \"ETH - Henry/contracts/register/Register13_2.sol\":1020:1025  users */\n      0x00\n        /* \"ETH - Henry/contracts/register/Register13_2.sol\":1020:1037  users[msg.sender] */\n      0x00\n        /* \"ETH - Henry/contracts/register/Register13_2.sol\":1026:1036  msg.sender */\n      caller\n        /* \"ETH - Henry/contracts/register/Register13_2.sol\":1020:1037  users[msg.sender] */\n      0xffffffffffffffffffffffffffffffffffffffff\n      and\n      0xffffffffffffffffffffffffffffffffffffffff\n      and\n      dup2\n      mstore\n      0x20\n      add\n      swap1\n      dup2\n      mstore\n      0x20\n      add\n      0x00\n      keccak256\n        /* \"ETH - Henry/contracts/register/Register13_2.sol\":1020:1060  users[msg.sender] = User(_name, 0, true) */\n      0x00\n      dup3\n      add\n      mload\n      dup2\n      0x00\n      add\n      swap1\n      dup2\n      tag_36\n      swap2\n      swap1\n      tag_37\n      jump\t// in\n    tag_36:\n      pop\n      0x20\n      dup3\n      add\n      mload\n      dup2\n      0x01\n      add\n      sstore\n      0x40\n      dup3\n      add\n      mload\n      dup2\n      0x02\n      add\n      exp(0x0100, 0x00)\n      dup2\n      sload\n      dup2\n      0xff\n      mul\n      not\n      and\n      swap1\n      dup4\n      iszero\n      iszero\n      mul\n      or\n      swap1\n      sstore\n      pop\n      swap1\n      pop\n      pop\n        /* \"ETH - Henry/contracts/register/Register13_2.sol\":887:1068  function registerUser(string memory _name) public {... */\n      pop\n      jump\t// out\n        /* \"ETH - Henry/contracts/register/Register13_2.sol\":798:835  mapping(address => User) public users */\n    tag_19:\n      mstore(0x20, 0x00)\n      dup1\n      0x00\n      mstore\n      keccak256(0x00, 0x40)\n      0x00\n      swap2\n      pop\n      swap1\n      pop\n      dup1\n      0x00\n      add\n      dup1\n      sload\n      tag_38\n      swap1\n      tag_27\n      jump\t// in\n    tag_38:\n      dup1\n      0x1f\n      add\n      0x20\n      dup1\n      swap2\n      div\n      mul\n      0x20\n      add\n      mload(0x40)\n      swap1\n      dup2\n      add\n      0x40\n      mstore\n      dup1\n      swap3\n      swap2\n      swap1\n      dup2\n      dup2\n      mstore\n      0x20\n      add\n      dup3\n      dup1\n      sload\n      tag_39\n      swap1\n      tag_27\n      jump\t// in\n    tag_39:\n      dup1\n      iszero\n      tag_40\n      jumpi\n      dup1\n      0x1f\n      lt\n      tag_41\n      jumpi\n      0x0100\n      dup1\n      dup4\n      sload\n      div\n      mul\n      dup4\n      mstore\n      swap2\n      0x20\n      add\n      swap2\n      jump(tag_40)\n    tag_41:\n      dup3\n      add\n      swap2\n      swap1\n      0x00\n      mstore\n      keccak256(0x00, 0x20)\n      swap1\n    tag_42:\n      dup2\n      sload\n      dup2\n      mstore\n      swap1\n      0x01\n      add\n      swap1\n      0x20\n      add\n      dup1\n      dup4\n      gt\n      tag_42\n      jumpi\n      dup3\n      swap1\n      sub\n      0x1f\n      and\n      dup3\n      add\n      swap2\n    tag_40:\n      pop\n      pop\n      pop\n      pop\n      pop\n      swap1\n      dup1\n      0x01\n      add\n      sload\n      swap1\n      dup1\n      0x02\n      add\n      0x00\n      swap1\n      sload\n      swap1\n      0x0100\n      exp\n      swap1\n      div\n      0xff\n      and\n      swap1\n      pop\n      dup4\n      jump\t// out\n        /* \"ETH - Henry/contracts/register/Register13_2.sol\":1134:1717  function updateBalance(uint256 _amount) public {... */\n    tag_24:\n        /* \"ETH - Henry/contracts/register/Register13_2.sol\":1200:1205  users */\n      0x00\n        /* \"ETH - Henry/contracts/register/Register13_2.sol\":1200:1217  users[msg.sender] */\n      0x00\n        /* \"ETH - Henry/contracts/register/Register13_2.sol\":1206:1216  msg.sender */\n      caller\n        /* \"ETH - Henry/contracts/register/Register13_2.sol\":1200:1217  users[msg.sender] */\n      0xffffffffffffffffffffffffffffffffffffffff\n      and\n      0xffffffffffffffffffffffffffffffffffffffff\n      and\n      dup2\n      mstore\n      0x20\n      add\n      swap1\n      dup2\n      mstore\n      0x20\n      add\n      0x00\n      keccak256\n        /* \"ETH - Henry/contracts/register/Register13_2.sol\":1200:1226  users[msg.sender].isClient */\n      0x02\n      add\n      0x00\n      swap1\n      sload\n      swap1\n      0x0100\n      exp\n      swap1\n      div\n      0xff\n      and\n        /* \"ETH - Henry/contracts/register/Register13_2.sol\":1192:1252  require(users[msg.sender].isClient, \"Usuario no registrado\") */\n      tag_44\n      jumpi\n      mload(0x40)\n      0x08c379a000000000000000000000000000000000000000000000000000000000\n      dup2\n      mstore\n      0x04\n      add\n      tag_45\n      swap1\n      tag_46\n      jump\t// in\n    tag_45:\n      mload(0x40)\n      dup1\n      swap2\n      sub\n      swap1\n      revert\n    tag_44:\n        /* \"ETH - Henry/contracts/register/Register13_2.sol\":1263:1280  User storage user */\n      0x00\n        /* \"ETH - Henry/contracts/register/Register13_2.sol\":1283:1288  users */\n      0x00\n        /* \"ETH - Henry/contracts/register/Register13_2.sol\":1283:1300  users[msg.sender] */\n      0x00\n        /* \"ETH - Henry/contracts/register/Register13_2.sol\":1289:1299  msg.sender */\n      caller\n        /* \"ETH - Henry/contracts/register/Register13_2.sol\":1283:1300  users[msg.sender] */\n      0xffffffffffffffffffffffffffffffffffffffff\n      and\n      0xffffffffffffffffffffffffffffffffffffffff\n      and\n      dup2\n      mstore\n      0x20\n      add\n      swap1\n      dup2\n      mstore\n      0x20\n      add\n      0x00\n      keccak256\n        /* \"ETH - Henry/contracts/register/Register13_2.sol\":1263:1300  User storage user = users[msg.sender] */\n      swap1\n      pop\n        /* \"ETH - Henry/contracts/register/Register13_2.sol\":1327:1334  _amount */\n      dup2\n        /* \"ETH - Henry/contracts/register/Register13_2.sol\":1311:1315  user */\n      dup2\n        /* \"ETH - Henry/contracts/register/Register13_2.sol\":1311:1323  user.balance */\n      0x01\n      add\n      0x00\n        /* \"ETH - Henry/contracts/register/Register13_2.sol\":1311:1334  user.balance += _amount */\n      dup3\n      dup3\n      sload\n      tag_47\n      swap2\n      swap1\n      tag_48\n      jump\t// in\n    tag_47:\n      swap3\n      pop\n      pop\n      dup2\n      swap1\n      sstore\n      pop\n        /* \"ETH - Henry/contracts/register/Register13_2.sol\":1181:1717  {... */\n      pop\n        /* \"ETH - Henry/contracts/register/Register13_2.sol\":1134:1717  function updateBalance(uint256 _amount) public {... */\n      pop\n      jump\t// out\n        /* \"#utility.yul\":7:82   */\n    tag_49:\n        /* \"#utility.yul\":40:46   */\n      0x00\n        /* \"#utility.yul\":73:75   */\n      0x40\n        /* \"#utility.yul\":67:76   */\n      mload\n        /* \"#utility.yul\":57:76   */\n      swap1\n      pop\n        /* \"#utility.yul\":7:82   */\n      swap1\n      jump\t// out\n        /* \"#utility.yul\":88:205   */\n    tag_50:\n        /* \"#utility.yul\":197:198   */\n      0x00\n        /* \"#utility.yul\":194:195   */\n      0x00\n        /* \"#utility.yul\":187:199   */\n      revert\n        /* \"#utility.yul\":211:328   */\n    tag_51:\n        /* \"#utility.yul\":320:321   */\n      0x00\n        /* \"#utility.yul\":317:318   */\n      0x00\n        /* \"#utility.yul\":310:322   */\n      revert\n        /* \"#utility.yul\":334:460   */\n    tag_52:\n        /* \"#utility.yul\":371:378   */\n      0x00\n        /* \"#utility.yul\":411:453   */\n      0xffffffffffffffffffffffffffffffffffffffff\n        /* \"#utility.yul\":404:409   */\n      dup3\n        /* \"#utility.yul\":400:454   */\n      and\n        /* \"#utility.yul\":389:454   */\n      swap1\n      pop\n        /* \"#utility.yul\":334:460   */\n      swap2\n      swap1\n      pop\n      jump\t// out\n        /* \"#utility.yul\":466:562   */\n    tag_53:\n        /* \"#utility.yul\":503:510   */\n      0x00\n        /* \"#utility.yul\":532:556   */\n      tag_103\n        /* \"#utility.yul\":550:555   */\n      dup3\n        /* \"#utility.yul\":532:556   */\n      tag_52\n      jump\t// in\n    tag_103:\n        /* \"#utility.yul\":521:556   */\n      swap1\n      pop\n        /* \"#utility.yul\":466:562   */\n      swap2\n      swap1\n      pop\n      jump\t// out\n        /* \"#utility.yul\":568:690   */\n    tag_54:\n        /* \"#utility.yul\":641:665   */\n      tag_105\n        /* \"#utility.yul\":659:664   */\n      dup2\n        /* \"#utility.yul\":641:665   */\n      tag_53\n      jump\t// in\n    tag_105:\n        /* \"#utility.yul\":634:639   */\n      dup2\n        /* \"#utility.yul\":631:666   */\n      eq\n        /* \"#utility.yul\":621:684   */\n      tag_106\n      jumpi\n        /* \"#utility.yul\":680:681   */\n      0x00\n        /* \"#utility.yul\":677:678   */\n      0x00\n        /* \"#utility.yul\":670:682   */\n      revert\n        /* \"#utility.yul\":621:684   */\n    tag_106:\n        /* \"#utility.yul\":568:690   */\n      pop\n      jump\t// out\n        /* \"#utility.yul\":696:835   */\n    tag_55:\n        /* \"#utility.yul\":742:747   */\n      0x00\n        /* \"#utility.yul\":780:786   */\n      dup2\n        /* \"#utility.yul\":767:787   */\n      calldataload\n        /* \"#utility.yul\":758:787   */\n      swap1\n      pop\n        /* \"#utility.yul\":796:829   */\n      tag_108\n        /* \"#utility.yul\":823:828   */\n      dup2\n        /* \"#utility.yul\":796:829   */\n      tag_54\n      jump\t// in\n    tag_108:\n        /* \"#utility.yul\":696:835   */\n      swap3\n      swap2\n      pop\n      pop\n      jump\t// out\n        /* \"#utility.yul\":841:1170   */\n    tag_9:\n        /* \"#utility.yul\":900:906   */\n      0x00\n        /* \"#utility.yul\":949:951   */\n      0x20\n        /* \"#utility.yul\":937:946   */\n      dup3\n        /* \"#utility.yul\":928:935   */\n      dup5\n        /* \"#utility.yul\":924:947   */\n      sub\n        /* \"#utility.yul\":920:952   */\n      slt\n        /* \"#utility.yul\":917:1036   */\n      iszero\n      tag_110\n      jumpi\n        /* \"#utility.yul\":955:1034   */\n      tag_111\n      tag_50\n      jump\t// in\n    tag_111:\n        /* \"#utility.yul\":917:1036   */\n    tag_110:\n        /* \"#utility.yul\":1075:1076   */\n      0x00\n        /* \"#utility.yul\":1100:1153   */\n      tag_112\n        /* \"#utility.yul\":1145:1152   */\n      dup5\n        /* \"#utility.yul\":1136:1142   */\n      dup3\n        /* \"#utility.yul\":1125:1134   */\n      dup6\n        /* \"#utility.yul\":1121:1143   */\n      add\n        /* \"#utility.yul\":1100:1153   */\n      tag_55\n      jump\t// in\n    tag_112:\n        /* \"#utility.yul\":1090:1153   */\n      swap2\n      pop\n        /* \"#utility.yul\":1046:1163   */\n      pop\n        /* \"#utility.yul\":841:1170   */\n      swap3\n      swap2\n      pop\n      pop\n      jump\t// out\n        /* \"#utility.yul\":1176:1275   */\n    tag_56:\n        /* \"#utility.yul\":1228:1234   */\n      0x00\n        /* \"#utility.yul\":1262:1267   */\n      dup2\n        /* \"#utility.yul\":1256:1268   */\n      mload\n        /* \"#utility.yul\":1246:1268   */\n      swap1\n      pop\n        /* \"#utility.yul\":1176:1275   */\n      swap2\n      swap1\n      pop\n      jump\t// out\n        /* \"#utility.yul\":1281:1450   */\n    tag_57:\n        /* \"#utility.yul\":1365:1376   */\n      0x00\n        /* \"#utility.yul\":1399:1405   */\n      dup3\n        /* \"#utility.yul\":1394:1397   */\n      dup3\n        /* \"#utility.yul\":1387:1406   */\n      mstore\n        /* \"#utility.yul\":1439:1443   */\n      0x20\n        /* \"#utility.yul\":1434:1437   */\n      dup3\n        /* \"#utility.yul\":1430:1444   */\n      add\n        /* \"#utility.yul\":1415:1444   */\n      swap1\n      pop\n        /* \"#utility.yul\":1281:1450   */\n      swap3\n      swap2\n      pop\n      pop\n      jump\t// out\n        /* \"#utility.yul\":1456:1595   */\n    tag_58:\n        /* \"#utility.yul\":1545:1551   */\n      dup3\n        /* \"#utility.yul\":1540:1543   */\n      dup2\n        /* \"#utility.yul\":1535:1538   */\n      dup4\n        /* \"#utility.yul\":1529:1552   */\n      mcopy\n        /* \"#utility.yul\":1586:1587   */\n      0x00\n        /* \"#utility.yul\":1577:1583   */\n      dup4\n        /* \"#utility.yul\":1572:1575   */\n      dup4\n        /* \"#utility.yul\":1568:1584   */\n      add\n        /* \"#utility.yul\":1561:1588   */\n      mstore\n        /* \"#utility.yul\":1456:1595   */\n      pop\n      pop\n      pop\n      jump\t// out\n        /* \"#utility.yul\":1601:1703   */\n    tag_59:\n        /* \"#utility.yul\":1642:1648   */\n      0x00\n        /* \"#utility.yul\":1693:1695   */\n      0x1f\n        /* \"#utility.yul\":1689:1696   */\n      not\n        /* \"#utility.yul\":1684:1686   */\n      0x1f\n        /* \"#utility.yul\":1677:1682   */\n      dup4\n        /* \"#utility.yul\":1673:1687   */\n      add\n        /* \"#utility.yul\":1669:1697   */\n      and\n        /* \"#utility.yul\":1659:1697   */\n      swap1\n      pop\n        /* \"#utility.yul\":1601:1703   */\n      swap2\n      swap1\n      pop\n      jump\t// out\n        /* \"#utility.yul\":1709:2086   */\n    tag_60:\n        /* \"#utility.yul\":1797:1800   */\n      0x00\n        /* \"#utility.yul\":1825:1864   */\n      tag_118\n        /* \"#utility.yul\":1858:1863   */\n      dup3\n        /* \"#utility.yul\":1825:1864   */\n      tag_56\n      jump\t// in\n    tag_118:\n        /* \"#utility.yul\":1880:1951   */\n      tag_119\n        /* \"#utility.yul\":1944:1950   */\n      dup2\n        /* \"#utility.yul\":1939:1942   */\n      dup6\n        /* \"#utility.yul\":1880:1951   */\n      tag_57\n      jump\t// in\n    tag_119:\n        /* \"#utility.yul\":1873:1951   */\n      swap4\n      pop\n        /* \"#utility.yul\":1960:2025   */\n      tag_120\n        /* \"#utility.yul\":2018:2024   */\n      dup2\n        /* \"#utility.yul\":2013:2016   */\n      dup6\n        /* \"#utility.yul\":2006:2010   */\n      0x20\n        /* \"#utility.yul\":1999:2004   */\n      dup7\n        /* \"#utility.yul\":1995:2011   */\n      add\n        /* \"#utility.yul\":1960:2025   */\n      tag_58\n      jump\t// in\n    tag_120:\n        /* \"#utility.yul\":2050:2079   */\n      tag_121\n        /* \"#utility.yul\":2072:2078   */\n      dup2\n        /* \"#utility.yul\":2050:2079   */\n      tag_59\n      jump\t// in\n    tag_121:\n        /* \"#utility.yul\":2045:2048   */\n      dup5\n        /* \"#utility.yul\":2041:2080   */\n      add\n        /* \"#utility.yul\":2034:2080   */\n      swap2\n      pop\n        /* \"#utility.yul\":1801:2086   */\n      pop\n        /* \"#utility.yul\":1709:2086   */\n      swap3\n      swap2\n      pop\n      pop\n      jump\t// out\n        /* \"#utility.yul\":2092:2169   */\n    tag_61:\n        /* \"#utility.yul\":2129:2136   */\n      0x00\n        /* \"#utility.yul\":2158:2163   */\n      dup2\n        /* \"#utility.yul\":2147:2163   */\n      swap1\n      pop\n        /* \"#utility.yul\":2092:2169   */\n      swap2\n      swap1\n      pop\n      jump\t// out\n        /* \"#utility.yul\":2175:2293   */\n    tag_62:\n        /* \"#utility.yul\":2262:2286   */\n      tag_124\n        /* \"#utility.yul\":2280:2285   */\n      dup2\n        /* \"#utility.yul\":2262:2286   */\n      tag_61\n      jump\t// in\n    tag_124:\n        /* \"#utility.yul\":2257:2260   */\n      dup3\n        /* \"#utility.yul\":2250:2287   */\n      mstore\n        /* \"#utility.yul\":2175:2293   */\n      pop\n      pop\n      jump\t// out\n        /* \"#utility.yul\":2299:2389   */\n    tag_63:\n        /* \"#utility.yul\":2333:2340   */\n      0x00\n        /* \"#utility.yul\":2376:2381   */\n      dup2\n        /* \"#utility.yul\":2369:2382   */\n      iszero\n        /* \"#utility.yul\":2362:2383   */\n      iszero\n        /* \"#utility.yul\":2351:2383   */\n      swap1\n      pop\n        /* \"#utility.yul\":2299:2389   */\n      swap2\n      swap1\n      pop\n      jump\t// out\n        /* \"#utility.yul\":2395:2504   */\n    tag_64:\n        /* \"#utility.yul\":2476:2497   */\n      tag_127\n        /* \"#utility.yul\":2491:2496   */\n      dup2\n        /* \"#utility.yul\":2476:2497   */\n      tag_63\n      jump\t// in\n    tag_127:\n        /* \"#utility.yul\":2471:2474   */\n      dup3\n        /* \"#utility.yul\":2464:2498   */\n      mstore\n        /* \"#utility.yul\":2395:2504   */\n      pop\n      pop\n      jump\t// out\n        /* \"#utility.yul\":2510:3031   */\n    tag_12:\n        /* \"#utility.yul\":2673:2677   */\n      0x00\n        /* \"#utility.yul\":2711:2713   */\n      0x60\n        /* \"#utility.yul\":2700:2709   */\n      dup3\n        /* \"#utility.yul\":2696:2714   */\n      add\n        /* \"#utility.yul\":2688:2714   */\n      swap1\n      pop\n        /* \"#utility.yul\":2760:2769   */\n      dup2\n        /* \"#utility.yul\":2754:2758   */\n      dup2\n        /* \"#utility.yul\":2750:2770   */\n      sub\n        /* \"#utility.yul\":2746:2747   */\n      0x00\n        /* \"#utility.yul\":2735:2744   */\n      dup4\n        /* \"#utility.yul\":2731:2748   */\n      add\n        /* \"#utility.yul\":2724:2771   */\n      mstore\n        /* \"#utility.yul\":2788:2866   */\n      tag_129\n        /* \"#utility.yul\":2861:2865   */\n      dup2\n        /* \"#utility.yul\":2852:2858   */\n      dup7\n        /* \"#utility.yul\":2788:2866   */\n      tag_60\n      jump\t// in\n    tag_129:\n        /* \"#utility.yul\":2780:2866   */\n      swap1\n      pop\n        /* \"#utility.yul\":2876:2948   */\n      tag_130\n        /* \"#utility.yul\":2944:2946   */\n      0x20\n        /* \"#utility.yul\":2933:2942   */\n      dup4\n        /* \"#utility.yul\":2929:2947   */\n      add\n        /* \"#utility.yul\":2920:2926   */\n      dup6\n        /* \"#utility.yul\":2876:2948   */\n      tag_62\n      jump\t// in\n    tag_130:\n        /* \"#utility.yul\":2958:3024   */\n      tag_131\n        /* \"#utility.yul\":3020:3022   */\n      0x40\n        /* \"#utility.yul\":3009:3018   */\n      dup4\n        /* \"#utility.yul\":3005:3023   */\n      add\n        /* \"#utility.yul\":2996:3002   */\n      dup5\n        /* \"#utility.yul\":2958:3024   */\n      tag_64\n      jump\t// in\n    tag_131:\n        /* \"#utility.yul\":2510:3031   */\n      swap5\n      swap4\n      pop\n      pop\n      pop\n      pop\n      jump\t// out\n        /* \"#utility.yul\":3037:3154   */\n    tag_65:\n        /* \"#utility.yul\":3146:3147   */\n      0x00\n        /* \"#utility.yul\":3143:3144   */\n      0x00\n        /* \"#utility.yul\":3136:3148   */\n      revert\n        /* \"#utility.yul\":3160:3277   */\n    tag_66:\n        /* \"#utility.yul\":3269:3270   */\n      0x00\n        /* \"#utility.yul\":3266:3267   */\n      0x00\n        /* \"#utility.yul\":3259:3271   */\n      revert\n        /* \"#utility.yul\":3283:3463   */\n    tag_67:\n        /* \"#utility.yul\":3331:3408   */\n      0x4e487b7100000000000000000000000000000000000000000000000000000000\n        /* \"#utility.yul\":3328:3329   */\n      0x00\n        /* \"#utility.yul\":3321:3409   */\n      mstore\n        /* \"#utility.yul\":3428:3432   */\n      0x41\n        /* \"#utility.yul\":3425:3426   */\n      0x04\n        /* \"#utility.yul\":3418:3433   */\n      mstore\n        /* \"#utility.yul\":3452:3456   */\n      0x24\n        /* \"#utility.yul\":3449:3450   */\n      0x00\n        /* \"#utility.yul\":3442:3457   */\n      revert\n        /* \"#utility.yul\":3469:3750   */\n    tag_68:\n        /* \"#utility.yul\":3552:3579   */\n      tag_136\n        /* \"#utility.yul\":3574:3578   */\n      dup3\n        /* \"#utility.yul\":3552:3579   */\n      tag_59\n      jump\t// in\n    tag_136:\n        /* \"#utility.yul\":3544:3550   */\n      dup2\n        /* \"#utility.yul\":3540:3580   */\n      add\n        /* \"#utility.yul\":3682:3688   */\n      dup2\n        /* \"#utility.yul\":3670:3680   */\n      dup2\n        /* \"#utility.yul\":3667:3689   */\n      lt\n        /* \"#utility.yul\":3646:3664   */\n      0xffffffffffffffff\n        /* \"#utility.yul\":3634:3644   */\n      dup3\n        /* \"#utility.yul\":3631:3665   */\n      gt\n        /* \"#utility.yul\":3628:3690   */\n      or\n        /* \"#utility.yul\":3625:3713   */\n      iszero\n      tag_137\n      jumpi\n        /* \"#utility.yul\":3693:3711   */\n      tag_138\n      tag_67\n      jump\t// in\n    tag_138:\n        /* \"#utility.yul\":3625:3713   */\n    tag_137:\n        /* \"#utility.yul\":3733:3743   */\n      dup1\n        /* \"#utility.yul\":3729:3731   */\n      0x40\n        /* \"#utility.yul\":3722:3744   */\n      mstore\n        /* \"#utility.yul\":3512:3750   */\n      pop\n        /* \"#utility.yul\":3469:3750   */\n      pop\n      pop\n      jump\t// out\n        /* \"#utility.yul\":3756:3885   */\n    tag_69:\n        /* \"#utility.yul\":3790:3796   */\n      0x00\n        /* \"#utility.yul\":3817:3837   */\n      tag_140\n      tag_49\n      jump\t// in\n    tag_140:\n        /* \"#utility.yul\":3807:3837   */\n      swap1\n      pop\n        /* \"#utility.yul\":3846:3879   */\n      tag_141\n        /* \"#utility.yul\":3874:3878   */\n      dup3\n        /* \"#utility.yul\":3866:3872   */\n      dup3\n        /* \"#utility.yul\":3846:3879   */\n      tag_68\n      jump\t// in\n    tag_141:\n        /* \"#utility.yul\":3756:3885   */\n      swap2\n      swap1\n      pop\n      jump\t// out\n        /* \"#utility.yul\":3891:4199   */\n    tag_70:\n        /* \"#utility.yul\":3953:3957   */\n      0x00\n        /* \"#utility.yul\":4043:4061   */\n      0xffffffffffffffff\n        /* \"#utility.yul\":4035:4041   */\n      dup3\n        /* \"#utility.yul\":4032:4062   */\n      gt\n        /* \"#utility.yul\":4029:4085   */\n      iszero\n      tag_143\n      jumpi\n        /* \"#utility.yul\":4065:4083   */\n      tag_144\n      tag_67\n      jump\t// in\n    tag_144:\n        /* \"#utility.yul\":4029:4085   */\n    tag_143:\n        /* \"#utility.yul\":4103:4132   */\n      tag_145\n        /* \"#utility.yul\":4125:4131   */\n      dup3\n        /* \"#utility.yul\":4103:4132   */\n      tag_59\n      jump\t// in\n    tag_145:\n        /* \"#utility.yul\":4095:4132   */\n      swap1\n      pop\n        /* \"#utility.yul\":4187:4191   */\n      0x20\n        /* \"#utility.yul\":4181:4185   */\n      dup2\n        /* \"#utility.yul\":4177:4192   */\n      add\n        /* \"#utility.yul\":4169:4192   */\n      swap1\n      pop\n        /* \"#utility.yul\":3891:4199   */\n      swap2\n      swap1\n      pop\n      jump\t// out\n        /* \"#utility.yul\":4205:4353   */\n    tag_71:\n        /* \"#utility.yul\":4303:4309   */\n      dup3\n        /* \"#utility.yul\":4298:4301   */\n      dup2\n        /* \"#utility.yul\":4293:4296   */\n      dup4\n        /* \"#utility.yul\":4280:4310   */\n      calldatacopy\n        /* \"#utility.yul\":4344:4345   */\n      0x00\n        /* \"#utility.yul\":4335:4341   */\n      dup4\n        /* \"#utility.yul\":4330:4333   */\n      dup4\n        /* \"#utility.yul\":4326:4342   */\n      add\n        /* \"#utility.yul\":4319:4346   */\n      mstore\n        /* \"#utility.yul\":4205:4353   */\n      pop\n      pop\n      pop\n      jump\t// out\n        /* \"#utility.yul\":4359:4784   */\n    tag_72:\n        /* \"#utility.yul\":4437:4442   */\n      0x00\n        /* \"#utility.yul\":4462:4528   */\n      tag_148\n        /* \"#utility.yul\":4478:4527   */\n      tag_149\n        /* \"#utility.yul\":4520:4526   */\n      dup5\n        /* \"#utility.yul\":4478:4527   */\n      tag_70\n      jump\t// in\n    tag_149:\n        /* \"#utility.yul\":4462:4528   */\n      tag_69\n      jump\t// in\n    tag_148:\n        /* \"#utility.yul\":4453:4528   */\n      swap1\n      pop\n        /* \"#utility.yul\":4551:4557   */\n      dup3\n        /* \"#utility.yul\":4544:4549   */\n      dup2\n        /* \"#utility.yul\":4537:4558   */\n      mstore\n        /* \"#utility.yul\":4589:4593   */\n      0x20\n        /* \"#utility.yul\":4582:4587   */\n      dup2\n        /* \"#utility.yul\":4578:4594   */\n      add\n        /* \"#utility.yul\":4627:4630   */\n      dup5\n        /* \"#utility.yul\":4618:4624   */\n      dup5\n        /* \"#utility.yul\":4613:4616   */\n      dup5\n        /* \"#utility.yul\":4609:4625   */\n      add\n        /* \"#utility.yul\":4606:4631   */\n      gt\n        /* \"#utility.yul\":4603:4715   */\n      iszero\n      tag_150\n      jumpi\n        /* \"#utility.yul\":4634:4713   */\n      tag_151\n      tag_66\n      jump\t// in\n    tag_151:\n        /* \"#utility.yul\":4603:4715   */\n    tag_150:\n        /* \"#utility.yul\":4724:4778   */\n      tag_152\n        /* \"#utility.yul\":4771:4777   */\n      dup5\n        /* \"#utility.yul\":4766:4769   */\n      dup3\n        /* \"#utility.yul\":4761:4764   */\n      dup6\n        /* \"#utility.yul\":4724:4778   */\n      tag_71\n      jump\t// in\n    tag_152:\n        /* \"#utility.yul\":4443:4784   */\n      pop\n        /* \"#utility.yul\":4359:4784   */\n      swap4\n      swap3\n      pop\n      pop\n      pop\n      jump\t// out\n        /* \"#utility.yul\":4804:5144   */\n    tag_73:\n        /* \"#utility.yul\":4860:4865   */\n      0x00\n        /* \"#utility.yul\":4909:4912   */\n      dup3\n        /* \"#utility.yul\":4902:4906   */\n      0x1f\n        /* \"#utility.yul\":4894:4900   */\n      dup4\n        /* \"#utility.yul\":4890:4907   */\n      add\n        /* \"#utility.yul\":4886:4913   */\n      slt\n        /* \"#utility.yul\":4876:4998   */\n      tag_154\n      jumpi\n        /* \"#utility.yul\":4917:4996   */\n      tag_155\n      tag_65\n      jump\t// in\n    tag_155:\n        /* \"#utility.yul\":4876:4998   */\n    tag_154:\n        /* \"#utility.yul\":5034:5040   */\n      dup2\n        /* \"#utility.yul\":5021:5041   */\n      calldataload\n        /* \"#utility.yul\":5059:5138   */\n      tag_156\n        /* \"#utility.yul\":5134:5137   */\n      dup5\n        /* \"#utility.yul\":5126:5132   */\n      dup3\n        /* \"#utility.yul\":5119:5123   */\n      0x20\n        /* \"#utility.yul\":5111:5117   */\n      dup7\n        /* \"#utility.yul\":5107:5124   */\n      add\n        /* \"#utility.yul\":5059:5138   */\n      tag_72\n      jump\t// in\n    tag_156:\n        /* \"#utility.yul\":5050:5138   */\n      swap2\n      pop\n        /* \"#utility.yul\":4866:5144   */\n      pop\n        /* \"#utility.yul\":4804:5144   */\n      swap3\n      swap2\n      pop\n      pop\n      jump\t// out\n        /* \"#utility.yul\":5150:5659   */\n    tag_15:\n        /* \"#utility.yul\":5219:5225   */\n      0x00\n        /* \"#utility.yul\":5268:5270   */\n      0x20\n        /* \"#utility.yul\":5256:5265   */\n      dup3\n        /* \"#utility.yul\":5247:5254   */\n      dup5\n        /* \"#utility.yul\":5243:5266   */\n      sub\n        /* \"#utility.yul\":5239:5271   */\n      slt\n        /* \"#utility.yul\":5236:5355   */\n      iszero\n      tag_158\n      jumpi\n        /* \"#utility.yul\":5274:5353   */\n      tag_159\n      tag_50\n      jump\t// in\n    tag_159:\n        /* \"#utility.yul\":5236:5355   */\n    tag_158:\n        /* \"#utility.yul\":5422:5423   */\n      0x00\n        /* \"#utility.yul\":5411:5420   */\n      dup3\n        /* \"#utility.yul\":5407:5424   */\n      add\n        /* \"#utility.yul\":5394:5425   */\n      calldataload\n        /* \"#utility.yul\":5452:5470   */\n      0xffffffffffffffff\n        /* \"#utility.yul\":5444:5450   */\n      dup2\n        /* \"#utility.yul\":5441:5471   */\n      gt\n        /* \"#utility.yul\":5438:5555   */\n      iszero\n      tag_160\n      jumpi\n        /* \"#utility.yul\":5474:5553   */\n      tag_161\n      tag_51\n      jump\t// in\n    tag_161:\n        /* \"#utility.yul\":5438:5555   */\n    tag_160:\n        /* \"#utility.yul\":5579:5642   */\n      tag_162\n        /* \"#utility.yul\":5634:5641   */\n      dup5\n        /* \"#utility.yul\":5625:5631   */\n      dup3\n        /* \"#utility.yul\":5614:5623   */\n      dup6\n        /* \"#utility.yul\":5610:5632   */\n      add\n        /* \"#utility.yul\":5579:5642   */\n      tag_73\n      jump\t// in\n    tag_162:\n        /* \"#utility.yul\":5569:5642   */\n      swap2\n      pop\n        /* \"#utility.yul\":5365:5652   */\n      pop\n        /* \"#utility.yul\":5150:5659   */\n      swap3\n      swap2\n      pop\n      pop\n      jump\t// out\n        /* \"#utility.yul\":5665:5787   */\n    tag_74:\n        /* \"#utility.yul\":5738:5762   */\n      tag_164\n        /* \"#utility.yul\":5756:5761   */\n      dup2\n        /* \"#utility.yul\":5738:5762   */\n      tag_61\n      jump\t// in\n    tag_164:\n        /* \"#utility.yul\":5731:5736   */\n      dup2\n        /* \"#utility.yul\":5728:5763   */\n      eq\n        /* \"#utility.yul\":5718:5781   */\n      tag_165\n      jumpi\n        /* \"#utility.yul\":5777:5778   */\n      0x00\n        /* \"#utility.yul\":5774:5775   */\n      0x00\n        /* \"#utility.yul\":5767:5779   */\n      revert\n        /* \"#utility.yul\":5718:5781   */\n    tag_165:\n        /* \"#utility.yul\":5665:5787   */\n      pop\n      jump\t// out\n        /* \"#utility.yul\":5793:5932   */\n    tag_75:\n        /* \"#utility.yul\":5839:5844   */\n      0x00\n        /* \"#utility.yul\":5877:5883   */\n      dup2\n        /* \"#utility.yul\":5864:5884   */\n      calldataload\n        /* \"#utility.yul\":5855:5884   */\n      swap1\n      pop\n        /* \"#utility.yul\":5893:5926   */\n      tag_167\n        /* \"#utility.yul\":5920:5925   */\n      dup2\n        /* \"#utility.yul\":5893:5926   */\n      tag_74\n      jump\t// in\n    tag_167:\n        /* \"#utility.yul\":5793:5932   */\n      swap3\n      swap2\n      pop\n      pop\n      jump\t// out\n        /* \"#utility.yul\":5938:6267   */\n    tag_23:\n        /* \"#utility.yul\":5997:6003   */\n      0x00\n        /* \"#utility.yul\":6046:6048   */\n      0x20\n        /* \"#utility.yul\":6034:6043   */\n      dup3\n        /* \"#utility.yul\":6025:6032   */\n      dup5\n        /* \"#utility.yul\":6021:6044   */\n      sub\n        /* \"#utility.yul\":6017:6049   */\n      slt\n        /* \"#utility.yul\":6014:6133   */\n      iszero\n      tag_169\n      jumpi\n        /* \"#utility.yul\":6052:6131   */\n      tag_170\n      tag_50\n      jump\t// in\n    tag_170:\n        /* \"#utility.yul\":6014:6133   */\n    tag_169:\n        /* \"#utility.yul\":6172:6173   */\n      0x00\n        /* \"#utility.yul\":6197:6250   */\n      tag_171\n        /* \"#utility.yul\":6242:6249   */\n      dup5\n        /* \"#utility.yul\":6233:6239   */\n      dup3\n        /* \"#utility.yul\":6222:6231   */\n      dup6\n        /* \"#utility.yul\":6218:6240   */\n      add\n        /* \"#utility.yul\":6197:6250   */\n      tag_75\n      jump\t// in\n    tag_171:\n        /* \"#utility.yul\":6187:6250   */\n      swap2\n      pop\n        /* \"#utility.yul\":6143:6260   */\n      pop\n        /* \"#utility.yul\":5938:6267   */\n      swap3\n      swap2\n      pop\n      pop\n      jump\t// out\n        /* \"#utility.yul\":6273:6453   */\n    tag_76:\n        /* \"#utility.yul\":6321:6398   */\n      0x4e487b7100000000000000000000000000000000000000000000000000000000\n        /* \"#utility.yul\":6318:6319   */\n      0x00\n        /* \"#utility.yul\":6311:6399   */\n      mstore\n        /* \"#utility.yul\":6418:6422   */\n      0x22\n        /* \"#utility.yul\":6415:6416   */\n      0x04\n        /* \"#utility.yul\":6408:6423   */\n      mstore\n        /* \"#utility.yul\":6442:6446   */\n      0x24\n        /* \"#utility.yul\":6439:6440   */\n      0x00\n        /* \"#utility.yul\":6432:6447   */\n      revert\n        /* \"#utility.yul\":6459:6779   */\n    tag_27:\n        /* \"#utility.yul\":6503:6509   */\n      0x00\n        /* \"#utility.yul\":6540:6541   */\n      0x02\n        /* \"#utility.yul\":6534:6538   */\n      dup3\n        /* \"#utility.yul\":6530:6542   */\n      div\n        /* \"#utility.yul\":6520:6542   */\n      swap1\n      pop\n        /* \"#utility.yul\":6587:6588   */\n      0x01\n        /* \"#utility.yul\":6581:6585   */\n      dup3\n        /* \"#utility.yul\":6577:6589   */\n      and\n        /* \"#utility.yul\":6608:6626   */\n      dup1\n        /* \"#utility.yul\":6598:6679   */\n      tag_174\n      jumpi\n        /* \"#utility.yul\":6664:6668   */\n      0x7f\n        /* \"#utility.yul\":6656:6662   */\n      dup3\n        /* \"#utility.yul\":6652:6669   */\n      and\n        /* \"#utility.yul\":6642:6669   */\n      swap2\n      pop\n        /* \"#utility.yul\":6598:6679   */\n    tag_174:\n        /* \"#utility.yul\":6726:6728   */\n      0x20\n        /* \"#utility.yul\":6718:6724   */\n      dup3\n        /* \"#utility.yul\":6715:6729   */\n      lt\n        /* \"#utility.yul\":6695:6713   */\n      dup2\n        /* \"#utility.yul\":6692:6730   */\n      sub\n        /* \"#utility.yul\":6689:6773   */\n      tag_175\n      jumpi\n        /* \"#utility.yul\":6745:6763   */\n      tag_176\n      tag_76\n      jump\t// in\n    tag_176:\n        /* \"#utility.yul\":6689:6773   */\n    tag_175:\n        /* \"#utility.yul\":6510:6779   */\n      pop\n        /* \"#utility.yul\":6459:6779   */\n      swap2\n      swap1\n      pop\n      jump\t// out\n        /* \"#utility.yul\":6785:6956   */\n    tag_77:\n        /* \"#utility.yul\":6925:6948   */\n      0x5573756172696f207961207265676973747261646f0000000000000000000000\n        /* \"#utility.yul\":6921:6922   */\n      0x00\n        /* \"#utility.yul\":6913:6919   */\n      dup3\n        /* \"#utility.yul\":6909:6923   */\n      add\n        /* \"#utility.yul\":6902:6949   */\n      mstore\n        /* \"#utility.yul\":6785:6956   */\n      pop\n      jump\t// out\n        /* \"#utility.yul\":6962:7328   */\n    tag_78:\n        /* \"#utility.yul\":7104:7107   */\n      0x00\n        /* \"#utility.yul\":7125:7192   */\n      tag_179\n        /* \"#utility.yul\":7189:7191   */\n      0x15\n        /* \"#utility.yul\":7184:7187   */\n      dup4\n        /* \"#utility.yul\":7125:7192   */\n      tag_57\n      jump\t// in\n    tag_179:\n        /* \"#utility.yul\":7118:7192   */\n      swap2\n      pop\n        /* \"#utility.yul\":7201:7294   */\n      tag_180\n        /* \"#utility.yul\":7290:7293   */\n      dup3\n        /* \"#utility.yul\":7201:7294   */\n      tag_77\n      jump\t// in\n    tag_180:\n        /* \"#utility.yul\":7319:7321   */\n      0x20\n        /* \"#utility.yul\":7314:7317   */\n      dup3\n        /* \"#utility.yul\":7310:7322   */\n      add\n        /* \"#utility.yul\":7303:7322   */\n      swap1\n      pop\n        /* \"#utility.yul\":6962:7328   */\n      swap2\n      swap1\n      pop\n      jump\t// out\n        /* \"#utility.yul\":7334:7753   */\n    tag_35:\n        /* \"#utility.yul\":7500:7504   */\n      0x00\n        /* \"#utility.yul\":7538:7540   */\n      0x20\n        /* \"#utility.yul\":7527:7536   */\n      dup3\n        /* \"#utility.yul\":7523:7541   */\n      add\n        /* \"#utility.yul\":7515:7541   */\n      swap1\n      pop\n        /* \"#utility.yul\":7587:7596   */\n      dup2\n        /* \"#utility.yul\":7581:7585   */\n      dup2\n        /* \"#utility.yul\":7577:7597   */\n      sub\n        /* \"#utility.yul\":7573:7574   */\n      0x00\n        /* \"#utility.yul\":7562:7571   */\n      dup4\n        /* \"#utility.yul\":7558:7575   */\n      add\n        /* \"#utility.yul\":7551:7598   */\n      mstore\n        /* \"#utility.yul\":7615:7746   */\n      tag_182\n        /* \"#utility.yul\":7741:7745   */\n      dup2\n        /* \"#utility.yul\":7615:7746   */\n      tag_78\n      jump\t// in\n    tag_182:\n        /* \"#utility.yul\":7607:7746   */\n      swap1\n      pop\n        /* \"#utility.yul\":7334:7753   */\n      swap2\n      swap1\n      pop\n      jump\t// out\n        /* \"#utility.yul\":7759:7900   */\n    tag_79:\n        /* \"#utility.yul\":7808:7812   */\n      0x00\n        /* \"#utility.yul\":7831:7834   */\n      dup2\n        /* \"#utility.yul\":7823:7834   */\n      swap1\n      pop\n        /* \"#utility.yul\":7854:7857   */\n      dup2\n        /* \"#utility.yul\":7851:7852   */\n      0x00\n        /* \"#utility.yul\":7844:7858   */\n      mstore\n        /* \"#utility.yul\":7888:7892   */\n      0x20\n        /* \"#utility.yul\":7885:7886   */\n      0x00\n        /* \"#utility.yul\":7875:7893   */\n      keccak256\n        /* \"#utility.yul\":7867:7893   */\n      swap1\n      pop\n        /* \"#utility.yul\":7759:7900   */\n      swap2\n      swap1\n      pop\n      jump\t// out\n        /* \"#utility.yul\":7906:7999   */\n    tag_80:\n        /* \"#utility.yul\":7943:7949   */\n      0x00\n        /* \"#utility.yul\":7990:7992   */\n      0x20\n        /* \"#utility.yul\":7985:7987   */\n      0x1f\n        /* \"#utility.yul\":7978:7983   */\n      dup4\n        /* \"#utility.yul\":7974:7988   */\n      add\n        /* \"#utility.yul\":7970:7993   */\n      div\n        /* \"#utility.yul\":7960:7993   */\n      swap1\n      pop\n        /* \"#utility.yul\":7906:7999   */\n      swap2\n      swap1\n      pop\n      jump\t// out\n        /* \"#utility.yul\":8005:8112   */\n    tag_81:\n        /* \"#utility.yul\":8049:8057   */\n      0x00\n        /* \"#utility.yul\":8099:8104   */\n      dup3\n        /* \"#utility.yul\":8093:8097   */\n      dup3\n        /* \"#utility.yul\":8089:8105   */\n      shl\n        /* \"#utility.yul\":8068:8105   */\n      swap1\n      pop\n        /* \"#utility.yul\":8005:8112   */\n      swap3\n      swap2\n      pop\n      pop\n      jump\t// out\n        /* \"#utility.yul\":8118:8511   */\n    tag_82:\n        /* \"#utility.yul\":8187:8193   */\n      0x00\n        /* \"#utility.yul\":8237:8238   */\n      0x08\n        /* \"#utility.yul\":8225:8235   */\n      dup4\n        /* \"#utility.yul\":8221:8239   */\n      mul\n        /* \"#utility.yul\":8260:8357   */\n      tag_187\n        /* \"#utility.yul\":8290:8356   */\n      0xffffffffffffffffffffffffffffffffffffffffffffffffffffffffffffffff\n        /* \"#utility.yul\":8279:8288   */\n      dup3\n        /* \"#utility.yul\":8260:8357   */\n      tag_81\n      jump\t// in\n    tag_187:\n        /* \"#utility.yul\":8378:8417   */\n      tag_188\n        /* \"#utility.yul\":8408:8416   */\n      dup7\n        /* \"#utility.yul\":8397:8406   */\n      dup4\n        /* \"#utility.yul\":8378:8417   */\n      tag_81\n      jump\t// in\n    tag_188:\n        /* \"#utility.yul\":8366:8417   */\n      swap6\n      pop\n        /* \"#utility.yul\":8450:8454   */\n      dup1\n        /* \"#utility.yul\":8446:8455   */\n      not\n        /* \"#utility.yul\":8439:8444   */\n      dup5\n        /* \"#utility.yul\":8435:8456   */\n      and\n        /* \"#utility.yul\":8426:8456   */\n      swap4\n      pop\n        /* \"#utility.yul\":8499:8503   */\n      dup1\n        /* \"#utility.yul\":8489:8497   */\n      dup7\n        /* \"#utility.yul\":8485:8504   */\n      and\n        /* \"#utility.yul\":8478:8483   */\n      dup5\n        /* \"#utility.yul\":8475:8505   */\n      or\n        /* \"#utility.yul\":8465:8505   */\n      swap3\n      pop\n        /* \"#utility.yul\":8194:8511   */\n      pop\n      pop\n        /* \"#utility.yul\":8118:8511   */\n      swap4\n      swap3\n      pop\n      pop\n      pop\n      jump\t// out\n        /* \"#utility.yul\":8517:8577   */\n    tag_83:\n        /* \"#utility.yul\":8545:8548   */\n      0x00\n        /* \"#utility.yul\":8566:8571   */\n      dup2\n        /* \"#utility.yul\":8559:8571   */\n      swap1\n      pop\n        /* \"#utility.yul\":8517:8577   */\n      swap2\n      swap1\n      pop\n      jump\t// out\n        /* \"#utility.yul\":8583:8725   */\n    tag_84:\n        /* \"#utility.yul\":8633:8642   */\n      0x00\n        /* \"#utility.yul\":8666:8719   */\n      tag_191\n        /* \"#utility.yul\":8684:8718   */\n      tag_192\n        /* \"#utility.yul\":8693:8717   */\n      tag_193\n        /* \"#utility.yul\":8711:8716   */\n      dup5\n        /* \"#utility.yul\":8693:8717   */\n      tag_61\n      jump\t// in\n    tag_193:\n        /* \"#utility.yul\":8684:8718   */\n      tag_83\n      jump\t// in\n    tag_192:\n        /* \"#utility.yul\":8666:8719   */\n      tag_61\n      jump\t// in\n    tag_191:\n        /* \"#utility.yul\":8653:8719   */\n      swap1\n      pop\n        /* \"#utility.yul\":8583:8725   */\n      swap2\n      swap1\n      pop\n      jump\t// out\n        /* \"#utility.yul\":8731:8806   */\n    tag_85:\n        /* \"#utility.yul\":8774:8777   */\n      0x00\n        /* \"#utility.yul\":8795:8800   */\n      dup2\n        /* \"#utility.yul\":8788:8800   */\n      swap1\n      pop\n        /* \"#utility.yul\":8731:8806   */\n      swap2\n      swap1\n      pop\n      jump\t// out\n        /* \"#utility.yul\":8812:9081   */\n    tag_86:\n        /* \"#utility.yul\":8922:8961   */\n      tag_196\n        /* \"#utility.yul\":8953:8960   */\n      dup4\n        /* \"#utility.yul\":8922:8961   */\n      tag_84\n      jump\t// in\n    tag_196:\n        /* \"#utility.yul\":8983:9074   */\n      tag_197\n        /* \"#utility.yul\":9032:9073   */\n      tag_198\n        /* \"#utility.yul\":9056:9072   */\n      dup3\n        /* \"#utility.yul\":9032:9073   */\n      tag_85\n      jump\t// in\n    tag_198:\n        /* \"#utility.yul\":9024:9030   */\n      dup5\n        /* \"#utility.yul\":9017:9021   */\n      dup5\n        /* \"#utility.yul\":9011:9022   */\n      sload\n        /* \"#utility.yul\":8983:9074   */\n      tag_82\n      jump\t// in\n    tag_197:\n        /* \"#utility.yul\":8977:8981   */\n      dup3\n        /* \"#utility.yul\":8970:9075   */\n      sstore\n        /* \"#utility.yul\":8888:9081   */\n      pop\n        /* \"#utility.yul\":8812:9081   */\n      pop\n      pop\n      pop\n      jump\t// out\n        /* \"#utility.yul\":9087:9160   */\n    tag_87:\n        /* \"#utility.yul\":9132:9135   */\n      0x00\n        /* \"#utility.yul\":9153:9154   */\n      0x00\n        /* \"#utility.yul\":9146:9154   */\n      swap1\n      pop\n        /* \"#utility.yul\":9087:9160   */\n      swap1\n      jump\t// out\n        /* \"#utility.yul\":9166:9355   */\n    tag_88:\n        /* \"#utility.yul\":9243:9275   */\n      tag_201\n      tag_87\n      jump\t// in\n    tag_201:\n        /* \"#utility.yul\":9284:9349   */\n      tag_202\n        /* \"#utility.yul\":9342:9348   */\n      dup2\n        /* \"#utility.yul\":9334:9340   */\n      dup5\n        /* \"#utility.yul\":9328:9332   */\n      dup5\n        /* \"#utility.yul\":9284:9349   */\n      tag_86\n      jump\t// in\n    tag_202:\n        /* \"#utility.yul\":9219:9355   */\n      pop\n        /* \"#utility.yul\":9166:9355   */\n      pop\n      pop\n      jump\t// out\n        /* \"#utility.yul\":9361:9547   */\n    tag_89:\n        /* \"#utility.yul\":9421:9541   */\n    tag_204:\n        /* \"#utility.yul\":9438:9441   */\n      dup2\n        /* \"#utility.yul\":9431:9436   */\n      dup2\n        /* \"#utility.yul\":9428:9442   */\n      lt\n        /* \"#utility.yul\":9421:9541   */\n      iszero\n      tag_206\n      jumpi\n        /* \"#utility.yul\":9492:9531   */\n      tag_207\n        /* \"#utility.yul\":9529:9530   */\n      0x00\n        /* \"#utility.yul\":9522:9527   */\n      dup3\n        /* \"#utility.yul\":9492:9531   */\n      tag_88\n      jump\t// in\n    tag_207:\n        /* \"#utility.yul\":9465:9466   */\n      0x01\n        /* \"#utility.yul\":9458:9463   */\n      dup2\n        /* \"#utility.yul\":9454:9467   */\n      add\n        /* \"#utility.yul\":9445:9467   */\n      swap1\n      pop\n        /* \"#utility.yul\":9421:9541   */\n      jump(tag_204)\n    tag_206:\n        /* \"#utility.yul\":9361:9547   */\n      pop\n      pop\n      jump\t// out\n        /* \"#utility.yul\":9553:10096   */\n    tag_90:\n        /* \"#utility.yul\":9654:9656   */\n      0x1f\n        /* \"#utility.yul\":9649:9652   */\n      dup3\n        /* \"#utility.yul\":9646:9657   */\n      gt\n        /* \"#utility.yul\":9643:10089   */\n      iszero\n      tag_209\n      jumpi\n        /* \"#utility.yul\":9688:9726   */\n      tag_210\n        /* \"#utility.yul\":9720:9725   */\n      dup2\n        /* \"#utility.yul\":9688:9726   */\n      tag_79\n      jump\t// in\n    tag_210:\n        /* \"#utility.yul\":9772:9801   */\n      tag_211\n        /* \"#utility.yul\":9790:9800   */\n      dup5\n        /* \"#utility.yul\":9772:9801   */\n      tag_80\n      jump\t// in\n    tag_211:\n        /* \"#utility.yul\":9762:9770   */\n      dup2\n        /* \"#utility.yul\":9758:9802   */\n      add\n        /* \"#utility.yul\":9955:9957   */\n      0x20\n        /* \"#utility.yul\":9943:9953   */\n      dup6\n        /* \"#utility.yul\":9940:9958   */\n      lt\n        /* \"#utility.yul\":9937:9986   */\n      iszero\n      tag_212\n      jumpi\n        /* \"#utility.yul\":9976:9984   */\n      dup2\n        /* \"#utility.yul\":9961:9984   */\n      swap1\n      pop\n        /* \"#utility.yul\":9937:9986   */\n    tag_212:\n        /* \"#utility.yul\":9999:10079   */\n      tag_213\n        /* \"#utility.yul\":10055:10077   */\n      tag_214\n        /* \"#utility.yul\":10073:10076   */\n      dup6\n        /* \"#utility.yul\":10055:10077   */\n      tag_80\n      jump\t// in\n    tag_214:\n        /* \"#utility.yul\":10045:10053   */\n      dup4\n        /* \"#utility.yul\":10041:10078   */\n      add\n        /* \"#utility.yul\":10028:10039   */\n      dup3\n        /* \"#utility.yul\":9999:10079   */\n      tag_89\n      jump\t// in\n    tag_213:\n        /* \"#utility.yul\":9658:10089   */\n      pop\n      pop\n        /* \"#utility.yul\":9643:10089   */\n    tag_209:\n        /* \"#utility.yul\":9553:10096   */\n      pop\n      pop\n      pop\n      jump\t// out\n        /* \"#utility.yul\":10102:10219   */\n    tag_91:\n        /* \"#utility.yul\":10156:10164   */\n      0x00\n        /* \"#utility.yul\":10206:10211   */\n      dup3\n        /* \"#utility.yul\":10200:10204   */\n      dup3\n        /* \"#utility.yul\":10196:10212   */\n      shr\n        /* \"#utility.yul\":10175:10212   */\n      swap1\n      pop\n        /* \"#utility.yul\":10102:10219   */\n      swap3\n      swap2\n      pop\n      pop\n      jump\t// out\n        /* \"#utility.yul\":10225:10394   */\n    tag_92:\n        /* \"#utility.yul\":10269:10275   */\n      0x00\n        /* \"#utility.yul\":10302:10353   */\n      tag_217\n        /* \"#utility.yul\":10350:10351   */\n      0x00\n        /* \"#utility.yul\":10346:10352   */\n      not\n        /* \"#utility.yul\":10338:10343   */\n      dup5\n        /* \"#utility.yul\":10335:10336   */\n      0x08\n        /* \"#utility.yul\":10331:10344   */\n      mul\n        /* \"#utility.yul\":10302:10353   */\n      tag_91\n      jump\t// in\n    tag_217:\n        /* \"#utility.yul\":10298:10354   */\n      not\n        /* \"#utility.yul\":10383:10387   */\n      dup1\n        /* \"#utility.yul\":10377:10381   */\n      dup4\n        /* \"#utility.yul\":10373:10388   */\n      and\n        /* \"#utility.yul\":10363:10388   */\n      swap2\n      pop\n        /* \"#utility.yul\":10276:10394   */\n      pop\n        /* \"#utility.yul\":10225:10394   */\n      swap3\n      swap2\n      pop\n      pop\n      jump\t// out\n        /* \"#utility.yul\":10399:10694   */\n    tag_93:\n        /* \"#utility.yul\":10475:10479   */\n      0x00\n        /* \"#utility.yul\":10621:10650   */\n      tag_219\n        /* \"#utility.yul\":10646:10649   */\n      dup4\n        /* \"#utility.yul\":10640:10644   */\n      dup4\n        /* \"#utility.yul\":10621:10650   */\n      tag_92\n      jump\t// in\n    tag_219:\n        /* \"#utility.yul\":10613:10650   */\n      swap2\n      pop\n        /* \"#utility.yul\":10683:10686   */\n      dup3\n        /* \"#utility.yul\":10680:10681   */\n      0x02\n        /* \"#utility.yul\":10676:10687   */\n      mul\n        /* \"#utility.yul\":10670:10674   */\n      dup3\n        /* \"#utility.yul\":10667:10688   */\n      or\n        /* \"#utility.yul\":10659:10688   */\n      swap1\n      pop\n        /* \"#utility.yul\":10399:10694   */\n      swap3\n      swap2\n      pop\n      pop\n      jump\t// out\n        /* \"#utility.yul\":10699:12094   */\n    tag_37:\n        /* \"#utility.yul\":10816:10853   */\n      tag_221\n        /* \"#utility.yul\":10849:10852   */\n      dup3\n        /* \"#utility.yul\":10816:10853   */\n      tag_56\n      jump\t// in\n    tag_221:\n        /* \"#utility.yul\":10918:10936   */\n      0xffffffffffffffff\n        /* \"#utility.yul\":10910:10916   */\n      dup2\n        /* \"#utility.yul\":10907:10937   */\n      gt\n        /* \"#utility.yul\":10904:10960   */\n      iszero\n      tag_222\n      jumpi\n        /* \"#utility.yul\":10940:10958   */\n      tag_223\n      tag_67\n      jump\t// in\n    tag_223:\n        /* \"#utility.yul\":10904:10960   */\n    tag_222:\n        /* \"#utility.yul\":10984:11022   */\n      tag_224\n        /* \"#utility.yul\":11016:11020   */\n      dup3\n        /* \"#utility.yul\":11010:11021   */\n      sload\n        /* \"#utility.yul\":10984:11022   */\n      tag_27\n      jump\t// in\n    tag_224:\n        /* \"#utility.yul\":11069:11136   */\n      tag_225\n        /* \"#utility.yul\":11129:11135   */\n      dup3\n        /* \"#utility.yul\":11121:11127   */\n      dup3\n        /* \"#utility.yul\":11115:11119   */\n      dup6\n        /* \"#utility.yul\":11069:11136   */\n      tag_90\n      jump\t// in\n    tag_225:\n        /* \"#utility.yul\":11163:11164   */\n      0x00\n        /* \"#utility.yul\":11187:11191   */\n      0x20\n        /* \"#utility.yul\":11174:11191   */\n      swap1\n      pop\n        /* \"#utility.yul\":11219:11221   */\n      0x1f\n        /* \"#utility.yul\":11211:11217   */\n      dup4\n        /* \"#utility.yul\":11208:11222   */\n      gt\n        /* \"#utility.yul\":11236:11237   */\n      0x01\n        /* \"#utility.yul\":11231:11849   */\n      dup2\n      eq\n      tag_227\n      jumpi\n        /* \"#utility.yul\":11893:11894   */\n      0x00\n        /* \"#utility.yul\":11910:11916   */\n      dup5\n        /* \"#utility.yul\":11907:11984   */\n      iszero\n      tag_228\n      jumpi\n        /* \"#utility.yul\":11959:11968   */\n      dup3\n        /* \"#utility.yul\":11954:11957   */\n      dup8\n        /* \"#utility.yul\":11950:11969   */\n      add\n        /* \"#utility.yul\":11944:11970   */\n      mload\n        /* \"#utility.yul\":11935:11970   */\n      swap1\n      pop\n        /* \"#utility.yul\":11907:11984   */\n    tag_228:\n        /* \"#utility.yul\":12010:12077   */\n      tag_229\n        /* \"#utility.yul\":12070:12076   */\n      dup6\n        /* \"#utility.yul\":12063:12068   */\n      dup3\n        /* \"#utility.yul\":12010:12077   */\n      tag_93\n      jump\t// in\n    tag_229:\n        /* \"#utility.yul\":12004:12008   */\n      dup7\n        /* \"#utility.yul\":11997:12078   */\n      sstore\n        /* \"#utility.yul\":11866:12088   */\n      pop\n        /* \"#utility.yul\":11201:12088   */\n      jump(tag_226)\n        /* \"#utility.yul\":11231:11849   */\n    tag_227:\n        /* \"#utility.yul\":11283:11287   */\n      0x1f\n        /* \"#utility.yul\":11279:11288   */\n      not\n        /* \"#utility.yul\":11271:11277   */\n      dup5\n        /* \"#utility.yul\":11267:11289   */\n      and\n        /* \"#utility.yul\":11317:11354   */\n      tag_230\n        /* \"#utility.yul\":11349:11353   */\n      dup7\n        /* \"#utility.yul\":11317:11354   */\n      tag_79\n      jump\t// in\n    tag_230:\n        /* \"#utility.yul\":11376:11377   */\n      0x00\n        /* \"#utility.yul\":11390:11598   */\n    tag_231:\n        /* \"#utility.yul\":11404:11411   */\n      dup3\n        /* \"#utility.yul\":11401:11402   */\n      dup2\n        /* \"#utility.yul\":11398:11412   */\n      lt\n        /* \"#utility.yul\":11390:11598   */\n      iszero\n      tag_233\n      jumpi\n        /* \"#utility.yul\":11483:11492   */\n      dup5\n        /* \"#utility.yul\":11478:11481   */\n      dup10\n        /* \"#utility.yul\":11474:11493   */\n      add\n        /* \"#utility.yul\":11468:11494   */\n      mload\n        /* \"#utility.yul\":11460:11466   */\n      dup3\n        /* \"#utility.yul\":11453:11495   */\n      sstore\n        /* \"#utility.yul\":11534:11535   */\n      0x01\n        /* \"#utility.yul\":11526:11532   */\n      dup3\n        /* \"#utility.yul\":11522:11536   */\n      add\n        /* \"#utility.yul\":11512:11536   */\n      swap2\n      pop\n        /* \"#utility.yul\":11581:11583   */\n      0x20\n        /* \"#utility.yul\":11570:11579   */\n      dup6\n        /* \"#utility.yul\":11566:11584   */\n      add\n        /* \"#utility.yul\":11553:11584   */\n      swap5\n      pop\n        /* \"#utility.yul\":11427:11431   */\n      0x20\n        /* \"#utility.yul\":11424:11425   */\n      dup2\n        /* \"#utility.yul\":11420:11432   */\n      add\n        /* \"#utility.yul\":11415:11432   */\n      swap1\n      pop\n        /* \"#utility.yul\":11390:11598   */\n      jump(tag_231)\n    tag_233:\n        /* \"#utility.yul\":11626:11632   */\n      dup7\n        /* \"#utility.yul\":11617:11624   */\n      dup4\n        /* \"#utility.yul\":11614:11633   */\n      lt\n        /* \"#utility.yul\":11611:11790   */\n      iszero\n      tag_234\n      jumpi\n        /* \"#utility.yul\":11684:11693   */\n      dup5\n        /* \"#utility.yul\":11679:11682   */\n      dup10\n        /* \"#utility.yul\":11675:11694   */\n      add\n        /* \"#utility.yul\":11669:11695   */\n      mload\n        /* \"#utility.yul\":11727:11775   */\n      tag_235\n        /* \"#utility.yul\":11769:11773   */\n      0x1f\n        /* \"#utility.yul\":11761:11767   */\n      dup10\n        /* \"#utility.yul\":11757:11774   */\n      and\n        /* \"#utility.yul\":11746:11755   */\n      dup3\n        /* \"#utility.yul\":11727:11775   */\n      tag_92\n      jump\t// in\n    tag_235:\n        /* \"#utility.yul\":11719:11725   */\n      dup4\n        /* \"#utility.yul\":11712:11776   */\n      sstore\n        /* \"#utility.yul\":11634:11790   */\n      pop\n        /* \"#utility.yul\":11611:11790   */\n    tag_234:\n        /* \"#utility.yul\":11836:11837   */\n      0x01\n        /* \"#utility.yul\":11832:11833   */\n      0x02\n        /* \"#utility.yul\":11824:11830   */\n      dup9\n        /* \"#utility.yul\":11820:11834   */\n      mul\n        /* \"#utility.yul\":11816:11838   */\n      add\n        /* \"#utility.yul\":11810:11814   */\n      dup9\n        /* \"#utility.yul\":11803:11839   */\n      sstore\n        /* \"#utility.yul\":11238:11849   */\n      pop\n      pop\n      pop\n        /* \"#utility.yul\":11201:12088   */\n    tag_226:\n      pop\n        /* \"#utility.yul\":10791:12094   */\n      pop\n      pop\n      pop\n        /* \"#utility.yul\":10699:12094   */\n      pop\n      pop\n      jump\t// out\n        /* \"#utility.yul\":12100:12271   */\n    tag_94:\n        /* \"#utility.yul\":12240:12263   */\n      0x5573756172696f206e6f207265676973747261646f0000000000000000000000\n        /* \"#utility.yul\":12236:12237   */\n      0x00\n        /* \"#utility.yul\":12228:12234   */\n      dup3\n        /* \"#utility.yul\":12224:12238   */\n      add\n        /* \"#utility.yul\":12217:12264   */\n      mstore\n        /* \"#utility.yul\":12100:12271   */\n      pop\n      jump\t// out\n        /* \"#utility.yul\":12277:12643   */\n    tag_95:\n        /* \"#utility.yul\":12419:12422   */\n      0x00\n        /* \"#utility.yul\":12440:12507   */\n      tag_238\n        /* \"#utility.yul\":12504:12506   */\n      0x15\n        /* \"#utility.yul\":12499:12502   */\n      dup4\n        /* \"#utility.yul\":12440:12507   */\n      tag_57\n      jump\t// in\n    tag_238:\n        /* \"#utility.yul\":12433:12507   */\n      swap2\n      pop\n        /* \"#utility.yul\":12516:12609   */\n      tag_239\n        /* \"#utility.yul\":12605:12608   */\n      dup3\n        /* \"#utility.yul\":12516:12609   */\n      tag_94\n      jump\t// in\n    tag_239:\n        /* \"#utility.yul\":12634:12636   */\n      0x20\n        /* \"#utility.yul\":12629:12632   */\n      dup3\n        /* \"#utility.yul\":12625:12637   */\n      add\n        /* \"#utility.yul\":12618:12637   */\n      swap1\n      pop\n        /* \"#utility.yul\":12277:12643   */\n      swap2\n      swap1\n      pop\n      jump\t// out\n        /* \"#utility.yul\":12649:13068   */\n    tag_46:\n        /* \"#utility.yul\":12815:12819   */\n      0x00\n        /* \"#utility.yul\":12853:12855   */\n      0x20\n        /* \"#utility.yul\":12842:12851   */\n      dup3\n        /* \"#utility.yul\":12838:12856   */\n      add\n        /* \"#utility.yul\":12830:12856   */\n      swap1\n      pop\n        /* \"#utility.yul\":12902:12911   */\n      dup2\n        /* \"#utility.yul\":12896:12900   */\n      dup2\n        /* \"#utility.yul\":12892:12912   */\n      sub\n        /* \"#utility.yul\":12888:12889   */\n      0x00\n        /* \"#utility.yul\":12877:12886   */\n      dup4\n        /* \"#utility.yul\":12873:12890   */\n      add\n        /* \"#utility.yul\":12866:12913   */\n      mstore\n        /* \"#utility.yul\":12930:13061   */\n      tag_241\n        /* \"#utility.yul\":13056:13060   */\n      dup2\n        /* \"#utility.yul\":12930:13061   */\n      tag_95\n      jump\t// in\n    tag_241:\n        /* \"#utility.yul\":12922:13061   */\n      swap1\n      pop\n        /* \"#utility.yul\":12649:13068   */\n      swap2\n      swap1\n      pop\n      jump\t// out\n        /* \"#utility.yul\":13074:13254   */\n    tag_96:\n        /* \"#utility.yul\":13122:13199   */\n      0x4e487b7100000000000000000000000000000000000000000000000000000000\n        /* \"#utility.yul\":13119:13120   */\n      0x00\n        /* \"#utility.yul\":13112:13200   */\n      mstore\n        /* \"#utility.yul\":13219:13223   */\n      0x11\n        /* \"#utility.yul\":13216:13217   */\n      0x04\n        /* \"#utility.yul\":13209:13224   */\n      mstore\n        /* \"#utility.yul\":13243:13247   */\n      0x24\n        /* \"#utility.yul\":13240:13241   */\n      0x00\n        /* \"#utility.yul\":13233:13248   */\n      revert\n        /* \"#utility.yul\":13260:13451   */\n    tag_48:\n        /* \"#utility.yul\":13300:13303   */\n      0x00\n        /* \"#utility.yul\":13319:13339   */\n      tag_244\n        /* \"#utility.yul\":13337:13338   */\n      dup3\n        /* \"#utility.yul\":13319:13339   */\n      tag_61\n      jump\t// in\n    tag_244:\n        /* \"#utility.yul\":13314:13339   */\n      swap2\n      pop\n        /* \"#utility.yul\":13353:13373   */\n      tag_245\n        /* \"#utility.yul\":13371:13372   */\n      dup4\n        /* \"#utility.yul\":13353:13373   */\n      tag_61\n      jump\t// in\n    tag_245:\n        /* \"#utility.yul\":13348:13373   */\n      swap3\n      pop\n        /* \"#utility.yul\":13396:13397   */\n      dup3\n        /* \"#utility.yul\":13393:13394   */\n      dup3\n        /* \"#utility.yul\":13389:13398   */\n      add\n        /* \"#utility.yul\":13382:13398   */\n      swap1\n      pop\n        /* \"#utility.yul\":13417:13420   */\n      dup1\n        /* \"#utility.yul\":13414:13415   */\n      dup3\n        /* \"#utility.yul\":13411:13421   */\n      gt\n        /* \"#utility.yul\":13408:13444   */\n      iszero\n      tag_246\n      jumpi\n        /* \"#utility.yul\":13424:13442   */\n      tag_247\n      tag_96\n      jump\t// in\n    tag_247:\n        /* \"#utility.yul\":13408:13444   */\n    tag_246:\n        /* \"#utility.yul\":13260:13451   */\n      swap3\n      swap2\n      pop\n      pop\n      jump\t// out\n\n    auxdata: 0xa2646970667358221220693c372ef85b0351d24ef19e4dc4993e21630faa0201086572b638ff5ff664a564736f6c634300081c0033\n}\n",
				"bytecode": {
					"linkReferences": {},
					"object": "6080604052348015600e575f5ffd5b50610c3d8061001c5f395ff3fe608060405234801561000f575f5ffd5b506004361061004a575f3560e01c80636f77926b1461004e578063704f1b9414610080578063a87430ba1461009c578063ba7b37d4146100ce575b5f5ffd5b6100686004803603810190610063919061053a565b6100ea565b60405161007793929190610607565b60405180910390f35b61009a6004803603810190610095919061076f565b610207565b005b6100b660048036038101906100b1919061053a565b610330565b6040516100c593929190610607565b60405180910390f35b6100e860048036038101906100e391906107e0565b6103e7565b005b60605f5f5f5f5f8673ffffffffffffffffffffffffffffffffffffffff1673ffffffffffffffffffffffffffffffffffffffff1681526020019081526020015f206040518060600160405290815f8201805461014590610838565b80601f016020809104026020016040519081016040528092919081815260200182805461017190610838565b80156101bc5780601f10610193576101008083540402835291602001916101bc565b820191905f5260205f20905b81548152906001019060200180831161019f57829003601f168201915b5050505050815260200160018201548152602001600282015f9054906101000a900460ff1615151515815250509050805f015181602001518260400151935093509350509193909250565b5f5f3373ffffffffffffffffffffffffffffffffffffffff1673ffffffffffffffffffffffffffffffffffffffff1681526020019081526020015f206002015f9054906101000a900460ff1615610293576040517f08c379a000000000000000000000000000000000000000000000000000000000815260040161028a906108b2565b60405180910390fd5b60405180606001604052808281526020015f8152602001600115158152505f5f3373ffffffffffffffffffffffffffffffffffffffff1673ffffffffffffffffffffffffffffffffffffffff1681526020019081526020015f205f820151815f0190816103009190610a70565b50602082015181600101556040820151816002015f6101000a81548160ff02191690831515021790555090505050565b5f602052805f5260405f205f91509050805f01805461034e90610838565b80601f016020809104026020016040519081016040528092919081815260200182805461037a90610838565b80156103c55780601f1061039c576101008083540402835291602001916103c5565b820191905f5260205f20905b8154815290600101906020018083116103a857829003601f168201915b505050505090806001015490806002015f9054906101000a900460ff16905083565b5f5f3373ffffffffffffffffffffffffffffffffffffffff1673ffffffffffffffffffffffffffffffffffffffff1681526020019081526020015f206002015f9054906101000a900460ff16610472576040517f08c379a000000000000000000000000000000000000000000000000000000000815260040161046990610b89565b60405180910390fd5b5f5f5f3373ffffffffffffffffffffffffffffffffffffffff1673ffffffffffffffffffffffffffffffffffffffff1681526020019081526020015f20905081816001015f8282546104c49190610bd4565b925050819055505050565b5f604051905090565b5f5ffd5b5f5ffd5b5f73ffffffffffffffffffffffffffffffffffffffff82169050919050565b5f610509826104e0565b9050919050565b610519816104ff565b8114610523575f5ffd5b50565b5f8135905061053481610510565b92915050565b5f6020828403121561054f5761054e6104d8565b5b5f61055c84828501610526565b91505092915050565b5f81519050919050565b5f82825260208201905092915050565b8281835e5f83830152505050565b5f601f19601f8301169050919050565b5f6105a782610565565b6105b1818561056f565b93506105c181856020860161057f565b6105ca8161058d565b840191505092915050565b5f819050919050565b6105e7816105d5565b82525050565b5f8115159050919050565b610601816105ed565b82525050565b5f6060820190508181035f83015261061f818661059d565b905061062e60208301856105de565b61063b60408301846105f8565b949350505050565b5f5ffd5b5f5ffd5b7f4e487b71000000000000000000000000000000000000000000000000000000005f52604160045260245ffd5b6106818261058d565b810181811067ffffffffffffffff821117156106a05761069f61064b565b5b80604052505050565b5f6106b26104cf565b90506106be8282610678565b919050565b5f67ffffffffffffffff8211156106dd576106dc61064b565b5b6106e68261058d565b9050602081019050919050565b828183375f83830152505050565b5f61071361070e846106c3565b6106a9565b90508281526020810184848401111561072f5761072e610647565b5b61073a8482856106f3565b509392505050565b5f82601f83011261075657610755610643565b5b8135610766848260208601610701565b91505092915050565b5f60208284031215610784576107836104d8565b5b5f82013567ffffffffffffffff8111156107a1576107a06104dc565b5b6107ad84828501610742565b91505092915050565b6107bf816105d5565b81146107c9575f5ffd5b50565b5f813590506107da816107b6565b92915050565b5f602082840312156107f5576107f46104d8565b5b5f610802848285016107cc565b91505092915050565b7f4e487b71000000000000000000000000000000000000000000000000000000005f52602260045260245ffd5b5f600282049050600182168061084f57607f821691505b6020821081036108625761086161080b565b5b50919050565b7f5573756172696f207961207265676973747261646f00000000000000000000005f82015250565b5f61089c60158361056f565b91506108a782610868565b602082019050919050565b5f6020820190508181035f8301526108c981610890565b9050919050565b5f819050815f5260205f209050919050565b5f6020601f8301049050919050565b5f82821b905092915050565b5f6008830261092c7fffffffffffffffffffffffffffffffffffffffffffffffffffffffffffffffff826108f1565b61093686836108f1565b95508019841693508086168417925050509392505050565b5f819050919050565b5f61097161096c610967846105d5565b61094e565b6105d5565b9050919050565b5f819050919050565b61098a83610957565b61099e61099682610978565b8484546108fd565b825550505050565b5f5f905090565b6109b56109a6565b6109c0818484610981565b505050565b5b818110156109e3576109d85f826109ad565b6001810190506109c6565b5050565b601f821115610a28576109f9816108d0565b610a02846108e2565b81016020851015610a11578190505b610a25610a1d856108e2565b8301826109c5565b50505b505050565b5f82821c905092915050565b5f610a485f1984600802610a2d565b1980831691505092915050565b5f610a608383610a39565b9150826002028217905092915050565b610a7982610565565b67ffffffffffffffff811115610a9257610a9161064b565b5b610a9c8254610838565b610aa78282856109e7565b5f60209050601f831160018114610ad8575f8415610ac6578287015190505b610ad08582610a55565b865550610b37565b601f198416610ae6866108d0565b5f5b82811015610b0d57848901518255600182019150602085019450602081019050610ae8565b86831015610b2a5784890151610b26601f891682610a39565b8355505b6001600288020188555050505b505050505050565b7f5573756172696f206e6f207265676973747261646f00000000000000000000005f82015250565b5f610b7360158361056f565b9150610b7e82610b3f565b602082019050919050565b5f6020820190508181035f830152610ba081610b67565b9050919050565b7f4e487b71000000000000000000000000000000000000000000000000000000005f52601160045260245ffd5b5f610bde826105d5565b9150610be9836105d5565b9250828201905080821115610c0157610c00610ba7565b5b9291505056fea2646970667358221220693c372ef85b0351d24ef19e4dc4993e21630faa0201086572b638ff5ff664a564736f6c634300081c0033",
					"opcodes": "PUSH1 0x80 PUSH1 0x40 MSTORE CALLVALUE DUP1 ISZERO PUSH1 0xE JUMPI PUSH0 PUSH0 REVERT JUMPDEST POP PUSH2 0xC3D DUP1 PUSH2 0x1C PUSH0 CODECOPY PUSH0 RETURN INVALID PUSH1 0x80 PUSH1 0x40 MSTORE CALLVALUE DUP1 ISZERO PUSH2 0xF JUMPI PUSH0 PUSH0 REVERT JUMPDEST POP PUSH1 0x4 CALLDATASIZE LT PUSH2 0x4A JUMPI PUSH0 CALLDATALOAD PUSH1 0xE0 SHR DUP1 PUSH4 0x6F77926B EQ PUSH2 0x4E JUMPI DUP1 PUSH4 0x704F1B94 EQ PUSH2 0x80 JUMPI DUP1 PUSH4 0xA87430BA EQ PUSH2 0x9C JUMPI DUP1 PUSH4 0xBA7B37D4 EQ PUSH2 0xCE JUMPI JUMPDEST PUSH0 PUSH0 REVERT JUMPDEST PUSH2 0x68 PUSH1 0x4 DUP1 CALLDATASIZE SUB DUP2 ADD SWAP1 PUSH2 0x63 SWAP2 SWAP1 PUSH2 0x53A JUMP JUMPDEST PUSH2 0xEA JUMP JUMPDEST PUSH1 0x40 MLOAD PUSH2 0x77 SWAP4 SWAP3 SWAP2 SWAP1 PUSH2 0x607 JUMP JUMPDEST PUSH1 0x40 MLOAD DUP1 SWAP2 SUB SWAP1 RETURN JUMPDEST PUSH2 0x9A PUSH1 0x4 DUP1 CALLDATASIZE SUB DUP2 ADD SWAP1 PUSH2 0x95 SWAP2 SWAP1 PUSH2 0x76F JUMP JUMPDEST PUSH2 0x207 JUMP JUMPDEST STOP JUMPDEST PUSH2 0xB6 PUSH1 0x4 DUP1 CALLDATASIZE SUB DUP2 ADD SWAP1 PUSH2 0xB1 SWAP2 SWAP1 PUSH2 0x53A JUMP JUMPDEST PUSH2 0x330 JUMP JUMPDEST PUSH1 0x40 MLOAD PUSH2 0xC5 SWAP4 SWAP3 SWAP2 SWAP1 PUSH2 0x607 JUMP JUMPDEST PUSH1 0x40 MLOAD DUP1 SWAP2 SUB SWAP1 RETURN JUMPDEST PUSH2 0xE8 PUSH1 0x4 DUP1 CALLDATASIZE SUB DUP2 ADD SWAP1 PUSH2 0xE3 SWAP2 SWAP1 PUSH2 0x7E0 JUMP JUMPDEST PUSH2 0x3E7 JUMP JUMPDEST STOP JUMPDEST PUSH1 0x60 PUSH0 PUSH0 PUSH0 PUSH0 PUSH0 DUP7 PUSH20 0xFFFFFFFFFFFFFFFFFFFFFFFFFFFFFFFFFFFFFFFF AND PUSH20 0xFFFFFFFFFFFFFFFFFFFFFFFFFFFFFFFFFFFFFFFF AND DUP2 MSTORE PUSH1 0x20 ADD SWAP1 DUP2 MSTORE PUSH1 0x20 ADD PUSH0 KECCAK256 PUSH1 0x40 MLOAD DUP1 PUSH1 0x60 ADD PUSH1 0x40 MSTORE SWAP1 DUP2 PUSH0 DUP3 ADD DUP1 SLOAD PUSH2 0x145 SWAP1 PUSH2 0x838 JUMP JUMPDEST DUP1 PUSH1 0x1F ADD PUSH1 0x20 DUP1 SWAP2 DIV MUL PUSH1 0x20 ADD PUSH1 0x40 MLOAD SWAP1 DUP2 ADD PUSH1 0x40 MSTORE DUP1 SWAP3 SWAP2 SWAP1 DUP2 DUP2 MSTORE PUSH1 0x20 ADD DUP3 DUP1 SLOAD PUSH2 0x171 SWAP1 PUSH2 0x838 JUMP JUMPDEST DUP1 ISZERO PUSH2 0x1BC JUMPI DUP1 PUSH1 0x1F LT PUSH2 0x193 JUMPI PUSH2 0x100 DUP1 DUP4 SLOAD DIV MUL DUP4 MSTORE SWAP2 PUSH1 0x20 ADD SWAP2 PUSH2 0x1BC JUMP JUMPDEST DUP3 ADD SWAP2 SWAP1 PUSH0 MSTORE PUSH1 0x20 PUSH0 KECCAK256 SWAP1 JUMPDEST DUP2 SLOAD DUP2 MSTORE SWAP1 PUSH1 0x1 ADD SWAP1 PUSH1 0x20 ADD DUP1 DUP4 GT PUSH2 0x19F JUMPI DUP3 SWAP1 SUB PUSH1 0x1F AND DUP3 ADD SWAP2 JUMPDEST POP POP POP POP POP DUP2 MSTORE PUSH1 0x20 ADD PUSH1 0x1 DUP3 ADD SLOAD DUP2 MSTORE PUSH1 0x20 ADD PUSH1 0x2 DUP3 ADD PUSH0 SWAP1 SLOAD SWAP1 PUSH2 0x100 EXP SWAP1 DIV PUSH1 0xFF AND ISZERO ISZERO ISZERO ISZERO DUP2 MSTORE POP POP SWAP1 POP DUP1 PUSH0 ADD MLOAD DUP2 PUSH1 0x20 ADD MLOAD DUP3 PUSH1 0x40 ADD MLOAD SWAP4 POP SWAP4 POP SWAP4 POP POP SWAP2 SWAP4 SWAP1 SWAP3 POP JUMP JUMPDEST PUSH0 PUSH0 CALLER PUSH20 0xFFFFFFFFFFFFFFFFFFFFFFFFFFFFFFFFFFFFFFFF AND PUSH20 0xFFFFFFFFFFFFFFFFFFFFFFFFFFFFFFFFFFFFFFFF AND DUP2 MSTORE PUSH1 0x20 ADD SWAP1 DUP2 MSTORE PUSH1 0x20 ADD PUSH0 KECCAK256 PUSH1 0x2 ADD PUSH0 SWAP1 SLOAD SWAP1 PUSH2 0x100 EXP SWAP1 DIV PUSH1 0xFF AND ISZERO PUSH2 0x293 JUMPI PUSH1 0x40 MLOAD PUSH32 0x8C379A000000000000000000000000000000000000000000000000000000000 DUP2 MSTORE PUSH1 0x4 ADD PUSH2 0x28A SWAP1 PUSH2 0x8B2 JUMP JUMPDEST PUSH1 0x40 MLOAD DUP1 SWAP2 SUB SWAP1 REVERT JUMPDEST PUSH1 0x40 MLOAD DUP1 PUSH1 0x60 ADD PUSH1 0x40 MSTORE DUP1 DUP3 DUP2 MSTORE PUSH1 0x20 ADD PUSH0 DUP2 MSTORE PUSH1 0x20 ADD PUSH1 0x1 ISZERO ISZERO DUP2 MSTORE POP PUSH0 PUSH0 CALLER PUSH20 0xFFFFFFFFFFFFFFFFFFFFFFFFFFFFFFFFFFFFFFFF AND PUSH20 0xFFFFFFFFFFFFFFFFFFFFFFFFFFFFFFFFFFFFFFFF AND DUP2 MSTORE PUSH1 0x20 ADD SWAP1 DUP2 MSTORE PUSH1 0x20 ADD PUSH0 KECCAK256 PUSH0 DUP3 ADD MLOAD DUP2 PUSH0 ADD SWAP1 DUP2 PUSH2 0x300 SWAP2 SWAP1 PUSH2 0xA70 JUMP JUMPDEST POP PUSH1 0x20 DUP3 ADD MLOAD DUP2 PUSH1 0x1 ADD SSTORE PUSH1 0x40 DUP3 ADD MLOAD DUP2 PUSH1 0x2 ADD PUSH0 PUSH2 0x100 EXP DUP2 SLOAD DUP2 PUSH1 0xFF MUL NOT AND SWAP1 DUP4 ISZERO ISZERO MUL OR SWAP1 SSTORE POP SWAP1 POP POP POP JUMP JUMPDEST PUSH0 PUSH1 0x20 MSTORE DUP1 PUSH0 MSTORE PUSH1 0x40 PUSH0 KECCAK256 PUSH0 SWAP2 POP SWAP1 POP DUP1 PUSH0 ADD DUP1 SLOAD PUSH2 0x34E SWAP1 PUSH2 0x838 JUMP JUMPDEST DUP1 PUSH1 0x1F ADD PUSH1 0x20 DUP1 SWAP2 DIV MUL PUSH1 0x20 ADD PUSH1 0x40 MLOAD SWAP1 DUP2 ADD PUSH1 0x40 MSTORE DUP1 SWAP3 SWAP2 SWAP1 DUP2 DUP2 MSTORE PUSH1 0x20 ADD DUP3 DUP1 SLOAD PUSH2 0x37A SWAP1 PUSH2 0x838 JUMP JUMPDEST DUP1 ISZERO PUSH2 0x3C5 JUMPI DUP1 PUSH1 0x1F LT PUSH2 0x39C JUMPI PUSH2 0x100 DUP1 DUP4 SLOAD DIV MUL DUP4 MSTORE SWAP2 PUSH1 0x20 ADD SWAP2 PUSH2 0x3C5 JUMP JUMPDEST DUP3 ADD SWAP2 SWAP1 PUSH0 MSTORE PUSH1 0x20 PUSH0 KECCAK256 SWAP1 JUMPDEST DUP2 SLOAD DUP2 MSTORE SWAP1 PUSH1 0x1 ADD SWAP1 PUSH1 0x20 ADD DUP1 DUP4 GT PUSH2 0x3A8 JUMPI DUP3 SWAP1 SUB PUSH1 0x1F AND DUP3 ADD SWAP2 JUMPDEST POP POP POP POP POP SWAP1 DUP1 PUSH1 0x1 ADD SLOAD SWAP1 DUP1 PUSH1 0x2 ADD PUSH0 SWAP1 SLOAD SWAP1 PUSH2 0x100 EXP SWAP1 DIV PUSH1 0xFF AND SWAP1 POP DUP4 JUMP JUMPDEST PUSH0 PUSH0 CALLER PUSH20 0xFFFFFFFFFFFFFFFFFFFFFFFFFFFFFFFFFFFFFFFF AND PUSH20 0xFFFFFFFFFFFFFFFFFFFFFFFFFFFFFFFFFFFFFFFF AND DUP2 MSTORE PUSH1 0x20 ADD SWAP1 DUP2 MSTORE PUSH1 0x20 ADD PUSH0 KECCAK256 PUSH1 0x2 ADD PUSH0 SWAP1 SLOAD SWAP1 PUSH2 0x100 EXP SWAP1 DIV PUSH1 0xFF AND PUSH2 0x472 JUMPI PUSH1 0x40 MLOAD PUSH32 0x8C379A000000000000000000000000000000000000000000000000000000000 DUP2 MSTORE PUSH1 0x4 ADD PUSH2 0x469 SWAP1 PUSH2 0xB89 JUMP JUMPDEST PUSH1 0x40 MLOAD DUP1 SWAP2 SUB SWAP1 REVERT JUMPDEST PUSH0 PUSH0 PUSH0 CALLER PUSH20 0xFFFFFFFFFFFFFFFFFFFFFFFFFFFFFFFFFFFFFFFF AND PUSH20 0xFFFFFFFFFFFFFFFFFFFFFFFFFFFFFFFFFFFFFFFF AND DUP2 MSTORE PUSH1 0x20 ADD SWAP1 DUP2 MSTORE PUSH1 0x20 ADD PUSH0 KECCAK256 SWAP1 POP DUP2 DUP2 PUSH1 0x1 ADD PUSH0 DUP3 DUP3 SLOAD PUSH2 0x4C4 SWAP2 SWAP1 PUSH2 0xBD4 JUMP JUMPDEST SWAP3 POP POP DUP2 SWAP1 SSTORE POP POP POP JUMP JUMPDEST PUSH0 PUSH1 0x40 MLOAD SWAP1 POP SWAP1 JUMP JUMPDEST PUSH0 PUSH0 REVERT JUMPDEST PUSH0 PUSH0 REVERT JUMPDEST PUSH0 PUSH20 0xFFFFFFFFFFFFFFFFFFFFFFFFFFFFFFFFFFFFFFFF DUP3 AND SWAP1 POP SWAP2 SWAP1 POP JUMP JUMPDEST PUSH0 PUSH2 0x509 DUP3 PUSH2 0x4E0 JUMP JUMPDEST SWAP1 POP SWAP2 SWAP1 POP JUMP JUMPDEST PUSH2 0x519 DUP2 PUSH2 0x4FF JUMP JUMPDEST DUP2 EQ PUSH2 0x523 JUMPI PUSH0 PUSH0 REVERT JUMPDEST POP JUMP JUMPDEST PUSH0 DUP2 CALLDATALOAD SWAP1 POP PUSH2 0x534 DUP2 PUSH2 0x510 JUMP JUMPDEST SWAP3 SWAP2 POP POP JUMP JUMPDEST PUSH0 PUSH1 0x20 DUP3 DUP5 SUB SLT ISZERO PUSH2 0x54F JUMPI PUSH2 0x54E PUSH2 0x4D8 JUMP JUMPDEST JUMPDEST PUSH0 PUSH2 0x55C DUP5 DUP3 DUP6 ADD PUSH2 0x526 JUMP JUMPDEST SWAP2 POP POP SWAP3 SWAP2 POP POP JUMP JUMPDEST PUSH0 DUP2 MLOAD SWAP1 POP SWAP2 SWAP1 POP JUMP JUMPDEST PUSH0 DUP3 DUP3 MSTORE PUSH1 0x20 DUP3 ADD SWAP1 POP SWAP3 SWAP2 POP POP JUMP JUMPDEST DUP3 DUP2 DUP4 MCOPY PUSH0 DUP4 DUP4 ADD MSTORE POP POP POP JUMP JUMPDEST PUSH0 PUSH1 0x1F NOT PUSH1 0x1F DUP4 ADD AND SWAP1 POP SWAP2 SWAP1 POP JUMP JUMPDEST PUSH0 PUSH2 0x5A7 DUP3 PUSH2 0x565 JUMP JUMPDEST PUSH2 0x5B1 DUP2 DUP6 PUSH2 0x56F JUMP JUMPDEST SWAP4 POP PUSH2 0x5C1 DUP2 DUP6 PUSH1 0x20 DUP7 ADD PUSH2 0x57F JUMP JUMPDEST PUSH2 0x5CA DUP2 PUSH2 0x58D JUMP JUMPDEST DUP5 ADD SWAP2 POP POP SWAP3 SWAP2 POP POP JUMP JUMPDEST PUSH0 DUP2 SWAP1 POP SWAP2 SWAP1 POP JUMP JUMPDEST PUSH2 0x5E7 DUP2 PUSH2 0x5D5 JUMP JUMPDEST DUP3 MSTORE POP POP JUMP JUMPDEST PUSH0 DUP2 ISZERO ISZERO SWAP1 POP SWAP2 SWAP1 POP JUMP JUMPDEST PUSH2 0x601 DUP2 PUSH2 0x5ED JUMP JUMPDEST DUP3 MSTORE POP POP JUMP JUMPDEST PUSH0 PUSH1 0x60 DUP3 ADD SWAP1 POP DUP2 DUP2 SUB PUSH0 DUP4 ADD MSTORE PUSH2 0x61F DUP2 DUP7 PUSH2 0x59D JUMP JUMPDEST SWAP1 POP PUSH2 0x62E PUSH1 0x20 DUP4 ADD DUP6 PUSH2 0x5DE JUMP JUMPDEST PUSH2 0x63B PUSH1 0x40 DUP4 ADD DUP5 PUSH2 0x5F8 JUMP JUMPDEST SWAP5 SWAP4 POP POP POP POP JUMP JUMPDEST PUSH0 PUSH0 REVERT JUMPDEST PUSH0 PUSH0 REVERT JUMPDEST PUSH32 0x4E487B7100000000000000000000000000000000000000000000000000000000 PUSH0 MSTORE PUSH1 0x41 PUSH1 0x4 MSTORE PUSH1 0x24 PUSH0 REVERT JUMPDEST PUSH2 0x681 DUP3 PUSH2 0x58D JUMP JUMPDEST DUP2 ADD DUP2 DUP2 LT PUSH8 0xFFFFFFFFFFFFFFFF DUP3 GT OR ISZERO PUSH2 0x6A0 JUMPI PUSH2 0x69F PUSH2 0x64B JUMP JUMPDEST JUMPDEST DUP1 PUSH1 0x40 MSTORE POP POP POP JUMP JUMPDEST PUSH0 PUSH2 0x6B2 PUSH2 0x4CF JUMP JUMPDEST SWAP1 POP PUSH2 0x6BE DUP3 DUP3 PUSH2 0x678 JUMP JUMPDEST SWAP2 SWAP1 POP JUMP JUMPDEST PUSH0 PUSH8 0xFFFFFFFFFFFFFFFF DUP3 GT ISZERO PUSH2 0x6DD JUMPI PUSH2 0x6DC PUSH2 0x64B JUMP JUMPDEST JUMPDEST PUSH2 0x6E6 DUP3 PUSH2 0x58D JUMP JUMPDEST SWAP1 POP PUSH1 0x20 DUP2 ADD SWAP1 POP SWAP2 SWAP1 POP JUMP JUMPDEST DUP3 DUP2 DUP4 CALLDATACOPY PUSH0 DUP4 DUP4 ADD MSTORE POP POP POP JUMP JUMPDEST PUSH0 PUSH2 0x713 PUSH2 0x70E DUP5 PUSH2 0x6C3 JUMP JUMPDEST PUSH2 0x6A9 JUMP JUMPDEST SWAP1 POP DUP3 DUP2 MSTORE PUSH1 0x20 DUP2 ADD DUP5 DUP5 DUP5 ADD GT ISZERO PUSH2 0x72F JUMPI PUSH2 0x72E PUSH2 0x647 JUMP JUMPDEST JUMPDEST PUSH2 0x73A DUP5 DUP3 DUP6 PUSH2 0x6F3 JUMP JUMPDEST POP SWAP4 SWAP3 POP POP POP JUMP JUMPDEST PUSH0 DUP3 PUSH1 0x1F DUP4 ADD SLT PUSH2 0x756 JUMPI PUSH2 0x755 PUSH2 0x643 JUMP JUMPDEST JUMPDEST DUP2 CALLDATALOAD PUSH2 0x766 DUP5 DUP3 PUSH1 0x20 DUP7 ADD PUSH2 0x701 JUMP JUMPDEST SWAP2 POP POP SWAP3 SWAP2 POP POP JUMP JUMPDEST PUSH0 PUSH1 0x20 DUP3 DUP5 SUB SLT ISZERO PUSH2 0x784 JUMPI PUSH2 0x783 PUSH2 0x4D8 JUMP JUMPDEST JUMPDEST PUSH0 DUP3 ADD CALLDATALOAD PUSH8 0xFFFFFFFFFFFFFFFF DUP2 GT ISZERO PUSH2 0x7A1 JUMPI PUSH2 0x7A0 PUSH2 0x4DC JUMP JUMPDEST JUMPDEST PUSH2 0x7AD DUP5 DUP3 DUP6 ADD PUSH2 0x742 JUMP JUMPDEST SWAP2 POP POP SWAP3 SWAP2 POP POP JUMP JUMPDEST PUSH2 0x7BF DUP2 PUSH2 0x5D5 JUMP JUMPDEST DUP2 EQ PUSH2 0x7C9 JUMPI PUSH0 PUSH0 REVERT JUMPDEST POP JUMP JUMPDEST PUSH0 DUP2 CALLDATALOAD SWAP1 POP PUSH2 0x7DA DUP2 PUSH2 0x7B6 JUMP JUMPDEST SWAP3 SWAP2 POP POP JUMP JUMPDEST PUSH0 PUSH1 0x20 DUP3 DUP5 SUB SLT ISZERO PUSH2 0x7F5 JUMPI PUSH2 0x7F4 PUSH2 0x4D8 JUMP JUMPDEST JUMPDEST PUSH0 PUSH2 0x802 DUP5 DUP3 DUP6 ADD PUSH2 0x7CC JUMP JUMPDEST SWAP2 POP POP SWAP3 SWAP2 POP POP JUMP JUMPDEST PUSH32 0x4E487B7100000000000000000000000000000000000000000000000000000000 PUSH0 MSTORE PUSH1 0x22 PUSH1 0x4 MSTORE PUSH1 0x24 PUSH0 REVERT JUMPDEST PUSH0 PUSH1 0x2 DUP3 DIV SWAP1 POP PUSH1 0x1 DUP3 AND DUP1 PUSH2 0x84F JUMPI PUSH1 0x7F DUP3 AND SWAP2 POP JUMPDEST PUSH1 0x20 DUP3 LT DUP2 SUB PUSH2 0x862 JUMPI PUSH2 0x861 PUSH2 0x80B JUMP JUMPDEST JUMPDEST POP SWAP2 SWAP1 POP JUMP JUMPDEST PUSH32 0x5573756172696F207961207265676973747261646F0000000000000000000000 PUSH0 DUP3 ADD MSTORE POP JUMP JUMPDEST PUSH0 PUSH2 0x89C PUSH1 0x15 DUP4 PUSH2 0x56F JUMP JUMPDEST SWAP2 POP PUSH2 0x8A7 DUP3 PUSH2 0x868 JUMP JUMPDEST PUSH1 0x20 DUP3 ADD SWAP1 POP SWAP2 SWAP1 POP JUMP JUMPDEST PUSH0 PUSH1 0x20 DUP3 ADD SWAP1 POP DUP2 DUP2 SUB PUSH0 DUP4 ADD MSTORE PUSH2 0x8C9 DUP2 PUSH2 0x890 JUMP JUMPDEST SWAP1 POP SWAP2 SWAP1 POP JUMP JUMPDEST PUSH0 DUP2 SWAP1 POP DUP2 PUSH0 MSTORE PUSH1 0x20 PUSH0 KECCAK256 SWAP1 POP SWAP2 SWAP1 POP JUMP JUMPDEST PUSH0 PUSH1 0x20 PUSH1 0x1F DUP4 ADD DIV SWAP1 POP SWAP2 SWAP1 POP JUMP JUMPDEST PUSH0 DUP3 DUP3 SHL SWAP1 POP SWAP3 SWAP2 POP POP JUMP JUMPDEST PUSH0 PUSH1 0x8 DUP4 MUL PUSH2 0x92C PUSH32 0xFFFFFFFFFFFFFFFFFFFFFFFFFFFFFFFFFFFFFFFFFFFFFFFFFFFFFFFFFFFFFFFF DUP3 PUSH2 0x8F1 JUMP JUMPDEST PUSH2 0x936 DUP7 DUP4 PUSH2 0x8F1 JUMP JUMPDEST SWAP6 POP DUP1 NOT DUP5 AND SWAP4 POP DUP1 DUP7 AND DUP5 OR SWAP3 POP POP POP SWAP4 SWAP3 POP POP POP JUMP JUMPDEST PUSH0 DUP2 SWAP1 POP SWAP2 SWAP1 POP JUMP JUMPDEST PUSH0 PUSH2 0x971 PUSH2 0x96C PUSH2 0x967 DUP5 PUSH2 0x5D5 JUMP JUMPDEST PUSH2 0x94E JUMP JUMPDEST PUSH2 0x5D5 JUMP JUMPDEST SWAP1 POP SWAP2 SWAP1 POP JUMP JUMPDEST PUSH0 DUP2 SWAP1 POP SWAP2 SWAP1 POP JUMP JUMPDEST PUSH2 0x98A DUP4 PUSH2 0x957 JUMP JUMPDEST PUSH2 0x99E PUSH2 0x996 DUP3 PUSH2 0x978 JUMP JUMPDEST DUP5 DUP5 SLOAD PUSH2 0x8FD JUMP JUMPDEST DUP3 SSTORE POP POP POP POP JUMP JUMPDEST PUSH0 PUSH0 SWAP1 POP SWAP1 JUMP JUMPDEST PUSH2 0x9B5 PUSH2 0x9A6 JUMP JUMPDEST PUSH2 0x9C0 DUP2 DUP5 DUP5 PUSH2 0x981 JUMP JUMPDEST POP POP POP JUMP JUMPDEST JUMPDEST DUP2 DUP2 LT ISZERO PUSH2 0x9E3 JUMPI PUSH2 0x9D8 PUSH0 DUP3 PUSH2 0x9AD JUMP JUMPDEST PUSH1 0x1 DUP2 ADD SWAP1 POP PUSH2 0x9C6 JUMP JUMPDEST POP POP JUMP JUMPDEST PUSH1 0x1F DUP3 GT ISZERO PUSH2 0xA28 JUMPI PUSH2 0x9F9 DUP2 PUSH2 0x8D0 JUMP JUMPDEST PUSH2 0xA02 DUP5 PUSH2 0x8E2 JUMP JUMPDEST DUP2 ADD PUSH1 0x20 DUP6 LT ISZERO PUSH2 0xA11 JUMPI DUP2 SWAP1 POP JUMPDEST PUSH2 0xA25 PUSH2 0xA1D DUP6 PUSH2 0x8E2 JUMP JUMPDEST DUP4 ADD DUP3 PUSH2 0x9C5 JUMP JUMPDEST POP POP JUMPDEST POP POP POP JUMP JUMPDEST PUSH0 DUP3 DUP3 SHR SWAP1 POP SWAP3 SWAP2 POP POP JUMP JUMPDEST PUSH0 PUSH2 0xA48 PUSH0 NOT DUP5 PUSH1 0x8 MUL PUSH2 0xA2D JUMP JUMPDEST NOT DUP1 DUP4 AND SWAP2 POP POP SWAP3 SWAP2 POP POP JUMP JUMPDEST PUSH0 PUSH2 0xA60 DUP4 DUP4 PUSH2 0xA39 JUMP JUMPDEST SWAP2 POP DUP3 PUSH1 0x2 MUL DUP3 OR SWAP1 POP SWAP3 SWAP2 POP POP JUMP JUMPDEST PUSH2 0xA79 DUP3 PUSH2 0x565 JUMP JUMPDEST PUSH8 0xFFFFFFFFFFFFFFFF DUP2 GT ISZERO PUSH2 0xA92 JUMPI PUSH2 0xA91 PUSH2 0x64B JUMP JUMPDEST JUMPDEST PUSH2 0xA9C DUP3 SLOAD PUSH2 0x838 JUMP JUMPDEST PUSH2 0xAA7 DUP3 DUP3 DUP6 PUSH2 0x9E7 JUMP JUMPDEST PUSH0 PUSH1 0x20 SWAP1 POP PUSH1 0x1F DUP4 GT PUSH1 0x1 DUP2 EQ PUSH2 0xAD8 JUMPI PUSH0 DUP5 ISZERO PUSH2 0xAC6 JUMPI DUP3 DUP8 ADD MLOAD SWAP1 POP JUMPDEST PUSH2 0xAD0 DUP6 DUP3 PUSH2 0xA55 JUMP JUMPDEST DUP7 SSTORE POP PUSH2 0xB37 JUMP JUMPDEST PUSH1 0x1F NOT DUP5 AND PUSH2 0xAE6 DUP7 PUSH2 0x8D0 JUMP JUMPDEST PUSH0 JUMPDEST DUP3 DUP2 LT ISZERO PUSH2 0xB0D JUMPI DUP5 DUP10 ADD MLOAD DUP3 SSTORE PUSH1 0x1 DUP3 ADD SWAP2 POP PUSH1 0x20 DUP6 ADD SWAP5 POP PUSH1 0x20 DUP2 ADD SWAP1 POP PUSH2 0xAE8 JUMP JUMPDEST DUP7 DUP4 LT ISZERO PUSH2 0xB2A JUMPI DUP5 DUP10 ADD MLOAD PUSH2 0xB26 PUSH1 0x1F DUP10 AND DUP3 PUSH2 0xA39 JUMP JUMPDEST DUP4 SSTORE POP JUMPDEST PUSH1 0x1 PUSH1 0x2 DUP9 MUL ADD DUP9 SSTORE POP POP POP JUMPDEST POP POP POP POP POP POP JUMP JUMPDEST PUSH32 0x5573756172696F206E6F207265676973747261646F0000000000000000000000 PUSH0 DUP3 ADD MSTORE POP JUMP JUMPDEST PUSH0 PUSH2 0xB73 PUSH1 0x15 DUP4 PUSH2 0x56F JUMP JUMPDEST SWAP2 POP PUSH2 0xB7E DUP3 PUSH2 0xB3F JUMP JUMPDEST PUSH1 0x20 DUP3 ADD SWAP1 POP SWAP2 SWAP1 POP JUMP JUMPDEST PUSH0 PUSH1 0x20 DUP3 ADD SWAP1 POP DUP2 DUP2 SUB PUSH0 DUP4 ADD MSTORE PUSH2 0xBA0 DUP2 PUSH2 0xB67 JUMP JUMPDEST SWAP1 POP SWAP2 SWAP1 POP JUMP JUMPDEST PUSH32 0x4E487B7100000000000000000000000000000000000000000000000000000000 PUSH0 MSTORE PUSH1 0x11 PUSH1 0x4 MSTORE PUSH1 0x24 PUSH0 REVERT JUMPDEST PUSH0 PUSH2 0xBDE DUP3 PUSH2 0x5D5 JUMP JUMPDEST SWAP2 POP PUSH2 0xBE9 DUP4 PUSH2 0x5D5 JUMP JUMPDEST SWAP3 POP DUP3 DUP3 ADD SWAP1 POP DUP1 DUP3 GT ISZERO PUSH2 0xC01 JUMPI PUSH2 0xC00 PUSH2 0xBA7 JUMP JUMPDEST JUMPDEST SWAP3 SWAP2 POP POP JUMP INVALID LOG2 PUSH5 0x6970667358 0x22 SLT KECCAK256 PUSH10 0x3C372EF85B0351D24EF1 SWAP15 0x4D 0xC4 SWAP10 RETURNDATACOPY 0x21 PUSH4 0xFAA0201 ADDMOD PUSH6 0x72B638FF5FF6 PUSH5 0xA564736F6C PUSH4 0x4300081C STOP CALLER "
				},
				"gasEstimates": {
					"creation": {
						"codeDepositCost": "626600",
						"executionCost": "655",
						"totalCost": "627255"
					},
					"external": {
						"getUser(address)": "infinite",
						"registerUser(string)": "infinite",
						"updateBalance(uint256)": "infinite",
						"users(address)": "infinite"
					}
				},
				"methodIdentifiers": {
					"getUser(address)": "6f77926b",
					"registerUser(string)": "704f1b94",
					"updateBalance(uint256)": "ba7b37d4",
					"users(address)": "a87430ba"
				}
			},
			"storageLayout": {
				"storage": [
					{
						"astId": 13,
						"contract": "ETH - Henry/contracts/register/Register13_2.sol:AdvancedMapping",
						"label": "users",
						"offset": 0,
						"slot": "0",
						"type": "t_mapping(t_address,t_struct(User)8_storage)"
					}
				],
				"types": {
					"t_address": {
						"encoding": "inplace",
						"label": "address",
						"numberOfBytes": "20"
					},
					"t_bool": {
						"encoding": "inplace",
						"label": "bool",
						"numberOfBytes": "1"
					},
					"t_mapping(t_address,t_struct(User)8_storage)": {
						"encoding": "mapping",
						"key": "t_address",
						"label": "mapping(address => struct AdvancedMapping.User)",
						"numberOfBytes": "32",
						"value": "t_struct(User)8_storage"
					},
					"t_string_storage": {
						"encoding": "bytes",
						"label": "string",
						"numberOfBytes": "32"
					},
					"t_struct(User)8_storage": {
						"encoding": "inplace",
						"label": "struct AdvancedMapping.User",
						"members": [
							{
								"astId": 3,
								"contract": "ETH - Henry/contracts/register/Register13_2.sol:AdvancedMapping",
								"label": "name",
								"offset": 0,
								"slot": "0",
								"type": "t_string_storage"
							},
							{
								"astId": 5,
								"contract": "ETH - Henry/contracts/register/Register13_2.sol:AdvancedMapping",
								"label": "balance",
								"offset": 0,
								"slot": "1",
								"type": "t_uint256"
							},
							{
								"astId": 7,
								"contract": "ETH - Henry/contracts/register/Register13_2.sol:AdvancedMapping",
								"label": "isClient",
								"offset": 0,
								"slot": "2",
								"type": "t_bool"
							}
						],
						"numberOfBytes": "96"
					},
					"t_uint256": {
						"encoding": "inplace",
						"label": "uint256",
						"numberOfBytes": "32"
					}
				}
			},
			"userdoc": {
				"kind": "user",
				"methods": {},
				"version": 1
			}
		}
	}
}