{
	"ETH - Henry/contracts/register/Register15-All.sol": {
		"Register15": {
			"abi": [
				{
					"inputs": [],
					"stateMutability": "nonpayable",
					"type": "constructor"
				},
				{
					"anonymous": false,
					"inputs": [
						{
							"indexed": false,
							"internalType": "address",
							"name": "person",
							"type": "address"
						},
						{
							"indexed": false,
							"internalType": "uint256",
							"name": "countChanges",
							"type": "uint256"
						},
						{
							"indexed": false,
							"internalType": "string",
							"name": "oldInfo",
							"type": "string"
						},
						{
							"indexed": false,
							"internalType": "string",
							"name": "newInfo",
							"type": "string"
						}
					],
					"name": "InfoChange",
					"type": "event"
				},
				{
					"inputs": [
						{
							"internalType": "enum Register15.Colors",
							"name": "myColor",
							"type": "uint8"
						},
						{
							"internalType": "string",
							"name": "myInfo",
							"type": "string"
						}
					],
					"name": "addInfo",
					"outputs": [
						{
							"internalType": "uint256",
							"name": "index",
							"type": "uint256"
						}
					],
					"stateMutability": "nonpayable",
					"type": "function"
				},
				{
					"inputs": [
						{
							"internalType": "uint256",
							"name": "index",
							"type": "uint256"
						}
					],
					"name": "getMyInfoAtIndex",
					"outputs": [
						{
							"components": [
								{
									"internalType": "string",
									"name": "info",
									"type": "string"
								},
								{
									"internalType": "enum Register15.Colors",
									"name": "color",
									"type": "uint8"
								},
								{
									"internalType": "uint256",
									"name": "countChanges",
									"type": "uint256"
								}
							],
							"internalType": "struct Register15.InfoStruct",
							"name": "",
							"type": "tuple"
						}
					],
					"stateMutability": "view",
					"type": "function"
				},
				{
					"inputs": [
						{
							"internalType": "address",
							"name": "account",
							"type": "address"
						},
						{
							"internalType": "uint256",
							"name": "index",
							"type": "uint256"
						}
					],
					"name": "getOneInfo",
					"outputs": [
						{
							"components": [
								{
									"internalType": "string",
									"name": "info",
									"type": "string"
								},
								{
									"internalType": "enum Register15.Colors",
									"name": "color",
									"type": "uint8"
								},
								{
									"internalType": "uint256",
									"name": "countChanges",
									"type": "uint256"
								}
							],
							"internalType": "struct Register15.InfoStruct",
							"name": "",
							"type": "tuple"
						}
					],
					"stateMutability": "view",
					"type": "function"
				},
				{
					"inputs": [
						{
							"internalType": "address",
							"name": "account",
							"type": "address"
						}
					],
					"name": "listAllInfo",
					"outputs": [
						{
							"components": [
								{
									"internalType": "string",
									"name": "info",
									"type": "string"
								},
								{
									"internalType": "enum Register15.Colors",
									"name": "color",
									"type": "uint8"
								},
								{
									"internalType": "uint256",
									"name": "countChanges",
									"type": "uint256"
								}
							],
							"internalType": "struct Register15.InfoStruct[]",
							"name": "",
							"type": "tuple[]"
						}
					],
					"stateMutability": "view",
					"type": "function"
				},
				{
					"inputs": [
						{
							"internalType": "uint256",
							"name": "index",
							"type": "uint256"
						},
						{
							"internalType": "enum Register15.Colors",
							"name": "myColor",
							"type": "uint8"
						}
					],
					"name": "setColor",
					"outputs": [],
					"stateMutability": "nonpayable",
					"type": "function"
				},
				{
					"inputs": [
						{
							"internalType": "uint256",
							"name": "index",
							"type": "uint256"
						},
						{
							"internalType": "string",
							"name": "newInfo",
							"type": "string"
						}
					],
					"name": "setInfo",
					"outputs": [],
					"stateMutability": "nonpayable",
					"type": "function"
				},
				{
					"inputs": [
						{
							"internalType": "address",
							"name": "",
							"type": "address"
						},
						{
							"internalType": "uint256",
							"name": "",
							"type": "uint256"
						}
					],
					"name": "storedInfos",
					"outputs": [
						{
							"internalType": "string",
							"name": "info",
							"type": "string"
						},
						{
							"internalType": "enum Register15.Colors",
							"name": "color",
							"type": "uint8"
						},
						{
							"internalType": "uint256",
							"name": "countChanges",
							"type": "uint256"
						}
					],
					"stateMutability": "view",
					"type": "function"
				}
			],
			"devdoc": {
				"author": "Solange Gueiros",
				"kind": "dev",
				"methods": {
					"addInfo(uint8,string)": {
						"details": "Get the position (index) where the struct was stored and return it",
						"params": {
							"myColor": "the new color to be stored",
							"myInfo": "the new string to be stored"
						},
						"returns": {
							"index": "where the struct was stored"
						}
					},
					"getMyInfoAtIndex(uint256)": {
						"details": "retrieves the struct locate in the index of the array `storedInfos` for the msg.sender address",
						"params": {
							"index": "is the location in the array to be returned"
						},
						"returns": {
							"_0": "the struct in the index"
						}
					},
					"getOneInfo(address,uint256)": {
						"details": "retrieves the struct locate in the index of the array `storedInfos` for the address ptovided",
						"params": {
							"account": "- the account to get the struct",
							"index": "is the location in the array to be returned"
						},
						"returns": {
							"_0": "the struct in the index"
						}
					},
					"listAllInfo(address)": {
						"params": {
							"account": "is the address which the array of structs will be returned"
						},
						"returns": {
							"_0": "an struct array"
						}
					},
					"setColor(uint256,uint8)": {
						"details": "Update `color` in some index of the struct array",
						"params": {
							"index": "is the position where the struct will be updated",
							"myColor": "is the new color to be stored"
						}
					},
					"setInfo(uint256,string)": {
						"details": "Update `newInfo` in some index of the struct array",
						"params": {
							"index": "is the position where the string will be updated",
							"newInfo": "is the new string to be stored"
						}
					}
				},
				"title": "Concepts: All together 3",
				"version": 1
			},
			"evm": {
				"assembly": "    /* \"ETH - Henry/contracts/register/Register15-All.sol\":220:3873  contract Register15 {... */\n  mstore(0x40, 0x80)\n    /* \"ETH - Henry/contracts/register/Register15-All.sol\":512:747  constructor() {... */\n  callvalue\n  dup1\n  iszero\n  tag_1\n  jumpi\n  revert(0x00, 0x00)\ntag_1:\n  pop\n    /* \"ETH - Henry/contracts/register/Register15-All.sol\":537:562  InfoStruct memory auxInfo */\n  0x00\n    /* \"ETH - Henry/contracts/register/Register15-All.sol\":565:691  InfoStruct ({... */\n  mload(0x40)\n  dup1\n  0x60\n  add\n  0x40\n  mstore\n  dup1\n  mload(0x40)\n  dup1\n  0x40\n  add\n  0x40\n  mstore\n  dup1\n  0x0b\n  dup2\n  mstore\n  0x20\n  add\n  0x48656c6c6f20776f726c64000000000000000000000000000000000000000000\n  dup2\n  mstore\n  pop\n  dup2\n  mstore\n  0x20\n  add\n    /* \"ETH - Henry/contracts/register/Register15-All.sol\":633:649  Colors.Undefined */\n  0x00\n    /* \"ETH - Henry/contracts/register/Register15-All.sol\":565:691  InfoStruct ({... */\n  0x02\n  dup2\n  gt\n  iszero\n  tag_4\n  jumpi\n  tag_5\n  tag_6\n  jump\t// in\ntag_5:\ntag_4:\n  dup2\n  mstore\n  0x20\n  add\n    /* \"ETH - Henry/contracts/register/Register15-All.sol\":678:679  0 */\n  0x00\n    /* \"ETH - Henry/contracts/register/Register15-All.sol\":565:691  InfoStruct ({... */\n  dup2\n  mstore\n  pop\n    /* \"ETH - Henry/contracts/register/Register15-All.sol\":537:691  InfoStruct memory auxInfo = InfoStruct ({... */\n  swap1\n  pop\n    /* \"ETH - Henry/contracts/register/Register15-All.sol\":702:713  storedInfos */\n  0x00\n    /* \"ETH - Henry/contracts/register/Register15-All.sol\":702:725  storedInfos[msg.sender] */\n  0x00\n    /* \"ETH - Henry/contracts/register/Register15-All.sol\":714:724  msg.sender */\n  caller\n    /* \"ETH - Henry/contracts/register/Register15-All.sol\":702:725  storedInfos[msg.sender] */\n  0xffffffffffffffffffffffffffffffffffffffff\n  and\n  0xffffffffffffffffffffffffffffffffffffffff\n  and\n  dup2\n  mstore\n  0x20\n  add\n  swap1\n  dup2\n  mstore\n  0x20\n  add\n  0x00\n  keccak256\n    /* \"ETH - Henry/contracts/register/Register15-All.sol\":731:738  auxInfo */\n  dup2\n    /* \"ETH - Henry/contracts/register/Register15-All.sol\":702:739  storedInfos[msg.sender].push(auxInfo) */\n  swap1\n  dup1\n  0x01\n  dup2\n  sload\n  add\n  dup1\n  dup3\n  sstore\n  dup1\n  swap2\n  pop\n  pop\n  0x01\n  swap1\n  sub\n  swap1\n  0x00\n  mstore\n  keccak256(0x00, 0x20)\n  swap1\n  0x03\n  mul\n  add\n  0x00\n  swap1\n  swap2\n  swap1\n  swap2\n  swap1\n  swap2\n  pop\n  0x00\n  dup3\n  add\n  mload\n  dup2\n  0x00\n  add\n  swap1\n  dup2\n  tag_8\n  swap2\n  swap1\n  tag_9\n  jump\t// in\ntag_8:\n  pop\n  0x20\n  dup3\n  add\n  mload\n  dup2\n  0x01\n  add\n  exp(0x0100, 0x00)\n  dup2\n  sload\n  dup2\n  0xff\n  mul\n  not\n  and\n  swap1\n  dup4\n  0x02\n  dup2\n  gt\n  iszero\n  tag_10\n  jumpi\n  tag_11\n  tag_6\n  jump\t// in\ntag_11:\ntag_10:\n  mul\n  or\n  swap1\n  sstore\n  pop\n  0x40\n  dup3\n  add\n  mload\n  dup2\n  0x02\n  add\n  sstore\n  pop\n  pop\n    /* \"ETH - Henry/contracts/register/Register15-All.sol\":526:747  {... */\n  pop\n    /* \"ETH - Henry/contracts/register/Register15-All.sol\":220:3873  contract Register15 {... */\n  jump(tag_12)\n    /* \"#utility.yul\":7:187   */\ntag_6:\n    /* \"#utility.yul\":55:132   */\n  0x4e487b7100000000000000000000000000000000000000000000000000000000\n    /* \"#utility.yul\":52:53   */\n  0x00\n    /* \"#utility.yul\":45:133   */\n  mstore\n    /* \"#utility.yul\":152:156   */\n  0x21\n    /* \"#utility.yul\":149:150   */\n  0x04\n    /* \"#utility.yul\":142:157   */\n  mstore\n    /* \"#utility.yul\":176:180   */\n  0x24\n    /* \"#utility.yul\":173:174   */\n  0x00\n    /* \"#utility.yul\":166:181   */\n  revert\n    /* \"#utility.yul\":193:292   */\ntag_13:\n    /* \"#utility.yul\":245:251   */\n  0x00\n    /* \"#utility.yul\":279:284   */\n  dup2\n    /* \"#utility.yul\":273:285   */\n  mload\n    /* \"#utility.yul\":263:285   */\n  swap1\n  pop\n    /* \"#utility.yul\":193:292   */\n  swap2\n  swap1\n  pop\n  jump\t// out\n    /* \"#utility.yul\":298:478   */\ntag_14:\n    /* \"#utility.yul\":346:423   */\n  0x4e487b7100000000000000000000000000000000000000000000000000000000\n    /* \"#utility.yul\":343:344   */\n  0x00\n    /* \"#utility.yul\":336:424   */\n  mstore\n    /* \"#utility.yul\":443:447   */\n  0x41\n    /* \"#utility.yul\":440:441   */\n  0x04\n    /* \"#utility.yul\":433:448   */\n  mstore\n    /* \"#utility.yul\":467:471   */\n  0x24\n    /* \"#utility.yul\":464:465   */\n  0x00\n    /* \"#utility.yul\":457:472   */\n  revert\n    /* \"#utility.yul\":484:664   */\ntag_15:\n    /* \"#utility.yul\":532:609   */\n  0x4e487b7100000000000000000000000000000000000000000000000000000000\n    /* \"#utility.yul\":529:530   */\n  0x00\n    /* \"#utility.yul\":522:610   */\n  mstore\n    /* \"#utility.yul\":629:633   */\n  0x22\n    /* \"#utility.yul\":626:627   */\n  0x04\n    /* \"#utility.yul\":619:634   */\n  mstore\n    /* \"#utility.yul\":653:657   */\n  0x24\n    /* \"#utility.yul\":650:651   */\n  0x00\n    /* \"#utility.yul\":643:658   */\n  revert\n    /* \"#utility.yul\":670:990   */\ntag_16:\n    /* \"#utility.yul\":714:720   */\n  0x00\n    /* \"#utility.yul\":751:752   */\n  0x02\n    /* \"#utility.yul\":745:749   */\n  dup3\n    /* \"#utility.yul\":741:753   */\n  div\n    /* \"#utility.yul\":731:753   */\n  swap1\n  pop\n    /* \"#utility.yul\":798:799   */\n  0x01\n    /* \"#utility.yul\":792:796   */\n  dup3\n    /* \"#utility.yul\":788:800   */\n  and\n    /* \"#utility.yul\":819:837   */\n  dup1\n    /* \"#utility.yul\":809:890   */\n  tag_39\n  jumpi\n    /* \"#utility.yul\":875:879   */\n  0x7f\n    /* \"#utility.yul\":867:873   */\n  dup3\n    /* \"#utility.yul\":863:880   */\n  and\n    /* \"#utility.yul\":853:880   */\n  swap2\n  pop\n    /* \"#utility.yul\":809:890   */\ntag_39:\n    /* \"#utility.yul\":937:939   */\n  0x20\n    /* \"#utility.yul\":929:935   */\n  dup3\n    /* \"#utility.yul\":926:940   */\n  lt\n    /* \"#utility.yul\":906:924   */\n  dup2\n    /* \"#utility.yul\":903:941   */\n  sub\n    /* \"#utility.yul\":900:984   */\n  tag_40\n  jumpi\n    /* \"#utility.yul\":956:974   */\n  tag_41\n  tag_15\n  jump\t// in\ntag_41:\n    /* \"#utility.yul\":900:984   */\ntag_40:\n    /* \"#utility.yul\":721:990   */\n  pop\n    /* \"#utility.yul\":670:990   */\n  swap2\n  swap1\n  pop\n  jump\t// out\n    /* \"#utility.yul\":996:1137   */\ntag_17:\n    /* \"#utility.yul\":1045:1049   */\n  0x00\n    /* \"#utility.yul\":1068:1071   */\n  dup2\n    /* \"#utility.yul\":1060:1071   */\n  swap1\n  pop\n    /* \"#utility.yul\":1091:1094   */\n  dup2\n    /* \"#utility.yul\":1088:1089   */\n  0x00\n    /* \"#utility.yul\":1081:1095   */\n  mstore\n    /* \"#utility.yul\":1125:1129   */\n  0x20\n    /* \"#utility.yul\":1122:1123   */\n  0x00\n    /* \"#utility.yul\":1112:1130   */\n  keccak256\n    /* \"#utility.yul\":1104:1130   */\n  swap1\n  pop\n    /* \"#utility.yul\":996:1137   */\n  swap2\n  swap1\n  pop\n  jump\t// out\n    /* \"#utility.yul\":1143:1236   */\ntag_18:\n    /* \"#utility.yul\":1180:1186   */\n  0x00\n    /* \"#utility.yul\":1227:1229   */\n  0x20\n    /* \"#utility.yul\":1222:1224   */\n  0x1f\n    /* \"#utility.yul\":1215:1220   */\n  dup4\n    /* \"#utility.yul\":1211:1225   */\n  add\n    /* \"#utility.yul\":1207:1230   */\n  div\n    /* \"#utility.yul\":1197:1230   */\n  swap1\n  pop\n    /* \"#utility.yul\":1143:1236   */\n  swap2\n  swap1\n  pop\n  jump\t// out\n    /* \"#utility.yul\":1242:1349   */\ntag_19:\n    /* \"#utility.yul\":1286:1294   */\n  0x00\n    /* \"#utility.yul\":1336:1341   */\n  dup3\n    /* \"#utility.yul\":1330:1334   */\n  dup3\n    /* \"#utility.yul\":1326:1342   */\n  shl\n    /* \"#utility.yul\":1305:1342   */\n  swap1\n  pop\n    /* \"#utility.yul\":1242:1349   */\n  swap3\n  swap2\n  pop\n  pop\n  jump\t// out\n    /* \"#utility.yul\":1355:1748   */\ntag_20:\n    /* \"#utility.yul\":1424:1430   */\n  0x00\n    /* \"#utility.yul\":1474:1475   */\n  0x08\n    /* \"#utility.yul\":1462:1472   */\n  dup4\n    /* \"#utility.yul\":1458:1476   */\n  mul\n    /* \"#utility.yul\":1497:1594   */\n  tag_46\n    /* \"#utility.yul\":1527:1593   */\n  0xffffffffffffffffffffffffffffffffffffffffffffffffffffffffffffffff\n    /* \"#utility.yul\":1516:1525   */\n  dup3\n    /* \"#utility.yul\":1497:1594   */\n  tag_19\n  jump\t// in\ntag_46:\n    /* \"#utility.yul\":1615:1654   */\n  tag_47\n    /* \"#utility.yul\":1645:1653   */\n  dup7\n    /* \"#utility.yul\":1634:1643   */\n  dup4\n    /* \"#utility.yul\":1615:1654   */\n  tag_19\n  jump\t// in\ntag_47:\n    /* \"#utility.yul\":1603:1654   */\n  swap6\n  pop\n    /* \"#utility.yul\":1687:1691   */\n  dup1\n    /* \"#utility.yul\":1683:1692   */\n  not\n    /* \"#utility.yul\":1676:1681   */\n  dup5\n    /* \"#utility.yul\":1672:1693   */\n  and\n    /* \"#utility.yul\":1663:1693   */\n  swap4\n  pop\n    /* \"#utility.yul\":1736:1740   */\n  dup1\n    /* \"#utility.yul\":1726:1734   */\n  dup7\n    /* \"#utility.yul\":1722:1741   */\n  and\n    /* \"#utility.yul\":1715:1720   */\n  dup5\n    /* \"#utility.yul\":1712:1742   */\n  or\n    /* \"#utility.yul\":1702:1742   */\n  swap3\n  pop\n    /* \"#utility.yul\":1431:1748   */\n  pop\n  pop\n    /* \"#utility.yul\":1355:1748   */\n  swap4\n  swap3\n  pop\n  pop\n  pop\n  jump\t// out\n    /* \"#utility.yul\":1754:1831   */\ntag_21:\n    /* \"#utility.yul\":1791:1798   */\n  0x00\n    /* \"#utility.yul\":1820:1825   */\n  dup2\n    /* \"#utility.yul\":1809:1825   */\n  swap1\n  pop\n    /* \"#utility.yul\":1754:1831   */\n  swap2\n  swap1\n  pop\n  jump\t// out\n    /* \"#utility.yul\":1837:1897   */\ntag_22:\n    /* \"#utility.yul\":1865:1868   */\n  0x00\n    /* \"#utility.yul\":1886:1891   */\n  dup2\n    /* \"#utility.yul\":1879:1891   */\n  swap1\n  pop\n    /* \"#utility.yul\":1837:1897   */\n  swap2\n  swap1\n  pop\n  jump\t// out\n    /* \"#utility.yul\":1903:2045   */\ntag_23:\n    /* \"#utility.yul\":1953:1962   */\n  0x00\n    /* \"#utility.yul\":1986:2039   */\n  tag_51\n    /* \"#utility.yul\":2004:2038   */\n  tag_52\n    /* \"#utility.yul\":2013:2037   */\n  tag_53\n    /* \"#utility.yul\":2031:2036   */\n  dup5\n    /* \"#utility.yul\":2013:2037   */\n  tag_21\n  jump\t// in\ntag_53:\n    /* \"#utility.yul\":2004:2038   */\n  tag_22\n  jump\t// in\ntag_52:\n    /* \"#utility.yul\":1986:2039   */\n  tag_21\n  jump\t// in\ntag_51:\n    /* \"#utility.yul\":1973:2039   */\n  swap1\n  pop\n    /* \"#utility.yul\":1903:2045   */\n  swap2\n  swap1\n  pop\n  jump\t// out\n    /* \"#utility.yul\":2051:2126   */\ntag_24:\n    /* \"#utility.yul\":2094:2097   */\n  0x00\n    /* \"#utility.yul\":2115:2120   */\n  dup2\n    /* \"#utility.yul\":2108:2120   */\n  swap1\n  pop\n    /* \"#utility.yul\":2051:2126   */\n  swap2\n  swap1\n  pop\n  jump\t// out\n    /* \"#utility.yul\":2132:2401   */\ntag_25:\n    /* \"#utility.yul\":2242:2281   */\n  tag_56\n    /* \"#utility.yul\":2273:2280   */\n  dup4\n    /* \"#utility.yul\":2242:2281   */\n  tag_23\n  jump\t// in\ntag_56:\n    /* \"#utility.yul\":2303:2394   */\n  tag_57\n    /* \"#utility.yul\":2352:2393   */\n  tag_58\n    /* \"#utility.yul\":2376:2392   */\n  dup3\n    /* \"#utility.yul\":2352:2393   */\n  tag_24\n  jump\t// in\ntag_58:\n    /* \"#utility.yul\":2344:2350   */\n  dup5\n    /* \"#utility.yul\":2337:2341   */\n  dup5\n    /* \"#utility.yul\":2331:2342   */\n  sload\n    /* \"#utility.yul\":2303:2394   */\n  tag_20\n  jump\t// in\ntag_57:\n    /* \"#utility.yul\":2297:2301   */\n  dup3\n    /* \"#utility.yul\":2290:2395   */\n  sstore\n    /* \"#utility.yul\":2208:2401   */\n  pop\n    /* \"#utility.yul\":2132:2401   */\n  pop\n  pop\n  pop\n  jump\t// out\n    /* \"#utility.yul\":2407:2480   */\ntag_26:\n    /* \"#utility.yul\":2452:2455   */\n  0x00\n    /* \"#utility.yul\":2473:2474   */\n  0x00\n    /* \"#utility.yul\":2466:2474   */\n  swap1\n  pop\n    /* \"#utility.yul\":2407:2480   */\n  swap1\n  jump\t// out\n    /* \"#utility.yul\":2486:2675   */\ntag_27:\n    /* \"#utility.yul\":2563:2595   */\n  tag_61\n  tag_26\n  jump\t// in\ntag_61:\n    /* \"#utility.yul\":2604:2669   */\n  tag_62\n    /* \"#utility.yul\":2662:2668   */\n  dup2\n    /* \"#utility.yul\":2654:2660   */\n  dup5\n    /* \"#utility.yul\":2648:2652   */\n  dup5\n    /* \"#utility.yul\":2604:2669   */\n  tag_25\n  jump\t// in\ntag_62:\n    /* \"#utility.yul\":2539:2675   */\n  pop\n    /* \"#utility.yul\":2486:2675   */\n  pop\n  pop\n  jump\t// out\n    /* \"#utility.yul\":2681:2867   */\ntag_28:\n    /* \"#utility.yul\":2741:2861   */\ntag_64:\n    /* \"#utility.yul\":2758:2761   */\n  dup2\n    /* \"#utility.yul\":2751:2756   */\n  dup2\n    /* \"#utility.yul\":2748:2762   */\n  lt\n    /* \"#utility.yul\":2741:2861   */\n  iszero\n  tag_66\n  jumpi\n    /* \"#utility.yul\":2812:2851   */\n  tag_67\n    /* \"#utility.yul\":2849:2850   */\n  0x00\n    /* \"#utility.yul\":2842:2847   */\n  dup3\n    /* \"#utility.yul\":2812:2851   */\n  tag_27\n  jump\t// in\ntag_67:\n    /* \"#utility.yul\":2785:2786   */\n  0x01\n    /* \"#utility.yul\":2778:2783   */\n  dup2\n    /* \"#utility.yul\":2774:2787   */\n  add\n    /* \"#utility.yul\":2765:2787   */\n  swap1\n  pop\n    /* \"#utility.yul\":2741:2861   */\n  jump(tag_64)\ntag_66:\n    /* \"#utility.yul\":2681:2867   */\n  pop\n  pop\n  jump\t// out\n    /* \"#utility.yul\":2873:3416   */\ntag_29:\n    /* \"#utility.yul\":2974:2976   */\n  0x1f\n    /* \"#utility.yul\":2969:2972   */\n  dup3\n    /* \"#utility.yul\":2966:2977   */\n  gt\n    /* \"#utility.yul\":2963:3409   */\n  iszero\n  tag_69\n  jumpi\n    /* \"#utility.yul\":3008:3046   */\n  tag_70\n    /* \"#utility.yul\":3040:3045   */\n  dup2\n    /* \"#utility.yul\":3008:3046   */\n  tag_17\n  jump\t// in\ntag_70:\n    /* \"#utility.yul\":3092:3121   */\n  tag_71\n    /* \"#utility.yul\":3110:3120   */\n  dup5\n    /* \"#utility.yul\":3092:3121   */\n  tag_18\n  jump\t// in\ntag_71:\n    /* \"#utility.yul\":3082:3090   */\n  dup2\n    /* \"#utility.yul\":3078:3122   */\n  add\n    /* \"#utility.yul\":3275:3277   */\n  0x20\n    /* \"#utility.yul\":3263:3273   */\n  dup6\n    /* \"#utility.yul\":3260:3278   */\n  lt\n    /* \"#utility.yul\":3257:3306   */\n  iszero\n  tag_72\n  jumpi\n    /* \"#utility.yul\":3296:3304   */\n  dup2\n    /* \"#utility.yul\":3281:3304   */\n  swap1\n  pop\n    /* \"#utility.yul\":3257:3306   */\ntag_72:\n    /* \"#utility.yul\":3319:3399   */\n  tag_73\n    /* \"#utility.yul\":3375:3397   */\n  tag_74\n    /* \"#utility.yul\":3393:3396   */\n  dup6\n    /* \"#utility.yul\":3375:3397   */\n  tag_18\n  jump\t// in\ntag_74:\n    /* \"#utility.yul\":3365:3373   */\n  dup4\n    /* \"#utility.yul\":3361:3398   */\n  add\n    /* \"#utility.yul\":3348:3359   */\n  dup3\n    /* \"#utility.yul\":3319:3399   */\n  tag_28\n  jump\t// in\ntag_73:\n    /* \"#utility.yul\":2978:3409   */\n  pop\n  pop\n    /* \"#utility.yul\":2963:3409   */\ntag_69:\n    /* \"#utility.yul\":2873:3416   */\n  pop\n  pop\n  pop\n  jump\t// out\n    /* \"#utility.yul\":3422:3539   */\ntag_30:\n    /* \"#utility.yul\":3476:3484   */\n  0x00\n    /* \"#utility.yul\":3526:3531   */\n  dup3\n    /* \"#utility.yul\":3520:3524   */\n  dup3\n    /* \"#utility.yul\":3516:3532   */\n  shr\n    /* \"#utility.yul\":3495:3532   */\n  swap1\n  pop\n    /* \"#utility.yul\":3422:3539   */\n  swap3\n  swap2\n  pop\n  pop\n  jump\t// out\n    /* \"#utility.yul\":3545:3714   */\ntag_31:\n    /* \"#utility.yul\":3589:3595   */\n  0x00\n    /* \"#utility.yul\":3622:3673   */\n  tag_77\n    /* \"#utility.yul\":3670:3671   */\n  0x00\n    /* \"#utility.yul\":3666:3672   */\n  not\n    /* \"#utility.yul\":3658:3663   */\n  dup5\n    /* \"#utility.yul\":3655:3656   */\n  0x08\n    /* \"#utility.yul\":3651:3664   */\n  mul\n    /* \"#utility.yul\":3622:3673   */\n  tag_30\n  jump\t// in\ntag_77:\n    /* \"#utility.yul\":3618:3674   */\n  not\n    /* \"#utility.yul\":3703:3707   */\n  dup1\n    /* \"#utility.yul\":3697:3701   */\n  dup4\n    /* \"#utility.yul\":3693:3708   */\n  and\n    /* \"#utility.yul\":3683:3708   */\n  swap2\n  pop\n    /* \"#utility.yul\":3596:3714   */\n  pop\n    /* \"#utility.yul\":3545:3714   */\n  swap3\n  swap2\n  pop\n  pop\n  jump\t// out\n    /* \"#utility.yul\":3719:4014   */\ntag_32:\n    /* \"#utility.yul\":3795:3799   */\n  0x00\n    /* \"#utility.yul\":3941:3970   */\n  tag_79\n    /* \"#utility.yul\":3966:3969   */\n  dup4\n    /* \"#utility.yul\":3960:3964   */\n  dup4\n    /* \"#utility.yul\":3941:3970   */\n  tag_31\n  jump\t// in\ntag_79:\n    /* \"#utility.yul\":3933:3970   */\n  swap2\n  pop\n    /* \"#utility.yul\":4003:4006   */\n  dup3\n    /* \"#utility.yul\":4000:4001   */\n  0x02\n    /* \"#utility.yul\":3996:4007   */\n  mul\n    /* \"#utility.yul\":3990:3994   */\n  dup3\n    /* \"#utility.yul\":3987:4008   */\n  or\n    /* \"#utility.yul\":3979:4008   */\n  swap1\n  pop\n    /* \"#utility.yul\":3719:4014   */\n  swap3\n  swap2\n  pop\n  pop\n  jump\t// out\n    /* \"#utility.yul\":4019:5414   */\ntag_9:\n    /* \"#utility.yul\":4136:4173   */\n  tag_81\n    /* \"#utility.yul\":4169:4172   */\n  dup3\n    /* \"#utility.yul\":4136:4173   */\n  tag_13\n  jump\t// in\ntag_81:\n    /* \"#utility.yul\":4238:4256   */\n  0xffffffffffffffff\n    /* \"#utility.yul\":4230:4236   */\n  dup2\n    /* \"#utility.yul\":4227:4257   */\n  gt\n    /* \"#utility.yul\":4224:4280   */\n  iszero\n  tag_82\n  jumpi\n    /* \"#utility.yul\":4260:4278   */\n  tag_83\n  tag_14\n  jump\t// in\ntag_83:\n    /* \"#utility.yul\":4224:4280   */\ntag_82:\n    /* \"#utility.yul\":4304:4342   */\n  tag_84\n    /* \"#utility.yul\":4336:4340   */\n  dup3\n    /* \"#utility.yul\":4330:4341   */\n  sload\n    /* \"#utility.yul\":4304:4342   */\n  tag_16\n  jump\t// in\ntag_84:\n    /* \"#utility.yul\":4389:4456   */\n  tag_85\n    /* \"#utility.yul\":4449:4455   */\n  dup3\n    /* \"#utility.yul\":4441:4447   */\n  dup3\n    /* \"#utility.yul\":4435:4439   */\n  dup6\n    /* \"#utility.yul\":4389:4456   */\n  tag_29\n  jump\t// in\ntag_85:\n    /* \"#utility.yul\":4483:4484   */\n  0x00\n    /* \"#utility.yul\":4507:4511   */\n  0x20\n    /* \"#utility.yul\":4494:4511   */\n  swap1\n  pop\n    /* \"#utility.yul\":4539:4541   */\n  0x1f\n    /* \"#utility.yul\":4531:4537   */\n  dup4\n    /* \"#utility.yul\":4528:4542   */\n  gt\n    /* \"#utility.yul\":4556:4557   */\n  0x01\n    /* \"#utility.yul\":4551:5169   */\n  dup2\n  eq\n  tag_87\n  jumpi\n    /* \"#utility.yul\":5213:5214   */\n  0x00\n    /* \"#utility.yul\":5230:5236   */\n  dup5\n    /* \"#utility.yul\":5227:5304   */\n  iszero\n  tag_88\n  jumpi\n    /* \"#utility.yul\":5279:5288   */\n  dup3\n    /* \"#utility.yul\":5274:5277   */\n  dup8\n    /* \"#utility.yul\":5270:5289   */\n  add\n    /* \"#utility.yul\":5264:5290   */\n  mload\n    /* \"#utility.yul\":5255:5290   */\n  swap1\n  pop\n    /* \"#utility.yul\":5227:5304   */\ntag_88:\n    /* \"#utility.yul\":5330:5397   */\n  tag_89\n    /* \"#utility.yul\":5390:5396   */\n  dup6\n    /* \"#utility.yul\":5383:5388   */\n  dup3\n    /* \"#utility.yul\":5330:5397   */\n  tag_32\n  jump\t// in\ntag_89:\n    /* \"#utility.yul\":5324:5328   */\n  dup7\n    /* \"#utility.yul\":5317:5398   */\n  sstore\n    /* \"#utility.yul\":5186:5408   */\n  pop\n    /* \"#utility.yul\":4521:5408   */\n  jump(tag_86)\n    /* \"#utility.yul\":4551:5169   */\ntag_87:\n    /* \"#utility.yul\":4603:4607   */\n  0x1f\n    /* \"#utility.yul\":4599:4608   */\n  not\n    /* \"#utility.yul\":4591:4597   */\n  dup5\n    /* \"#utility.yul\":4587:4609   */\n  and\n    /* \"#utility.yul\":4637:4674   */\n  tag_90\n    /* \"#utility.yul\":4669:4673   */\n  dup7\n    /* \"#utility.yul\":4637:4674   */\n  tag_17\n  jump\t// in\ntag_90:\n    /* \"#utility.yul\":4696:4697   */\n  0x00\n    /* \"#utility.yul\":4710:4918   */\ntag_91:\n    /* \"#utility.yul\":4724:4731   */\n  dup3\n    /* \"#utility.yul\":4721:4722   */\n  dup2\n    /* \"#utility.yul\":4718:4732   */\n  lt\n    /* \"#utility.yul\":4710:4918   */\n  iszero\n  tag_93\n  jumpi\n    /* \"#utility.yul\":4803:4812   */\n  dup5\n    /* \"#utility.yul\":4798:4801   */\n  dup10\n    /* \"#utility.yul\":4794:4813   */\n  add\n    /* \"#utility.yul\":4788:4814   */\n  mload\n    /* \"#utility.yul\":4780:4786   */\n  dup3\n    /* \"#utility.yul\":4773:4815   */\n  sstore\n    /* \"#utility.yul\":4854:4855   */\n  0x01\n    /* \"#utility.yul\":4846:4852   */\n  dup3\n    /* \"#utility.yul\":4842:4856   */\n  add\n    /* \"#utility.yul\":4832:4856   */\n  swap2\n  pop\n    /* \"#utility.yul\":4901:4903   */\n  0x20\n    /* \"#utility.yul\":4890:4899   */\n  dup6\n    /* \"#utility.yul\":4886:4904   */\n  add\n    /* \"#utility.yul\":4873:4904   */\n  swap5\n  pop\n    /* \"#utility.yul\":4747:4751   */\n  0x20\n    /* \"#utility.yul\":4744:4745   */\n  dup2\n    /* \"#utility.yul\":4740:4752   */\n  add\n    /* \"#utility.yul\":4735:4752   */\n  swap1\n  pop\n    /* \"#utility.yul\":4710:4918   */\n  jump(tag_91)\ntag_93:\n    /* \"#utility.yul\":4946:4952   */\n  dup7\n    /* \"#utility.yul\":4937:4944   */\n  dup4\n    /* \"#utility.yul\":4934:4953   */\n  lt\n    /* \"#utility.yul\":4931:5110   */\n  iszero\n  tag_94\n  jumpi\n    /* \"#utility.yul\":5004:5013   */\n  dup5\n    /* \"#utility.yul\":4999:5002   */\n  dup10\n    /* \"#utility.yul\":4995:5014   */\n  add\n    /* \"#utility.yul\":4989:5015   */\n  mload\n    /* \"#utility.yul\":5047:5095   */\n  tag_95\n    /* \"#utility.yul\":5089:5093   */\n  0x1f\n    /* \"#utility.yul\":5081:5087   */\n  dup10\n    /* \"#utility.yul\":5077:5094   */\n  and\n    /* \"#utility.yul\":5066:5075   */\n  dup3\n    /* \"#utility.yul\":5047:5095   */\n  tag_31\n  jump\t// in\ntag_95:\n    /* \"#utility.yul\":5039:5045   */\n  dup4\n    /* \"#utility.yul\":5032:5096   */\n  sstore\n    /* \"#utility.yul\":4954:5110   */\n  pop\n    /* \"#utility.yul\":4931:5110   */\ntag_94:\n    /* \"#utility.yul\":5156:5157   */\n  0x01\n    /* \"#utility.yul\":5152:5153   */\n  0x02\n    /* \"#utility.yul\":5144:5150   */\n  dup9\n    /* \"#utility.yul\":5140:5154   */\n  mul\n    /* \"#utility.yul\":5136:5158   */\n  add\n    /* \"#utility.yul\":5130:5134   */\n  dup9\n    /* \"#utility.yul\":5123:5159   */\n  sstore\n    /* \"#utility.yul\":4558:5169   */\n  pop\n  pop\n  pop\n    /* \"#utility.yul\":4521:5408   */\ntag_86:\n  pop\n    /* \"#utility.yul\":4111:5414   */\n  pop\n  pop\n  pop\n    /* \"#utility.yul\":4019:5414   */\n  pop\n  pop\n  jump\t// out\n    /* \"ETH - Henry/contracts/register/Register15-All.sol\":220:3873  contract Register15 {... */\ntag_12:\n  dataSize(sub_0)\n  dup1\n  dataOffset(sub_0)\n  0x00\n  codecopy\n  0x00\n  return\nstop\n\nsub_0: assembly {\n        /* \"ETH - Henry/contracts/register/Register15-All.sol\":220:3873  contract Register15 {... */\n      mstore(0x40, 0x80)\n      callvalue\n      dup1\n      iszero\n      tag_1\n      jumpi\n      revert(0x00, 0x00)\n    tag_1:\n      pop\n      jumpi(tag_2, lt(calldatasize, 0x04))\n      shr(0xe0, calldataload(0x00))\n      dup1\n      0x8cdd8902\n      gt\n      tag_10\n      jumpi\n      dup1\n      0x8cdd8902\n      eq\n      tag_6\n      jumpi\n      dup1\n      0x9ca3a5ed\n      eq\n      tag_7\n      jumpi\n      dup1\n      0xb6820002\n      eq\n      tag_8\n      jumpi\n      dup1\n      0xe8f36962\n      eq\n      tag_9\n      jumpi\n      jump(tag_2)\n    tag_10:\n      dup1\n      0x08c46711\n      eq\n      tag_3\n      jumpi\n      dup1\n      0x251101f5\n      eq\n      tag_4\n      jumpi\n      dup1\n      0x63ff1368\n      eq\n      tag_5\n      jumpi\n    tag_2:\n      revert(0x00, 0x00)\n        /* \"ETH - Henry/contracts/register/Register15-All.sol\":2898:3113  function getOneInfo(address account, uint index) public view returns (InfoStruct memory) {... */\n    tag_3:\n      tag_11\n      0x04\n      dup1\n      calldatasize\n      sub\n      dup2\n      add\n      swap1\n      tag_12\n      swap2\n      swap1\n      tag_13\n      jump\t// in\n    tag_12:\n      tag_14\n      jump\t// in\n    tag_11:\n      mload(0x40)\n      tag_15\n      swap2\n      swap1\n      tag_16\n      jump\t// in\n    tag_15:\n      mload(0x40)\n      dup1\n      swap2\n      sub\n      swap1\n      return\n        /* \"ETH - Henry/contracts/register/Register15-All.sol\":3737:3865  function listAllInfo(address account) external view returns (InfoStruct[] memory) {... */\n    tag_4:\n      tag_17\n      0x04\n      dup1\n      calldatasize\n      sub\n      dup2\n      add\n      swap1\n      tag_18\n      swap2\n      swap1\n      tag_19\n      jump\t// in\n    tag_18:\n      tag_20\n      jump\t// in\n    tag_17:\n      mload(0x40)\n      tag_21\n      swap2\n      swap1\n      tag_22\n      jump\t// in\n    tag_21:\n      mload(0x40)\n      dup1\n      swap2\n      sub\n      swap1\n      return\n        /* \"ETH - Henry/contracts/register/Register15-All.sol\":2382:2556  function setColor(uint index, Colors myColor) public {... */\n    tag_5:\n      tag_23\n      0x04\n      dup1\n      calldatasize\n      sub\n      dup2\n      add\n      swap1\n      tag_24\n      swap2\n      swap1\n      tag_25\n      jump\t// in\n    tag_24:\n      tag_26\n      jump\t// in\n    tag_23:\n      stop\n        /* \"ETH - Henry/contracts/register/Register15-All.sol\":3382:3517  function getMyInfoAtIndex(uint index) external view returns (InfoStruct memory) {... */\n    tag_6:\n      tag_27\n      0x04\n      dup1\n      calldatasize\n      sub\n      dup2\n      add\n      swap1\n      tag_28\n      swap2\n      swap1\n      tag_29\n      jump\t// in\n    tag_28:\n      tag_30\n      jump\t// in\n    tag_27:\n      mload(0x40)\n      tag_31\n      swap2\n      swap1\n      tag_16\n      jump\t// in\n    tag_31:\n      mload(0x40)\n      dup1\n      swap2\n      sub\n      swap1\n      return\n        /* \"ETH - Henry/contracts/register/Register15-All.sol\":451:503  mapping (address => InfoStruct[]) public storedInfos */\n    tag_7:\n      tag_32\n      0x04\n      dup1\n      calldatasize\n      sub\n      dup2\n      add\n      swap1\n      tag_33\n      swap2\n      swap1\n      tag_13\n      jump\t// in\n    tag_33:\n      tag_34\n      jump\t// in\n    tag_32:\n      mload(0x40)\n      tag_35\n      swap4\n      swap3\n      swap2\n      swap1\n      tag_36\n      jump\t// in\n    tag_35:\n      mload(0x40)\n      dup1\n      swap2\n      sub\n      swap1\n      return\n        /* \"ETH - Henry/contracts/register/Register15-All.sol\":1773:2138  function setInfo(uint index, string memory newInfo) public {... */\n    tag_8:\n      tag_37\n      0x04\n      dup1\n      calldatasize\n      sub\n      dup2\n      add\n      swap1\n      tag_38\n      swap2\n      swap1\n      tag_39\n      jump\t// in\n    tag_38:\n      tag_40\n      jump\t// in\n    tag_37:\n      stop\n        /* \"ETH - Henry/contracts/register/Register15-All.sol\":1161:1501  function addInfo(Colors myColor, string memory myInfo) public returns (uint index) {... */\n    tag_9:\n      tag_41\n      0x04\n      dup1\n      calldatasize\n      sub\n      dup2\n      add\n      swap1\n      tag_42\n      swap2\n      swap1\n      tag_43\n      jump\t// in\n    tag_42:\n      tag_44\n      jump\t// in\n    tag_41:\n      mload(0x40)\n      tag_45\n      swap2\n      swap1\n      tag_46\n      jump\t// in\n    tag_45:\n      mload(0x40)\n      dup1\n      swap2\n      sub\n      swap1\n      return\n        /* \"ETH - Henry/contracts/register/Register15-All.sol\":2898:3113  function getOneInfo(address account, uint index) public view returns (InfoStruct memory) {... */\n    tag_14:\n        /* \"ETH - Henry/contracts/register/Register15-All.sol\":2968:2985  InfoStruct memory */\n      tag_47\n      tag_48\n      jump\t// in\n    tag_47:\n        /* \"ETH - Henry/contracts/register/Register15-All.sol\":3015:3026  storedInfos */\n      0x00\n        /* \"ETH - Henry/contracts/register/Register15-All.sol\":3015:3035  storedInfos[account] */\n      0x00\n        /* \"ETH - Henry/contracts/register/Register15-All.sol\":3027:3034  account */\n      dup5\n        /* \"ETH - Henry/contracts/register/Register15-All.sol\":3015:3035  storedInfos[account] */\n      0xffffffffffffffffffffffffffffffffffffffff\n      and\n      0xffffffffffffffffffffffffffffffffffffffff\n      and\n      dup2\n      mstore\n      0x20\n      add\n      swap1\n      dup2\n      mstore\n      0x20\n      add\n      0x00\n      keccak256\n        /* \"ETH - Henry/contracts/register/Register15-All.sol\":3015:3042  storedInfos[account].length */\n      dup1\n      sload\n      swap1\n      pop\n        /* \"ETH - Henry/contracts/register/Register15-All.sol\":3007:3012  index */\n      dup3\n        /* \"ETH - Henry/contracts/register/Register15-All.sol\":3007:3042  index < storedInfos[account].length */\n      lt\n        /* \"ETH - Henry/contracts/register/Register15-All.sol\":2998:3060  require (index < storedInfos[account].length, \"invalid index\") */\n      tag_50\n      jumpi\n      mload(0x40)\n      0x08c379a000000000000000000000000000000000000000000000000000000000\n      dup2\n      mstore\n      0x04\n      add\n      tag_51\n      swap1\n      tag_52\n      jump\t// in\n    tag_51:\n      mload(0x40)\n      dup1\n      swap2\n      sub\n      swap1\n      revert\n    tag_50:\n        /* \"ETH - Henry/contracts/register/Register15-All.sol\":3078:3089  storedInfos */\n      0x00\n        /* \"ETH - Henry/contracts/register/Register15-All.sol\":3078:3098  storedInfos[account] */\n      0x00\n        /* \"ETH - Henry/contracts/register/Register15-All.sol\":3090:3097  account */\n      dup5\n        /* \"ETH - Henry/contracts/register/Register15-All.sol\":3078:3098  storedInfos[account] */\n      0xffffffffffffffffffffffffffffffffffffffff\n      and\n      0xffffffffffffffffffffffffffffffffffffffff\n      and\n      dup2\n      mstore\n      0x20\n      add\n      swap1\n      dup2\n      mstore\n      0x20\n      add\n      0x00\n      keccak256\n        /* \"ETH - Henry/contracts/register/Register15-All.sol\":3099:3104  index */\n      dup3\n        /* \"ETH - Henry/contracts/register/Register15-All.sol\":3078:3105  storedInfos[account][index] */\n      dup2\n      sload\n      dup2\n      lt\n      tag_53\n      jumpi\n      tag_54\n      tag_55\n      jump\t// in\n    tag_54:\n    tag_53:\n      swap1\n      0x00\n      mstore\n      keccak256(0x00, 0x20)\n      swap1\n      0x03\n      mul\n      add\n        /* \"ETH - Henry/contracts/register/Register15-All.sol\":3071:3105  return storedInfos[account][index] */\n      mload(0x40)\n      dup1\n      0x60\n      add\n      0x40\n      mstore\n      swap1\n      dup2\n      0x00\n      dup3\n      add\n      dup1\n      sload\n      tag_57\n      swap1\n      tag_58\n      jump\t// in\n    tag_57:\n      dup1\n      0x1f\n      add\n      0x20\n      dup1\n      swap2\n      div\n      mul\n      0x20\n      add\n      mload(0x40)\n      swap1\n      dup2\n      add\n      0x40\n      mstore\n      dup1\n      swap3\n      swap2\n      swap1\n      dup2\n      dup2\n      mstore\n      0x20\n      add\n      dup3\n      dup1\n      sload\n      tag_59\n      swap1\n      tag_58\n      jump\t// in\n    tag_59:\n      dup1\n      iszero\n      tag_60\n      jumpi\n      dup1\n      0x1f\n      lt\n      tag_61\n      jumpi\n      0x0100\n      dup1\n      dup4\n      sload\n      div\n      mul\n      dup4\n      mstore\n      swap2\n      0x20\n      add\n      swap2\n      jump(tag_60)\n    tag_61:\n      dup3\n      add\n      swap2\n      swap1\n      0x00\n      mstore\n      keccak256(0x00, 0x20)\n      swap1\n    tag_62:\n      dup2\n      sload\n      dup2\n      mstore\n      swap1\n      0x01\n      add\n      swap1\n      0x20\n      add\n      dup1\n      dup4\n      gt\n      tag_62\n      jumpi\n      dup3\n      swap1\n      sub\n      0x1f\n      and\n      dup3\n      add\n      swap2\n    tag_60:\n      pop\n      pop\n      pop\n      pop\n      pop\n      dup2\n      mstore\n      0x20\n      add\n      0x01\n      dup3\n      add\n      0x00\n      swap1\n      sload\n      swap1\n      0x0100\n      exp\n      swap1\n      div\n      0xff\n      and\n      0x02\n      dup2\n      gt\n      iszero\n      tag_63\n      jumpi\n      tag_64\n      tag_65\n      jump\t// in\n    tag_64:\n    tag_63:\n      0x02\n      dup2\n      gt\n      iszero\n      tag_66\n      jumpi\n      tag_67\n      tag_65\n      jump\t// in\n    tag_67:\n    tag_66:\n      dup2\n      mstore\n      0x20\n      add\n      0x02\n      dup3\n      add\n      sload\n      dup2\n      mstore\n      pop\n      pop\n      swap1\n      pop\n        /* \"ETH - Henry/contracts/register/Register15-All.sol\":2898:3113  function getOneInfo(address account, uint index) public view returns (InfoStruct memory) {... */\n      swap3\n      swap2\n      pop\n      pop\n      jump\t// out\n        /* \"ETH - Henry/contracts/register/Register15-All.sol\":3737:3865  function listAllInfo(address account) external view returns (InfoStruct[] memory) {... */\n    tag_20:\n        /* \"ETH - Henry/contracts/register/Register15-All.sol\":3798:3817  InfoStruct[] memory */\n      0x60\n        /* \"ETH - Henry/contracts/register/Register15-All.sol\":3837:3848  storedInfos */\n      0x00\n        /* \"ETH - Henry/contracts/register/Register15-All.sol\":3837:3857  storedInfos[account] */\n      0x00\n        /* \"ETH - Henry/contracts/register/Register15-All.sol\":3849:3856  account */\n      dup4\n        /* \"ETH - Henry/contracts/register/Register15-All.sol\":3837:3857  storedInfos[account] */\n      0xffffffffffffffffffffffffffffffffffffffff\n      and\n      0xffffffffffffffffffffffffffffffffffffffff\n      and\n      dup2\n      mstore\n      0x20\n      add\n      swap1\n      dup2\n      mstore\n      0x20\n      add\n      0x00\n      keccak256\n        /* \"ETH - Henry/contracts/register/Register15-All.sol\":3830:3857  return storedInfos[account] */\n      dup1\n      sload\n      dup1\n      0x20\n      mul\n      0x20\n      add\n      mload(0x40)\n      swap1\n      dup2\n      add\n      0x40\n      mstore\n      dup1\n      swap3\n      swap2\n      swap1\n      dup2\n      dup2\n      mstore\n      0x20\n      add\n      0x00\n      swap1\n    tag_69:\n      dup3\n      dup3\n      lt\n      iszero\n      tag_70\n      jumpi\n      dup4\n      dup3\n      swap1\n      0x00\n      mstore\n      keccak256(0x00, 0x20)\n      swap1\n      0x03\n      mul\n      add\n      mload(0x40)\n      dup1\n      0x60\n      add\n      0x40\n      mstore\n      swap1\n      dup2\n      0x00\n      dup3\n      add\n      dup1\n      sload\n      tag_72\n      swap1\n      tag_58\n      jump\t// in\n    tag_72:\n      dup1\n      0x1f\n      add\n      0x20\n      dup1\n      swap2\n      div\n      mul\n      0x20\n      add\n      mload(0x40)\n      swap1\n      dup2\n      add\n      0x40\n      mstore\n      dup1\n      swap3\n      swap2\n      swap1\n      dup2\n      dup2\n      mstore\n      0x20\n      add\n      dup3\n      dup1\n      sload\n      tag_73\n      swap1\n      tag_58\n      jump\t// in\n    tag_73:\n      dup1\n      iszero\n      tag_74\n      jumpi\n      dup1\n      0x1f\n      lt\n      tag_75\n      jumpi\n      0x0100\n      dup1\n      dup4\n      sload\n      div\n      mul\n      dup4\n      mstore\n      swap2\n      0x20\n      add\n      swap2\n      jump(tag_74)\n    tag_75:\n      dup3\n      add\n      swap2\n      swap1\n      0x00\n      mstore\n      keccak256(0x00, 0x20)\n      swap1\n    tag_76:\n      dup2\n      sload\n      dup2\n      mstore\n      swap1\n      0x01\n      add\n      swap1\n      0x20\n      add\n      dup1\n      dup4\n      gt\n      tag_76\n      jumpi\n      dup3\n      swap1\n      sub\n      0x1f\n      and\n      dup3\n      add\n      swap2\n    tag_74:\n      pop\n      pop\n      pop\n      pop\n      pop\n      dup2\n      mstore\n      0x20\n      add\n      0x01\n      dup3\n      add\n      0x00\n      swap1\n      sload\n      swap1\n      0x0100\n      exp\n      swap1\n      div\n      0xff\n      and\n      0x02\n      dup2\n      gt\n      iszero\n      tag_77\n      jumpi\n      tag_78\n      tag_65\n      jump\t// in\n    tag_78:\n    tag_77:\n      0x02\n      dup2\n      gt\n      iszero\n      tag_79\n      jumpi\n      tag_80\n      tag_65\n      jump\t// in\n    tag_80:\n    tag_79:\n      dup2\n      mstore\n      0x20\n      add\n      0x02\n      dup3\n      add\n      sload\n      dup2\n      mstore\n      pop\n      pop\n      dup2\n      mstore\n      0x20\n      add\n      swap1\n      0x01\n      add\n      swap1\n      jump(tag_69)\n    tag_70:\n      pop\n      pop\n      pop\n      pop\n      swap1\n      pop\n        /* \"ETH - Henry/contracts/register/Register15-All.sol\":3737:3865  function listAllInfo(address account) external view returns (InfoStruct[] memory) {... */\n      swap2\n      swap1\n      pop\n      jump\t// out\n        /* \"ETH - Henry/contracts/register/Register15-All.sol\":2382:2556  function setColor(uint index, Colors myColor) public {... */\n    tag_26:\n        /* \"ETH - Henry/contracts/register/Register15-All.sol\":2485:2492  myColor */\n      dup1\n        /* \"ETH - Henry/contracts/register/Register15-All.sol\":2446:2457  storedInfos */\n      0x00\n        /* \"ETH - Henry/contracts/register/Register15-All.sol\":2446:2469  storedInfos[msg.sender] */\n      0x00\n        /* \"ETH - Henry/contracts/register/Register15-All.sol\":2458:2468  msg.sender */\n      caller\n        /* \"ETH - Henry/contracts/register/Register15-All.sol\":2446:2469  storedInfos[msg.sender] */\n      0xffffffffffffffffffffffffffffffffffffffff\n      and\n      0xffffffffffffffffffffffffffffffffffffffff\n      and\n      dup2\n      mstore\n      0x20\n      add\n      swap1\n      dup2\n      mstore\n      0x20\n      add\n      0x00\n      keccak256\n        /* \"ETH - Henry/contracts/register/Register15-All.sol\":2470:2475  index */\n      dup4\n        /* \"ETH - Henry/contracts/register/Register15-All.sol\":2446:2476  storedInfos[msg.sender][index] */\n      dup2\n      sload\n      dup2\n      lt\n      tag_82\n      jumpi\n      tag_83\n      tag_55\n      jump\t// in\n    tag_83:\n    tag_82:\n      swap1\n      0x00\n      mstore\n      keccak256(0x00, 0x20)\n      swap1\n      0x03\n      mul\n      add\n        /* \"ETH - Henry/contracts/register/Register15-All.sol\":2446:2482  storedInfos[msg.sender][index].color */\n      0x01\n      add\n      0x00\n        /* \"ETH - Henry/contracts/register/Register15-All.sol\":2446:2492  storedInfos[msg.sender][index].color = myColor */\n      0x0100\n      exp\n      dup2\n      sload\n      dup2\n      0xff\n      mul\n      not\n      and\n      swap1\n      dup4\n      0x02\n      dup2\n      gt\n      iszero\n      tag_85\n      jumpi\n      tag_86\n      tag_65\n      jump\t// in\n    tag_86:\n    tag_85:\n      mul\n      or\n      swap1\n      sstore\n      pop\n        /* \"ETH - Henry/contracts/register/Register15-All.sol\":2503:2514  storedInfos */\n      0x00\n        /* \"ETH - Henry/contracts/register/Register15-All.sol\":2503:2526  storedInfos[msg.sender] */\n      0x00\n        /* \"ETH - Henry/contracts/register/Register15-All.sol\":2515:2525  msg.sender */\n      caller\n        /* \"ETH - Henry/contracts/register/Register15-All.sol\":2503:2526  storedInfos[msg.sender] */\n      0xffffffffffffffffffffffffffffffffffffffff\n      and\n      0xffffffffffffffffffffffffffffffffffffffff\n      and\n      dup2\n      mstore\n      0x20\n      add\n      swap1\n      dup2\n      mstore\n      0x20\n      add\n      0x00\n      keccak256\n        /* \"ETH - Henry/contracts/register/Register15-All.sol\":2527:2532  index */\n      dup3\n        /* \"ETH - Henry/contracts/register/Register15-All.sol\":2503:2533  storedInfos[msg.sender][index] */\n      dup2\n      sload\n      dup2\n      lt\n      tag_87\n      jumpi\n      tag_88\n      tag_55\n      jump\t// in\n    tag_88:\n    tag_87:\n      swap1\n      0x00\n      mstore\n      keccak256(0x00, 0x20)\n      swap1\n      0x03\n      mul\n      add\n        /* \"ETH - Henry/contracts/register/Register15-All.sol\":2503:2546  storedInfos[msg.sender][index].countChanges */\n      0x02\n      add\n      0x00\n        /* \"ETH - Henry/contracts/register/Register15-All.sol\":2503:2548  storedInfos[msg.sender][index].countChanges++ */\n      dup2\n      sload\n      dup1\n      swap3\n      swap2\n      swap1\n      tag_90\n      swap1\n      tag_91\n      jump\t// in\n    tag_90:\n      swap2\n      swap1\n      pop\n      sstore\n      pop\n        /* \"ETH - Henry/contracts/register/Register15-All.sol\":2382:2556  function setColor(uint index, Colors myColor) public {... */\n      pop\n      pop\n      jump\t// out\n        /* \"ETH - Henry/contracts/register/Register15-All.sol\":3382:3517  function getMyInfoAtIndex(uint index) external view returns (InfoStruct memory) {... */\n    tag_30:\n        /* \"ETH - Henry/contracts/register/Register15-All.sol\":3443:3460  InfoStruct memory */\n      tag_92\n      tag_48\n      jump\t// in\n    tag_92:\n        /* \"ETH - Henry/contracts/register/Register15-All.sol\":3480:3509  getOneInfo(msg.sender, index) */\n      tag_94\n        /* \"ETH - Henry/contracts/register/Register15-All.sol\":3491:3501  msg.sender */\n      caller\n        /* \"ETH - Henry/contracts/register/Register15-All.sol\":3503:3508  index */\n      dup4\n        /* \"ETH - Henry/contracts/register/Register15-All.sol\":3480:3490  getOneInfo */\n      tag_14\n        /* \"ETH - Henry/contracts/register/Register15-All.sol\":3480:3509  getOneInfo(msg.sender, index) */\n      jump\t// in\n    tag_94:\n        /* \"ETH - Henry/contracts/register/Register15-All.sol\":3473:3509  return getOneInfo(msg.sender, index) */\n      swap1\n      pop\n        /* \"ETH - Henry/contracts/register/Register15-All.sol\":3382:3517  function getMyInfoAtIndex(uint index) external view returns (InfoStruct memory) {... */\n      swap2\n      swap1\n      pop\n      jump\t// out\n        /* \"ETH - Henry/contracts/register/Register15-All.sol\":451:503  mapping (address => InfoStruct[]) public storedInfos */\n    tag_34:\n      mstore(0x20, 0x00)\n      dup2\n      0x00\n      mstore\n      keccak256(0x00, 0x40)\n      dup2\n      dup2\n      sload\n      dup2\n      lt\n      tag_95\n      jumpi\n      0x00\n      dup1\n      revert\n    tag_95:\n      swap1\n      0x00\n      mstore\n      keccak256(0x00, 0x20)\n      swap1\n      0x03\n      mul\n      add\n      0x00\n      swap2\n      pop\n      swap2\n      pop\n      pop\n      dup1\n      0x00\n      add\n      dup1\n      sload\n      tag_97\n      swap1\n      tag_58\n      jump\t// in\n    tag_97:\n      dup1\n      0x1f\n      add\n      0x20\n      dup1\n      swap2\n      div\n      mul\n      0x20\n      add\n      mload(0x40)\n      swap1\n      dup2\n      add\n      0x40\n      mstore\n      dup1\n      swap3\n      swap2\n      swap1\n      dup2\n      dup2\n      mstore\n      0x20\n      add\n      dup3\n      dup1\n      sload\n      tag_98\n      swap1\n      tag_58\n      jump\t// in\n    tag_98:\n      dup1\n      iszero\n      tag_99\n      jumpi\n      dup1\n      0x1f\n      lt\n      tag_100\n      jumpi\n      0x0100\n      dup1\n      dup4\n      sload\n      div\n      mul\n      dup4\n      mstore\n      swap2\n      0x20\n      add\n      swap2\n      jump(tag_99)\n    tag_100:\n      dup3\n      add\n      swap2\n      swap1\n      0x00\n      mstore\n      keccak256(0x00, 0x20)\n      swap1\n    tag_101:\n      dup2\n      sload\n      dup2\n      mstore\n      swap1\n      0x01\n      add\n      swap1\n      0x20\n      add\n      dup1\n      dup4\n      gt\n      tag_101\n      jumpi\n      dup3\n      swap1\n      sub\n      0x1f\n      and\n      dup3\n      add\n      swap2\n    tag_99:\n      pop\n      pop\n      pop\n      pop\n      pop\n      swap1\n      dup1\n      0x01\n      add\n      0x00\n      swap1\n      sload\n      swap1\n      0x0100\n      exp\n      swap1\n      div\n      0xff\n      and\n      swap1\n      dup1\n      0x02\n      add\n      sload\n      swap1\n      pop\n      dup4\n      jump\t// out\n        /* \"ETH - Henry/contracts/register/Register15-All.sol\":1773:2138  function setInfo(uint index, string memory newInfo) public {... */\n    tag_40:\n        /* \"ETH - Henry/contracts/register/Register15-All.sol\":1843:1854  storedInfos */\n      0x00\n        /* \"ETH - Henry/contracts/register/Register15-All.sol\":1843:1866  storedInfos[msg.sender] */\n      0x00\n        /* \"ETH - Henry/contracts/register/Register15-All.sol\":1855:1865  msg.sender */\n      caller\n        /* \"ETH - Henry/contracts/register/Register15-All.sol\":1843:1866  storedInfos[msg.sender] */\n      0xffffffffffffffffffffffffffffffffffffffff\n      and\n      0xffffffffffffffffffffffffffffffffffffffff\n      and\n      dup2\n      mstore\n      0x20\n      add\n      swap1\n      dup2\n      mstore\n      0x20\n      add\n      0x00\n      keccak256\n        /* \"ETH - Henry/contracts/register/Register15-All.sol\":1867:1872  index */\n      dup3\n        /* \"ETH - Henry/contracts/register/Register15-All.sol\":1843:1873  storedInfos[msg.sender][index] */\n      dup2\n      sload\n      dup2\n      lt\n      tag_103\n      jumpi\n      tag_104\n      tag_55\n      jump\t// in\n    tag_104:\n    tag_103:\n      swap1\n      0x00\n      mstore\n      keccak256(0x00, 0x20)\n      swap1\n      0x03\n      mul\n      add\n        /* \"ETH - Henry/contracts/register/Register15-All.sol\":1843:1886  storedInfos[msg.sender][index].countChanges */\n      0x02\n      add\n      0x00\n        /* \"ETH - Henry/contracts/register/Register15-All.sol\":1843:1888  storedInfos[msg.sender][index].countChanges++ */\n      dup2\n      sload\n      dup1\n      swap3\n      swap2\n      swap1\n      tag_106\n      swap1\n      tag_91\n      jump\t// in\n    tag_106:\n      swap2\n      swap1\n      pop\n      sstore\n      pop\n        /* \"ETH - Henry/contracts/register/Register15-All.sol\":1904:2018  InfoChange (msg.sender, storedInfos[msg.sender][index].countChanges, storedInfos[msg.sender][index].info, newInfo) */\n      0xeb0c5cfcb1d1a12c404c7bfceac5a0dc8ec8c2da31abaf3536a58433b2c561ce\n        /* \"ETH - Henry/contracts/register/Register15-All.sol\":1916:1926  msg.sender */\n      caller\n        /* \"ETH - Henry/contracts/register/Register15-All.sol\":1928:1939  storedInfos */\n      0x00\n        /* \"ETH - Henry/contracts/register/Register15-All.sol\":1928:1951  storedInfos[msg.sender] */\n      0x00\n        /* \"ETH - Henry/contracts/register/Register15-All.sol\":1940:1950  msg.sender */\n      caller\n        /* \"ETH - Henry/contracts/register/Register15-All.sol\":1928:1951  storedInfos[msg.sender] */\n      0xffffffffffffffffffffffffffffffffffffffff\n      and\n      0xffffffffffffffffffffffffffffffffffffffff\n      and\n      dup2\n      mstore\n      0x20\n      add\n      swap1\n      dup2\n      mstore\n      0x20\n      add\n      0x00\n      keccak256\n        /* \"ETH - Henry/contracts/register/Register15-All.sol\":1952:1957  index */\n      dup5\n        /* \"ETH - Henry/contracts/register/Register15-All.sol\":1928:1958  storedInfos[msg.sender][index] */\n      dup2\n      sload\n      dup2\n      lt\n      tag_107\n      jumpi\n      tag_108\n      tag_55\n      jump\t// in\n    tag_108:\n    tag_107:\n      swap1\n      0x00\n      mstore\n      keccak256(0x00, 0x20)\n      swap1\n      0x03\n      mul\n      add\n        /* \"ETH - Henry/contracts/register/Register15-All.sol\":1928:1971  storedInfos[msg.sender][index].countChanges */\n      0x02\n      add\n      sload\n        /* \"ETH - Henry/contracts/register/Register15-All.sol\":1973:1984  storedInfos */\n      0x00\n        /* \"ETH - Henry/contracts/register/Register15-All.sol\":1973:1996  storedInfos[msg.sender] */\n      0x00\n        /* \"ETH - Henry/contracts/register/Register15-All.sol\":1985:1995  msg.sender */\n      caller\n        /* \"ETH - Henry/contracts/register/Register15-All.sol\":1973:1996  storedInfos[msg.sender] */\n      0xffffffffffffffffffffffffffffffffffffffff\n      and\n      0xffffffffffffffffffffffffffffffffffffffff\n      and\n      dup2\n      mstore\n      0x20\n      add\n      swap1\n      dup2\n      mstore\n      0x20\n      add\n      0x00\n      keccak256\n        /* \"ETH - Henry/contracts/register/Register15-All.sol\":1997:2002  index */\n      dup6\n        /* \"ETH - Henry/contracts/register/Register15-All.sol\":1973:2003  storedInfos[msg.sender][index] */\n      dup2\n      sload\n      dup2\n      lt\n      tag_110\n      jumpi\n      tag_111\n      tag_55\n      jump\t// in\n    tag_111:\n    tag_110:\n      swap1\n      0x00\n      mstore\n      keccak256(0x00, 0x20)\n      swap1\n      0x03\n      mul\n      add\n        /* \"ETH - Henry/contracts/register/Register15-All.sol\":1973:2008  storedInfos[msg.sender][index].info */\n      0x00\n      add\n        /* \"ETH - Henry/contracts/register/Register15-All.sol\":2010:2017  newInfo */\n      dup5\n        /* \"ETH - Henry/contracts/register/Register15-All.sol\":1904:2018  InfoChange (msg.sender, storedInfos[msg.sender][index].countChanges, storedInfos[msg.sender][index].info, newInfo) */\n      mload(0x40)\n      tag_113\n      swap5\n      swap4\n      swap3\n      swap2\n      swap1\n      tag_114\n      jump\t// in\n    tag_113:\n      mload(0x40)\n      dup1\n      swap2\n      sub\n      swap1\n      log1\n        /* \"ETH - Henry/contracts/register/Register15-All.sol\":2067:2074  newInfo */\n      dup1\n        /* \"ETH - Henry/contracts/register/Register15-All.sol\":2029:2040  storedInfos */\n      0x00\n        /* \"ETH - Henry/contracts/register/Register15-All.sol\":2029:2052  storedInfos[msg.sender] */\n      0x00\n        /* \"ETH - Henry/contracts/register/Register15-All.sol\":2041:2051  msg.sender */\n      caller\n        /* \"ETH - Henry/contracts/register/Register15-All.sol\":2029:2052  storedInfos[msg.sender] */\n      0xffffffffffffffffffffffffffffffffffffffff\n      and\n      0xffffffffffffffffffffffffffffffffffffffff\n      and\n      dup2\n      mstore\n      0x20\n      add\n      swap1\n      dup2\n      mstore\n      0x20\n      add\n      0x00\n      keccak256\n        /* \"ETH - Henry/contracts/register/Register15-All.sol\":2053:2058  index */\n      dup4\n        /* \"ETH - Henry/contracts/register/Register15-All.sol\":2029:2059  storedInfos[msg.sender][index] */\n      dup2\n      sload\n      dup2\n      lt\n      tag_115\n      jumpi\n      tag_116\n      tag_55\n      jump\t// in\n    tag_116:\n    tag_115:\n      swap1\n      0x00\n      mstore\n      keccak256(0x00, 0x20)\n      swap1\n      0x03\n      mul\n      add\n        /* \"ETH - Henry/contracts/register/Register15-All.sol\":2029:2064  storedInfos[msg.sender][index].info */\n      0x00\n      add\n        /* \"ETH - Henry/contracts/register/Register15-All.sol\":2029:2074  storedInfos[msg.sender][index].info = newInfo */\n      swap1\n      dup2\n      tag_118\n      swap2\n      swap1\n      tag_119\n      jump\t// in\n    tag_118:\n      pop\n        /* \"ETH - Henry/contracts/register/Register15-All.sol\":2085:2096  storedInfos */\n      0x00\n        /* \"ETH - Henry/contracts/register/Register15-All.sol\":2085:2108  storedInfos[msg.sender] */\n      0x00\n        /* \"ETH - Henry/contracts/register/Register15-All.sol\":2097:2107  msg.sender */\n      caller\n        /* \"ETH - Henry/contracts/register/Register15-All.sol\":2085:2108  storedInfos[msg.sender] */\n      0xffffffffffffffffffffffffffffffffffffffff\n      and\n      0xffffffffffffffffffffffffffffffffffffffff\n      and\n      dup2\n      mstore\n      0x20\n      add\n      swap1\n      dup2\n      mstore\n      0x20\n      add\n      0x00\n      keccak256\n        /* \"ETH - Henry/contracts/register/Register15-All.sol\":2109:2114  index */\n      dup3\n        /* \"ETH - Henry/contracts/register/Register15-All.sol\":2085:2115  storedInfos[msg.sender][index] */\n      dup2\n      sload\n      dup2\n      lt\n      tag_120\n      jumpi\n      tag_121\n      tag_55\n      jump\t// in\n    tag_121:\n    tag_120:\n      swap1\n      0x00\n      mstore\n      keccak256(0x00, 0x20)\n      swap1\n      0x03\n      mul\n      add\n        /* \"ETH - Henry/contracts/register/Register15-All.sol\":2085:2128  storedInfos[msg.sender][index].countChanges */\n      0x02\n      add\n      0x00\n        /* \"ETH - Henry/contracts/register/Register15-All.sol\":2085:2130  storedInfos[msg.sender][index].countChanges++ */\n      dup2\n      sload\n      dup1\n      swap3\n      swap2\n      swap1\n      tag_123\n      swap1\n      tag_91\n      jump\t// in\n    tag_123:\n      swap2\n      swap1\n      pop\n      sstore\n      pop\n        /* \"ETH - Henry/contracts/register/Register15-All.sol\":1773:2138  function setInfo(uint index, string memory newInfo) public {... */\n      pop\n      pop\n      jump\t// out\n        /* \"ETH - Henry/contracts/register/Register15-All.sol\":1161:1501  function addInfo(Colors myColor, string memory myInfo) public returns (uint index) {... */\n    tag_44:\n        /* \"ETH - Henry/contracts/register/Register15-All.sol\":1232:1242  uint index */\n      0x00\n        /* \"ETH - Henry/contracts/register/Register15-All.sol\":1255:1280  InfoStruct memory auxInfo */\n      0x00\n        /* \"ETH - Henry/contracts/register/Register15-All.sol\":1283:1393  InfoStruct ({... */\n      mload(0x40)\n      dup1\n      0x60\n      add\n      0x40\n      mstore\n      dup1\n        /* \"ETH - Henry/contracts/register/Register15-All.sol\":1316:1322  myInfo */\n      dup5\n        /* \"ETH - Henry/contracts/register/Register15-All.sol\":1283:1393  InfoStruct ({... */\n      dup2\n      mstore\n      0x20\n      add\n        /* \"ETH - Henry/contracts/register/Register15-All.sol\":1344:1351  myColor */\n      dup6\n        /* \"ETH - Henry/contracts/register/Register15-All.sol\":1283:1393  InfoStruct ({... */\n      0x02\n      dup2\n      gt\n      iszero\n      tag_125\n      jumpi\n      tag_126\n      tag_65\n      jump\t// in\n    tag_126:\n    tag_125:\n      dup2\n      mstore\n      0x20\n      add\n        /* \"ETH - Henry/contracts/register/Register15-All.sol\":1380:1381  0 */\n      0x00\n        /* \"ETH - Henry/contracts/register/Register15-All.sol\":1283:1393  InfoStruct ({... */\n      dup2\n      mstore\n      pop\n        /* \"ETH - Henry/contracts/register/Register15-All.sol\":1255:1393  InfoStruct memory auxInfo = InfoStruct ({... */\n      swap1\n      pop\n        /* \"ETH - Henry/contracts/register/Register15-All.sol\":1404:1415  storedInfos */\n      0x00\n        /* \"ETH - Henry/contracts/register/Register15-All.sol\":1404:1427  storedInfos[msg.sender] */\n      0x00\n        /* \"ETH - Henry/contracts/register/Register15-All.sol\":1416:1426  msg.sender */\n      caller\n        /* \"ETH - Henry/contracts/register/Register15-All.sol\":1404:1427  storedInfos[msg.sender] */\n      0xffffffffffffffffffffffffffffffffffffffff\n      and\n      0xffffffffffffffffffffffffffffffffffffffff\n      and\n      dup2\n      mstore\n      0x20\n      add\n      swap1\n      dup2\n      mstore\n      0x20\n      add\n      0x00\n      keccak256\n        /* \"ETH - Henry/contracts/register/Register15-All.sol\":1433:1440  auxInfo */\n      dup2\n        /* \"ETH - Henry/contracts/register/Register15-All.sol\":1404:1441  storedInfos[msg.sender].push(auxInfo) */\n      swap1\n      dup1\n      0x01\n      dup2\n      sload\n      add\n      dup1\n      dup3\n      sstore\n      dup1\n      swap2\n      pop\n      pop\n      0x01\n      swap1\n      sub\n      swap1\n      0x00\n      mstore\n      keccak256(0x00, 0x20)\n      swap1\n      0x03\n      mul\n      add\n      0x00\n      swap1\n      swap2\n      swap1\n      swap2\n      swap1\n      swap2\n      pop\n      0x00\n      dup3\n      add\n      mload\n      dup2\n      0x00\n      add\n      swap1\n      dup2\n      tag_128\n      swap2\n      swap1\n      tag_119\n      jump\t// in\n    tag_128:\n      pop\n      0x20\n      dup3\n      add\n      mload\n      dup2\n      0x01\n      add\n      exp(0x0100, 0x00)\n      dup2\n      sload\n      dup2\n      0xff\n      mul\n      not\n      and\n      swap1\n      dup4\n      0x02\n      dup2\n      gt\n      iszero\n      tag_129\n      jumpi\n      tag_130\n      tag_65\n      jump\t// in\n    tag_130:\n    tag_129:\n      mul\n      or\n      swap1\n      sstore\n      pop\n      0x40\n      dup3\n      add\n      mload\n      dup2\n      0x02\n      add\n      sstore\n      pop\n      pop\n        /* \"ETH - Henry/contracts/register/Register15-All.sol\":1492:1493  1 */\n      0x01\n        /* \"ETH - Henry/contracts/register/Register15-All.sol\":1460:1471  storedInfos */\n      0x00\n        /* \"ETH - Henry/contracts/register/Register15-All.sol\":1460:1483  storedInfos[msg.sender] */\n      0x00\n        /* \"ETH - Henry/contracts/register/Register15-All.sol\":1472:1482  msg.sender */\n      caller\n        /* \"ETH - Henry/contracts/register/Register15-All.sol\":1460:1483  storedInfos[msg.sender] */\n      0xffffffffffffffffffffffffffffffffffffffff\n      and\n      0xffffffffffffffffffffffffffffffffffffffff\n      and\n      dup2\n      mstore\n      0x20\n      add\n      swap1\n      dup2\n      mstore\n      0x20\n      add\n      0x00\n      keccak256\n        /* \"ETH - Henry/contracts/register/Register15-All.sol\":1460:1490  storedInfos[msg.sender].length */\n      dup1\n      sload\n      swap1\n      pop\n        /* \"ETH - Henry/contracts/register/Register15-All.sol\":1460:1493  storedInfos[msg.sender].length -1 */\n      tag_131\n      swap2\n      swap1\n      tag_132\n      jump\t// in\n    tag_131:\n        /* \"ETH - Henry/contracts/register/Register15-All.sol\":1452:1493  index = storedInfos[msg.sender].length -1 */\n      swap2\n      pop\n        /* \"ETH - Henry/contracts/register/Register15-All.sol\":1244:1501  {... */\n      pop\n        /* \"ETH - Henry/contracts/register/Register15-All.sol\":1161:1501  function addInfo(Colors myColor, string memory myInfo) public returns (uint index) {... */\n      swap3\n      swap2\n      pop\n      pop\n      jump\t// out\n    tag_48:\n      mload(0x40)\n      dup1\n      0x60\n      add\n      0x40\n      mstore\n      dup1\n      0x60\n      dup2\n      mstore\n      0x20\n      add\n      0x00\n      0x02\n      dup2\n      gt\n      iszero\n      tag_133\n      jumpi\n      tag_134\n      tag_65\n      jump\t// in\n    tag_134:\n    tag_133:\n      dup2\n      mstore\n      0x20\n      add\n      0x00\n      dup2\n      mstore\n      pop\n      swap1\n      jump\t// out\n        /* \"#utility.yul\":7:82   */\n    tag_135:\n        /* \"#utility.yul\":40:46   */\n      0x00\n        /* \"#utility.yul\":73:75   */\n      0x40\n        /* \"#utility.yul\":67:76   */\n      mload\n        /* \"#utility.yul\":57:76   */\n      swap1\n      pop\n        /* \"#utility.yul\":7:82   */\n      swap1\n      jump\t// out\n        /* \"#utility.yul\":88:205   */\n    tag_136:\n        /* \"#utility.yul\":197:198   */\n      0x00\n        /* \"#utility.yul\":194:195   */\n      0x00\n        /* \"#utility.yul\":187:199   */\n      revert\n        /* \"#utility.yul\":211:328   */\n    tag_137:\n        /* \"#utility.yul\":320:321   */\n      0x00\n        /* \"#utility.yul\":317:318   */\n      0x00\n        /* \"#utility.yul\":310:322   */\n      revert\n        /* \"#utility.yul\":334:460   */\n    tag_138:\n        /* \"#utility.yul\":371:378   */\n      0x00\n        /* \"#utility.yul\":411:453   */\n      0xffffffffffffffffffffffffffffffffffffffff\n        /* \"#utility.yul\":404:409   */\n      dup3\n        /* \"#utility.yul\":400:454   */\n      and\n        /* \"#utility.yul\":389:454   */\n      swap1\n      pop\n        /* \"#utility.yul\":334:460   */\n      swap2\n      swap1\n      pop\n      jump\t// out\n        /* \"#utility.yul\":466:562   */\n    tag_139:\n        /* \"#utility.yul\":503:510   */\n      0x00\n        /* \"#utility.yul\":532:556   */\n      tag_205\n        /* \"#utility.yul\":550:555   */\n      dup3\n        /* \"#utility.yul\":532:556   */\n      tag_138\n      jump\t// in\n    tag_205:\n        /* \"#utility.yul\":521:556   */\n      swap1\n      pop\n        /* \"#utility.yul\":466:562   */\n      swap2\n      swap1\n      pop\n      jump\t// out\n        /* \"#utility.yul\":568:690   */\n    tag_140:\n        /* \"#utility.yul\":641:665   */\n      tag_207\n        /* \"#utility.yul\":659:664   */\n      dup2\n        /* \"#utility.yul\":641:665   */\n      tag_139\n      jump\t// in\n    tag_207:\n        /* \"#utility.yul\":634:639   */\n      dup2\n        /* \"#utility.yul\":631:666   */\n      eq\n        /* \"#utility.yul\":621:684   */\n      tag_208\n      jumpi\n        /* \"#utility.yul\":680:681   */\n      0x00\n        /* \"#utility.yul\":677:678   */\n      0x00\n        /* \"#utility.yul\":670:682   */\n      revert\n        /* \"#utility.yul\":621:684   */\n    tag_208:\n        /* \"#utility.yul\":568:690   */\n      pop\n      jump\t// out\n        /* \"#utility.yul\":696:835   */\n    tag_141:\n        /* \"#utility.yul\":742:747   */\n      0x00\n        /* \"#utility.yul\":780:786   */\n      dup2\n        /* \"#utility.yul\":767:787   */\n      calldataload\n        /* \"#utility.yul\":758:787   */\n      swap1\n      pop\n        /* \"#utility.yul\":796:829   */\n      tag_210\n        /* \"#utility.yul\":823:828   */\n      dup2\n        /* \"#utility.yul\":796:829   */\n      tag_140\n      jump\t// in\n    tag_210:\n        /* \"#utility.yul\":696:835   */\n      swap3\n      swap2\n      pop\n      pop\n      jump\t// out\n        /* \"#utility.yul\":841:918   */\n    tag_142:\n        /* \"#utility.yul\":878:885   */\n      0x00\n        /* \"#utility.yul\":907:912   */\n      dup2\n        /* \"#utility.yul\":896:912   */\n      swap1\n      pop\n        /* \"#utility.yul\":841:918   */\n      swap2\n      swap1\n      pop\n      jump\t// out\n        /* \"#utility.yul\":924:1046   */\n    tag_143:\n        /* \"#utility.yul\":997:1021   */\n      tag_213\n        /* \"#utility.yul\":1015:1020   */\n      dup2\n        /* \"#utility.yul\":997:1021   */\n      tag_142\n      jump\t// in\n    tag_213:\n        /* \"#utility.yul\":990:995   */\n      dup2\n        /* \"#utility.yul\":987:1022   */\n      eq\n        /* \"#utility.yul\":977:1040   */\n      tag_214\n      jumpi\n        /* \"#utility.yul\":1036:1037   */\n      0x00\n        /* \"#utility.yul\":1033:1034   */\n      0x00\n        /* \"#utility.yul\":1026:1038   */\n      revert\n        /* \"#utility.yul\":977:1040   */\n    tag_214:\n        /* \"#utility.yul\":924:1046   */\n      pop\n      jump\t// out\n        /* \"#utility.yul\":1052:1191   */\n    tag_144:\n        /* \"#utility.yul\":1098:1103   */\n      0x00\n        /* \"#utility.yul\":1136:1142   */\n      dup2\n        /* \"#utility.yul\":1123:1143   */\n      calldataload\n        /* \"#utility.yul\":1114:1143   */\n      swap1\n      pop\n        /* \"#utility.yul\":1152:1185   */\n      tag_216\n        /* \"#utility.yul\":1179:1184   */\n      dup2\n        /* \"#utility.yul\":1152:1185   */\n      tag_143\n      jump\t// in\n    tag_216:\n        /* \"#utility.yul\":1052:1191   */\n      swap3\n      swap2\n      pop\n      pop\n      jump\t// out\n        /* \"#utility.yul\":1197:1671   */\n    tag_13:\n        /* \"#utility.yul\":1265:1271   */\n      0x00\n        /* \"#utility.yul\":1273:1279   */\n      0x00\n        /* \"#utility.yul\":1322:1324   */\n      0x40\n        /* \"#utility.yul\":1310:1319   */\n      dup4\n        /* \"#utility.yul\":1301:1308   */\n      dup6\n        /* \"#utility.yul\":1297:1320   */\n      sub\n        /* \"#utility.yul\":1293:1325   */\n      slt\n        /* \"#utility.yul\":1290:1409   */\n      iszero\n      tag_218\n      jumpi\n        /* \"#utility.yul\":1328:1407   */\n      tag_219\n      tag_136\n      jump\t// in\n    tag_219:\n        /* \"#utility.yul\":1290:1409   */\n    tag_218:\n        /* \"#utility.yul\":1448:1449   */\n      0x00\n        /* \"#utility.yul\":1473:1526   */\n      tag_220\n        /* \"#utility.yul\":1518:1525   */\n      dup6\n        /* \"#utility.yul\":1509:1515   */\n      dup3\n        /* \"#utility.yul\":1498:1507   */\n      dup7\n        /* \"#utility.yul\":1494:1516   */\n      add\n        /* \"#utility.yul\":1473:1526   */\n      tag_141\n      jump\t// in\n    tag_220:\n        /* \"#utility.yul\":1463:1526   */\n      swap3\n      pop\n        /* \"#utility.yul\":1419:1536   */\n      pop\n        /* \"#utility.yul\":1575:1577   */\n      0x20\n        /* \"#utility.yul\":1601:1654   */\n      tag_221\n        /* \"#utility.yul\":1646:1653   */\n      dup6\n        /* \"#utility.yul\":1637:1643   */\n      dup3\n        /* \"#utility.yul\":1626:1635   */\n      dup7\n        /* \"#utility.yul\":1622:1644   */\n      add\n        /* \"#utility.yul\":1601:1654   */\n      tag_144\n      jump\t// in\n    tag_221:\n        /* \"#utility.yul\":1591:1654   */\n      swap2\n      pop\n        /* \"#utility.yul\":1546:1664   */\n      pop\n        /* \"#utility.yul\":1197:1671   */\n      swap3\n      pop\n      swap3\n      swap1\n      pop\n      jump\t// out\n        /* \"#utility.yul\":1677:1776   */\n    tag_145:\n        /* \"#utility.yul\":1729:1735   */\n      0x00\n        /* \"#utility.yul\":1763:1768   */\n      dup2\n        /* \"#utility.yul\":1757:1769   */\n      mload\n        /* \"#utility.yul\":1747:1769   */\n      swap1\n      pop\n        /* \"#utility.yul\":1677:1776   */\n      swap2\n      swap1\n      pop\n      jump\t// out\n        /* \"#utility.yul\":1782:1941   */\n    tag_146:\n        /* \"#utility.yul\":1856:1867   */\n      0x00\n        /* \"#utility.yul\":1890:1896   */\n      dup3\n        /* \"#utility.yul\":1885:1888   */\n      dup3\n        /* \"#utility.yul\":1878:1897   */\n      mstore\n        /* \"#utility.yul\":1930:1934   */\n      0x20\n        /* \"#utility.yul\":1925:1928   */\n      dup3\n        /* \"#utility.yul\":1921:1935   */\n      add\n        /* \"#utility.yul\":1906:1935   */\n      swap1\n      pop\n        /* \"#utility.yul\":1782:1941   */\n      swap3\n      swap2\n      pop\n      pop\n      jump\t// out\n        /* \"#utility.yul\":1947:2086   */\n    tag_147:\n        /* \"#utility.yul\":2036:2042   */\n      dup3\n        /* \"#utility.yul\":2031:2034   */\n      dup2\n        /* \"#utility.yul\":2026:2029   */\n      dup4\n        /* \"#utility.yul\":2020:2043   */\n      mcopy\n        /* \"#utility.yul\":2077:2078   */\n      0x00\n        /* \"#utility.yul\":2068:2074   */\n      dup4\n        /* \"#utility.yul\":2063:2066   */\n      dup4\n        /* \"#utility.yul\":2059:2075   */\n      add\n        /* \"#utility.yul\":2052:2079   */\n      mstore\n        /* \"#utility.yul\":1947:2086   */\n      pop\n      pop\n      pop\n      jump\t// out\n        /* \"#utility.yul\":2092:2194   */\n    tag_148:\n        /* \"#utility.yul\":2133:2139   */\n      0x00\n        /* \"#utility.yul\":2184:2186   */\n      0x1f\n        /* \"#utility.yul\":2180:2187   */\n      not\n        /* \"#utility.yul\":2175:2177   */\n      0x1f\n        /* \"#utility.yul\":2168:2173   */\n      dup4\n        /* \"#utility.yul\":2164:2178   */\n      add\n        /* \"#utility.yul\":2160:2188   */\n      and\n        /* \"#utility.yul\":2150:2188   */\n      swap1\n      pop\n        /* \"#utility.yul\":2092:2194   */\n      swap2\n      swap1\n      pop\n      jump\t// out\n        /* \"#utility.yul\":2200:2557   */\n    tag_149:\n        /* \"#utility.yul\":2278:2281   */\n      0x00\n        /* \"#utility.yul\":2306:2345   */\n      tag_227\n        /* \"#utility.yul\":2339:2344   */\n      dup3\n        /* \"#utility.yul\":2306:2345   */\n      tag_145\n      jump\t// in\n    tag_227:\n        /* \"#utility.yul\":2361:2422   */\n      tag_228\n        /* \"#utility.yul\":2415:2421   */\n      dup2\n        /* \"#utility.yul\":2410:2413   */\n      dup6\n        /* \"#utility.yul\":2361:2422   */\n      tag_146\n      jump\t// in\n    tag_228:\n        /* \"#utility.yul\":2354:2422   */\n      swap4\n      pop\n        /* \"#utility.yul\":2431:2496   */\n      tag_229\n        /* \"#utility.yul\":2489:2495   */\n      dup2\n        /* \"#utility.yul\":2484:2487   */\n      dup6\n        /* \"#utility.yul\":2477:2481   */\n      0x20\n        /* \"#utility.yul\":2470:2475   */\n      dup7\n        /* \"#utility.yul\":2466:2482   */\n      add\n        /* \"#utility.yul\":2431:2496   */\n      tag_147\n      jump\t// in\n    tag_229:\n        /* \"#utility.yul\":2521:2550   */\n      tag_230\n        /* \"#utility.yul\":2543:2549   */\n      dup2\n        /* \"#utility.yul\":2521:2550   */\n      tag_148\n      jump\t// in\n    tag_230:\n        /* \"#utility.yul\":2516:2519   */\n      dup5\n        /* \"#utility.yul\":2512:2551   */\n      add\n        /* \"#utility.yul\":2505:2551   */\n      swap2\n      pop\n        /* \"#utility.yul\":2282:2557   */\n      pop\n        /* \"#utility.yul\":2200:2557   */\n      swap3\n      swap2\n      pop\n      pop\n      jump\t// out\n        /* \"#utility.yul\":2563:2743   */\n    tag_65:\n        /* \"#utility.yul\":2611:2688   */\n      0x4e487b7100000000000000000000000000000000000000000000000000000000\n        /* \"#utility.yul\":2608:2609   */\n      0x00\n        /* \"#utility.yul\":2601:2689   */\n      mstore\n        /* \"#utility.yul\":2708:2712   */\n      0x21\n        /* \"#utility.yul\":2705:2706   */\n      0x04\n        /* \"#utility.yul\":2698:2713   */\n      mstore\n        /* \"#utility.yul\":2732:2736   */\n      0x24\n        /* \"#utility.yul\":2729:2730   */\n      0x00\n        /* \"#utility.yul\":2722:2737   */\n      revert\n        /* \"#utility.yul\":2749:2862   */\n    tag_150:\n        /* \"#utility.yul\":2830:2831   */\n      0x03\n        /* \"#utility.yul\":2823:2828   */\n      dup2\n        /* \"#utility.yul\":2820:2832   */\n      lt\n        /* \"#utility.yul\":2810:2856   */\n      tag_233\n      jumpi\n        /* \"#utility.yul\":2836:2854   */\n      tag_234\n      tag_65\n      jump\t// in\n    tag_234:\n        /* \"#utility.yul\":2810:2856   */\n    tag_233:\n        /* \"#utility.yul\":2749:2862   */\n      pop\n      jump\t// out\n        /* \"#utility.yul\":2868:2995   */\n    tag_151:\n        /* \"#utility.yul\":2913:2920   */\n      0x00\n        /* \"#utility.yul\":2942:2947   */\n      dup2\n        /* \"#utility.yul\":2931:2947   */\n      swap1\n      pop\n        /* \"#utility.yul\":2948:2989   */\n      tag_236\n        /* \"#utility.yul\":2983:2988   */\n      dup3\n        /* \"#utility.yul\":2948:2989   */\n      tag_150\n      jump\t// in\n    tag_236:\n        /* \"#utility.yul\":2868:2995   */\n      swap2\n      swap1\n      pop\n      jump\t// out\n        /* \"#utility.yul\":3001:3128   */\n    tag_152:\n        /* \"#utility.yul\":3057:3066   */\n      0x00\n        /* \"#utility.yul\":3090:3122   */\n      tag_238\n        /* \"#utility.yul\":3116:3121   */\n      dup3\n        /* \"#utility.yul\":3090:3122   */\n      tag_151\n      jump\t// in\n    tag_238:\n        /* \"#utility.yul\":3077:3122   */\n      swap1\n      pop\n        /* \"#utility.yul\":3001:3128   */\n      swap2\n      swap1\n      pop\n      jump\t// out\n        /* \"#utility.yul\":3134:3267   */\n    tag_153:\n        /* \"#utility.yul\":3217:3260   */\n      tag_240\n        /* \"#utility.yul\":3254:3259   */\n      dup2\n        /* \"#utility.yul\":3217:3260   */\n      tag_152\n      jump\t// in\n    tag_240:\n        /* \"#utility.yul\":3212:3215   */\n      dup3\n        /* \"#utility.yul\":3205:3261   */\n      mstore\n        /* \"#utility.yul\":3134:3267   */\n      pop\n      pop\n      jump\t// out\n        /* \"#utility.yul\":3273:3381   */\n    tag_154:\n        /* \"#utility.yul\":3350:3374   */\n      tag_242\n        /* \"#utility.yul\":3368:3373   */\n      dup2\n        /* \"#utility.yul\":3350:3374   */\n      tag_142\n      jump\t// in\n    tag_242:\n        /* \"#utility.yul\":3345:3348   */\n      dup3\n        /* \"#utility.yul\":3338:3375   */\n      mstore\n        /* \"#utility.yul\":3273:3381   */\n      pop\n      pop\n      jump\t// out\n        /* \"#utility.yul\":3455:4252   */\n    tag_155:\n        /* \"#utility.yul\":3576:3579   */\n      0x00\n        /* \"#utility.yul\":3612:3616   */\n      0x60\n        /* \"#utility.yul\":3607:3610   */\n      dup4\n        /* \"#utility.yul\":3603:3617   */\n      add\n        /* \"#utility.yul\":3699:3703   */\n      0x00\n        /* \"#utility.yul\":3692:3697   */\n      dup4\n        /* \"#utility.yul\":3688:3704   */\n      add\n        /* \"#utility.yul\":3682:3705   */\n      mload\n        /* \"#utility.yul\":3752:3755   */\n      dup5\n        /* \"#utility.yul\":3746:3750   */\n      dup3\n        /* \"#utility.yul\":3742:3756   */\n      sub\n        /* \"#utility.yul\":3735:3739   */\n      0x00\n        /* \"#utility.yul\":3730:3733   */\n      dup7\n        /* \"#utility.yul\":3726:3740   */\n      add\n        /* \"#utility.yul\":3719:3757   */\n      mstore\n        /* \"#utility.yul\":3778:3851   */\n      tag_244\n        /* \"#utility.yul\":3846:3850   */\n      dup3\n        /* \"#utility.yul\":3832:3844   */\n      dup3\n        /* \"#utility.yul\":3778:3851   */\n      tag_149\n      jump\t// in\n    tag_244:\n        /* \"#utility.yul\":3770:3851   */\n      swap2\n      pop\n        /* \"#utility.yul\":3627:3862   */\n      pop\n        /* \"#utility.yul\":3945:3949   */\n      0x20\n        /* \"#utility.yul\":3938:3943   */\n      dup4\n        /* \"#utility.yul\":3934:3950   */\n      add\n        /* \"#utility.yul\":3928:3951   */\n      mload\n        /* \"#utility.yul\":3964:4033   */\n      tag_245\n        /* \"#utility.yul\":4027:4031   */\n      0x20\n        /* \"#utility.yul\":4022:4025   */\n      dup7\n        /* \"#utility.yul\":4018:4032   */\n      add\n        /* \"#utility.yul\":4004:4016   */\n      dup3\n        /* \"#utility.yul\":3964:4033   */\n      tag_153\n      jump\t// in\n    tag_245:\n        /* \"#utility.yul\":3872:4043   */\n      pop\n        /* \"#utility.yul\":4133:4137   */\n      0x40\n        /* \"#utility.yul\":4126:4131   */\n      dup4\n        /* \"#utility.yul\":4122:4138   */\n      add\n        /* \"#utility.yul\":4116:4139   */\n      mload\n        /* \"#utility.yul\":4152:4215   */\n      tag_246\n        /* \"#utility.yul\":4209:4213   */\n      0x40\n        /* \"#utility.yul\":4204:4207   */\n      dup7\n        /* \"#utility.yul\":4200:4214   */\n      add\n        /* \"#utility.yul\":4186:4198   */\n      dup3\n        /* \"#utility.yul\":4152:4215   */\n      tag_154\n      jump\t// in\n    tag_246:\n        /* \"#utility.yul\":4053:4225   */\n      pop\n        /* \"#utility.yul\":4242:4246   */\n      dup1\n        /* \"#utility.yul\":4235:4246   */\n      swap2\n      pop\n        /* \"#utility.yul\":3581:4252   */\n      pop\n        /* \"#utility.yul\":3455:4252   */\n      swap3\n      swap2\n      pop\n      pop\n      jump\t// out\n        /* \"#utility.yul\":4258:4635   */\n    tag_16:\n        /* \"#utility.yul\":4403:4407   */\n      0x00\n        /* \"#utility.yul\":4441:4443   */\n      0x20\n        /* \"#utility.yul\":4430:4439   */\n      dup3\n        /* \"#utility.yul\":4426:4444   */\n      add\n        /* \"#utility.yul\":4418:4444   */\n      swap1\n      pop\n        /* \"#utility.yul\":4490:4499   */\n      dup2\n        /* \"#utility.yul\":4484:4488   */\n      dup2\n        /* \"#utility.yul\":4480:4500   */\n      sub\n        /* \"#utility.yul\":4476:4477   */\n      0x00\n        /* \"#utility.yul\":4465:4474   */\n      dup4\n        /* \"#utility.yul\":4461:4478   */\n      add\n        /* \"#utility.yul\":4454:4501   */\n      mstore\n        /* \"#utility.yul\":4518:4628   */\n      tag_248\n        /* \"#utility.yul\":4623:4627   */\n      dup2\n        /* \"#utility.yul\":4614:4620   */\n      dup5\n        /* \"#utility.yul\":4518:4628   */\n      tag_155\n      jump\t// in\n    tag_248:\n        /* \"#utility.yul\":4510:4628   */\n      swap1\n      pop\n        /* \"#utility.yul\":4258:4635   */\n      swap3\n      swap2\n      pop\n      pop\n      jump\t// out\n        /* \"#utility.yul\":4641:4970   */\n    tag_19:\n        /* \"#utility.yul\":4700:4706   */\n      0x00\n        /* \"#utility.yul\":4749:4751   */\n      0x20\n        /* \"#utility.yul\":4737:4746   */\n      dup3\n        /* \"#utility.yul\":4728:4735   */\n      dup5\n        /* \"#utility.yul\":4724:4747   */\n      sub\n        /* \"#utility.yul\":4720:4752   */\n      slt\n        /* \"#utility.yul\":4717:4836   */\n      iszero\n      tag_250\n      jumpi\n        /* \"#utility.yul\":4755:4834   */\n      tag_251\n      tag_136\n      jump\t// in\n    tag_251:\n        /* \"#utility.yul\":4717:4836   */\n    tag_250:\n        /* \"#utility.yul\":4875:4876   */\n      0x00\n        /* \"#utility.yul\":4900:4953   */\n      tag_252\n        /* \"#utility.yul\":4945:4952   */\n      dup5\n        /* \"#utility.yul\":4936:4942   */\n      dup3\n        /* \"#utility.yul\":4925:4934   */\n      dup6\n        /* \"#utility.yul\":4921:4943   */\n      add\n        /* \"#utility.yul\":4900:4953   */\n      tag_141\n      jump\t// in\n    tag_252:\n        /* \"#utility.yul\":4890:4953   */\n      swap2\n      pop\n        /* \"#utility.yul\":4846:4963   */\n      pop\n        /* \"#utility.yul\":4641:4970   */\n      swap3\n      swap2\n      pop\n      pop\n      jump\t// out\n        /* \"#utility.yul\":4976:5116   */\n    tag_156:\n        /* \"#utility.yul\":5069:5075   */\n      0x00\n        /* \"#utility.yul\":5103:5108   */\n      dup2\n        /* \"#utility.yul\":5097:5109   */\n      mload\n        /* \"#utility.yul\":5087:5109   */\n      swap1\n      pop\n        /* \"#utility.yul\":4976:5116   */\n      swap2\n      swap1\n      pop\n      jump\t// out\n        /* \"#utility.yul\":5122:5332   */\n    tag_157:\n        /* \"#utility.yul\":5247:5258   */\n      0x00\n        /* \"#utility.yul\":5281:5287   */\n      dup3\n        /* \"#utility.yul\":5276:5279   */\n      dup3\n        /* \"#utility.yul\":5269:5288   */\n      mstore\n        /* \"#utility.yul\":5321:5325   */\n      0x20\n        /* \"#utility.yul\":5316:5319   */\n      dup3\n        /* \"#utility.yul\":5312:5326   */\n      add\n        /* \"#utility.yul\":5297:5326   */\n      swap1\n      pop\n        /* \"#utility.yul\":5122:5332   */\n      swap3\n      swap2\n      pop\n      pop\n      jump\t// out\n        /* \"#utility.yul\":5338:5496   */\n    tag_158:\n        /* \"#utility.yul\":5431:5435   */\n      0x00\n        /* \"#utility.yul\":5454:5457   */\n      dup2\n        /* \"#utility.yul\":5446:5457   */\n      swap1\n      pop\n        /* \"#utility.yul\":5484:5488   */\n      0x20\n        /* \"#utility.yul\":5479:5482   */\n      dup3\n        /* \"#utility.yul\":5475:5489   */\n      add\n        /* \"#utility.yul\":5467:5489   */\n      swap1\n      pop\n        /* \"#utility.yul\":5338:5496   */\n      swap2\n      swap1\n      pop\n      jump\t// out\n        /* \"#utility.yul\":5570:6357   */\n    tag_159:\n        /* \"#utility.yul\":5681:5684   */\n      0x00\n        /* \"#utility.yul\":5717:5721   */\n      0x60\n        /* \"#utility.yul\":5712:5715   */\n      dup4\n        /* \"#utility.yul\":5708:5722   */\n      add\n        /* \"#utility.yul\":5804:5808   */\n      0x00\n        /* \"#utility.yul\":5797:5802   */\n      dup4\n        /* \"#utility.yul\":5793:5809   */\n      add\n        /* \"#utility.yul\":5787:5810   */\n      mload\n        /* \"#utility.yul\":5857:5860   */\n      dup5\n        /* \"#utility.yul\":5851:5855   */\n      dup3\n        /* \"#utility.yul\":5847:5861   */\n      sub\n        /* \"#utility.yul\":5840:5844   */\n      0x00\n        /* \"#utility.yul\":5835:5838   */\n      dup7\n        /* \"#utility.yul\":5831:5845   */\n      add\n        /* \"#utility.yul\":5824:5862   */\n      mstore\n        /* \"#utility.yul\":5883:5956   */\n      tag_257\n        /* \"#utility.yul\":5951:5955   */\n      dup3\n        /* \"#utility.yul\":5937:5949   */\n      dup3\n        /* \"#utility.yul\":5883:5956   */\n      tag_149\n      jump\t// in\n    tag_257:\n        /* \"#utility.yul\":5875:5956   */\n      swap2\n      pop\n        /* \"#utility.yul\":5732:5967   */\n      pop\n        /* \"#utility.yul\":6050:6054   */\n      0x20\n        /* \"#utility.yul\":6043:6048   */\n      dup4\n        /* \"#utility.yul\":6039:6055   */\n      add\n        /* \"#utility.yul\":6033:6056   */\n      mload\n        /* \"#utility.yul\":6069:6138   */\n      tag_258\n        /* \"#utility.yul\":6132:6136   */\n      0x20\n        /* \"#utility.yul\":6127:6130   */\n      dup7\n        /* \"#utility.yul\":6123:6137   */\n      add\n        /* \"#utility.yul\":6109:6121   */\n      dup3\n        /* \"#utility.yul\":6069:6138   */\n      tag_153\n      jump\t// in\n    tag_258:\n        /* \"#utility.yul\":5977:6148   */\n      pop\n        /* \"#utility.yul\":6238:6242   */\n      0x40\n        /* \"#utility.yul\":6231:6236   */\n      dup4\n        /* \"#utility.yul\":6227:6243   */\n      add\n        /* \"#utility.yul\":6221:6244   */\n      mload\n        /* \"#utility.yul\":6257:6320   */\n      tag_259\n        /* \"#utility.yul\":6314:6318   */\n      0x40\n        /* \"#utility.yul\":6309:6312   */\n      dup7\n        /* \"#utility.yul\":6305:6319   */\n      add\n        /* \"#utility.yul\":6291:6303   */\n      dup3\n        /* \"#utility.yul\":6257:6320   */\n      tag_154\n      jump\t// in\n    tag_259:\n        /* \"#utility.yul\":6158:6330   */\n      pop\n        /* \"#utility.yul\":6347:6351   */\n      dup1\n        /* \"#utility.yul\":6340:6351   */\n      swap2\n      pop\n        /* \"#utility.yul\":5686:6357   */\n      pop\n        /* \"#utility.yul\":5570:6357   */\n      swap3\n      swap2\n      pop\n      pop\n      jump\t// out\n        /* \"#utility.yul\":6363:6623   */\n    tag_160:\n        /* \"#utility.yul\":6484:6494   */\n      0x00\n        /* \"#utility.yul\":6519:6617   */\n      tag_261\n        /* \"#utility.yul\":6613:6616   */\n      dup4\n        /* \"#utility.yul\":6605:6611   */\n      dup4\n        /* \"#utility.yul\":6519:6617   */\n      tag_159\n      jump\t// in\n    tag_261:\n        /* \"#utility.yul\":6505:6617   */\n      swap1\n      pop\n        /* \"#utility.yul\":6363:6623   */\n      swap3\n      swap2\n      pop\n      pop\n      jump\t// out\n        /* \"#utility.yul\":6629:6768   */\n    tag_161:\n        /* \"#utility.yul\":6725:6729   */\n      0x00\n        /* \"#utility.yul\":6757:6761   */\n      0x20\n        /* \"#utility.yul\":6752:6755   */\n      dup3\n        /* \"#utility.yul\":6748:6762   */\n      add\n        /* \"#utility.yul\":6740:6762   */\n      swap1\n      pop\n        /* \"#utility.yul\":6629:6768   */\n      swap2\n      swap1\n      pop\n      jump\t// out\n        /* \"#utility.yul\":6846:7965   */\n    tag_162:\n        /* \"#utility.yul\":7017:7020   */\n      0x00\n        /* \"#utility.yul\":7046:7126   */\n      tag_264\n        /* \"#utility.yul\":7120:7125   */\n      dup3\n        /* \"#utility.yul\":7046:7126   */\n      tag_156\n      jump\t// in\n    tag_264:\n        /* \"#utility.yul\":7142:7254   */\n      tag_265\n        /* \"#utility.yul\":7247:7253   */\n      dup2\n        /* \"#utility.yul\":7242:7245   */\n      dup6\n        /* \"#utility.yul\":7142:7254   */\n      tag_157\n      jump\t// in\n    tag_265:\n        /* \"#utility.yul\":7135:7254   */\n      swap4\n      pop\n        /* \"#utility.yul\":7280:7283   */\n      dup4\n        /* \"#utility.yul\":7325:7329   */\n      0x20\n        /* \"#utility.yul\":7317:7323   */\n      dup3\n        /* \"#utility.yul\":7313:7330   */\n      mul\n        /* \"#utility.yul\":7308:7311   */\n      dup6\n        /* \"#utility.yul\":7304:7331   */\n      add\n        /* \"#utility.yul\":7355:7437   */\n      tag_266\n        /* \"#utility.yul\":7431:7436   */\n      dup6\n        /* \"#utility.yul\":7355:7437   */\n      tag_158\n      jump\t// in\n    tag_266:\n        /* \"#utility.yul\":7460:7467   */\n      dup1\n        /* \"#utility.yul\":7491:7492   */\n      0x00\n        /* \"#utility.yul\":7476:7920   */\n    tag_267:\n        /* \"#utility.yul\":7501:7507   */\n      dup6\n        /* \"#utility.yul\":7498:7499   */\n      dup2\n        /* \"#utility.yul\":7495:7508   */\n      lt\n        /* \"#utility.yul\":7476:7920   */\n      iszero\n      tag_269\n      jumpi\n        /* \"#utility.yul\":7572:7581   */\n      dup5\n        /* \"#utility.yul\":7566:7570   */\n      dup5\n        /* \"#utility.yul\":7562:7582   */\n      sub\n        /* \"#utility.yul\":7557:7560   */\n      dup10\n        /* \"#utility.yul\":7550:7583   */\n      mstore\n        /* \"#utility.yul\":7623:7629   */\n      dup2\n        /* \"#utility.yul\":7617:7630   */\n      mload\n        /* \"#utility.yul\":7651:7767   */\n      tag_270\n        /* \"#utility.yul\":7762:7766   */\n      dup6\n        /* \"#utility.yul\":7747:7760   */\n      dup3\n        /* \"#utility.yul\":7651:7767   */\n      tag_160\n      jump\t// in\n    tag_270:\n        /* \"#utility.yul\":7643:7767   */\n      swap5\n      pop\n        /* \"#utility.yul\":7790:7876   */\n      tag_271\n        /* \"#utility.yul\":7869:7875   */\n      dup4\n        /* \"#utility.yul\":7790:7876   */\n      tag_161\n      jump\t// in\n    tag_271:\n        /* \"#utility.yul\":7780:7876   */\n      swap3\n      pop\n        /* \"#utility.yul\":7905:7909   */\n      0x20\n        /* \"#utility.yul\":7900:7903   */\n      dup11\n        /* \"#utility.yul\":7896:7910   */\n      add\n        /* \"#utility.yul\":7889:7910   */\n      swap10\n      pop\n        /* \"#utility.yul\":7536:7920   */\n      pop\n        /* \"#utility.yul\":7523:7524   */\n      0x01\n        /* \"#utility.yul\":7520:7521   */\n      dup2\n        /* \"#utility.yul\":7516:7525   */\n      add\n        /* \"#utility.yul\":7511:7525   */\n      swap1\n      pop\n        /* \"#utility.yul\":7476:7920   */\n      jump(tag_267)\n    tag_269:\n        /* \"#utility.yul\":7480:7494   */\n      pop\n        /* \"#utility.yul\":7936:7940   */\n      dup3\n        /* \"#utility.yul\":7929:7940   */\n      swap8\n      pop\n        /* \"#utility.yul\":7956:7959   */\n      dup8\n        /* \"#utility.yul\":7949:7959   */\n      swap6\n      pop\n        /* \"#utility.yul\":7022:7965   */\n      pop\n      pop\n      pop\n      pop\n      pop\n        /* \"#utility.yul\":6846:7965   */\n      swap3\n      swap2\n      pop\n      pop\n      jump\t// out\n        /* \"#utility.yul\":7971:8448   */\n    tag_22:\n        /* \"#utility.yul\":8166:8170   */\n      0x00\n        /* \"#utility.yul\":8204:8206   */\n      0x20\n        /* \"#utility.yul\":8193:8202   */\n      dup3\n        /* \"#utility.yul\":8189:8207   */\n      add\n        /* \"#utility.yul\":8181:8207   */\n      swap1\n      pop\n        /* \"#utility.yul\":8253:8262   */\n      dup2\n        /* \"#utility.yul\":8247:8251   */\n      dup2\n        /* \"#utility.yul\":8243:8263   */\n      sub\n        /* \"#utility.yul\":8239:8240   */\n      0x00\n        /* \"#utility.yul\":8228:8237   */\n      dup4\n        /* \"#utility.yul\":8224:8241   */\n      add\n        /* \"#utility.yul\":8217:8264   */\n      mstore\n        /* \"#utility.yul\":8281:8441   */\n      tag_273\n        /* \"#utility.yul\":8436:8440   */\n      dup2\n        /* \"#utility.yul\":8427:8433   */\n      dup5\n        /* \"#utility.yul\":8281:8441   */\n      tag_162\n      jump\t// in\n    tag_273:\n        /* \"#utility.yul\":8273:8441   */\n      swap1\n      pop\n        /* \"#utility.yul\":7971:8448   */\n      swap3\n      swap2\n      pop\n      pop\n      jump\t// out\n        /* \"#utility.yul\":8454:8561   */\n    tag_163:\n        /* \"#utility.yul\":8535:8536   */\n      0x03\n        /* \"#utility.yul\":8528:8533   */\n      dup2\n        /* \"#utility.yul\":8525:8537   */\n      lt\n        /* \"#utility.yul\":8515:8555   */\n      tag_275\n      jumpi\n        /* \"#utility.yul\":8551:8552   */\n      0x00\n        /* \"#utility.yul\":8548:8549   */\n      0x00\n        /* \"#utility.yul\":8541:8553   */\n      revert\n        /* \"#utility.yul\":8515:8555   */\n    tag_275:\n        /* \"#utility.yul\":8454:8561   */\n      pop\n      jump\t// out\n        /* \"#utility.yul\":8567:8722   */\n    tag_164:\n        /* \"#utility.yul\":8621:8626   */\n      0x00\n        /* \"#utility.yul\":8659:8665   */\n      dup2\n        /* \"#utility.yul\":8646:8666   */\n      calldataload\n        /* \"#utility.yul\":8637:8666   */\n      swap1\n      pop\n        /* \"#utility.yul\":8675:8716   */\n      tag_277\n        /* \"#utility.yul\":8710:8715   */\n      dup2\n        /* \"#utility.yul\":8675:8716   */\n      tag_163\n      jump\t// in\n    tag_277:\n        /* \"#utility.yul\":8567:8722   */\n      swap3\n      swap2\n      pop\n      pop\n      jump\t// out\n        /* \"#utility.yul\":8728:9218   */\n    tag_25:\n        /* \"#utility.yul\":8804:8810   */\n      0x00\n        /* \"#utility.yul\":8812:8818   */\n      0x00\n        /* \"#utility.yul\":8861:8863   */\n      0x40\n        /* \"#utility.yul\":8849:8858   */\n      dup4\n        /* \"#utility.yul\":8840:8847   */\n      dup6\n        /* \"#utility.yul\":8836:8859   */\n      sub\n        /* \"#utility.yul\":8832:8864   */\n      slt\n        /* \"#utility.yul\":8829:8948   */\n      iszero\n      tag_279\n      jumpi\n        /* \"#utility.yul\":8867:8946   */\n      tag_280\n      tag_136\n      jump\t// in\n    tag_280:\n        /* \"#utility.yul\":8829:8948   */\n    tag_279:\n        /* \"#utility.yul\":8987:8988   */\n      0x00\n        /* \"#utility.yul\":9012:9065   */\n      tag_281\n        /* \"#utility.yul\":9057:9064   */\n      dup6\n        /* \"#utility.yul\":9048:9054   */\n      dup3\n        /* \"#utility.yul\":9037:9046   */\n      dup7\n        /* \"#utility.yul\":9033:9055   */\n      add\n        /* \"#utility.yul\":9012:9065   */\n      tag_144\n      jump\t// in\n    tag_281:\n        /* \"#utility.yul\":9002:9065   */\n      swap3\n      pop\n        /* \"#utility.yul\":8958:9075   */\n      pop\n        /* \"#utility.yul\":9114:9116   */\n      0x20\n        /* \"#utility.yul\":9140:9201   */\n      tag_282\n        /* \"#utility.yul\":9193:9200   */\n      dup6\n        /* \"#utility.yul\":9184:9190   */\n      dup3\n        /* \"#utility.yul\":9173:9182   */\n      dup7\n        /* \"#utility.yul\":9169:9191   */\n      add\n        /* \"#utility.yul\":9140:9201   */\n      tag_164\n      jump\t// in\n    tag_282:\n        /* \"#utility.yul\":9130:9201   */\n      swap2\n      pop\n        /* \"#utility.yul\":9085:9211   */\n      pop\n        /* \"#utility.yul\":8728:9218   */\n      swap3\n      pop\n      swap3\n      swap1\n      pop\n      jump\t// out\n        /* \"#utility.yul\":9224:9553   */\n    tag_29:\n        /* \"#utility.yul\":9283:9289   */\n      0x00\n        /* \"#utility.yul\":9332:9334   */\n      0x20\n        /* \"#utility.yul\":9320:9329   */\n      dup3\n        /* \"#utility.yul\":9311:9318   */\n      dup5\n        /* \"#utility.yul\":9307:9330   */\n      sub\n        /* \"#utility.yul\":9303:9335   */\n      slt\n        /* \"#utility.yul\":9300:9419   */\n      iszero\n      tag_284\n      jumpi\n        /* \"#utility.yul\":9338:9417   */\n      tag_285\n      tag_136\n      jump\t// in\n    tag_285:\n        /* \"#utility.yul\":9300:9419   */\n    tag_284:\n        /* \"#utility.yul\":9458:9459   */\n      0x00\n        /* \"#utility.yul\":9483:9536   */\n      tag_286\n        /* \"#utility.yul\":9528:9535   */\n      dup5\n        /* \"#utility.yul\":9519:9525   */\n      dup3\n        /* \"#utility.yul\":9508:9517   */\n      dup6\n        /* \"#utility.yul\":9504:9526   */\n      add\n        /* \"#utility.yul\":9483:9536   */\n      tag_144\n      jump\t// in\n    tag_286:\n        /* \"#utility.yul\":9473:9536   */\n      swap2\n      pop\n        /* \"#utility.yul\":9429:9546   */\n      pop\n        /* \"#utility.yul\":9224:9553   */\n      swap3\n      swap2\n      pop\n      pop\n      jump\t// out\n        /* \"#utility.yul\":9559:9728   */\n    tag_165:\n        /* \"#utility.yul\":9643:9654   */\n      0x00\n        /* \"#utility.yul\":9677:9683   */\n      dup3\n        /* \"#utility.yul\":9672:9675   */\n      dup3\n        /* \"#utility.yul\":9665:9684   */\n      mstore\n        /* \"#utility.yul\":9717:9721   */\n      0x20\n        /* \"#utility.yul\":9712:9715   */\n      dup3\n        /* \"#utility.yul\":9708:9722   */\n      add\n        /* \"#utility.yul\":9693:9722   */\n      swap1\n      pop\n        /* \"#utility.yul\":9559:9728   */\n      swap3\n      swap2\n      pop\n      pop\n      jump\t// out\n        /* \"#utility.yul\":9734:10111   */\n    tag_166:\n        /* \"#utility.yul\":9822:9825   */\n      0x00\n        /* \"#utility.yul\":9850:9889   */\n      tag_289\n        /* \"#utility.yul\":9883:9888   */\n      dup3\n        /* \"#utility.yul\":9850:9889   */\n      tag_145\n      jump\t// in\n    tag_289:\n        /* \"#utility.yul\":9905:9976   */\n      tag_290\n        /* \"#utility.yul\":9969:9975   */\n      dup2\n        /* \"#utility.yul\":9964:9967   */\n      dup6\n        /* \"#utility.yul\":9905:9976   */\n      tag_165\n      jump\t// in\n    tag_290:\n        /* \"#utility.yul\":9898:9976   */\n      swap4\n      pop\n        /* \"#utility.yul\":9985:10050   */\n      tag_291\n        /* \"#utility.yul\":10043:10049   */\n      dup2\n        /* \"#utility.yul\":10038:10041   */\n      dup6\n        /* \"#utility.yul\":10031:10035   */\n      0x20\n        /* \"#utility.yul\":10024:10029   */\n      dup7\n        /* \"#utility.yul\":10020:10036   */\n      add\n        /* \"#utility.yul\":9985:10050   */\n      tag_147\n      jump\t// in\n    tag_291:\n        /* \"#utility.yul\":10075:10104   */\n      tag_292\n        /* \"#utility.yul\":10097:10103   */\n      dup2\n        /* \"#utility.yul\":10075:10104   */\n      tag_148\n      jump\t// in\n    tag_292:\n        /* \"#utility.yul\":10070:10073   */\n      dup5\n        /* \"#utility.yul\":10066:10105   */\n      add\n        /* \"#utility.yul\":10059:10105   */\n      swap2\n      pop\n        /* \"#utility.yul\":9826:10111   */\n      pop\n        /* \"#utility.yul\":9734:10111   */\n      swap3\n      swap2\n      pop\n      pop\n      jump\t// out\n        /* \"#utility.yul\":10117:10260   */\n    tag_167:\n        /* \"#utility.yul\":10210:10253   */\n      tag_294\n        /* \"#utility.yul\":10247:10252   */\n      dup2\n        /* \"#utility.yul\":10210:10253   */\n      tag_152\n      jump\t// in\n    tag_294:\n        /* \"#utility.yul\":10205:10208   */\n      dup3\n        /* \"#utility.yul\":10198:10254   */\n      mstore\n        /* \"#utility.yul\":10117:10260   */\n      pop\n      pop\n      jump\t// out\n        /* \"#utility.yul\":10266:10384   */\n    tag_168:\n        /* \"#utility.yul\":10353:10377   */\n      tag_296\n        /* \"#utility.yul\":10371:10376   */\n      dup2\n        /* \"#utility.yul\":10353:10377   */\n      tag_142\n      jump\t// in\n    tag_296:\n        /* \"#utility.yul\":10348:10351   */\n      dup3\n        /* \"#utility.yul\":10341:10378   */\n      mstore\n        /* \"#utility.yul\":10266:10384   */\n      pop\n      pop\n      jump\t// out\n        /* \"#utility.yul\":10390:10935   */\n    tag_36:\n        /* \"#utility.yul\":10565:10569   */\n      0x00\n        /* \"#utility.yul\":10603:10605   */\n      0x60\n        /* \"#utility.yul\":10592:10601   */\n      dup3\n        /* \"#utility.yul\":10588:10606   */\n      add\n        /* \"#utility.yul\":10580:10606   */\n      swap1\n      pop\n        /* \"#utility.yul\":10652:10661   */\n      dup2\n        /* \"#utility.yul\":10646:10650   */\n      dup2\n        /* \"#utility.yul\":10642:10662   */\n      sub\n        /* \"#utility.yul\":10638:10639   */\n      0x00\n        /* \"#utility.yul\":10627:10636   */\n      dup4\n        /* \"#utility.yul\":10623:10640   */\n      add\n        /* \"#utility.yul\":10616:10663   */\n      mstore\n        /* \"#utility.yul\":10680:10758   */\n      tag_298\n        /* \"#utility.yul\":10753:10757   */\n      dup2\n        /* \"#utility.yul\":10744:10750   */\n      dup7\n        /* \"#utility.yul\":10680:10758   */\n      tag_166\n      jump\t// in\n    tag_298:\n        /* \"#utility.yul\":10672:10758   */\n      swap1\n      pop\n        /* \"#utility.yul\":10768:10846   */\n      tag_299\n        /* \"#utility.yul\":10842:10844   */\n      0x20\n        /* \"#utility.yul\":10831:10840   */\n      dup4\n        /* \"#utility.yul\":10827:10845   */\n      add\n        /* \"#utility.yul\":10818:10824   */\n      dup6\n        /* \"#utility.yul\":10768:10846   */\n      tag_167\n      jump\t// in\n    tag_299:\n        /* \"#utility.yul\":10856:10928   */\n      tag_300\n        /* \"#utility.yul\":10924:10926   */\n      0x40\n        /* \"#utility.yul\":10913:10922   */\n      dup4\n        /* \"#utility.yul\":10909:10927   */\n      add\n        /* \"#utility.yul\":10900:10906   */\n      dup5\n        /* \"#utility.yul\":10856:10928   */\n      tag_168\n      jump\t// in\n    tag_300:\n        /* \"#utility.yul\":10390:10935   */\n      swap5\n      swap4\n      pop\n      pop\n      pop\n      pop\n      jump\t// out\n        /* \"#utility.yul\":10941:11058   */\n    tag_169:\n        /* \"#utility.yul\":11050:11051   */\n      0x00\n        /* \"#utility.yul\":11047:11048   */\n      0x00\n        /* \"#utility.yul\":11040:11052   */\n      revert\n        /* \"#utility.yul\":11064:11181   */\n    tag_170:\n        /* \"#utility.yul\":11173:11174   */\n      0x00\n        /* \"#utility.yul\":11170:11171   */\n      0x00\n        /* \"#utility.yul\":11163:11175   */\n      revert\n        /* \"#utility.yul\":11187:11367   */\n    tag_171:\n        /* \"#utility.yul\":11235:11312   */\n      0x4e487b7100000000000000000000000000000000000000000000000000000000\n        /* \"#utility.yul\":11232:11233   */\n      0x00\n        /* \"#utility.yul\":11225:11313   */\n      mstore\n        /* \"#utility.yul\":11332:11336   */\n      0x41\n        /* \"#utility.yul\":11329:11330   */\n      0x04\n        /* \"#utility.yul\":11322:11337   */\n      mstore\n        /* \"#utility.yul\":11356:11360   */\n      0x24\n        /* \"#utility.yul\":11353:11354   */\n      0x00\n        /* \"#utility.yul\":11346:11361   */\n      revert\n        /* \"#utility.yul\":11373:11654   */\n    tag_172:\n        /* \"#utility.yul\":11456:11483   */\n      tag_305\n        /* \"#utility.yul\":11478:11482   */\n      dup3\n        /* \"#utility.yul\":11456:11483   */\n      tag_148\n      jump\t// in\n    tag_305:\n        /* \"#utility.yul\":11448:11454   */\n      dup2\n        /* \"#utility.yul\":11444:11484   */\n      add\n        /* \"#utility.yul\":11586:11592   */\n      dup2\n        /* \"#utility.yul\":11574:11584   */\n      dup2\n        /* \"#utility.yul\":11571:11593   */\n      lt\n        /* \"#utility.yul\":11550:11568   */\n      0xffffffffffffffff\n        /* \"#utility.yul\":11538:11548   */\n      dup3\n        /* \"#utility.yul\":11535:11569   */\n      gt\n        /* \"#utility.yul\":11532:11594   */\n      or\n        /* \"#utility.yul\":11529:11617   */\n      iszero\n      tag_306\n      jumpi\n        /* \"#utility.yul\":11597:11615   */\n      tag_307\n      tag_171\n      jump\t// in\n    tag_307:\n        /* \"#utility.yul\":11529:11617   */\n    tag_306:\n        /* \"#utility.yul\":11637:11647   */\n      dup1\n        /* \"#utility.yul\":11633:11635   */\n      0x40\n        /* \"#utility.yul\":11626:11648   */\n      mstore\n        /* \"#utility.yul\":11416:11654   */\n      pop\n        /* \"#utility.yul\":11373:11654   */\n      pop\n      pop\n      jump\t// out\n        /* \"#utility.yul\":11660:11789   */\n    tag_173:\n        /* \"#utility.yul\":11694:11700   */\n      0x00\n        /* \"#utility.yul\":11721:11741   */\n      tag_309\n      tag_135\n      jump\t// in\n    tag_309:\n        /* \"#utility.yul\":11711:11741   */\n      swap1\n      pop\n        /* \"#utility.yul\":11750:11783   */\n      tag_310\n        /* \"#utility.yul\":11778:11782   */\n      dup3\n        /* \"#utility.yul\":11770:11776   */\n      dup3\n        /* \"#utility.yul\":11750:11783   */\n      tag_172\n      jump\t// in\n    tag_310:\n        /* \"#utility.yul\":11660:11789   */\n      swap2\n      swap1\n      pop\n      jump\t// out\n        /* \"#utility.yul\":11795:12103   */\n    tag_174:\n        /* \"#utility.yul\":11857:11861   */\n      0x00\n        /* \"#utility.yul\":11947:11965   */\n      0xffffffffffffffff\n        /* \"#utility.yul\":11939:11945   */\n      dup3\n        /* \"#utility.yul\":11936:11966   */\n      gt\n        /* \"#utility.yul\":11933:11989   */\n      iszero\n      tag_312\n      jumpi\n        /* \"#utility.yul\":11969:11987   */\n      tag_313\n      tag_171\n      jump\t// in\n    tag_313:\n        /* \"#utility.yul\":11933:11989   */\n    tag_312:\n        /* \"#utility.yul\":12007:12036   */\n      tag_314\n        /* \"#utility.yul\":12029:12035   */\n      dup3\n        /* \"#utility.yul\":12007:12036   */\n      tag_148\n      jump\t// in\n    tag_314:\n        /* \"#utility.yul\":11999:12036   */\n      swap1\n      pop\n        /* \"#utility.yul\":12091:12095   */\n      0x20\n        /* \"#utility.yul\":12085:12089   */\n      dup2\n        /* \"#utility.yul\":12081:12096   */\n      add\n        /* \"#utility.yul\":12073:12096   */\n      swap1\n      pop\n        /* \"#utility.yul\":11795:12103   */\n      swap2\n      swap1\n      pop\n      jump\t// out\n        /* \"#utility.yul\":12109:12257   */\n    tag_175:\n        /* \"#utility.yul\":12207:12213   */\n      dup3\n        /* \"#utility.yul\":12202:12205   */\n      dup2\n        /* \"#utility.yul\":12197:12200   */\n      dup4\n        /* \"#utility.yul\":12184:12214   */\n      calldatacopy\n        /* \"#utility.yul\":12248:12249   */\n      0x00\n        /* \"#utility.yul\":12239:12245   */\n      dup4\n        /* \"#utility.yul\":12234:12237   */\n      dup4\n        /* \"#utility.yul\":12230:12246   */\n      add\n        /* \"#utility.yul\":12223:12250   */\n      mstore\n        /* \"#utility.yul\":12109:12257   */\n      pop\n      pop\n      pop\n      jump\t// out\n        /* \"#utility.yul\":12263:12688   */\n    tag_176:\n        /* \"#utility.yul\":12341:12346   */\n      0x00\n        /* \"#utility.yul\":12366:12432   */\n      tag_317\n        /* \"#utility.yul\":12382:12431   */\n      tag_318\n        /* \"#utility.yul\":12424:12430   */\n      dup5\n        /* \"#utility.yul\":12382:12431   */\n      tag_174\n      jump\t// in\n    tag_318:\n        /* \"#utility.yul\":12366:12432   */\n      tag_173\n      jump\t// in\n    tag_317:\n        /* \"#utility.yul\":12357:12432   */\n      swap1\n      pop\n        /* \"#utility.yul\":12455:12461   */\n      dup3\n        /* \"#utility.yul\":12448:12453   */\n      dup2\n        /* \"#utility.yul\":12441:12462   */\n      mstore\n        /* \"#utility.yul\":12493:12497   */\n      0x20\n        /* \"#utility.yul\":12486:12491   */\n      dup2\n        /* \"#utility.yul\":12482:12498   */\n      add\n        /* \"#utility.yul\":12531:12534   */\n      dup5\n        /* \"#utility.yul\":12522:12528   */\n      dup5\n        /* \"#utility.yul\":12517:12520   */\n      dup5\n        /* \"#utility.yul\":12513:12529   */\n      add\n        /* \"#utility.yul\":12510:12535   */\n      gt\n        /* \"#utility.yul\":12507:12619   */\n      iszero\n      tag_319\n      jumpi\n        /* \"#utility.yul\":12538:12617   */\n      tag_320\n      tag_170\n      jump\t// in\n    tag_320:\n        /* \"#utility.yul\":12507:12619   */\n    tag_319:\n        /* \"#utility.yul\":12628:12682   */\n      tag_321\n        /* \"#utility.yul\":12675:12681   */\n      dup5\n        /* \"#utility.yul\":12670:12673   */\n      dup3\n        /* \"#utility.yul\":12665:12668   */\n      dup6\n        /* \"#utility.yul\":12628:12682   */\n      tag_175\n      jump\t// in\n    tag_321:\n        /* \"#utility.yul\":12347:12688   */\n      pop\n        /* \"#utility.yul\":12263:12688   */\n      swap4\n      swap3\n      pop\n      pop\n      pop\n      jump\t// out\n        /* \"#utility.yul\":12708:13048   */\n    tag_177:\n        /* \"#utility.yul\":12764:12769   */\n      0x00\n        /* \"#utility.yul\":12813:12816   */\n      dup3\n        /* \"#utility.yul\":12806:12810   */\n      0x1f\n        /* \"#utility.yul\":12798:12804   */\n      dup4\n        /* \"#utility.yul\":12794:12811   */\n      add\n        /* \"#utility.yul\":12790:12817   */\n      slt\n        /* \"#utility.yul\":12780:12902   */\n      tag_323\n      jumpi\n        /* \"#utility.yul\":12821:12900   */\n      tag_324\n      tag_169\n      jump\t// in\n    tag_324:\n        /* \"#utility.yul\":12780:12902   */\n    tag_323:\n        /* \"#utility.yul\":12938:12944   */\n      dup2\n        /* \"#utility.yul\":12925:12945   */\n      calldataload\n        /* \"#utility.yul\":12963:13042   */\n      tag_325\n        /* \"#utility.yul\":13038:13041   */\n      dup5\n        /* \"#utility.yul\":13030:13036   */\n      dup3\n        /* \"#utility.yul\":13023:13027   */\n      0x20\n        /* \"#utility.yul\":13015:13021   */\n      dup7\n        /* \"#utility.yul\":13011:13028   */\n      add\n        /* \"#utility.yul\":12963:13042   */\n      tag_176\n      jump\t// in\n    tag_325:\n        /* \"#utility.yul\":12954:13042   */\n      swap2\n      pop\n        /* \"#utility.yul\":12770:13048   */\n      pop\n        /* \"#utility.yul\":12708:13048   */\n      swap3\n      swap2\n      pop\n      pop\n      jump\t// out\n        /* \"#utility.yul\":13054:13708   */\n    tag_39:\n        /* \"#utility.yul\":13132:13138   */\n      0x00\n        /* \"#utility.yul\":13140:13146   */\n      0x00\n        /* \"#utility.yul\":13189:13191   */\n      0x40\n        /* \"#utility.yul\":13177:13186   */\n      dup4\n        /* \"#utility.yul\":13168:13175   */\n      dup6\n        /* \"#utility.yul\":13164:13187   */\n      sub\n        /* \"#utility.yul\":13160:13192   */\n      slt\n        /* \"#utility.yul\":13157:13276   */\n      iszero\n      tag_327\n      jumpi\n        /* \"#utility.yul\":13195:13274   */\n      tag_328\n      tag_136\n      jump\t// in\n    tag_328:\n        /* \"#utility.yul\":13157:13276   */\n    tag_327:\n        /* \"#utility.yul\":13315:13316   */\n      0x00\n        /* \"#utility.yul\":13340:13393   */\n      tag_329\n        /* \"#utility.yul\":13385:13392   */\n      dup6\n        /* \"#utility.yul\":13376:13382   */\n      dup3\n        /* \"#utility.yul\":13365:13374   */\n      dup7\n        /* \"#utility.yul\":13361:13383   */\n      add\n        /* \"#utility.yul\":13340:13393   */\n      tag_144\n      jump\t// in\n    tag_329:\n        /* \"#utility.yul\":13330:13393   */\n      swap3\n      pop\n        /* \"#utility.yul\":13286:13403   */\n      pop\n        /* \"#utility.yul\":13470:13472   */\n      0x20\n        /* \"#utility.yul\":13459:13468   */\n      dup4\n        /* \"#utility.yul\":13455:13473   */\n      add\n        /* \"#utility.yul\":13442:13474   */\n      calldataload\n        /* \"#utility.yul\":13501:13519   */\n      0xffffffffffffffff\n        /* \"#utility.yul\":13493:13499   */\n      dup2\n        /* \"#utility.yul\":13490:13520   */\n      gt\n        /* \"#utility.yul\":13487:13604   */\n      iszero\n      tag_330\n      jumpi\n        /* \"#utility.yul\":13523:13602   */\n      tag_331\n      tag_137\n      jump\t// in\n    tag_331:\n        /* \"#utility.yul\":13487:13604   */\n    tag_330:\n        /* \"#utility.yul\":13628:13691   */\n      tag_332\n        /* \"#utility.yul\":13683:13690   */\n      dup6\n        /* \"#utility.yul\":13674:13680   */\n      dup3\n        /* \"#utility.yul\":13663:13672   */\n      dup7\n        /* \"#utility.yul\":13659:13681   */\n      add\n        /* \"#utility.yul\":13628:13691   */\n      tag_177\n      jump\t// in\n    tag_332:\n        /* \"#utility.yul\":13618:13691   */\n      swap2\n      pop\n        /* \"#utility.yul\":13413:13701   */\n      pop\n        /* \"#utility.yul\":13054:13708   */\n      swap3\n      pop\n      swap3\n      swap1\n      pop\n      jump\t// out\n        /* \"#utility.yul\":13714:14384   */\n    tag_43:\n        /* \"#utility.yul\":13800:13806   */\n      0x00\n        /* \"#utility.yul\":13808:13814   */\n      0x00\n        /* \"#utility.yul\":13857:13859   */\n      0x40\n        /* \"#utility.yul\":13845:13854   */\n      dup4\n        /* \"#utility.yul\":13836:13843   */\n      dup6\n        /* \"#utility.yul\":13832:13855   */\n      sub\n        /* \"#utility.yul\":13828:13860   */\n      slt\n        /* \"#utility.yul\":13825:13944   */\n      iszero\n      tag_334\n      jumpi\n        /* \"#utility.yul\":13863:13942   */\n      tag_335\n      tag_136\n      jump\t// in\n    tag_335:\n        /* \"#utility.yul\":13825:13944   */\n    tag_334:\n        /* \"#utility.yul\":13983:13984   */\n      0x00\n        /* \"#utility.yul\":14008:14069   */\n      tag_336\n        /* \"#utility.yul\":14061:14068   */\n      dup6\n        /* \"#utility.yul\":14052:14058   */\n      dup3\n        /* \"#utility.yul\":14041:14050   */\n      dup7\n        /* \"#utility.yul\":14037:14059   */\n      add\n        /* \"#utility.yul\":14008:14069   */\n      tag_164\n      jump\t// in\n    tag_336:\n        /* \"#utility.yul\":13998:14069   */\n      swap3\n      pop\n        /* \"#utility.yul\":13954:14079   */\n      pop\n        /* \"#utility.yul\":14146:14148   */\n      0x20\n        /* \"#utility.yul\":14135:14144   */\n      dup4\n        /* \"#utility.yul\":14131:14149   */\n      add\n        /* \"#utility.yul\":14118:14150   */\n      calldataload\n        /* \"#utility.yul\":14177:14195   */\n      0xffffffffffffffff\n        /* \"#utility.yul\":14169:14175   */\n      dup2\n        /* \"#utility.yul\":14166:14196   */\n      gt\n        /* \"#utility.yul\":14163:14280   */\n      iszero\n      tag_337\n      jumpi\n        /* \"#utility.yul\":14199:14278   */\n      tag_338\n      tag_137\n      jump\t// in\n    tag_338:\n        /* \"#utility.yul\":14163:14280   */\n    tag_337:\n        /* \"#utility.yul\":14304:14367   */\n      tag_339\n        /* \"#utility.yul\":14359:14366   */\n      dup6\n        /* \"#utility.yul\":14350:14356   */\n      dup3\n        /* \"#utility.yul\":14339:14348   */\n      dup7\n        /* \"#utility.yul\":14335:14357   */\n      add\n        /* \"#utility.yul\":14304:14367   */\n      tag_177\n      jump\t// in\n    tag_339:\n        /* \"#utility.yul\":14294:14367   */\n      swap2\n      pop\n        /* \"#utility.yul\":14089:14377   */\n      pop\n        /* \"#utility.yul\":13714:14384   */\n      swap3\n      pop\n      swap3\n      swap1\n      pop\n      jump\t// out\n        /* \"#utility.yul\":14390:14612   */\n    tag_46:\n        /* \"#utility.yul\":14483:14487   */\n      0x00\n        /* \"#utility.yul\":14521:14523   */\n      0x20\n        /* \"#utility.yul\":14510:14519   */\n      dup3\n        /* \"#utility.yul\":14506:14524   */\n      add\n        /* \"#utility.yul\":14498:14524   */\n      swap1\n      pop\n        /* \"#utility.yul\":14534:14605   */\n      tag_341\n        /* \"#utility.yul\":14602:14603   */\n      0x00\n        /* \"#utility.yul\":14591:14600   */\n      dup4\n        /* \"#utility.yul\":14587:14604   */\n      add\n        /* \"#utility.yul\":14578:14584   */\n      dup5\n        /* \"#utility.yul\":14534:14605   */\n      tag_168\n      jump\t// in\n    tag_341:\n        /* \"#utility.yul\":14390:14612   */\n      swap3\n      swap2\n      pop\n      pop\n      jump\t// out\n        /* \"#utility.yul\":14618:14781   */\n    tag_178:\n        /* \"#utility.yul\":14758:14773   */\n      0x696e76616c696420696e64657800000000000000000000000000000000000000\n        /* \"#utility.yul\":14754:14755   */\n      0x00\n        /* \"#utility.yul\":14746:14752   */\n      dup3\n        /* \"#utility.yul\":14742:14756   */\n      add\n        /* \"#utility.yul\":14735:14774   */\n      mstore\n        /* \"#utility.yul\":14618:14781   */\n      pop\n      jump\t// out\n        /* \"#utility.yul\":14787:15153   */\n    tag_179:\n        /* \"#utility.yul\":14929:14932   */\n      0x00\n        /* \"#utility.yul\":14950:15017   */\n      tag_344\n        /* \"#utility.yul\":15014:15016   */\n      0x0d\n        /* \"#utility.yul\":15009:15012   */\n      dup4\n        /* \"#utility.yul\":14950:15017   */\n      tag_165\n      jump\t// in\n    tag_344:\n        /* \"#utility.yul\":14943:15017   */\n      swap2\n      pop\n        /* \"#utility.yul\":15026:15119   */\n      tag_345\n        /* \"#utility.yul\":15115:15118   */\n      dup3\n        /* \"#utility.yul\":15026:15119   */\n      tag_178\n      jump\t// in\n    tag_345:\n        /* \"#utility.yul\":15144:15146   */\n      0x20\n        /* \"#utility.yul\":15139:15142   */\n      dup3\n        /* \"#utility.yul\":15135:15147   */\n      add\n        /* \"#utility.yul\":15128:15147   */\n      swap1\n      pop\n        /* \"#utility.yul\":14787:15153   */\n      swap2\n      swap1\n      pop\n      jump\t// out\n        /* \"#utility.yul\":15159:15578   */\n    tag_52:\n        /* \"#utility.yul\":15325:15329   */\n      0x00\n        /* \"#utility.yul\":15363:15365   */\n      0x20\n        /* \"#utility.yul\":15352:15361   */\n      dup3\n        /* \"#utility.yul\":15348:15366   */\n      add\n        /* \"#utility.yul\":15340:15366   */\n      swap1\n      pop\n        /* \"#utility.yul\":15412:15421   */\n      dup2\n        /* \"#utility.yul\":15406:15410   */\n      dup2\n        /* \"#utility.yul\":15402:15422   */\n      sub\n        /* \"#utility.yul\":15398:15399   */\n      0x00\n        /* \"#utility.yul\":15387:15396   */\n      dup4\n        /* \"#utility.yul\":15383:15400   */\n      add\n        /* \"#utility.yul\":15376:15423   */\n      mstore\n        /* \"#utility.yul\":15440:15571   */\n      tag_347\n        /* \"#utility.yul\":15566:15570   */\n      dup2\n        /* \"#utility.yul\":15440:15571   */\n      tag_179\n      jump\t// in\n    tag_347:\n        /* \"#utility.yul\":15432:15571   */\n      swap1\n      pop\n        /* \"#utility.yul\":15159:15578   */\n      swap2\n      swap1\n      pop\n      jump\t// out\n        /* \"#utility.yul\":15584:15764   */\n    tag_55:\n        /* \"#utility.yul\":15632:15709   */\n      0x4e487b7100000000000000000000000000000000000000000000000000000000\n        /* \"#utility.yul\":15629:15630   */\n      0x00\n        /* \"#utility.yul\":15622:15710   */\n      mstore\n        /* \"#utility.yul\":15729:15733   */\n      0x32\n        /* \"#utility.yul\":15726:15727   */\n      0x04\n        /* \"#utility.yul\":15719:15734   */\n      mstore\n        /* \"#utility.yul\":15753:15757   */\n      0x24\n        /* \"#utility.yul\":15750:15751   */\n      0x00\n        /* \"#utility.yul\":15743:15758   */\n      revert\n        /* \"#utility.yul\":15770:15950   */\n    tag_180:\n        /* \"#utility.yul\":15818:15895   */\n      0x4e487b7100000000000000000000000000000000000000000000000000000000\n        /* \"#utility.yul\":15815:15816   */\n      0x00\n        /* \"#utility.yul\":15808:15896   */\n      mstore\n        /* \"#utility.yul\":15915:15919   */\n      0x22\n        /* \"#utility.yul\":15912:15913   */\n      0x04\n        /* \"#utility.yul\":15905:15920   */\n      mstore\n        /* \"#utility.yul\":15939:15943   */\n      0x24\n        /* \"#utility.yul\":15936:15937   */\n      0x00\n        /* \"#utility.yul\":15929:15944   */\n      revert\n        /* \"#utility.yul\":15956:16276   */\n    tag_58:\n        /* \"#utility.yul\":16000:16006   */\n      0x00\n        /* \"#utility.yul\":16037:16038   */\n      0x02\n        /* \"#utility.yul\":16031:16035   */\n      dup3\n        /* \"#utility.yul\":16027:16039   */\n      div\n        /* \"#utility.yul\":16017:16039   */\n      swap1\n      pop\n        /* \"#utility.yul\":16084:16085   */\n      0x01\n        /* \"#utility.yul\":16078:16082   */\n      dup3\n        /* \"#utility.yul\":16074:16086   */\n      and\n        /* \"#utility.yul\":16105:16123   */\n      dup1\n        /* \"#utility.yul\":16095:16176   */\n      tag_351\n      jumpi\n        /* \"#utility.yul\":16161:16165   */\n      0x7f\n        /* \"#utility.yul\":16153:16159   */\n      dup3\n        /* \"#utility.yul\":16149:16166   */\n      and\n        /* \"#utility.yul\":16139:16166   */\n      swap2\n      pop\n        /* \"#utility.yul\":16095:16176   */\n    tag_351:\n        /* \"#utility.yul\":16223:16225   */\n      0x20\n        /* \"#utility.yul\":16215:16221   */\n      dup3\n        /* \"#utility.yul\":16212:16226   */\n      lt\n        /* \"#utility.yul\":16192:16210   */\n      dup2\n        /* \"#utility.yul\":16189:16227   */\n      sub\n        /* \"#utility.yul\":16186:16270   */\n      tag_352\n      jumpi\n        /* \"#utility.yul\":16242:16260   */\n      tag_353\n      tag_180\n      jump\t// in\n    tag_353:\n        /* \"#utility.yul\":16186:16270   */\n    tag_352:\n        /* \"#utility.yul\":16007:16276   */\n      pop\n        /* \"#utility.yul\":15956:16276   */\n      swap2\n      swap1\n      pop\n      jump\t// out\n        /* \"#utility.yul\":16282:16462   */\n    tag_181:\n        /* \"#utility.yul\":16330:16407   */\n      0x4e487b7100000000000000000000000000000000000000000000000000000000\n        /* \"#utility.yul\":16327:16328   */\n      0x00\n        /* \"#utility.yul\":16320:16408   */\n      mstore\n        /* \"#utility.yul\":16427:16431   */\n      0x11\n        /* \"#utility.yul\":16424:16425   */\n      0x04\n        /* \"#utility.yul\":16417:16432   */\n      mstore\n        /* \"#utility.yul\":16451:16455   */\n      0x24\n        /* \"#utility.yul\":16448:16449   */\n      0x00\n        /* \"#utility.yul\":16441:16456   */\n      revert\n        /* \"#utility.yul\":16468:16701   */\n    tag_91:\n        /* \"#utility.yul\":16507:16510   */\n      0x00\n        /* \"#utility.yul\":16530:16554   */\n      tag_356\n        /* \"#utility.yul\":16548:16553   */\n      dup3\n        /* \"#utility.yul\":16530:16554   */\n      tag_142\n      jump\t// in\n    tag_356:\n        /* \"#utility.yul\":16521:16554   */\n      swap2\n      pop\n        /* \"#utility.yul\":16576:16642   */\n      0xffffffffffffffffffffffffffffffffffffffffffffffffffffffffffffffff\n        /* \"#utility.yul\":16569:16574   */\n      dup3\n        /* \"#utility.yul\":16566:16643   */\n      sub\n        /* \"#utility.yul\":16563:16666   */\n      tag_357\n      jumpi\n        /* \"#utility.yul\":16646:16664   */\n      tag_358\n      tag_181\n      jump\t// in\n    tag_358:\n        /* \"#utility.yul\":16563:16666   */\n    tag_357:\n        /* \"#utility.yul\":16693:16694   */\n      0x01\n        /* \"#utility.yul\":16686:16691   */\n      dup3\n        /* \"#utility.yul\":16682:16695   */\n      add\n        /* \"#utility.yul\":16675:16695   */\n      swap1\n      pop\n        /* \"#utility.yul\":16468:16701   */\n      swap2\n      swap1\n      pop\n      jump\t// out\n        /* \"#utility.yul\":16707:16825   */\n    tag_182:\n        /* \"#utility.yul\":16794:16818   */\n      tag_360\n        /* \"#utility.yul\":16812:16817   */\n      dup2\n        /* \"#utility.yul\":16794:16818   */\n      tag_139\n      jump\t// in\n    tag_360:\n        /* \"#utility.yul\":16789:16792   */\n      dup3\n        /* \"#utility.yul\":16782:16819   */\n      mstore\n        /* \"#utility.yul\":16707:16825   */\n      pop\n      pop\n      jump\t// out\n        /* \"#utility.yul\":16831:16972   */\n    tag_183:\n        /* \"#utility.yul\":16880:16884   */\n      0x00\n        /* \"#utility.yul\":16903:16906   */\n      dup2\n        /* \"#utility.yul\":16895:16906   */\n      swap1\n      pop\n        /* \"#utility.yul\":16926:16929   */\n      dup2\n        /* \"#utility.yul\":16923:16924   */\n      0x00\n        /* \"#utility.yul\":16916:16930   */\n      mstore\n        /* \"#utility.yul\":16960:16964   */\n      0x20\n        /* \"#utility.yul\":16957:16958   */\n      0x00\n        /* \"#utility.yul\":16947:16965   */\n      keccak256\n        /* \"#utility.yul\":16939:16965   */\n      swap1\n      pop\n        /* \"#utility.yul\":16831:16972   */\n      swap2\n      swap1\n      pop\n      jump\t// out\n        /* \"#utility.yul\":17002:17833   */\n    tag_184:\n        /* \"#utility.yul\":17087:17090   */\n      0x00\n        /* \"#utility.yul\":17124:17129   */\n      dup2\n        /* \"#utility.yul\":17118:17130   */\n      sload\n        /* \"#utility.yul\":17153:17189   */\n      tag_363\n        /* \"#utility.yul\":17179:17188   */\n      dup2\n        /* \"#utility.yul\":17153:17189   */\n      tag_58\n      jump\t// in\n    tag_363:\n        /* \"#utility.yul\":17205:17276   */\n      tag_364\n        /* \"#utility.yul\":17269:17275   */\n      dup2\n        /* \"#utility.yul\":17264:17267   */\n      dup7\n        /* \"#utility.yul\":17205:17276   */\n      tag_165\n      jump\t// in\n    tag_364:\n        /* \"#utility.yul\":17198:17276   */\n      swap5\n      pop\n        /* \"#utility.yul\":17307:17308   */\n      0x01\n        /* \"#utility.yul\":17296:17305   */\n      dup3\n        /* \"#utility.yul\":17292:17309   */\n      and\n        /* \"#utility.yul\":17323:17324   */\n      0x00\n        /* \"#utility.yul\":17318:17482   */\n      dup2\n      eq\n      tag_366\n      jumpi\n        /* \"#utility.yul\":17496:17497   */\n      0x01\n        /* \"#utility.yul\":17491:17827   */\n      dup2\n      eq\n      tag_367\n      jumpi\n        /* \"#utility.yul\":17285:17827   */\n      jump(tag_365)\n        /* \"#utility.yul\":17318:17482   */\n    tag_366:\n        /* \"#utility.yul\":17402:17406   */\n      0xff\n        /* \"#utility.yul\":17398:17407   */\n      not\n        /* \"#utility.yul\":17387:17396   */\n      dup4\n        /* \"#utility.yul\":17383:17408   */\n      and\n        /* \"#utility.yul\":17378:17381   */\n      dup7\n        /* \"#utility.yul\":17371:17409   */\n      mstore\n        /* \"#utility.yul\":17462:17468   */\n      dup2\n        /* \"#utility.yul\":17455:17469   */\n      iszero\n        /* \"#utility.yul\":17448:17470   */\n      iszero\n        /* \"#utility.yul\":17442:17446   */\n      0x20\n        /* \"#utility.yul\":17438:17471   */\n      mul\n        /* \"#utility.yul\":17433:17436   */\n      dup7\n        /* \"#utility.yul\":17429:17472   */\n      add\n        /* \"#utility.yul\":17422:17472   */\n      swap4\n      pop\n        /* \"#utility.yul\":17318:17482   */\n      jump(tag_365)\n        /* \"#utility.yul\":17491:17827   */\n    tag_367:\n        /* \"#utility.yul\":17558:17596   */\n      tag_368\n        /* \"#utility.yul\":17590:17595   */\n      dup6\n        /* \"#utility.yul\":17558:17596   */\n      tag_183\n      jump\t// in\n    tag_368:\n        /* \"#utility.yul\":17618:17619   */\n      0x00\n        /* \"#utility.yul\":17632:17786   */\n    tag_369:\n        /* \"#utility.yul\":17646:17652   */\n      dup4\n        /* \"#utility.yul\":17643:17644   */\n      dup2\n        /* \"#utility.yul\":17640:17653   */\n      lt\n        /* \"#utility.yul\":17632:17786   */\n      iszero\n      tag_371\n      jumpi\n        /* \"#utility.yul\":17720:17727   */\n      dup2\n        /* \"#utility.yul\":17714:17728   */\n      sload\n        /* \"#utility.yul\":17710:17711   */\n      dup2\n        /* \"#utility.yul\":17705:17708   */\n      dup10\n        /* \"#utility.yul\":17701:17712   */\n      add\n        /* \"#utility.yul\":17694:17729   */\n      mstore\n        /* \"#utility.yul\":17770:17771   */\n      0x01\n        /* \"#utility.yul\":17761:17768   */\n      dup3\n        /* \"#utility.yul\":17757:17772   */\n      add\n        /* \"#utility.yul\":17746:17772   */\n      swap2\n      pop\n        /* \"#utility.yul\":17668:17672   */\n      0x20\n        /* \"#utility.yul\":17665:17666   */\n      dup2\n        /* \"#utility.yul\":17661:17673   */\n      add\n        /* \"#utility.yul\":17656:17673   */\n      swap1\n      pop\n        /* \"#utility.yul\":17632:17786   */\n      jump(tag_369)\n    tag_371:\n        /* \"#utility.yul\":17815:17816   */\n      dup1\n        /* \"#utility.yul\":17810:17813   */\n      dup9\n        /* \"#utility.yul\":17806:17817   */\n      add\n        /* \"#utility.yul\":17799:17817   */\n      swap6\n      pop\n        /* \"#utility.yul\":17498:17827   */\n      pop\n      pop\n        /* \"#utility.yul\":17285:17827   */\n    tag_365:\n      pop\n        /* \"#utility.yul\":17091:17833   */\n      pop\n      pop\n        /* \"#utility.yul\":17002:17833   */\n      swap3\n      swap2\n      pop\n      pop\n      jump\t// out\n        /* \"#utility.yul\":17839:18568   */\n    tag_114:\n        /* \"#utility.yul\":18053:18057   */\n      0x00\n        /* \"#utility.yul\":18091:18094   */\n      0x80\n        /* \"#utility.yul\":18080:18089   */\n      dup3\n        /* \"#utility.yul\":18076:18095   */\n      add\n        /* \"#utility.yul\":18068:18095   */\n      swap1\n      pop\n        /* \"#utility.yul\":18105:18176   */\n      tag_373\n        /* \"#utility.yul\":18173:18174   */\n      0x00\n        /* \"#utility.yul\":18162:18171   */\n      dup4\n        /* \"#utility.yul\":18158:18175   */\n      add\n        /* \"#utility.yul\":18149:18155   */\n      dup8\n        /* \"#utility.yul\":18105:18176   */\n      tag_182\n      jump\t// in\n    tag_373:\n        /* \"#utility.yul\":18186:18258   */\n      tag_374\n        /* \"#utility.yul\":18254:18256   */\n      0x20\n        /* \"#utility.yul\":18243:18252   */\n      dup4\n        /* \"#utility.yul\":18239:18257   */\n      add\n        /* \"#utility.yul\":18230:18236   */\n      dup7\n        /* \"#utility.yul\":18186:18258   */\n      tag_168\n      jump\t// in\n    tag_374:\n        /* \"#utility.yul\":18305:18314   */\n      dup2\n        /* \"#utility.yul\":18299:18303   */\n      dup2\n        /* \"#utility.yul\":18295:18315   */\n      sub\n        /* \"#utility.yul\":18290:18292   */\n      0x40\n        /* \"#utility.yul\":18279:18288   */\n      dup4\n        /* \"#utility.yul\":18275:18293   */\n      add\n        /* \"#utility.yul\":18268:18316   */\n      mstore\n        /* \"#utility.yul\":18333:18408   */\n      tag_375\n        /* \"#utility.yul\":18403:18407   */\n      dup2\n        /* \"#utility.yul\":18394:18400   */\n      dup6\n        /* \"#utility.yul\":18333:18408   */\n      tag_184\n      jump\t// in\n    tag_375:\n        /* \"#utility.yul\":18325:18408   */\n      swap1\n      pop\n        /* \"#utility.yul\":18455:18464   */\n      dup2\n        /* \"#utility.yul\":18449:18453   */\n      dup2\n        /* \"#utility.yul\":18445:18465   */\n      sub\n        /* \"#utility.yul\":18440:18442   */\n      0x60\n        /* \"#utility.yul\":18429:18438   */\n      dup4\n        /* \"#utility.yul\":18425:18443   */\n      add\n        /* \"#utility.yul\":18418:18466   */\n      mstore\n        /* \"#utility.yul\":18483:18561   */\n      tag_376\n        /* \"#utility.yul\":18556:18560   */\n      dup2\n        /* \"#utility.yul\":18547:18553   */\n      dup5\n        /* \"#utility.yul\":18483:18561   */\n      tag_166\n      jump\t// in\n    tag_376:\n        /* \"#utility.yul\":18475:18561   */\n      swap1\n      pop\n        /* \"#utility.yul\":17839:18568   */\n      swap6\n      swap5\n      pop\n      pop\n      pop\n      pop\n      pop\n      jump\t// out\n        /* \"#utility.yul\":18574:18667   */\n    tag_185:\n        /* \"#utility.yul\":18611:18617   */\n      0x00\n        /* \"#utility.yul\":18658:18660   */\n      0x20\n        /* \"#utility.yul\":18653:18655   */\n      0x1f\n        /* \"#utility.yul\":18646:18651   */\n      dup4\n        /* \"#utility.yul\":18642:18656   */\n      add\n        /* \"#utility.yul\":18638:18661   */\n      div\n        /* \"#utility.yul\":18628:18661   */\n      swap1\n      pop\n        /* \"#utility.yul\":18574:18667   */\n      swap2\n      swap1\n      pop\n      jump\t// out\n        /* \"#utility.yul\":18673:18780   */\n    tag_186:\n        /* \"#utility.yul\":18717:18725   */\n      0x00\n        /* \"#utility.yul\":18767:18772   */\n      dup3\n        /* \"#utility.yul\":18761:18765   */\n      dup3\n        /* \"#utility.yul\":18757:18773   */\n      shl\n        /* \"#utility.yul\":18736:18773   */\n      swap1\n      pop\n        /* \"#utility.yul\":18673:18780   */\n      swap3\n      swap2\n      pop\n      pop\n      jump\t// out\n        /* \"#utility.yul\":18786:19179   */\n    tag_187:\n        /* \"#utility.yul\":18855:18861   */\n      0x00\n        /* \"#utility.yul\":18905:18906   */\n      0x08\n        /* \"#utility.yul\":18893:18903   */\n      dup4\n        /* \"#utility.yul\":18889:18907   */\n      mul\n        /* \"#utility.yul\":18928:19025   */\n      tag_380\n        /* \"#utility.yul\":18958:19024   */\n      0xffffffffffffffffffffffffffffffffffffffffffffffffffffffffffffffff\n        /* \"#utility.yul\":18947:18956   */\n      dup3\n        /* \"#utility.yul\":18928:19025   */\n      tag_186\n      jump\t// in\n    tag_380:\n        /* \"#utility.yul\":19046:19085   */\n      tag_381\n        /* \"#utility.yul\":19076:19084   */\n      dup7\n        /* \"#utility.yul\":19065:19074   */\n      dup4\n        /* \"#utility.yul\":19046:19085   */\n      tag_186\n      jump\t// in\n    tag_381:\n        /* \"#utility.yul\":19034:19085   */\n      swap6\n      pop\n        /* \"#utility.yul\":19118:19122   */\n      dup1\n        /* \"#utility.yul\":19114:19123   */\n      not\n        /* \"#utility.yul\":19107:19112   */\n      dup5\n        /* \"#utility.yul\":19103:19124   */\n      and\n        /* \"#utility.yul\":19094:19124   */\n      swap4\n      pop\n        /* \"#utility.yul\":19167:19171   */\n      dup1\n        /* \"#utility.yul\":19157:19165   */\n      dup7\n        /* \"#utility.yul\":19153:19172   */\n      and\n        /* \"#utility.yul\":19146:19151   */\n      dup5\n        /* \"#utility.yul\":19143:19173   */\n      or\n        /* \"#utility.yul\":19133:19173   */\n      swap3\n      pop\n        /* \"#utility.yul\":18862:19179   */\n      pop\n      pop\n        /* \"#utility.yul\":18786:19179   */\n      swap4\n      swap3\n      pop\n      pop\n      pop\n      jump\t// out\n        /* \"#utility.yul\":19185:19245   */\n    tag_188:\n        /* \"#utility.yul\":19213:19216   */\n      0x00\n        /* \"#utility.yul\":19234:19239   */\n      dup2\n        /* \"#utility.yul\":19227:19239   */\n      swap1\n      pop\n        /* \"#utility.yul\":19185:19245   */\n      swap2\n      swap1\n      pop\n      jump\t// out\n        /* \"#utility.yul\":19251:19393   */\n    tag_189:\n        /* \"#utility.yul\":19301:19310   */\n      0x00\n        /* \"#utility.yul\":19334:19387   */\n      tag_384\n        /* \"#utility.yul\":19352:19386   */\n      tag_385\n        /* \"#utility.yul\":19361:19385   */\n      tag_386\n        /* \"#utility.yul\":19379:19384   */\n      dup5\n        /* \"#utility.yul\":19361:19385   */\n      tag_142\n      jump\t// in\n    tag_386:\n        /* \"#utility.yul\":19352:19386   */\n      tag_188\n      jump\t// in\n    tag_385:\n        /* \"#utility.yul\":19334:19387   */\n      tag_142\n      jump\t// in\n    tag_384:\n        /* \"#utility.yul\":19321:19387   */\n      swap1\n      pop\n        /* \"#utility.yul\":19251:19393   */\n      swap2\n      swap1\n      pop\n      jump\t// out\n        /* \"#utility.yul\":19399:19474   */\n    tag_190:\n        /* \"#utility.yul\":19442:19445   */\n      0x00\n        /* \"#utility.yul\":19463:19468   */\n      dup2\n        /* \"#utility.yul\":19456:19468   */\n      swap1\n      pop\n        /* \"#utility.yul\":19399:19474   */\n      swap2\n      swap1\n      pop\n      jump\t// out\n        /* \"#utility.yul\":19480:19749   */\n    tag_191:\n        /* \"#utility.yul\":19590:19629   */\n      tag_389\n        /* \"#utility.yul\":19621:19628   */\n      dup4\n        /* \"#utility.yul\":19590:19629   */\n      tag_189\n      jump\t// in\n    tag_389:\n        /* \"#utility.yul\":19651:19742   */\n      tag_390\n        /* \"#utility.yul\":19700:19741   */\n      tag_391\n        /* \"#utility.yul\":19724:19740   */\n      dup3\n        /* \"#utility.yul\":19700:19741   */\n      tag_190\n      jump\t// in\n    tag_391:\n        /* \"#utility.yul\":19692:19698   */\n      dup5\n        /* \"#utility.yul\":19685:19689   */\n      dup5\n        /* \"#utility.yul\":19679:19690   */\n      sload\n        /* \"#utility.yul\":19651:19742   */\n      tag_187\n      jump\t// in\n    tag_390:\n        /* \"#utility.yul\":19645:19649   */\n      dup3\n        /* \"#utility.yul\":19638:19743   */\n      sstore\n        /* \"#utility.yul\":19556:19749   */\n      pop\n        /* \"#utility.yul\":19480:19749   */\n      pop\n      pop\n      pop\n      jump\t// out\n        /* \"#utility.yul\":19755:19828   */\n    tag_192:\n        /* \"#utility.yul\":19800:19803   */\n      0x00\n        /* \"#utility.yul\":19821:19822   */\n      0x00\n        /* \"#utility.yul\":19814:19822   */\n      swap1\n      pop\n        /* \"#utility.yul\":19755:19828   */\n      swap1\n      jump\t// out\n        /* \"#utility.yul\":19834:20023   */\n    tag_193:\n        /* \"#utility.yul\":19911:19943   */\n      tag_394\n      tag_192\n      jump\t// in\n    tag_394:\n        /* \"#utility.yul\":19952:20017   */\n      tag_395\n        /* \"#utility.yul\":20010:20016   */\n      dup2\n        /* \"#utility.yul\":20002:20008   */\n      dup5\n        /* \"#utility.yul\":19996:20000   */\n      dup5\n        /* \"#utility.yul\":19952:20017   */\n      tag_191\n      jump\t// in\n    tag_395:\n        /* \"#utility.yul\":19887:20023   */\n      pop\n        /* \"#utility.yul\":19834:20023   */\n      pop\n      pop\n      jump\t// out\n        /* \"#utility.yul\":20029:20215   */\n    tag_194:\n        /* \"#utility.yul\":20089:20209   */\n    tag_397:\n        /* \"#utility.yul\":20106:20109   */\n      dup2\n        /* \"#utility.yul\":20099:20104   */\n      dup2\n        /* \"#utility.yul\":20096:20110   */\n      lt\n        /* \"#utility.yul\":20089:20209   */\n      iszero\n      tag_399\n      jumpi\n        /* \"#utility.yul\":20160:20199   */\n      tag_400\n        /* \"#utility.yul\":20197:20198   */\n      0x00\n        /* \"#utility.yul\":20190:20195   */\n      dup3\n        /* \"#utility.yul\":20160:20199   */\n      tag_193\n      jump\t// in\n    tag_400:\n        /* \"#utility.yul\":20133:20134   */\n      0x01\n        /* \"#utility.yul\":20126:20131   */\n      dup2\n        /* \"#utility.yul\":20122:20135   */\n      add\n        /* \"#utility.yul\":20113:20135   */\n      swap1\n      pop\n        /* \"#utility.yul\":20089:20209   */\n      jump(tag_397)\n    tag_399:\n        /* \"#utility.yul\":20029:20215   */\n      pop\n      pop\n      jump\t// out\n        /* \"#utility.yul\":20221:20764   */\n    tag_195:\n        /* \"#utility.yul\":20322:20324   */\n      0x1f\n        /* \"#utility.yul\":20317:20320   */\n      dup3\n        /* \"#utility.yul\":20314:20325   */\n      gt\n        /* \"#utility.yul\":20311:20757   */\n      iszero\n      tag_402\n      jumpi\n        /* \"#utility.yul\":20356:20394   */\n      tag_403\n        /* \"#utility.yul\":20388:20393   */\n      dup2\n        /* \"#utility.yul\":20356:20394   */\n      tag_183\n      jump\t// in\n    tag_403:\n        /* \"#utility.yul\":20440:20469   */\n      tag_404\n        /* \"#utility.yul\":20458:20468   */\n      dup5\n        /* \"#utility.yul\":20440:20469   */\n      tag_185\n      jump\t// in\n    tag_404:\n        /* \"#utility.yul\":20430:20438   */\n      dup2\n        /* \"#utility.yul\":20426:20470   */\n      add\n        /* \"#utility.yul\":20623:20625   */\n      0x20\n        /* \"#utility.yul\":20611:20621   */\n      dup6\n        /* \"#utility.yul\":20608:20626   */\n      lt\n        /* \"#utility.yul\":20605:20654   */\n      iszero\n      tag_405\n      jumpi\n        /* \"#utility.yul\":20644:20652   */\n      dup2\n        /* \"#utility.yul\":20629:20652   */\n      swap1\n      pop\n        /* \"#utility.yul\":20605:20654   */\n    tag_405:\n        /* \"#utility.yul\":20667:20747   */\n      tag_406\n        /* \"#utility.yul\":20723:20745   */\n      tag_407\n        /* \"#utility.yul\":20741:20744   */\n      dup6\n        /* \"#utility.yul\":20723:20745   */\n      tag_185\n      jump\t// in\n    tag_407:\n        /* \"#utility.yul\":20713:20721   */\n      dup4\n        /* \"#utility.yul\":20709:20746   */\n      add\n        /* \"#utility.yul\":20696:20707   */\n      dup3\n        /* \"#utility.yul\":20667:20747   */\n      tag_194\n      jump\t// in\n    tag_406:\n        /* \"#utility.yul\":20326:20757   */\n      pop\n      pop\n        /* \"#utility.yul\":20311:20757   */\n    tag_402:\n        /* \"#utility.yul\":20221:20764   */\n      pop\n      pop\n      pop\n      jump\t// out\n        /* \"#utility.yul\":20770:20887   */\n    tag_196:\n        /* \"#utility.yul\":20824:20832   */\n      0x00\n        /* \"#utility.yul\":20874:20879   */\n      dup3\n        /* \"#utility.yul\":20868:20872   */\n      dup3\n        /* \"#utility.yul\":20864:20880   */\n      shr\n        /* \"#utility.yul\":20843:20880   */\n      swap1\n      pop\n        /* \"#utility.yul\":20770:20887   */\n      swap3\n      swap2\n      pop\n      pop\n      jump\t// out\n        /* \"#utility.yul\":20893:21062   */\n    tag_197:\n        /* \"#utility.yul\":20937:20943   */\n      0x00\n        /* \"#utility.yul\":20970:21021   */\n      tag_410\n        /* \"#utility.yul\":21018:21019   */\n      0x00\n        /* \"#utility.yul\":21014:21020   */\n      not\n        /* \"#utility.yul\":21006:21011   */\n      dup5\n        /* \"#utility.yul\":21003:21004   */\n      0x08\n        /* \"#utility.yul\":20999:21012   */\n      mul\n        /* \"#utility.yul\":20970:21021   */\n      tag_196\n      jump\t// in\n    tag_410:\n        /* \"#utility.yul\":20966:21022   */\n      not\n        /* \"#utility.yul\":21051:21055   */\n      dup1\n        /* \"#utility.yul\":21045:21049   */\n      dup4\n        /* \"#utility.yul\":21041:21056   */\n      and\n        /* \"#utility.yul\":21031:21056   */\n      swap2\n      pop\n        /* \"#utility.yul\":20944:21062   */\n      pop\n        /* \"#utility.yul\":20893:21062   */\n      swap3\n      swap2\n      pop\n      pop\n      jump\t// out\n        /* \"#utility.yul\":21067:21362   */\n    tag_198:\n        /* \"#utility.yul\":21143:21147   */\n      0x00\n        /* \"#utility.yul\":21289:21318   */\n      tag_412\n        /* \"#utility.yul\":21314:21317   */\n      dup4\n        /* \"#utility.yul\":21308:21312   */\n      dup4\n        /* \"#utility.yul\":21289:21318   */\n      tag_197\n      jump\t// in\n    tag_412:\n        /* \"#utility.yul\":21281:21318   */\n      swap2\n      pop\n        /* \"#utility.yul\":21351:21354   */\n      dup3\n        /* \"#utility.yul\":21348:21349   */\n      0x02\n        /* \"#utility.yul\":21344:21355   */\n      mul\n        /* \"#utility.yul\":21338:21342   */\n      dup3\n        /* \"#utility.yul\":21335:21356   */\n      or\n        /* \"#utility.yul\":21327:21356   */\n      swap1\n      pop\n        /* \"#utility.yul\":21067:21362   */\n      swap3\n      swap2\n      pop\n      pop\n      jump\t// out\n        /* \"#utility.yul\":21367:22762   */\n    tag_119:\n        /* \"#utility.yul\":21484:21521   */\n      tag_414\n        /* \"#utility.yul\":21517:21520   */\n      dup3\n        /* \"#utility.yul\":21484:21521   */\n      tag_145\n      jump\t// in\n    tag_414:\n        /* \"#utility.yul\":21586:21604   */\n      0xffffffffffffffff\n        /* \"#utility.yul\":21578:21584   */\n      dup2\n        /* \"#utility.yul\":21575:21605   */\n      gt\n        /* \"#utility.yul\":21572:21628   */\n      iszero\n      tag_415\n      jumpi\n        /* \"#utility.yul\":21608:21626   */\n      tag_416\n      tag_171\n      jump\t// in\n    tag_416:\n        /* \"#utility.yul\":21572:21628   */\n    tag_415:\n        /* \"#utility.yul\":21652:21690   */\n      tag_417\n        /* \"#utility.yul\":21684:21688   */\n      dup3\n        /* \"#utility.yul\":21678:21689   */\n      sload\n        /* \"#utility.yul\":21652:21690   */\n      tag_58\n      jump\t// in\n    tag_417:\n        /* \"#utility.yul\":21737:21804   */\n      tag_418\n        /* \"#utility.yul\":21797:21803   */\n      dup3\n        /* \"#utility.yul\":21789:21795   */\n      dup3\n        /* \"#utility.yul\":21783:21787   */\n      dup6\n        /* \"#utility.yul\":21737:21804   */\n      tag_195\n      jump\t// in\n    tag_418:\n        /* \"#utility.yul\":21831:21832   */\n      0x00\n        /* \"#utility.yul\":21855:21859   */\n      0x20\n        /* \"#utility.yul\":21842:21859   */\n      swap1\n      pop\n        /* \"#utility.yul\":21887:21889   */\n      0x1f\n        /* \"#utility.yul\":21879:21885   */\n      dup4\n        /* \"#utility.yul\":21876:21890   */\n      gt\n        /* \"#utility.yul\":21904:21905   */\n      0x01\n        /* \"#utility.yul\":21899:22517   */\n      dup2\n      eq\n      tag_420\n      jumpi\n        /* \"#utility.yul\":22561:22562   */\n      0x00\n        /* \"#utility.yul\":22578:22584   */\n      dup5\n        /* \"#utility.yul\":22575:22652   */\n      iszero\n      tag_421\n      jumpi\n        /* \"#utility.yul\":22627:22636   */\n      dup3\n        /* \"#utility.yul\":22622:22625   */\n      dup8\n        /* \"#utility.yul\":22618:22637   */\n      add\n        /* \"#utility.yul\":22612:22638   */\n      mload\n        /* \"#utility.yul\":22603:22638   */\n      swap1\n      pop\n        /* \"#utility.yul\":22575:22652   */\n    tag_421:\n        /* \"#utility.yul\":22678:22745   */\n      tag_422\n        /* \"#utility.yul\":22738:22744   */\n      dup6\n        /* \"#utility.yul\":22731:22736   */\n      dup3\n        /* \"#utility.yul\":22678:22745   */\n      tag_198\n      jump\t// in\n    tag_422:\n        /* \"#utility.yul\":22672:22676   */\n      dup7\n        /* \"#utility.yul\":22665:22746   */\n      sstore\n        /* \"#utility.yul\":22534:22756   */\n      pop\n        /* \"#utility.yul\":21869:22756   */\n      jump(tag_419)\n        /* \"#utility.yul\":21899:22517   */\n    tag_420:\n        /* \"#utility.yul\":21951:21955   */\n      0x1f\n        /* \"#utility.yul\":21947:21956   */\n      not\n        /* \"#utility.yul\":21939:21945   */\n      dup5\n        /* \"#utility.yul\":21935:21957   */\n      and\n        /* \"#utility.yul\":21985:22022   */\n      tag_423\n        /* \"#utility.yul\":22017:22021   */\n      dup7\n        /* \"#utility.yul\":21985:22022   */\n      tag_183\n      jump\t// in\n    tag_423:\n        /* \"#utility.yul\":22044:22045   */\n      0x00\n        /* \"#utility.yul\":22058:22266   */\n    tag_424:\n        /* \"#utility.yul\":22072:22079   */\n      dup3\n        /* \"#utility.yul\":22069:22070   */\n      dup2\n        /* \"#utility.yul\":22066:22080   */\n      lt\n        /* \"#utility.yul\":22058:22266   */\n      iszero\n      tag_426\n      jumpi\n        /* \"#utility.yul\":22151:22160   */\n      dup5\n        /* \"#utility.yul\":22146:22149   */\n      dup10\n        /* \"#utility.yul\":22142:22161   */\n      add\n        /* \"#utility.yul\":22136:22162   */\n      mload\n        /* \"#utility.yul\":22128:22134   */\n      dup3\n        /* \"#utility.yul\":22121:22163   */\n      sstore\n        /* \"#utility.yul\":22202:22203   */\n      0x01\n        /* \"#utility.yul\":22194:22200   */\n      dup3\n        /* \"#utility.yul\":22190:22204   */\n      add\n        /* \"#utility.yul\":22180:22204   */\n      swap2\n      pop\n        /* \"#utility.yul\":22249:22251   */\n      0x20\n        /* \"#utility.yul\":22238:22247   */\n      dup6\n        /* \"#utility.yul\":22234:22252   */\n      add\n        /* \"#utility.yul\":22221:22252   */\n      swap5\n      pop\n        /* \"#utility.yul\":22095:22099   */\n      0x20\n        /* \"#utility.yul\":22092:22093   */\n      dup2\n        /* \"#utility.yul\":22088:22100   */\n      add\n        /* \"#utility.yul\":22083:22100   */\n      swap1\n      pop\n        /* \"#utility.yul\":22058:22266   */\n      jump(tag_424)\n    tag_426:\n        /* \"#utility.yul\":22294:22300   */\n      dup7\n        /* \"#utility.yul\":22285:22292   */\n      dup4\n        /* \"#utility.yul\":22282:22301   */\n      lt\n        /* \"#utility.yul\":22279:22458   */\n      iszero\n      tag_427\n      jumpi\n        /* \"#utility.yul\":22352:22361   */\n      dup5\n        /* \"#utility.yul\":22347:22350   */\n      dup10\n        /* \"#utility.yul\":22343:22362   */\n      add\n        /* \"#utility.yul\":22337:22363   */\n      mload\n        /* \"#utility.yul\":22395:22443   */\n      tag_428\n        /* \"#utility.yul\":22437:22441   */\n      0x1f\n        /* \"#utility.yul\":22429:22435   */\n      dup10\n        /* \"#utility.yul\":22425:22442   */\n      and\n        /* \"#utility.yul\":22414:22423   */\n      dup3\n        /* \"#utility.yul\":22395:22443   */\n      tag_197\n      jump\t// in\n    tag_428:\n        /* \"#utility.yul\":22387:22393   */\n      dup4\n        /* \"#utility.yul\":22380:22444   */\n      sstore\n        /* \"#utility.yul\":22302:22458   */\n      pop\n        /* \"#utility.yul\":22279:22458   */\n    tag_427:\n        /* \"#utility.yul\":22504:22505   */\n      0x01\n        /* \"#utility.yul\":22500:22501   */\n      0x02\n        /* \"#utility.yul\":22492:22498   */\n      dup9\n        /* \"#utility.yul\":22488:22502   */\n      mul\n        /* \"#utility.yul\":22484:22506   */\n      add\n        /* \"#utility.yul\":22478:22482   */\n      dup9\n        /* \"#utility.yul\":22471:22507   */\n      sstore\n        /* \"#utility.yul\":21906:22517   */\n      pop\n      pop\n      pop\n        /* \"#utility.yul\":21869:22756   */\n    tag_419:\n      pop\n        /* \"#utility.yul\":21459:22762   */\n      pop\n      pop\n      pop\n        /* \"#utility.yul\":21367:22762   */\n      pop\n      pop\n      jump\t// out\n        /* \"#utility.yul\":22768:22962   */\n    tag_132:\n        /* \"#utility.yul\":22808:22812   */\n      0x00\n        /* \"#utility.yul\":22828:22848   */\n      tag_430\n        /* \"#utility.yul\":22846:22847   */\n      dup3\n        /* \"#utility.yul\":22828:22848   */\n      tag_142\n      jump\t// in\n    tag_430:\n        /* \"#utility.yul\":22823:22848   */\n      swap2\n      pop\n        /* \"#utility.yul\":22862:22882   */\n      tag_431\n        /* \"#utility.yul\":22880:22881   */\n      dup4\n        /* \"#utility.yul\":22862:22882   */\n      tag_142\n      jump\t// in\n    tag_431:\n        /* \"#utility.yul\":22857:22882   */\n      swap3\n      pop\n        /* \"#utility.yul\":22906:22907   */\n      dup3\n        /* \"#utility.yul\":22903:22904   */\n      dup3\n        /* \"#utility.yul\":22899:22908   */\n      sub\n        /* \"#utility.yul\":22891:22908   */\n      swap1\n      pop\n        /* \"#utility.yul\":22930:22931   */\n      dup2\n        /* \"#utility.yul\":22924:22928   */\n      dup2\n        /* \"#utility.yul\":22921:22932   */\n      gt\n        /* \"#utility.yul\":22918:22955   */\n      iszero\n      tag_432\n      jumpi\n        /* \"#utility.yul\":22935:22953   */\n      tag_433\n      tag_181\n      jump\t// in\n    tag_433:\n        /* \"#utility.yul\":22918:22955   */\n    tag_432:\n        /* \"#utility.yul\":22768:22962   */\n      swap3\n      swap2\n      pop\n      pop\n      jump\t// out\n\n    auxdata: 0xa2646970667358221220f8ffcc7935335fdbac7f9cf05f6c8fb45368e2806b2463383f2a79f963e3de9564736f6c634300081c0033\n}\n",
				"bytecode": {
					"linkReferences": {},
					"object": "608060405234801561000f575f5ffd5b505f60405180606001604052806040518060400160405280600b81526020017f48656c6c6f20776f726c6400000000000000000000000000000000000000000081525081526020015f600281111561006a5761006961012d565b5b81526020015f81525090505f5f3373ffffffffffffffffffffffffffffffffffffffff1673ffffffffffffffffffffffffffffffffffffffff1681526020019081526020015f2081908060018154018082558091505060019003905f5260205f2090600302015f909190919091505f820151815f0190816100eb9190610397565b506020820151816001015f6101000a81548160ff021916908360028111156101165761011561012d565b5b021790555060408201518160020155505050610466565b7f4e487b71000000000000000000000000000000000000000000000000000000005f52602160045260245ffd5b5f81519050919050565b7f4e487b71000000000000000000000000000000000000000000000000000000005f52604160045260245ffd5b7f4e487b71000000000000000000000000000000000000000000000000000000005f52602260045260245ffd5b5f60028204905060018216806101d557607f821691505b6020821081036101e8576101e7610191565b5b50919050565b5f819050815f5260205f209050919050565b5f6020601f8301049050919050565b5f82821b905092915050565b5f6008830261024a7fffffffffffffffffffffffffffffffffffffffffffffffffffffffffffffffff8261020f565b610254868361020f565b95508019841693508086168417925050509392505050565b5f819050919050565b5f819050919050565b5f61029861029361028e8461026c565b610275565b61026c565b9050919050565b5f819050919050565b6102b18361027e565b6102c56102bd8261029f565b84845461021b565b825550505050565b5f5f905090565b6102dc6102cd565b6102e78184846102a8565b505050565b5b8181101561030a576102ff5f826102d4565b6001810190506102ed565b5050565b601f82111561034f57610320816101ee565b61032984610200565b81016020851015610338578190505b61034c61034485610200565b8301826102ec565b50505b505050565b5f82821c905092915050565b5f61036f5f1984600802610354565b1980831691505092915050565b5f6103878383610360565b9150826002028217905092915050565b6103a08261015a565b67ffffffffffffffff8111156103b9576103b8610164565b5b6103c382546101be565b6103ce82828561030e565b5f60209050601f8311600181146103ff575f84156103ed578287015190505b6103f7858261037c565b86555061045e565b601f19841661040d866101ee565b5f5b828110156104345784890151825560018201915060208501945060208101905061040f565b86831015610451578489015161044d601f891682610360565b8355505b6001600288020188555050505b505050505050565b611645806104735f395ff3fe608060405234801561000f575f5ffd5b506004361061007b575f3560e01c80638cdd8902116100595780638cdd8902146100fb5780639ca3a5ed1461012b578063b68200021461015d578063e8f36962146101795761007b565b806308c467111461007f578063251101f5146100af57806363ff1368146100df575b5f5ffd5b61009960048036038101906100949190610b0f565b6101a9565b6040516100a69190610c8c565b60405180910390f35b6100c960048036038101906100c49190610cac565b610372565b6040516100d69190610ddf565b60405180910390f35b6100f960048036038101906100f49190610e22565b6104dd565b005b61011560048036038101906101109190610e60565b6105d7565b6040516101229190610c8c565b60405180910390f35b61014560048036038101906101409190610b0f565b6105f0565b60405161015493929190610ef1565b60405180910390f35b61017760048036038101906101729190611059565b6106c1565b005b610193600480360381019061018e91906110b3565b610908565b6040516101a0919061110d565b60405180910390f35b6101b1610a40565b5f5f8473ffffffffffffffffffffffffffffffffffffffff1673ffffffffffffffffffffffffffffffffffffffff1681526020019081526020015f20805490508210610232576040517f08c379a000000000000000000000000000000000000000000000000000000000815260040161022990611170565b60405180910390fd5b5f5f8473ffffffffffffffffffffffffffffffffffffffff1673ffffffffffffffffffffffffffffffffffffffff1681526020019081526020015f2082815481106102805761027f61118e565b5b905f5260205f2090600302016040518060600160405290815f820180546102a6906111e8565b80601f01602080910402602001604051908101604052809291908181526020018280546102d2906111e8565b801561031d5780601f106102f45761010080835404028352916020019161031d565b820191905f5260205f20905b81548152906001019060200180831161030057829003601f168201915b50505050508152602001600182015f9054906101000a900460ff16600281111561034a57610349610bbd565b5b600281111561035c5761035b610bbd565b5b8152602001600282015481525050905092915050565b60605f5f8373ffffffffffffffffffffffffffffffffffffffff1673ffffffffffffffffffffffffffffffffffffffff1681526020019081526020015f20805480602002602001604051908101604052809291908181526020015f905b828210156104d2578382905f5260205f2090600302016040518060600160405290815f820180546103ff906111e8565b80601f016020809104026020016040519081016040528092919081815260200182805461042b906111e8565b80156104765780601f1061044d57610100808354040283529160200191610476565b820191905f5260205f20905b81548152906001019060200180831161045957829003601f168201915b50505050508152602001600182015f9054906101000a900460ff1660028111156104a3576104a2610bbd565b5b60028111156104b5576104b4610bbd565b5b8152602001600282015481525050815260200190600101906103cf565b505050509050919050565b805f5f3373ffffffffffffffffffffffffffffffffffffffff1673ffffffffffffffffffffffffffffffffffffffff1681526020019081526020015f20838154811061052c5761052b61118e565b5b905f5260205f2090600302016001015f6101000a81548160ff0219169083600281111561055c5761055b610bbd565b5b02179055505f5f3373ffffffffffffffffffffffffffffffffffffffff1673ffffffffffffffffffffffffffffffffffffffff1681526020019081526020015f2082815481106105af576105ae61118e565b5b905f5260205f2090600302016002015f8154809291906105ce90611245565b91905055505050565b6105df610a40565b6105e933836101a9565b9050919050565b5f602052815f5260405f208181548110610608575f80fd5b905f5260205f2090600302015f9150915050805f018054610628906111e8565b80601f0160208091040260200160405190810160405280929190818152602001828054610654906111e8565b801561069f5780601f106106765761010080835404028352916020019161069f565b820191905f5260205f20905b81548152906001019060200180831161068257829003601f168201915b505050505090806001015f9054906101000a900460ff16908060020154905083565b5f5f3373ffffffffffffffffffffffffffffffffffffffff1673ffffffffffffffffffffffffffffffffffffffff1681526020019081526020015f20828154811061070f5761070e61118e565b5b905f5260205f2090600302016002015f81548092919061072e90611245565b91905055507feb0c5cfcb1d1a12c404c7bfceac5a0dc8ec8c2da31abaf3536a58433b2c561ce335f5f3373ffffffffffffffffffffffffffffffffffffffff1673ffffffffffffffffffffffffffffffffffffffff1681526020019081526020015f2084815481106107a3576107a261118e565b5b905f5260205f209060030201600201545f5f3373ffffffffffffffffffffffffffffffffffffffff1673ffffffffffffffffffffffffffffffffffffffff1681526020019081526020015f2085815481106108015761080061118e565b5b905f5260205f2090600302015f0184604051610820949392919061132e565b60405180910390a1805f5f3373ffffffffffffffffffffffffffffffffffffffff1673ffffffffffffffffffffffffffffffffffffffff1681526020019081526020015f2083815481106108775761087661118e565b5b905f5260205f2090600302015f019081610891919061150d565b505f5f3373ffffffffffffffffffffffffffffffffffffffff1673ffffffffffffffffffffffffffffffffffffffff1681526020019081526020015f2082815481106108e0576108df61118e565b5b905f5260205f2090600302016002015f8154809291906108ff90611245565b91905055505050565b5f5f604051806060016040528084815260200185600281111561092e5761092d610bbd565b5b81526020015f81525090505f5f3373ffffffffffffffffffffffffffffffffffffffff1673ffffffffffffffffffffffffffffffffffffffff1681526020019081526020015f2081908060018154018082558091505060019003905f5260205f2090600302015f909190919091505f820151815f0190816109af919061150d565b506020820151816001015f6101000a81548160ff021916908360028111156109da576109d9610bbd565b5b021790555060408201518160020155505060015f5f3373ffffffffffffffffffffffffffffffffffffffff1673ffffffffffffffffffffffffffffffffffffffff1681526020019081526020015f2080549050610a3791906115dc565b91505092915050565b6040518060600160405280606081526020015f6002811115610a6557610a64610bbd565b5b81526020015f81525090565b5f604051905090565b5f5ffd5b5f5ffd5b5f73ffffffffffffffffffffffffffffffffffffffff82169050919050565b5f610aab82610a82565b9050919050565b610abb81610aa1565b8114610ac5575f5ffd5b50565b5f81359050610ad681610ab2565b92915050565b5f819050919050565b610aee81610adc565b8114610af8575f5ffd5b50565b5f81359050610b0981610ae5565b92915050565b5f5f60408385031215610b2557610b24610a7a565b5b5f610b3285828601610ac8565b9250506020610b4385828601610afb565b9150509250929050565b5f81519050919050565b5f82825260208201905092915050565b8281835e5f83830152505050565b5f601f19601f8301169050919050565b5f610b8f82610b4d565b610b998185610b57565b9350610ba9818560208601610b67565b610bb281610b75565b840191505092915050565b7f4e487b71000000000000000000000000000000000000000000000000000000005f52602160045260245ffd5b60038110610bfb57610bfa610bbd565b5b50565b5f819050610c0b82610bea565b919050565b5f610c1a82610bfe565b9050919050565b610c2a81610c10565b82525050565b610c3981610adc565b82525050565b5f606083015f8301518482035f860152610c598282610b85565b9150506020830151610c6e6020860182610c21565b506040830151610c816040860182610c30565b508091505092915050565b5f6020820190508181035f830152610ca48184610c3f565b905092915050565b5f60208284031215610cc157610cc0610a7a565b5b5f610cce84828501610ac8565b91505092915050565b5f81519050919050565b5f82825260208201905092915050565b5f819050602082019050919050565b5f606083015f8301518482035f860152610d1a8282610b85565b9150506020830151610d2f6020860182610c21565b506040830151610d426040860182610c30565b508091505092915050565b5f610d588383610d00565b905092915050565b5f602082019050919050565b5f610d7682610cd7565b610d808185610ce1565b935083602082028501610d9285610cf1565b805f5b85811015610dcd5784840389528151610dae8582610d4d565b9450610db983610d60565b925060208a01995050600181019050610d95565b50829750879550505050505092915050565b5f6020820190508181035f830152610df78184610d6c565b905092915050565b60038110610e0b575f5ffd5b50565b5f81359050610e1c81610dff565b92915050565b5f5f60408385031215610e3857610e37610a7a565b5b5f610e4585828601610afb565b9250506020610e5685828601610e0e565b9150509250929050565b5f60208284031215610e7557610e74610a7a565b5b5f610e8284828501610afb565b91505092915050565b5f82825260208201905092915050565b5f610ea582610b4d565b610eaf8185610e8b565b9350610ebf818560208601610b67565b610ec881610b75565b840191505092915050565b610edc81610c10565b82525050565b610eeb81610adc565b82525050565b5f6060820190508181035f830152610f098186610e9b565b9050610f186020830185610ed3565b610f256040830184610ee2565b949350505050565b5f5ffd5b5f5ffd5b7f4e487b71000000000000000000000000000000000000000000000000000000005f52604160045260245ffd5b610f6b82610b75565b810181811067ffffffffffffffff82111715610f8a57610f89610f35565b5b80604052505050565b5f610f9c610a71565b9050610fa88282610f62565b919050565b5f67ffffffffffffffff821115610fc757610fc6610f35565b5b610fd082610b75565b9050602081019050919050565b828183375f83830152505050565b5f610ffd610ff884610fad565b610f93565b90508281526020810184848401111561101957611018610f31565b5b611024848285610fdd565b509392505050565b5f82601f8301126110405761103f610f2d565b5b8135611050848260208601610feb565b91505092915050565b5f5f6040838503121561106f5761106e610a7a565b5b5f61107c85828601610afb565b925050602083013567ffffffffffffffff81111561109d5761109c610a7e565b5b6110a98582860161102c565b9150509250929050565b5f5f604083850312156110c9576110c8610a7a565b5b5f6110d685828601610e0e565b925050602083013567ffffffffffffffff8111156110f7576110f6610a7e565b5b6111038582860161102c565b9150509250929050565b5f6020820190506111205f830184610ee2565b92915050565b7f696e76616c696420696e646578000000000000000000000000000000000000005f82015250565b5f61115a600d83610e8b565b915061116582611126565b602082019050919050565b5f6020820190508181035f8301526111878161114e565b9050919050565b7f4e487b71000000000000000000000000000000000000000000000000000000005f52603260045260245ffd5b7f4e487b71000000000000000000000000000000000000000000000000000000005f52602260045260245ffd5b5f60028204905060018216806111ff57607f821691505b602082108103611212576112116111bb565b5b50919050565b7f4e487b71000000000000000000000000000000000000000000000000000000005f52601160045260245ffd5b5f61124f82610adc565b91507fffffffffffffffffffffffffffffffffffffffffffffffffffffffffffffffff820361128157611280611218565b5b600182019050919050565b61129581610aa1565b82525050565b5f819050815f5260205f209050919050565b5f81546112b9816111e8565b6112c38186610e8b565b9450600182165f81146112dd57600181146112f357611325565b60ff198316865281151560200286019350611325565b6112fc8561129b565b5f5b8381101561131d578154818901526001820191506020810190506112fe565b808801955050505b50505092915050565b5f6080820190506113415f83018761128c565b61134e6020830186610ee2565b818103604083015261136081856112ad565b905081810360608301526113748184610e9b565b905095945050505050565b5f6020601f8301049050919050565b5f82821b905092915050565b5f600883026113c97fffffffffffffffffffffffffffffffffffffffffffffffffffffffffffffffff8261138e565b6113d3868361138e565b95508019841693508086168417925050509392505050565b5f819050919050565b5f61140e61140961140484610adc565b6113eb565b610adc565b9050919050565b5f819050919050565b611427836113f4565b61143b61143382611415565b84845461139a565b825550505050565b5f5f905090565b611452611443565b61145d81848461141e565b505050565b5b81811015611480576114755f8261144a565b600181019050611463565b5050565b601f8211156114c5576114968161129b565b61149f8461137f565b810160208510156114ae578190505b6114c26114ba8561137f565b830182611462565b50505b505050565b5f82821c905092915050565b5f6114e55f19846008026114ca565b1980831691505092915050565b5f6114fd83836114d6565b9150826002028217905092915050565b61151682610b4d565b67ffffffffffffffff81111561152f5761152e610f35565b5b61153982546111e8565b611544828285611484565b5f60209050601f831160018114611575575f8415611563578287015190505b61156d85826114f2565b8655506115d4565b601f1984166115838661129b565b5f5b828110156115aa57848901518255600182019150602085019450602081019050611585565b868310156115c757848901516115c3601f8916826114d6565b8355505b6001600288020188555050505b505050505050565b5f6115e682610adc565b91506115f183610adc565b925082820390508181111561160957611608611218565b5b9291505056fea2646970667358221220f8ffcc7935335fdbac7f9cf05f6c8fb45368e2806b2463383f2a79f963e3de9564736f6c634300081c0033",
					"opcodes": "PUSH1 0x80 PUSH1 0x40 MSTORE CALLVALUE DUP1 ISZERO PUSH2 0xF JUMPI PUSH0 PUSH0 REVERT JUMPDEST POP PUSH0 PUSH1 0x40 MLOAD DUP1 PUSH1 0x60 ADD PUSH1 0x40 MSTORE DUP1 PUSH1 0x40 MLOAD DUP1 PUSH1 0x40 ADD PUSH1 0x40 MSTORE DUP1 PUSH1 0xB DUP2 MSTORE PUSH1 0x20 ADD PUSH32 0x48656C6C6F20776F726C64000000000000000000000000000000000000000000 DUP2 MSTORE POP DUP2 MSTORE PUSH1 0x20 ADD PUSH0 PUSH1 0x2 DUP2 GT ISZERO PUSH2 0x6A JUMPI PUSH2 0x69 PUSH2 0x12D JUMP JUMPDEST JUMPDEST DUP2 MSTORE PUSH1 0x20 ADD PUSH0 DUP2 MSTORE POP SWAP1 POP PUSH0 PUSH0 CALLER PUSH20 0xFFFFFFFFFFFFFFFFFFFFFFFFFFFFFFFFFFFFFFFF AND PUSH20 0xFFFFFFFFFFFFFFFFFFFFFFFFFFFFFFFFFFFFFFFF AND DUP2 MSTORE PUSH1 0x20 ADD SWAP1 DUP2 MSTORE PUSH1 0x20 ADD PUSH0 KECCAK256 DUP2 SWAP1 DUP1 PUSH1 0x1 DUP2 SLOAD ADD DUP1 DUP3 SSTORE DUP1 SWAP2 POP POP PUSH1 0x1 SWAP1 SUB SWAP1 PUSH0 MSTORE PUSH1 0x20 PUSH0 KECCAK256 SWAP1 PUSH1 0x3 MUL ADD PUSH0 SWAP1 SWAP2 SWAP1 SWAP2 SWAP1 SWAP2 POP PUSH0 DUP3 ADD MLOAD DUP2 PUSH0 ADD SWAP1 DUP2 PUSH2 0xEB SWAP2 SWAP1 PUSH2 0x397 JUMP JUMPDEST POP PUSH1 0x20 DUP3 ADD MLOAD DUP2 PUSH1 0x1 ADD PUSH0 PUSH2 0x100 EXP DUP2 SLOAD DUP2 PUSH1 0xFF MUL NOT AND SWAP1 DUP4 PUSH1 0x2 DUP2 GT ISZERO PUSH2 0x116 JUMPI PUSH2 0x115 PUSH2 0x12D JUMP JUMPDEST JUMPDEST MUL OR SWAP1 SSTORE POP PUSH1 0x40 DUP3 ADD MLOAD DUP2 PUSH1 0x2 ADD SSTORE POP POP POP PUSH2 0x466 JUMP JUMPDEST PUSH32 0x4E487B7100000000000000000000000000000000000000000000000000000000 PUSH0 MSTORE PUSH1 0x21 PUSH1 0x4 MSTORE PUSH1 0x24 PUSH0 REVERT JUMPDEST PUSH0 DUP2 MLOAD SWAP1 POP SWAP2 SWAP1 POP JUMP JUMPDEST PUSH32 0x4E487B7100000000000000000000000000000000000000000000000000000000 PUSH0 MSTORE PUSH1 0x41 PUSH1 0x4 MSTORE PUSH1 0x24 PUSH0 REVERT JUMPDEST PUSH32 0x4E487B7100000000000000000000000000000000000000000000000000000000 PUSH0 MSTORE PUSH1 0x22 PUSH1 0x4 MSTORE PUSH1 0x24 PUSH0 REVERT JUMPDEST PUSH0 PUSH1 0x2 DUP3 DIV SWAP1 POP PUSH1 0x1 DUP3 AND DUP1 PUSH2 0x1D5 JUMPI PUSH1 0x7F DUP3 AND SWAP2 POP JUMPDEST PUSH1 0x20 DUP3 LT DUP2 SUB PUSH2 0x1E8 JUMPI PUSH2 0x1E7 PUSH2 0x191 JUMP JUMPDEST JUMPDEST POP SWAP2 SWAP1 POP JUMP JUMPDEST PUSH0 DUP2 SWAP1 POP DUP2 PUSH0 MSTORE PUSH1 0x20 PUSH0 KECCAK256 SWAP1 POP SWAP2 SWAP1 POP JUMP JUMPDEST PUSH0 PUSH1 0x20 PUSH1 0x1F DUP4 ADD DIV SWAP1 POP SWAP2 SWAP1 POP JUMP JUMPDEST PUSH0 DUP3 DUP3 SHL SWAP1 POP SWAP3 SWAP2 POP POP JUMP JUMPDEST PUSH0 PUSH1 0x8 DUP4 MUL PUSH2 0x24A PUSH32 0xFFFFFFFFFFFFFFFFFFFFFFFFFFFFFFFFFFFFFFFFFFFFFFFFFFFFFFFFFFFFFFFF DUP3 PUSH2 0x20F JUMP JUMPDEST PUSH2 0x254 DUP7 DUP4 PUSH2 0x20F JUMP JUMPDEST SWAP6 POP DUP1 NOT DUP5 AND SWAP4 POP DUP1 DUP7 AND DUP5 OR SWAP3 POP POP POP SWAP4 SWAP3 POP POP POP JUMP JUMPDEST PUSH0 DUP2 SWAP1 POP SWAP2 SWAP1 POP JUMP JUMPDEST PUSH0 DUP2 SWAP1 POP SWAP2 SWAP1 POP JUMP JUMPDEST PUSH0 PUSH2 0x298 PUSH2 0x293 PUSH2 0x28E DUP5 PUSH2 0x26C JUMP JUMPDEST PUSH2 0x275 JUMP JUMPDEST PUSH2 0x26C JUMP JUMPDEST SWAP1 POP SWAP2 SWAP1 POP JUMP JUMPDEST PUSH0 DUP2 SWAP1 POP SWAP2 SWAP1 POP JUMP JUMPDEST PUSH2 0x2B1 DUP4 PUSH2 0x27E JUMP JUMPDEST PUSH2 0x2C5 PUSH2 0x2BD DUP3 PUSH2 0x29F JUMP JUMPDEST DUP5 DUP5 SLOAD PUSH2 0x21B JUMP JUMPDEST DUP3 SSTORE POP POP POP POP JUMP JUMPDEST PUSH0 PUSH0 SWAP1 POP SWAP1 JUMP JUMPDEST PUSH2 0x2DC PUSH2 0x2CD JUMP JUMPDEST PUSH2 0x2E7 DUP2 DUP5 DUP5 PUSH2 0x2A8 JUMP JUMPDEST POP POP POP JUMP JUMPDEST JUMPDEST DUP2 DUP2 LT ISZERO PUSH2 0x30A JUMPI PUSH2 0x2FF PUSH0 DUP3 PUSH2 0x2D4 JUMP JUMPDEST PUSH1 0x1 DUP2 ADD SWAP1 POP PUSH2 0x2ED JUMP JUMPDEST POP POP JUMP JUMPDEST PUSH1 0x1F DUP3 GT ISZERO PUSH2 0x34F JUMPI PUSH2 0x320 DUP2 PUSH2 0x1EE JUMP JUMPDEST PUSH2 0x329 DUP5 PUSH2 0x200 JUMP JUMPDEST DUP2 ADD PUSH1 0x20 DUP6 LT ISZERO PUSH2 0x338 JUMPI DUP2 SWAP1 POP JUMPDEST PUSH2 0x34C PUSH2 0x344 DUP6 PUSH2 0x200 JUMP JUMPDEST DUP4 ADD DUP3 PUSH2 0x2EC JUMP JUMPDEST POP POP JUMPDEST POP POP POP JUMP JUMPDEST PUSH0 DUP3 DUP3 SHR SWAP1 POP SWAP3 SWAP2 POP POP JUMP JUMPDEST PUSH0 PUSH2 0x36F PUSH0 NOT DUP5 PUSH1 0x8 MUL PUSH2 0x354 JUMP JUMPDEST NOT DUP1 DUP4 AND SWAP2 POP POP SWAP3 SWAP2 POP POP JUMP JUMPDEST PUSH0 PUSH2 0x387 DUP4 DUP4 PUSH2 0x360 JUMP JUMPDEST SWAP2 POP DUP3 PUSH1 0x2 MUL DUP3 OR SWAP1 POP SWAP3 SWAP2 POP POP JUMP JUMPDEST PUSH2 0x3A0 DUP3 PUSH2 0x15A JUMP JUMPDEST PUSH8 0xFFFFFFFFFFFFFFFF DUP2 GT ISZERO PUSH2 0x3B9 JUMPI PUSH2 0x3B8 PUSH2 0x164 JUMP JUMPDEST JUMPDEST PUSH2 0x3C3 DUP3 SLOAD PUSH2 0x1BE JUMP JUMPDEST PUSH2 0x3CE DUP3 DUP3 DUP6 PUSH2 0x30E JUMP JUMPDEST PUSH0 PUSH1 0x20 SWAP1 POP PUSH1 0x1F DUP4 GT PUSH1 0x1 DUP2 EQ PUSH2 0x3FF JUMPI PUSH0 DUP5 ISZERO PUSH2 0x3ED JUMPI DUP3 DUP8 ADD MLOAD SWAP1 POP JUMPDEST PUSH2 0x3F7 DUP6 DUP3 PUSH2 0x37C JUMP JUMPDEST DUP7 SSTORE POP PUSH2 0x45E JUMP JUMPDEST PUSH1 0x1F NOT DUP5 AND PUSH2 0x40D DUP7 PUSH2 0x1EE JUMP JUMPDEST PUSH0 JUMPDEST DUP3 DUP2 LT ISZERO PUSH2 0x434 JUMPI DUP5 DUP10 ADD MLOAD DUP3 SSTORE PUSH1 0x1 DUP3 ADD SWAP2 POP PUSH1 0x20 DUP6 ADD SWAP5 POP PUSH1 0x20 DUP2 ADD SWAP1 POP PUSH2 0x40F JUMP JUMPDEST DUP7 DUP4 LT ISZERO PUSH2 0x451 JUMPI DUP5 DUP10 ADD MLOAD PUSH2 0x44D PUSH1 0x1F DUP10 AND DUP3 PUSH2 0x360 JUMP JUMPDEST DUP4 SSTORE POP JUMPDEST PUSH1 0x1 PUSH1 0x2 DUP9 MUL ADD DUP9 SSTORE POP POP POP JUMPDEST POP POP POP POP POP POP JUMP JUMPDEST PUSH2 0x1645 DUP1 PUSH2 0x473 PUSH0 CODECOPY PUSH0 RETURN INVALID PUSH1 0x80 PUSH1 0x40 MSTORE CALLVALUE DUP1 ISZERO PUSH2 0xF JUMPI PUSH0 PUSH0 REVERT JUMPDEST POP PUSH1 0x4 CALLDATASIZE LT PUSH2 0x7B JUMPI PUSH0 CALLDATALOAD PUSH1 0xE0 SHR DUP1 PUSH4 0x8CDD8902 GT PUSH2 0x59 JUMPI DUP1 PUSH4 0x8CDD8902 EQ PUSH2 0xFB JUMPI DUP1 PUSH4 0x9CA3A5ED EQ PUSH2 0x12B JUMPI DUP1 PUSH4 0xB6820002 EQ PUSH2 0x15D JUMPI DUP1 PUSH4 0xE8F36962 EQ PUSH2 0x179 JUMPI PUSH2 0x7B JUMP JUMPDEST DUP1 PUSH4 0x8C46711 EQ PUSH2 0x7F JUMPI DUP1 PUSH4 0x251101F5 EQ PUSH2 0xAF JUMPI DUP1 PUSH4 0x63FF1368 EQ PUSH2 0xDF JUMPI JUMPDEST PUSH0 PUSH0 REVERT JUMPDEST PUSH2 0x99 PUSH1 0x4 DUP1 CALLDATASIZE SUB DUP2 ADD SWAP1 PUSH2 0x94 SWAP2 SWAP1 PUSH2 0xB0F JUMP JUMPDEST PUSH2 0x1A9 JUMP JUMPDEST PUSH1 0x40 MLOAD PUSH2 0xA6 SWAP2 SWAP1 PUSH2 0xC8C JUMP JUMPDEST PUSH1 0x40 MLOAD DUP1 SWAP2 SUB SWAP1 RETURN JUMPDEST PUSH2 0xC9 PUSH1 0x4 DUP1 CALLDATASIZE SUB DUP2 ADD SWAP1 PUSH2 0xC4 SWAP2 SWAP1 PUSH2 0xCAC JUMP JUMPDEST PUSH2 0x372 JUMP JUMPDEST PUSH1 0x40 MLOAD PUSH2 0xD6 SWAP2 SWAP1 PUSH2 0xDDF JUMP JUMPDEST PUSH1 0x40 MLOAD DUP1 SWAP2 SUB SWAP1 RETURN JUMPDEST PUSH2 0xF9 PUSH1 0x4 DUP1 CALLDATASIZE SUB DUP2 ADD SWAP1 PUSH2 0xF4 SWAP2 SWAP1 PUSH2 0xE22 JUMP JUMPDEST PUSH2 0x4DD JUMP JUMPDEST STOP JUMPDEST PUSH2 0x115 PUSH1 0x4 DUP1 CALLDATASIZE SUB DUP2 ADD SWAP1 PUSH2 0x110 SWAP2 SWAP1 PUSH2 0xE60 JUMP JUMPDEST PUSH2 0x5D7 JUMP JUMPDEST PUSH1 0x40 MLOAD PUSH2 0x122 SWAP2 SWAP1 PUSH2 0xC8C JUMP JUMPDEST PUSH1 0x40 MLOAD DUP1 SWAP2 SUB SWAP1 RETURN JUMPDEST PUSH2 0x145 PUSH1 0x4 DUP1 CALLDATASIZE SUB DUP2 ADD SWAP1 PUSH2 0x140 SWAP2 SWAP1 PUSH2 0xB0F JUMP JUMPDEST PUSH2 0x5F0 JUMP JUMPDEST PUSH1 0x40 MLOAD PUSH2 0x154 SWAP4 SWAP3 SWAP2 SWAP1 PUSH2 0xEF1 JUMP JUMPDEST PUSH1 0x40 MLOAD DUP1 SWAP2 SUB SWAP1 RETURN JUMPDEST PUSH2 0x177 PUSH1 0x4 DUP1 CALLDATASIZE SUB DUP2 ADD SWAP1 PUSH2 0x172 SWAP2 SWAP1 PUSH2 0x1059 JUMP JUMPDEST PUSH2 0x6C1 JUMP JUMPDEST STOP JUMPDEST PUSH2 0x193 PUSH1 0x4 DUP1 CALLDATASIZE SUB DUP2 ADD SWAP1 PUSH2 0x18E SWAP2 SWAP1 PUSH2 0x10B3 JUMP JUMPDEST PUSH2 0x908 JUMP JUMPDEST PUSH1 0x40 MLOAD PUSH2 0x1A0 SWAP2 SWAP1 PUSH2 0x110D JUMP JUMPDEST PUSH1 0x40 MLOAD DUP1 SWAP2 SUB SWAP1 RETURN JUMPDEST PUSH2 0x1B1 PUSH2 0xA40 JUMP JUMPDEST PUSH0 PUSH0 DUP5 PUSH20 0xFFFFFFFFFFFFFFFFFFFFFFFFFFFFFFFFFFFFFFFF AND PUSH20 0xFFFFFFFFFFFFFFFFFFFFFFFFFFFFFFFFFFFFFFFF AND DUP2 MSTORE PUSH1 0x20 ADD SWAP1 DUP2 MSTORE PUSH1 0x20 ADD PUSH0 KECCAK256 DUP1 SLOAD SWAP1 POP DUP3 LT PUSH2 0x232 JUMPI PUSH1 0x40 MLOAD PUSH32 0x8C379A000000000000000000000000000000000000000000000000000000000 DUP2 MSTORE PUSH1 0x4 ADD PUSH2 0x229 SWAP1 PUSH2 0x1170 JUMP JUMPDEST PUSH1 0x40 MLOAD DUP1 SWAP2 SUB SWAP1 REVERT JUMPDEST PUSH0 PUSH0 DUP5 PUSH20 0xFFFFFFFFFFFFFFFFFFFFFFFFFFFFFFFFFFFFFFFF AND PUSH20 0xFFFFFFFFFFFFFFFFFFFFFFFFFFFFFFFFFFFFFFFF AND DUP2 MSTORE PUSH1 0x20 ADD SWAP1 DUP2 MSTORE PUSH1 0x20 ADD PUSH0 KECCAK256 DUP3 DUP2 SLOAD DUP2 LT PUSH2 0x280 JUMPI PUSH2 0x27F PUSH2 0x118E JUMP JUMPDEST JUMPDEST SWAP1 PUSH0 MSTORE PUSH1 0x20 PUSH0 KECCAK256 SWAP1 PUSH1 0x3 MUL ADD PUSH1 0x40 MLOAD DUP1 PUSH1 0x60 ADD PUSH1 0x40 MSTORE SWAP1 DUP2 PUSH0 DUP3 ADD DUP1 SLOAD PUSH2 0x2A6 SWAP1 PUSH2 0x11E8 JUMP JUMPDEST DUP1 PUSH1 0x1F ADD PUSH1 0x20 DUP1 SWAP2 DIV MUL PUSH1 0x20 ADD PUSH1 0x40 MLOAD SWAP1 DUP2 ADD PUSH1 0x40 MSTORE DUP1 SWAP3 SWAP2 SWAP1 DUP2 DUP2 MSTORE PUSH1 0x20 ADD DUP3 DUP1 SLOAD PUSH2 0x2D2 SWAP1 PUSH2 0x11E8 JUMP JUMPDEST DUP1 ISZERO PUSH2 0x31D JUMPI DUP1 PUSH1 0x1F LT PUSH2 0x2F4 JUMPI PUSH2 0x100 DUP1 DUP4 SLOAD DIV MUL DUP4 MSTORE SWAP2 PUSH1 0x20 ADD SWAP2 PUSH2 0x31D JUMP JUMPDEST DUP3 ADD SWAP2 SWAP1 PUSH0 MSTORE PUSH1 0x20 PUSH0 KECCAK256 SWAP1 JUMPDEST DUP2 SLOAD DUP2 MSTORE SWAP1 PUSH1 0x1 ADD SWAP1 PUSH1 0x20 ADD DUP1 DUP4 GT PUSH2 0x300 JUMPI DUP3 SWAP1 SUB PUSH1 0x1F AND DUP3 ADD SWAP2 JUMPDEST POP POP POP POP POP DUP2 MSTORE PUSH1 0x20 ADD PUSH1 0x1 DUP3 ADD PUSH0 SWAP1 SLOAD SWAP1 PUSH2 0x100 EXP SWAP1 DIV PUSH1 0xFF AND PUSH1 0x2 DUP2 GT ISZERO PUSH2 0x34A JUMPI PUSH2 0x349 PUSH2 0xBBD JUMP JUMPDEST JUMPDEST PUSH1 0x2 DUP2 GT ISZERO PUSH2 0x35C JUMPI PUSH2 0x35B PUSH2 0xBBD JUMP JUMPDEST JUMPDEST DUP2 MSTORE PUSH1 0x20 ADD PUSH1 0x2 DUP3 ADD SLOAD DUP2 MSTORE POP POP SWAP1 POP SWAP3 SWAP2 POP POP JUMP JUMPDEST PUSH1 0x60 PUSH0 PUSH0 DUP4 PUSH20 0xFFFFFFFFFFFFFFFFFFFFFFFFFFFFFFFFFFFFFFFF AND PUSH20 0xFFFFFFFFFFFFFFFFFFFFFFFFFFFFFFFFFFFFFFFF AND DUP2 MSTORE PUSH1 0x20 ADD SWAP1 DUP2 MSTORE PUSH1 0x20 ADD PUSH0 KECCAK256 DUP1 SLOAD DUP1 PUSH1 0x20 MUL PUSH1 0x20 ADD PUSH1 0x40 MLOAD SWAP1 DUP2 ADD PUSH1 0x40 MSTORE DUP1 SWAP3 SWAP2 SWAP1 DUP2 DUP2 MSTORE PUSH1 0x20 ADD PUSH0 SWAP1 JUMPDEST DUP3 DUP3 LT ISZERO PUSH2 0x4D2 JUMPI DUP4 DUP3 SWAP1 PUSH0 MSTORE PUSH1 0x20 PUSH0 KECCAK256 SWAP1 PUSH1 0x3 MUL ADD PUSH1 0x40 MLOAD DUP1 PUSH1 0x60 ADD PUSH1 0x40 MSTORE SWAP1 DUP2 PUSH0 DUP3 ADD DUP1 SLOAD PUSH2 0x3FF SWAP1 PUSH2 0x11E8 JUMP JUMPDEST DUP1 PUSH1 0x1F ADD PUSH1 0x20 DUP1 SWAP2 DIV MUL PUSH1 0x20 ADD PUSH1 0x40 MLOAD SWAP1 DUP2 ADD PUSH1 0x40 MSTORE DUP1 SWAP3 SWAP2 SWAP1 DUP2 DUP2 MSTORE PUSH1 0x20 ADD DUP3 DUP1 SLOAD PUSH2 0x42B SWAP1 PUSH2 0x11E8 JUMP JUMPDEST DUP1 ISZERO PUSH2 0x476 JUMPI DUP1 PUSH1 0x1F LT PUSH2 0x44D JUMPI PUSH2 0x100 DUP1 DUP4 SLOAD DIV MUL DUP4 MSTORE SWAP2 PUSH1 0x20 ADD SWAP2 PUSH2 0x476 JUMP JUMPDEST DUP3 ADD SWAP2 SWAP1 PUSH0 MSTORE PUSH1 0x20 PUSH0 KECCAK256 SWAP1 JUMPDEST DUP2 SLOAD DUP2 MSTORE SWAP1 PUSH1 0x1 ADD SWAP1 PUSH1 0x20 ADD DUP1 DUP4 GT PUSH2 0x459 JUMPI DUP3 SWAP1 SUB PUSH1 0x1F AND DUP3 ADD SWAP2 JUMPDEST POP POP POP POP POP DUP2 MSTORE PUSH1 0x20 ADD PUSH1 0x1 DUP3 ADD PUSH0 SWAP1 SLOAD SWAP1 PUSH2 0x100 EXP SWAP1 DIV PUSH1 0xFF AND PUSH1 0x2 DUP2 GT ISZERO PUSH2 0x4A3 JUMPI PUSH2 0x4A2 PUSH2 0xBBD JUMP JUMPDEST JUMPDEST PUSH1 0x2 DUP2 GT ISZERO PUSH2 0x4B5 JUMPI PUSH2 0x4B4 PUSH2 0xBBD JUMP JUMPDEST JUMPDEST DUP2 MSTORE PUSH1 0x20 ADD PUSH1 0x2 DUP3 ADD SLOAD DUP2 MSTORE POP POP DUP2 MSTORE PUSH1 0x20 ADD SWAP1 PUSH1 0x1 ADD SWAP1 PUSH2 0x3CF JUMP JUMPDEST POP POP POP POP SWAP1 POP SWAP2 SWAP1 POP JUMP JUMPDEST DUP1 PUSH0 PUSH0 CALLER PUSH20 0xFFFFFFFFFFFFFFFFFFFFFFFFFFFFFFFFFFFFFFFF AND PUSH20 0xFFFFFFFFFFFFFFFFFFFFFFFFFFFFFFFFFFFFFFFF AND DUP2 MSTORE PUSH1 0x20 ADD SWAP1 DUP2 MSTORE PUSH1 0x20 ADD PUSH0 KECCAK256 DUP4 DUP2 SLOAD DUP2 LT PUSH2 0x52C JUMPI PUSH2 0x52B PUSH2 0x118E JUMP JUMPDEST JUMPDEST SWAP1 PUSH0 MSTORE PUSH1 0x20 PUSH0 KECCAK256 SWAP1 PUSH1 0x3 MUL ADD PUSH1 0x1 ADD PUSH0 PUSH2 0x100 EXP DUP2 SLOAD DUP2 PUSH1 0xFF MUL NOT AND SWAP1 DUP4 PUSH1 0x2 DUP2 GT ISZERO PUSH2 0x55C JUMPI PUSH2 0x55B PUSH2 0xBBD JUMP JUMPDEST JUMPDEST MUL OR SWAP1 SSTORE POP PUSH0 PUSH0 CALLER PUSH20 0xFFFFFFFFFFFFFFFFFFFFFFFFFFFFFFFFFFFFFFFF AND PUSH20 0xFFFFFFFFFFFFFFFFFFFFFFFFFFFFFFFFFFFFFFFF AND DUP2 MSTORE PUSH1 0x20 ADD SWAP1 DUP2 MSTORE PUSH1 0x20 ADD PUSH0 KECCAK256 DUP3 DUP2 SLOAD DUP2 LT PUSH2 0x5AF JUMPI PUSH2 0x5AE PUSH2 0x118E JUMP JUMPDEST JUMPDEST SWAP1 PUSH0 MSTORE PUSH1 0x20 PUSH0 KECCAK256 SWAP1 PUSH1 0x3 MUL ADD PUSH1 0x2 ADD PUSH0 DUP2 SLOAD DUP1 SWAP3 SWAP2 SWAP1 PUSH2 0x5CE SWAP1 PUSH2 0x1245 JUMP JUMPDEST SWAP2 SWAP1 POP SSTORE POP POP POP JUMP JUMPDEST PUSH2 0x5DF PUSH2 0xA40 JUMP JUMPDEST PUSH2 0x5E9 CALLER DUP4 PUSH2 0x1A9 JUMP JUMPDEST SWAP1 POP SWAP2 SWAP1 POP JUMP JUMPDEST PUSH0 PUSH1 0x20 MSTORE DUP2 PUSH0 MSTORE PUSH1 0x40 PUSH0 KECCAK256 DUP2 DUP2 SLOAD DUP2 LT PUSH2 0x608 JUMPI PUSH0 DUP1 REVERT JUMPDEST SWAP1 PUSH0 MSTORE PUSH1 0x20 PUSH0 KECCAK256 SWAP1 PUSH1 0x3 MUL ADD PUSH0 SWAP2 POP SWAP2 POP POP DUP1 PUSH0 ADD DUP1 SLOAD PUSH2 0x628 SWAP1 PUSH2 0x11E8 JUMP JUMPDEST DUP1 PUSH1 0x1F ADD PUSH1 0x20 DUP1 SWAP2 DIV MUL PUSH1 0x20 ADD PUSH1 0x40 MLOAD SWAP1 DUP2 ADD PUSH1 0x40 MSTORE DUP1 SWAP3 SWAP2 SWAP1 DUP2 DUP2 MSTORE PUSH1 0x20 ADD DUP3 DUP1 SLOAD PUSH2 0x654 SWAP1 PUSH2 0x11E8 JUMP JUMPDEST DUP1 ISZERO PUSH2 0x69F JUMPI DUP1 PUSH1 0x1F LT PUSH2 0x676 JUMPI PUSH2 0x100 DUP1 DUP4 SLOAD DIV MUL DUP4 MSTORE SWAP2 PUSH1 0x20 ADD SWAP2 PUSH2 0x69F JUMP JUMPDEST DUP3 ADD SWAP2 SWAP1 PUSH0 MSTORE PUSH1 0x20 PUSH0 KECCAK256 SWAP1 JUMPDEST DUP2 SLOAD DUP2 MSTORE SWAP1 PUSH1 0x1 ADD SWAP1 PUSH1 0x20 ADD DUP1 DUP4 GT PUSH2 0x682 JUMPI DUP3 SWAP1 SUB PUSH1 0x1F AND DUP3 ADD SWAP2 JUMPDEST POP POP POP POP POP SWAP1 DUP1 PUSH1 0x1 ADD PUSH0 SWAP1 SLOAD SWAP1 PUSH2 0x100 EXP SWAP1 DIV PUSH1 0xFF AND SWAP1 DUP1 PUSH1 0x2 ADD SLOAD SWAP1 POP DUP4 JUMP JUMPDEST PUSH0 PUSH0 CALLER PUSH20 0xFFFFFFFFFFFFFFFFFFFFFFFFFFFFFFFFFFFFFFFF AND PUSH20 0xFFFFFFFFFFFFFFFFFFFFFFFFFFFFFFFFFFFFFFFF AND DUP2 MSTORE PUSH1 0x20 ADD SWAP1 DUP2 MSTORE PUSH1 0x20 ADD PUSH0 KECCAK256 DUP3 DUP2 SLOAD DUP2 LT PUSH2 0x70F JUMPI PUSH2 0x70E PUSH2 0x118E JUMP JUMPDEST JUMPDEST SWAP1 PUSH0 MSTORE PUSH1 0x20 PUSH0 KECCAK256 SWAP1 PUSH1 0x3 MUL ADD PUSH1 0x2 ADD PUSH0 DUP2 SLOAD DUP1 SWAP3 SWAP2 SWAP1 PUSH2 0x72E SWAP1 PUSH2 0x1245 JUMP JUMPDEST SWAP2 SWAP1 POP SSTORE POP PUSH32 0xEB0C5CFCB1D1A12C404C7BFCEAC5A0DC8EC8C2DA31ABAF3536A58433B2C561CE CALLER PUSH0 PUSH0 CALLER PUSH20 0xFFFFFFFFFFFFFFFFFFFFFFFFFFFFFFFFFFFFFFFF AND PUSH20 0xFFFFFFFFFFFFFFFFFFFFFFFFFFFFFFFFFFFFFFFF AND DUP2 MSTORE PUSH1 0x20 ADD SWAP1 DUP2 MSTORE PUSH1 0x20 ADD PUSH0 KECCAK256 DUP5 DUP2 SLOAD DUP2 LT PUSH2 0x7A3 JUMPI PUSH2 0x7A2 PUSH2 0x118E JUMP JUMPDEST JUMPDEST SWAP1 PUSH0 MSTORE PUSH1 0x20 PUSH0 KECCAK256 SWAP1 PUSH1 0x3 MUL ADD PUSH1 0x2 ADD SLOAD PUSH0 PUSH0 CALLER PUSH20 0xFFFFFFFFFFFFFFFFFFFFFFFFFFFFFFFFFFFFFFFF AND PUSH20 0xFFFFFFFFFFFFFFFFFFFFFFFFFFFFFFFFFFFFFFFF AND DUP2 MSTORE PUSH1 0x20 ADD SWAP1 DUP2 MSTORE PUSH1 0x20 ADD PUSH0 KECCAK256 DUP6 DUP2 SLOAD DUP2 LT PUSH2 0x801 JUMPI PUSH2 0x800 PUSH2 0x118E JUMP JUMPDEST JUMPDEST SWAP1 PUSH0 MSTORE PUSH1 0x20 PUSH0 KECCAK256 SWAP1 PUSH1 0x3 MUL ADD PUSH0 ADD DUP5 PUSH1 0x40 MLOAD PUSH2 0x820 SWAP5 SWAP4 SWAP3 SWAP2 SWAP1 PUSH2 0x132E JUMP JUMPDEST PUSH1 0x40 MLOAD DUP1 SWAP2 SUB SWAP1 LOG1 DUP1 PUSH0 PUSH0 CALLER PUSH20 0xFFFFFFFFFFFFFFFFFFFFFFFFFFFFFFFFFFFFFFFF AND PUSH20 0xFFFFFFFFFFFFFFFFFFFFFFFFFFFFFFFFFFFFFFFF AND DUP2 MSTORE PUSH1 0x20 ADD SWAP1 DUP2 MSTORE PUSH1 0x20 ADD PUSH0 KECCAK256 DUP4 DUP2 SLOAD DUP2 LT PUSH2 0x877 JUMPI PUSH2 0x876 PUSH2 0x118E JUMP JUMPDEST JUMPDEST SWAP1 PUSH0 MSTORE PUSH1 0x20 PUSH0 KECCAK256 SWAP1 PUSH1 0x3 MUL ADD PUSH0 ADD SWAP1 DUP2 PUSH2 0x891 SWAP2 SWAP1 PUSH2 0x150D JUMP JUMPDEST POP PUSH0 PUSH0 CALLER PUSH20 0xFFFFFFFFFFFFFFFFFFFFFFFFFFFFFFFFFFFFFFFF AND PUSH20 0xFFFFFFFFFFFFFFFFFFFFFFFFFFFFFFFFFFFFFFFF AND DUP2 MSTORE PUSH1 0x20 ADD SWAP1 DUP2 MSTORE PUSH1 0x20 ADD PUSH0 KECCAK256 DUP3 DUP2 SLOAD DUP2 LT PUSH2 0x8E0 JUMPI PUSH2 0x8DF PUSH2 0x118E JUMP JUMPDEST JUMPDEST SWAP1 PUSH0 MSTORE PUSH1 0x20 PUSH0 KECCAK256 SWAP1 PUSH1 0x3 MUL ADD PUSH1 0x2 ADD PUSH0 DUP2 SLOAD DUP1 SWAP3 SWAP2 SWAP1 PUSH2 0x8FF SWAP1 PUSH2 0x1245 JUMP JUMPDEST SWAP2 SWAP1 POP SSTORE POP POP POP JUMP JUMPDEST PUSH0 PUSH0 PUSH1 0x40 MLOAD DUP1 PUSH1 0x60 ADD PUSH1 0x40 MSTORE DUP1 DUP5 DUP2 MSTORE PUSH1 0x20 ADD DUP6 PUSH1 0x2 DUP2 GT ISZERO PUSH2 0x92E JUMPI PUSH2 0x92D PUSH2 0xBBD JUMP JUMPDEST JUMPDEST DUP2 MSTORE PUSH1 0x20 ADD PUSH0 DUP2 MSTORE POP SWAP1 POP PUSH0 PUSH0 CALLER PUSH20 0xFFFFFFFFFFFFFFFFFFFFFFFFFFFFFFFFFFFFFFFF AND PUSH20 0xFFFFFFFFFFFFFFFFFFFFFFFFFFFFFFFFFFFFFFFF AND DUP2 MSTORE PUSH1 0x20 ADD SWAP1 DUP2 MSTORE PUSH1 0x20 ADD PUSH0 KECCAK256 DUP2 SWAP1 DUP1 PUSH1 0x1 DUP2 SLOAD ADD DUP1 DUP3 SSTORE DUP1 SWAP2 POP POP PUSH1 0x1 SWAP1 SUB SWAP1 PUSH0 MSTORE PUSH1 0x20 PUSH0 KECCAK256 SWAP1 PUSH1 0x3 MUL ADD PUSH0 SWAP1 SWAP2 SWAP1 SWAP2 SWAP1 SWAP2 POP PUSH0 DUP3 ADD MLOAD DUP2 PUSH0 ADD SWAP1 DUP2 PUSH2 0x9AF SWAP2 SWAP1 PUSH2 0x150D JUMP JUMPDEST POP PUSH1 0x20 DUP3 ADD MLOAD DUP2 PUSH1 0x1 ADD PUSH0 PUSH2 0x100 EXP DUP2 SLOAD DUP2 PUSH1 0xFF MUL NOT AND SWAP1 DUP4 PUSH1 0x2 DUP2 GT ISZERO PUSH2 0x9DA JUMPI PUSH2 0x9D9 PUSH2 0xBBD JUMP JUMPDEST JUMPDEST MUL OR SWAP1 SSTORE POP PUSH1 0x40 DUP3 ADD MLOAD DUP2 PUSH1 0x2 ADD SSTORE POP POP PUSH1 0x1 PUSH0 PUSH0 CALLER PUSH20 0xFFFFFFFFFFFFFFFFFFFFFFFFFFFFFFFFFFFFFFFF AND PUSH20 0xFFFFFFFFFFFFFFFFFFFFFFFFFFFFFFFFFFFFFFFF AND DUP2 MSTORE PUSH1 0x20 ADD SWAP1 DUP2 MSTORE PUSH1 0x20 ADD PUSH0 KECCAK256 DUP1 SLOAD SWAP1 POP PUSH2 0xA37 SWAP2 SWAP1 PUSH2 0x15DC JUMP JUMPDEST SWAP2 POP POP SWAP3 SWAP2 POP POP JUMP JUMPDEST PUSH1 0x40 MLOAD DUP1 PUSH1 0x60 ADD PUSH1 0x40 MSTORE DUP1 PUSH1 0x60 DUP2 MSTORE PUSH1 0x20 ADD PUSH0 PUSH1 0x2 DUP2 GT ISZERO PUSH2 0xA65 JUMPI PUSH2 0xA64 PUSH2 0xBBD JUMP JUMPDEST JUMPDEST DUP2 MSTORE PUSH1 0x20 ADD PUSH0 DUP2 MSTORE POP SWAP1 JUMP JUMPDEST PUSH0 PUSH1 0x40 MLOAD SWAP1 POP SWAP1 JUMP JUMPDEST PUSH0 PUSH0 REVERT JUMPDEST PUSH0 PUSH0 REVERT JUMPDEST PUSH0 PUSH20 0xFFFFFFFFFFFFFFFFFFFFFFFFFFFFFFFFFFFFFFFF DUP3 AND SWAP1 POP SWAP2 SWAP1 POP JUMP JUMPDEST PUSH0 PUSH2 0xAAB DUP3 PUSH2 0xA82 JUMP JUMPDEST SWAP1 POP SWAP2 SWAP1 POP JUMP JUMPDEST PUSH2 0xABB DUP2 PUSH2 0xAA1 JUMP JUMPDEST DUP2 EQ PUSH2 0xAC5 JUMPI PUSH0 PUSH0 REVERT JUMPDEST POP JUMP JUMPDEST PUSH0 DUP2 CALLDATALOAD SWAP1 POP PUSH2 0xAD6 DUP2 PUSH2 0xAB2 JUMP JUMPDEST SWAP3 SWAP2 POP POP JUMP JUMPDEST PUSH0 DUP2 SWAP1 POP SWAP2 SWAP1 POP JUMP JUMPDEST PUSH2 0xAEE DUP2 PUSH2 0xADC JUMP JUMPDEST DUP2 EQ PUSH2 0xAF8 JUMPI PUSH0 PUSH0 REVERT JUMPDEST POP JUMP JUMPDEST PUSH0 DUP2 CALLDATALOAD SWAP1 POP PUSH2 0xB09 DUP2 PUSH2 0xAE5 JUMP JUMPDEST SWAP3 SWAP2 POP POP JUMP JUMPDEST PUSH0 PUSH0 PUSH1 0x40 DUP4 DUP6 SUB SLT ISZERO PUSH2 0xB25 JUMPI PUSH2 0xB24 PUSH2 0xA7A JUMP JUMPDEST JUMPDEST PUSH0 PUSH2 0xB32 DUP6 DUP3 DUP7 ADD PUSH2 0xAC8 JUMP JUMPDEST SWAP3 POP POP PUSH1 0x20 PUSH2 0xB43 DUP6 DUP3 DUP7 ADD PUSH2 0xAFB JUMP JUMPDEST SWAP2 POP POP SWAP3 POP SWAP3 SWAP1 POP JUMP JUMPDEST PUSH0 DUP2 MLOAD SWAP1 POP SWAP2 SWAP1 POP JUMP JUMPDEST PUSH0 DUP3 DUP3 MSTORE PUSH1 0x20 DUP3 ADD SWAP1 POP SWAP3 SWAP2 POP POP JUMP JUMPDEST DUP3 DUP2 DUP4 MCOPY PUSH0 DUP4 DUP4 ADD MSTORE POP POP POP JUMP JUMPDEST PUSH0 PUSH1 0x1F NOT PUSH1 0x1F DUP4 ADD AND SWAP1 POP SWAP2 SWAP1 POP JUMP JUMPDEST PUSH0 PUSH2 0xB8F DUP3 PUSH2 0xB4D JUMP JUMPDEST PUSH2 0xB99 DUP2 DUP6 PUSH2 0xB57 JUMP JUMPDEST SWAP4 POP PUSH2 0xBA9 DUP2 DUP6 PUSH1 0x20 DUP7 ADD PUSH2 0xB67 JUMP JUMPDEST PUSH2 0xBB2 DUP2 PUSH2 0xB75 JUMP JUMPDEST DUP5 ADD SWAP2 POP POP SWAP3 SWAP2 POP POP JUMP JUMPDEST PUSH32 0x4E487B7100000000000000000000000000000000000000000000000000000000 PUSH0 MSTORE PUSH1 0x21 PUSH1 0x4 MSTORE PUSH1 0x24 PUSH0 REVERT JUMPDEST PUSH1 0x3 DUP2 LT PUSH2 0xBFB JUMPI PUSH2 0xBFA PUSH2 0xBBD JUMP JUMPDEST JUMPDEST POP JUMP JUMPDEST PUSH0 DUP2 SWAP1 POP PUSH2 0xC0B DUP3 PUSH2 0xBEA JUMP JUMPDEST SWAP2 SWAP1 POP JUMP JUMPDEST PUSH0 PUSH2 0xC1A DUP3 PUSH2 0xBFE JUMP JUMPDEST SWAP1 POP SWAP2 SWAP1 POP JUMP JUMPDEST PUSH2 0xC2A DUP2 PUSH2 0xC10 JUMP JUMPDEST DUP3 MSTORE POP POP JUMP JUMPDEST PUSH2 0xC39 DUP2 PUSH2 0xADC JUMP JUMPDEST DUP3 MSTORE POP POP JUMP JUMPDEST PUSH0 PUSH1 0x60 DUP4 ADD PUSH0 DUP4 ADD MLOAD DUP5 DUP3 SUB PUSH0 DUP7 ADD MSTORE PUSH2 0xC59 DUP3 DUP3 PUSH2 0xB85 JUMP JUMPDEST SWAP2 POP POP PUSH1 0x20 DUP4 ADD MLOAD PUSH2 0xC6E PUSH1 0x20 DUP7 ADD DUP3 PUSH2 0xC21 JUMP JUMPDEST POP PUSH1 0x40 DUP4 ADD MLOAD PUSH2 0xC81 PUSH1 0x40 DUP7 ADD DUP3 PUSH2 0xC30 JUMP JUMPDEST POP DUP1 SWAP2 POP POP SWAP3 SWAP2 POP POP JUMP JUMPDEST PUSH0 PUSH1 0x20 DUP3 ADD SWAP1 POP DUP2 DUP2 SUB PUSH0 DUP4 ADD MSTORE PUSH2 0xCA4 DUP2 DUP5 PUSH2 0xC3F JUMP JUMPDEST SWAP1 POP SWAP3 SWAP2 POP POP JUMP JUMPDEST PUSH0 PUSH1 0x20 DUP3 DUP5 SUB SLT ISZERO PUSH2 0xCC1 JUMPI PUSH2 0xCC0 PUSH2 0xA7A JUMP JUMPDEST JUMPDEST PUSH0 PUSH2 0xCCE DUP5 DUP3 DUP6 ADD PUSH2 0xAC8 JUMP JUMPDEST SWAP2 POP POP SWAP3 SWAP2 POP POP JUMP JUMPDEST PUSH0 DUP2 MLOAD SWAP1 POP SWAP2 SWAP1 POP JUMP JUMPDEST PUSH0 DUP3 DUP3 MSTORE PUSH1 0x20 DUP3 ADD SWAP1 POP SWAP3 SWAP2 POP POP JUMP JUMPDEST PUSH0 DUP2 SWAP1 POP PUSH1 0x20 DUP3 ADD SWAP1 POP SWAP2 SWAP1 POP JUMP JUMPDEST PUSH0 PUSH1 0x60 DUP4 ADD PUSH0 DUP4 ADD MLOAD DUP5 DUP3 SUB PUSH0 DUP7 ADD MSTORE PUSH2 0xD1A DUP3 DUP3 PUSH2 0xB85 JUMP JUMPDEST SWAP2 POP POP PUSH1 0x20 DUP4 ADD MLOAD PUSH2 0xD2F PUSH1 0x20 DUP7 ADD DUP3 PUSH2 0xC21 JUMP JUMPDEST POP PUSH1 0x40 DUP4 ADD MLOAD PUSH2 0xD42 PUSH1 0x40 DUP7 ADD DUP3 PUSH2 0xC30 JUMP JUMPDEST POP DUP1 SWAP2 POP POP SWAP3 SWAP2 POP POP JUMP JUMPDEST PUSH0 PUSH2 0xD58 DUP4 DUP4 PUSH2 0xD00 JUMP JUMPDEST SWAP1 POP SWAP3 SWAP2 POP POP JUMP JUMPDEST PUSH0 PUSH1 0x20 DUP3 ADD SWAP1 POP SWAP2 SWAP1 POP JUMP JUMPDEST PUSH0 PUSH2 0xD76 DUP3 PUSH2 0xCD7 JUMP JUMPDEST PUSH2 0xD80 DUP2 DUP6 PUSH2 0xCE1 JUMP JUMPDEST SWAP4 POP DUP4 PUSH1 0x20 DUP3 MUL DUP6 ADD PUSH2 0xD92 DUP6 PUSH2 0xCF1 JUMP JUMPDEST DUP1 PUSH0 JUMPDEST DUP6 DUP2 LT ISZERO PUSH2 0xDCD JUMPI DUP5 DUP5 SUB DUP10 MSTORE DUP2 MLOAD PUSH2 0xDAE DUP6 DUP3 PUSH2 0xD4D JUMP JUMPDEST SWAP5 POP PUSH2 0xDB9 DUP4 PUSH2 0xD60 JUMP JUMPDEST SWAP3 POP PUSH1 0x20 DUP11 ADD SWAP10 POP POP PUSH1 0x1 DUP2 ADD SWAP1 POP PUSH2 0xD95 JUMP JUMPDEST POP DUP3 SWAP8 POP DUP8 SWAP6 POP POP POP POP POP POP SWAP3 SWAP2 POP POP JUMP JUMPDEST PUSH0 PUSH1 0x20 DUP3 ADD SWAP1 POP DUP2 DUP2 SUB PUSH0 DUP4 ADD MSTORE PUSH2 0xDF7 DUP2 DUP5 PUSH2 0xD6C JUMP JUMPDEST SWAP1 POP SWAP3 SWAP2 POP POP JUMP JUMPDEST PUSH1 0x3 DUP2 LT PUSH2 0xE0B JUMPI PUSH0 PUSH0 REVERT JUMPDEST POP JUMP JUMPDEST PUSH0 DUP2 CALLDATALOAD SWAP1 POP PUSH2 0xE1C DUP2 PUSH2 0xDFF JUMP JUMPDEST SWAP3 SWAP2 POP POP JUMP JUMPDEST PUSH0 PUSH0 PUSH1 0x40 DUP4 DUP6 SUB SLT ISZERO PUSH2 0xE38 JUMPI PUSH2 0xE37 PUSH2 0xA7A JUMP JUMPDEST JUMPDEST PUSH0 PUSH2 0xE45 DUP6 DUP3 DUP7 ADD PUSH2 0xAFB JUMP JUMPDEST SWAP3 POP POP PUSH1 0x20 PUSH2 0xE56 DUP6 DUP3 DUP7 ADD PUSH2 0xE0E JUMP JUMPDEST SWAP2 POP POP SWAP3 POP SWAP3 SWAP1 POP JUMP JUMPDEST PUSH0 PUSH1 0x20 DUP3 DUP5 SUB SLT ISZERO PUSH2 0xE75 JUMPI PUSH2 0xE74 PUSH2 0xA7A JUMP JUMPDEST JUMPDEST PUSH0 PUSH2 0xE82 DUP5 DUP3 DUP6 ADD PUSH2 0xAFB JUMP JUMPDEST SWAP2 POP POP SWAP3 SWAP2 POP POP JUMP JUMPDEST PUSH0 DUP3 DUP3 MSTORE PUSH1 0x20 DUP3 ADD SWAP1 POP SWAP3 SWAP2 POP POP JUMP JUMPDEST PUSH0 PUSH2 0xEA5 DUP3 PUSH2 0xB4D JUMP JUMPDEST PUSH2 0xEAF DUP2 DUP6 PUSH2 0xE8B JUMP JUMPDEST SWAP4 POP PUSH2 0xEBF DUP2 DUP6 PUSH1 0x20 DUP7 ADD PUSH2 0xB67 JUMP JUMPDEST PUSH2 0xEC8 DUP2 PUSH2 0xB75 JUMP JUMPDEST DUP5 ADD SWAP2 POP POP SWAP3 SWAP2 POP POP JUMP JUMPDEST PUSH2 0xEDC DUP2 PUSH2 0xC10 JUMP JUMPDEST DUP3 MSTORE POP POP JUMP JUMPDEST PUSH2 0xEEB DUP2 PUSH2 0xADC JUMP JUMPDEST DUP3 MSTORE POP POP JUMP JUMPDEST PUSH0 PUSH1 0x60 DUP3 ADD SWAP1 POP DUP2 DUP2 SUB PUSH0 DUP4 ADD MSTORE PUSH2 0xF09 DUP2 DUP7 PUSH2 0xE9B JUMP JUMPDEST SWAP1 POP PUSH2 0xF18 PUSH1 0x20 DUP4 ADD DUP6 PUSH2 0xED3 JUMP JUMPDEST PUSH2 0xF25 PUSH1 0x40 DUP4 ADD DUP5 PUSH2 0xEE2 JUMP JUMPDEST SWAP5 SWAP4 POP POP POP POP JUMP JUMPDEST PUSH0 PUSH0 REVERT JUMPDEST PUSH0 PUSH0 REVERT JUMPDEST PUSH32 0x4E487B7100000000000000000000000000000000000000000000000000000000 PUSH0 MSTORE PUSH1 0x41 PUSH1 0x4 MSTORE PUSH1 0x24 PUSH0 REVERT JUMPDEST PUSH2 0xF6B DUP3 PUSH2 0xB75 JUMP JUMPDEST DUP2 ADD DUP2 DUP2 LT PUSH8 0xFFFFFFFFFFFFFFFF DUP3 GT OR ISZERO PUSH2 0xF8A JUMPI PUSH2 0xF89 PUSH2 0xF35 JUMP JUMPDEST JUMPDEST DUP1 PUSH1 0x40 MSTORE POP POP POP JUMP JUMPDEST PUSH0 PUSH2 0xF9C PUSH2 0xA71 JUMP JUMPDEST SWAP1 POP PUSH2 0xFA8 DUP3 DUP3 PUSH2 0xF62 JUMP JUMPDEST SWAP2 SWAP1 POP JUMP JUMPDEST PUSH0 PUSH8 0xFFFFFFFFFFFFFFFF DUP3 GT ISZERO PUSH2 0xFC7 JUMPI PUSH2 0xFC6 PUSH2 0xF35 JUMP JUMPDEST JUMPDEST PUSH2 0xFD0 DUP3 PUSH2 0xB75 JUMP JUMPDEST SWAP1 POP PUSH1 0x20 DUP2 ADD SWAP1 POP SWAP2 SWAP1 POP JUMP JUMPDEST DUP3 DUP2 DUP4 CALLDATACOPY PUSH0 DUP4 DUP4 ADD MSTORE POP POP POP JUMP JUMPDEST PUSH0 PUSH2 0xFFD PUSH2 0xFF8 DUP5 PUSH2 0xFAD JUMP JUMPDEST PUSH2 0xF93 JUMP JUMPDEST SWAP1 POP DUP3 DUP2 MSTORE PUSH1 0x20 DUP2 ADD DUP5 DUP5 DUP5 ADD GT ISZERO PUSH2 0x1019 JUMPI PUSH2 0x1018 PUSH2 0xF31 JUMP JUMPDEST JUMPDEST PUSH2 0x1024 DUP5 DUP3 DUP6 PUSH2 0xFDD JUMP JUMPDEST POP SWAP4 SWAP3 POP POP POP JUMP JUMPDEST PUSH0 DUP3 PUSH1 0x1F DUP4 ADD SLT PUSH2 0x1040 JUMPI PUSH2 0x103F PUSH2 0xF2D JUMP JUMPDEST JUMPDEST DUP2 CALLDATALOAD PUSH2 0x1050 DUP5 DUP3 PUSH1 0x20 DUP7 ADD PUSH2 0xFEB JUMP JUMPDEST SWAP2 POP POP SWAP3 SWAP2 POP POP JUMP JUMPDEST PUSH0 PUSH0 PUSH1 0x40 DUP4 DUP6 SUB SLT ISZERO PUSH2 0x106F JUMPI PUSH2 0x106E PUSH2 0xA7A JUMP JUMPDEST JUMPDEST PUSH0 PUSH2 0x107C DUP6 DUP3 DUP7 ADD PUSH2 0xAFB JUMP JUMPDEST SWAP3 POP POP PUSH1 0x20 DUP4 ADD CALLDATALOAD PUSH8 0xFFFFFFFFFFFFFFFF DUP2 GT ISZERO PUSH2 0x109D JUMPI PUSH2 0x109C PUSH2 0xA7E JUMP JUMPDEST JUMPDEST PUSH2 0x10A9 DUP6 DUP3 DUP7 ADD PUSH2 0x102C JUMP JUMPDEST SWAP2 POP POP SWAP3 POP SWAP3 SWAP1 POP JUMP JUMPDEST PUSH0 PUSH0 PUSH1 0x40 DUP4 DUP6 SUB SLT ISZERO PUSH2 0x10C9 JUMPI PUSH2 0x10C8 PUSH2 0xA7A JUMP JUMPDEST JUMPDEST PUSH0 PUSH2 0x10D6 DUP6 DUP3 DUP7 ADD PUSH2 0xE0E JUMP JUMPDEST SWAP3 POP POP PUSH1 0x20 DUP4 ADD CALLDATALOAD PUSH8 0xFFFFFFFFFFFFFFFF DUP2 GT ISZERO PUSH2 0x10F7 JUMPI PUSH2 0x10F6 PUSH2 0xA7E JUMP JUMPDEST JUMPDEST PUSH2 0x1103 DUP6 DUP3 DUP7 ADD PUSH2 0x102C JUMP JUMPDEST SWAP2 POP POP SWAP3 POP SWAP3 SWAP1 POP JUMP JUMPDEST PUSH0 PUSH1 0x20 DUP3 ADD SWAP1 POP PUSH2 0x1120 PUSH0 DUP4 ADD DUP5 PUSH2 0xEE2 JUMP JUMPDEST SWAP3 SWAP2 POP POP JUMP JUMPDEST PUSH32 0x696E76616C696420696E64657800000000000000000000000000000000000000 PUSH0 DUP3 ADD MSTORE POP JUMP JUMPDEST PUSH0 PUSH2 0x115A PUSH1 0xD DUP4 PUSH2 0xE8B JUMP JUMPDEST SWAP2 POP PUSH2 0x1165 DUP3 PUSH2 0x1126 JUMP JUMPDEST PUSH1 0x20 DUP3 ADD SWAP1 POP SWAP2 SWAP1 POP JUMP JUMPDEST PUSH0 PUSH1 0x20 DUP3 ADD SWAP1 POP DUP2 DUP2 SUB PUSH0 DUP4 ADD MSTORE PUSH2 0x1187 DUP2 PUSH2 0x114E JUMP JUMPDEST SWAP1 POP SWAP2 SWAP1 POP JUMP JUMPDEST PUSH32 0x4E487B7100000000000000000000000000000000000000000000000000000000 PUSH0 MSTORE PUSH1 0x32 PUSH1 0x4 MSTORE PUSH1 0x24 PUSH0 REVERT JUMPDEST PUSH32 0x4E487B7100000000000000000000000000000000000000000000000000000000 PUSH0 MSTORE PUSH1 0x22 PUSH1 0x4 MSTORE PUSH1 0x24 PUSH0 REVERT JUMPDEST PUSH0 PUSH1 0x2 DUP3 DIV SWAP1 POP PUSH1 0x1 DUP3 AND DUP1 PUSH2 0x11FF JUMPI PUSH1 0x7F DUP3 AND SWAP2 POP JUMPDEST PUSH1 0x20 DUP3 LT DUP2 SUB PUSH2 0x1212 JUMPI PUSH2 0x1211 PUSH2 0x11BB JUMP JUMPDEST JUMPDEST POP SWAP2 SWAP1 POP JUMP JUMPDEST PUSH32 0x4E487B7100000000000000000000000000000000000000000000000000000000 PUSH0 MSTORE PUSH1 0x11 PUSH1 0x4 MSTORE PUSH1 0x24 PUSH0 REVERT JUMPDEST PUSH0 PUSH2 0x124F DUP3 PUSH2 0xADC JUMP JUMPDEST SWAP2 POP PUSH32 0xFFFFFFFFFFFFFFFFFFFFFFFFFFFFFFFFFFFFFFFFFFFFFFFFFFFFFFFFFFFFFFFF DUP3 SUB PUSH2 0x1281 JUMPI PUSH2 0x1280 PUSH2 0x1218 JUMP JUMPDEST JUMPDEST PUSH1 0x1 DUP3 ADD SWAP1 POP SWAP2 SWAP1 POP JUMP JUMPDEST PUSH2 0x1295 DUP2 PUSH2 0xAA1 JUMP JUMPDEST DUP3 MSTORE POP POP JUMP JUMPDEST PUSH0 DUP2 SWAP1 POP DUP2 PUSH0 MSTORE PUSH1 0x20 PUSH0 KECCAK256 SWAP1 POP SWAP2 SWAP1 POP JUMP JUMPDEST PUSH0 DUP2 SLOAD PUSH2 0x12B9 DUP2 PUSH2 0x11E8 JUMP JUMPDEST PUSH2 0x12C3 DUP2 DUP7 PUSH2 0xE8B JUMP JUMPDEST SWAP5 POP PUSH1 0x1 DUP3 AND PUSH0 DUP2 EQ PUSH2 0x12DD JUMPI PUSH1 0x1 DUP2 EQ PUSH2 0x12F3 JUMPI PUSH2 0x1325 JUMP JUMPDEST PUSH1 0xFF NOT DUP4 AND DUP7 MSTORE DUP2 ISZERO ISZERO PUSH1 0x20 MUL DUP7 ADD SWAP4 POP PUSH2 0x1325 JUMP JUMPDEST PUSH2 0x12FC DUP6 PUSH2 0x129B JUMP JUMPDEST PUSH0 JUMPDEST DUP4 DUP2 LT ISZERO PUSH2 0x131D JUMPI DUP2 SLOAD DUP2 DUP10 ADD MSTORE PUSH1 0x1 DUP3 ADD SWAP2 POP PUSH1 0x20 DUP2 ADD SWAP1 POP PUSH2 0x12FE JUMP JUMPDEST DUP1 DUP9 ADD SWAP6 POP POP POP JUMPDEST POP POP POP SWAP3 SWAP2 POP POP JUMP JUMPDEST PUSH0 PUSH1 0x80 DUP3 ADD SWAP1 POP PUSH2 0x1341 PUSH0 DUP4 ADD DUP8 PUSH2 0x128C JUMP JUMPDEST PUSH2 0x134E PUSH1 0x20 DUP4 ADD DUP7 PUSH2 0xEE2 JUMP JUMPDEST DUP2 DUP2 SUB PUSH1 0x40 DUP4 ADD MSTORE PUSH2 0x1360 DUP2 DUP6 PUSH2 0x12AD JUMP JUMPDEST SWAP1 POP DUP2 DUP2 SUB PUSH1 0x60 DUP4 ADD MSTORE PUSH2 0x1374 DUP2 DUP5 PUSH2 0xE9B JUMP JUMPDEST SWAP1 POP SWAP6 SWAP5 POP POP POP POP POP JUMP JUMPDEST PUSH0 PUSH1 0x20 PUSH1 0x1F DUP4 ADD DIV SWAP1 POP SWAP2 SWAP1 POP JUMP JUMPDEST PUSH0 DUP3 DUP3 SHL SWAP1 POP SWAP3 SWAP2 POP POP JUMP JUMPDEST PUSH0 PUSH1 0x8 DUP4 MUL PUSH2 0x13C9 PUSH32 0xFFFFFFFFFFFFFFFFFFFFFFFFFFFFFFFFFFFFFFFFFFFFFFFFFFFFFFFFFFFFFFFF DUP3 PUSH2 0x138E JUMP JUMPDEST PUSH2 0x13D3 DUP7 DUP4 PUSH2 0x138E JUMP JUMPDEST SWAP6 POP DUP1 NOT DUP5 AND SWAP4 POP DUP1 DUP7 AND DUP5 OR SWAP3 POP POP POP SWAP4 SWAP3 POP POP POP JUMP JUMPDEST PUSH0 DUP2 SWAP1 POP SWAP2 SWAP1 POP JUMP JUMPDEST PUSH0 PUSH2 0x140E PUSH2 0x1409 PUSH2 0x1404 DUP5 PUSH2 0xADC JUMP JUMPDEST PUSH2 0x13EB JUMP JUMPDEST PUSH2 0xADC JUMP JUMPDEST SWAP1 POP SWAP2 SWAP1 POP JUMP JUMPDEST PUSH0 DUP2 SWAP1 POP SWAP2 SWAP1 POP JUMP JUMPDEST PUSH2 0x1427 DUP4 PUSH2 0x13F4 JUMP JUMPDEST PUSH2 0x143B PUSH2 0x1433 DUP3 PUSH2 0x1415 JUMP JUMPDEST DUP5 DUP5 SLOAD PUSH2 0x139A JUMP JUMPDEST DUP3 SSTORE POP POP POP POP JUMP JUMPDEST PUSH0 PUSH0 SWAP1 POP SWAP1 JUMP JUMPDEST PUSH2 0x1452 PUSH2 0x1443 JUMP JUMPDEST PUSH2 0x145D DUP2 DUP5 DUP5 PUSH2 0x141E JUMP JUMPDEST POP POP POP JUMP JUMPDEST JUMPDEST DUP2 DUP2 LT ISZERO PUSH2 0x1480 JUMPI PUSH2 0x1475 PUSH0 DUP3 PUSH2 0x144A JUMP JUMPDEST PUSH1 0x1 DUP2 ADD SWAP1 POP PUSH2 0x1463 JUMP JUMPDEST POP POP JUMP JUMPDEST PUSH1 0x1F DUP3 GT ISZERO PUSH2 0x14C5 JUMPI PUSH2 0x1496 DUP2 PUSH2 0x129B JUMP JUMPDEST PUSH2 0x149F DUP5 PUSH2 0x137F JUMP JUMPDEST DUP2 ADD PUSH1 0x20 DUP6 LT ISZERO PUSH2 0x14AE JUMPI DUP2 SWAP1 POP JUMPDEST PUSH2 0x14C2 PUSH2 0x14BA DUP6 PUSH2 0x137F JUMP JUMPDEST DUP4 ADD DUP3 PUSH2 0x1462 JUMP JUMPDEST POP POP JUMPDEST POP POP POP JUMP JUMPDEST PUSH0 DUP3 DUP3 SHR SWAP1 POP SWAP3 SWAP2 POP POP JUMP JUMPDEST PUSH0 PUSH2 0x14E5 PUSH0 NOT DUP5 PUSH1 0x8 MUL PUSH2 0x14CA JUMP JUMPDEST NOT DUP1 DUP4 AND SWAP2 POP POP SWAP3 SWAP2 POP POP JUMP JUMPDEST PUSH0 PUSH2 0x14FD DUP4 DUP4 PUSH2 0x14D6 JUMP JUMPDEST SWAP2 POP DUP3 PUSH1 0x2 MUL DUP3 OR SWAP1 POP SWAP3 SWAP2 POP POP JUMP JUMPDEST PUSH2 0x1516 DUP3 PUSH2 0xB4D JUMP JUMPDEST PUSH8 0xFFFFFFFFFFFFFFFF DUP2 GT ISZERO PUSH2 0x152F JUMPI PUSH2 0x152E PUSH2 0xF35 JUMP JUMPDEST JUMPDEST PUSH2 0x1539 DUP3 SLOAD PUSH2 0x11E8 JUMP JUMPDEST PUSH2 0x1544 DUP3 DUP3 DUP6 PUSH2 0x1484 JUMP JUMPDEST PUSH0 PUSH1 0x20 SWAP1 POP PUSH1 0x1F DUP4 GT PUSH1 0x1 DUP2 EQ PUSH2 0x1575 JUMPI PUSH0 DUP5 ISZERO PUSH2 0x1563 JUMPI DUP3 DUP8 ADD MLOAD SWAP1 POP JUMPDEST PUSH2 0x156D DUP6 DUP3 PUSH2 0x14F2 JUMP JUMPDEST DUP7 SSTORE POP PUSH2 0x15D4 JUMP JUMPDEST PUSH1 0x1F NOT DUP5 AND PUSH2 0x1583 DUP7 PUSH2 0x129B JUMP JUMPDEST PUSH0 JUMPDEST DUP3 DUP2 LT ISZERO PUSH2 0x15AA JUMPI DUP5 DUP10 ADD MLOAD DUP3 SSTORE PUSH1 0x1 DUP3 ADD SWAP2 POP PUSH1 0x20 DUP6 ADD SWAP5 POP PUSH1 0x20 DUP2 ADD SWAP1 POP PUSH2 0x1585 JUMP JUMPDEST DUP7 DUP4 LT ISZERO PUSH2 0x15C7 JUMPI DUP5 DUP10 ADD MLOAD PUSH2 0x15C3 PUSH1 0x1F DUP10 AND DUP3 PUSH2 0x14D6 JUMP JUMPDEST DUP4 SSTORE POP JUMPDEST PUSH1 0x1 PUSH1 0x2 DUP9 MUL ADD DUP9 SSTORE POP POP POP JUMPDEST POP POP POP POP POP POP JUMP JUMPDEST PUSH0 PUSH2 0x15E6 DUP3 PUSH2 0xADC JUMP JUMPDEST SWAP2 POP PUSH2 0x15F1 DUP4 PUSH2 0xADC JUMP JUMPDEST SWAP3 POP DUP3 DUP3 SUB SWAP1 POP DUP2 DUP2 GT ISZERO PUSH2 0x1609 JUMPI PUSH2 0x1608 PUSH2 0x1218 JUMP JUMPDEST JUMPDEST SWAP3 SWAP2 POP POP JUMP INVALID LOG2 PUSH5 0x6970667358 0x22 SLT KECCAK256 0xF8 SELFDESTRUCT 0xCC PUSH26 0x35335FDBAC7F9CF05F6C8FB45368E2806B2463383F2A79F963E3 0xDE SWAP6 PUSH5 0x736F6C6343 STOP ADDMOD SHR STOP CALLER "
				},
				"gasEstimates": {
					"creation": {
						"codeDepositCost": "1140200",
						"executionCost": "infinite",
						"totalCost": "infinite"
					},
					"external": {
						"addInfo(uint8,string)": "infinite",
						"getMyInfoAtIndex(uint256)": "infinite",
						"getOneInfo(address,uint256)": "infinite",
						"listAllInfo(address)": "infinite",
						"setColor(uint256,uint8)": "infinite",
						"setInfo(uint256,string)": "infinite",
						"storedInfos(address,uint256)": "infinite"
					}
				},
				"methodIdentifiers": {
					"addInfo(uint8,string)": "e8f36962",
					"getMyInfoAtIndex(uint256)": "8cdd8902",
					"getOneInfo(address,uint256)": "08c46711",
					"listAllInfo(address)": "251101f5",
					"setColor(uint256,uint8)": "63ff1368",
					"setInfo(uint256,string)": "b6820002",
					"storedInfos(address,uint256)": "9ca3a5ed"
				}
			},
			"storageLayout": {
				"storage": [
					{
						"astId": 20,
						"contract": "ETH - Henry/contracts/register/Register15-All.sol:Register15",
						"label": "storedInfos",
						"offset": 0,
						"slot": "0",
						"type": "t_mapping(t_address,t_array(t_struct(InfoStruct)14_storage)dyn_storage)"
					}
				],
				"types": {
					"t_address": {
						"encoding": "inplace",
						"label": "address",
						"numberOfBytes": "20"
					},
					"t_array(t_struct(InfoStruct)14_storage)dyn_storage": {
						"base": "t_struct(InfoStruct)14_storage",
						"encoding": "dynamic_array",
						"label": "struct Register15.InfoStruct[]",
						"numberOfBytes": "32"
					},
					"t_enum(Colors)6": {
						"encoding": "inplace",
						"label": "enum Register15.Colors",
						"numberOfBytes": "1"
					},
					"t_mapping(t_address,t_array(t_struct(InfoStruct)14_storage)dyn_storage)": {
						"encoding": "mapping",
						"key": "t_address",
						"label": "mapping(address => struct Register15.InfoStruct[])",
						"numberOfBytes": "32",
						"value": "t_array(t_struct(InfoStruct)14_storage)dyn_storage"
					},
					"t_string_storage": {
						"encoding": "bytes",
						"label": "string",
						"numberOfBytes": "32"
					},
					"t_struct(InfoStruct)14_storage": {
						"encoding": "inplace",
						"label": "struct Register15.InfoStruct",
						"members": [
							{
								"astId": 8,
								"contract": "ETH - Henry/contracts/register/Register15-All.sol:Register15",
								"label": "info",
								"offset": 0,
								"slot": "0",
								"type": "t_string_storage"
							},
							{
								"astId": 11,
								"contract": "ETH - Henry/contracts/register/Register15-All.sol:Register15",
								"label": "color",
								"offset": 0,
								"slot": "1",
								"type": "t_enum(Colors)6"
							},
							{
								"astId": 13,
								"contract": "ETH - Henry/contracts/register/Register15-All.sol:Register15",
								"label": "countChanges",
								"offset": 0,
								"slot": "2",
								"type": "t_uint256"
							}
						],
						"numberOfBytes": "96"
					},
					"t_uint256": {
						"encoding": "inplace",
						"label": "uint256",
						"numberOfBytes": "32"
					}
				}
			},
			"userdoc": {
				"kind": "user",
				"methods": {
					"addInfo(uint8,string)": {
						"notice": "Store `myColor` and `myInfo` at the end of the struct array"
					},
					"getMyInfoAtIndex(uint256)": {
						"notice": "Return the struct in index"
					},
					"getOneInfo(address,uint256)": {
						"notice": "Return the struct in index for an given address"
					},
					"listAllInfo(address)": {
						"notice": "Return all the structs stored in the array per address account"
					},
					"setColor(uint256,uint8)": {
						"notice": "Update the color at the index"
					},
					"setInfo(uint256,string)": {
						"notice": "Update `newInfo` in some index of the struct array"
					}
				},
				"version": 1
			}
		}
	}
}