{
	"ETH - Henry/contracts/register/Register11.sol": {
		"Register11": {
			"abi": [
				{
					"inputs": [],
					"stateMutability": "nonpayable",
					"type": "constructor"
				},
				{
					"inputs": [
						{
							"internalType": "address",
							"name": "member",
							"type": "address"
						}
					],
					"name": "addMember",
					"outputs": [],
					"stateMutability": "nonpayable",
					"type": "function"
				},
				{
					"inputs": [
						{
							"internalType": "address",
							"name": "member",
							"type": "address"
						}
					],
					"name": "delMember",
					"outputs": [],
					"stateMutability": "nonpayable",
					"type": "function"
				},
				{
					"inputs": [],
					"name": "getInfo",
					"outputs": [
						{
							"internalType": "string",
							"name": "",
							"type": "string"
						}
					],
					"stateMutability": "view",
					"type": "function"
				},
				{
					"inputs": [],
					"name": "owner",
					"outputs": [
						{
							"internalType": "address",
							"name": "",
							"type": "address"
						}
					],
					"stateMutability": "view",
					"type": "function"
				},
				{
					"inputs": [
						{
							"internalType": "string",
							"name": "myInfo",
							"type": "string"
						}
					],
					"name": "setInfo",
					"outputs": [],
					"stateMutability": "nonpayable",
					"type": "function"
				},
				{
					"inputs": [
						{
							"internalType": "address",
							"name": "",
							"type": "address"
						}
					],
					"name": "whiteList",
					"outputs": [
						{
							"internalType": "bool",
							"name": "",
							"type": "bool"
						}
					],
					"stateMutability": "view",
					"type": "function"
				}
			],
			"devdoc": {
				"author": "Solange Gueiros",
				"kind": "dev",
				"methods": {
					"addMember(address)": {
						"details": "update value true to the address in the whitelist",
						"params": {
							"member": "is the adddress to be allowed"
						}
					},
					"delMember(address)": {
						"details": "update value false to the address in the whitelist",
						"params": {
							"member": "is the adddress to be unallowed"
						}
					},
					"getInfo()": {
						"details": "retrieves the string of the state variable `storedInfo`",
						"returns": {
							"_0": "the stored string"
						}
					},
					"setInfo(string)": {
						"details": "function modifier onlyWhitelist",
						"params": {
							"myInfo": "the new string to store"
						}
					}
				},
				"title": "Concepts: mapping and access control: whiteList",
				"version": 1
			},
			"evm": {
				"assembly": "    /* \"ETH - Henry/contracts/register/Register11.sol\":149:2105  contract Register11 {... */\n  mstore(0x40, 0x80)\n    /* \"ETH - Henry/contracts/register/Register11.sol\":286:413  constructor() {... */\n  callvalue\n  dup1\n  iszero\n  tag_1\n  jumpi\n  revert(0x00, 0x00)\ntag_1:\n  pop\n    /* \"ETH - Henry/contracts/register/Register11.sol\":319:329  msg.sender */\n  caller\n    /* \"ETH - Henry/contracts/register/Register11.sol\":311:316  owner */\n  0x01\n  0x00\n    /* \"ETH - Henry/contracts/register/Register11.sol\":311:329  owner = msg.sender */\n  0x0100\n  exp\n  dup2\n  sload\n  dup2\n  0xffffffffffffffffffffffffffffffffffffffff\n  mul\n  not\n  and\n  swap1\n  dup4\n  0xffffffffffffffffffffffffffffffffffffffff\n  and\n  mul\n  or\n  swap1\n  sstore\n  pop\n    /* \"ETH - Henry/contracts/register/Register11.sol\":364:368  true */\n  0x01\n    /* \"ETH - Henry/contracts/register/Register11.sol\":340:349  whiteList */\n  0x02\n    /* \"ETH - Henry/contracts/register/Register11.sol\":340:361  whiteList[msg.sender] */\n  0x00\n    /* \"ETH - Henry/contracts/register/Register11.sol\":350:360  msg.sender */\n  caller\n    /* \"ETH - Henry/contracts/register/Register11.sol\":340:361  whiteList[msg.sender] */\n  0xffffffffffffffffffffffffffffffffffffffff\n  and\n  0xffffffffffffffffffffffffffffffffffffffff\n  and\n  dup2\n  mstore\n  0x20\n  add\n  swap1\n  dup2\n  mstore\n  0x20\n  add\n  0x00\n  keccak256\n  0x00\n    /* \"ETH - Henry/contracts/register/Register11.sol\":340:368  whiteList[msg.sender] = true */\n  0x0100\n  exp\n  dup2\n  sload\n  dup2\n  0xff\n  mul\n  not\n  and\n  swap1\n  dup4\n  iszero\n  iszero\n  mul\n  or\n  swap1\n  sstore\n  pop\n    /* \"ETH - Henry/contracts/register/Register11.sol\":379:405  storedInfo = \"Hello world\" */\n  mload(0x40)\n  dup1\n  0x40\n  add\n  0x40\n  mstore\n  dup1\n  0x0b\n  dup2\n  mstore\n  0x20\n  add\n  0x48656c6c6f20776f726c64000000000000000000000000000000000000000000\n  dup2\n  mstore\n  pop\n    /* \"ETH - Henry/contracts/register/Register11.sol\":379:389  storedInfo */\n  0x00\n    /* \"ETH - Henry/contracts/register/Register11.sol\":379:405  storedInfo = \"Hello world\" */\n  swap1\n  dup2\n  tag_4\n  swap2\n  swap1\n  tag_5\n  jump\t// in\ntag_4:\n  pop\n    /* \"ETH - Henry/contracts/register/Register11.sol\":149:2105  contract Register11 {... */\n  jump(tag_6)\n    /* \"#utility.yul\":7:106   */\ntag_7:\n    /* \"#utility.yul\":59:65   */\n  0x00\n    /* \"#utility.yul\":93:98   */\n  dup2\n    /* \"#utility.yul\":87:99   */\n  mload\n    /* \"#utility.yul\":77:99   */\n  swap1\n  pop\n    /* \"#utility.yul\":7:106   */\n  swap2\n  swap1\n  pop\n  jump\t// out\n    /* \"#utility.yul\":112:292   */\ntag_8:\n    /* \"#utility.yul\":160:237   */\n  0x4e487b7100000000000000000000000000000000000000000000000000000000\n    /* \"#utility.yul\":157:158   */\n  0x00\n    /* \"#utility.yul\":150:238   */\n  mstore\n    /* \"#utility.yul\":257:261   */\n  0x41\n    /* \"#utility.yul\":254:255   */\n  0x04\n    /* \"#utility.yul\":247:262   */\n  mstore\n    /* \"#utility.yul\":281:285   */\n  0x24\n    /* \"#utility.yul\":278:279   */\n  0x00\n    /* \"#utility.yul\":271:286   */\n  revert\n    /* \"#utility.yul\":298:478   */\ntag_9:\n    /* \"#utility.yul\":346:423   */\n  0x4e487b7100000000000000000000000000000000000000000000000000000000\n    /* \"#utility.yul\":343:344   */\n  0x00\n    /* \"#utility.yul\":336:424   */\n  mstore\n    /* \"#utility.yul\":443:447   */\n  0x22\n    /* \"#utility.yul\":440:441   */\n  0x04\n    /* \"#utility.yul\":433:448   */\n  mstore\n    /* \"#utility.yul\":467:471   */\n  0x24\n    /* \"#utility.yul\":464:465   */\n  0x00\n    /* \"#utility.yul\":457:472   */\n  revert\n    /* \"#utility.yul\":484:804   */\ntag_10:\n    /* \"#utility.yul\":528:534   */\n  0x00\n    /* \"#utility.yul\":565:566   */\n  0x02\n    /* \"#utility.yul\":559:563   */\n  dup3\n    /* \"#utility.yul\":555:567   */\n  div\n    /* \"#utility.yul\":545:567   */\n  swap1\n  pop\n    /* \"#utility.yul\":612:613   */\n  0x01\n    /* \"#utility.yul\":606:610   */\n  dup3\n    /* \"#utility.yul\":602:614   */\n  and\n    /* \"#utility.yul\":633:651   */\n  dup1\n    /* \"#utility.yul\":623:704   */\n  tag_32\n  jumpi\n    /* \"#utility.yul\":689:693   */\n  0x7f\n    /* \"#utility.yul\":681:687   */\n  dup3\n    /* \"#utility.yul\":677:694   */\n  and\n    /* \"#utility.yul\":667:694   */\n  swap2\n  pop\n    /* \"#utility.yul\":623:704   */\ntag_32:\n    /* \"#utility.yul\":751:753   */\n  0x20\n    /* \"#utility.yul\":743:749   */\n  dup3\n    /* \"#utility.yul\":740:754   */\n  lt\n    /* \"#utility.yul\":720:738   */\n  dup2\n    /* \"#utility.yul\":717:755   */\n  sub\n    /* \"#utility.yul\":714:798   */\n  tag_33\n  jumpi\n    /* \"#utility.yul\":770:788   */\n  tag_34\n  tag_9\n  jump\t// in\ntag_34:\n    /* \"#utility.yul\":714:798   */\ntag_33:\n    /* \"#utility.yul\":535:804   */\n  pop\n    /* \"#utility.yul\":484:804   */\n  swap2\n  swap1\n  pop\n  jump\t// out\n    /* \"#utility.yul\":810:951   */\ntag_11:\n    /* \"#utility.yul\":859:863   */\n  0x00\n    /* \"#utility.yul\":882:885   */\n  dup2\n    /* \"#utility.yul\":874:885   */\n  swap1\n  pop\n    /* \"#utility.yul\":905:908   */\n  dup2\n    /* \"#utility.yul\":902:903   */\n  0x00\n    /* \"#utility.yul\":895:909   */\n  mstore\n    /* \"#utility.yul\":939:943   */\n  0x20\n    /* \"#utility.yul\":936:937   */\n  0x00\n    /* \"#utility.yul\":926:944   */\n  keccak256\n    /* \"#utility.yul\":918:944   */\n  swap1\n  pop\n    /* \"#utility.yul\":810:951   */\n  swap2\n  swap1\n  pop\n  jump\t// out\n    /* \"#utility.yul\":957:1050   */\ntag_12:\n    /* \"#utility.yul\":994:1000   */\n  0x00\n    /* \"#utility.yul\":1041:1043   */\n  0x20\n    /* \"#utility.yul\":1036:1038   */\n  0x1f\n    /* \"#utility.yul\":1029:1034   */\n  dup4\n    /* \"#utility.yul\":1025:1039   */\n  add\n    /* \"#utility.yul\":1021:1044   */\n  div\n    /* \"#utility.yul\":1011:1044   */\n  swap1\n  pop\n    /* \"#utility.yul\":957:1050   */\n  swap2\n  swap1\n  pop\n  jump\t// out\n    /* \"#utility.yul\":1056:1163   */\ntag_13:\n    /* \"#utility.yul\":1100:1108   */\n  0x00\n    /* \"#utility.yul\":1150:1155   */\n  dup3\n    /* \"#utility.yul\":1144:1148   */\n  dup3\n    /* \"#utility.yul\":1140:1156   */\n  shl\n    /* \"#utility.yul\":1119:1156   */\n  swap1\n  pop\n    /* \"#utility.yul\":1056:1163   */\n  swap3\n  swap2\n  pop\n  pop\n  jump\t// out\n    /* \"#utility.yul\":1169:1562   */\ntag_14:\n    /* \"#utility.yul\":1238:1244   */\n  0x00\n    /* \"#utility.yul\":1288:1289   */\n  0x08\n    /* \"#utility.yul\":1276:1286   */\n  dup4\n    /* \"#utility.yul\":1272:1290   */\n  mul\n    /* \"#utility.yul\":1311:1408   */\n  tag_39\n    /* \"#utility.yul\":1341:1407   */\n  0xffffffffffffffffffffffffffffffffffffffffffffffffffffffffffffffff\n    /* \"#utility.yul\":1330:1339   */\n  dup3\n    /* \"#utility.yul\":1311:1408   */\n  tag_13\n  jump\t// in\ntag_39:\n    /* \"#utility.yul\":1429:1468   */\n  tag_40\n    /* \"#utility.yul\":1459:1467   */\n  dup7\n    /* \"#utility.yul\":1448:1457   */\n  dup4\n    /* \"#utility.yul\":1429:1468   */\n  tag_13\n  jump\t// in\ntag_40:\n    /* \"#utility.yul\":1417:1468   */\n  swap6\n  pop\n    /* \"#utility.yul\":1501:1505   */\n  dup1\n    /* \"#utility.yul\":1497:1506   */\n  not\n    /* \"#utility.yul\":1490:1495   */\n  dup5\n    /* \"#utility.yul\":1486:1507   */\n  and\n    /* \"#utility.yul\":1477:1507   */\n  swap4\n  pop\n    /* \"#utility.yul\":1550:1554   */\n  dup1\n    /* \"#utility.yul\":1540:1548   */\n  dup7\n    /* \"#utility.yul\":1536:1555   */\n  and\n    /* \"#utility.yul\":1529:1534   */\n  dup5\n    /* \"#utility.yul\":1526:1556   */\n  or\n    /* \"#utility.yul\":1516:1556   */\n  swap3\n  pop\n    /* \"#utility.yul\":1245:1562   */\n  pop\n  pop\n    /* \"#utility.yul\":1169:1562   */\n  swap4\n  swap3\n  pop\n  pop\n  pop\n  jump\t// out\n    /* \"#utility.yul\":1568:1645   */\ntag_15:\n    /* \"#utility.yul\":1605:1612   */\n  0x00\n    /* \"#utility.yul\":1634:1639   */\n  dup2\n    /* \"#utility.yul\":1623:1639   */\n  swap1\n  pop\n    /* \"#utility.yul\":1568:1645   */\n  swap2\n  swap1\n  pop\n  jump\t// out\n    /* \"#utility.yul\":1651:1711   */\ntag_16:\n    /* \"#utility.yul\":1679:1682   */\n  0x00\n    /* \"#utility.yul\":1700:1705   */\n  dup2\n    /* \"#utility.yul\":1693:1705   */\n  swap1\n  pop\n    /* \"#utility.yul\":1651:1711   */\n  swap2\n  swap1\n  pop\n  jump\t// out\n    /* \"#utility.yul\":1717:1859   */\ntag_17:\n    /* \"#utility.yul\":1767:1776   */\n  0x00\n    /* \"#utility.yul\":1800:1853   */\n  tag_44\n    /* \"#utility.yul\":1818:1852   */\n  tag_45\n    /* \"#utility.yul\":1827:1851   */\n  tag_46\n    /* \"#utility.yul\":1845:1850   */\n  dup5\n    /* \"#utility.yul\":1827:1851   */\n  tag_15\n  jump\t// in\ntag_46:\n    /* \"#utility.yul\":1818:1852   */\n  tag_16\n  jump\t// in\ntag_45:\n    /* \"#utility.yul\":1800:1853   */\n  tag_15\n  jump\t// in\ntag_44:\n    /* \"#utility.yul\":1787:1853   */\n  swap1\n  pop\n    /* \"#utility.yul\":1717:1859   */\n  swap2\n  swap1\n  pop\n  jump\t// out\n    /* \"#utility.yul\":1865:1940   */\ntag_18:\n    /* \"#utility.yul\":1908:1911   */\n  0x00\n    /* \"#utility.yul\":1929:1934   */\n  dup2\n    /* \"#utility.yul\":1922:1934   */\n  swap1\n  pop\n    /* \"#utility.yul\":1865:1940   */\n  swap2\n  swap1\n  pop\n  jump\t// out\n    /* \"#utility.yul\":1946:2215   */\ntag_19:\n    /* \"#utility.yul\":2056:2095   */\n  tag_49\n    /* \"#utility.yul\":2087:2094   */\n  dup4\n    /* \"#utility.yul\":2056:2095   */\n  tag_17\n  jump\t// in\ntag_49:\n    /* \"#utility.yul\":2117:2208   */\n  tag_50\n    /* \"#utility.yul\":2166:2207   */\n  tag_51\n    /* \"#utility.yul\":2190:2206   */\n  dup3\n    /* \"#utility.yul\":2166:2207   */\n  tag_18\n  jump\t// in\ntag_51:\n    /* \"#utility.yul\":2158:2164   */\n  dup5\n    /* \"#utility.yul\":2151:2155   */\n  dup5\n    /* \"#utility.yul\":2145:2156   */\n  sload\n    /* \"#utility.yul\":2117:2208   */\n  tag_14\n  jump\t// in\ntag_50:\n    /* \"#utility.yul\":2111:2115   */\n  dup3\n    /* \"#utility.yul\":2104:2209   */\n  sstore\n    /* \"#utility.yul\":2022:2215   */\n  pop\n    /* \"#utility.yul\":1946:2215   */\n  pop\n  pop\n  pop\n  jump\t// out\n    /* \"#utility.yul\":2221:2294   */\ntag_20:\n    /* \"#utility.yul\":2266:2269   */\n  0x00\n    /* \"#utility.yul\":2287:2288   */\n  0x00\n    /* \"#utility.yul\":2280:2288   */\n  swap1\n  pop\n    /* \"#utility.yul\":2221:2294   */\n  swap1\n  jump\t// out\n    /* \"#utility.yul\":2300:2489   */\ntag_21:\n    /* \"#utility.yul\":2377:2409   */\n  tag_54\n  tag_20\n  jump\t// in\ntag_54:\n    /* \"#utility.yul\":2418:2483   */\n  tag_55\n    /* \"#utility.yul\":2476:2482   */\n  dup2\n    /* \"#utility.yul\":2468:2474   */\n  dup5\n    /* \"#utility.yul\":2462:2466   */\n  dup5\n    /* \"#utility.yul\":2418:2483   */\n  tag_19\n  jump\t// in\ntag_55:\n    /* \"#utility.yul\":2353:2489   */\n  pop\n    /* \"#utility.yul\":2300:2489   */\n  pop\n  pop\n  jump\t// out\n    /* \"#utility.yul\":2495:2681   */\ntag_22:\n    /* \"#utility.yul\":2555:2675   */\ntag_57:\n    /* \"#utility.yul\":2572:2575   */\n  dup2\n    /* \"#utility.yul\":2565:2570   */\n  dup2\n    /* \"#utility.yul\":2562:2576   */\n  lt\n    /* \"#utility.yul\":2555:2675   */\n  iszero\n  tag_59\n  jumpi\n    /* \"#utility.yul\":2626:2665   */\n  tag_60\n    /* \"#utility.yul\":2663:2664   */\n  0x00\n    /* \"#utility.yul\":2656:2661   */\n  dup3\n    /* \"#utility.yul\":2626:2665   */\n  tag_21\n  jump\t// in\ntag_60:\n    /* \"#utility.yul\":2599:2600   */\n  0x01\n    /* \"#utility.yul\":2592:2597   */\n  dup2\n    /* \"#utility.yul\":2588:2601   */\n  add\n    /* \"#utility.yul\":2579:2601   */\n  swap1\n  pop\n    /* \"#utility.yul\":2555:2675   */\n  jump(tag_57)\ntag_59:\n    /* \"#utility.yul\":2495:2681   */\n  pop\n  pop\n  jump\t// out\n    /* \"#utility.yul\":2687:3230   */\ntag_23:\n    /* \"#utility.yul\":2788:2790   */\n  0x1f\n    /* \"#utility.yul\":2783:2786   */\n  dup3\n    /* \"#utility.yul\":2780:2791   */\n  gt\n    /* \"#utility.yul\":2777:3223   */\n  iszero\n  tag_62\n  jumpi\n    /* \"#utility.yul\":2822:2860   */\n  tag_63\n    /* \"#utility.yul\":2854:2859   */\n  dup2\n    /* \"#utility.yul\":2822:2860   */\n  tag_11\n  jump\t// in\ntag_63:\n    /* \"#utility.yul\":2906:2935   */\n  tag_64\n    /* \"#utility.yul\":2924:2934   */\n  dup5\n    /* \"#utility.yul\":2906:2935   */\n  tag_12\n  jump\t// in\ntag_64:\n    /* \"#utility.yul\":2896:2904   */\n  dup2\n    /* \"#utility.yul\":2892:2936   */\n  add\n    /* \"#utility.yul\":3089:3091   */\n  0x20\n    /* \"#utility.yul\":3077:3087   */\n  dup6\n    /* \"#utility.yul\":3074:3092   */\n  lt\n    /* \"#utility.yul\":3071:3120   */\n  iszero\n  tag_65\n  jumpi\n    /* \"#utility.yul\":3110:3118   */\n  dup2\n    /* \"#utility.yul\":3095:3118   */\n  swap1\n  pop\n    /* \"#utility.yul\":3071:3120   */\ntag_65:\n    /* \"#utility.yul\":3133:3213   */\n  tag_66\n    /* \"#utility.yul\":3189:3211   */\n  tag_67\n    /* \"#utility.yul\":3207:3210   */\n  dup6\n    /* \"#utility.yul\":3189:3211   */\n  tag_12\n  jump\t// in\ntag_67:\n    /* \"#utility.yul\":3179:3187   */\n  dup4\n    /* \"#utility.yul\":3175:3212   */\n  add\n    /* \"#utility.yul\":3162:3173   */\n  dup3\n    /* \"#utility.yul\":3133:3213   */\n  tag_22\n  jump\t// in\ntag_66:\n    /* \"#utility.yul\":2792:3223   */\n  pop\n  pop\n    /* \"#utility.yul\":2777:3223   */\ntag_62:\n    /* \"#utility.yul\":2687:3230   */\n  pop\n  pop\n  pop\n  jump\t// out\n    /* \"#utility.yul\":3236:3353   */\ntag_24:\n    /* \"#utility.yul\":3290:3298   */\n  0x00\n    /* \"#utility.yul\":3340:3345   */\n  dup3\n    /* \"#utility.yul\":3334:3338   */\n  dup3\n    /* \"#utility.yul\":3330:3346   */\n  shr\n    /* \"#utility.yul\":3309:3346   */\n  swap1\n  pop\n    /* \"#utility.yul\":3236:3353   */\n  swap3\n  swap2\n  pop\n  pop\n  jump\t// out\n    /* \"#utility.yul\":3359:3528   */\ntag_25:\n    /* \"#utility.yul\":3403:3409   */\n  0x00\n    /* \"#utility.yul\":3436:3487   */\n  tag_70\n    /* \"#utility.yul\":3484:3485   */\n  0x00\n    /* \"#utility.yul\":3480:3486   */\n  not\n    /* \"#utility.yul\":3472:3477   */\n  dup5\n    /* \"#utility.yul\":3469:3470   */\n  0x08\n    /* \"#utility.yul\":3465:3478   */\n  mul\n    /* \"#utility.yul\":3436:3487   */\n  tag_24\n  jump\t// in\ntag_70:\n    /* \"#utility.yul\":3432:3488   */\n  not\n    /* \"#utility.yul\":3517:3521   */\n  dup1\n    /* \"#utility.yul\":3511:3515   */\n  dup4\n    /* \"#utility.yul\":3507:3522   */\n  and\n    /* \"#utility.yul\":3497:3522   */\n  swap2\n  pop\n    /* \"#utility.yul\":3410:3528   */\n  pop\n    /* \"#utility.yul\":3359:3528   */\n  swap3\n  swap2\n  pop\n  pop\n  jump\t// out\n    /* \"#utility.yul\":3533:3828   */\ntag_26:\n    /* \"#utility.yul\":3609:3613   */\n  0x00\n    /* \"#utility.yul\":3755:3784   */\n  tag_72\n    /* \"#utility.yul\":3780:3783   */\n  dup4\n    /* \"#utility.yul\":3774:3778   */\n  dup4\n    /* \"#utility.yul\":3755:3784   */\n  tag_25\n  jump\t// in\ntag_72:\n    /* \"#utility.yul\":3747:3784   */\n  swap2\n  pop\n    /* \"#utility.yul\":3817:3820   */\n  dup3\n    /* \"#utility.yul\":3814:3815   */\n  0x02\n    /* \"#utility.yul\":3810:3821   */\n  mul\n    /* \"#utility.yul\":3804:3808   */\n  dup3\n    /* \"#utility.yul\":3801:3822   */\n  or\n    /* \"#utility.yul\":3793:3822   */\n  swap1\n  pop\n    /* \"#utility.yul\":3533:3828   */\n  swap3\n  swap2\n  pop\n  pop\n  jump\t// out\n    /* \"#utility.yul\":3833:5228   */\ntag_5:\n    /* \"#utility.yul\":3950:3987   */\n  tag_74\n    /* \"#utility.yul\":3983:3986   */\n  dup3\n    /* \"#utility.yul\":3950:3987   */\n  tag_7\n  jump\t// in\ntag_74:\n    /* \"#utility.yul\":4052:4070   */\n  0xffffffffffffffff\n    /* \"#utility.yul\":4044:4050   */\n  dup2\n    /* \"#utility.yul\":4041:4071   */\n  gt\n    /* \"#utility.yul\":4038:4094   */\n  iszero\n  tag_75\n  jumpi\n    /* \"#utility.yul\":4074:4092   */\n  tag_76\n  tag_8\n  jump\t// in\ntag_76:\n    /* \"#utility.yul\":4038:4094   */\ntag_75:\n    /* \"#utility.yul\":4118:4156   */\n  tag_77\n    /* \"#utility.yul\":4150:4154   */\n  dup3\n    /* \"#utility.yul\":4144:4155   */\n  sload\n    /* \"#utility.yul\":4118:4156   */\n  tag_10\n  jump\t// in\ntag_77:\n    /* \"#utility.yul\":4203:4270   */\n  tag_78\n    /* \"#utility.yul\":4263:4269   */\n  dup3\n    /* \"#utility.yul\":4255:4261   */\n  dup3\n    /* \"#utility.yul\":4249:4253   */\n  dup6\n    /* \"#utility.yul\":4203:4270   */\n  tag_23\n  jump\t// in\ntag_78:\n    /* \"#utility.yul\":4297:4298   */\n  0x00\n    /* \"#utility.yul\":4321:4325   */\n  0x20\n    /* \"#utility.yul\":4308:4325   */\n  swap1\n  pop\n    /* \"#utility.yul\":4353:4355   */\n  0x1f\n    /* \"#utility.yul\":4345:4351   */\n  dup4\n    /* \"#utility.yul\":4342:4356   */\n  gt\n    /* \"#utility.yul\":4370:4371   */\n  0x01\n    /* \"#utility.yul\":4365:4983   */\n  dup2\n  eq\n  tag_80\n  jumpi\n    /* \"#utility.yul\":5027:5028   */\n  0x00\n    /* \"#utility.yul\":5044:5050   */\n  dup5\n    /* \"#utility.yul\":5041:5118   */\n  iszero\n  tag_81\n  jumpi\n    /* \"#utility.yul\":5093:5102   */\n  dup3\n    /* \"#utility.yul\":5088:5091   */\n  dup8\n    /* \"#utility.yul\":5084:5103   */\n  add\n    /* \"#utility.yul\":5078:5104   */\n  mload\n    /* \"#utility.yul\":5069:5104   */\n  swap1\n  pop\n    /* \"#utility.yul\":5041:5118   */\ntag_81:\n    /* \"#utility.yul\":5144:5211   */\n  tag_82\n    /* \"#utility.yul\":5204:5210   */\n  dup6\n    /* \"#utility.yul\":5197:5202   */\n  dup3\n    /* \"#utility.yul\":5144:5211   */\n  tag_26\n  jump\t// in\ntag_82:\n    /* \"#utility.yul\":5138:5142   */\n  dup7\n    /* \"#utility.yul\":5131:5212   */\n  sstore\n    /* \"#utility.yul\":5000:5222   */\n  pop\n    /* \"#utility.yul\":4335:5222   */\n  jump(tag_79)\n    /* \"#utility.yul\":4365:4983   */\ntag_80:\n    /* \"#utility.yul\":4417:4421   */\n  0x1f\n    /* \"#utility.yul\":4413:4422   */\n  not\n    /* \"#utility.yul\":4405:4411   */\n  dup5\n    /* \"#utility.yul\":4401:4423   */\n  and\n    /* \"#utility.yul\":4451:4488   */\n  tag_83\n    /* \"#utility.yul\":4483:4487   */\n  dup7\n    /* \"#utility.yul\":4451:4488   */\n  tag_11\n  jump\t// in\ntag_83:\n    /* \"#utility.yul\":4510:4511   */\n  0x00\n    /* \"#utility.yul\":4524:4732   */\ntag_84:\n    /* \"#utility.yul\":4538:4545   */\n  dup3\n    /* \"#utility.yul\":4535:4536   */\n  dup2\n    /* \"#utility.yul\":4532:4546   */\n  lt\n    /* \"#utility.yul\":4524:4732   */\n  iszero\n  tag_86\n  jumpi\n    /* \"#utility.yul\":4617:4626   */\n  dup5\n    /* \"#utility.yul\":4612:4615   */\n  dup10\n    /* \"#utility.yul\":4608:4627   */\n  add\n    /* \"#utility.yul\":4602:4628   */\n  mload\n    /* \"#utility.yul\":4594:4600   */\n  dup3\n    /* \"#utility.yul\":4587:4629   */\n  sstore\n    /* \"#utility.yul\":4668:4669   */\n  0x01\n    /* \"#utility.yul\":4660:4666   */\n  dup3\n    /* \"#utility.yul\":4656:4670   */\n  add\n    /* \"#utility.yul\":4646:4670   */\n  swap2\n  pop\n    /* \"#utility.yul\":4715:4717   */\n  0x20\n    /* \"#utility.yul\":4704:4713   */\n  dup6\n    /* \"#utility.yul\":4700:4718   */\n  add\n    /* \"#utility.yul\":4687:4718   */\n  swap5\n  pop\n    /* \"#utility.yul\":4561:4565   */\n  0x20\n    /* \"#utility.yul\":4558:4559   */\n  dup2\n    /* \"#utility.yul\":4554:4566   */\n  add\n    /* \"#utility.yul\":4549:4566   */\n  swap1\n  pop\n    /* \"#utility.yul\":4524:4732   */\n  jump(tag_84)\ntag_86:\n    /* \"#utility.yul\":4760:4766   */\n  dup7\n    /* \"#utility.yul\":4751:4758   */\n  dup4\n    /* \"#utility.yul\":4748:4767   */\n  lt\n    /* \"#utility.yul\":4745:4924   */\n  iszero\n  tag_87\n  jumpi\n    /* \"#utility.yul\":4818:4827   */\n  dup5\n    /* \"#utility.yul\":4813:4816   */\n  dup10\n    /* \"#utility.yul\":4809:4828   */\n  add\n    /* \"#utility.yul\":4803:4829   */\n  mload\n    /* \"#utility.yul\":4861:4909   */\n  tag_88\n    /* \"#utility.yul\":4903:4907   */\n  0x1f\n    /* \"#utility.yul\":4895:4901   */\n  dup10\n    /* \"#utility.yul\":4891:4908   */\n  and\n    /* \"#utility.yul\":4880:4889   */\n  dup3\n    /* \"#utility.yul\":4861:4909   */\n  tag_25\n  jump\t// in\ntag_88:\n    /* \"#utility.yul\":4853:4859   */\n  dup4\n    /* \"#utility.yul\":4846:4910   */\n  sstore\n    /* \"#utility.yul\":4768:4924   */\n  pop\n    /* \"#utility.yul\":4745:4924   */\ntag_87:\n    /* \"#utility.yul\":4970:4971   */\n  0x01\n    /* \"#utility.yul\":4966:4967   */\n  0x02\n    /* \"#utility.yul\":4958:4964   */\n  dup9\n    /* \"#utility.yul\":4954:4968   */\n  mul\n    /* \"#utility.yul\":4950:4972   */\n  add\n    /* \"#utility.yul\":4944:4948   */\n  dup9\n    /* \"#utility.yul\":4937:4973   */\n  sstore\n    /* \"#utility.yul\":4372:4983   */\n  pop\n  pop\n  pop\n    /* \"#utility.yul\":4335:5222   */\ntag_79:\n  pop\n    /* \"#utility.yul\":3925:5228   */\n  pop\n  pop\n  pop\n    /* \"#utility.yul\":3833:5228   */\n  pop\n  pop\n  jump\t// out\n    /* \"ETH - Henry/contracts/register/Register11.sol\":149:2105  contract Register11 {... */\ntag_6:\n  dataSize(sub_0)\n  dup1\n  dataOffset(sub_0)\n  0x00\n  codecopy\n  0x00\n  return\nstop\n\nsub_0: assembly {\n        /* \"ETH - Henry/contracts/register/Register11.sol\":149:2105  contract Register11 {... */\n      mstore(0x40, 0x80)\n      callvalue\n      dup1\n      iszero\n      tag_1\n      jumpi\n      revert(0x00, 0x00)\n    tag_1:\n      pop\n      jumpi(tag_2, lt(calldatasize, 0x04))\n      shr(0xe0, calldataload(0x00))\n      dup1\n      0x1f81595d\n      eq\n      tag_3\n      jumpi\n      dup1\n      0x372c12b1\n      eq\n      tag_4\n      jumpi\n      dup1\n      0x5a9b0b89\n      eq\n      tag_5\n      jumpi\n      dup1\n      0x8da5cb5b\n      eq\n      tag_6\n      jumpi\n      dup1\n      0x937f6e77\n      eq\n      tag_7\n      jumpi\n      dup1\n      0xca6d56dc\n      eq\n      tag_8\n      jumpi\n    tag_2:\n      revert(0x00, 0x00)\n        /* \"ETH - Henry/contracts/register/Register11.sol\":1712:1849  function delMember (address member) external onlyOwner {... */\n    tag_3:\n      tag_9\n      0x04\n      dup1\n      calldatasize\n      sub\n      dup2\n      add\n      swap1\n      tag_10\n      swap2\n      swap1\n      tag_11\n      jump\t// in\n    tag_10:\n      tag_12\n      jump\t// in\n    tag_9:\n      stop\n        /* \"ETH - Henry/contracts/register/Register11.sol\":235:277  mapping (address => bool) public whiteList */\n    tag_4:\n      tag_13\n      0x04\n      dup1\n      calldatasize\n      sub\n      dup2\n      add\n      swap1\n      tag_14\n      swap2\n      swap1\n      tag_11\n      jump\t// in\n    tag_14:\n      tag_15\n      jump\t// in\n    tag_13:\n      mload(0x40)\n      tag_16\n      swap2\n      swap1\n      tag_17\n      jump\t// in\n    tag_16:\n      mload(0x40)\n      dup1\n      swap2\n      sub\n      swap1\n      return\n        /* \"ETH - Henry/contracts/register/Register11.sol\":2007:2100  function getInfo() external view returns (string memory) {... */\n    tag_5:\n      tag_18\n      tag_19\n      jump\t// in\n    tag_18:\n      mload(0x40)\n      tag_20\n      swap2\n      swap1\n      tag_21\n      jump\t// in\n    tag_20:\n      mload(0x40)\n      dup1\n      swap2\n      sub\n      swap1\n      return\n        /* \"ETH - Henry/contracts/register/Register11.sol\":208:228  address public owner */\n    tag_6:\n      tag_22\n      tag_23\n      jump\t// in\n    tag_22:\n      mload(0x40)\n      tag_24\n      swap2\n      swap1\n      tag_25\n      jump\t// in\n    tag_24:\n      mload(0x40)\n      dup1\n      swap2\n      sub\n      swap1\n      return\n        /* \"ETH - Henry/contracts/register/Register11.sol\":885:985  function setInfo(string memory myInfo) external onlyWhitelist {... */\n    tag_7:\n      tag_26\n      0x04\n      dup1\n      calldatasize\n      sub\n      dup2\n      add\n      swap1\n      tag_27\n      swap2\n      swap1\n      tag_28\n      jump\t// in\n    tag_27:\n      tag_29\n      jump\t// in\n    tag_26:\n      stop\n        /* \"ETH - Henry/contracts/register/Register11.sol\":1255:1353  function addMember (address member) external onlyOwner {... */\n    tag_8:\n      tag_30\n      0x04\n      dup1\n      calldatasize\n      sub\n      dup2\n      add\n      swap1\n      tag_31\n      swap2\n      swap1\n      tag_11\n      jump\t// in\n    tag_31:\n      tag_32\n      jump\t// in\n    tag_30:\n      stop\n        /* \"ETH - Henry/contracts/register/Register11.sol\":1712:1849  function delMember (address member) external onlyOwner {... */\n    tag_12:\n        /* \"ETH - Henry/contracts/register/Register11.sol\":477:482  owner */\n      0x01\n      0x00\n      swap1\n      sload\n      swap1\n      0x0100\n      exp\n      swap1\n      div\n      0xffffffffffffffffffffffffffffffffffffffff\n      and\n        /* \"ETH - Henry/contracts/register/Register11.sol\":463:482  msg.sender == owner */\n      0xffffffffffffffffffffffffffffffffffffffff\n      and\n        /* \"ETH - Henry/contracts/register/Register11.sol\":463:473  msg.sender */\n      caller\n        /* \"ETH - Henry/contracts/register/Register11.sol\":463:482  msg.sender == owner */\n      0xffffffffffffffffffffffffffffffffffffffff\n      and\n      eq\n        /* \"ETH - Henry/contracts/register/Register11.sol\":455:496  require(msg.sender == owner,\"Only owner\") */\n      tag_34\n      jumpi\n      mload(0x40)\n      0x08c379a000000000000000000000000000000000000000000000000000000000\n      dup2\n      mstore\n      0x04\n      add\n      tag_35\n      swap1\n      tag_36\n      jump\t// in\n    tag_35:\n      mload(0x40)\n      dup1\n      swap2\n      sub\n      swap1\n      revert\n    tag_34:\n        /* \"ETH - Henry/contracts/register/Register11.sol\":1824:1833  whiteList */\n      0x02\n        /* \"ETH - Henry/contracts/register/Register11.sol\":1824:1841  whiteList[member] */\n      0x00\n        /* \"ETH - Henry/contracts/register/Register11.sol\":1834:1840  member */\n      dup3\n        /* \"ETH - Henry/contracts/register/Register11.sol\":1824:1841  whiteList[member] */\n      0xffffffffffffffffffffffffffffffffffffffff\n      and\n      0xffffffffffffffffffffffffffffffffffffffff\n      and\n      dup2\n      mstore\n      0x20\n      add\n      swap1\n      dup2\n      mstore\n      0x20\n      add\n      0x00\n      keccak256\n      0x00\n        /* \"ETH - Henry/contracts/register/Register11.sol\":1817:1841  delete whiteList[member] */\n      0x0100\n      exp\n      dup2\n      sload\n      swap1\n      0xff\n      mul\n      not\n      and\n      swap1\n      sstore\n        /* \"ETH - Henry/contracts/register/Register11.sol\":1712:1849  function delMember (address member) external onlyOwner {... */\n      pop\n      jump\t// out\n        /* \"ETH - Henry/contracts/register/Register11.sol\":235:277  mapping (address => bool) public whiteList */\n    tag_15:\n      mstore(0x20, 0x02)\n      dup1\n      0x00\n      mstore\n      keccak256(0x00, 0x40)\n      0x00\n      swap2\n      pop\n      sload\n      swap1\n      0x0100\n      exp\n      swap1\n      div\n      0xff\n      and\n      dup2\n      jump\t// out\n        /* \"ETH - Henry/contracts/register/Register11.sol\":2007:2100  function getInfo() external view returns (string memory) {... */\n    tag_19:\n        /* \"ETH - Henry/contracts/register/Register11.sol\":2049:2062  string memory */\n      0x60\n        /* \"ETH - Henry/contracts/register/Register11.sol\":2082:2092  storedInfo */\n      0x00\n        /* \"ETH - Henry/contracts/register/Register11.sol\":2075:2092  return storedInfo */\n      dup1\n      sload\n      tag_39\n      swap1\n      tag_40\n      jump\t// in\n    tag_39:\n      dup1\n      0x1f\n      add\n      0x20\n      dup1\n      swap2\n      div\n      mul\n      0x20\n      add\n      mload(0x40)\n      swap1\n      dup2\n      add\n      0x40\n      mstore\n      dup1\n      swap3\n      swap2\n      swap1\n      dup2\n      dup2\n      mstore\n      0x20\n      add\n      dup3\n      dup1\n      sload\n      tag_41\n      swap1\n      tag_40\n      jump\t// in\n    tag_41:\n      dup1\n      iszero\n      tag_42\n      jumpi\n      dup1\n      0x1f\n      lt\n      tag_43\n      jumpi\n      0x0100\n      dup1\n      dup4\n      sload\n      div\n      mul\n      dup4\n      mstore\n      swap2\n      0x20\n      add\n      swap2\n      jump(tag_42)\n    tag_43:\n      dup3\n      add\n      swap2\n      swap1\n      0x00\n      mstore\n      keccak256(0x00, 0x20)\n      swap1\n    tag_44:\n      dup2\n      sload\n      dup2\n      mstore\n      swap1\n      0x01\n      add\n      swap1\n      0x20\n      add\n      dup1\n      dup4\n      gt\n      tag_44\n      jumpi\n      dup3\n      swap1\n      sub\n      0x1f\n      and\n      dup3\n      add\n      swap2\n    tag_42:\n      pop\n      pop\n      pop\n      pop\n      pop\n      swap1\n      pop\n        /* \"ETH - Henry/contracts/register/Register11.sol\":2007:2100  function getInfo() external view returns (string memory) {... */\n      swap1\n      jump\t// out\n        /* \"ETH - Henry/contracts/register/Register11.sol\":208:228  address public owner */\n    tag_23:\n      0x01\n      0x00\n      swap1\n      sload\n      swap1\n      0x0100\n      exp\n      swap1\n      div\n      0xffffffffffffffffffffffffffffffffffffffff\n      and\n      dup2\n      jump\t// out\n        /* \"ETH - Henry/contracts/register/Register11.sol\":885:985  function setInfo(string memory myInfo) external onlyWhitelist {... */\n    tag_29:\n        /* \"ETH - Henry/contracts/register/Register11.sol\":591:595  true */\n      0x01\n        /* \"ETH - Henry/contracts/register/Register11.sol\":566:595  whiteList[msg.sender] == true */\n      iszero\n      iszero\n        /* \"ETH - Henry/contracts/register/Register11.sol\":566:575  whiteList */\n      0x02\n        /* \"ETH - Henry/contracts/register/Register11.sol\":566:587  whiteList[msg.sender] */\n      0x00\n        /* \"ETH - Henry/contracts/register/Register11.sol\":576:586  msg.sender */\n      caller\n        /* \"ETH - Henry/contracts/register/Register11.sol\":566:587  whiteList[msg.sender] */\n      0xffffffffffffffffffffffffffffffffffffffff\n      and\n      0xffffffffffffffffffffffffffffffffffffffff\n      and\n      dup2\n      mstore\n      0x20\n      add\n      swap1\n      dup2\n      mstore\n      0x20\n      add\n      0x00\n      keccak256\n      0x00\n      swap1\n      sload\n      swap1\n      0x0100\n      exp\n      swap1\n      div\n      0xff\n      and\n        /* \"ETH - Henry/contracts/register/Register11.sol\":566:595  whiteList[msg.sender] == true */\n      iszero\n      iszero\n      eq\n        /* \"ETH - Henry/contracts/register/Register11.sol\":558:614  require(whiteList[msg.sender] == true, \"Only whitelist\") */\n      tag_46\n      jumpi\n      mload(0x40)\n      0x08c379a000000000000000000000000000000000000000000000000000000000\n      dup2\n      mstore\n      0x04\n      add\n      tag_47\n      swap1\n      tag_48\n      jump\t// in\n    tag_47:\n      mload(0x40)\n      dup1\n      swap2\n      sub\n      swap1\n      revert\n    tag_46:\n        /* \"ETH - Henry/contracts/register/Register11.sol\":971:977  myInfo */\n      dup1\n        /* \"ETH - Henry/contracts/register/Register11.sol\":958:968  storedInfo */\n      0x00\n        /* \"ETH - Henry/contracts/register/Register11.sol\":958:977  storedInfo = myInfo */\n      swap1\n      dup2\n      tag_50\n      swap2\n      swap1\n      tag_51\n      jump\t// in\n    tag_50:\n      pop\n        /* \"ETH - Henry/contracts/register/Register11.sol\":885:985  function setInfo(string memory myInfo) external onlyWhitelist {... */\n      pop\n      jump\t// out\n        /* \"ETH - Henry/contracts/register/Register11.sol\":1255:1353  function addMember (address member) external onlyOwner {... */\n    tag_32:\n        /* \"ETH - Henry/contracts/register/Register11.sol\":477:482  owner */\n      0x01\n      0x00\n      swap1\n      sload\n      swap1\n      0x0100\n      exp\n      swap1\n      div\n      0xffffffffffffffffffffffffffffffffffffffff\n      and\n        /* \"ETH - Henry/contracts/register/Register11.sol\":463:482  msg.sender == owner */\n      0xffffffffffffffffffffffffffffffffffffffff\n      and\n        /* \"ETH - Henry/contracts/register/Register11.sol\":463:473  msg.sender */\n      caller\n        /* \"ETH - Henry/contracts/register/Register11.sol\":463:482  msg.sender == owner */\n      0xffffffffffffffffffffffffffffffffffffffff\n      and\n      eq\n        /* \"ETH - Henry/contracts/register/Register11.sol\":455:496  require(msg.sender == owner,\"Only owner\") */\n      tag_53\n      jumpi\n      mload(0x40)\n      0x08c379a000000000000000000000000000000000000000000000000000000000\n      dup2\n      mstore\n      0x04\n      add\n      tag_54\n      swap1\n      tag_36\n      jump\t// in\n    tag_54:\n      mload(0x40)\n      dup1\n      swap2\n      sub\n      swap1\n      revert\n    tag_53:\n        /* \"ETH - Henry/contracts/register/Register11.sol\":1341:1345  true */\n      0x01\n        /* \"ETH - Henry/contracts/register/Register11.sol\":1321:1330  whiteList */\n      0x02\n        /* \"ETH - Henry/contracts/register/Register11.sol\":1321:1338  whiteList[member] */\n      0x00\n        /* \"ETH - Henry/contracts/register/Register11.sol\":1331:1337  member */\n      dup4\n        /* \"ETH - Henry/contracts/register/Register11.sol\":1321:1338  whiteList[member] */\n      0xffffffffffffffffffffffffffffffffffffffff\n      and\n      0xffffffffffffffffffffffffffffffffffffffff\n      and\n      dup2\n      mstore\n      0x20\n      add\n      swap1\n      dup2\n      mstore\n      0x20\n      add\n      0x00\n      keccak256\n      0x00\n        /* \"ETH - Henry/contracts/register/Register11.sol\":1321:1345  whiteList[member] = true */\n      0x0100\n      exp\n      dup2\n      sload\n      dup2\n      0xff\n      mul\n      not\n      and\n      swap1\n      dup4\n      iszero\n      iszero\n      mul\n      or\n      swap1\n      sstore\n      pop\n        /* \"ETH - Henry/contracts/register/Register11.sol\":1255:1353  function addMember (address member) external onlyOwner {... */\n      pop\n      jump\t// out\n        /* \"#utility.yul\":7:82   */\n    tag_56:\n        /* \"#utility.yul\":40:46   */\n      0x00\n        /* \"#utility.yul\":73:75   */\n      0x40\n        /* \"#utility.yul\":67:76   */\n      mload\n        /* \"#utility.yul\":57:76   */\n      swap1\n      pop\n        /* \"#utility.yul\":7:82   */\n      swap1\n      jump\t// out\n        /* \"#utility.yul\":88:205   */\n    tag_57:\n        /* \"#utility.yul\":197:198   */\n      0x00\n        /* \"#utility.yul\":194:195   */\n      0x00\n        /* \"#utility.yul\":187:199   */\n      revert\n        /* \"#utility.yul\":211:328   */\n    tag_58:\n        /* \"#utility.yul\":320:321   */\n      0x00\n        /* \"#utility.yul\":317:318   */\n      0x00\n        /* \"#utility.yul\":310:322   */\n      revert\n        /* \"#utility.yul\":334:460   */\n    tag_59:\n        /* \"#utility.yul\":371:378   */\n      0x00\n        /* \"#utility.yul\":411:453   */\n      0xffffffffffffffffffffffffffffffffffffffff\n        /* \"#utility.yul\":404:409   */\n      dup3\n        /* \"#utility.yul\":400:454   */\n      and\n        /* \"#utility.yul\":389:454   */\n      swap1\n      pop\n        /* \"#utility.yul\":334:460   */\n      swap2\n      swap1\n      pop\n      jump\t// out\n        /* \"#utility.yul\":466:562   */\n    tag_60:\n        /* \"#utility.yul\":503:510   */\n      0x00\n        /* \"#utility.yul\":532:556   */\n      tag_107\n        /* \"#utility.yul\":550:555   */\n      dup3\n        /* \"#utility.yul\":532:556   */\n      tag_59\n      jump\t// in\n    tag_107:\n        /* \"#utility.yul\":521:556   */\n      swap1\n      pop\n        /* \"#utility.yul\":466:562   */\n      swap2\n      swap1\n      pop\n      jump\t// out\n        /* \"#utility.yul\":568:690   */\n    tag_61:\n        /* \"#utility.yul\":641:665   */\n      tag_109\n        /* \"#utility.yul\":659:664   */\n      dup2\n        /* \"#utility.yul\":641:665   */\n      tag_60\n      jump\t// in\n    tag_109:\n        /* \"#utility.yul\":634:639   */\n      dup2\n        /* \"#utility.yul\":631:666   */\n      eq\n        /* \"#utility.yul\":621:684   */\n      tag_110\n      jumpi\n        /* \"#utility.yul\":680:681   */\n      0x00\n        /* \"#utility.yul\":677:678   */\n      0x00\n        /* \"#utility.yul\":670:682   */\n      revert\n        /* \"#utility.yul\":621:684   */\n    tag_110:\n        /* \"#utility.yul\":568:690   */\n      pop\n      jump\t// out\n        /* \"#utility.yul\":696:835   */\n    tag_62:\n        /* \"#utility.yul\":742:747   */\n      0x00\n        /* \"#utility.yul\":780:786   */\n      dup2\n        /* \"#utility.yul\":767:787   */\n      calldataload\n        /* \"#utility.yul\":758:787   */\n      swap1\n      pop\n        /* \"#utility.yul\":796:829   */\n      tag_112\n        /* \"#utility.yul\":823:828   */\n      dup2\n        /* \"#utility.yul\":796:829   */\n      tag_61\n      jump\t// in\n    tag_112:\n        /* \"#utility.yul\":696:835   */\n      swap3\n      swap2\n      pop\n      pop\n      jump\t// out\n        /* \"#utility.yul\":841:1170   */\n    tag_11:\n        /* \"#utility.yul\":900:906   */\n      0x00\n        /* \"#utility.yul\":949:951   */\n      0x20\n        /* \"#utility.yul\":937:946   */\n      dup3\n        /* \"#utility.yul\":928:935   */\n      dup5\n        /* \"#utility.yul\":924:947   */\n      sub\n        /* \"#utility.yul\":920:952   */\n      slt\n        /* \"#utility.yul\":917:1036   */\n      iszero\n      tag_114\n      jumpi\n        /* \"#utility.yul\":955:1034   */\n      tag_115\n      tag_57\n      jump\t// in\n    tag_115:\n        /* \"#utility.yul\":917:1036   */\n    tag_114:\n        /* \"#utility.yul\":1075:1076   */\n      0x00\n        /* \"#utility.yul\":1100:1153   */\n      tag_116\n        /* \"#utility.yul\":1145:1152   */\n      dup5\n        /* \"#utility.yul\":1136:1142   */\n      dup3\n        /* \"#utility.yul\":1125:1134   */\n      dup6\n        /* \"#utility.yul\":1121:1143   */\n      add\n        /* \"#utility.yul\":1100:1153   */\n      tag_62\n      jump\t// in\n    tag_116:\n        /* \"#utility.yul\":1090:1153   */\n      swap2\n      pop\n        /* \"#utility.yul\":1046:1163   */\n      pop\n        /* \"#utility.yul\":841:1170   */\n      swap3\n      swap2\n      pop\n      pop\n      jump\t// out\n        /* \"#utility.yul\":1176:1266   */\n    tag_63:\n        /* \"#utility.yul\":1210:1217   */\n      0x00\n        /* \"#utility.yul\":1253:1258   */\n      dup2\n        /* \"#utility.yul\":1246:1259   */\n      iszero\n        /* \"#utility.yul\":1239:1260   */\n      iszero\n        /* \"#utility.yul\":1228:1260   */\n      swap1\n      pop\n        /* \"#utility.yul\":1176:1266   */\n      swap2\n      swap1\n      pop\n      jump\t// out\n        /* \"#utility.yul\":1272:1381   */\n    tag_64:\n        /* \"#utility.yul\":1353:1374   */\n      tag_119\n        /* \"#utility.yul\":1368:1373   */\n      dup2\n        /* \"#utility.yul\":1353:1374   */\n      tag_63\n      jump\t// in\n    tag_119:\n        /* \"#utility.yul\":1348:1351   */\n      dup3\n        /* \"#utility.yul\":1341:1375   */\n      mstore\n        /* \"#utility.yul\":1272:1381   */\n      pop\n      pop\n      jump\t// out\n        /* \"#utility.yul\":1387:1597   */\n    tag_17:\n        /* \"#utility.yul\":1474:1478   */\n      0x00\n        /* \"#utility.yul\":1512:1514   */\n      0x20\n        /* \"#utility.yul\":1501:1510   */\n      dup3\n        /* \"#utility.yul\":1497:1515   */\n      add\n        /* \"#utility.yul\":1489:1515   */\n      swap1\n      pop\n        /* \"#utility.yul\":1525:1590   */\n      tag_121\n        /* \"#utility.yul\":1587:1588   */\n      0x00\n        /* \"#utility.yul\":1576:1585   */\n      dup4\n        /* \"#utility.yul\":1572:1589   */\n      add\n        /* \"#utility.yul\":1563:1569   */\n      dup5\n        /* \"#utility.yul\":1525:1590   */\n      tag_64\n      jump\t// in\n    tag_121:\n        /* \"#utility.yul\":1387:1597   */\n      swap3\n      swap2\n      pop\n      pop\n      jump\t// out\n        /* \"#utility.yul\":1603:1702   */\n    tag_65:\n        /* \"#utility.yul\":1655:1661   */\n      0x00\n        /* \"#utility.yul\":1689:1694   */\n      dup2\n        /* \"#utility.yul\":1683:1695   */\n      mload\n        /* \"#utility.yul\":1673:1695   */\n      swap1\n      pop\n        /* \"#utility.yul\":1603:1702   */\n      swap2\n      swap1\n      pop\n      jump\t// out\n        /* \"#utility.yul\":1708:1877   */\n    tag_66:\n        /* \"#utility.yul\":1792:1803   */\n      0x00\n        /* \"#utility.yul\":1826:1832   */\n      dup3\n        /* \"#utility.yul\":1821:1824   */\n      dup3\n        /* \"#utility.yul\":1814:1833   */\n      mstore\n        /* \"#utility.yul\":1866:1870   */\n      0x20\n        /* \"#utility.yul\":1861:1864   */\n      dup3\n        /* \"#utility.yul\":1857:1871   */\n      add\n        /* \"#utility.yul\":1842:1871   */\n      swap1\n      pop\n        /* \"#utility.yul\":1708:1877   */\n      swap3\n      swap2\n      pop\n      pop\n      jump\t// out\n        /* \"#utility.yul\":1883:2022   */\n    tag_67:\n        /* \"#utility.yul\":1972:1978   */\n      dup3\n        /* \"#utility.yul\":1967:1970   */\n      dup2\n        /* \"#utility.yul\":1962:1965   */\n      dup4\n        /* \"#utility.yul\":1956:1979   */\n      mcopy\n        /* \"#utility.yul\":2013:2014   */\n      0x00\n        /* \"#utility.yul\":2004:2010   */\n      dup4\n        /* \"#utility.yul\":1999:2002   */\n      dup4\n        /* \"#utility.yul\":1995:2011   */\n      add\n        /* \"#utility.yul\":1988:2015   */\n      mstore\n        /* \"#utility.yul\":1883:2022   */\n      pop\n      pop\n      pop\n      jump\t// out\n        /* \"#utility.yul\":2028:2130   */\n    tag_68:\n        /* \"#utility.yul\":2069:2075   */\n      0x00\n        /* \"#utility.yul\":2120:2122   */\n      0x1f\n        /* \"#utility.yul\":2116:2123   */\n      not\n        /* \"#utility.yul\":2111:2113   */\n      0x1f\n        /* \"#utility.yul\":2104:2109   */\n      dup4\n        /* \"#utility.yul\":2100:2114   */\n      add\n        /* \"#utility.yul\":2096:2124   */\n      and\n        /* \"#utility.yul\":2086:2124   */\n      swap1\n      pop\n        /* \"#utility.yul\":2028:2130   */\n      swap2\n      swap1\n      pop\n      jump\t// out\n        /* \"#utility.yul\":2136:2513   */\n    tag_69:\n        /* \"#utility.yul\":2224:2227   */\n      0x00\n        /* \"#utility.yul\":2252:2291   */\n      tag_127\n        /* \"#utility.yul\":2285:2290   */\n      dup3\n        /* \"#utility.yul\":2252:2291   */\n      tag_65\n      jump\t// in\n    tag_127:\n        /* \"#utility.yul\":2307:2378   */\n      tag_128\n        /* \"#utility.yul\":2371:2377   */\n      dup2\n        /* \"#utility.yul\":2366:2369   */\n      dup6\n        /* \"#utility.yul\":2307:2378   */\n      tag_66\n      jump\t// in\n    tag_128:\n        /* \"#utility.yul\":2300:2378   */\n      swap4\n      pop\n        /* \"#utility.yul\":2387:2452   */\n      tag_129\n        /* \"#utility.yul\":2445:2451   */\n      dup2\n        /* \"#utility.yul\":2440:2443   */\n      dup6\n        /* \"#utility.yul\":2433:2437   */\n      0x20\n        /* \"#utility.yul\":2426:2431   */\n      dup7\n        /* \"#utility.yul\":2422:2438   */\n      add\n        /* \"#utility.yul\":2387:2452   */\n      tag_67\n      jump\t// in\n    tag_129:\n        /* \"#utility.yul\":2477:2506   */\n      tag_130\n        /* \"#utility.yul\":2499:2505   */\n      dup2\n        /* \"#utility.yul\":2477:2506   */\n      tag_68\n      jump\t// in\n    tag_130:\n        /* \"#utility.yul\":2472:2475   */\n      dup5\n        /* \"#utility.yul\":2468:2507   */\n      add\n        /* \"#utility.yul\":2461:2507   */\n      swap2\n      pop\n        /* \"#utility.yul\":2228:2513   */\n      pop\n        /* \"#utility.yul\":2136:2513   */\n      swap3\n      swap2\n      pop\n      pop\n      jump\t// out\n        /* \"#utility.yul\":2519:2832   */\n    tag_21:\n        /* \"#utility.yul\":2632:2636   */\n      0x00\n        /* \"#utility.yul\":2670:2672   */\n      0x20\n        /* \"#utility.yul\":2659:2668   */\n      dup3\n        /* \"#utility.yul\":2655:2673   */\n      add\n        /* \"#utility.yul\":2647:2673   */\n      swap1\n      pop\n        /* \"#utility.yul\":2719:2728   */\n      dup2\n        /* \"#utility.yul\":2713:2717   */\n      dup2\n        /* \"#utility.yul\":2709:2729   */\n      sub\n        /* \"#utility.yul\":2705:2706   */\n      0x00\n        /* \"#utility.yul\":2694:2703   */\n      dup4\n        /* \"#utility.yul\":2690:2707   */\n      add\n        /* \"#utility.yul\":2683:2730   */\n      mstore\n        /* \"#utility.yul\":2747:2825   */\n      tag_132\n        /* \"#utility.yul\":2820:2824   */\n      dup2\n        /* \"#utility.yul\":2811:2817   */\n      dup5\n        /* \"#utility.yul\":2747:2825   */\n      tag_69\n      jump\t// in\n    tag_132:\n        /* \"#utility.yul\":2739:2825   */\n      swap1\n      pop\n        /* \"#utility.yul\":2519:2832   */\n      swap3\n      swap2\n      pop\n      pop\n      jump\t// out\n        /* \"#utility.yul\":2838:2956   */\n    tag_70:\n        /* \"#utility.yul\":2925:2949   */\n      tag_134\n        /* \"#utility.yul\":2943:2948   */\n      dup2\n        /* \"#utility.yul\":2925:2949   */\n      tag_60\n      jump\t// in\n    tag_134:\n        /* \"#utility.yul\":2920:2923   */\n      dup3\n        /* \"#utility.yul\":2913:2950   */\n      mstore\n        /* \"#utility.yul\":2838:2956   */\n      pop\n      pop\n      jump\t// out\n        /* \"#utility.yul\":2962:3184   */\n    tag_25:\n        /* \"#utility.yul\":3055:3059   */\n      0x00\n        /* \"#utility.yul\":3093:3095   */\n      0x20\n        /* \"#utility.yul\":3082:3091   */\n      dup3\n        /* \"#utility.yul\":3078:3096   */\n      add\n        /* \"#utility.yul\":3070:3096   */\n      swap1\n      pop\n        /* \"#utility.yul\":3106:3177   */\n      tag_136\n        /* \"#utility.yul\":3174:3175   */\n      0x00\n        /* \"#utility.yul\":3163:3172   */\n      dup4\n        /* \"#utility.yul\":3159:3176   */\n      add\n        /* \"#utility.yul\":3150:3156   */\n      dup5\n        /* \"#utility.yul\":3106:3177   */\n      tag_70\n      jump\t// in\n    tag_136:\n        /* \"#utility.yul\":2962:3184   */\n      swap3\n      swap2\n      pop\n      pop\n      jump\t// out\n        /* \"#utility.yul\":3190:3307   */\n    tag_71:\n        /* \"#utility.yul\":3299:3300   */\n      0x00\n        /* \"#utility.yul\":3296:3297   */\n      0x00\n        /* \"#utility.yul\":3289:3301   */\n      revert\n        /* \"#utility.yul\":3313:3430   */\n    tag_72:\n        /* \"#utility.yul\":3422:3423   */\n      0x00\n        /* \"#utility.yul\":3419:3420   */\n      0x00\n        /* \"#utility.yul\":3412:3424   */\n      revert\n        /* \"#utility.yul\":3436:3616   */\n    tag_73:\n        /* \"#utility.yul\":3484:3561   */\n      0x4e487b7100000000000000000000000000000000000000000000000000000000\n        /* \"#utility.yul\":3481:3482   */\n      0x00\n        /* \"#utility.yul\":3474:3562   */\n      mstore\n        /* \"#utility.yul\":3581:3585   */\n      0x41\n        /* \"#utility.yul\":3578:3579   */\n      0x04\n        /* \"#utility.yul\":3571:3586   */\n      mstore\n        /* \"#utility.yul\":3605:3609   */\n      0x24\n        /* \"#utility.yul\":3602:3603   */\n      0x00\n        /* \"#utility.yul\":3595:3610   */\n      revert\n        /* \"#utility.yul\":3622:3903   */\n    tag_74:\n        /* \"#utility.yul\":3705:3732   */\n      tag_141\n        /* \"#utility.yul\":3727:3731   */\n      dup3\n        /* \"#utility.yul\":3705:3732   */\n      tag_68\n      jump\t// in\n    tag_141:\n        /* \"#utility.yul\":3697:3703   */\n      dup2\n        /* \"#utility.yul\":3693:3733   */\n      add\n        /* \"#utility.yul\":3835:3841   */\n      dup2\n        /* \"#utility.yul\":3823:3833   */\n      dup2\n        /* \"#utility.yul\":3820:3842   */\n      lt\n        /* \"#utility.yul\":3799:3817   */\n      0xffffffffffffffff\n        /* \"#utility.yul\":3787:3797   */\n      dup3\n        /* \"#utility.yul\":3784:3818   */\n      gt\n        /* \"#utility.yul\":3781:3843   */\n      or\n        /* \"#utility.yul\":3778:3866   */\n      iszero\n      tag_142\n      jumpi\n        /* \"#utility.yul\":3846:3864   */\n      tag_143\n      tag_73\n      jump\t// in\n    tag_143:\n        /* \"#utility.yul\":3778:3866   */\n    tag_142:\n        /* \"#utility.yul\":3886:3896   */\n      dup1\n        /* \"#utility.yul\":3882:3884   */\n      0x40\n        /* \"#utility.yul\":3875:3897   */\n      mstore\n        /* \"#utility.yul\":3665:3903   */\n      pop\n        /* \"#utility.yul\":3622:3903   */\n      pop\n      pop\n      jump\t// out\n        /* \"#utility.yul\":3909:4038   */\n    tag_75:\n        /* \"#utility.yul\":3943:3949   */\n      0x00\n        /* \"#utility.yul\":3970:3990   */\n      tag_145\n      tag_56\n      jump\t// in\n    tag_145:\n        /* \"#utility.yul\":3960:3990   */\n      swap1\n      pop\n        /* \"#utility.yul\":3999:4032   */\n      tag_146\n        /* \"#utility.yul\":4027:4031   */\n      dup3\n        /* \"#utility.yul\":4019:4025   */\n      dup3\n        /* \"#utility.yul\":3999:4032   */\n      tag_74\n      jump\t// in\n    tag_146:\n        /* \"#utility.yul\":3909:4038   */\n      swap2\n      swap1\n      pop\n      jump\t// out\n        /* \"#utility.yul\":4044:4352   */\n    tag_76:\n        /* \"#utility.yul\":4106:4110   */\n      0x00\n        /* \"#utility.yul\":4196:4214   */\n      0xffffffffffffffff\n        /* \"#utility.yul\":4188:4194   */\n      dup3\n        /* \"#utility.yul\":4185:4215   */\n      gt\n        /* \"#utility.yul\":4182:4238   */\n      iszero\n      tag_148\n      jumpi\n        /* \"#utility.yul\":4218:4236   */\n      tag_149\n      tag_73\n      jump\t// in\n    tag_149:\n        /* \"#utility.yul\":4182:4238   */\n    tag_148:\n        /* \"#utility.yul\":4256:4285   */\n      tag_150\n        /* \"#utility.yul\":4278:4284   */\n      dup3\n        /* \"#utility.yul\":4256:4285   */\n      tag_68\n      jump\t// in\n    tag_150:\n        /* \"#utility.yul\":4248:4285   */\n      swap1\n      pop\n        /* \"#utility.yul\":4340:4344   */\n      0x20\n        /* \"#utility.yul\":4334:4338   */\n      dup2\n        /* \"#utility.yul\":4330:4345   */\n      add\n        /* \"#utility.yul\":4322:4345   */\n      swap1\n      pop\n        /* \"#utility.yul\":4044:4352   */\n      swap2\n      swap1\n      pop\n      jump\t// out\n        /* \"#utility.yul\":4358:4506   */\n    tag_77:\n        /* \"#utility.yul\":4456:4462   */\n      dup3\n        /* \"#utility.yul\":4451:4454   */\n      dup2\n        /* \"#utility.yul\":4446:4449   */\n      dup4\n        /* \"#utility.yul\":4433:4463   */\n      calldatacopy\n        /* \"#utility.yul\":4497:4498   */\n      0x00\n        /* \"#utility.yul\":4488:4494   */\n      dup4\n        /* \"#utility.yul\":4483:4486   */\n      dup4\n        /* \"#utility.yul\":4479:4495   */\n      add\n        /* \"#utility.yul\":4472:4499   */\n      mstore\n        /* \"#utility.yul\":4358:4506   */\n      pop\n      pop\n      pop\n      jump\t// out\n        /* \"#utility.yul\":4512:4937   */\n    tag_78:\n        /* \"#utility.yul\":4590:4595   */\n      0x00\n        /* \"#utility.yul\":4615:4681   */\n      tag_153\n        /* \"#utility.yul\":4631:4680   */\n      tag_154\n        /* \"#utility.yul\":4673:4679   */\n      dup5\n        /* \"#utility.yul\":4631:4680   */\n      tag_76\n      jump\t// in\n    tag_154:\n        /* \"#utility.yul\":4615:4681   */\n      tag_75\n      jump\t// in\n    tag_153:\n        /* \"#utility.yul\":4606:4681   */\n      swap1\n      pop\n        /* \"#utility.yul\":4704:4710   */\n      dup3\n        /* \"#utility.yul\":4697:4702   */\n      dup2\n        /* \"#utility.yul\":4690:4711   */\n      mstore\n        /* \"#utility.yul\":4742:4746   */\n      0x20\n        /* \"#utility.yul\":4735:4740   */\n      dup2\n        /* \"#utility.yul\":4731:4747   */\n      add\n        /* \"#utility.yul\":4780:4783   */\n      dup5\n        /* \"#utility.yul\":4771:4777   */\n      dup5\n        /* \"#utility.yul\":4766:4769   */\n      dup5\n        /* \"#utility.yul\":4762:4778   */\n      add\n        /* \"#utility.yul\":4759:4784   */\n      gt\n        /* \"#utility.yul\":4756:4868   */\n      iszero\n      tag_155\n      jumpi\n        /* \"#utility.yul\":4787:4866   */\n      tag_156\n      tag_72\n      jump\t// in\n    tag_156:\n        /* \"#utility.yul\":4756:4868   */\n    tag_155:\n        /* \"#utility.yul\":4877:4931   */\n      tag_157\n        /* \"#utility.yul\":4924:4930   */\n      dup5\n        /* \"#utility.yul\":4919:4922   */\n      dup3\n        /* \"#utility.yul\":4914:4917   */\n      dup6\n        /* \"#utility.yul\":4877:4931   */\n      tag_77\n      jump\t// in\n    tag_157:\n        /* \"#utility.yul\":4596:4937   */\n      pop\n        /* \"#utility.yul\":4512:4937   */\n      swap4\n      swap3\n      pop\n      pop\n      pop\n      jump\t// out\n        /* \"#utility.yul\":4957:5297   */\n    tag_79:\n        /* \"#utility.yul\":5013:5018   */\n      0x00\n        /* \"#utility.yul\":5062:5065   */\n      dup3\n        /* \"#utility.yul\":5055:5059   */\n      0x1f\n        /* \"#utility.yul\":5047:5053   */\n      dup4\n        /* \"#utility.yul\":5043:5060   */\n      add\n        /* \"#utility.yul\":5039:5066   */\n      slt\n        /* \"#utility.yul\":5029:5151   */\n      tag_159\n      jumpi\n        /* \"#utility.yul\":5070:5149   */\n      tag_160\n      tag_71\n      jump\t// in\n    tag_160:\n        /* \"#utility.yul\":5029:5151   */\n    tag_159:\n        /* \"#utility.yul\":5187:5193   */\n      dup2\n        /* \"#utility.yul\":5174:5194   */\n      calldataload\n        /* \"#utility.yul\":5212:5291   */\n      tag_161\n        /* \"#utility.yul\":5287:5290   */\n      dup5\n        /* \"#utility.yul\":5279:5285   */\n      dup3\n        /* \"#utility.yul\":5272:5276   */\n      0x20\n        /* \"#utility.yul\":5264:5270   */\n      dup7\n        /* \"#utility.yul\":5260:5277   */\n      add\n        /* \"#utility.yul\":5212:5291   */\n      tag_78\n      jump\t// in\n    tag_161:\n        /* \"#utility.yul\":5203:5291   */\n      swap2\n      pop\n        /* \"#utility.yul\":5019:5297   */\n      pop\n        /* \"#utility.yul\":4957:5297   */\n      swap3\n      swap2\n      pop\n      pop\n      jump\t// out\n        /* \"#utility.yul\":5303:5812   */\n    tag_28:\n        /* \"#utility.yul\":5372:5378   */\n      0x00\n        /* \"#utility.yul\":5421:5423   */\n      0x20\n        /* \"#utility.yul\":5409:5418   */\n      dup3\n        /* \"#utility.yul\":5400:5407   */\n      dup5\n        /* \"#utility.yul\":5396:5419   */\n      sub\n        /* \"#utility.yul\":5392:5424   */\n      slt\n        /* \"#utility.yul\":5389:5508   */\n      iszero\n      tag_163\n      jumpi\n        /* \"#utility.yul\":5427:5506   */\n      tag_164\n      tag_57\n      jump\t// in\n    tag_164:\n        /* \"#utility.yul\":5389:5508   */\n    tag_163:\n        /* \"#utility.yul\":5575:5576   */\n      0x00\n        /* \"#utility.yul\":5564:5573   */\n      dup3\n        /* \"#utility.yul\":5560:5577   */\n      add\n        /* \"#utility.yul\":5547:5578   */\n      calldataload\n        /* \"#utility.yul\":5605:5623   */\n      0xffffffffffffffff\n        /* \"#utility.yul\":5597:5603   */\n      dup2\n        /* \"#utility.yul\":5594:5624   */\n      gt\n        /* \"#utility.yul\":5591:5708   */\n      iszero\n      tag_165\n      jumpi\n        /* \"#utility.yul\":5627:5706   */\n      tag_166\n      tag_58\n      jump\t// in\n    tag_166:\n        /* \"#utility.yul\":5591:5708   */\n    tag_165:\n        /* \"#utility.yul\":5732:5795   */\n      tag_167\n        /* \"#utility.yul\":5787:5794   */\n      dup5\n        /* \"#utility.yul\":5778:5784   */\n      dup3\n        /* \"#utility.yul\":5767:5776   */\n      dup6\n        /* \"#utility.yul\":5763:5785   */\n      add\n        /* \"#utility.yul\":5732:5795   */\n      tag_79\n      jump\t// in\n    tag_167:\n        /* \"#utility.yul\":5722:5795   */\n      swap2\n      pop\n        /* \"#utility.yul\":5518:5805   */\n      pop\n        /* \"#utility.yul\":5303:5812   */\n      swap3\n      swap2\n      pop\n      pop\n      jump\t// out\n        /* \"#utility.yul\":5818:5978   */\n    tag_80:\n        /* \"#utility.yul\":5958:5970   */\n      0x4f6e6c79206f776e657200000000000000000000000000000000000000000000\n        /* \"#utility.yul\":5954:5955   */\n      0x00\n        /* \"#utility.yul\":5946:5952   */\n      dup3\n        /* \"#utility.yul\":5942:5956   */\n      add\n        /* \"#utility.yul\":5935:5971   */\n      mstore\n        /* \"#utility.yul\":5818:5978   */\n      pop\n      jump\t// out\n        /* \"#utility.yul\":5984:6350   */\n    tag_81:\n        /* \"#utility.yul\":6126:6129   */\n      0x00\n        /* \"#utility.yul\":6147:6214   */\n      tag_170\n        /* \"#utility.yul\":6211:6213   */\n      0x0a\n        /* \"#utility.yul\":6206:6209   */\n      dup4\n        /* \"#utility.yul\":6147:6214   */\n      tag_66\n      jump\t// in\n    tag_170:\n        /* \"#utility.yul\":6140:6214   */\n      swap2\n      pop\n        /* \"#utility.yul\":6223:6316   */\n      tag_171\n        /* \"#utility.yul\":6312:6315   */\n      dup3\n        /* \"#utility.yul\":6223:6316   */\n      tag_80\n      jump\t// in\n    tag_171:\n        /* \"#utility.yul\":6341:6343   */\n      0x20\n        /* \"#utility.yul\":6336:6339   */\n      dup3\n        /* \"#utility.yul\":6332:6344   */\n      add\n        /* \"#utility.yul\":6325:6344   */\n      swap1\n      pop\n        /* \"#utility.yul\":5984:6350   */\n      swap2\n      swap1\n      pop\n      jump\t// out\n        /* \"#utility.yul\":6356:6775   */\n    tag_36:\n        /* \"#utility.yul\":6522:6526   */\n      0x00\n        /* \"#utility.yul\":6560:6562   */\n      0x20\n        /* \"#utility.yul\":6549:6558   */\n      dup3\n        /* \"#utility.yul\":6545:6563   */\n      add\n        /* \"#utility.yul\":6537:6563   */\n      swap1\n      pop\n        /* \"#utility.yul\":6609:6618   */\n      dup2\n        /* \"#utility.yul\":6603:6607   */\n      dup2\n        /* \"#utility.yul\":6599:6619   */\n      sub\n        /* \"#utility.yul\":6595:6596   */\n      0x00\n        /* \"#utility.yul\":6584:6593   */\n      dup4\n        /* \"#utility.yul\":6580:6597   */\n      add\n        /* \"#utility.yul\":6573:6620   */\n      mstore\n        /* \"#utility.yul\":6637:6768   */\n      tag_173\n        /* \"#utility.yul\":6763:6767   */\n      dup2\n        /* \"#utility.yul\":6637:6768   */\n      tag_81\n      jump\t// in\n    tag_173:\n        /* \"#utility.yul\":6629:6768   */\n      swap1\n      pop\n        /* \"#utility.yul\":6356:6775   */\n      swap2\n      swap1\n      pop\n      jump\t// out\n        /* \"#utility.yul\":6781:6961   */\n    tag_82:\n        /* \"#utility.yul\":6829:6906   */\n      0x4e487b7100000000000000000000000000000000000000000000000000000000\n        /* \"#utility.yul\":6826:6827   */\n      0x00\n        /* \"#utility.yul\":6819:6907   */\n      mstore\n        /* \"#utility.yul\":6926:6930   */\n      0x22\n        /* \"#utility.yul\":6923:6924   */\n      0x04\n        /* \"#utility.yul\":6916:6931   */\n      mstore\n        /* \"#utility.yul\":6950:6954   */\n      0x24\n        /* \"#utility.yul\":6947:6948   */\n      0x00\n        /* \"#utility.yul\":6940:6955   */\n      revert\n        /* \"#utility.yul\":6967:7287   */\n    tag_40:\n        /* \"#utility.yul\":7011:7017   */\n      0x00\n        /* \"#utility.yul\":7048:7049   */\n      0x02\n        /* \"#utility.yul\":7042:7046   */\n      dup3\n        /* \"#utility.yul\":7038:7050   */\n      div\n        /* \"#utility.yul\":7028:7050   */\n      swap1\n      pop\n        /* \"#utility.yul\":7095:7096   */\n      0x01\n        /* \"#utility.yul\":7089:7093   */\n      dup3\n        /* \"#utility.yul\":7085:7097   */\n      and\n        /* \"#utility.yul\":7116:7134   */\n      dup1\n        /* \"#utility.yul\":7106:7187   */\n      tag_176\n      jumpi\n        /* \"#utility.yul\":7172:7176   */\n      0x7f\n        /* \"#utility.yul\":7164:7170   */\n      dup3\n        /* \"#utility.yul\":7160:7177   */\n      and\n        /* \"#utility.yul\":7150:7177   */\n      swap2\n      pop\n        /* \"#utility.yul\":7106:7187   */\n    tag_176:\n        /* \"#utility.yul\":7234:7236   */\n      0x20\n        /* \"#utility.yul\":7226:7232   */\n      dup3\n        /* \"#utility.yul\":7223:7237   */\n      lt\n        /* \"#utility.yul\":7203:7221   */\n      dup2\n        /* \"#utility.yul\":7200:7238   */\n      sub\n        /* \"#utility.yul\":7197:7281   */\n      tag_177\n      jumpi\n        /* \"#utility.yul\":7253:7271   */\n      tag_178\n      tag_82\n      jump\t// in\n    tag_178:\n        /* \"#utility.yul\":7197:7281   */\n    tag_177:\n        /* \"#utility.yul\":7018:7287   */\n      pop\n        /* \"#utility.yul\":6967:7287   */\n      swap2\n      swap1\n      pop\n      jump\t// out\n        /* \"#utility.yul\":7293:7457   */\n    tag_83:\n        /* \"#utility.yul\":7433:7449   */\n      0x4f6e6c792077686974656c697374000000000000000000000000000000000000\n        /* \"#utility.yul\":7429:7430   */\n      0x00\n        /* \"#utility.yul\":7421:7427   */\n      dup3\n        /* \"#utility.yul\":7417:7431   */\n      add\n        /* \"#utility.yul\":7410:7450   */\n      mstore\n        /* \"#utility.yul\":7293:7457   */\n      pop\n      jump\t// out\n        /* \"#utility.yul\":7463:7829   */\n    tag_84:\n        /* \"#utility.yul\":7605:7608   */\n      0x00\n        /* \"#utility.yul\":7626:7693   */\n      tag_181\n        /* \"#utility.yul\":7690:7692   */\n      0x0e\n        /* \"#utility.yul\":7685:7688   */\n      dup4\n        /* \"#utility.yul\":7626:7693   */\n      tag_66\n      jump\t// in\n    tag_181:\n        /* \"#utility.yul\":7619:7693   */\n      swap2\n      pop\n        /* \"#utility.yul\":7702:7795   */\n      tag_182\n        /* \"#utility.yul\":7791:7794   */\n      dup3\n        /* \"#utility.yul\":7702:7795   */\n      tag_83\n      jump\t// in\n    tag_182:\n        /* \"#utility.yul\":7820:7822   */\n      0x20\n        /* \"#utility.yul\":7815:7818   */\n      dup3\n        /* \"#utility.yul\":7811:7823   */\n      add\n        /* \"#utility.yul\":7804:7823   */\n      swap1\n      pop\n        /* \"#utility.yul\":7463:7829   */\n      swap2\n      swap1\n      pop\n      jump\t// out\n        /* \"#utility.yul\":7835:8254   */\n    tag_48:\n        /* \"#utility.yul\":8001:8005   */\n      0x00\n        /* \"#utility.yul\":8039:8041   */\n      0x20\n        /* \"#utility.yul\":8028:8037   */\n      dup3\n        /* \"#utility.yul\":8024:8042   */\n      add\n        /* \"#utility.yul\":8016:8042   */\n      swap1\n      pop\n        /* \"#utility.yul\":8088:8097   */\n      dup2\n        /* \"#utility.yul\":8082:8086   */\n      dup2\n        /* \"#utility.yul\":8078:8098   */\n      sub\n        /* \"#utility.yul\":8074:8075   */\n      0x00\n        /* \"#utility.yul\":8063:8072   */\n      dup4\n        /* \"#utility.yul\":8059:8076   */\n      add\n        /* \"#utility.yul\":8052:8099   */\n      mstore\n        /* \"#utility.yul\":8116:8247   */\n      tag_184\n        /* \"#utility.yul\":8242:8246   */\n      dup2\n        /* \"#utility.yul\":8116:8247   */\n      tag_84\n      jump\t// in\n    tag_184:\n        /* \"#utility.yul\":8108:8247   */\n      swap1\n      pop\n        /* \"#utility.yul\":7835:8254   */\n      swap2\n      swap1\n      pop\n      jump\t// out\n        /* \"#utility.yul\":8260:8401   */\n    tag_85:\n        /* \"#utility.yul\":8309:8313   */\n      0x00\n        /* \"#utility.yul\":8332:8335   */\n      dup2\n        /* \"#utility.yul\":8324:8335   */\n      swap1\n      pop\n        /* \"#utility.yul\":8355:8358   */\n      dup2\n        /* \"#utility.yul\":8352:8353   */\n      0x00\n        /* \"#utility.yul\":8345:8359   */\n      mstore\n        /* \"#utility.yul\":8389:8393   */\n      0x20\n        /* \"#utility.yul\":8386:8387   */\n      0x00\n        /* \"#utility.yul\":8376:8394   */\n      keccak256\n        /* \"#utility.yul\":8368:8394   */\n      swap1\n      pop\n        /* \"#utility.yul\":8260:8401   */\n      swap2\n      swap1\n      pop\n      jump\t// out\n        /* \"#utility.yul\":8407:8500   */\n    tag_86:\n        /* \"#utility.yul\":8444:8450   */\n      0x00\n        /* \"#utility.yul\":8491:8493   */\n      0x20\n        /* \"#utility.yul\":8486:8488   */\n      0x1f\n        /* \"#utility.yul\":8479:8484   */\n      dup4\n        /* \"#utility.yul\":8475:8489   */\n      add\n        /* \"#utility.yul\":8471:8494   */\n      div\n        /* \"#utility.yul\":8461:8494   */\n      swap1\n      pop\n        /* \"#utility.yul\":8407:8500   */\n      swap2\n      swap1\n      pop\n      jump\t// out\n        /* \"#utility.yul\":8506:8613   */\n    tag_87:\n        /* \"#utility.yul\":8550:8558   */\n      0x00\n        /* \"#utility.yul\":8600:8605   */\n      dup3\n        /* \"#utility.yul\":8594:8598   */\n      dup3\n        /* \"#utility.yul\":8590:8606   */\n      shl\n        /* \"#utility.yul\":8569:8606   */\n      swap1\n      pop\n        /* \"#utility.yul\":8506:8613   */\n      swap3\n      swap2\n      pop\n      pop\n      jump\t// out\n        /* \"#utility.yul\":8619:9012   */\n    tag_88:\n        /* \"#utility.yul\":8688:8694   */\n      0x00\n        /* \"#utility.yul\":8738:8739   */\n      0x08\n        /* \"#utility.yul\":8726:8736   */\n      dup4\n        /* \"#utility.yul\":8722:8740   */\n      mul\n        /* \"#utility.yul\":8761:8858   */\n      tag_189\n        /* \"#utility.yul\":8791:8857   */\n      0xffffffffffffffffffffffffffffffffffffffffffffffffffffffffffffffff\n        /* \"#utility.yul\":8780:8789   */\n      dup3\n        /* \"#utility.yul\":8761:8858   */\n      tag_87\n      jump\t// in\n    tag_189:\n        /* \"#utility.yul\":8879:8918   */\n      tag_190\n        /* \"#utility.yul\":8909:8917   */\n      dup7\n        /* \"#utility.yul\":8898:8907   */\n      dup4\n        /* \"#utility.yul\":8879:8918   */\n      tag_87\n      jump\t// in\n    tag_190:\n        /* \"#utility.yul\":8867:8918   */\n      swap6\n      pop\n        /* \"#utility.yul\":8951:8955   */\n      dup1\n        /* \"#utility.yul\":8947:8956   */\n      not\n        /* \"#utility.yul\":8940:8945   */\n      dup5\n        /* \"#utility.yul\":8936:8957   */\n      and\n        /* \"#utility.yul\":8927:8957   */\n      swap4\n      pop\n        /* \"#utility.yul\":9000:9004   */\n      dup1\n        /* \"#utility.yul\":8990:8998   */\n      dup7\n        /* \"#utility.yul\":8986:9005   */\n      and\n        /* \"#utility.yul\":8979:8984   */\n      dup5\n        /* \"#utility.yul\":8976:9006   */\n      or\n        /* \"#utility.yul\":8966:9006   */\n      swap3\n      pop\n        /* \"#utility.yul\":8695:9012   */\n      pop\n      pop\n        /* \"#utility.yul\":8619:9012   */\n      swap4\n      swap3\n      pop\n      pop\n      pop\n      jump\t// out\n        /* \"#utility.yul\":9018:9095   */\n    tag_89:\n        /* \"#utility.yul\":9055:9062   */\n      0x00\n        /* \"#utility.yul\":9084:9089   */\n      dup2\n        /* \"#utility.yul\":9073:9089   */\n      swap1\n      pop\n        /* \"#utility.yul\":9018:9095   */\n      swap2\n      swap1\n      pop\n      jump\t// out\n        /* \"#utility.yul\":9101:9161   */\n    tag_90:\n        /* \"#utility.yul\":9129:9132   */\n      0x00\n        /* \"#utility.yul\":9150:9155   */\n      dup2\n        /* \"#utility.yul\":9143:9155   */\n      swap1\n      pop\n        /* \"#utility.yul\":9101:9161   */\n      swap2\n      swap1\n      pop\n      jump\t// out\n        /* \"#utility.yul\":9167:9309   */\n    tag_91:\n        /* \"#utility.yul\":9217:9226   */\n      0x00\n        /* \"#utility.yul\":9250:9303   */\n      tag_194\n        /* \"#utility.yul\":9268:9302   */\n      tag_195\n        /* \"#utility.yul\":9277:9301   */\n      tag_196\n        /* \"#utility.yul\":9295:9300   */\n      dup5\n        /* \"#utility.yul\":9277:9301   */\n      tag_89\n      jump\t// in\n    tag_196:\n        /* \"#utility.yul\":9268:9302   */\n      tag_90\n      jump\t// in\n    tag_195:\n        /* \"#utility.yul\":9250:9303   */\n      tag_89\n      jump\t// in\n    tag_194:\n        /* \"#utility.yul\":9237:9303   */\n      swap1\n      pop\n        /* \"#utility.yul\":9167:9309   */\n      swap2\n      swap1\n      pop\n      jump\t// out\n        /* \"#utility.yul\":9315:9390   */\n    tag_92:\n        /* \"#utility.yul\":9358:9361   */\n      0x00\n        /* \"#utility.yul\":9379:9384   */\n      dup2\n        /* \"#utility.yul\":9372:9384   */\n      swap1\n      pop\n        /* \"#utility.yul\":9315:9390   */\n      swap2\n      swap1\n      pop\n      jump\t// out\n        /* \"#utility.yul\":9396:9665   */\n    tag_93:\n        /* \"#utility.yul\":9506:9545   */\n      tag_199\n        /* \"#utility.yul\":9537:9544   */\n      dup4\n        /* \"#utility.yul\":9506:9545   */\n      tag_91\n      jump\t// in\n    tag_199:\n        /* \"#utility.yul\":9567:9658   */\n      tag_200\n        /* \"#utility.yul\":9616:9657   */\n      tag_201\n        /* \"#utility.yul\":9640:9656   */\n      dup3\n        /* \"#utility.yul\":9616:9657   */\n      tag_92\n      jump\t// in\n    tag_201:\n        /* \"#utility.yul\":9608:9614   */\n      dup5\n        /* \"#utility.yul\":9601:9605   */\n      dup5\n        /* \"#utility.yul\":9595:9606   */\n      sload\n        /* \"#utility.yul\":9567:9658   */\n      tag_88\n      jump\t// in\n    tag_200:\n        /* \"#utility.yul\":9561:9565   */\n      dup3\n        /* \"#utility.yul\":9554:9659   */\n      sstore\n        /* \"#utility.yul\":9472:9665   */\n      pop\n        /* \"#utility.yul\":9396:9665   */\n      pop\n      pop\n      pop\n      jump\t// out\n        /* \"#utility.yul\":9671:9744   */\n    tag_94:\n        /* \"#utility.yul\":9716:9719   */\n      0x00\n        /* \"#utility.yul\":9737:9738   */\n      0x00\n        /* \"#utility.yul\":9730:9738   */\n      swap1\n      pop\n        /* \"#utility.yul\":9671:9744   */\n      swap1\n      jump\t// out\n        /* \"#utility.yul\":9750:9939   */\n    tag_95:\n        /* \"#utility.yul\":9827:9859   */\n      tag_204\n      tag_94\n      jump\t// in\n    tag_204:\n        /* \"#utility.yul\":9868:9933   */\n      tag_205\n        /* \"#utility.yul\":9926:9932   */\n      dup2\n        /* \"#utility.yul\":9918:9924   */\n      dup5\n        /* \"#utility.yul\":9912:9916   */\n      dup5\n        /* \"#utility.yul\":9868:9933   */\n      tag_93\n      jump\t// in\n    tag_205:\n        /* \"#utility.yul\":9803:9939   */\n      pop\n        /* \"#utility.yul\":9750:9939   */\n      pop\n      pop\n      jump\t// out\n        /* \"#utility.yul\":9945:10131   */\n    tag_96:\n        /* \"#utility.yul\":10005:10125   */\n    tag_207:\n        /* \"#utility.yul\":10022:10025   */\n      dup2\n        /* \"#utility.yul\":10015:10020   */\n      dup2\n        /* \"#utility.yul\":10012:10026   */\n      lt\n        /* \"#utility.yul\":10005:10125   */\n      iszero\n      tag_209\n      jumpi\n        /* \"#utility.yul\":10076:10115   */\n      tag_210\n        /* \"#utility.yul\":10113:10114   */\n      0x00\n        /* \"#utility.yul\":10106:10111   */\n      dup3\n        /* \"#utility.yul\":10076:10115   */\n      tag_95\n      jump\t// in\n    tag_210:\n        /* \"#utility.yul\":10049:10050   */\n      0x01\n        /* \"#utility.yul\":10042:10047   */\n      dup2\n        /* \"#utility.yul\":10038:10051   */\n      add\n        /* \"#utility.yul\":10029:10051   */\n      swap1\n      pop\n        /* \"#utility.yul\":10005:10125   */\n      jump(tag_207)\n    tag_209:\n        /* \"#utility.yul\":9945:10131   */\n      pop\n      pop\n      jump\t// out\n        /* \"#utility.yul\":10137:10680   */\n    tag_97:\n        /* \"#utility.yul\":10238:10240   */\n      0x1f\n        /* \"#utility.yul\":10233:10236   */\n      dup3\n        /* \"#utility.yul\":10230:10241   */\n      gt\n        /* \"#utility.yul\":10227:10673   */\n      iszero\n      tag_212\n      jumpi\n        /* \"#utility.yul\":10272:10310   */\n      tag_213\n        /* \"#utility.yul\":10304:10309   */\n      dup2\n        /* \"#utility.yul\":10272:10310   */\n      tag_85\n      jump\t// in\n    tag_213:\n        /* \"#utility.yul\":10356:10385   */\n      tag_214\n        /* \"#utility.yul\":10374:10384   */\n      dup5\n        /* \"#utility.yul\":10356:10385   */\n      tag_86\n      jump\t// in\n    tag_214:\n        /* \"#utility.yul\":10346:10354   */\n      dup2\n        /* \"#utility.yul\":10342:10386   */\n      add\n        /* \"#utility.yul\":10539:10541   */\n      0x20\n        /* \"#utility.yul\":10527:10537   */\n      dup6\n        /* \"#utility.yul\":10524:10542   */\n      lt\n        /* \"#utility.yul\":10521:10570   */\n      iszero\n      tag_215\n      jumpi\n        /* \"#utility.yul\":10560:10568   */\n      dup2\n        /* \"#utility.yul\":10545:10568   */\n      swap1\n      pop\n        /* \"#utility.yul\":10521:10570   */\n    tag_215:\n        /* \"#utility.yul\":10583:10663   */\n      tag_216\n        /* \"#utility.yul\":10639:10661   */\n      tag_217\n        /* \"#utility.yul\":10657:10660   */\n      dup6\n        /* \"#utility.yul\":10639:10661   */\n      tag_86\n      jump\t// in\n    tag_217:\n        /* \"#utility.yul\":10629:10637   */\n      dup4\n        /* \"#utility.yul\":10625:10662   */\n      add\n        /* \"#utility.yul\":10612:10623   */\n      dup3\n        /* \"#utility.yul\":10583:10663   */\n      tag_96\n      jump\t// in\n    tag_216:\n        /* \"#utility.yul\":10242:10673   */\n      pop\n      pop\n        /* \"#utility.yul\":10227:10673   */\n    tag_212:\n        /* \"#utility.yul\":10137:10680   */\n      pop\n      pop\n      pop\n      jump\t// out\n        /* \"#utility.yul\":10686:10803   */\n    tag_98:\n        /* \"#utility.yul\":10740:10748   */\n      0x00\n        /* \"#utility.yul\":10790:10795   */\n      dup3\n        /* \"#utility.yul\":10784:10788   */\n      dup3\n        /* \"#utility.yul\":10780:10796   */\n      shr\n        /* \"#utility.yul\":10759:10796   */\n      swap1\n      pop\n        /* \"#utility.yul\":10686:10803   */\n      swap3\n      swap2\n      pop\n      pop\n      jump\t// out\n        /* \"#utility.yul\":10809:10978   */\n    tag_99:\n        /* \"#utility.yul\":10853:10859   */\n      0x00\n        /* \"#utility.yul\":10886:10937   */\n      tag_220\n        /* \"#utility.yul\":10934:10935   */\n      0x00\n        /* \"#utility.yul\":10930:10936   */\n      not\n        /* \"#utility.yul\":10922:10927   */\n      dup5\n        /* \"#utility.yul\":10919:10920   */\n      0x08\n        /* \"#utility.yul\":10915:10928   */\n      mul\n        /* \"#utility.yul\":10886:10937   */\n      tag_98\n      jump\t// in\n    tag_220:\n        /* \"#utility.yul\":10882:10938   */\n      not\n        /* \"#utility.yul\":10967:10971   */\n      dup1\n        /* \"#utility.yul\":10961:10965   */\n      dup4\n        /* \"#utility.yul\":10957:10972   */\n      and\n        /* \"#utility.yul\":10947:10972   */\n      swap2\n      pop\n        /* \"#utility.yul\":10860:10978   */\n      pop\n        /* \"#utility.yul\":10809:10978   */\n      swap3\n      swap2\n      pop\n      pop\n      jump\t// out\n        /* \"#utility.yul\":10983:11278   */\n    tag_100:\n        /* \"#utility.yul\":11059:11063   */\n      0x00\n        /* \"#utility.yul\":11205:11234   */\n      tag_222\n        /* \"#utility.yul\":11230:11233   */\n      dup4\n        /* \"#utility.yul\":11224:11228   */\n      dup4\n        /* \"#utility.yul\":11205:11234   */\n      tag_99\n      jump\t// in\n    tag_222:\n        /* \"#utility.yul\":11197:11234   */\n      swap2\n      pop\n        /* \"#utility.yul\":11267:11270   */\n      dup3\n        /* \"#utility.yul\":11264:11265   */\n      0x02\n        /* \"#utility.yul\":11260:11271   */\n      mul\n        /* \"#utility.yul\":11254:11258   */\n      dup3\n        /* \"#utility.yul\":11251:11272   */\n      or\n        /* \"#utility.yul\":11243:11272   */\n      swap1\n      pop\n        /* \"#utility.yul\":10983:11278   */\n      swap3\n      swap2\n      pop\n      pop\n      jump\t// out\n        /* \"#utility.yul\":11283:12678   */\n    tag_51:\n        /* \"#utility.yul\":11400:11437   */\n      tag_224\n        /* \"#utility.yul\":11433:11436   */\n      dup3\n        /* \"#utility.yul\":11400:11437   */\n      tag_65\n      jump\t// in\n    tag_224:\n        /* \"#utility.yul\":11502:11520   */\n      0xffffffffffffffff\n        /* \"#utility.yul\":11494:11500   */\n      dup2\n        /* \"#utility.yul\":11491:11521   */\n      gt\n        /* \"#utility.yul\":11488:11544   */\n      iszero\n      tag_225\n      jumpi\n        /* \"#utility.yul\":11524:11542   */\n      tag_226\n      tag_73\n      jump\t// in\n    tag_226:\n        /* \"#utility.yul\":11488:11544   */\n    tag_225:\n        /* \"#utility.yul\":11568:11606   */\n      tag_227\n        /* \"#utility.yul\":11600:11604   */\n      dup3\n        /* \"#utility.yul\":11594:11605   */\n      sload\n        /* \"#utility.yul\":11568:11606   */\n      tag_40\n      jump\t// in\n    tag_227:\n        /* \"#utility.yul\":11653:11720   */\n      tag_228\n        /* \"#utility.yul\":11713:11719   */\n      dup3\n        /* \"#utility.yul\":11705:11711   */\n      dup3\n        /* \"#utility.yul\":11699:11703   */\n      dup6\n        /* \"#utility.yul\":11653:11720   */\n      tag_97\n      jump\t// in\n    tag_228:\n        /* \"#utility.yul\":11747:11748   */\n      0x00\n        /* \"#utility.yul\":11771:11775   */\n      0x20\n        /* \"#utility.yul\":11758:11775   */\n      swap1\n      pop\n        /* \"#utility.yul\":11803:11805   */\n      0x1f\n        /* \"#utility.yul\":11795:11801   */\n      dup4\n        /* \"#utility.yul\":11792:11806   */\n      gt\n        /* \"#utility.yul\":11820:11821   */\n      0x01\n        /* \"#utility.yul\":11815:12433   */\n      dup2\n      eq\n      tag_230\n      jumpi\n        /* \"#utility.yul\":12477:12478   */\n      0x00\n        /* \"#utility.yul\":12494:12500   */\n      dup5\n        /* \"#utility.yul\":12491:12568   */\n      iszero\n      tag_231\n      jumpi\n        /* \"#utility.yul\":12543:12552   */\n      dup3\n        /* \"#utility.yul\":12538:12541   */\n      dup8\n        /* \"#utility.yul\":12534:12553   */\n      add\n        /* \"#utility.yul\":12528:12554   */\n      mload\n        /* \"#utility.yul\":12519:12554   */\n      swap1\n      pop\n        /* \"#utility.yul\":12491:12568   */\n    tag_231:\n        /* \"#utility.yul\":12594:12661   */\n      tag_232\n        /* \"#utility.yul\":12654:12660   */\n      dup6\n        /* \"#utility.yul\":12647:12652   */\n      dup3\n        /* \"#utility.yul\":12594:12661   */\n      tag_100\n      jump\t// in\n    tag_232:\n        /* \"#utility.yul\":12588:12592   */\n      dup7\n        /* \"#utility.yul\":12581:12662   */\n      sstore\n        /* \"#utility.yul\":12450:12672   */\n      pop\n        /* \"#utility.yul\":11785:12672   */\n      jump(tag_229)\n        /* \"#utility.yul\":11815:12433   */\n    tag_230:\n        /* \"#utility.yul\":11867:11871   */\n      0x1f\n        /* \"#utility.yul\":11863:11872   */\n      not\n        /* \"#utility.yul\":11855:11861   */\n      dup5\n        /* \"#utility.yul\":11851:11873   */\n      and\n        /* \"#utility.yul\":11901:11938   */\n      tag_233\n        /* \"#utility.yul\":11933:11937   */\n      dup7\n        /* \"#utility.yul\":11901:11938   */\n      tag_85\n      jump\t// in\n    tag_233:\n        /* \"#utility.yul\":11960:11961   */\n      0x00\n        /* \"#utility.yul\":11974:12182   */\n    tag_234:\n        /* \"#utility.yul\":11988:11995   */\n      dup3\n        /* \"#utility.yul\":11985:11986   */\n      dup2\n        /* \"#utility.yul\":11982:11996   */\n      lt\n        /* \"#utility.yul\":11974:12182   */\n      iszero\n      tag_236\n      jumpi\n        /* \"#utility.yul\":12067:12076   */\n      dup5\n        /* \"#utility.yul\":12062:12065   */\n      dup10\n        /* \"#utility.yul\":12058:12077   */\n      add\n        /* \"#utility.yul\":12052:12078   */\n      mload\n        /* \"#utility.yul\":12044:12050   */\n      dup3\n        /* \"#utility.yul\":12037:12079   */\n      sstore\n        /* \"#utility.yul\":12118:12119   */\n      0x01\n        /* \"#utility.yul\":12110:12116   */\n      dup3\n        /* \"#utility.yul\":12106:12120   */\n      add\n        /* \"#utility.yul\":12096:12120   */\n      swap2\n      pop\n        /* \"#utility.yul\":12165:12167   */\n      0x20\n        /* \"#utility.yul\":12154:12163   */\n      dup6\n        /* \"#utility.yul\":12150:12168   */\n      add\n        /* \"#utility.yul\":12137:12168   */\n      swap5\n      pop\n        /* \"#utility.yul\":12011:12015   */\n      0x20\n        /* \"#utility.yul\":12008:12009   */\n      dup2\n        /* \"#utility.yul\":12004:12016   */\n      add\n        /* \"#utility.yul\":11999:12016   */\n      swap1\n      pop\n        /* \"#utility.yul\":11974:12182   */\n      jump(tag_234)\n    tag_236:\n        /* \"#utility.yul\":12210:12216   */\n      dup7\n        /* \"#utility.yul\":12201:12208   */\n      dup4\n        /* \"#utility.yul\":12198:12217   */\n      lt\n        /* \"#utility.yul\":12195:12374   */\n      iszero\n      tag_237\n      jumpi\n        /* \"#utility.yul\":12268:12277   */\n      dup5\n        /* \"#utility.yul\":12263:12266   */\n      dup10\n        /* \"#utility.yul\":12259:12278   */\n      add\n        /* \"#utility.yul\":12253:12279   */\n      mload\n        /* \"#utility.yul\":12311:12359   */\n      tag_238\n        /* \"#utility.yul\":12353:12357   */\n      0x1f\n        /* \"#utility.yul\":12345:12351   */\n      dup10\n        /* \"#utility.yul\":12341:12358   */\n      and\n        /* \"#utility.yul\":12330:12339   */\n      dup3\n        /* \"#utility.yul\":12311:12359   */\n      tag_99\n      jump\t// in\n    tag_238:\n        /* \"#utility.yul\":12303:12309   */\n      dup4\n        /* \"#utility.yul\":12296:12360   */\n      sstore\n        /* \"#utility.yul\":12218:12374   */\n      pop\n        /* \"#utility.yul\":12195:12374   */\n    tag_237:\n        /* \"#utility.yul\":12420:12421   */\n      0x01\n        /* \"#utility.yul\":12416:12417   */\n      0x02\n        /* \"#utility.yul\":12408:12414   */\n      dup9\n        /* \"#utility.yul\":12404:12418   */\n      mul\n        /* \"#utility.yul\":12400:12422   */\n      add\n        /* \"#utility.yul\":12394:12398   */\n      dup9\n        /* \"#utility.yul\":12387:12423   */\n      sstore\n        /* \"#utility.yul\":11822:12433   */\n      pop\n      pop\n      pop\n        /* \"#utility.yul\":11785:12672   */\n    tag_229:\n      pop\n        /* \"#utility.yul\":11375:12678   */\n      pop\n      pop\n      pop\n        /* \"#utility.yul\":11283:12678   */\n      pop\n      pop\n      jump\t// out\n\n    auxdata: 0xa2646970667358221220b49448b18bfc2a401291f4b2ad736ee6ff5271587de22d8a54b39ce94ff679e964736f6c634300081c0033\n}\n",
				"bytecode": {
					"linkReferences": {},
					"object": "608060405234801561000f575f5ffd5b503360015f6101000a81548173ffffffffffffffffffffffffffffffffffffffff021916908373ffffffffffffffffffffffffffffffffffffffff160217905550600160025f3373ffffffffffffffffffffffffffffffffffffffff1673ffffffffffffffffffffffffffffffffffffffff1681526020019081526020015f205f6101000a81548160ff0219169083151502179055506040518060400160405280600b81526020017f48656c6c6f20776f726c640000000000000000000000000000000000000000008152505f90816100e8919061032b565b506103fa565b5f81519050919050565b7f4e487b71000000000000000000000000000000000000000000000000000000005f52604160045260245ffd5b7f4e487b71000000000000000000000000000000000000000000000000000000005f52602260045260245ffd5b5f600282049050600182168061016957607f821691505b60208210810361017c5761017b610125565b5b50919050565b5f819050815f5260205f209050919050565b5f6020601f8301049050919050565b5f82821b905092915050565b5f600883026101de7fffffffffffffffffffffffffffffffffffffffffffffffffffffffffffffffff826101a3565b6101e886836101a3565b95508019841693508086168417925050509392505050565b5f819050919050565b5f819050919050565b5f61022c61022761022284610200565b610209565b610200565b9050919050565b5f819050919050565b61024583610212565b61025961025182610233565b8484546101af565b825550505050565b5f5f905090565b610270610261565b61027b81848461023c565b505050565b5b8181101561029e576102935f82610268565b600181019050610281565b5050565b601f8211156102e3576102b481610182565b6102bd84610194565b810160208510156102cc578190505b6102e06102d885610194565b830182610280565b50505b505050565b5f82821c905092915050565b5f6103035f19846008026102e8565b1980831691505092915050565b5f61031b83836102f4565b9150826002028217905092915050565b610334826100ee565b67ffffffffffffffff81111561034d5761034c6100f8565b5b6103578254610152565b6103628282856102a2565b5f60209050601f831160018114610393575f8415610381578287015190505b61038b8582610310565b8655506103f2565b601f1984166103a186610182565b5f5b828110156103c8578489015182556001820191506020850194506020810190506103a3565b868310156103e557848901516103e1601f8916826102f4565b8355505b6001600288020188555050505b505050505050565b610b2b806104075f395ff3fe608060405234801561000f575f5ffd5b5060043610610060575f3560e01c80631f81595d14610064578063372c12b1146100805780635a9b0b89146100b05780638da5cb5b146100ce578063937f6e77146100ec578063ca6d56dc14610108575b5f5ffd5b61007e600480360381019061007991906104c7565b610124565b005b61009a600480360381019061009591906104c7565b610202565b6040516100a7919061050c565b60405180910390f35b6100b861021f565b6040516100c59190610595565b60405180910390f35b6100d66102ae565b6040516100e391906105c4565b60405180910390f35b61010660048036038101906101019190610709565b6102d3565b005b610122600480360381019061011d91906104c7565b610375565b005b60015f9054906101000a900473ffffffffffffffffffffffffffffffffffffffff1673ffffffffffffffffffffffffffffffffffffffff163373ffffffffffffffffffffffffffffffffffffffff16146101b3576040517f08c379a00000000000000000000000000000000000000000000000000000000081526004016101aa9061079a565b60405180910390fd5b60025f8273ffffffffffffffffffffffffffffffffffffffff1673ffffffffffffffffffffffffffffffffffffffff1681526020019081526020015f205f6101000a81549060ff021916905550565b6002602052805f5260405f205f915054906101000a900460ff1681565b60605f805461022d906107e5565b80601f0160208091040260200160405190810160405280929190818152602001828054610259906107e5565b80156102a45780601f1061027b576101008083540402835291602001916102a4565b820191905f5260205f20905b81548152906001019060200180831161028757829003601f168201915b5050505050905090565b60015f9054906101000a900473ffffffffffffffffffffffffffffffffffffffff1681565b6001151560025f3373ffffffffffffffffffffffffffffffffffffffff1673ffffffffffffffffffffffffffffffffffffffff1681526020019081526020015f205f9054906101000a900460ff16151514610363576040517f08c379a000000000000000000000000000000000000000000000000000000000815260040161035a9061085f565b60405180910390fd5b805f90816103719190610a26565b5050565b60015f9054906101000a900473ffffffffffffffffffffffffffffffffffffffff1673ffffffffffffffffffffffffffffffffffffffff163373ffffffffffffffffffffffffffffffffffffffff1614610404576040517f08c379a00000000000000000000000000000000000000000000000000000000081526004016103fb9061079a565b60405180910390fd5b600160025f8373ffffffffffffffffffffffffffffffffffffffff1673ffffffffffffffffffffffffffffffffffffffff1681526020019081526020015f205f6101000a81548160ff02191690831515021790555050565b5f604051905090565b5f5ffd5b5f5ffd5b5f73ffffffffffffffffffffffffffffffffffffffff82169050919050565b5f6104968261046d565b9050919050565b6104a68161048c565b81146104b0575f5ffd5b50565b5f813590506104c18161049d565b92915050565b5f602082840312156104dc576104db610465565b5b5f6104e9848285016104b3565b91505092915050565b5f8115159050919050565b610506816104f2565b82525050565b5f60208201905061051f5f8301846104fd565b92915050565b5f81519050919050565b5f82825260208201905092915050565b8281835e5f83830152505050565b5f601f19601f8301169050919050565b5f61056782610525565b610571818561052f565b935061058181856020860161053f565b61058a8161054d565b840191505092915050565b5f6020820190508181035f8301526105ad818461055d565b905092915050565b6105be8161048c565b82525050565b5f6020820190506105d75f8301846105b5565b92915050565b5f5ffd5b5f5ffd5b7f4e487b71000000000000000000000000000000000000000000000000000000005f52604160045260245ffd5b61061b8261054d565b810181811067ffffffffffffffff8211171561063a576106396105e5565b5b80604052505050565b5f61064c61045c565b90506106588282610612565b919050565b5f67ffffffffffffffff821115610677576106766105e5565b5b6106808261054d565b9050602081019050919050565b828183375f83830152505050565b5f6106ad6106a88461065d565b610643565b9050828152602081018484840111156106c9576106c86105e1565b5b6106d484828561068d565b509392505050565b5f82601f8301126106f0576106ef6105dd565b5b813561070084826020860161069b565b91505092915050565b5f6020828403121561071e5761071d610465565b5b5f82013567ffffffffffffffff81111561073b5761073a610469565b5b610747848285016106dc565b91505092915050565b7f4f6e6c79206f776e6572000000000000000000000000000000000000000000005f82015250565b5f610784600a8361052f565b915061078f82610750565b602082019050919050565b5f6020820190508181035f8301526107b181610778565b9050919050565b7f4e487b71000000000000000000000000000000000000000000000000000000005f52602260045260245ffd5b5f60028204905060018216806107fc57607f821691505b60208210810361080f5761080e6107b8565b5b50919050565b7f4f6e6c792077686974656c6973740000000000000000000000000000000000005f82015250565b5f610849600e8361052f565b915061085482610815565b602082019050919050565b5f6020820190508181035f8301526108768161083d565b9050919050565b5f819050815f5260205f209050919050565b5f6020601f8301049050919050565b5f82821b905092915050565b5f600883026108d97fffffffffffffffffffffffffffffffffffffffffffffffffffffffffffffffff8261089e565b6108e3868361089e565b95508019841693508086168417925050509392505050565b5f819050919050565b5f819050919050565b5f61092761092261091d846108fb565b610904565b6108fb565b9050919050565b5f819050919050565b6109408361090d565b61095461094c8261092e565b8484546108aa565b825550505050565b5f5f905090565b61096b61095c565b610976818484610937565b505050565b5b818110156109995761098e5f82610963565b60018101905061097c565b5050565b601f8211156109de576109af8161087d565b6109b88461088f565b810160208510156109c7578190505b6109db6109d38561088f565b83018261097b565b50505b505050565b5f82821c905092915050565b5f6109fe5f19846008026109e3565b1980831691505092915050565b5f610a1683836109ef565b9150826002028217905092915050565b610a2f82610525565b67ffffffffffffffff811115610a4857610a476105e5565b5b610a5282546107e5565b610a5d82828561099d565b5f60209050601f831160018114610a8e575f8415610a7c578287015190505b610a868582610a0b565b865550610aed565b601f198416610a9c8661087d565b5f5b82811015610ac357848901518255600182019150602085019450602081019050610a9e565b86831015610ae05784890151610adc601f8916826109ef565b8355505b6001600288020188555050505b50505050505056fea2646970667358221220b49448b18bfc2a401291f4b2ad736ee6ff5271587de22d8a54b39ce94ff679e964736f6c634300081c0033",
					"opcodes": "PUSH1 0x80 PUSH1 0x40 MSTORE CALLVALUE DUP1 ISZERO PUSH2 0xF JUMPI PUSH0 PUSH0 REVERT JUMPDEST POP CALLER PUSH1 0x1 PUSH0 PUSH2 0x100 EXP DUP2 SLOAD DUP2 PUSH20 0xFFFFFFFFFFFFFFFFFFFFFFFFFFFFFFFFFFFFFFFF MUL NOT AND SWAP1 DUP4 PUSH20 0xFFFFFFFFFFFFFFFFFFFFFFFFFFFFFFFFFFFFFFFF AND MUL OR SWAP1 SSTORE POP PUSH1 0x1 PUSH1 0x2 PUSH0 CALLER PUSH20 0xFFFFFFFFFFFFFFFFFFFFFFFFFFFFFFFFFFFFFFFF AND PUSH20 0xFFFFFFFFFFFFFFFFFFFFFFFFFFFFFFFFFFFFFFFF AND DUP2 MSTORE PUSH1 0x20 ADD SWAP1 DUP2 MSTORE PUSH1 0x20 ADD PUSH0 KECCAK256 PUSH0 PUSH2 0x100 EXP DUP2 SLOAD DUP2 PUSH1 0xFF MUL NOT AND SWAP1 DUP4 ISZERO ISZERO MUL OR SWAP1 SSTORE POP PUSH1 0x40 MLOAD DUP1 PUSH1 0x40 ADD PUSH1 0x40 MSTORE DUP1 PUSH1 0xB DUP2 MSTORE PUSH1 0x20 ADD PUSH32 0x48656C6C6F20776F726C64000000000000000000000000000000000000000000 DUP2 MSTORE POP PUSH0 SWAP1 DUP2 PUSH2 0xE8 SWAP2 SWAP1 PUSH2 0x32B JUMP JUMPDEST POP PUSH2 0x3FA JUMP JUMPDEST PUSH0 DUP2 MLOAD SWAP1 POP SWAP2 SWAP1 POP JUMP JUMPDEST PUSH32 0x4E487B7100000000000000000000000000000000000000000000000000000000 PUSH0 MSTORE PUSH1 0x41 PUSH1 0x4 MSTORE PUSH1 0x24 PUSH0 REVERT JUMPDEST PUSH32 0x4E487B7100000000000000000000000000000000000000000000000000000000 PUSH0 MSTORE PUSH1 0x22 PUSH1 0x4 MSTORE PUSH1 0x24 PUSH0 REVERT JUMPDEST PUSH0 PUSH1 0x2 DUP3 DIV SWAP1 POP PUSH1 0x1 DUP3 AND DUP1 PUSH2 0x169 JUMPI PUSH1 0x7F DUP3 AND SWAP2 POP JUMPDEST PUSH1 0x20 DUP3 LT DUP2 SUB PUSH2 0x17C JUMPI PUSH2 0x17B PUSH2 0x125 JUMP JUMPDEST JUMPDEST POP SWAP2 SWAP1 POP JUMP JUMPDEST PUSH0 DUP2 SWAP1 POP DUP2 PUSH0 MSTORE PUSH1 0x20 PUSH0 KECCAK256 SWAP1 POP SWAP2 SWAP1 POP JUMP JUMPDEST PUSH0 PUSH1 0x20 PUSH1 0x1F DUP4 ADD DIV SWAP1 POP SWAP2 SWAP1 POP JUMP JUMPDEST PUSH0 DUP3 DUP3 SHL SWAP1 POP SWAP3 SWAP2 POP POP JUMP JUMPDEST PUSH0 PUSH1 0x8 DUP4 MUL PUSH2 0x1DE PUSH32 0xFFFFFFFFFFFFFFFFFFFFFFFFFFFFFFFFFFFFFFFFFFFFFFFFFFFFFFFFFFFFFFFF DUP3 PUSH2 0x1A3 JUMP JUMPDEST PUSH2 0x1E8 DUP7 DUP4 PUSH2 0x1A3 JUMP JUMPDEST SWAP6 POP DUP1 NOT DUP5 AND SWAP4 POP DUP1 DUP7 AND DUP5 OR SWAP3 POP POP POP SWAP4 SWAP3 POP POP POP JUMP JUMPDEST PUSH0 DUP2 SWAP1 POP SWAP2 SWAP1 POP JUMP JUMPDEST PUSH0 DUP2 SWAP1 POP SWAP2 SWAP1 POP JUMP JUMPDEST PUSH0 PUSH2 0x22C PUSH2 0x227 PUSH2 0x222 DUP5 PUSH2 0x200 JUMP JUMPDEST PUSH2 0x209 JUMP JUMPDEST PUSH2 0x200 JUMP JUMPDEST SWAP1 POP SWAP2 SWAP1 POP JUMP JUMPDEST PUSH0 DUP2 SWAP1 POP SWAP2 SWAP1 POP JUMP JUMPDEST PUSH2 0x245 DUP4 PUSH2 0x212 JUMP JUMPDEST PUSH2 0x259 PUSH2 0x251 DUP3 PUSH2 0x233 JUMP JUMPDEST DUP5 DUP5 SLOAD PUSH2 0x1AF JUMP JUMPDEST DUP3 SSTORE POP POP POP POP JUMP JUMPDEST PUSH0 PUSH0 SWAP1 POP SWAP1 JUMP JUMPDEST PUSH2 0x270 PUSH2 0x261 JUMP JUMPDEST PUSH2 0x27B DUP2 DUP5 DUP5 PUSH2 0x23C JUMP JUMPDEST POP POP POP JUMP JUMPDEST JUMPDEST DUP2 DUP2 LT ISZERO PUSH2 0x29E JUMPI PUSH2 0x293 PUSH0 DUP3 PUSH2 0x268 JUMP JUMPDEST PUSH1 0x1 DUP2 ADD SWAP1 POP PUSH2 0x281 JUMP JUMPDEST POP POP JUMP JUMPDEST PUSH1 0x1F DUP3 GT ISZERO PUSH2 0x2E3 JUMPI PUSH2 0x2B4 DUP2 PUSH2 0x182 JUMP JUMPDEST PUSH2 0x2BD DUP5 PUSH2 0x194 JUMP JUMPDEST DUP2 ADD PUSH1 0x20 DUP6 LT ISZERO PUSH2 0x2CC JUMPI DUP2 SWAP1 POP JUMPDEST PUSH2 0x2E0 PUSH2 0x2D8 DUP6 PUSH2 0x194 JUMP JUMPDEST DUP4 ADD DUP3 PUSH2 0x280 JUMP JUMPDEST POP POP JUMPDEST POP POP POP JUMP JUMPDEST PUSH0 DUP3 DUP3 SHR SWAP1 POP SWAP3 SWAP2 POP POP JUMP JUMPDEST PUSH0 PUSH2 0x303 PUSH0 NOT DUP5 PUSH1 0x8 MUL PUSH2 0x2E8 JUMP JUMPDEST NOT DUP1 DUP4 AND SWAP2 POP POP SWAP3 SWAP2 POP POP JUMP JUMPDEST PUSH0 PUSH2 0x31B DUP4 DUP4 PUSH2 0x2F4 JUMP JUMPDEST SWAP2 POP DUP3 PUSH1 0x2 MUL DUP3 OR SWAP1 POP SWAP3 SWAP2 POP POP JUMP JUMPDEST PUSH2 0x334 DUP3 PUSH2 0xEE JUMP JUMPDEST PUSH8 0xFFFFFFFFFFFFFFFF DUP2 GT ISZERO PUSH2 0x34D JUMPI PUSH2 0x34C PUSH2 0xF8 JUMP JUMPDEST JUMPDEST PUSH2 0x357 DUP3 SLOAD PUSH2 0x152 JUMP JUMPDEST PUSH2 0x362 DUP3 DUP3 DUP6 PUSH2 0x2A2 JUMP JUMPDEST PUSH0 PUSH1 0x20 SWAP1 POP PUSH1 0x1F DUP4 GT PUSH1 0x1 DUP2 EQ PUSH2 0x393 JUMPI PUSH0 DUP5 ISZERO PUSH2 0x381 JUMPI DUP3 DUP8 ADD MLOAD SWAP1 POP JUMPDEST PUSH2 0x38B DUP6 DUP3 PUSH2 0x310 JUMP JUMPDEST DUP7 SSTORE POP PUSH2 0x3F2 JUMP JUMPDEST PUSH1 0x1F NOT DUP5 AND PUSH2 0x3A1 DUP7 PUSH2 0x182 JUMP JUMPDEST PUSH0 JUMPDEST DUP3 DUP2 LT ISZERO PUSH2 0x3C8 JUMPI DUP5 DUP10 ADD MLOAD DUP3 SSTORE PUSH1 0x1 DUP3 ADD SWAP2 POP PUSH1 0x20 DUP6 ADD SWAP5 POP PUSH1 0x20 DUP2 ADD SWAP1 POP PUSH2 0x3A3 JUMP JUMPDEST DUP7 DUP4 LT ISZERO PUSH2 0x3E5 JUMPI DUP5 DUP10 ADD MLOAD PUSH2 0x3E1 PUSH1 0x1F DUP10 AND DUP3 PUSH2 0x2F4 JUMP JUMPDEST DUP4 SSTORE POP JUMPDEST PUSH1 0x1 PUSH1 0x2 DUP9 MUL ADD DUP9 SSTORE POP POP POP JUMPDEST POP POP POP POP POP POP JUMP JUMPDEST PUSH2 0xB2B DUP1 PUSH2 0x407 PUSH0 CODECOPY PUSH0 RETURN INVALID PUSH1 0x80 PUSH1 0x40 MSTORE CALLVALUE DUP1 ISZERO PUSH2 0xF JUMPI PUSH0 PUSH0 REVERT JUMPDEST POP PUSH1 0x4 CALLDATASIZE LT PUSH2 0x60 JUMPI PUSH0 CALLDATALOAD PUSH1 0xE0 SHR DUP1 PUSH4 0x1F81595D EQ PUSH2 0x64 JUMPI DUP1 PUSH4 0x372C12B1 EQ PUSH2 0x80 JUMPI DUP1 PUSH4 0x5A9B0B89 EQ PUSH2 0xB0 JUMPI DUP1 PUSH4 0x8DA5CB5B EQ PUSH2 0xCE JUMPI DUP1 PUSH4 0x937F6E77 EQ PUSH2 0xEC JUMPI DUP1 PUSH4 0xCA6D56DC EQ PUSH2 0x108 JUMPI JUMPDEST PUSH0 PUSH0 REVERT JUMPDEST PUSH2 0x7E PUSH1 0x4 DUP1 CALLDATASIZE SUB DUP2 ADD SWAP1 PUSH2 0x79 SWAP2 SWAP1 PUSH2 0x4C7 JUMP JUMPDEST PUSH2 0x124 JUMP JUMPDEST STOP JUMPDEST PUSH2 0x9A PUSH1 0x4 DUP1 CALLDATASIZE SUB DUP2 ADD SWAP1 PUSH2 0x95 SWAP2 SWAP1 PUSH2 0x4C7 JUMP JUMPDEST PUSH2 0x202 JUMP JUMPDEST PUSH1 0x40 MLOAD PUSH2 0xA7 SWAP2 SWAP1 PUSH2 0x50C JUMP JUMPDEST PUSH1 0x40 MLOAD DUP1 SWAP2 SUB SWAP1 RETURN JUMPDEST PUSH2 0xB8 PUSH2 0x21F JUMP JUMPDEST PUSH1 0x40 MLOAD PUSH2 0xC5 SWAP2 SWAP1 PUSH2 0x595 JUMP JUMPDEST PUSH1 0x40 MLOAD DUP1 SWAP2 SUB SWAP1 RETURN JUMPDEST PUSH2 0xD6 PUSH2 0x2AE JUMP JUMPDEST PUSH1 0x40 MLOAD PUSH2 0xE3 SWAP2 SWAP1 PUSH2 0x5C4 JUMP JUMPDEST PUSH1 0x40 MLOAD DUP1 SWAP2 SUB SWAP1 RETURN JUMPDEST PUSH2 0x106 PUSH1 0x4 DUP1 CALLDATASIZE SUB DUP2 ADD SWAP1 PUSH2 0x101 SWAP2 SWAP1 PUSH2 0x709 JUMP JUMPDEST PUSH2 0x2D3 JUMP JUMPDEST STOP JUMPDEST PUSH2 0x122 PUSH1 0x4 DUP1 CALLDATASIZE SUB DUP2 ADD SWAP1 PUSH2 0x11D SWAP2 SWAP1 PUSH2 0x4C7 JUMP JUMPDEST PUSH2 0x375 JUMP JUMPDEST STOP JUMPDEST PUSH1 0x1 PUSH0 SWAP1 SLOAD SWAP1 PUSH2 0x100 EXP SWAP1 DIV PUSH20 0xFFFFFFFFFFFFFFFFFFFFFFFFFFFFFFFFFFFFFFFF AND PUSH20 0xFFFFFFFFFFFFFFFFFFFFFFFFFFFFFFFFFFFFFFFF AND CALLER PUSH20 0xFFFFFFFFFFFFFFFFFFFFFFFFFFFFFFFFFFFFFFFF AND EQ PUSH2 0x1B3 JUMPI PUSH1 0x40 MLOAD PUSH32 0x8C379A000000000000000000000000000000000000000000000000000000000 DUP2 MSTORE PUSH1 0x4 ADD PUSH2 0x1AA SWAP1 PUSH2 0x79A JUMP JUMPDEST PUSH1 0x40 MLOAD DUP1 SWAP2 SUB SWAP1 REVERT JUMPDEST PUSH1 0x2 PUSH0 DUP3 PUSH20 0xFFFFFFFFFFFFFFFFFFFFFFFFFFFFFFFFFFFFFFFF AND PUSH20 0xFFFFFFFFFFFFFFFFFFFFFFFFFFFFFFFFFFFFFFFF AND DUP2 MSTORE PUSH1 0x20 ADD SWAP1 DUP2 MSTORE PUSH1 0x20 ADD PUSH0 KECCAK256 PUSH0 PUSH2 0x100 EXP DUP2 SLOAD SWAP1 PUSH1 0xFF MUL NOT AND SWAP1 SSTORE POP JUMP JUMPDEST PUSH1 0x2 PUSH1 0x20 MSTORE DUP1 PUSH0 MSTORE PUSH1 0x40 PUSH0 KECCAK256 PUSH0 SWAP2 POP SLOAD SWAP1 PUSH2 0x100 EXP SWAP1 DIV PUSH1 0xFF AND DUP2 JUMP JUMPDEST PUSH1 0x60 PUSH0 DUP1 SLOAD PUSH2 0x22D SWAP1 PUSH2 0x7E5 JUMP JUMPDEST DUP1 PUSH1 0x1F ADD PUSH1 0x20 DUP1 SWAP2 DIV MUL PUSH1 0x20 ADD PUSH1 0x40 MLOAD SWAP1 DUP2 ADD PUSH1 0x40 MSTORE DUP1 SWAP3 SWAP2 SWAP1 DUP2 DUP2 MSTORE PUSH1 0x20 ADD DUP3 DUP1 SLOAD PUSH2 0x259 SWAP1 PUSH2 0x7E5 JUMP JUMPDEST DUP1 ISZERO PUSH2 0x2A4 JUMPI DUP1 PUSH1 0x1F LT PUSH2 0x27B JUMPI PUSH2 0x100 DUP1 DUP4 SLOAD DIV MUL DUP4 MSTORE SWAP2 PUSH1 0x20 ADD SWAP2 PUSH2 0x2A4 JUMP JUMPDEST DUP3 ADD SWAP2 SWAP1 PUSH0 MSTORE PUSH1 0x20 PUSH0 KECCAK256 SWAP1 JUMPDEST DUP2 SLOAD DUP2 MSTORE SWAP1 PUSH1 0x1 ADD SWAP1 PUSH1 0x20 ADD DUP1 DUP4 GT PUSH2 0x287 JUMPI DUP3 SWAP1 SUB PUSH1 0x1F AND DUP3 ADD SWAP2 JUMPDEST POP POP POP POP POP SWAP1 POP SWAP1 JUMP JUMPDEST PUSH1 0x1 PUSH0 SWAP1 SLOAD SWAP1 PUSH2 0x100 EXP SWAP1 DIV PUSH20 0xFFFFFFFFFFFFFFFFFFFFFFFFFFFFFFFFFFFFFFFF AND DUP2 JUMP JUMPDEST PUSH1 0x1 ISZERO ISZERO PUSH1 0x2 PUSH0 CALLER PUSH20 0xFFFFFFFFFFFFFFFFFFFFFFFFFFFFFFFFFFFFFFFF AND PUSH20 0xFFFFFFFFFFFFFFFFFFFFFFFFFFFFFFFFFFFFFFFF AND DUP2 MSTORE PUSH1 0x20 ADD SWAP1 DUP2 MSTORE PUSH1 0x20 ADD PUSH0 KECCAK256 PUSH0 SWAP1 SLOAD SWAP1 PUSH2 0x100 EXP SWAP1 DIV PUSH1 0xFF AND ISZERO ISZERO EQ PUSH2 0x363 JUMPI PUSH1 0x40 MLOAD PUSH32 0x8C379A000000000000000000000000000000000000000000000000000000000 DUP2 MSTORE PUSH1 0x4 ADD PUSH2 0x35A SWAP1 PUSH2 0x85F JUMP JUMPDEST PUSH1 0x40 MLOAD DUP1 SWAP2 SUB SWAP1 REVERT JUMPDEST DUP1 PUSH0 SWAP1 DUP2 PUSH2 0x371 SWAP2 SWAP1 PUSH2 0xA26 JUMP JUMPDEST POP POP JUMP JUMPDEST PUSH1 0x1 PUSH0 SWAP1 SLOAD SWAP1 PUSH2 0x100 EXP SWAP1 DIV PUSH20 0xFFFFFFFFFFFFFFFFFFFFFFFFFFFFFFFFFFFFFFFF AND PUSH20 0xFFFFFFFFFFFFFFFFFFFFFFFFFFFFFFFFFFFFFFFF AND CALLER PUSH20 0xFFFFFFFFFFFFFFFFFFFFFFFFFFFFFFFFFFFFFFFF AND EQ PUSH2 0x404 JUMPI PUSH1 0x40 MLOAD PUSH32 0x8C379A000000000000000000000000000000000000000000000000000000000 DUP2 MSTORE PUSH1 0x4 ADD PUSH2 0x3FB SWAP1 PUSH2 0x79A JUMP JUMPDEST PUSH1 0x40 MLOAD DUP1 SWAP2 SUB SWAP1 REVERT JUMPDEST PUSH1 0x1 PUSH1 0x2 PUSH0 DUP4 PUSH20 0xFFFFFFFFFFFFFFFFFFFFFFFFFFFFFFFFFFFFFFFF AND PUSH20 0xFFFFFFFFFFFFFFFFFFFFFFFFFFFFFFFFFFFFFFFF AND DUP2 MSTORE PUSH1 0x20 ADD SWAP1 DUP2 MSTORE PUSH1 0x20 ADD PUSH0 KECCAK256 PUSH0 PUSH2 0x100 EXP DUP2 SLOAD DUP2 PUSH1 0xFF MUL NOT AND SWAP1 DUP4 ISZERO ISZERO MUL OR SWAP1 SSTORE POP POP JUMP JUMPDEST PUSH0 PUSH1 0x40 MLOAD SWAP1 POP SWAP1 JUMP JUMPDEST PUSH0 PUSH0 REVERT JUMPDEST PUSH0 PUSH0 REVERT JUMPDEST PUSH0 PUSH20 0xFFFFFFFFFFFFFFFFFFFFFFFFFFFFFFFFFFFFFFFF DUP3 AND SWAP1 POP SWAP2 SWAP1 POP JUMP JUMPDEST PUSH0 PUSH2 0x496 DUP3 PUSH2 0x46D JUMP JUMPDEST SWAP1 POP SWAP2 SWAP1 POP JUMP JUMPDEST PUSH2 0x4A6 DUP2 PUSH2 0x48C JUMP JUMPDEST DUP2 EQ PUSH2 0x4B0 JUMPI PUSH0 PUSH0 REVERT JUMPDEST POP JUMP JUMPDEST PUSH0 DUP2 CALLDATALOAD SWAP1 POP PUSH2 0x4C1 DUP2 PUSH2 0x49D JUMP JUMPDEST SWAP3 SWAP2 POP POP JUMP JUMPDEST PUSH0 PUSH1 0x20 DUP3 DUP5 SUB SLT ISZERO PUSH2 0x4DC JUMPI PUSH2 0x4DB PUSH2 0x465 JUMP JUMPDEST JUMPDEST PUSH0 PUSH2 0x4E9 DUP5 DUP3 DUP6 ADD PUSH2 0x4B3 JUMP JUMPDEST SWAP2 POP POP SWAP3 SWAP2 POP POP JUMP JUMPDEST PUSH0 DUP2 ISZERO ISZERO SWAP1 POP SWAP2 SWAP1 POP JUMP JUMPDEST PUSH2 0x506 DUP2 PUSH2 0x4F2 JUMP JUMPDEST DUP3 MSTORE POP POP JUMP JUMPDEST PUSH0 PUSH1 0x20 DUP3 ADD SWAP1 POP PUSH2 0x51F PUSH0 DUP4 ADD DUP5 PUSH2 0x4FD JUMP JUMPDEST SWAP3 SWAP2 POP POP JUMP JUMPDEST PUSH0 DUP2 MLOAD SWAP1 POP SWAP2 SWAP1 POP JUMP JUMPDEST PUSH0 DUP3 DUP3 MSTORE PUSH1 0x20 DUP3 ADD SWAP1 POP SWAP3 SWAP2 POP POP JUMP JUMPDEST DUP3 DUP2 DUP4 MCOPY PUSH0 DUP4 DUP4 ADD MSTORE POP POP POP JUMP JUMPDEST PUSH0 PUSH1 0x1F NOT PUSH1 0x1F DUP4 ADD AND SWAP1 POP SWAP2 SWAP1 POP JUMP JUMPDEST PUSH0 PUSH2 0x567 DUP3 PUSH2 0x525 JUMP JUMPDEST PUSH2 0x571 DUP2 DUP6 PUSH2 0x52F JUMP JUMPDEST SWAP4 POP PUSH2 0x581 DUP2 DUP6 PUSH1 0x20 DUP7 ADD PUSH2 0x53F JUMP JUMPDEST PUSH2 0x58A DUP2 PUSH2 0x54D JUMP JUMPDEST DUP5 ADD SWAP2 POP POP SWAP3 SWAP2 POP POP JUMP JUMPDEST PUSH0 PUSH1 0x20 DUP3 ADD SWAP1 POP DUP2 DUP2 SUB PUSH0 DUP4 ADD MSTORE PUSH2 0x5AD DUP2 DUP5 PUSH2 0x55D JUMP JUMPDEST SWAP1 POP SWAP3 SWAP2 POP POP JUMP JUMPDEST PUSH2 0x5BE DUP2 PUSH2 0x48C JUMP JUMPDEST DUP3 MSTORE POP POP JUMP JUMPDEST PUSH0 PUSH1 0x20 DUP3 ADD SWAP1 POP PUSH2 0x5D7 PUSH0 DUP4 ADD DUP5 PUSH2 0x5B5 JUMP JUMPDEST SWAP3 SWAP2 POP POP JUMP JUMPDEST PUSH0 PUSH0 REVERT JUMPDEST PUSH0 PUSH0 REVERT JUMPDEST PUSH32 0x4E487B7100000000000000000000000000000000000000000000000000000000 PUSH0 MSTORE PUSH1 0x41 PUSH1 0x4 MSTORE PUSH1 0x24 PUSH0 REVERT JUMPDEST PUSH2 0x61B DUP3 PUSH2 0x54D JUMP JUMPDEST DUP2 ADD DUP2 DUP2 LT PUSH8 0xFFFFFFFFFFFFFFFF DUP3 GT OR ISZERO PUSH2 0x63A JUMPI PUSH2 0x639 PUSH2 0x5E5 JUMP JUMPDEST JUMPDEST DUP1 PUSH1 0x40 MSTORE POP POP POP JUMP JUMPDEST PUSH0 PUSH2 0x64C PUSH2 0x45C JUMP JUMPDEST SWAP1 POP PUSH2 0x658 DUP3 DUP3 PUSH2 0x612 JUMP JUMPDEST SWAP2 SWAP1 POP JUMP JUMPDEST PUSH0 PUSH8 0xFFFFFFFFFFFFFFFF DUP3 GT ISZERO PUSH2 0x677 JUMPI PUSH2 0x676 PUSH2 0x5E5 JUMP JUMPDEST JUMPDEST PUSH2 0x680 DUP3 PUSH2 0x54D JUMP JUMPDEST SWAP1 POP PUSH1 0x20 DUP2 ADD SWAP1 POP SWAP2 SWAP1 POP JUMP JUMPDEST DUP3 DUP2 DUP4 CALLDATACOPY PUSH0 DUP4 DUP4 ADD MSTORE POP POP POP JUMP JUMPDEST PUSH0 PUSH2 0x6AD PUSH2 0x6A8 DUP5 PUSH2 0x65D JUMP JUMPDEST PUSH2 0x643 JUMP JUMPDEST SWAP1 POP DUP3 DUP2 MSTORE PUSH1 0x20 DUP2 ADD DUP5 DUP5 DUP5 ADD GT ISZERO PUSH2 0x6C9 JUMPI PUSH2 0x6C8 PUSH2 0x5E1 JUMP JUMPDEST JUMPDEST PUSH2 0x6D4 DUP5 DUP3 DUP6 PUSH2 0x68D JUMP JUMPDEST POP SWAP4 SWAP3 POP POP POP JUMP JUMPDEST PUSH0 DUP3 PUSH1 0x1F DUP4 ADD SLT PUSH2 0x6F0 JUMPI PUSH2 0x6EF PUSH2 0x5DD JUMP JUMPDEST JUMPDEST DUP2 CALLDATALOAD PUSH2 0x700 DUP5 DUP3 PUSH1 0x20 DUP7 ADD PUSH2 0x69B JUMP JUMPDEST SWAP2 POP POP SWAP3 SWAP2 POP POP JUMP JUMPDEST PUSH0 PUSH1 0x20 DUP3 DUP5 SUB SLT ISZERO PUSH2 0x71E JUMPI PUSH2 0x71D PUSH2 0x465 JUMP JUMPDEST JUMPDEST PUSH0 DUP3 ADD CALLDATALOAD PUSH8 0xFFFFFFFFFFFFFFFF DUP2 GT ISZERO PUSH2 0x73B JUMPI PUSH2 0x73A PUSH2 0x469 JUMP JUMPDEST JUMPDEST PUSH2 0x747 DUP5 DUP3 DUP6 ADD PUSH2 0x6DC JUMP JUMPDEST SWAP2 POP POP SWAP3 SWAP2 POP POP JUMP JUMPDEST PUSH32 0x4F6E6C79206F776E657200000000000000000000000000000000000000000000 PUSH0 DUP3 ADD MSTORE POP JUMP JUMPDEST PUSH0 PUSH2 0x784 PUSH1 0xA DUP4 PUSH2 0x52F JUMP JUMPDEST SWAP2 POP PUSH2 0x78F DUP3 PUSH2 0x750 JUMP JUMPDEST PUSH1 0x20 DUP3 ADD SWAP1 POP SWAP2 SWAP1 POP JUMP JUMPDEST PUSH0 PUSH1 0x20 DUP3 ADD SWAP1 POP DUP2 DUP2 SUB PUSH0 DUP4 ADD MSTORE PUSH2 0x7B1 DUP2 PUSH2 0x778 JUMP JUMPDEST SWAP1 POP SWAP2 SWAP1 POP JUMP JUMPDEST PUSH32 0x4E487B7100000000000000000000000000000000000000000000000000000000 PUSH0 MSTORE PUSH1 0x22 PUSH1 0x4 MSTORE PUSH1 0x24 PUSH0 REVERT JUMPDEST PUSH0 PUSH1 0x2 DUP3 DIV SWAP1 POP PUSH1 0x1 DUP3 AND DUP1 PUSH2 0x7FC JUMPI PUSH1 0x7F DUP3 AND SWAP2 POP JUMPDEST PUSH1 0x20 DUP3 LT DUP2 SUB PUSH2 0x80F JUMPI PUSH2 0x80E PUSH2 0x7B8 JUMP JUMPDEST JUMPDEST POP SWAP2 SWAP1 POP JUMP JUMPDEST PUSH32 0x4F6E6C792077686974656C697374000000000000000000000000000000000000 PUSH0 DUP3 ADD MSTORE POP JUMP JUMPDEST PUSH0 PUSH2 0x849 PUSH1 0xE DUP4 PUSH2 0x52F JUMP JUMPDEST SWAP2 POP PUSH2 0x854 DUP3 PUSH2 0x815 JUMP JUMPDEST PUSH1 0x20 DUP3 ADD SWAP1 POP SWAP2 SWAP1 POP JUMP JUMPDEST PUSH0 PUSH1 0x20 DUP3 ADD SWAP1 POP DUP2 DUP2 SUB PUSH0 DUP4 ADD MSTORE PUSH2 0x876 DUP2 PUSH2 0x83D JUMP JUMPDEST SWAP1 POP SWAP2 SWAP1 POP JUMP JUMPDEST PUSH0 DUP2 SWAP1 POP DUP2 PUSH0 MSTORE PUSH1 0x20 PUSH0 KECCAK256 SWAP1 POP SWAP2 SWAP1 POP JUMP JUMPDEST PUSH0 PUSH1 0x20 PUSH1 0x1F DUP4 ADD DIV SWAP1 POP SWAP2 SWAP1 POP JUMP JUMPDEST PUSH0 DUP3 DUP3 SHL SWAP1 POP SWAP3 SWAP2 POP POP JUMP JUMPDEST PUSH0 PUSH1 0x8 DUP4 MUL PUSH2 0x8D9 PUSH32 0xFFFFFFFFFFFFFFFFFFFFFFFFFFFFFFFFFFFFFFFFFFFFFFFFFFFFFFFFFFFFFFFF DUP3 PUSH2 0x89E JUMP JUMPDEST PUSH2 0x8E3 DUP7 DUP4 PUSH2 0x89E JUMP JUMPDEST SWAP6 POP DUP1 NOT DUP5 AND SWAP4 POP DUP1 DUP7 AND DUP5 OR SWAP3 POP POP POP SWAP4 SWAP3 POP POP POP JUMP JUMPDEST PUSH0 DUP2 SWAP1 POP SWAP2 SWAP1 POP JUMP JUMPDEST PUSH0 DUP2 SWAP1 POP SWAP2 SWAP1 POP JUMP JUMPDEST PUSH0 PUSH2 0x927 PUSH2 0x922 PUSH2 0x91D DUP5 PUSH2 0x8FB JUMP JUMPDEST PUSH2 0x904 JUMP JUMPDEST PUSH2 0x8FB JUMP JUMPDEST SWAP1 POP SWAP2 SWAP1 POP JUMP JUMPDEST PUSH0 DUP2 SWAP1 POP SWAP2 SWAP1 POP JUMP JUMPDEST PUSH2 0x940 DUP4 PUSH2 0x90D JUMP JUMPDEST PUSH2 0x954 PUSH2 0x94C DUP3 PUSH2 0x92E JUMP JUMPDEST DUP5 DUP5 SLOAD PUSH2 0x8AA JUMP JUMPDEST DUP3 SSTORE POP POP POP POP JUMP JUMPDEST PUSH0 PUSH0 SWAP1 POP SWAP1 JUMP JUMPDEST PUSH2 0x96B PUSH2 0x95C JUMP JUMPDEST PUSH2 0x976 DUP2 DUP5 DUP5 PUSH2 0x937 JUMP JUMPDEST POP POP POP JUMP JUMPDEST JUMPDEST DUP2 DUP2 LT ISZERO PUSH2 0x999 JUMPI PUSH2 0x98E PUSH0 DUP3 PUSH2 0x963 JUMP JUMPDEST PUSH1 0x1 DUP2 ADD SWAP1 POP PUSH2 0x97C JUMP JUMPDEST POP POP JUMP JUMPDEST PUSH1 0x1F DUP3 GT ISZERO PUSH2 0x9DE JUMPI PUSH2 0x9AF DUP2 PUSH2 0x87D JUMP JUMPDEST PUSH2 0x9B8 DUP5 PUSH2 0x88F JUMP JUMPDEST DUP2 ADD PUSH1 0x20 DUP6 LT ISZERO PUSH2 0x9C7 JUMPI DUP2 SWAP1 POP JUMPDEST PUSH2 0x9DB PUSH2 0x9D3 DUP6 PUSH2 0x88F JUMP JUMPDEST DUP4 ADD DUP3 PUSH2 0x97B JUMP JUMPDEST POP POP JUMPDEST POP POP POP JUMP JUMPDEST PUSH0 DUP3 DUP3 SHR SWAP1 POP SWAP3 SWAP2 POP POP JUMP JUMPDEST PUSH0 PUSH2 0x9FE PUSH0 NOT DUP5 PUSH1 0x8 MUL PUSH2 0x9E3 JUMP JUMPDEST NOT DUP1 DUP4 AND SWAP2 POP POP SWAP3 SWAP2 POP POP JUMP JUMPDEST PUSH0 PUSH2 0xA16 DUP4 DUP4 PUSH2 0x9EF JUMP JUMPDEST SWAP2 POP DUP3 PUSH1 0x2 MUL DUP3 OR SWAP1 POP SWAP3 SWAP2 POP POP JUMP JUMPDEST PUSH2 0xA2F DUP3 PUSH2 0x525 JUMP JUMPDEST PUSH8 0xFFFFFFFFFFFFFFFF DUP2 GT ISZERO PUSH2 0xA48 JUMPI PUSH2 0xA47 PUSH2 0x5E5 JUMP JUMPDEST JUMPDEST PUSH2 0xA52 DUP3 SLOAD PUSH2 0x7E5 JUMP JUMPDEST PUSH2 0xA5D DUP3 DUP3 DUP6 PUSH2 0x99D JUMP JUMPDEST PUSH0 PUSH1 0x20 SWAP1 POP PUSH1 0x1F DUP4 GT PUSH1 0x1 DUP2 EQ PUSH2 0xA8E JUMPI PUSH0 DUP5 ISZERO PUSH2 0xA7C JUMPI DUP3 DUP8 ADD MLOAD SWAP1 POP JUMPDEST PUSH2 0xA86 DUP6 DUP3 PUSH2 0xA0B JUMP JUMPDEST DUP7 SSTORE POP PUSH2 0xAED JUMP JUMPDEST PUSH1 0x1F NOT DUP5 AND PUSH2 0xA9C DUP7 PUSH2 0x87D JUMP JUMPDEST PUSH0 JUMPDEST DUP3 DUP2 LT ISZERO PUSH2 0xAC3 JUMPI DUP5 DUP10 ADD MLOAD DUP3 SSTORE PUSH1 0x1 DUP3 ADD SWAP2 POP PUSH1 0x20 DUP6 ADD SWAP5 POP PUSH1 0x20 DUP2 ADD SWAP1 POP PUSH2 0xA9E JUMP JUMPDEST DUP7 DUP4 LT ISZERO PUSH2 0xAE0 JUMPI DUP5 DUP10 ADD MLOAD PUSH2 0xADC PUSH1 0x1F DUP10 AND DUP3 PUSH2 0x9EF JUMP JUMPDEST DUP4 SSTORE POP JUMPDEST PUSH1 0x1 PUSH1 0x2 DUP9 MUL ADD DUP9 SSTORE POP POP POP JUMPDEST POP POP POP POP POP POP JUMP INVALID LOG2 PUSH5 0x6970667358 0x22 SLT KECCAK256 0xB4 SWAP5 BASEFEE 0xB1 DUP12 0xFC 0x2A BLOCKHASH SLT SWAP2 DELEGATECALL 0xB2 0xAD PUSH20 0x6EE6FF5271587DE22D8A54B39CE94FF679E96473 PUSH16 0x6C634300081C00330000000000000000 "
				},
				"gasEstimates": {
					"creation": {
						"codeDepositCost": "571800",
						"executionCost": "infinite",
						"totalCost": "infinite"
					},
					"external": {
						"addMember(address)": "27060",
						"delMember(address)": "26925",
						"getInfo()": "infinite",
						"owner()": "2552",
						"setInfo(string)": "infinite",
						"whiteList(address)": "2833"
					}
				},
				"methodIdentifiers": {
					"addMember(address)": "ca6d56dc",
					"delMember(address)": "1f81595d",
					"getInfo()": "5a9b0b89",
					"owner()": "8da5cb5b",
					"setInfo(string)": "937f6e77",
					"whiteList(address)": "372c12b1"
				}
			},
			"storageLayout": {
				"storage": [
					{
						"astId": 4,
						"contract": "ETH - Henry/contracts/register/Register11.sol:Register11",
						"label": "storedInfo",
						"offset": 0,
						"slot": "0",
						"type": "t_string_storage"
					},
					{
						"astId": 6,
						"contract": "ETH - Henry/contracts/register/Register11.sol:Register11",
						"label": "owner",
						"offset": 0,
						"slot": "1",
						"type": "t_address"
					},
					{
						"astId": 10,
						"contract": "ETH - Henry/contracts/register/Register11.sol:Register11",
						"label": "whiteList",
						"offset": 0,
						"slot": "2",
						"type": "t_mapping(t_address,t_bool)"
					}
				],
				"types": {
					"t_address": {
						"encoding": "inplace",
						"label": "address",
						"numberOfBytes": "20"
					},
					"t_bool": {
						"encoding": "inplace",
						"label": "bool",
						"numberOfBytes": "1"
					},
					"t_mapping(t_address,t_bool)": {
						"encoding": "mapping",
						"key": "t_address",
						"label": "mapping(address => bool)",
						"numberOfBytes": "32",
						"value": "t_bool"
					},
					"t_string_storage": {
						"encoding": "bytes",
						"label": "string",
						"numberOfBytes": "32"
					}
				}
			},
			"userdoc": {
				"kind": "user",
				"methods": {
					"addMember(address)": {
						"notice": "`Add` an address in the whitelist It means that the address will have `True` value, saing that it is in the whiteList"
					},
					"delMember(address)": {
						"notice": "`Remove` an address in the whitelist It means that the address will have `False` value, saing that it is NOT in the whiteList When an index is not explicity setted, the default value is false."
					},
					"getInfo()": {
						"notice": "Return the stored string"
					},
					"setInfo(string)": {
						"notice": "Store `myInfo` Use the function modifier onlyWhitelist to check the require condition. _ continue the function code"
					}
				},
				"version": 1
			}
		}
	}
}