{
	"ETH - Henry/contracts/Trabajo-Final-Mod-3/AuctionPlatform.sol": {
		"AuctionPlatform": {
			"abi": [
				{
					"inputs": [
						{
							"internalType": "address",
							"name": "_auctionToken",
							"type": "address"
						},
						{
							"internalType": "address",
							"name": "_auctionNFT",
							"type": "address"
						}
					],
					"stateMutability": "nonpayable",
					"type": "constructor"
				},
				{
					"anonymous": false,
					"inputs": [
						{
							"indexed": true,
							"internalType": "uint256",
							"name": "auctionId",
							"type": "uint256"
						},
						{
							"indexed": false,
							"internalType": "uint256",
							"name": "tokenId",
							"type": "uint256"
						},
						{
							"indexed": false,
							"internalType": "uint256",
							"name": "endTime",
							"type": "uint256"
						}
					],
					"name": "AuctionCreated",
					"type": "event"
				},
				{
					"anonymous": false,
					"inputs": [
						{
							"indexed": true,
							"internalType": "uint256",
							"name": "auctionId",
							"type": "uint256"
						},
						{
							"indexed": false,
							"internalType": "address",
							"name": "winner",
							"type": "address"
						},
						{
							"indexed": false,
							"internalType": "uint256",
							"name": "bidAmount",
							"type": "uint256"
						}
					],
					"name": "AuctionEnded",
					"type": "event"
				},
				{
					"anonymous": false,
					"inputs": [
						{
							"indexed": true,
							"internalType": "uint256",
							"name": "auctionId",
							"type": "uint256"
						},
						{
							"indexed": false,
							"internalType": "address",
							"name": "bidder",
							"type": "address"
						},
						{
							"indexed": false,
							"internalType": "uint256",
							"name": "bidAmount",
							"type": "uint256"
						}
					],
					"name": "NewBid",
					"type": "event"
				},
				{
					"inputs": [],
					"name": "auctionIdCounter",
					"outputs": [
						{
							"internalType": "uint256",
							"name": "",
							"type": "uint256"
						}
					],
					"stateMutability": "view",
					"type": "function"
				},
				{
					"inputs": [],
					"name": "auctionNFT",
					"outputs": [
						{
							"internalType": "contract IERC721",
							"name": "",
							"type": "address"
						}
					],
					"stateMutability": "view",
					"type": "function"
				},
				{
					"inputs": [],
					"name": "auctionToken",
					"outputs": [
						{
							"internalType": "contract IERC20",
							"name": "",
							"type": "address"
						}
					],
					"stateMutability": "view",
					"type": "function"
				},
				{
					"inputs": [
						{
							"internalType": "uint256",
							"name": "",
							"type": "uint256"
						}
					],
					"name": "auctions",
					"outputs": [
						{
							"internalType": "address",
							"name": "seller",
							"type": "address"
						},
						{
							"internalType": "address",
							"name": "highestBidder",
							"type": "address"
						},
						{
							"internalType": "uint256",
							"name": "highestBid",
							"type": "uint256"
						},
						{
							"internalType": "uint256",
							"name": "tokenId",
							"type": "uint256"
						},
						{
							"internalType": "uint256",
							"name": "endTime",
							"type": "uint256"
						},
						{
							"internalType": "bool",
							"name": "active",
							"type": "bool"
						}
					],
					"stateMutability": "view",
					"type": "function"
				},
				{
					"inputs": [
						{
							"internalType": "uint256",
							"name": "tokenId",
							"type": "uint256"
						},
						{
							"internalType": "uint256",
							"name": "duration",
							"type": "uint256"
						}
					],
					"name": "createAuction",
					"outputs": [],
					"stateMutability": "nonpayable",
					"type": "function"
				},
				{
					"inputs": [
						{
							"internalType": "uint256",
							"name": "auctionId",
							"type": "uint256"
						}
					],
					"name": "endAuction",
					"outputs": [],
					"stateMutability": "nonpayable",
					"type": "function"
				},
				{
					"inputs": [
						{
							"internalType": "uint256",
							"name": "auctionId",
							"type": "uint256"
						},
						{
							"internalType": "uint256",
							"name": "bidAmount",
							"type": "uint256"
						}
					],
					"name": "placeBid",
					"outputs": [],
					"stateMutability": "nonpayable",
					"type": "function"
				}
			],
			"devdoc": {
				"kind": "dev",
				"methods": {},
				"version": 1
			},
			"evm": {
				"assembly": "    /* \"ETH - Henry/contracts/Trabajo-Final-Mod-3/AuctionPlatform.sol\":388:5667  contract AuctionPlatform {... */\n  mstore(0x40, 0x80)\n    /* \"ETH - Henry/contracts/Trabajo-Final-Mod-3/AuctionPlatform.sol\":1952:2200  constructor(address _auctionToken, address _auctionNFT) {... */\n  callvalue\n  dup1\n  iszero\n  tag_1\n  jumpi\n  revert(0x00, 0x00)\ntag_1:\n  pop\n  mload(0x40)\n  sub(codesize, bytecodeSize)\n  dup1\n  bytecodeSize\n  dup4\n  codecopy\n  dup2\n  dup2\n  add\n  0x40\n  mstore\n  dup2\n  add\n  swap1\n  tag_2\n  swap2\n  swap1\n  tag_3\n  jump\t// in\ntag_2:\n    /* \"ETH - Henry/contracts/Trabajo-Final-Mod-3/AuctionPlatform.sol\":2041:2054  _auctionToken */\n  dup2\n    /* \"ETH - Henry/contracts/Trabajo-Final-Mod-3/AuctionPlatform.sol\":2019:2031  auctionToken */\n  0x00\n  0x00\n    /* \"ETH - Henry/contracts/Trabajo-Final-Mod-3/AuctionPlatform.sol\":2019:2055  auctionToken = IERC20(_auctionToken) */\n  0x0100\n  exp\n  dup2\n  sload\n  dup2\n  0xffffffffffffffffffffffffffffffffffffffff\n  mul\n  not\n  and\n  swap1\n  dup4\n  0xffffffffffffffffffffffffffffffffffffffff\n  and\n  mul\n  or\n  swap1\n  sstore\n  pop\n    /* \"ETH - Henry/contracts/Trabajo-Final-Mod-3/AuctionPlatform.sol\":2132:2143  _auctionNFT */\n  dup1\n    /* \"ETH - Henry/contracts/Trabajo-Final-Mod-3/AuctionPlatform.sol\":2111:2121  auctionNFT */\n  0x01\n  0x00\n    /* \"ETH - Henry/contracts/Trabajo-Final-Mod-3/AuctionPlatform.sol\":2111:2144  auctionNFT = IERC721(_auctionNFT) */\n  0x0100\n  exp\n  dup2\n  sload\n  dup2\n  0xffffffffffffffffffffffffffffffffffffffff\n  mul\n  not\n  and\n  swap1\n  dup4\n  0xffffffffffffffffffffffffffffffffffffffff\n  and\n  mul\n  or\n  swap1\n  sstore\n  pop\n    /* \"ETH - Henry/contracts/Trabajo-Final-Mod-3/AuctionPlatform.sol\":1952:2200  constructor(address _auctionToken, address _auctionNFT) {... */\n  pop\n  pop\n    /* \"ETH - Henry/contracts/Trabajo-Final-Mod-3/AuctionPlatform.sol\":388:5667  contract AuctionPlatform {... */\n  jump(tag_6)\n    /* \"#utility.yul\":88:205   */\ntag_8:\n    /* \"#utility.yul\":197:198   */\n  0x00\n    /* \"#utility.yul\":194:195   */\n  0x00\n    /* \"#utility.yul\":187:199   */\n  revert\n    /* \"#utility.yul\":334:460   */\ntag_10:\n    /* \"#utility.yul\":371:378   */\n  0x00\n    /* \"#utility.yul\":411:453   */\n  0xffffffffffffffffffffffffffffffffffffffff\n    /* \"#utility.yul\":404:409   */\n  dup3\n    /* \"#utility.yul\":400:454   */\n  and\n    /* \"#utility.yul\":389:454   */\n  swap1\n  pop\n    /* \"#utility.yul\":334:460   */\n  swap2\n  swap1\n  pop\n  jump\t// out\n    /* \"#utility.yul\":466:562   */\ntag_11:\n    /* \"#utility.yul\":503:510   */\n  0x00\n    /* \"#utility.yul\":532:556   */\n  tag_20\n    /* \"#utility.yul\":550:555   */\n  dup3\n    /* \"#utility.yul\":532:556   */\n  tag_10\n  jump\t// in\ntag_20:\n    /* \"#utility.yul\":521:556   */\n  swap1\n  pop\n    /* \"#utility.yul\":466:562   */\n  swap2\n  swap1\n  pop\n  jump\t// out\n    /* \"#utility.yul\":568:690   */\ntag_12:\n    /* \"#utility.yul\":641:665   */\n  tag_22\n    /* \"#utility.yul\":659:664   */\n  dup2\n    /* \"#utility.yul\":641:665   */\n  tag_11\n  jump\t// in\ntag_22:\n    /* \"#utility.yul\":634:639   */\n  dup2\n    /* \"#utility.yul\":631:666   */\n  eq\n    /* \"#utility.yul\":621:684   */\n  tag_23\n  jumpi\n    /* \"#utility.yul\":680:681   */\n  0x00\n    /* \"#utility.yul\":677:678   */\n  0x00\n    /* \"#utility.yul\":670:682   */\n  revert\n    /* \"#utility.yul\":621:684   */\ntag_23:\n    /* \"#utility.yul\":568:690   */\n  pop\n  jump\t// out\n    /* \"#utility.yul\":696:839   */\ntag_13:\n    /* \"#utility.yul\":753:758   */\n  0x00\n    /* \"#utility.yul\":784:790   */\n  dup2\n    /* \"#utility.yul\":778:791   */\n  mload\n    /* \"#utility.yul\":769:791   */\n  swap1\n  pop\n    /* \"#utility.yul\":800:833   */\n  tag_25\n    /* \"#utility.yul\":827:832   */\n  dup2\n    /* \"#utility.yul\":800:833   */\n  tag_12\n  jump\t// in\ntag_25:\n    /* \"#utility.yul\":696:839   */\n  swap3\n  swap2\n  pop\n  pop\n  jump\t// out\n    /* \"#utility.yul\":845:1352   */\ntag_3:\n    /* \"#utility.yul\":924:930   */\n  0x00\n    /* \"#utility.yul\":932:938   */\n  0x00\n    /* \"#utility.yul\":981:983   */\n  0x40\n    /* \"#utility.yul\":969:978   */\n  dup4\n    /* \"#utility.yul\":960:967   */\n  dup6\n    /* \"#utility.yul\":956:979   */\n  sub\n    /* \"#utility.yul\":952:984   */\n  slt\n    /* \"#utility.yul\":949:1068   */\n  iszero\n  tag_27\n  jumpi\n    /* \"#utility.yul\":987:1066   */\n  tag_28\n  tag_8\n  jump\t// in\ntag_28:\n    /* \"#utility.yul\":949:1068   */\ntag_27:\n    /* \"#utility.yul\":1107:1108   */\n  0x00\n    /* \"#utility.yul\":1132:1196   */\n  tag_29\n    /* \"#utility.yul\":1188:1195   */\n  dup6\n    /* \"#utility.yul\":1179:1185   */\n  dup3\n    /* \"#utility.yul\":1168:1177   */\n  dup7\n    /* \"#utility.yul\":1164:1186   */\n  add\n    /* \"#utility.yul\":1132:1196   */\n  tag_13\n  jump\t// in\ntag_29:\n    /* \"#utility.yul\":1122:1196   */\n  swap3\n  pop\n    /* \"#utility.yul\":1078:1206   */\n  pop\n    /* \"#utility.yul\":1245:1247   */\n  0x20\n    /* \"#utility.yul\":1271:1335   */\n  tag_30\n    /* \"#utility.yul\":1327:1334   */\n  dup6\n    /* \"#utility.yul\":1318:1324   */\n  dup3\n    /* \"#utility.yul\":1307:1316   */\n  dup7\n    /* \"#utility.yul\":1303:1325   */\n  add\n    /* \"#utility.yul\":1271:1335   */\n  tag_13\n  jump\t// in\ntag_30:\n    /* \"#utility.yul\":1261:1335   */\n  swap2\n  pop\n    /* \"#utility.yul\":1216:1345   */\n  pop\n    /* \"#utility.yul\":845:1352   */\n  swap3\n  pop\n  swap3\n  swap1\n  pop\n  jump\t// out\n    /* \"ETH - Henry/contracts/Trabajo-Final-Mod-3/AuctionPlatform.sol\":388:5667  contract AuctionPlatform {... */\ntag_6:\n  dataSize(sub_0)\n  dup1\n  dataOffset(sub_0)\n  0x00\n  codecopy\n  0x00\n  return\nstop\n\nsub_0: assembly {\n        /* \"ETH - Henry/contracts/Trabajo-Final-Mod-3/AuctionPlatform.sol\":388:5667  contract AuctionPlatform {... */\n      mstore(0x40, 0x80)\n      callvalue\n      dup1\n      iszero\n      tag_1\n      jumpi\n      revert(0x00, 0x00)\n    tag_1:\n      pop\n      jumpi(tag_2, lt(calldatasize, 0x04))\n      shr(0xe0, calldataload(0x00))\n      dup1\n      0x57c90de5\n      gt\n      tag_10\n      jumpi\n      dup1\n      0x57c90de5\n      eq\n      tag_6\n      jumpi\n      dup1\n      0x99fdb320\n      eq\n      tag_7\n      jumpi\n      dup1\n      0xb9a2de3a\n      eq\n      tag_8\n      jumpi\n      dup1\n      0xde0794ef\n      eq\n      tag_9\n      jumpi\n      jump(tag_2)\n    tag_10:\n      dup1\n      0x0121683f\n      eq\n      tag_3\n      jumpi\n      dup1\n      0x35af939b\n      eq\n      tag_4\n      jumpi\n      dup1\n      0x571a26a0\n      eq\n      tag_5\n      jumpi\n    tag_2:\n      revert(0x00, 0x00)\n        /* \"ETH - Henry/contracts/Trabajo-Final-Mod-3/AuctionPlatform.sol\":2251:3247  function createAuction(uint256 tokenId, uint256 duration) external {... */\n    tag_3:\n      tag_11\n      0x04\n      dup1\n      calldatasize\n      sub\n      dup2\n      add\n      swap1\n      tag_12\n      swap2\n      swap1\n      tag_13\n      jump\t// in\n    tag_12:\n      tag_14\n      jump\t// in\n    tag_11:\n      stop\n        /* \"ETH - Henry/contracts/Trabajo-Final-Mod-3/AuctionPlatform.sol\":1188:1213  IERC721 public auctionNFT */\n    tag_4:\n      tag_15\n      tag_16\n      jump\t// in\n    tag_15:\n      mload(0x40)\n      tag_17\n      swap2\n      swap1\n      tag_18\n      jump\t// in\n    tag_17:\n      mload(0x40)\n      dup1\n      swap2\n      sub\n      swap1\n      return\n        /* \"ETH - Henry/contracts/Trabajo-Final-Mod-3/AuctionPlatform.sol\":1375:1418  mapping(uint256 => Auction) public auctions */\n    tag_5:\n      tag_19\n      0x04\n      dup1\n      calldatasize\n      sub\n      dup2\n      add\n      swap1\n      tag_20\n      swap2\n      swap1\n      tag_21\n      jump\t// in\n    tag_20:\n      tag_22\n      jump\t// in\n    tag_19:\n      mload(0x40)\n      tag_23\n      swap7\n      swap6\n      swap5\n      swap4\n      swap3\n      swap2\n      swap1\n      tag_24\n      jump\t// in\n    tag_23:\n      mload(0x40)\n      dup1\n      swap2\n      sub\n      swap1\n      return\n        /* \"ETH - Henry/contracts/Trabajo-Final-Mod-3/AuctionPlatform.sol\":3315:4424  function placeBid(uint256 auctionId, uint256 bidAmount) external {... */\n    tag_6:\n      tag_25\n      0x04\n      dup1\n      calldatasize\n      sub\n      dup2\n      add\n      swap1\n      tag_26\n      swap2\n      swap1\n      tag_13\n      jump\t// in\n    tag_26:\n      tag_27\n      jump\t// in\n    tag_25:\n      stop\n        /* \"ETH - Henry/contracts/Trabajo-Final-Mod-3/AuctionPlatform.sol\":1082:1108  IERC20 public auctionToken */\n    tag_7:\n      tag_28\n      tag_29\n      jump\t// in\n    tag_28:\n      mload(0x40)\n      tag_30\n      swap2\n      swap1\n      tag_31\n      jump\t// in\n    tag_30:\n      mload(0x40)\n      dup1\n      swap2\n      sub\n      swap1\n      return\n        /* \"ETH - Henry/contracts/Trabajo-Final-Mod-3/AuctionPlatform.sol\":4477:5664  function endAuction(uint256 auctionId) external {... */\n    tag_8:\n      tag_32\n      0x04\n      dup1\n      calldatasize\n      sub\n      dup2\n      add\n      swap1\n      tag_33\n      swap2\n      swap1\n      tag_21\n      jump\t// in\n    tag_33:\n      tag_34\n      jump\t// in\n    tag_32:\n      stop\n        /* \"ETH - Henry/contracts/Trabajo-Final-Mod-3/AuctionPlatform.sol\":1278:1309  uint256 public auctionIdCounter */\n    tag_9:\n      tag_35\n      tag_36\n      jump\t// in\n    tag_35:\n      mload(0x40)\n      tag_37\n      swap2\n      swap1\n      tag_38\n      jump\t// in\n    tag_37:\n      mload(0x40)\n      dup1\n      swap2\n      sub\n      swap1\n      return\n        /* \"ETH - Henry/contracts/Trabajo-Final-Mod-3/AuctionPlatform.sol\":2251:3247  function createAuction(uint256 tokenId, uint256 duration) external {... */\n    tag_14:\n        /* \"ETH - Henry/contracts/Trabajo-Final-Mod-3/AuctionPlatform.sol\":2388:2398  auctionNFT */\n      0x01\n      0x00\n      swap1\n      sload\n      swap1\n      0x0100\n      exp\n      swap1\n      div\n      0xffffffffffffffffffffffffffffffffffffffff\n      and\n        /* \"ETH - Henry/contracts/Trabajo-Final-Mod-3/AuctionPlatform.sol\":2388:2411  auctionNFT.transferFrom */\n      0xffffffffffffffffffffffffffffffffffffffff\n      and\n      0x23b872dd\n        /* \"ETH - Henry/contracts/Trabajo-Final-Mod-3/AuctionPlatform.sol\":2412:2422  msg.sender */\n      caller\n        /* \"ETH - Henry/contracts/Trabajo-Final-Mod-3/AuctionPlatform.sol\":2432:2436  this */\n      address\n        /* \"ETH - Henry/contracts/Trabajo-Final-Mod-3/AuctionPlatform.sol\":2439:2446  tokenId */\n      dup6\n        /* \"ETH - Henry/contracts/Trabajo-Final-Mod-3/AuctionPlatform.sol\":2388:2447  auctionNFT.transferFrom(msg.sender, address(this), tokenId) */\n      mload(0x40)\n      dup5\n      0xffffffff\n      and\n      0xe0\n      shl\n      dup2\n      mstore\n      0x04\n      add\n      tag_40\n      swap4\n      swap3\n      swap2\n      swap1\n      tag_41\n      jump\t// in\n    tag_40:\n      0x00\n      mload(0x40)\n      dup1\n      dup4\n      sub\n      dup2\n      0x00\n      dup8\n      dup1\n      extcodesize\n      iszero\n      dup1\n      iszero\n      tag_42\n      jumpi\n      revert(0x00, 0x00)\n    tag_42:\n      pop\n      gas\n      call\n      iszero\n      dup1\n      iszero\n      tag_44\n      jumpi\n      returndatacopy(0x00, 0x00, returndatasize)\n      revert(0x00, returndatasize)\n    tag_44:\n      pop\n      pop\n      pop\n      pop\n        /* \"ETH - Henry/contracts/Trabajo-Final-Mod-3/AuctionPlatform.sol\":2504:2521  uint256 auctionId */\n      0x00\n        /* \"ETH - Henry/contracts/Trabajo-Final-Mod-3/AuctionPlatform.sol\":2524:2540  auctionIdCounter */\n      0x02\n      0x00\n        /* \"ETH - Henry/contracts/Trabajo-Final-Mod-3/AuctionPlatform.sol\":2524:2542  auctionIdCounter++ */\n      dup2\n      sload\n      dup1\n      swap3\n      swap2\n      swap1\n      tag_45\n      swap1\n      tag_46\n      jump\t// in\n    tag_45:\n      swap2\n      swap1\n      pop\n      sstore\n        /* \"ETH - Henry/contracts/Trabajo-Final-Mod-3/AuctionPlatform.sol\":2504:2542  uint256 auctionId = auctionIdCounter++ */\n      swap1\n      pop\n        /* \"ETH - Henry/contracts/Trabajo-Final-Mod-3/AuctionPlatform.sol\":2655:3102  Auction({... */\n      mload(0x40)\n      dup1\n      0xc0\n      add\n      0x40\n      mstore\n      dup1\n        /* \"ETH - Henry/contracts/Trabajo-Final-Mod-3/AuctionPlatform.sol\":2682:2692  msg.sender */\n      caller\n        /* \"ETH - Henry/contracts/Trabajo-Final-Mod-3/AuctionPlatform.sol\":2655:3102  Auction({... */\n      0xffffffffffffffffffffffffffffffffffffffff\n      and\n      dup2\n      mstore\n      0x20\n      add\n        /* \"ETH - Henry/contracts/Trabajo-Final-Mod-3/AuctionPlatform.sol\":2763:2764  0 */\n      0x00\n        /* \"ETH - Henry/contracts/Trabajo-Final-Mod-3/AuctionPlatform.sol\":2655:3102  Auction({... */\n      0xffffffffffffffffffffffffffffffffffffffff\n      and\n      dup2\n      mstore\n      0x20\n      add\n        /* \"ETH - Henry/contracts/Trabajo-Final-Mod-3/AuctionPlatform.sol\":2819:2820  0 */\n      0x00\n        /* \"ETH - Henry/contracts/Trabajo-Final-Mod-3/AuctionPlatform.sol\":2655:3102  Auction({... */\n      dup2\n      mstore\n      0x20\n      add\n        /* \"ETH - Henry/contracts/Trabajo-Final-Mod-3/AuctionPlatform.sol\":2883:2890  tokenId */\n      dup5\n        /* \"ETH - Henry/contracts/Trabajo-Final-Mod-3/AuctionPlatform.sol\":2655:3102  Auction({... */\n      dup2\n      mstore\n      0x20\n      add\n        /* \"ETH - Henry/contracts/Trabajo-Final-Mod-3/AuctionPlatform.sol\":2975:2983  duration */\n      dup4\n        /* \"ETH - Henry/contracts/Trabajo-Final-Mod-3/AuctionPlatform.sol\":2957:2972  block.timestamp */\n      timestamp\n        /* \"ETH - Henry/contracts/Trabajo-Final-Mod-3/AuctionPlatform.sol\":2957:2983  block.timestamp + duration */\n      tag_47\n      swap2\n      swap1\n      tag_48\n      jump\t// in\n    tag_47:\n        /* \"ETH - Henry/contracts/Trabajo-Final-Mod-3/AuctionPlatform.sol\":2655:3102  Auction({... */\n      dup2\n      mstore\n      0x20\n      add\n        /* \"ETH - Henry/contracts/Trabajo-Final-Mod-3/AuctionPlatform.sol\":3043:3047  true */\n      0x01\n        /* \"ETH - Henry/contracts/Trabajo-Final-Mod-3/AuctionPlatform.sol\":2655:3102  Auction({... */\n      iszero\n      iszero\n      dup2\n      mstore\n      pop\n        /* \"ETH - Henry/contracts/Trabajo-Final-Mod-3/AuctionPlatform.sol\":2633:2641  auctions */\n      0x03\n        /* \"ETH - Henry/contracts/Trabajo-Final-Mod-3/AuctionPlatform.sol\":2633:2652  auctions[auctionId] */\n      0x00\n        /* \"ETH - Henry/contracts/Trabajo-Final-Mod-3/AuctionPlatform.sol\":2642:2651  auctionId */\n      dup4\n        /* \"ETH - Henry/contracts/Trabajo-Final-Mod-3/AuctionPlatform.sol\":2633:2652  auctions[auctionId] */\n      dup2\n      mstore\n      0x20\n      add\n      swap1\n      dup2\n      mstore\n      0x20\n      add\n      0x00\n      keccak256\n        /* \"ETH - Henry/contracts/Trabajo-Final-Mod-3/AuctionPlatform.sol\":2633:3102  auctions[auctionId] = Auction({... */\n      0x00\n      dup3\n      add\n      mload\n      dup2\n      0x00\n      add\n      exp(0x0100, 0x00)\n      dup2\n      sload\n      dup2\n      0xffffffffffffffffffffffffffffffffffffffff\n      mul\n      not\n      and\n      swap1\n      dup4\n      0xffffffffffffffffffffffffffffffffffffffff\n      and\n      mul\n      or\n      swap1\n      sstore\n      pop\n      0x20\n      dup3\n      add\n      mload\n      dup2\n      0x01\n      add\n      exp(0x0100, 0x00)\n      dup2\n      sload\n      dup2\n      0xffffffffffffffffffffffffffffffffffffffff\n      mul\n      not\n      and\n      swap1\n      dup4\n      0xffffffffffffffffffffffffffffffffffffffff\n      and\n      mul\n      or\n      swap1\n      sstore\n      pop\n      0x40\n      dup3\n      add\n      mload\n      dup2\n      0x02\n      add\n      sstore\n      0x60\n      dup3\n      add\n      mload\n      dup2\n      0x03\n      add\n      sstore\n      0x80\n      dup3\n      add\n      mload\n      dup2\n      0x04\n      add\n      sstore\n      0xa0\n      dup3\n      add\n      mload\n      dup2\n      0x05\n      add\n      exp(0x0100, 0x00)\n      dup2\n      sload\n      dup2\n      0xff\n      mul\n      not\n      and\n      swap1\n      dup4\n      iszero\n      iszero\n      mul\n      or\n      swap1\n      sstore\n      pop\n      swap1\n      pop\n      pop\n        /* \"ETH - Henry/contracts/Trabajo-Final-Mod-3/AuctionPlatform.sol\":3196:3205  auctionId */\n      dup1\n        /* \"ETH - Henry/contracts/Trabajo-Final-Mod-3/AuctionPlatform.sol\":3181:3243  AuctionCreated(auctionId, tokenId, block.timestamp + duration) */\n      0xd6eddd1118d71820909c1197aa966dbc15ed6f508554252169cc3d5ccac756ca\n        /* \"ETH - Henry/contracts/Trabajo-Final-Mod-3/AuctionPlatform.sol\":3207:3214  tokenId */\n      dup5\n        /* \"ETH - Henry/contracts/Trabajo-Final-Mod-3/AuctionPlatform.sol\":3234:3242  duration */\n      dup5\n        /* \"ETH - Henry/contracts/Trabajo-Final-Mod-3/AuctionPlatform.sol\":3216:3231  block.timestamp */\n      timestamp\n        /* \"ETH - Henry/contracts/Trabajo-Final-Mod-3/AuctionPlatform.sol\":3216:3242  block.timestamp + duration */\n      tag_49\n      swap2\n      swap1\n      tag_48\n      jump\t// in\n    tag_49:\n        /* \"ETH - Henry/contracts/Trabajo-Final-Mod-3/AuctionPlatform.sol\":3181:3243  AuctionCreated(auctionId, tokenId, block.timestamp + duration) */\n      mload(0x40)\n      tag_50\n      swap3\n      swap2\n      swap1\n      tag_51\n      jump\t// in\n    tag_50:\n      mload(0x40)\n      dup1\n      swap2\n      sub\n      swap1\n      log2\n        /* \"ETH - Henry/contracts/Trabajo-Final-Mod-3/AuctionPlatform.sol\":2318:3247  {... */\n      pop\n        /* \"ETH - Henry/contracts/Trabajo-Final-Mod-3/AuctionPlatform.sol\":2251:3247  function createAuction(uint256 tokenId, uint256 duration) external {... */\n      pop\n      pop\n      jump\t// out\n        /* \"ETH - Henry/contracts/Trabajo-Final-Mod-3/AuctionPlatform.sol\":1188:1213  IERC721 public auctionNFT */\n    tag_16:\n      0x01\n      0x00\n      swap1\n      sload\n      swap1\n      0x0100\n      exp\n      swap1\n      div\n      0xffffffffffffffffffffffffffffffffffffffff\n      and\n      dup2\n      jump\t// out\n        /* \"ETH - Henry/contracts/Trabajo-Final-Mod-3/AuctionPlatform.sol\":1375:1418  mapping(uint256 => Auction) public auctions */\n    tag_22:\n      mstore(0x20, 0x03)\n      dup1\n      0x00\n      mstore\n      keccak256(0x00, 0x40)\n      0x00\n      swap2\n      pop\n      swap1\n      pop\n      dup1\n      0x00\n      add\n      0x00\n      swap1\n      sload\n      swap1\n      0x0100\n      exp\n      swap1\n      div\n      0xffffffffffffffffffffffffffffffffffffffff\n      and\n      swap1\n      dup1\n      0x01\n      add\n      0x00\n      swap1\n      sload\n      swap1\n      0x0100\n      exp\n      swap1\n      div\n      0xffffffffffffffffffffffffffffffffffffffff\n      and\n      swap1\n      dup1\n      0x02\n      add\n      sload\n      swap1\n      dup1\n      0x03\n      add\n      sload\n      swap1\n      dup1\n      0x04\n      add\n      sload\n      swap1\n      dup1\n      0x05\n      add\n      0x00\n      swap1\n      sload\n      swap1\n      0x0100\n      exp\n      swap1\n      div\n      0xff\n      and\n      swap1\n      pop\n      dup7\n      jump\t// out\n        /* \"ETH - Henry/contracts/Trabajo-Final-Mod-3/AuctionPlatform.sol\":3315:4424  function placeBid(uint256 auctionId, uint256 bidAmount) external {... */\n    tag_27:\n        /* \"ETH - Henry/contracts/Trabajo-Final-Mod-3/AuctionPlatform.sol\":3387:3410  Auction storage auction */\n      0x00\n        /* \"ETH - Henry/contracts/Trabajo-Final-Mod-3/AuctionPlatform.sol\":3413:3421  auctions */\n      0x03\n        /* \"ETH - Henry/contracts/Trabajo-Final-Mod-3/AuctionPlatform.sol\":3413:3432  auctions[auctionId] */\n      0x00\n        /* \"ETH - Henry/contracts/Trabajo-Final-Mod-3/AuctionPlatform.sol\":3422:3431  auctionId */\n      dup5\n        /* \"ETH - Henry/contracts/Trabajo-Final-Mod-3/AuctionPlatform.sol\":3413:3432  auctions[auctionId] */\n      dup2\n      mstore\n      0x20\n      add\n      swap1\n      dup2\n      mstore\n      0x20\n      add\n      0x00\n      keccak256\n        /* \"ETH - Henry/contracts/Trabajo-Final-Mod-3/AuctionPlatform.sol\":3387:3432  Auction storage auction = auctions[auctionId] */\n      swap1\n      pop\n        /* \"ETH - Henry/contracts/Trabajo-Final-Mod-3/AuctionPlatform.sol\":3510:3517  auction */\n      dup1\n        /* \"ETH - Henry/contracts/Trabajo-Final-Mod-3/AuctionPlatform.sol\":3510:3525  auction.endTime */\n      0x04\n      add\n      sload\n        /* \"ETH - Henry/contracts/Trabajo-Final-Mod-3/AuctionPlatform.sol\":3492:3507  block.timestamp */\n      timestamp\n        /* \"ETH - Henry/contracts/Trabajo-Final-Mod-3/AuctionPlatform.sol\":3492:3525  block.timestamp < auction.endTime */\n      lt\n        /* \"ETH - Henry/contracts/Trabajo-Final-Mod-3/AuctionPlatform.sol\":3484:3547  require(block.timestamp < auction.endTime, \"Auction has ended\") */\n      tag_53\n      jumpi\n      mload(0x40)\n      0x08c379a000000000000000000000000000000000000000000000000000000000\n      dup2\n      mstore\n      0x04\n      add\n      tag_54\n      swap1\n      tag_55\n      jump\t// in\n    tag_54:\n      mload(0x40)\n      dup1\n      swap2\n      sub\n      swap1\n      revert\n    tag_53:\n        /* \"ETH - Henry/contracts/Trabajo-Final-Mod-3/AuctionPlatform.sol\":3609:3616  auction */\n      dup1\n        /* \"ETH - Henry/contracts/Trabajo-Final-Mod-3/AuctionPlatform.sol\":3609:3623  auction.active */\n      0x05\n      add\n      0x00\n      swap1\n      sload\n      swap1\n      0x0100\n      exp\n      swap1\n      div\n      0xff\n      and\n        /* \"ETH - Henry/contracts/Trabajo-Final-Mod-3/AuctionPlatform.sol\":3601:3649  require(auction.active, \"Auction is not active\") */\n      tag_56\n      jumpi\n      mload(0x40)\n      0x08c379a000000000000000000000000000000000000000000000000000000000\n      dup2\n      mstore\n      0x04\n      add\n      tag_57\n      swap1\n      tag_58\n      jump\t// in\n    tag_57:\n      mload(0x40)\n      dup1\n      swap2\n      sub\n      swap1\n      revert\n    tag_56:\n        /* \"ETH - Henry/contracts/Trabajo-Final-Mod-3/AuctionPlatform.sol\":3717:3724  auction */\n      dup1\n        /* \"ETH - Henry/contracts/Trabajo-Final-Mod-3/AuctionPlatform.sol\":3717:3735  auction.highestBid */\n      0x02\n      add\n      sload\n        /* \"ETH - Henry/contracts/Trabajo-Final-Mod-3/AuctionPlatform.sol\":3705:3714  bidAmount */\n      dup3\n        /* \"ETH - Henry/contracts/Trabajo-Final-Mod-3/AuctionPlatform.sol\":3705:3735  bidAmount > auction.highestBid */\n      gt\n        /* \"ETH - Henry/contracts/Trabajo-Final-Mod-3/AuctionPlatform.sol\":3697:3783  require(bidAmount > auction.highestBid, \"Bid must be higher than current highest bid\") */\n      tag_59\n      jumpi\n      mload(0x40)\n      0x08c379a000000000000000000000000000000000000000000000000000000000\n      dup2\n      mstore\n      0x04\n      add\n      tag_60\n      swap1\n      tag_61\n      jump\t// in\n    tag_60:\n      mload(0x40)\n      dup1\n      swap2\n      sub\n      swap1\n      revert\n    tag_59:\n        /* \"ETH - Henry/contracts/Trabajo-Final-Mod-3/AuctionPlatform.sol\":3905:3917  auctionToken */\n      0x00\n      0x00\n      swap1\n      sload\n      swap1\n      0x0100\n      exp\n      swap1\n      div\n      0xffffffffffffffffffffffffffffffffffffffff\n      and\n        /* \"ETH - Henry/contracts/Trabajo-Final-Mod-3/AuctionPlatform.sol\":3905:3930  auctionToken.transferFrom */\n      0xffffffffffffffffffffffffffffffffffffffff\n      and\n      0x23b872dd\n        /* \"ETH - Henry/contracts/Trabajo-Final-Mod-3/AuctionPlatform.sol\":3931:3941  msg.sender */\n      caller\n        /* \"ETH - Henry/contracts/Trabajo-Final-Mod-3/AuctionPlatform.sol\":3951:3955  this */\n      address\n        /* \"ETH - Henry/contracts/Trabajo-Final-Mod-3/AuctionPlatform.sol\":3958:3967  bidAmount */\n      dup6\n        /* \"ETH - Henry/contracts/Trabajo-Final-Mod-3/AuctionPlatform.sol\":3905:3968  auctionToken.transferFrom(msg.sender, address(this), bidAmount) */\n      mload(0x40)\n      dup5\n      0xffffffff\n      and\n      0xe0\n      shl\n      dup2\n      mstore\n      0x04\n      add\n      tag_62\n      swap4\n      swap3\n      swap2\n      swap1\n      tag_41\n      jump\t// in\n    tag_62:\n      0x20\n      mload(0x40)\n      dup1\n      dup4\n      sub\n      dup2\n      0x00\n      dup8\n      gas\n      call\n      iszero\n      dup1\n      iszero\n      tag_64\n      jumpi\n      returndatacopy(0x00, 0x00, returndatasize)\n      revert(0x00, returndatasize)\n    tag_64:\n      pop\n      pop\n      pop\n      pop\n      mload(0x40)\n      returndatasize\n      not(0x1f)\n      0x1f\n      dup3\n      add\n      and\n      dup3\n      add\n      dup1\n      0x40\n      mstore\n      pop\n      dup2\n      add\n      swap1\n      tag_65\n      swap2\n      swap1\n      tag_66\n      jump\t// in\n    tag_65:\n      pop\n        /* \"ETH - Henry/contracts/Trabajo-Final-Mod-3/AuctionPlatform.sol\":4081:4082  0 */\n      0x00\n        /* \"ETH - Henry/contracts/Trabajo-Final-Mod-3/AuctionPlatform.sol\":4048:4083  auction.highestBidder != address(0) */\n      0xffffffffffffffffffffffffffffffffffffffff\n      and\n        /* \"ETH - Henry/contracts/Trabajo-Final-Mod-3/AuctionPlatform.sol\":4048:4055  auction */\n      dup2\n        /* \"ETH - Henry/contracts/Trabajo-Final-Mod-3/AuctionPlatform.sol\":4048:4069  auction.highestBidder */\n      0x01\n      add\n      0x00\n      swap1\n      sload\n      swap1\n      0x0100\n      exp\n      swap1\n      div\n      0xffffffffffffffffffffffffffffffffffffffff\n      and\n        /* \"ETH - Henry/contracts/Trabajo-Final-Mod-3/AuctionPlatform.sol\":4048:4083  auction.highestBidder != address(0) */\n      0xffffffffffffffffffffffffffffffffffffffff\n      and\n      eq\n        /* \"ETH - Henry/contracts/Trabajo-Final-Mod-3/AuctionPlatform.sol\":4044:4168  if (auction.highestBidder != address(0)) {... */\n      tag_67\n      jumpi\n        /* \"ETH - Henry/contracts/Trabajo-Final-Mod-3/AuctionPlatform.sol\":4096:4108  auctionToken */\n      0x00\n      0x00\n      swap1\n      sload\n      swap1\n      0x0100\n      exp\n      swap1\n      div\n      0xffffffffffffffffffffffffffffffffffffffff\n      and\n        /* \"ETH - Henry/contracts/Trabajo-Final-Mod-3/AuctionPlatform.sol\":4096:4117  auctionToken.transfer */\n      0xffffffffffffffffffffffffffffffffffffffff\n      and\n      0xa9059cbb\n        /* \"ETH - Henry/contracts/Trabajo-Final-Mod-3/AuctionPlatform.sol\":4118:4125  auction */\n      dup3\n        /* \"ETH - Henry/contracts/Trabajo-Final-Mod-3/AuctionPlatform.sol\":4118:4139  auction.highestBidder */\n      0x01\n      add\n      0x00\n      swap1\n      sload\n      swap1\n      0x0100\n      exp\n      swap1\n      div\n      0xffffffffffffffffffffffffffffffffffffffff\n      and\n        /* \"ETH - Henry/contracts/Trabajo-Final-Mod-3/AuctionPlatform.sol\":4141:4148  auction */\n      dup4\n        /* \"ETH - Henry/contracts/Trabajo-Final-Mod-3/AuctionPlatform.sol\":4141:4159  auction.highestBid */\n      0x02\n      add\n      sload\n        /* \"ETH - Henry/contracts/Trabajo-Final-Mod-3/AuctionPlatform.sol\":4096:4160  auctionToken.transfer(auction.highestBidder, auction.highestBid) */\n      mload(0x40)\n      dup4\n      0xffffffff\n      and\n      0xe0\n      shl\n      dup2\n      mstore\n      0x04\n      add\n      tag_68\n      swap3\n      swap2\n      swap1\n      tag_69\n      jump\t// in\n    tag_68:\n      0x20\n      mload(0x40)\n      dup1\n      dup4\n      sub\n      dup2\n      0x00\n      dup8\n      gas\n      call\n      iszero\n      dup1\n      iszero\n      tag_71\n      jumpi\n      returndatacopy(0x00, 0x00, returndatasize)\n      revert(0x00, returndatasize)\n    tag_71:\n      pop\n      pop\n      pop\n      pop\n      mload(0x40)\n      returndatasize\n      not(0x1f)\n      0x1f\n      dup3\n      add\n      and\n      dup3\n      add\n      dup1\n      0x40\n      mstore\n      pop\n      dup2\n      add\n      swap1\n      tag_72\n      swap2\n      swap1\n      tag_66\n      jump\t// in\n    tag_72:\n      pop\n        /* \"ETH - Henry/contracts/Trabajo-Final-Mod-3/AuctionPlatform.sol\":4044:4168  if (auction.highestBidder != address(0)) {... */\n    tag_67:\n        /* \"ETH - Henry/contracts/Trabajo-Final-Mod-3/AuctionPlatform.sol\":4260:4269  bidAmount */\n      dup2\n        /* \"ETH - Henry/contracts/Trabajo-Final-Mod-3/AuctionPlatform.sol\":4239:4246  auction */\n      dup2\n        /* \"ETH - Henry/contracts/Trabajo-Final-Mod-3/AuctionPlatform.sol\":4239:4257  auction.highestBid */\n      0x02\n      add\n        /* \"ETH - Henry/contracts/Trabajo-Final-Mod-3/AuctionPlatform.sol\":4239:4269  auction.highestBid = bidAmount */\n      dup2\n      swap1\n      sstore\n      pop\n        /* \"ETH - Henry/contracts/Trabajo-Final-Mod-3/AuctionPlatform.sol\":4300:4310  msg.sender */\n      caller\n        /* \"ETH - Henry/contracts/Trabajo-Final-Mod-3/AuctionPlatform.sol\":4276:4283  auction */\n      dup2\n        /* \"ETH - Henry/contracts/Trabajo-Final-Mod-3/AuctionPlatform.sol\":4276:4297  auction.highestBidder */\n      0x01\n      add\n      0x00\n        /* \"ETH - Henry/contracts/Trabajo-Final-Mod-3/AuctionPlatform.sol\":4276:4310  auction.highestBidder = msg.sender */\n      0x0100\n      exp\n      dup2\n      sload\n      dup2\n      0xffffffffffffffffffffffffffffffffffffffff\n      mul\n      not\n      and\n      swap1\n      dup4\n      0xffffffffffffffffffffffffffffffffffffffff\n      and\n      mul\n      or\n      swap1\n      sstore\n      pop\n        /* \"ETH - Henry/contracts/Trabajo-Final-Mod-3/AuctionPlatform.sol\":4387:4396  auctionId */\n      dup3\n        /* \"ETH - Henry/contracts/Trabajo-Final-Mod-3/AuctionPlatform.sol\":4380:4420  NewBid(auctionId, msg.sender, bidAmount) */\n      0x558a0d5d5468d74b0db24c74eb348b42271c2ebb4c9e953ced38aaed95fa4361\n        /* \"ETH - Henry/contracts/Trabajo-Final-Mod-3/AuctionPlatform.sol\":4398:4408  msg.sender */\n      caller\n        /* \"ETH - Henry/contracts/Trabajo-Final-Mod-3/AuctionPlatform.sol\":4410:4419  bidAmount */\n      dup5\n        /* \"ETH - Henry/contracts/Trabajo-Final-Mod-3/AuctionPlatform.sol\":4380:4420  NewBid(auctionId, msg.sender, bidAmount) */\n      mload(0x40)\n      tag_73\n      swap3\n      swap2\n      swap1\n      tag_69\n      jump\t// in\n    tag_73:\n      mload(0x40)\n      dup1\n      swap2\n      sub\n      swap1\n      log2\n        /* \"ETH - Henry/contracts/Trabajo-Final-Mod-3/AuctionPlatform.sol\":3380:4424  {... */\n      pop\n        /* \"ETH - Henry/contracts/Trabajo-Final-Mod-3/AuctionPlatform.sol\":3315:4424  function placeBid(uint256 auctionId, uint256 bidAmount) external {... */\n      pop\n      pop\n      jump\t// out\n        /* \"ETH - Henry/contracts/Trabajo-Final-Mod-3/AuctionPlatform.sol\":1082:1108  IERC20 public auctionToken */\n    tag_29:\n      0x00\n      0x00\n      swap1\n      sload\n      swap1\n      0x0100\n      exp\n      swap1\n      div\n      0xffffffffffffffffffffffffffffffffffffffff\n      and\n      dup2\n      jump\t// out\n        /* \"ETH - Henry/contracts/Trabajo-Final-Mod-3/AuctionPlatform.sol\":4477:5664  function endAuction(uint256 auctionId) external {... */\n    tag_34:\n        /* \"ETH - Henry/contracts/Trabajo-Final-Mod-3/AuctionPlatform.sol\":4532:4555  Auction storage auction */\n      0x00\n        /* \"ETH - Henry/contracts/Trabajo-Final-Mod-3/AuctionPlatform.sol\":4558:4566  auctions */\n      0x03\n        /* \"ETH - Henry/contracts/Trabajo-Final-Mod-3/AuctionPlatform.sol\":4558:4577  auctions[auctionId] */\n      0x00\n        /* \"ETH - Henry/contracts/Trabajo-Final-Mod-3/AuctionPlatform.sol\":4567:4576  auctionId */\n      dup4\n        /* \"ETH - Henry/contracts/Trabajo-Final-Mod-3/AuctionPlatform.sol\":4558:4577  auctions[auctionId] */\n      dup2\n      mstore\n      0x20\n      add\n      swap1\n      dup2\n      mstore\n      0x20\n      add\n      0x00\n      keccak256\n        /* \"ETH - Henry/contracts/Trabajo-Final-Mod-3/AuctionPlatform.sol\":4532:4577  Auction storage auction = auctions[auctionId] */\n      swap1\n      pop\n        /* \"ETH - Henry/contracts/Trabajo-Final-Mod-3/AuctionPlatform.sol\":4656:4663  auction */\n      dup1\n        /* \"ETH - Henry/contracts/Trabajo-Final-Mod-3/AuctionPlatform.sol\":4656:4671  auction.endTime */\n      0x04\n      add\n      sload\n        /* \"ETH - Henry/contracts/Trabajo-Final-Mod-3/AuctionPlatform.sol\":4637:4652  block.timestamp */\n      timestamp\n        /* \"ETH - Henry/contracts/Trabajo-Final-Mod-3/AuctionPlatform.sol\":4637:4671  block.timestamp >= auction.endTime */\n      lt\n      iszero\n        /* \"ETH - Henry/contracts/Trabajo-Final-Mod-3/AuctionPlatform.sol\":4629:4701  require(block.timestamp >= auction.endTime, \"Auction has not ended yet\") */\n      tag_75\n      jumpi\n      mload(0x40)\n      0x08c379a000000000000000000000000000000000000000000000000000000000\n      dup2\n      mstore\n      0x04\n      add\n      tag_76\n      swap1\n      tag_77\n      jump\t// in\n    tag_76:\n      mload(0x40)\n      dup1\n      swap2\n      sub\n      swap1\n      revert\n    tag_75:\n        /* \"ETH - Henry/contracts/Trabajo-Final-Mod-3/AuctionPlatform.sol\":4760:4767  auction */\n      dup1\n        /* \"ETH - Henry/contracts/Trabajo-Final-Mod-3/AuctionPlatform.sol\":4760:4774  auction.active */\n      0x05\n      add\n      0x00\n      swap1\n      sload\n      swap1\n      0x0100\n      exp\n      swap1\n      div\n      0xff\n      and\n        /* \"ETH - Henry/contracts/Trabajo-Final-Mod-3/AuctionPlatform.sol\":4752:4800  require(auction.active, \"Auction is not active\") */\n      tag_78\n      jumpi\n      mload(0x40)\n      0x08c379a000000000000000000000000000000000000000000000000000000000\n      dup2\n      mstore\n      0x04\n      add\n      tag_79\n      swap1\n      tag_58\n      jump\t// in\n    tag_79:\n      mload(0x40)\n      dup1\n      swap2\n      sub\n      swap1\n      revert\n    tag_78:\n        /* \"ETH - Henry/contracts/Trabajo-Final-Mod-3/AuctionPlatform.sol\":4867:4872  false */\n      0x00\n        /* \"ETH - Henry/contracts/Trabajo-Final-Mod-3/AuctionPlatform.sol\":4850:4857  auction */\n      dup2\n        /* \"ETH - Henry/contracts/Trabajo-Final-Mod-3/AuctionPlatform.sol\":4850:4864  auction.active */\n      0x05\n      add\n      0x00\n        /* \"ETH - Henry/contracts/Trabajo-Final-Mod-3/AuctionPlatform.sol\":4850:4872  auction.active = false */\n      0x0100\n      exp\n      dup2\n      sload\n      dup2\n      0xff\n      mul\n      not\n      and\n      swap1\n      dup4\n      iszero\n      iszero\n      mul\n      or\n      swap1\n      sstore\n      pop\n        /* \"ETH - Henry/contracts/Trabajo-Final-Mod-3/AuctionPlatform.sol\":4953:4954  0 */\n      0x00\n        /* \"ETH - Henry/contracts/Trabajo-Final-Mod-3/AuctionPlatform.sol\":4920:4955  auction.highestBidder != address(0) */\n      0xffffffffffffffffffffffffffffffffffffffff\n      and\n        /* \"ETH - Henry/contracts/Trabajo-Final-Mod-3/AuctionPlatform.sol\":4920:4927  auction */\n      dup2\n        /* \"ETH - Henry/contracts/Trabajo-Final-Mod-3/AuctionPlatform.sol\":4920:4941  auction.highestBidder */\n      0x01\n      add\n      0x00\n      swap1\n      sload\n      swap1\n      0x0100\n      exp\n      swap1\n      div\n      0xffffffffffffffffffffffffffffffffffffffff\n      and\n        /* \"ETH - Henry/contracts/Trabajo-Final-Mod-3/AuctionPlatform.sol\":4920:4955  auction.highestBidder != address(0) */\n      0xffffffffffffffffffffffffffffffffffffffff\n      and\n      eq\n        /* \"ETH - Henry/contracts/Trabajo-Final-Mod-3/AuctionPlatform.sol\":4916:5661  if (auction.highestBidder != address(0)) {... */\n      tag_80\n      jumpi\n        /* \"ETH - Henry/contracts/Trabajo-Final-Mod-3/AuctionPlatform.sol\":5009:5019  auctionNFT */\n      0x01\n      0x00\n      swap1\n      sload\n      swap1\n      0x0100\n      exp\n      swap1\n      div\n      0xffffffffffffffffffffffffffffffffffffffff\n      and\n        /* \"ETH - Henry/contracts/Trabajo-Final-Mod-3/AuctionPlatform.sol\":5009:5032  auctionNFT.transferFrom */\n      0xffffffffffffffffffffffffffffffffffffffff\n      and\n      0x23b872dd\n        /* \"ETH - Henry/contracts/Trabajo-Final-Mod-3/AuctionPlatform.sol\":5041:5045  this */\n      address\n        /* \"ETH - Henry/contracts/Trabajo-Final-Mod-3/AuctionPlatform.sol\":5048:5055  auction */\n      dup4\n        /* \"ETH - Henry/contracts/Trabajo-Final-Mod-3/AuctionPlatform.sol\":5048:5069  auction.highestBidder */\n      0x01\n      add\n      0x00\n      swap1\n      sload\n      swap1\n      0x0100\n      exp\n      swap1\n      div\n      0xffffffffffffffffffffffffffffffffffffffff\n      and\n        /* \"ETH - Henry/contracts/Trabajo-Final-Mod-3/AuctionPlatform.sol\":5071:5078  auction */\n      dup5\n        /* \"ETH - Henry/contracts/Trabajo-Final-Mod-3/AuctionPlatform.sol\":5071:5086  auction.tokenId */\n      0x03\n      add\n      sload\n        /* \"ETH - Henry/contracts/Trabajo-Final-Mod-3/AuctionPlatform.sol\":5009:5087  auctionNFT.transferFrom(address(this), auction.highestBidder, auction.tokenId) */\n      mload(0x40)\n      dup5\n      0xffffffff\n      and\n      0xe0\n      shl\n      dup2\n      mstore\n      0x04\n      add\n      tag_81\n      swap4\n      swap3\n      swap2\n      swap1\n      tag_41\n      jump\t// in\n    tag_81:\n      0x00\n      mload(0x40)\n      dup1\n      dup4\n      sub\n      dup2\n      0x00\n      dup8\n      dup1\n      extcodesize\n      iszero\n      dup1\n      iszero\n      tag_82\n      jumpi\n      revert(0x00, 0x00)\n    tag_82:\n      pop\n      gas\n      call\n      iszero\n      dup1\n      iszero\n      tag_84\n      jumpi\n      returndatacopy(0x00, 0x00, returndatasize)\n      revert(0x00, returndatasize)\n    tag_84:\n      pop\n      pop\n      pop\n      pop\n        /* \"ETH - Henry/contracts/Trabajo-Final-Mod-3/AuctionPlatform.sol\":5153:5165  auctionToken */\n      0x00\n      0x00\n      swap1\n      sload\n      swap1\n      0x0100\n      exp\n      swap1\n      div\n      0xffffffffffffffffffffffffffffffffffffffff\n      and\n        /* \"ETH - Henry/contracts/Trabajo-Final-Mod-3/AuctionPlatform.sol\":5153:5174  auctionToken.transfer */\n      0xffffffffffffffffffffffffffffffffffffffff\n      and\n      0xa9059cbb\n        /* \"ETH - Henry/contracts/Trabajo-Final-Mod-3/AuctionPlatform.sol\":5175:5182  auction */\n      dup3\n        /* \"ETH - Henry/contracts/Trabajo-Final-Mod-3/AuctionPlatform.sol\":5175:5189  auction.seller */\n      0x00\n      add\n      0x00\n      swap1\n      sload\n      swap1\n      0x0100\n      exp\n      swap1\n      div\n      0xffffffffffffffffffffffffffffffffffffffff\n      and\n        /* \"ETH - Henry/contracts/Trabajo-Final-Mod-3/AuctionPlatform.sol\":5191:5198  auction */\n      dup4\n        /* \"ETH - Henry/contracts/Trabajo-Final-Mod-3/AuctionPlatform.sol\":5191:5209  auction.highestBid */\n      0x02\n      add\n      sload\n        /* \"ETH - Henry/contracts/Trabajo-Final-Mod-3/AuctionPlatform.sol\":5153:5210  auctionToken.transfer(auction.seller, auction.highestBid) */\n      mload(0x40)\n      dup4\n      0xffffffff\n      and\n      0xe0\n      shl\n      dup2\n      mstore\n      0x04\n      add\n      tag_85\n      swap3\n      swap2\n      swap1\n      tag_69\n      jump\t// in\n    tag_85:\n      0x20\n      mload(0x40)\n      dup1\n      dup4\n      sub\n      dup2\n      0x00\n      dup8\n      gas\n      call\n      iszero\n      dup1\n      iszero\n      tag_87\n      jumpi\n      returndatacopy(0x00, 0x00, returndatasize)\n      revert(0x00, returndatasize)\n    tag_87:\n      pop\n      pop\n      pop\n      pop\n      mload(0x40)\n      returndatasize\n      not(0x1f)\n      0x1f\n      dup3\n      add\n      and\n      dup3\n      add\n      dup1\n      0x40\n      mstore\n      pop\n      dup2\n      add\n      swap1\n      tag_88\n      swap2\n      swap1\n      tag_66\n      jump\t// in\n    tag_88:\n      pop\n        /* \"ETH - Henry/contracts/Trabajo-Final-Mod-3/AuctionPlatform.sol\":5315:5324  auctionId */\n      dup2\n        /* \"ETH - Henry/contracts/Trabajo-Final-Mod-3/AuctionPlatform.sol\":5302:5368  AuctionEnded(auctionId, auction.highestBidder, auction.highestBid) */\n      0xd2aa34a4fdbbc6dff6a3e56f46e0f3ae2a31d7785ff3487aa5c95c642acea501\n        /* \"ETH - Henry/contracts/Trabajo-Final-Mod-3/AuctionPlatform.sol\":5326:5333  auction */\n      dup3\n        /* \"ETH - Henry/contracts/Trabajo-Final-Mod-3/AuctionPlatform.sol\":5326:5347  auction.highestBidder */\n      0x01\n      add\n      0x00\n      swap1\n      sload\n      swap1\n      0x0100\n      exp\n      swap1\n      div\n      0xffffffffffffffffffffffffffffffffffffffff\n      and\n        /* \"ETH - Henry/contracts/Trabajo-Final-Mod-3/AuctionPlatform.sol\":5349:5356  auction */\n      dup4\n        /* \"ETH - Henry/contracts/Trabajo-Final-Mod-3/AuctionPlatform.sol\":5349:5367  auction.highestBid */\n      0x02\n      add\n      sload\n        /* \"ETH - Henry/contracts/Trabajo-Final-Mod-3/AuctionPlatform.sol\":5302:5368  AuctionEnded(auctionId, auction.highestBidder, auction.highestBid) */\n      mload(0x40)\n      tag_89\n      swap3\n      swap2\n      swap1\n      tag_69\n      jump\t// in\n    tag_89:\n      mload(0x40)\n      dup1\n      swap2\n      sub\n      swap1\n      log2\n        /* \"ETH - Henry/contracts/Trabajo-Final-Mod-3/AuctionPlatform.sol\":4916:5661  if (auction.highestBidder != address(0)) {... */\n      jump(tag_90)\n    tag_80:\n        /* \"ETH - Henry/contracts/Trabajo-Final-Mod-3/AuctionPlatform.sol\":5452:5462  auctionNFT */\n      0x01\n      0x00\n      swap1\n      sload\n      swap1\n      0x0100\n      exp\n      swap1\n      div\n      0xffffffffffffffffffffffffffffffffffffffff\n      and\n        /* \"ETH - Henry/contracts/Trabajo-Final-Mod-3/AuctionPlatform.sol\":5452:5475  auctionNFT.transferFrom */\n      0xffffffffffffffffffffffffffffffffffffffff\n      and\n      0x23b872dd\n        /* \"ETH - Henry/contracts/Trabajo-Final-Mod-3/AuctionPlatform.sol\":5484:5488  this */\n      address\n        /* \"ETH - Henry/contracts/Trabajo-Final-Mod-3/AuctionPlatform.sol\":5491:5498  auction */\n      dup4\n        /* \"ETH - Henry/contracts/Trabajo-Final-Mod-3/AuctionPlatform.sol\":5491:5505  auction.seller */\n      0x00\n      add\n      0x00\n      swap1\n      sload\n      swap1\n      0x0100\n      exp\n      swap1\n      div\n      0xffffffffffffffffffffffffffffffffffffffff\n      and\n        /* \"ETH - Henry/contracts/Trabajo-Final-Mod-3/AuctionPlatform.sol\":5507:5514  auction */\n      dup5\n        /* \"ETH - Henry/contracts/Trabajo-Final-Mod-3/AuctionPlatform.sol\":5507:5522  auction.tokenId */\n      0x03\n      add\n      sload\n        /* \"ETH - Henry/contracts/Trabajo-Final-Mod-3/AuctionPlatform.sol\":5452:5523  auctionNFT.transferFrom(address(this), auction.seller, auction.tokenId) */\n      mload(0x40)\n      dup5\n      0xffffffff\n      and\n      0xe0\n      shl\n      dup2\n      mstore\n      0x04\n      add\n      tag_91\n      swap4\n      swap3\n      swap2\n      swap1\n      tag_41\n      jump\t// in\n    tag_91:\n      0x00\n      mload(0x40)\n      dup1\n      dup4\n      sub\n      dup2\n      0x00\n      dup8\n      dup1\n      extcodesize\n      iszero\n      dup1\n      iszero\n      tag_92\n      jumpi\n      revert(0x00, 0x00)\n    tag_92:\n      pop\n      gas\n      call\n      iszero\n      dup1\n      iszero\n      tag_94\n      jumpi\n      returndatacopy(0x00, 0x00, returndatasize)\n      revert(0x00, returndatasize)\n    tag_94:\n      pop\n      pop\n      pop\n      pop\n        /* \"ETH - Henry/contracts/Trabajo-Final-Mod-3/AuctionPlatform.sol\":5628:5637  auctionId */\n      dup2\n        /* \"ETH - Henry/contracts/Trabajo-Final-Mod-3/AuctionPlatform.sol\":5615:5653  AuctionEnded(auctionId, address(0), 0) */\n      0xd2aa34a4fdbbc6dff6a3e56f46e0f3ae2a31d7785ff3487aa5c95c642acea501\n        /* \"ETH - Henry/contracts/Trabajo-Final-Mod-3/AuctionPlatform.sol\":5647:5648  0 */\n      0x00\n        /* \"ETH - Henry/contracts/Trabajo-Final-Mod-3/AuctionPlatform.sol\":5651:5652  0 */\n      0x00\n        /* \"ETH - Henry/contracts/Trabajo-Final-Mod-3/AuctionPlatform.sol\":5615:5653  AuctionEnded(auctionId, address(0), 0) */\n      mload(0x40)\n      tag_95\n      swap3\n      swap2\n      swap1\n      tag_96\n      jump\t// in\n    tag_95:\n      mload(0x40)\n      dup1\n      swap2\n      sub\n      swap1\n      log2\n        /* \"ETH - Henry/contracts/Trabajo-Final-Mod-3/AuctionPlatform.sol\":4916:5661  if (auction.highestBidder != address(0)) {... */\n    tag_90:\n        /* \"ETH - Henry/contracts/Trabajo-Final-Mod-3/AuctionPlatform.sol\":4525:5664  {... */\n      pop\n        /* \"ETH - Henry/contracts/Trabajo-Final-Mod-3/AuctionPlatform.sol\":4477:5664  function endAuction(uint256 auctionId) external {... */\n      pop\n      jump\t// out\n        /* \"ETH - Henry/contracts/Trabajo-Final-Mod-3/AuctionPlatform.sol\":1278:1309  uint256 public auctionIdCounter */\n    tag_36:\n      sload(0x02)\n      dup2\n      jump\t// out\n        /* \"#utility.yul\":88:205   */\n    tag_98:\n        /* \"#utility.yul\":197:198   */\n      0x00\n        /* \"#utility.yul\":194:195   */\n      0x00\n        /* \"#utility.yul\":187:199   */\n      revert\n        /* \"#utility.yul\":334:411   */\n    tag_100:\n        /* \"#utility.yul\":371:378   */\n      0x00\n        /* \"#utility.yul\":400:405   */\n      dup2\n        /* \"#utility.yul\":389:405   */\n      swap1\n      pop\n        /* \"#utility.yul\":334:411   */\n      swap2\n      swap1\n      pop\n      jump\t// out\n        /* \"#utility.yul\":417:539   */\n    tag_101:\n        /* \"#utility.yul\":490:514   */\n      tag_137\n        /* \"#utility.yul\":508:513   */\n      dup2\n        /* \"#utility.yul\":490:514   */\n      tag_100\n      jump\t// in\n    tag_137:\n        /* \"#utility.yul\":483:488   */\n      dup2\n        /* \"#utility.yul\":480:515   */\n      eq\n        /* \"#utility.yul\":470:533   */\n      tag_138\n      jumpi\n        /* \"#utility.yul\":529:530   */\n      0x00\n        /* \"#utility.yul\":526:527   */\n      0x00\n        /* \"#utility.yul\":519:531   */\n      revert\n        /* \"#utility.yul\":470:533   */\n    tag_138:\n        /* \"#utility.yul\":417:539   */\n      pop\n      jump\t// out\n        /* \"#utility.yul\":545:684   */\n    tag_102:\n        /* \"#utility.yul\":591:596   */\n      0x00\n        /* \"#utility.yul\":629:635   */\n      dup2\n        /* \"#utility.yul\":616:636   */\n      calldataload\n        /* \"#utility.yul\":607:636   */\n      swap1\n      pop\n        /* \"#utility.yul\":645:678   */\n      tag_140\n        /* \"#utility.yul\":672:677   */\n      dup2\n        /* \"#utility.yul\":645:678   */\n      tag_101\n      jump\t// in\n    tag_140:\n        /* \"#utility.yul\":545:684   */\n      swap3\n      swap2\n      pop\n      pop\n      jump\t// out\n        /* \"#utility.yul\":690:1164   */\n    tag_13:\n        /* \"#utility.yul\":758:764   */\n      0x00\n        /* \"#utility.yul\":766:772   */\n      0x00\n        /* \"#utility.yul\":815:817   */\n      0x40\n        /* \"#utility.yul\":803:812   */\n      dup4\n        /* \"#utility.yul\":794:801   */\n      dup6\n        /* \"#utility.yul\":790:813   */\n      sub\n        /* \"#utility.yul\":786:818   */\n      slt\n        /* \"#utility.yul\":783:902   */\n      iszero\n      tag_142\n      jumpi\n        /* \"#utility.yul\":821:900   */\n      tag_143\n      tag_98\n      jump\t// in\n    tag_143:\n        /* \"#utility.yul\":783:902   */\n    tag_142:\n        /* \"#utility.yul\":941:942   */\n      0x00\n        /* \"#utility.yul\":966:1019   */\n      tag_144\n        /* \"#utility.yul\":1011:1018   */\n      dup6\n        /* \"#utility.yul\":1002:1008   */\n      dup3\n        /* \"#utility.yul\":991:1000   */\n      dup7\n        /* \"#utility.yul\":987:1009   */\n      add\n        /* \"#utility.yul\":966:1019   */\n      tag_102\n      jump\t// in\n    tag_144:\n        /* \"#utility.yul\":956:1019   */\n      swap3\n      pop\n        /* \"#utility.yul\":912:1029   */\n      pop\n        /* \"#utility.yul\":1068:1070   */\n      0x20\n        /* \"#utility.yul\":1094:1147   */\n      tag_145\n        /* \"#utility.yul\":1139:1146   */\n      dup6\n        /* \"#utility.yul\":1130:1136   */\n      dup3\n        /* \"#utility.yul\":1119:1128   */\n      dup7\n        /* \"#utility.yul\":1115:1137   */\n      add\n        /* \"#utility.yul\":1094:1147   */\n      tag_102\n      jump\t// in\n    tag_145:\n        /* \"#utility.yul\":1084:1147   */\n      swap2\n      pop\n        /* \"#utility.yul\":1039:1157   */\n      pop\n        /* \"#utility.yul\":690:1164   */\n      swap3\n      pop\n      swap3\n      swap1\n      pop\n      jump\t// out\n        /* \"#utility.yul\":1170:1296   */\n    tag_103:\n        /* \"#utility.yul\":1207:1214   */\n      0x00\n        /* \"#utility.yul\":1247:1289   */\n      0xffffffffffffffffffffffffffffffffffffffff\n        /* \"#utility.yul\":1240:1245   */\n      dup3\n        /* \"#utility.yul\":1236:1290   */\n      and\n        /* \"#utility.yul\":1225:1290   */\n      swap1\n      pop\n        /* \"#utility.yul\":1170:1296   */\n      swap2\n      swap1\n      pop\n      jump\t// out\n        /* \"#utility.yul\":1302:1362   */\n    tag_104:\n        /* \"#utility.yul\":1330:1333   */\n      0x00\n        /* \"#utility.yul\":1351:1356   */\n      dup2\n        /* \"#utility.yul\":1344:1356   */\n      swap1\n      pop\n        /* \"#utility.yul\":1302:1362   */\n      swap2\n      swap1\n      pop\n      jump\t// out\n        /* \"#utility.yul\":1368:1510   */\n    tag_105:\n        /* \"#utility.yul\":1418:1427   */\n      0x00\n        /* \"#utility.yul\":1451:1504   */\n      tag_149\n        /* \"#utility.yul\":1469:1503   */\n      tag_150\n        /* \"#utility.yul\":1478:1502   */\n      tag_151\n        /* \"#utility.yul\":1496:1501   */\n      dup5\n        /* \"#utility.yul\":1478:1502   */\n      tag_103\n      jump\t// in\n    tag_151:\n        /* \"#utility.yul\":1469:1503   */\n      tag_104\n      jump\t// in\n    tag_150:\n        /* \"#utility.yul\":1451:1504   */\n      tag_103\n      jump\t// in\n    tag_149:\n        /* \"#utility.yul\":1438:1504   */\n      swap1\n      pop\n        /* \"#utility.yul\":1368:1510   */\n      swap2\n      swap1\n      pop\n      jump\t// out\n        /* \"#utility.yul\":1516:1642   */\n    tag_106:\n        /* \"#utility.yul\":1566:1575   */\n      0x00\n        /* \"#utility.yul\":1599:1636   */\n      tag_153\n        /* \"#utility.yul\":1630:1635   */\n      dup3\n        /* \"#utility.yul\":1599:1636   */\n      tag_105\n      jump\t// in\n    tag_153:\n        /* \"#utility.yul\":1586:1636   */\n      swap1\n      pop\n        /* \"#utility.yul\":1516:1642   */\n      swap2\n      swap1\n      pop\n      jump\t// out\n        /* \"#utility.yul\":1648:1789   */\n    tag_107:\n        /* \"#utility.yul\":1713:1722   */\n      0x00\n        /* \"#utility.yul\":1746:1783   */\n      tag_155\n        /* \"#utility.yul\":1777:1782   */\n      dup3\n        /* \"#utility.yul\":1746:1783   */\n      tag_106\n      jump\t// in\n    tag_155:\n        /* \"#utility.yul\":1733:1783   */\n      swap1\n      pop\n        /* \"#utility.yul\":1648:1789   */\n      swap2\n      swap1\n      pop\n      jump\t// out\n        /* \"#utility.yul\":1795:1956   */\n    tag_108:\n        /* \"#utility.yul\":1897:1949   */\n      tag_157\n        /* \"#utility.yul\":1943:1948   */\n      dup2\n        /* \"#utility.yul\":1897:1949   */\n      tag_107\n      jump\t// in\n    tag_157:\n        /* \"#utility.yul\":1892:1895   */\n      dup3\n        /* \"#utility.yul\":1885:1950   */\n      mstore\n        /* \"#utility.yul\":1795:1956   */\n      pop\n      pop\n      jump\t// out\n        /* \"#utility.yul\":1962:2214   */\n    tag_18:\n        /* \"#utility.yul\":2070:2074   */\n      0x00\n        /* \"#utility.yul\":2108:2110   */\n      0x20\n        /* \"#utility.yul\":2097:2106   */\n      dup3\n        /* \"#utility.yul\":2093:2111   */\n      add\n        /* \"#utility.yul\":2085:2111   */\n      swap1\n      pop\n        /* \"#utility.yul\":2121:2207   */\n      tag_159\n        /* \"#utility.yul\":2204:2205   */\n      0x00\n        /* \"#utility.yul\":2193:2202   */\n      dup4\n        /* \"#utility.yul\":2189:2206   */\n      add\n        /* \"#utility.yul\":2180:2186   */\n      dup5\n        /* \"#utility.yul\":2121:2207   */\n      tag_108\n      jump\t// in\n    tag_159:\n        /* \"#utility.yul\":1962:2214   */\n      swap3\n      swap2\n      pop\n      pop\n      jump\t// out\n        /* \"#utility.yul\":2220:2549   */\n    tag_21:\n        /* \"#utility.yul\":2279:2285   */\n      0x00\n        /* \"#utility.yul\":2328:2330   */\n      0x20\n        /* \"#utility.yul\":2316:2325   */\n      dup3\n        /* \"#utility.yul\":2307:2314   */\n      dup5\n        /* \"#utility.yul\":2303:2326   */\n      sub\n        /* \"#utility.yul\":2299:2331   */\n      slt\n        /* \"#utility.yul\":2296:2415   */\n      iszero\n      tag_161\n      jumpi\n        /* \"#utility.yul\":2334:2413   */\n      tag_162\n      tag_98\n      jump\t// in\n    tag_162:\n        /* \"#utility.yul\":2296:2415   */\n    tag_161:\n        /* \"#utility.yul\":2454:2455   */\n      0x00\n        /* \"#utility.yul\":2479:2532   */\n      tag_163\n        /* \"#utility.yul\":2524:2531   */\n      dup5\n        /* \"#utility.yul\":2515:2521   */\n      dup3\n        /* \"#utility.yul\":2504:2513   */\n      dup6\n        /* \"#utility.yul\":2500:2522   */\n      add\n        /* \"#utility.yul\":2479:2532   */\n      tag_102\n      jump\t// in\n    tag_163:\n        /* \"#utility.yul\":2469:2532   */\n      swap2\n      pop\n        /* \"#utility.yul\":2425:2542   */\n      pop\n        /* \"#utility.yul\":2220:2549   */\n      swap3\n      swap2\n      pop\n      pop\n      jump\t// out\n        /* \"#utility.yul\":2555:2651   */\n    tag_109:\n        /* \"#utility.yul\":2592:2599   */\n      0x00\n        /* \"#utility.yul\":2621:2645   */\n      tag_165\n        /* \"#utility.yul\":2639:2644   */\n      dup3\n        /* \"#utility.yul\":2621:2645   */\n      tag_103\n      jump\t// in\n    tag_165:\n        /* \"#utility.yul\":2610:2645   */\n      swap1\n      pop\n        /* \"#utility.yul\":2555:2651   */\n      swap2\n      swap1\n      pop\n      jump\t// out\n        /* \"#utility.yul\":2657:2775   */\n    tag_110:\n        /* \"#utility.yul\":2744:2768   */\n      tag_167\n        /* \"#utility.yul\":2762:2767   */\n      dup2\n        /* \"#utility.yul\":2744:2768   */\n      tag_109\n      jump\t// in\n    tag_167:\n        /* \"#utility.yul\":2739:2742   */\n      dup3\n        /* \"#utility.yul\":2732:2769   */\n      mstore\n        /* \"#utility.yul\":2657:2775   */\n      pop\n      pop\n      jump\t// out\n        /* \"#utility.yul\":2781:2899   */\n    tag_111:\n        /* \"#utility.yul\":2868:2892   */\n      tag_169\n        /* \"#utility.yul\":2886:2891   */\n      dup2\n        /* \"#utility.yul\":2868:2892   */\n      tag_100\n      jump\t// in\n    tag_169:\n        /* \"#utility.yul\":2863:2866   */\n      dup3\n        /* \"#utility.yul\":2856:2893   */\n      mstore\n        /* \"#utility.yul\":2781:2899   */\n      pop\n      pop\n      jump\t// out\n        /* \"#utility.yul\":2905:2995   */\n    tag_112:\n        /* \"#utility.yul\":2939:2946   */\n      0x00\n        /* \"#utility.yul\":2982:2987   */\n      dup2\n        /* \"#utility.yul\":2975:2988   */\n      iszero\n        /* \"#utility.yul\":2968:2989   */\n      iszero\n        /* \"#utility.yul\":2957:2989   */\n      swap1\n      pop\n        /* \"#utility.yul\":2905:2995   */\n      swap2\n      swap1\n      pop\n      jump\t// out\n        /* \"#utility.yul\":3001:3110   */\n    tag_113:\n        /* \"#utility.yul\":3082:3103   */\n      tag_172\n        /* \"#utility.yul\":3097:3102   */\n      dup2\n        /* \"#utility.yul\":3082:3103   */\n      tag_112\n      jump\t// in\n    tag_172:\n        /* \"#utility.yul\":3077:3080   */\n      dup3\n        /* \"#utility.yul\":3070:3104   */\n      mstore\n        /* \"#utility.yul\":3001:3110   */\n      pop\n      pop\n      jump\t// out\n        /* \"#utility.yul\":3116:3879   */\n    tag_24:\n        /* \"#utility.yul\":3343:3347   */\n      0x00\n        /* \"#utility.yul\":3381:3384   */\n      0xc0\n        /* \"#utility.yul\":3370:3379   */\n      dup3\n        /* \"#utility.yul\":3366:3385   */\n      add\n        /* \"#utility.yul\":3358:3385   */\n      swap1\n      pop\n        /* \"#utility.yul\":3395:3466   */\n      tag_174\n        /* \"#utility.yul\":3463:3464   */\n      0x00\n        /* \"#utility.yul\":3452:3461   */\n      dup4\n        /* \"#utility.yul\":3448:3465   */\n      add\n        /* \"#utility.yul\":3439:3445   */\n      dup10\n        /* \"#utility.yul\":3395:3466   */\n      tag_110\n      jump\t// in\n    tag_174:\n        /* \"#utility.yul\":3476:3548   */\n      tag_175\n        /* \"#utility.yul\":3544:3546   */\n      0x20\n        /* \"#utility.yul\":3533:3542   */\n      dup4\n        /* \"#utility.yul\":3529:3547   */\n      add\n        /* \"#utility.yul\":3520:3526   */\n      dup9\n        /* \"#utility.yul\":3476:3548   */\n      tag_110\n      jump\t// in\n    tag_175:\n        /* \"#utility.yul\":3558:3630   */\n      tag_176\n        /* \"#utility.yul\":3626:3628   */\n      0x40\n        /* \"#utility.yul\":3615:3624   */\n      dup4\n        /* \"#utility.yul\":3611:3629   */\n      add\n        /* \"#utility.yul\":3602:3608   */\n      dup8\n        /* \"#utility.yul\":3558:3630   */\n      tag_111\n      jump\t// in\n    tag_176:\n        /* \"#utility.yul\":3640:3712   */\n      tag_177\n        /* \"#utility.yul\":3708:3710   */\n      0x60\n        /* \"#utility.yul\":3697:3706   */\n      dup4\n        /* \"#utility.yul\":3693:3711   */\n      add\n        /* \"#utility.yul\":3684:3690   */\n      dup7\n        /* \"#utility.yul\":3640:3712   */\n      tag_111\n      jump\t// in\n    tag_177:\n        /* \"#utility.yul\":3722:3795   */\n      tag_178\n        /* \"#utility.yul\":3790:3793   */\n      0x80\n        /* \"#utility.yul\":3779:3788   */\n      dup4\n        /* \"#utility.yul\":3775:3794   */\n      add\n        /* \"#utility.yul\":3766:3772   */\n      dup6\n        /* \"#utility.yul\":3722:3795   */\n      tag_111\n      jump\t// in\n    tag_178:\n        /* \"#utility.yul\":3805:3872   */\n      tag_179\n        /* \"#utility.yul\":3867:3870   */\n      0xa0\n        /* \"#utility.yul\":3856:3865   */\n      dup4\n        /* \"#utility.yul\":3852:3871   */\n      add\n        /* \"#utility.yul\":3843:3849   */\n      dup5\n        /* \"#utility.yul\":3805:3872   */\n      tag_113\n      jump\t// in\n    tag_179:\n        /* \"#utility.yul\":3116:3879   */\n      swap8\n      swap7\n      pop\n      pop\n      pop\n      pop\n      pop\n      pop\n      pop\n      jump\t// out\n        /* \"#utility.yul\":3885:4024   */\n    tag_114:\n        /* \"#utility.yul\":3948:3957   */\n      0x00\n        /* \"#utility.yul\":3981:4018   */\n      tag_181\n        /* \"#utility.yul\":4012:4017   */\n      dup3\n        /* \"#utility.yul\":3981:4018   */\n      tag_106\n      jump\t// in\n    tag_181:\n        /* \"#utility.yul\":3968:4018   */\n      swap1\n      pop\n        /* \"#utility.yul\":3885:4024   */\n      swap2\n      swap1\n      pop\n      jump\t// out\n        /* \"#utility.yul\":4030:4187   */\n    tag_115:\n        /* \"#utility.yul\":4130:4180   */\n      tag_183\n        /* \"#utility.yul\":4174:4179   */\n      dup2\n        /* \"#utility.yul\":4130:4180   */\n      tag_114\n      jump\t// in\n    tag_183:\n        /* \"#utility.yul\":4125:4128   */\n      dup3\n        /* \"#utility.yul\":4118:4181   */\n      mstore\n        /* \"#utility.yul\":4030:4187   */\n      pop\n      pop\n      jump\t// out\n        /* \"#utility.yul\":4193:4441   */\n    tag_31:\n        /* \"#utility.yul\":4299:4303   */\n      0x00\n        /* \"#utility.yul\":4337:4339   */\n      0x20\n        /* \"#utility.yul\":4326:4335   */\n      dup3\n        /* \"#utility.yul\":4322:4340   */\n      add\n        /* \"#utility.yul\":4314:4340   */\n      swap1\n      pop\n        /* \"#utility.yul\":4350:4434   */\n      tag_185\n        /* \"#utility.yul\":4431:4432   */\n      0x00\n        /* \"#utility.yul\":4420:4429   */\n      dup4\n        /* \"#utility.yul\":4416:4433   */\n      add\n        /* \"#utility.yul\":4407:4413   */\n      dup5\n        /* \"#utility.yul\":4350:4434   */\n      tag_115\n      jump\t// in\n    tag_185:\n        /* \"#utility.yul\":4193:4441   */\n      swap3\n      swap2\n      pop\n      pop\n      jump\t// out\n        /* \"#utility.yul\":4447:4669   */\n    tag_38:\n        /* \"#utility.yul\":4540:4544   */\n      0x00\n        /* \"#utility.yul\":4578:4580   */\n      0x20\n        /* \"#utility.yul\":4567:4576   */\n      dup3\n        /* \"#utility.yul\":4563:4581   */\n      add\n        /* \"#utility.yul\":4555:4581   */\n      swap1\n      pop\n        /* \"#utility.yul\":4591:4662   */\n      tag_187\n        /* \"#utility.yul\":4659:4660   */\n      0x00\n        /* \"#utility.yul\":4648:4657   */\n      dup4\n        /* \"#utility.yul\":4644:4661   */\n      add\n        /* \"#utility.yul\":4635:4641   */\n      dup5\n        /* \"#utility.yul\":4591:4662   */\n      tag_111\n      jump\t// in\n    tag_187:\n        /* \"#utility.yul\":4447:4669   */\n      swap3\n      swap2\n      pop\n      pop\n      jump\t// out\n        /* \"#utility.yul\":4675:5117   */\n    tag_41:\n        /* \"#utility.yul\":4824:4828   */\n      0x00\n        /* \"#utility.yul\":4862:4864   */\n      0x60\n        /* \"#utility.yul\":4851:4860   */\n      dup3\n        /* \"#utility.yul\":4847:4865   */\n      add\n        /* \"#utility.yul\":4839:4865   */\n      swap1\n      pop\n        /* \"#utility.yul\":4875:4946   */\n      tag_189\n        /* \"#utility.yul\":4943:4944   */\n      0x00\n        /* \"#utility.yul\":4932:4941   */\n      dup4\n        /* \"#utility.yul\":4928:4945   */\n      add\n        /* \"#utility.yul\":4919:4925   */\n      dup7\n        /* \"#utility.yul\":4875:4946   */\n      tag_110\n      jump\t// in\n    tag_189:\n        /* \"#utility.yul\":4956:5028   */\n      tag_190\n        /* \"#utility.yul\":5024:5026   */\n      0x20\n        /* \"#utility.yul\":5013:5022   */\n      dup4\n        /* \"#utility.yul\":5009:5027   */\n      add\n        /* \"#utility.yul\":5000:5006   */\n      dup6\n        /* \"#utility.yul\":4956:5028   */\n      tag_110\n      jump\t// in\n    tag_190:\n        /* \"#utility.yul\":5038:5110   */\n      tag_191\n        /* \"#utility.yul\":5106:5108   */\n      0x40\n        /* \"#utility.yul\":5095:5104   */\n      dup4\n        /* \"#utility.yul\":5091:5109   */\n      add\n        /* \"#utility.yul\":5082:5088   */\n      dup5\n        /* \"#utility.yul\":5038:5110   */\n      tag_111\n      jump\t// in\n    tag_191:\n        /* \"#utility.yul\":4675:5117   */\n      swap5\n      swap4\n      pop\n      pop\n      pop\n      pop\n      jump\t// out\n        /* \"#utility.yul\":5123:5303   */\n    tag_116:\n        /* \"#utility.yul\":5171:5248   */\n      0x4e487b7100000000000000000000000000000000000000000000000000000000\n        /* \"#utility.yul\":5168:5169   */\n      0x00\n        /* \"#utility.yul\":5161:5249   */\n      mstore\n        /* \"#utility.yul\":5268:5272   */\n      0x11\n        /* \"#utility.yul\":5265:5266   */\n      0x04\n        /* \"#utility.yul\":5258:5273   */\n      mstore\n        /* \"#utility.yul\":5292:5296   */\n      0x24\n        /* \"#utility.yul\":5289:5290   */\n      0x00\n        /* \"#utility.yul\":5282:5297   */\n      revert\n        /* \"#utility.yul\":5309:5542   */\n    tag_46:\n        /* \"#utility.yul\":5348:5351   */\n      0x00\n        /* \"#utility.yul\":5371:5395   */\n      tag_194\n        /* \"#utility.yul\":5389:5394   */\n      dup3\n        /* \"#utility.yul\":5371:5395   */\n      tag_100\n      jump\t// in\n    tag_194:\n        /* \"#utility.yul\":5362:5395   */\n      swap2\n      pop\n        /* \"#utility.yul\":5417:5483   */\n      0xffffffffffffffffffffffffffffffffffffffffffffffffffffffffffffffff\n        /* \"#utility.yul\":5410:5415   */\n      dup3\n        /* \"#utility.yul\":5407:5484   */\n      sub\n        /* \"#utility.yul\":5404:5507   */\n      tag_195\n      jumpi\n        /* \"#utility.yul\":5487:5505   */\n      tag_196\n      tag_116\n      jump\t// in\n    tag_196:\n        /* \"#utility.yul\":5404:5507   */\n    tag_195:\n        /* \"#utility.yul\":5534:5535   */\n      0x01\n        /* \"#utility.yul\":5527:5532   */\n      dup3\n        /* \"#utility.yul\":5523:5536   */\n      add\n        /* \"#utility.yul\":5516:5536   */\n      swap1\n      pop\n        /* \"#utility.yul\":5309:5542   */\n      swap2\n      swap1\n      pop\n      jump\t// out\n        /* \"#utility.yul\":5548:5739   */\n    tag_48:\n        /* \"#utility.yul\":5588:5591   */\n      0x00\n        /* \"#utility.yul\":5607:5627   */\n      tag_198\n        /* \"#utility.yul\":5625:5626   */\n      dup3\n        /* \"#utility.yul\":5607:5627   */\n      tag_100\n      jump\t// in\n    tag_198:\n        /* \"#utility.yul\":5602:5627   */\n      swap2\n      pop\n        /* \"#utility.yul\":5641:5661   */\n      tag_199\n        /* \"#utility.yul\":5659:5660   */\n      dup4\n        /* \"#utility.yul\":5641:5661   */\n      tag_100\n      jump\t// in\n    tag_199:\n        /* \"#utility.yul\":5636:5661   */\n      swap3\n      pop\n        /* \"#utility.yul\":5684:5685   */\n      dup3\n        /* \"#utility.yul\":5681:5682   */\n      dup3\n        /* \"#utility.yul\":5677:5686   */\n      add\n        /* \"#utility.yul\":5670:5686   */\n      swap1\n      pop\n        /* \"#utility.yul\":5705:5708   */\n      dup1\n        /* \"#utility.yul\":5702:5703   */\n      dup3\n        /* \"#utility.yul\":5699:5709   */\n      gt\n        /* \"#utility.yul\":5696:5732   */\n      iszero\n      tag_200\n      jumpi\n        /* \"#utility.yul\":5712:5730   */\n      tag_201\n      tag_116\n      jump\t// in\n    tag_201:\n        /* \"#utility.yul\":5696:5732   */\n    tag_200:\n        /* \"#utility.yul\":5548:5739   */\n      swap3\n      swap2\n      pop\n      pop\n      jump\t// out\n        /* \"#utility.yul\":5745:6077   */\n    tag_51:\n        /* \"#utility.yul\":5866:5870   */\n      0x00\n        /* \"#utility.yul\":5904:5906   */\n      0x40\n        /* \"#utility.yul\":5893:5902   */\n      dup3\n        /* \"#utility.yul\":5889:5907   */\n      add\n        /* \"#utility.yul\":5881:5907   */\n      swap1\n      pop\n        /* \"#utility.yul\":5917:5988   */\n      tag_203\n        /* \"#utility.yul\":5985:5986   */\n      0x00\n        /* \"#utility.yul\":5974:5983   */\n      dup4\n        /* \"#utility.yul\":5970:5987   */\n      add\n        /* \"#utility.yul\":5961:5967   */\n      dup6\n        /* \"#utility.yul\":5917:5988   */\n      tag_111\n      jump\t// in\n    tag_203:\n        /* \"#utility.yul\":5998:6070   */\n      tag_204\n        /* \"#utility.yul\":6066:6068   */\n      0x20\n        /* \"#utility.yul\":6055:6064   */\n      dup4\n        /* \"#utility.yul\":6051:6069   */\n      add\n        /* \"#utility.yul\":6042:6048   */\n      dup5\n        /* \"#utility.yul\":5998:6070   */\n      tag_111\n      jump\t// in\n    tag_204:\n        /* \"#utility.yul\":5745:6077   */\n      swap4\n      swap3\n      pop\n      pop\n      pop\n      jump\t// out\n        /* \"#utility.yul\":6083:6252   */\n    tag_117:\n        /* \"#utility.yul\":6167:6178   */\n      0x00\n        /* \"#utility.yul\":6201:6207   */\n      dup3\n        /* \"#utility.yul\":6196:6199   */\n      dup3\n        /* \"#utility.yul\":6189:6208   */\n      mstore\n        /* \"#utility.yul\":6241:6245   */\n      0x20\n        /* \"#utility.yul\":6236:6239   */\n      dup3\n        /* \"#utility.yul\":6232:6246   */\n      add\n        /* \"#utility.yul\":6217:6246   */\n      swap1\n      pop\n        /* \"#utility.yul\":6083:6252   */\n      swap3\n      swap2\n      pop\n      pop\n      jump\t// out\n        /* \"#utility.yul\":6258:6425   */\n    tag_118:\n        /* \"#utility.yul\":6398:6417   */\n      0x41756374696f6e2068617320656e646564000000000000000000000000000000\n        /* \"#utility.yul\":6394:6395   */\n      0x00\n        /* \"#utility.yul\":6386:6392   */\n      dup3\n        /* \"#utility.yul\":6382:6396   */\n      add\n        /* \"#utility.yul\":6375:6418   */\n      mstore\n        /* \"#utility.yul\":6258:6425   */\n      pop\n      jump\t// out\n        /* \"#utility.yul\":6431:6797   */\n    tag_119:\n        /* \"#utility.yul\":6573:6576   */\n      0x00\n        /* \"#utility.yul\":6594:6661   */\n      tag_208\n        /* \"#utility.yul\":6658:6660   */\n      0x11\n        /* \"#utility.yul\":6653:6656   */\n      dup4\n        /* \"#utility.yul\":6594:6661   */\n      tag_117\n      jump\t// in\n    tag_208:\n        /* \"#utility.yul\":6587:6661   */\n      swap2\n      pop\n        /* \"#utility.yul\":6670:6763   */\n      tag_209\n        /* \"#utility.yul\":6759:6762   */\n      dup3\n        /* \"#utility.yul\":6670:6763   */\n      tag_118\n      jump\t// in\n    tag_209:\n        /* \"#utility.yul\":6788:6790   */\n      0x20\n        /* \"#utility.yul\":6783:6786   */\n      dup3\n        /* \"#utility.yul\":6779:6791   */\n      add\n        /* \"#utility.yul\":6772:6791   */\n      swap1\n      pop\n        /* \"#utility.yul\":6431:6797   */\n      swap2\n      swap1\n      pop\n      jump\t// out\n        /* \"#utility.yul\":6803:7222   */\n    tag_55:\n        /* \"#utility.yul\":6969:6973   */\n      0x00\n        /* \"#utility.yul\":7007:7009   */\n      0x20\n        /* \"#utility.yul\":6996:7005   */\n      dup3\n        /* \"#utility.yul\":6992:7010   */\n      add\n        /* \"#utility.yul\":6984:7010   */\n      swap1\n      pop\n        /* \"#utility.yul\":7056:7065   */\n      dup2\n        /* \"#utility.yul\":7050:7054   */\n      dup2\n        /* \"#utility.yul\":7046:7066   */\n      sub\n        /* \"#utility.yul\":7042:7043   */\n      0x00\n        /* \"#utility.yul\":7031:7040   */\n      dup4\n        /* \"#utility.yul\":7027:7044   */\n      add\n        /* \"#utility.yul\":7020:7067   */\n      mstore\n        /* \"#utility.yul\":7084:7215   */\n      tag_211\n        /* \"#utility.yul\":7210:7214   */\n      dup2\n        /* \"#utility.yul\":7084:7215   */\n      tag_119\n      jump\t// in\n    tag_211:\n        /* \"#utility.yul\":7076:7215   */\n      swap1\n      pop\n        /* \"#utility.yul\":6803:7222   */\n      swap2\n      swap1\n      pop\n      jump\t// out\n        /* \"#utility.yul\":7228:7399   */\n    tag_120:\n        /* \"#utility.yul\":7368:7391   */\n      0x41756374696f6e206973206e6f74206163746976650000000000000000000000\n        /* \"#utility.yul\":7364:7365   */\n      0x00\n        /* \"#utility.yul\":7356:7362   */\n      dup3\n        /* \"#utility.yul\":7352:7366   */\n      add\n        /* \"#utility.yul\":7345:7392   */\n      mstore\n        /* \"#utility.yul\":7228:7399   */\n      pop\n      jump\t// out\n        /* \"#utility.yul\":7405:7771   */\n    tag_121:\n        /* \"#utility.yul\":7547:7550   */\n      0x00\n        /* \"#utility.yul\":7568:7635   */\n      tag_214\n        /* \"#utility.yul\":7632:7634   */\n      0x15\n        /* \"#utility.yul\":7627:7630   */\n      dup4\n        /* \"#utility.yul\":7568:7635   */\n      tag_117\n      jump\t// in\n    tag_214:\n        /* \"#utility.yul\":7561:7635   */\n      swap2\n      pop\n        /* \"#utility.yul\":7644:7737   */\n      tag_215\n        /* \"#utility.yul\":7733:7736   */\n      dup3\n        /* \"#utility.yul\":7644:7737   */\n      tag_120\n      jump\t// in\n    tag_215:\n        /* \"#utility.yul\":7762:7764   */\n      0x20\n        /* \"#utility.yul\":7757:7760   */\n      dup3\n        /* \"#utility.yul\":7753:7765   */\n      add\n        /* \"#utility.yul\":7746:7765   */\n      swap1\n      pop\n        /* \"#utility.yul\":7405:7771   */\n      swap2\n      swap1\n      pop\n      jump\t// out\n        /* \"#utility.yul\":7777:8196   */\n    tag_58:\n        /* \"#utility.yul\":7943:7947   */\n      0x00\n        /* \"#utility.yul\":7981:7983   */\n      0x20\n        /* \"#utility.yul\":7970:7979   */\n      dup3\n        /* \"#utility.yul\":7966:7984   */\n      add\n        /* \"#utility.yul\":7958:7984   */\n      swap1\n      pop\n        /* \"#utility.yul\":8030:8039   */\n      dup2\n        /* \"#utility.yul\":8024:8028   */\n      dup2\n        /* \"#utility.yul\":8020:8040   */\n      sub\n        /* \"#utility.yul\":8016:8017   */\n      0x00\n        /* \"#utility.yul\":8005:8014   */\n      dup4\n        /* \"#utility.yul\":8001:8018   */\n      add\n        /* \"#utility.yul\":7994:8041   */\n      mstore\n        /* \"#utility.yul\":8058:8189   */\n      tag_217\n        /* \"#utility.yul\":8184:8188   */\n      dup2\n        /* \"#utility.yul\":8058:8189   */\n      tag_121\n      jump\t// in\n    tag_217:\n        /* \"#utility.yul\":8050:8189   */\n      swap1\n      pop\n        /* \"#utility.yul\":7777:8196   */\n      swap2\n      swap1\n      pop\n      jump\t// out\n        /* \"#utility.yul\":8202:8432   */\n    tag_122:\n        /* \"#utility.yul\":8342:8376   */\n      0x426964206d75737420626520686967686572207468616e2063757272656e7420\n        /* \"#utility.yul\":8338:8339   */\n      0x00\n        /* \"#utility.yul\":8330:8336   */\n      dup3\n        /* \"#utility.yul\":8326:8340   */\n      add\n        /* \"#utility.yul\":8319:8377   */\n      mstore\n        /* \"#utility.yul\":8411:8424   */\n      0x6869676865737420626964000000000000000000000000000000000000000000\n        /* \"#utility.yul\":8406:8408   */\n      0x20\n        /* \"#utility.yul\":8398:8404   */\n      dup3\n        /* \"#utility.yul\":8394:8409   */\n      add\n        /* \"#utility.yul\":8387:8425   */\n      mstore\n        /* \"#utility.yul\":8202:8432   */\n      pop\n      jump\t// out\n        /* \"#utility.yul\":8438:8804   */\n    tag_123:\n        /* \"#utility.yul\":8580:8583   */\n      0x00\n        /* \"#utility.yul\":8601:8668   */\n      tag_220\n        /* \"#utility.yul\":8665:8667   */\n      0x2b\n        /* \"#utility.yul\":8660:8663   */\n      dup4\n        /* \"#utility.yul\":8601:8668   */\n      tag_117\n      jump\t// in\n    tag_220:\n        /* \"#utility.yul\":8594:8668   */\n      swap2\n      pop\n        /* \"#utility.yul\":8677:8770   */\n      tag_221\n        /* \"#utility.yul\":8766:8769   */\n      dup3\n        /* \"#utility.yul\":8677:8770   */\n      tag_122\n      jump\t// in\n    tag_221:\n        /* \"#utility.yul\":8795:8797   */\n      0x40\n        /* \"#utility.yul\":8790:8793   */\n      dup3\n        /* \"#utility.yul\":8786:8798   */\n      add\n        /* \"#utility.yul\":8779:8798   */\n      swap1\n      pop\n        /* \"#utility.yul\":8438:8804   */\n      swap2\n      swap1\n      pop\n      jump\t// out\n        /* \"#utility.yul\":8810:9229   */\n    tag_61:\n        /* \"#utility.yul\":8976:8980   */\n      0x00\n        /* \"#utility.yul\":9014:9016   */\n      0x20\n        /* \"#utility.yul\":9003:9012   */\n      dup3\n        /* \"#utility.yul\":8999:9017   */\n      add\n        /* \"#utility.yul\":8991:9017   */\n      swap1\n      pop\n        /* \"#utility.yul\":9063:9072   */\n      dup2\n        /* \"#utility.yul\":9057:9061   */\n      dup2\n        /* \"#utility.yul\":9053:9073   */\n      sub\n        /* \"#utility.yul\":9049:9050   */\n      0x00\n        /* \"#utility.yul\":9038:9047   */\n      dup4\n        /* \"#utility.yul\":9034:9051   */\n      add\n        /* \"#utility.yul\":9027:9074   */\n      mstore\n        /* \"#utility.yul\":9091:9222   */\n      tag_223\n        /* \"#utility.yul\":9217:9221   */\n      dup2\n        /* \"#utility.yul\":9091:9222   */\n      tag_123\n      jump\t// in\n    tag_223:\n        /* \"#utility.yul\":9083:9222   */\n      swap1\n      pop\n        /* \"#utility.yul\":8810:9229   */\n      swap2\n      swap1\n      pop\n      jump\t// out\n        /* \"#utility.yul\":9235:9351   */\n    tag_124:\n        /* \"#utility.yul\":9305:9326   */\n      tag_225\n        /* \"#utility.yul\":9320:9325   */\n      dup2\n        /* \"#utility.yul\":9305:9326   */\n      tag_112\n      jump\t// in\n    tag_225:\n        /* \"#utility.yul\":9298:9303   */\n      dup2\n        /* \"#utility.yul\":9295:9327   */\n      eq\n        /* \"#utility.yul\":9285:9345   */\n      tag_226\n      jumpi\n        /* \"#utility.yul\":9341:9342   */\n      0x00\n        /* \"#utility.yul\":9338:9339   */\n      0x00\n        /* \"#utility.yul\":9331:9343   */\n      revert\n        /* \"#utility.yul\":9285:9345   */\n    tag_226:\n        /* \"#utility.yul\":9235:9351   */\n      pop\n      jump\t// out\n        /* \"#utility.yul\":9357:9494   */\n    tag_125:\n        /* \"#utility.yul\":9411:9416   */\n      0x00\n        /* \"#utility.yul\":9442:9448   */\n      dup2\n        /* \"#utility.yul\":9436:9449   */\n      mload\n        /* \"#utility.yul\":9427:9449   */\n      swap1\n      pop\n        /* \"#utility.yul\":9458:9488   */\n      tag_228\n        /* \"#utility.yul\":9482:9487   */\n      dup2\n        /* \"#utility.yul\":9458:9488   */\n      tag_124\n      jump\t// in\n    tag_228:\n        /* \"#utility.yul\":9357:9494   */\n      swap3\n      swap2\n      pop\n      pop\n      jump\t// out\n        /* \"#utility.yul\":9500:9845   */\n    tag_66:\n        /* \"#utility.yul\":9567:9573   */\n      0x00\n        /* \"#utility.yul\":9616:9618   */\n      0x20\n        /* \"#utility.yul\":9604:9613   */\n      dup3\n        /* \"#utility.yul\":9595:9602   */\n      dup5\n        /* \"#utility.yul\":9591:9614   */\n      sub\n        /* \"#utility.yul\":9587:9619   */\n      slt\n        /* \"#utility.yul\":9584:9703   */\n      iszero\n      tag_230\n      jumpi\n        /* \"#utility.yul\":9622:9701   */\n      tag_231\n      tag_98\n      jump\t// in\n    tag_231:\n        /* \"#utility.yul\":9584:9703   */\n    tag_230:\n        /* \"#utility.yul\":9742:9743   */\n      0x00\n        /* \"#utility.yul\":9767:9828   */\n      tag_232\n        /* \"#utility.yul\":9820:9827   */\n      dup5\n        /* \"#utility.yul\":9811:9817   */\n      dup3\n        /* \"#utility.yul\":9800:9809   */\n      dup6\n        /* \"#utility.yul\":9796:9818   */\n      add\n        /* \"#utility.yul\":9767:9828   */\n      tag_125\n      jump\t// in\n    tag_232:\n        /* \"#utility.yul\":9757:9828   */\n      swap2\n      pop\n        /* \"#utility.yul\":9713:9838   */\n      pop\n        /* \"#utility.yul\":9500:9845   */\n      swap3\n      swap2\n      pop\n      pop\n      jump\t// out\n        /* \"#utility.yul\":9851:10183   */\n    tag_69:\n        /* \"#utility.yul\":9972:9976   */\n      0x00\n        /* \"#utility.yul\":10010:10012   */\n      0x40\n        /* \"#utility.yul\":9999:10008   */\n      dup3\n        /* \"#utility.yul\":9995:10013   */\n      add\n        /* \"#utility.yul\":9987:10013   */\n      swap1\n      pop\n        /* \"#utility.yul\":10023:10094   */\n      tag_234\n        /* \"#utility.yul\":10091:10092   */\n      0x00\n        /* \"#utility.yul\":10080:10089   */\n      dup4\n        /* \"#utility.yul\":10076:10093   */\n      add\n        /* \"#utility.yul\":10067:10073   */\n      dup6\n        /* \"#utility.yul\":10023:10094   */\n      tag_110\n      jump\t// in\n    tag_234:\n        /* \"#utility.yul\":10104:10176   */\n      tag_235\n        /* \"#utility.yul\":10172:10174   */\n      0x20\n        /* \"#utility.yul\":10161:10170   */\n      dup4\n        /* \"#utility.yul\":10157:10175   */\n      add\n        /* \"#utility.yul\":10148:10154   */\n      dup5\n        /* \"#utility.yul\":10104:10176   */\n      tag_111\n      jump\t// in\n    tag_235:\n        /* \"#utility.yul\":9851:10183   */\n      swap4\n      swap3\n      pop\n      pop\n      pop\n      jump\t// out\n        /* \"#utility.yul\":10189:10364   */\n    tag_126:\n        /* \"#utility.yul\":10329:10356   */\n      0x41756374696f6e20686173206e6f7420656e6465642079657400000000000000\n        /* \"#utility.yul\":10325:10326   */\n      0x00\n        /* \"#utility.yul\":10317:10323   */\n      dup3\n        /* \"#utility.yul\":10313:10327   */\n      add\n        /* \"#utility.yul\":10306:10357   */\n      mstore\n        /* \"#utility.yul\":10189:10364   */\n      pop\n      jump\t// out\n        /* \"#utility.yul\":10370:10736   */\n    tag_127:\n        /* \"#utility.yul\":10512:10515   */\n      0x00\n        /* \"#utility.yul\":10533:10600   */\n      tag_238\n        /* \"#utility.yul\":10597:10599   */\n      0x19\n        /* \"#utility.yul\":10592:10595   */\n      dup4\n        /* \"#utility.yul\":10533:10600   */\n      tag_117\n      jump\t// in\n    tag_238:\n        /* \"#utility.yul\":10526:10600   */\n      swap2\n      pop\n        /* \"#utility.yul\":10609:10702   */\n      tag_239\n        /* \"#utility.yul\":10698:10701   */\n      dup3\n        /* \"#utility.yul\":10609:10702   */\n      tag_126\n      jump\t// in\n    tag_239:\n        /* \"#utility.yul\":10727:10729   */\n      0x20\n        /* \"#utility.yul\":10722:10725   */\n      dup3\n        /* \"#utility.yul\":10718:10730   */\n      add\n        /* \"#utility.yul\":10711:10730   */\n      swap1\n      pop\n        /* \"#utility.yul\":10370:10736   */\n      swap2\n      swap1\n      pop\n      jump\t// out\n        /* \"#utility.yul\":10742:11161   */\n    tag_77:\n        /* \"#utility.yul\":10908:10912   */\n      0x00\n        /* \"#utility.yul\":10946:10948   */\n      0x20\n        /* \"#utility.yul\":10935:10944   */\n      dup3\n        /* \"#utility.yul\":10931:10949   */\n      add\n        /* \"#utility.yul\":10923:10949   */\n      swap1\n      pop\n        /* \"#utility.yul\":10995:11004   */\n      dup2\n        /* \"#utility.yul\":10989:10993   */\n      dup2\n        /* \"#utility.yul\":10985:11005   */\n      sub\n        /* \"#utility.yul\":10981:10982   */\n      0x00\n        /* \"#utility.yul\":10970:10979   */\n      dup4\n        /* \"#utility.yul\":10966:10983   */\n      add\n        /* \"#utility.yul\":10959:11006   */\n      mstore\n        /* \"#utility.yul\":11023:11154   */\n      tag_241\n        /* \"#utility.yul\":11149:11153   */\n      dup2\n        /* \"#utility.yul\":11023:11154   */\n      tag_127\n      jump\t// in\n    tag_241:\n        /* \"#utility.yul\":11015:11154   */\n      swap1\n      pop\n        /* \"#utility.yul\":10742:11161   */\n      swap2\n      swap1\n      pop\n      jump\t// out\n        /* \"#utility.yul\":11167:11252   */\n    tag_128:\n        /* \"#utility.yul\":11212:11219   */\n      0x00\n        /* \"#utility.yul\":11241:11246   */\n      dup2\n        /* \"#utility.yul\":11230:11246   */\n      swap1\n      pop\n        /* \"#utility.yul\":11167:11252   */\n      swap2\n      swap1\n      pop\n      jump\t// out\n        /* \"#utility.yul\":11258:11416   */\n    tag_129:\n        /* \"#utility.yul\":11316:11325   */\n      0x00\n        /* \"#utility.yul\":11349:11410   */\n      tag_244\n        /* \"#utility.yul\":11367:11409   */\n      tag_245\n        /* \"#utility.yul\":11376:11408   */\n      tag_246\n        /* \"#utility.yul\":11402:11407   */\n      dup5\n        /* \"#utility.yul\":11376:11408   */\n      tag_128\n      jump\t// in\n    tag_246:\n        /* \"#utility.yul\":11367:11409   */\n      tag_104\n      jump\t// in\n    tag_245:\n        /* \"#utility.yul\":11349:11410   */\n      tag_100\n      jump\t// in\n    tag_244:\n        /* \"#utility.yul\":11336:11410   */\n      swap1\n      pop\n        /* \"#utility.yul\":11258:11416   */\n      swap2\n      swap1\n      pop\n      jump\t// out\n        /* \"#utility.yul\":11422:11569   */\n    tag_130:\n        /* \"#utility.yul\":11517:11562   */\n      tag_248\n        /* \"#utility.yul\":11556:11561   */\n      dup2\n        /* \"#utility.yul\":11517:11562   */\n      tag_129\n      jump\t// in\n    tag_248:\n        /* \"#utility.yul\":11512:11515   */\n      dup3\n        /* \"#utility.yul\":11505:11563   */\n      mstore\n        /* \"#utility.yul\":11422:11569   */\n      pop\n      pop\n      jump\t// out\n        /* \"#utility.yul\":11575:11923   */\n    tag_96:\n        /* \"#utility.yul\":11704:11708   */\n      0x00\n        /* \"#utility.yul\":11742:11744   */\n      0x40\n        /* \"#utility.yul\":11731:11740   */\n      dup3\n        /* \"#utility.yul\":11727:11745   */\n      add\n        /* \"#utility.yul\":11719:11745   */\n      swap1\n      pop\n        /* \"#utility.yul\":11755:11826   */\n      tag_250\n        /* \"#utility.yul\":11823:11824   */\n      0x00\n        /* \"#utility.yul\":11812:11821   */\n      dup4\n        /* \"#utility.yul\":11808:11825   */\n      add\n        /* \"#utility.yul\":11799:11805   */\n      dup6\n        /* \"#utility.yul\":11755:11826   */\n      tag_110\n      jump\t// in\n    tag_250:\n        /* \"#utility.yul\":11836:11916   */\n      tag_251\n        /* \"#utility.yul\":11912:11914   */\n      0x20\n        /* \"#utility.yul\":11901:11910   */\n      dup4\n        /* \"#utility.yul\":11897:11915   */\n      add\n        /* \"#utility.yul\":11888:11894   */\n      dup5\n        /* \"#utility.yul\":11836:11916   */\n      tag_130\n      jump\t// in\n    tag_251:\n        /* \"#utility.yul\":11575:11923   */\n      swap4\n      swap3\n      pop\n      pop\n      pop\n      jump\t// out\n\n    auxdata: 0xa2646970667358221220d7939e9445e7083dc35e0a9c63ca51fc8d0d1ef141d21509551eab6326eef52864736f6c634300081c0033\n}\n",
				"bytecode": {
					"linkReferences": {},
					"object": "608060405234801561000f575f5ffd5b506040516112f33803806112f383398181016040528101906100319190610115565b815f5f6101000a81548173ffffffffffffffffffffffffffffffffffffffff021916908373ffffffffffffffffffffffffffffffffffffffff1602179055508060015f6101000a81548173ffffffffffffffffffffffffffffffffffffffff021916908373ffffffffffffffffffffffffffffffffffffffff1602179055505050610153565b5f5ffd5b5f73ffffffffffffffffffffffffffffffffffffffff82169050919050565b5f6100e4826100bb565b9050919050565b6100f4816100da565b81146100fe575f5ffd5b50565b5f8151905061010f816100eb565b92915050565b5f5f6040838503121561012b5761012a6100b7565b5b5f61013885828601610101565b925050602061014985828601610101565b9150509250929050565b611193806101605f395ff3fe608060405234801561000f575f5ffd5b506004361061007b575f3560e01c806357c90de51161005957806357c90de5146100ee57806399fdb3201461010a578063b9a2de3a14610128578063de0794ef146101445761007b565b80630121683f1461007f57806335af939b1461009b578063571a26a0146100b9575b5f5ffd5b61009960048036038101906100949190610bb2565b610162565b005b6100a3610392565b6040516100b09190610c6a565b60405180910390f35b6100d360048036038101906100ce9190610c83565b6103b7565b6040516100e596959493929190610cf7565b60405180910390f35b61010860048036038101906101039190610bb2565b610439565b005b61011261076b565b60405161011f9190610d76565b60405180910390f35b610142600480360381019061013d9190610c83565b61078f565b005b61014c610b75565b6040516101599190610d8f565b60405180910390f35b60015f9054906101000a900473ffffffffffffffffffffffffffffffffffffffff1673ffffffffffffffffffffffffffffffffffffffff166323b872dd3330856040518463ffffffff1660e01b81526004016101c093929190610da8565b5f604051808303815f87803b1580156101d7575f5ffd5b505af11580156101e9573d5f5f3e3d5ffd5b505050505f60025f81548092919061020090610e0a565b9190505590506040518060c001604052803373ffffffffffffffffffffffffffffffffffffffff1681526020015f73ffffffffffffffffffffffffffffffffffffffff1681526020015f815260200184815260200183426102619190610e51565b81526020016001151581525060035f8381526020019081526020015f205f820151815f015f6101000a81548173ffffffffffffffffffffffffffffffffffffffff021916908373ffffffffffffffffffffffffffffffffffffffff1602179055506020820151816001015f6101000a81548173ffffffffffffffffffffffffffffffffffffffff021916908373ffffffffffffffffffffffffffffffffffffffff16021790555060408201518160020155606082015181600301556080820151816004015560a0820151816005015f6101000a81548160ff021916908315150217905550905050807fd6eddd1118d71820909c1197aa966dbc15ed6f508554252169cc3d5ccac756ca8484426103779190610e51565b604051610385929190610e84565b60405180910390a2505050565b60015f9054906101000a900473ffffffffffffffffffffffffffffffffffffffff1681565b6003602052805f5260405f205f91509050805f015f9054906101000a900473ffffffffffffffffffffffffffffffffffffffff1690806001015f9054906101000a900473ffffffffffffffffffffffffffffffffffffffff1690806002015490806003015490806004015490806005015f9054906101000a900460ff16905086565b5f60035f8481526020019081526020015f20905080600401544210610493576040517f08c379a000000000000000000000000000000000000000000000000000000000815260040161048a90610f05565b60405180910390fd5b806005015f9054906101000a900460ff166104e3576040517f08c379a00000000000000000000000000000000000000000000000000000000081526004016104da90610f6d565b60405180910390fd5b80600201548211610529576040517f08c379a000000000000000000000000000000000000000000000000000000000815260040161052090610ffb565b60405180910390fd5b5f5f9054906101000a900473ffffffffffffffffffffffffffffffffffffffff1673ffffffffffffffffffffffffffffffffffffffff166323b872dd3330856040518463ffffffff1660e01b815260040161058693929190610da8565b6020604051808303815f875af11580156105a2573d5f5f3e3d5ffd5b505050506040513d601f19601f820116820180604052508101906105c69190611043565b505f73ffffffffffffffffffffffffffffffffffffffff16816001015f9054906101000a900473ffffffffffffffffffffffffffffffffffffffff1673ffffffffffffffffffffffffffffffffffffffff16146106e1575f5f9054906101000a900473ffffffffffffffffffffffffffffffffffffffff1673ffffffffffffffffffffffffffffffffffffffff1663a9059cbb826001015f9054906101000a900473ffffffffffffffffffffffffffffffffffffffff1683600201546040518363ffffffff1660e01b815260040161069f92919061106e565b6020604051808303815f875af11580156106bb573d5f5f3e3d5ffd5b505050506040513d601f19601f820116820180604052508101906106df9190611043565b505b81816002018190555033816001015f6101000a81548173ffffffffffffffffffffffffffffffffffffffff021916908373ffffffffffffffffffffffffffffffffffffffff160217905550827f558a0d5d5468d74b0db24c74eb348b42271c2ebb4c9e953ced38aaed95fa4361338460405161075e92919061106e565b60405180910390a2505050565b5f5f9054906101000a900473ffffffffffffffffffffffffffffffffffffffff1681565b5f60035f8381526020019081526020015f20905080600401544210156107ea576040517f08c379a00000000000000000000000000000000000000000000000000000000081526004016107e1906110df565b60405180910390fd5b806005015f9054906101000a900460ff1661083a576040517f08c379a000000000000000000000000000000000000000000000000000000000815260040161083190610f6d565b60405180910390fd5b5f816005015f6101000a81548160ff0219169083151502179055505f73ffffffffffffffffffffffffffffffffffffffff16816001015f9054906101000a900473ffffffffffffffffffffffffffffffffffffffff1673ffffffffffffffffffffffffffffffffffffffff1614610a855760015f9054906101000a900473ffffffffffffffffffffffffffffffffffffffff1673ffffffffffffffffffffffffffffffffffffffff166323b872dd30836001015f9054906101000a900473ffffffffffffffffffffffffffffffffffffffff1684600301546040518463ffffffff1660e01b815260040161093093929190610da8565b5f604051808303815f87803b158015610947575f5ffd5b505af1158015610959573d5f5f3e3d5ffd5b505050505f5f9054906101000a900473ffffffffffffffffffffffffffffffffffffffff1673ffffffffffffffffffffffffffffffffffffffff1663a9059cbb825f015f9054906101000a900473ffffffffffffffffffffffffffffffffffffffff1683600201546040518363ffffffff1660e01b81526004016109de92919061106e565b6020604051808303815f875af11580156109fa573d5f5f3e3d5ffd5b505050506040513d601f19601f82011682018060405250810190610a1e9190611043565b50817fd2aa34a4fdbbc6dff6a3e56f46e0f3ae2a31d7785ff3487aa5c95c642acea501826001015f9054906101000a900473ffffffffffffffffffffffffffffffffffffffff168360020154604051610a7892919061106e565b60405180910390a2610b71565b60015f9054906101000a900473ffffffffffffffffffffffffffffffffffffffff1673ffffffffffffffffffffffffffffffffffffffff166323b872dd30835f015f9054906101000a900473ffffffffffffffffffffffffffffffffffffffff1684600301546040518463ffffffff1660e01b8152600401610b0993929190610da8565b5f604051808303815f87803b158015610b20575f5ffd5b505af1158015610b32573d5f5f3e3d5ffd5b50505050817fd2aa34a4fdbbc6dff6a3e56f46e0f3ae2a31d7785ff3487aa5c95c642acea5015f5f604051610b68929190611136565b60405180910390a25b5050565b60025481565b5f5ffd5b5f819050919050565b610b9181610b7f565b8114610b9b575f5ffd5b50565b5f81359050610bac81610b88565b92915050565b5f5f60408385031215610bc857610bc7610b7b565b5b5f610bd585828601610b9e565b9250506020610be685828601610b9e565b9150509250929050565b5f73ffffffffffffffffffffffffffffffffffffffff82169050919050565b5f819050919050565b5f610c32610c2d610c2884610bf0565b610c0f565b610bf0565b9050919050565b5f610c4382610c18565b9050919050565b5f610c5482610c39565b9050919050565b610c6481610c4a565b82525050565b5f602082019050610c7d5f830184610c5b565b92915050565b5f60208284031215610c9857610c97610b7b565b5b5f610ca584828501610b9e565b91505092915050565b5f610cb882610bf0565b9050919050565b610cc881610cae565b82525050565b610cd781610b7f565b82525050565b5f8115159050919050565b610cf181610cdd565b82525050565b5f60c082019050610d0a5f830189610cbf565b610d176020830188610cbf565b610d246040830187610cce565b610d316060830186610cce565b610d3e6080830185610cce565b610d4b60a0830184610ce8565b979650505050505050565b5f610d6082610c39565b9050919050565b610d7081610d56565b82525050565b5f602082019050610d895f830184610d67565b92915050565b5f602082019050610da25f830184610cce565b92915050565b5f606082019050610dbb5f830186610cbf565b610dc86020830185610cbf565b610dd56040830184610cce565b949350505050565b7f4e487b71000000000000000000000000000000000000000000000000000000005f52601160045260245ffd5b5f610e1482610b7f565b91507fffffffffffffffffffffffffffffffffffffffffffffffffffffffffffffffff8203610e4657610e45610ddd565b5b600182019050919050565b5f610e5b82610b7f565b9150610e6683610b7f565b9250828201905080821115610e7e57610e7d610ddd565b5b92915050565b5f604082019050610e975f830185610cce565b610ea46020830184610cce565b9392505050565b5f82825260208201905092915050565b7f41756374696f6e2068617320656e6465640000000000000000000000000000005f82015250565b5f610eef601183610eab565b9150610efa82610ebb565b602082019050919050565b5f6020820190508181035f830152610f1c81610ee3565b9050919050565b7f41756374696f6e206973206e6f742061637469766500000000000000000000005f82015250565b5f610f57601583610eab565b9150610f6282610f23565b602082019050919050565b5f6020820190508181035f830152610f8481610f4b565b9050919050565b7f426964206d75737420626520686967686572207468616e2063757272656e74205f8201527f6869676865737420626964000000000000000000000000000000000000000000602082015250565b5f610fe5602b83610eab565b9150610ff082610f8b565b604082019050919050565b5f6020820190508181035f83015261101281610fd9565b9050919050565b61102281610cdd565b811461102c575f5ffd5b50565b5f8151905061103d81611019565b92915050565b5f6020828403121561105857611057610b7b565b5b5f6110658482850161102f565b91505092915050565b5f6040820190506110815f830185610cbf565b61108e6020830184610cce565b9392505050565b7f41756374696f6e20686173206e6f7420656e64656420796574000000000000005f82015250565b5f6110c9601983610eab565b91506110d482611095565b602082019050919050565b5f6020820190508181035f8301526110f6816110bd565b9050919050565b5f819050919050565b5f61112061111b611116846110fd565b610c0f565b610b7f565b9050919050565b61113081611106565b82525050565b5f6040820190506111495f830185610cbf565b6111566020830184611127565b939250505056fea2646970667358221220d7939e9445e7083dc35e0a9c63ca51fc8d0d1ef141d21509551eab6326eef52864736f6c634300081c0033",
					"opcodes": "PUSH1 0x80 PUSH1 0x40 MSTORE CALLVALUE DUP1 ISZERO PUSH2 0xF JUMPI PUSH0 PUSH0 REVERT JUMPDEST POP PUSH1 0x40 MLOAD PUSH2 0x12F3 CODESIZE SUB DUP1 PUSH2 0x12F3 DUP4 CODECOPY DUP2 DUP2 ADD PUSH1 0x40 MSTORE DUP2 ADD SWAP1 PUSH2 0x31 SWAP2 SWAP1 PUSH2 0x115 JUMP JUMPDEST DUP2 PUSH0 PUSH0 PUSH2 0x100 EXP DUP2 SLOAD DUP2 PUSH20 0xFFFFFFFFFFFFFFFFFFFFFFFFFFFFFFFFFFFFFFFF MUL NOT AND SWAP1 DUP4 PUSH20 0xFFFFFFFFFFFFFFFFFFFFFFFFFFFFFFFFFFFFFFFF AND MUL OR SWAP1 SSTORE POP DUP1 PUSH1 0x1 PUSH0 PUSH2 0x100 EXP DUP2 SLOAD DUP2 PUSH20 0xFFFFFFFFFFFFFFFFFFFFFFFFFFFFFFFFFFFFFFFF MUL NOT AND SWAP1 DUP4 PUSH20 0xFFFFFFFFFFFFFFFFFFFFFFFFFFFFFFFFFFFFFFFF AND MUL OR SWAP1 SSTORE POP POP POP PUSH2 0x153 JUMP JUMPDEST PUSH0 PUSH0 REVERT JUMPDEST PUSH0 PUSH20 0xFFFFFFFFFFFFFFFFFFFFFFFFFFFFFFFFFFFFFFFF DUP3 AND SWAP1 POP SWAP2 SWAP1 POP JUMP JUMPDEST PUSH0 PUSH2 0xE4 DUP3 PUSH2 0xBB JUMP JUMPDEST SWAP1 POP SWAP2 SWAP1 POP JUMP JUMPDEST PUSH2 0xF4 DUP2 PUSH2 0xDA JUMP JUMPDEST DUP2 EQ PUSH2 0xFE JUMPI PUSH0 PUSH0 REVERT JUMPDEST POP JUMP JUMPDEST PUSH0 DUP2 MLOAD SWAP1 POP PUSH2 0x10F DUP2 PUSH2 0xEB JUMP JUMPDEST SWAP3 SWAP2 POP POP JUMP JUMPDEST PUSH0 PUSH0 PUSH1 0x40 DUP4 DUP6 SUB SLT ISZERO PUSH2 0x12B JUMPI PUSH2 0x12A PUSH2 0xB7 JUMP JUMPDEST JUMPDEST PUSH0 PUSH2 0x138 DUP6 DUP3 DUP7 ADD PUSH2 0x101 JUMP JUMPDEST SWAP3 POP POP PUSH1 0x20 PUSH2 0x149 DUP6 DUP3 DUP7 ADD PUSH2 0x101 JUMP JUMPDEST SWAP2 POP POP SWAP3 POP SWAP3 SWAP1 POP JUMP JUMPDEST PUSH2 0x1193 DUP1 PUSH2 0x160 PUSH0 CODECOPY PUSH0 RETURN INVALID PUSH1 0x80 PUSH1 0x40 MSTORE CALLVALUE DUP1 ISZERO PUSH2 0xF JUMPI PUSH0 PUSH0 REVERT JUMPDEST POP PUSH1 0x4 CALLDATASIZE LT PUSH2 0x7B JUMPI PUSH0 CALLDATALOAD PUSH1 0xE0 SHR DUP1 PUSH4 0x57C90DE5 GT PUSH2 0x59 JUMPI DUP1 PUSH4 0x57C90DE5 EQ PUSH2 0xEE JUMPI DUP1 PUSH4 0x99FDB320 EQ PUSH2 0x10A JUMPI DUP1 PUSH4 0xB9A2DE3A EQ PUSH2 0x128 JUMPI DUP1 PUSH4 0xDE0794EF EQ PUSH2 0x144 JUMPI PUSH2 0x7B JUMP JUMPDEST DUP1 PUSH4 0x121683F EQ PUSH2 0x7F JUMPI DUP1 PUSH4 0x35AF939B EQ PUSH2 0x9B JUMPI DUP1 PUSH4 0x571A26A0 EQ PUSH2 0xB9 JUMPI JUMPDEST PUSH0 PUSH0 REVERT JUMPDEST PUSH2 0x99 PUSH1 0x4 DUP1 CALLDATASIZE SUB DUP2 ADD SWAP1 PUSH2 0x94 SWAP2 SWAP1 PUSH2 0xBB2 JUMP JUMPDEST PUSH2 0x162 JUMP JUMPDEST STOP JUMPDEST PUSH2 0xA3 PUSH2 0x392 JUMP JUMPDEST PUSH1 0x40 MLOAD PUSH2 0xB0 SWAP2 SWAP1 PUSH2 0xC6A JUMP JUMPDEST PUSH1 0x40 MLOAD DUP1 SWAP2 SUB SWAP1 RETURN JUMPDEST PUSH2 0xD3 PUSH1 0x4 DUP1 CALLDATASIZE SUB DUP2 ADD SWAP1 PUSH2 0xCE SWAP2 SWAP1 PUSH2 0xC83 JUMP JUMPDEST PUSH2 0x3B7 JUMP JUMPDEST PUSH1 0x40 MLOAD PUSH2 0xE5 SWAP7 SWAP6 SWAP5 SWAP4 SWAP3 SWAP2 SWAP1 PUSH2 0xCF7 JUMP JUMPDEST PUSH1 0x40 MLOAD DUP1 SWAP2 SUB SWAP1 RETURN JUMPDEST PUSH2 0x108 PUSH1 0x4 DUP1 CALLDATASIZE SUB DUP2 ADD SWAP1 PUSH2 0x103 SWAP2 SWAP1 PUSH2 0xBB2 JUMP JUMPDEST PUSH2 0x439 JUMP JUMPDEST STOP JUMPDEST PUSH2 0x112 PUSH2 0x76B JUMP JUMPDEST PUSH1 0x40 MLOAD PUSH2 0x11F SWAP2 SWAP1 PUSH2 0xD76 JUMP JUMPDEST PUSH1 0x40 MLOAD DUP1 SWAP2 SUB SWAP1 RETURN JUMPDEST PUSH2 0x142 PUSH1 0x4 DUP1 CALLDATASIZE SUB DUP2 ADD SWAP1 PUSH2 0x13D SWAP2 SWAP1 PUSH2 0xC83 JUMP JUMPDEST PUSH2 0x78F JUMP JUMPDEST STOP JUMPDEST PUSH2 0x14C PUSH2 0xB75 JUMP JUMPDEST PUSH1 0x40 MLOAD PUSH2 0x159 SWAP2 SWAP1 PUSH2 0xD8F JUMP JUMPDEST PUSH1 0x40 MLOAD DUP1 SWAP2 SUB SWAP1 RETURN JUMPDEST PUSH1 0x1 PUSH0 SWAP1 SLOAD SWAP1 PUSH2 0x100 EXP SWAP1 DIV PUSH20 0xFFFFFFFFFFFFFFFFFFFFFFFFFFFFFFFFFFFFFFFF AND PUSH20 0xFFFFFFFFFFFFFFFFFFFFFFFFFFFFFFFFFFFFFFFF AND PUSH4 0x23B872DD CALLER ADDRESS DUP6 PUSH1 0x40 MLOAD DUP5 PUSH4 0xFFFFFFFF AND PUSH1 0xE0 SHL DUP2 MSTORE PUSH1 0x4 ADD PUSH2 0x1C0 SWAP4 SWAP3 SWAP2 SWAP1 PUSH2 0xDA8 JUMP JUMPDEST PUSH0 PUSH1 0x40 MLOAD DUP1 DUP4 SUB DUP2 PUSH0 DUP8 DUP1 EXTCODESIZE ISZERO DUP1 ISZERO PUSH2 0x1D7 JUMPI PUSH0 PUSH0 REVERT JUMPDEST POP GAS CALL ISZERO DUP1 ISZERO PUSH2 0x1E9 JUMPI RETURNDATASIZE PUSH0 PUSH0 RETURNDATACOPY RETURNDATASIZE PUSH0 REVERT JUMPDEST POP POP POP POP PUSH0 PUSH1 0x2 PUSH0 DUP2 SLOAD DUP1 SWAP3 SWAP2 SWAP1 PUSH2 0x200 SWAP1 PUSH2 0xE0A JUMP JUMPDEST SWAP2 SWAP1 POP SSTORE SWAP1 POP PUSH1 0x40 MLOAD DUP1 PUSH1 0xC0 ADD PUSH1 0x40 MSTORE DUP1 CALLER PUSH20 0xFFFFFFFFFFFFFFFFFFFFFFFFFFFFFFFFFFFFFFFF AND DUP2 MSTORE PUSH1 0x20 ADD PUSH0 PUSH20 0xFFFFFFFFFFFFFFFFFFFFFFFFFFFFFFFFFFFFFFFF AND DUP2 MSTORE PUSH1 0x20 ADD PUSH0 DUP2 MSTORE PUSH1 0x20 ADD DUP5 DUP2 MSTORE PUSH1 0x20 ADD DUP4 TIMESTAMP PUSH2 0x261 SWAP2 SWAP1 PUSH2 0xE51 JUMP JUMPDEST DUP2 MSTORE PUSH1 0x20 ADD PUSH1 0x1 ISZERO ISZERO DUP2 MSTORE POP PUSH1 0x3 PUSH0 DUP4 DUP2 MSTORE PUSH1 0x20 ADD SWAP1 DUP2 MSTORE PUSH1 0x20 ADD PUSH0 KECCAK256 PUSH0 DUP3 ADD MLOAD DUP2 PUSH0 ADD PUSH0 PUSH2 0x100 EXP DUP2 SLOAD DUP2 PUSH20 0xFFFFFFFFFFFFFFFFFFFFFFFFFFFFFFFFFFFFFFFF MUL NOT AND SWAP1 DUP4 PUSH20 0xFFFFFFFFFFFFFFFFFFFFFFFFFFFFFFFFFFFFFFFF AND MUL OR SWAP1 SSTORE POP PUSH1 0x20 DUP3 ADD MLOAD DUP2 PUSH1 0x1 ADD PUSH0 PUSH2 0x100 EXP DUP2 SLOAD DUP2 PUSH20 0xFFFFFFFFFFFFFFFFFFFFFFFFFFFFFFFFFFFFFFFF MUL NOT AND SWAP1 DUP4 PUSH20 0xFFFFFFFFFFFFFFFFFFFFFFFFFFFFFFFFFFFFFFFF AND MUL OR SWAP1 SSTORE POP PUSH1 0x40 DUP3 ADD MLOAD DUP2 PUSH1 0x2 ADD SSTORE PUSH1 0x60 DUP3 ADD MLOAD DUP2 PUSH1 0x3 ADD SSTORE PUSH1 0x80 DUP3 ADD MLOAD DUP2 PUSH1 0x4 ADD SSTORE PUSH1 0xA0 DUP3 ADD MLOAD DUP2 PUSH1 0x5 ADD PUSH0 PUSH2 0x100 EXP DUP2 SLOAD DUP2 PUSH1 0xFF MUL NOT AND SWAP1 DUP4 ISZERO ISZERO MUL OR SWAP1 SSTORE POP SWAP1 POP POP DUP1 PUSH32 0xD6EDDD1118D71820909C1197AA966DBC15ED6F508554252169CC3D5CCAC756CA DUP5 DUP5 TIMESTAMP PUSH2 0x377 SWAP2 SWAP1 PUSH2 0xE51 JUMP JUMPDEST PUSH1 0x40 MLOAD PUSH2 0x385 SWAP3 SWAP2 SWAP1 PUSH2 0xE84 JUMP JUMPDEST PUSH1 0x40 MLOAD DUP1 SWAP2 SUB SWAP1 LOG2 POP POP POP JUMP JUMPDEST PUSH1 0x1 PUSH0 SWAP1 SLOAD SWAP1 PUSH2 0x100 EXP SWAP1 DIV PUSH20 0xFFFFFFFFFFFFFFFFFFFFFFFFFFFFFFFFFFFFFFFF AND DUP2 JUMP JUMPDEST PUSH1 0x3 PUSH1 0x20 MSTORE DUP1 PUSH0 MSTORE PUSH1 0x40 PUSH0 KECCAK256 PUSH0 SWAP2 POP SWAP1 POP DUP1 PUSH0 ADD PUSH0 SWAP1 SLOAD SWAP1 PUSH2 0x100 EXP SWAP1 DIV PUSH20 0xFFFFFFFFFFFFFFFFFFFFFFFFFFFFFFFFFFFFFFFF AND SWAP1 DUP1 PUSH1 0x1 ADD PUSH0 SWAP1 SLOAD SWAP1 PUSH2 0x100 EXP SWAP1 DIV PUSH20 0xFFFFFFFFFFFFFFFFFFFFFFFFFFFFFFFFFFFFFFFF AND SWAP1 DUP1 PUSH1 0x2 ADD SLOAD SWAP1 DUP1 PUSH1 0x3 ADD SLOAD SWAP1 DUP1 PUSH1 0x4 ADD SLOAD SWAP1 DUP1 PUSH1 0x5 ADD PUSH0 SWAP1 SLOAD SWAP1 PUSH2 0x100 EXP SWAP1 DIV PUSH1 0xFF AND SWAP1 POP DUP7 JUMP JUMPDEST PUSH0 PUSH1 0x3 PUSH0 DUP5 DUP2 MSTORE PUSH1 0x20 ADD SWAP1 DUP2 MSTORE PUSH1 0x20 ADD PUSH0 KECCAK256 SWAP1 POP DUP1 PUSH1 0x4 ADD SLOAD TIMESTAMP LT PUSH2 0x493 JUMPI PUSH1 0x40 MLOAD PUSH32 0x8C379A000000000000000000000000000000000000000000000000000000000 DUP2 MSTORE PUSH1 0x4 ADD PUSH2 0x48A SWAP1 PUSH2 0xF05 JUMP JUMPDEST PUSH1 0x40 MLOAD DUP1 SWAP2 SUB SWAP1 REVERT JUMPDEST DUP1 PUSH1 0x5 ADD PUSH0 SWAP1 SLOAD SWAP1 PUSH2 0x100 EXP SWAP1 DIV PUSH1 0xFF AND PUSH2 0x4E3 JUMPI PUSH1 0x40 MLOAD PUSH32 0x8C379A000000000000000000000000000000000000000000000000000000000 DUP2 MSTORE PUSH1 0x4 ADD PUSH2 0x4DA SWAP1 PUSH2 0xF6D JUMP JUMPDEST PUSH1 0x40 MLOAD DUP1 SWAP2 SUB SWAP1 REVERT JUMPDEST DUP1 PUSH1 0x2 ADD SLOAD DUP3 GT PUSH2 0x529 JUMPI PUSH1 0x40 MLOAD PUSH32 0x8C379A000000000000000000000000000000000000000000000000000000000 DUP2 MSTORE PUSH1 0x4 ADD PUSH2 0x520 SWAP1 PUSH2 0xFFB JUMP JUMPDEST PUSH1 0x40 MLOAD DUP1 SWAP2 SUB SWAP1 REVERT JUMPDEST PUSH0 PUSH0 SWAP1 SLOAD SWAP1 PUSH2 0x100 EXP SWAP1 DIV PUSH20 0xFFFFFFFFFFFFFFFFFFFFFFFFFFFFFFFFFFFFFFFF AND PUSH20 0xFFFFFFFFFFFFFFFFFFFFFFFFFFFFFFFFFFFFFFFF AND PUSH4 0x23B872DD CALLER ADDRESS DUP6 PUSH1 0x40 MLOAD DUP5 PUSH4 0xFFFFFFFF AND PUSH1 0xE0 SHL DUP2 MSTORE PUSH1 0x4 ADD PUSH2 0x586 SWAP4 SWAP3 SWAP2 SWAP1 PUSH2 0xDA8 JUMP JUMPDEST PUSH1 0x20 PUSH1 0x40 MLOAD DUP1 DUP4 SUB DUP2 PUSH0 DUP8 GAS CALL ISZERO DUP1 ISZERO PUSH2 0x5A2 JUMPI RETURNDATASIZE PUSH0 PUSH0 RETURNDATACOPY RETURNDATASIZE PUSH0 REVERT JUMPDEST POP POP POP POP PUSH1 0x40 MLOAD RETURNDATASIZE PUSH1 0x1F NOT PUSH1 0x1F DUP3 ADD AND DUP3 ADD DUP1 PUSH1 0x40 MSTORE POP DUP2 ADD SWAP1 PUSH2 0x5C6 SWAP2 SWAP1 PUSH2 0x1043 JUMP JUMPDEST POP PUSH0 PUSH20 0xFFFFFFFFFFFFFFFFFFFFFFFFFFFFFFFFFFFFFFFF AND DUP2 PUSH1 0x1 ADD PUSH0 SWAP1 SLOAD SWAP1 PUSH2 0x100 EXP SWAP1 DIV PUSH20 0xFFFFFFFFFFFFFFFFFFFFFFFFFFFFFFFFFFFFFFFF AND PUSH20 0xFFFFFFFFFFFFFFFFFFFFFFFFFFFFFFFFFFFFFFFF AND EQ PUSH2 0x6E1 JUMPI PUSH0 PUSH0 SWAP1 SLOAD SWAP1 PUSH2 0x100 EXP SWAP1 DIV PUSH20 0xFFFFFFFFFFFFFFFFFFFFFFFFFFFFFFFFFFFFFFFF AND PUSH20 0xFFFFFFFFFFFFFFFFFFFFFFFFFFFFFFFFFFFFFFFF AND PUSH4 0xA9059CBB DUP3 PUSH1 0x1 ADD PUSH0 SWAP1 SLOAD SWAP1 PUSH2 0x100 EXP SWAP1 DIV PUSH20 0xFFFFFFFFFFFFFFFFFFFFFFFFFFFFFFFFFFFFFFFF AND DUP4 PUSH1 0x2 ADD SLOAD PUSH1 0x40 MLOAD DUP4 PUSH4 0xFFFFFFFF AND PUSH1 0xE0 SHL DUP2 MSTORE PUSH1 0x4 ADD PUSH2 0x69F SWAP3 SWAP2 SWAP1 PUSH2 0x106E JUMP JUMPDEST PUSH1 0x20 PUSH1 0x40 MLOAD DUP1 DUP4 SUB DUP2 PUSH0 DUP8 GAS CALL ISZERO DUP1 ISZERO PUSH2 0x6BB JUMPI RETURNDATASIZE PUSH0 PUSH0 RETURNDATACOPY RETURNDATASIZE PUSH0 REVERT JUMPDEST POP POP POP POP PUSH1 0x40 MLOAD RETURNDATASIZE PUSH1 0x1F NOT PUSH1 0x1F DUP3 ADD AND DUP3 ADD DUP1 PUSH1 0x40 MSTORE POP DUP2 ADD SWAP1 PUSH2 0x6DF SWAP2 SWAP1 PUSH2 0x1043 JUMP JUMPDEST POP JUMPDEST DUP2 DUP2 PUSH1 0x2 ADD DUP2 SWAP1 SSTORE POP CALLER DUP2 PUSH1 0x1 ADD PUSH0 PUSH2 0x100 EXP DUP2 SLOAD DUP2 PUSH20 0xFFFFFFFFFFFFFFFFFFFFFFFFFFFFFFFFFFFFFFFF MUL NOT AND SWAP1 DUP4 PUSH20 0xFFFFFFFFFFFFFFFFFFFFFFFFFFFFFFFFFFFFFFFF AND MUL OR SWAP1 SSTORE POP DUP3 PUSH32 0x558A0D5D5468D74B0DB24C74EB348B42271C2EBB4C9E953CED38AAED95FA4361 CALLER DUP5 PUSH1 0x40 MLOAD PUSH2 0x75E SWAP3 SWAP2 SWAP1 PUSH2 0x106E JUMP JUMPDEST PUSH1 0x40 MLOAD DUP1 SWAP2 SUB SWAP1 LOG2 POP POP POP JUMP JUMPDEST PUSH0 PUSH0 SWAP1 SLOAD SWAP1 PUSH2 0x100 EXP SWAP1 DIV PUSH20 0xFFFFFFFFFFFFFFFFFFFFFFFFFFFFFFFFFFFFFFFF AND DUP2 JUMP JUMPDEST PUSH0 PUSH1 0x3 PUSH0 DUP4 DUP2 MSTORE PUSH1 0x20 ADD SWAP1 DUP2 MSTORE PUSH1 0x20 ADD PUSH0 KECCAK256 SWAP1 POP DUP1 PUSH1 0x4 ADD SLOAD TIMESTAMP LT ISZERO PUSH2 0x7EA JUMPI PUSH1 0x40 MLOAD PUSH32 0x8C379A000000000000000000000000000000000000000000000000000000000 DUP2 MSTORE PUSH1 0x4 ADD PUSH2 0x7E1 SWAP1 PUSH2 0x10DF JUMP JUMPDEST PUSH1 0x40 MLOAD DUP1 SWAP2 SUB SWAP1 REVERT JUMPDEST DUP1 PUSH1 0x5 ADD PUSH0 SWAP1 SLOAD SWAP1 PUSH2 0x100 EXP SWAP1 DIV PUSH1 0xFF AND PUSH2 0x83A JUMPI PUSH1 0x40 MLOAD PUSH32 0x8C379A000000000000000000000000000000000000000000000000000000000 DUP2 MSTORE PUSH1 0x4 ADD PUSH2 0x831 SWAP1 PUSH2 0xF6D JUMP JUMPDEST PUSH1 0x40 MLOAD DUP1 SWAP2 SUB SWAP1 REVERT JUMPDEST PUSH0 DUP2 PUSH1 0x5 ADD PUSH0 PUSH2 0x100 EXP DUP2 SLOAD DUP2 PUSH1 0xFF MUL NOT AND SWAP1 DUP4 ISZERO ISZERO MUL OR SWAP1 SSTORE POP PUSH0 PUSH20 0xFFFFFFFFFFFFFFFFFFFFFFFFFFFFFFFFFFFFFFFF AND DUP2 PUSH1 0x1 ADD PUSH0 SWAP1 SLOAD SWAP1 PUSH2 0x100 EXP SWAP1 DIV PUSH20 0xFFFFFFFFFFFFFFFFFFFFFFFFFFFFFFFFFFFFFFFF AND PUSH20 0xFFFFFFFFFFFFFFFFFFFFFFFFFFFFFFFFFFFFFFFF AND EQ PUSH2 0xA85 JUMPI PUSH1 0x1 PUSH0 SWAP1 SLOAD SWAP1 PUSH2 0x100 EXP SWAP1 DIV PUSH20 0xFFFFFFFFFFFFFFFFFFFFFFFFFFFFFFFFFFFFFFFF AND PUSH20 0xFFFFFFFFFFFFFFFFFFFFFFFFFFFFFFFFFFFFFFFF AND PUSH4 0x23B872DD ADDRESS DUP4 PUSH1 0x1 ADD PUSH0 SWAP1 SLOAD SWAP1 PUSH2 0x100 EXP SWAP1 DIV PUSH20 0xFFFFFFFFFFFFFFFFFFFFFFFFFFFFFFFFFFFFFFFF AND DUP5 PUSH1 0x3 ADD SLOAD PUSH1 0x40 MLOAD DUP5 PUSH4 0xFFFFFFFF AND PUSH1 0xE0 SHL DUP2 MSTORE PUSH1 0x4 ADD PUSH2 0x930 SWAP4 SWAP3 SWAP2 SWAP1 PUSH2 0xDA8 JUMP JUMPDEST PUSH0 PUSH1 0x40 MLOAD DUP1 DUP4 SUB DUP2 PUSH0 DUP8 DUP1 EXTCODESIZE ISZERO DUP1 ISZERO PUSH2 0x947 JUMPI PUSH0 PUSH0 REVERT JUMPDEST POP GAS CALL ISZERO DUP1 ISZERO PUSH2 0x959 JUMPI RETURNDATASIZE PUSH0 PUSH0 RETURNDATACOPY RETURNDATASIZE PUSH0 REVERT JUMPDEST POP POP POP POP PUSH0 PUSH0 SWAP1 SLOAD SWAP1 PUSH2 0x100 EXP SWAP1 DIV PUSH20 0xFFFFFFFFFFFFFFFFFFFFFFFFFFFFFFFFFFFFFFFF AND PUSH20 0xFFFFFFFFFFFFFFFFFFFFFFFFFFFFFFFFFFFFFFFF AND PUSH4 0xA9059CBB DUP3 PUSH0 ADD PUSH0 SWAP1 SLOAD SWAP1 PUSH2 0x100 EXP SWAP1 DIV PUSH20 0xFFFFFFFFFFFFFFFFFFFFFFFFFFFFFFFFFFFFFFFF AND DUP4 PUSH1 0x2 ADD SLOAD PUSH1 0x40 MLOAD DUP4 PUSH4 0xFFFFFFFF AND PUSH1 0xE0 SHL DUP2 MSTORE PUSH1 0x4 ADD PUSH2 0x9DE SWAP3 SWAP2 SWAP1 PUSH2 0x106E JUMP JUMPDEST PUSH1 0x20 PUSH1 0x40 MLOAD DUP1 DUP4 SUB DUP2 PUSH0 DUP8 GAS CALL ISZERO DUP1 ISZERO PUSH2 0x9FA JUMPI RETURNDATASIZE PUSH0 PUSH0 RETURNDATACOPY RETURNDATASIZE PUSH0 REVERT JUMPDEST POP POP POP POP PUSH1 0x40 MLOAD RETURNDATASIZE PUSH1 0x1F NOT PUSH1 0x1F DUP3 ADD AND DUP3 ADD DUP1 PUSH1 0x40 MSTORE POP DUP2 ADD SWAP1 PUSH2 0xA1E SWAP2 SWAP1 PUSH2 0x1043 JUMP JUMPDEST POP DUP2 PUSH32 0xD2AA34A4FDBBC6DFF6A3E56F46E0F3AE2A31D7785FF3487AA5C95C642ACEA501 DUP3 PUSH1 0x1 ADD PUSH0 SWAP1 SLOAD SWAP1 PUSH2 0x100 EXP SWAP1 DIV PUSH20 0xFFFFFFFFFFFFFFFFFFFFFFFFFFFFFFFFFFFFFFFF AND DUP4 PUSH1 0x2 ADD SLOAD PUSH1 0x40 MLOAD PUSH2 0xA78 SWAP3 SWAP2 SWAP1 PUSH2 0x106E JUMP JUMPDEST PUSH1 0x40 MLOAD DUP1 SWAP2 SUB SWAP1 LOG2 PUSH2 0xB71 JUMP JUMPDEST PUSH1 0x1 PUSH0 SWAP1 SLOAD SWAP1 PUSH2 0x100 EXP SWAP1 DIV PUSH20 0xFFFFFFFFFFFFFFFFFFFFFFFFFFFFFFFFFFFFFFFF AND PUSH20 0xFFFFFFFFFFFFFFFFFFFFFFFFFFFFFFFFFFFFFFFF AND PUSH4 0x23B872DD ADDRESS DUP4 PUSH0 ADD PUSH0 SWAP1 SLOAD SWAP1 PUSH2 0x100 EXP SWAP1 DIV PUSH20 0xFFFFFFFFFFFFFFFFFFFFFFFFFFFFFFFFFFFFFFFF AND DUP5 PUSH1 0x3 ADD SLOAD PUSH1 0x40 MLOAD DUP5 PUSH4 0xFFFFFFFF AND PUSH1 0xE0 SHL DUP2 MSTORE PUSH1 0x4 ADD PUSH2 0xB09 SWAP4 SWAP3 SWAP2 SWAP1 PUSH2 0xDA8 JUMP JUMPDEST PUSH0 PUSH1 0x40 MLOAD DUP1 DUP4 SUB DUP2 PUSH0 DUP8 DUP1 EXTCODESIZE ISZERO DUP1 ISZERO PUSH2 0xB20 JUMPI PUSH0 PUSH0 REVERT JUMPDEST POP GAS CALL ISZERO DUP1 ISZERO PUSH2 0xB32 JUMPI RETURNDATASIZE PUSH0 PUSH0 RETURNDATACOPY RETURNDATASIZE PUSH0 REVERT JUMPDEST POP POP POP POP DUP2 PUSH32 0xD2AA34A4FDBBC6DFF6A3E56F46E0F3AE2A31D7785FF3487AA5C95C642ACEA501 PUSH0 PUSH0 PUSH1 0x40 MLOAD PUSH2 0xB68 SWAP3 SWAP2 SWAP1 PUSH2 0x1136 JUMP JUMPDEST PUSH1 0x40 MLOAD DUP1 SWAP2 SUB SWAP1 LOG2 JUMPDEST POP POP JUMP JUMPDEST PUSH1 0x2 SLOAD DUP2 JUMP JUMPDEST PUSH0 PUSH0 REVERT JUMPDEST PUSH0 DUP2 SWAP1 POP SWAP2 SWAP1 POP JUMP JUMPDEST PUSH2 0xB91 DUP2 PUSH2 0xB7F JUMP JUMPDEST DUP2 EQ PUSH2 0xB9B JUMPI PUSH0 PUSH0 REVERT JUMPDEST POP JUMP JUMPDEST PUSH0 DUP2 CALLDATALOAD SWAP1 POP PUSH2 0xBAC DUP2 PUSH2 0xB88 JUMP JUMPDEST SWAP3 SWAP2 POP POP JUMP JUMPDEST PUSH0 PUSH0 PUSH1 0x40 DUP4 DUP6 SUB SLT ISZERO PUSH2 0xBC8 JUMPI PUSH2 0xBC7 PUSH2 0xB7B JUMP JUMPDEST JUMPDEST PUSH0 PUSH2 0xBD5 DUP6 DUP3 DUP7 ADD PUSH2 0xB9E JUMP JUMPDEST SWAP3 POP POP PUSH1 0x20 PUSH2 0xBE6 DUP6 DUP3 DUP7 ADD PUSH2 0xB9E JUMP JUMPDEST SWAP2 POP POP SWAP3 POP SWAP3 SWAP1 POP JUMP JUMPDEST PUSH0 PUSH20 0xFFFFFFFFFFFFFFFFFFFFFFFFFFFFFFFFFFFFFFFF DUP3 AND SWAP1 POP SWAP2 SWAP1 POP JUMP JUMPDEST PUSH0 DUP2 SWAP1 POP SWAP2 SWAP1 POP JUMP JUMPDEST PUSH0 PUSH2 0xC32 PUSH2 0xC2D PUSH2 0xC28 DUP5 PUSH2 0xBF0 JUMP JUMPDEST PUSH2 0xC0F JUMP JUMPDEST PUSH2 0xBF0 JUMP JUMPDEST SWAP1 POP SWAP2 SWAP1 POP JUMP JUMPDEST PUSH0 PUSH2 0xC43 DUP3 PUSH2 0xC18 JUMP JUMPDEST SWAP1 POP SWAP2 SWAP1 POP JUMP JUMPDEST PUSH0 PUSH2 0xC54 DUP3 PUSH2 0xC39 JUMP JUMPDEST SWAP1 POP SWAP2 SWAP1 POP JUMP JUMPDEST PUSH2 0xC64 DUP2 PUSH2 0xC4A JUMP JUMPDEST DUP3 MSTORE POP POP JUMP JUMPDEST PUSH0 PUSH1 0x20 DUP3 ADD SWAP1 POP PUSH2 0xC7D PUSH0 DUP4 ADD DUP5 PUSH2 0xC5B JUMP JUMPDEST SWAP3 SWAP2 POP POP JUMP JUMPDEST PUSH0 PUSH1 0x20 DUP3 DUP5 SUB SLT ISZERO PUSH2 0xC98 JUMPI PUSH2 0xC97 PUSH2 0xB7B JUMP JUMPDEST JUMPDEST PUSH0 PUSH2 0xCA5 DUP5 DUP3 DUP6 ADD PUSH2 0xB9E JUMP JUMPDEST SWAP2 POP POP SWAP3 SWAP2 POP POP JUMP JUMPDEST PUSH0 PUSH2 0xCB8 DUP3 PUSH2 0xBF0 JUMP JUMPDEST SWAP1 POP SWAP2 SWAP1 POP JUMP JUMPDEST PUSH2 0xCC8 DUP2 PUSH2 0xCAE JUMP JUMPDEST DUP3 MSTORE POP POP JUMP JUMPDEST PUSH2 0xCD7 DUP2 PUSH2 0xB7F JUMP JUMPDEST DUP3 MSTORE POP POP JUMP JUMPDEST PUSH0 DUP2 ISZERO ISZERO SWAP1 POP SWAP2 SWAP1 POP JUMP JUMPDEST PUSH2 0xCF1 DUP2 PUSH2 0xCDD JUMP JUMPDEST DUP3 MSTORE POP POP JUMP JUMPDEST PUSH0 PUSH1 0xC0 DUP3 ADD SWAP1 POP PUSH2 0xD0A PUSH0 DUP4 ADD DUP10 PUSH2 0xCBF JUMP JUMPDEST PUSH2 0xD17 PUSH1 0x20 DUP4 ADD DUP9 PUSH2 0xCBF JUMP JUMPDEST PUSH2 0xD24 PUSH1 0x40 DUP4 ADD DUP8 PUSH2 0xCCE JUMP JUMPDEST PUSH2 0xD31 PUSH1 0x60 DUP4 ADD DUP7 PUSH2 0xCCE JUMP JUMPDEST PUSH2 0xD3E PUSH1 0x80 DUP4 ADD DUP6 PUSH2 0xCCE JUMP JUMPDEST PUSH2 0xD4B PUSH1 0xA0 DUP4 ADD DUP5 PUSH2 0xCE8 JUMP JUMPDEST SWAP8 SWAP7 POP POP POP POP POP POP POP JUMP JUMPDEST PUSH0 PUSH2 0xD60 DUP3 PUSH2 0xC39 JUMP JUMPDEST SWAP1 POP SWAP2 SWAP1 POP JUMP JUMPDEST PUSH2 0xD70 DUP2 PUSH2 0xD56 JUMP JUMPDEST DUP3 MSTORE POP POP JUMP JUMPDEST PUSH0 PUSH1 0x20 DUP3 ADD SWAP1 POP PUSH2 0xD89 PUSH0 DUP4 ADD DUP5 PUSH2 0xD67 JUMP JUMPDEST SWAP3 SWAP2 POP POP JUMP JUMPDEST PUSH0 PUSH1 0x20 DUP3 ADD SWAP1 POP PUSH2 0xDA2 PUSH0 DUP4 ADD DUP5 PUSH2 0xCCE JUMP JUMPDEST SWAP3 SWAP2 POP POP JUMP JUMPDEST PUSH0 PUSH1 0x60 DUP3 ADD SWAP1 POP PUSH2 0xDBB PUSH0 DUP4 ADD DUP7 PUSH2 0xCBF JUMP JUMPDEST PUSH2 0xDC8 PUSH1 0x20 DUP4 ADD DUP6 PUSH2 0xCBF JUMP JUMPDEST PUSH2 0xDD5 PUSH1 0x40 DUP4 ADD DUP5 PUSH2 0xCCE JUMP JUMPDEST SWAP5 SWAP4 POP POP POP POP JUMP JUMPDEST PUSH32 0x4E487B7100000000000000000000000000000000000000000000000000000000 PUSH0 MSTORE PUSH1 0x11 PUSH1 0x4 MSTORE PUSH1 0x24 PUSH0 REVERT JUMPDEST PUSH0 PUSH2 0xE14 DUP3 PUSH2 0xB7F JUMP JUMPDEST SWAP2 POP PUSH32 0xFFFFFFFFFFFFFFFFFFFFFFFFFFFFFFFFFFFFFFFFFFFFFFFFFFFFFFFFFFFFFFFF DUP3 SUB PUSH2 0xE46 JUMPI PUSH2 0xE45 PUSH2 0xDDD JUMP JUMPDEST JUMPDEST PUSH1 0x1 DUP3 ADD SWAP1 POP SWAP2 SWAP1 POP JUMP JUMPDEST PUSH0 PUSH2 0xE5B DUP3 PUSH2 0xB7F JUMP JUMPDEST SWAP2 POP PUSH2 0xE66 DUP4 PUSH2 0xB7F JUMP JUMPDEST SWAP3 POP DUP3 DUP3 ADD SWAP1 POP DUP1 DUP3 GT ISZERO PUSH2 0xE7E JUMPI PUSH2 0xE7D PUSH2 0xDDD JUMP JUMPDEST JUMPDEST SWAP3 SWAP2 POP POP JUMP JUMPDEST PUSH0 PUSH1 0x40 DUP3 ADD SWAP1 POP PUSH2 0xE97 PUSH0 DUP4 ADD DUP6 PUSH2 0xCCE JUMP JUMPDEST PUSH2 0xEA4 PUSH1 0x20 DUP4 ADD DUP5 PUSH2 0xCCE JUMP JUMPDEST SWAP4 SWAP3 POP POP POP JUMP JUMPDEST PUSH0 DUP3 DUP3 MSTORE PUSH1 0x20 DUP3 ADD SWAP1 POP SWAP3 SWAP2 POP POP JUMP JUMPDEST PUSH32 0x41756374696F6E2068617320656E646564000000000000000000000000000000 PUSH0 DUP3 ADD MSTORE POP JUMP JUMPDEST PUSH0 PUSH2 0xEEF PUSH1 0x11 DUP4 PUSH2 0xEAB JUMP JUMPDEST SWAP2 POP PUSH2 0xEFA DUP3 PUSH2 0xEBB JUMP JUMPDEST PUSH1 0x20 DUP3 ADD SWAP1 POP SWAP2 SWAP1 POP JUMP JUMPDEST PUSH0 PUSH1 0x20 DUP3 ADD SWAP1 POP DUP2 DUP2 SUB PUSH0 DUP4 ADD MSTORE PUSH2 0xF1C DUP2 PUSH2 0xEE3 JUMP JUMPDEST SWAP1 POP SWAP2 SWAP1 POP JUMP JUMPDEST PUSH32 0x41756374696F6E206973206E6F74206163746976650000000000000000000000 PUSH0 DUP3 ADD MSTORE POP JUMP JUMPDEST PUSH0 PUSH2 0xF57 PUSH1 0x15 DUP4 PUSH2 0xEAB JUMP JUMPDEST SWAP2 POP PUSH2 0xF62 DUP3 PUSH2 0xF23 JUMP JUMPDEST PUSH1 0x20 DUP3 ADD SWAP1 POP SWAP2 SWAP1 POP JUMP JUMPDEST PUSH0 PUSH1 0x20 DUP3 ADD SWAP1 POP DUP2 DUP2 SUB PUSH0 DUP4 ADD MSTORE PUSH2 0xF84 DUP2 PUSH2 0xF4B JUMP JUMPDEST SWAP1 POP SWAP2 SWAP1 POP JUMP JUMPDEST PUSH32 0x426964206D75737420626520686967686572207468616E2063757272656E7420 PUSH0 DUP3 ADD MSTORE PUSH32 0x6869676865737420626964000000000000000000000000000000000000000000 PUSH1 0x20 DUP3 ADD MSTORE POP JUMP JUMPDEST PUSH0 PUSH2 0xFE5 PUSH1 0x2B DUP4 PUSH2 0xEAB JUMP JUMPDEST SWAP2 POP PUSH2 0xFF0 DUP3 PUSH2 0xF8B JUMP JUMPDEST PUSH1 0x40 DUP3 ADD SWAP1 POP SWAP2 SWAP1 POP JUMP JUMPDEST PUSH0 PUSH1 0x20 DUP3 ADD SWAP1 POP DUP2 DUP2 SUB PUSH0 DUP4 ADD MSTORE PUSH2 0x1012 DUP2 PUSH2 0xFD9 JUMP JUMPDEST SWAP1 POP SWAP2 SWAP1 POP JUMP JUMPDEST PUSH2 0x1022 DUP2 PUSH2 0xCDD JUMP JUMPDEST DUP2 EQ PUSH2 0x102C JUMPI PUSH0 PUSH0 REVERT JUMPDEST POP JUMP JUMPDEST PUSH0 DUP2 MLOAD SWAP1 POP PUSH2 0x103D DUP2 PUSH2 0x1019 JUMP JUMPDEST SWAP3 SWAP2 POP POP JUMP JUMPDEST PUSH0 PUSH1 0x20 DUP3 DUP5 SUB SLT ISZERO PUSH2 0x1058 JUMPI PUSH2 0x1057 PUSH2 0xB7B JUMP JUMPDEST JUMPDEST PUSH0 PUSH2 0x1065 DUP5 DUP3 DUP6 ADD PUSH2 0x102F JUMP JUMPDEST SWAP2 POP POP SWAP3 SWAP2 POP POP JUMP JUMPDEST PUSH0 PUSH1 0x40 DUP3 ADD SWAP1 POP PUSH2 0x1081 PUSH0 DUP4 ADD DUP6 PUSH2 0xCBF JUMP JUMPDEST PUSH2 0x108E PUSH1 0x20 DUP4 ADD DUP5 PUSH2 0xCCE JUMP JUMPDEST SWAP4 SWAP3 POP POP POP JUMP JUMPDEST PUSH32 0x41756374696F6E20686173206E6F7420656E6465642079657400000000000000 PUSH0 DUP3 ADD MSTORE POP JUMP JUMPDEST PUSH0 PUSH2 0x10C9 PUSH1 0x19 DUP4 PUSH2 0xEAB JUMP JUMPDEST SWAP2 POP PUSH2 0x10D4 DUP3 PUSH2 0x1095 JUMP JUMPDEST PUSH1 0x20 DUP3 ADD SWAP1 POP SWAP2 SWAP1 POP JUMP JUMPDEST PUSH0 PUSH1 0x20 DUP3 ADD SWAP1 POP DUP2 DUP2 SUB PUSH0 DUP4 ADD MSTORE PUSH2 0x10F6 DUP2 PUSH2 0x10BD JUMP JUMPDEST SWAP1 POP SWAP2 SWAP1 POP JUMP JUMPDEST PUSH0 DUP2 SWAP1 POP SWAP2 SWAP1 POP JUMP JUMPDEST PUSH0 PUSH2 0x1120 PUSH2 0x111B PUSH2 0x1116 DUP5 PUSH2 0x10FD JUMP JUMPDEST PUSH2 0xC0F JUMP JUMPDEST PUSH2 0xB7F JUMP JUMPDEST SWAP1 POP SWAP2 SWAP1 POP JUMP JUMPDEST PUSH2 0x1130 DUP2 PUSH2 0x1106 JUMP JUMPDEST DUP3 MSTORE POP POP JUMP JUMPDEST PUSH0 PUSH1 0x40 DUP3 ADD SWAP1 POP PUSH2 0x1149 PUSH0 DUP4 ADD DUP6 PUSH2 0xCBF JUMP JUMPDEST PUSH2 0x1156 PUSH1 0x20 DUP4 ADD DUP5 PUSH2 0x1127 JUMP JUMPDEST SWAP4 SWAP3 POP POP POP JUMP INVALID LOG2 PUSH5 0x6970667358 0x22 SLT KECCAK256 0xD7 SWAP4 SWAP15 SWAP5 GASLIMIT 0xE7 ADDMOD RETURNDATASIZE 0xC3 MCOPY EXP SWAP13 PUSH4 0xCA51FC8D 0xD 0x1E CALL COINBASE 0xD2 ISZERO MULMOD SSTORE 0x1E 0xAB PUSH4 0x26EEF528 PUSH5 0x736F6C6343 STOP ADDMOD SHR STOP CALLER "
				},
				"gasEstimates": {
					"creation": {
						"codeDepositCost": "899800",
						"executionCost": "infinite",
						"totalCost": "infinite"
					},
					"external": {
						"auctionIdCounter()": "2491",
						"auctionNFT()": "infinite",
						"auctionToken()": "infinite",
						"auctions(uint256)": "infinite",
						"createAuction(uint256,uint256)": "infinite",
						"endAuction(uint256)": "infinite",
						"placeBid(uint256,uint256)": "infinite"
					}
				},
				"methodIdentifiers": {
					"auctionIdCounter()": "de0794ef",
					"auctionNFT()": "35af939b",
					"auctionToken()": "99fdb320",
					"auctions(uint256)": "571a26a0",
					"createAuction(uint256,uint256)": "0121683f",
					"endAuction(uint256)": "b9a2de3a",
					"placeBid(uint256,uint256)": "57c90de5"
				}
			},
			"storageLayout": {
				"storage": [
					{
						"astId": 226,
						"contract": "ETH - Henry/contracts/Trabajo-Final-Mod-3/AuctionPlatform.sol:AuctionPlatform",
						"label": "auctionToken",
						"offset": 0,
						"slot": "0",
						"type": "t_contract(IERC20)77"
					},
					{
						"astId": 229,
						"contract": "ETH - Henry/contracts/Trabajo-Final-Mod-3/AuctionPlatform.sol:AuctionPlatform",
						"label": "auctionNFT",
						"offset": 0,
						"slot": "1",
						"type": "t_contract(IERC721)194"
					},
					{
						"astId": 231,
						"contract": "ETH - Henry/contracts/Trabajo-Final-Mod-3/AuctionPlatform.sol:AuctionPlatform",
						"label": "auctionIdCounter",
						"offset": 0,
						"slot": "2",
						"type": "t_uint256"
					},
					{
						"astId": 236,
						"contract": "ETH - Henry/contracts/Trabajo-Final-Mod-3/AuctionPlatform.sol:AuctionPlatform",
						"label": "auctions",
						"offset": 0,
						"slot": "3",
						"type": "t_mapping(t_uint256,t_struct(Auction)223_storage)"
					}
				],
				"types": {
					"t_address": {
						"encoding": "inplace",
						"label": "address",
						"numberOfBytes": "20"
					},
					"t_bool": {
						"encoding": "inplace",
						"label": "bool",
						"numberOfBytes": "1"
					},
					"t_contract(IERC20)77": {
						"encoding": "inplace",
						"label": "contract IERC20",
						"numberOfBytes": "20"
					},
					"t_contract(IERC721)194": {
						"encoding": "inplace",
						"label": "contract IERC721",
						"numberOfBytes": "20"
					},
					"t_mapping(t_uint256,t_struct(Auction)223_storage)": {
						"encoding": "mapping",
						"key": "t_uint256",
						"label": "mapping(uint256 => struct AuctionPlatform.Auction)",
						"numberOfBytes": "32",
						"value": "t_struct(Auction)223_storage"
					},
					"t_struct(Auction)223_storage": {
						"encoding": "inplace",
						"label": "struct AuctionPlatform.Auction",
						"members": [
							{
								"astId": 212,
								"contract": "ETH - Henry/contracts/Trabajo-Final-Mod-3/AuctionPlatform.sol:AuctionPlatform",
								"label": "seller",
								"offset": 0,
								"slot": "0",
								"type": "t_address"
							},
							{
								"astId": 214,
								"contract": "ETH - Henry/contracts/Trabajo-Final-Mod-3/AuctionPlatform.sol:AuctionPlatform",
								"label": "highestBidder",
								"offset": 0,
								"slot": "1",
								"type": "t_address"
							},
							{
								"astId": 216,
								"contract": "ETH - Henry/contracts/Trabajo-Final-Mod-3/AuctionPlatform.sol:AuctionPlatform",
								"label": "highestBid",
								"offset": 0,
								"slot": "2",
								"type": "t_uint256"
							},
							{
								"astId": 218,
								"contract": "ETH - Henry/contracts/Trabajo-Final-Mod-3/AuctionPlatform.sol:AuctionPlatform",
								"label": "tokenId",
								"offset": 0,
								"slot": "3",
								"type": "t_uint256"
							},
							{
								"astId": 220,
								"contract": "ETH - Henry/contracts/Trabajo-Final-Mod-3/AuctionPlatform.sol:AuctionPlatform",
								"label": "endTime",
								"offset": 0,
								"slot": "4",
								"type": "t_uint256"
							},
							{
								"astId": 222,
								"contract": "ETH - Henry/contracts/Trabajo-Final-Mod-3/AuctionPlatform.sol:AuctionPlatform",
								"label": "active",
								"offset": 0,
								"slot": "5",
								"type": "t_bool"
							}
						],
						"numberOfBytes": "192"
					},
					"t_uint256": {
						"encoding": "inplace",
						"label": "uint256",
						"numberOfBytes": "32"
					}
				}
			},
			"userdoc": {
				"kind": "user",
				"methods": {},
				"version": 1
			}
		}
	}
}