{
	"data": {
		"bytecode": {
			"linkReferences": {},
			"object": "608060405234801561000f575f80fd5b50604051610d56380380610d5683398181016040528101906100319190610115565b815f806101000a81548173ffffffffffffffffffffffffffffffffffffffff021916908373ffffffffffffffffffffffffffffffffffffffff1602179055508060015f6101000a81548173ffffffffffffffffffffffffffffffffffffffff021916908373ffffffffffffffffffffffffffffffffffffffff1602179055505050610153565b5f80fd5b5f73ffffffffffffffffffffffffffffffffffffffff82169050919050565b5f6100e4826100bb565b9050919050565b6100f4816100da565b81146100fe575f80fd5b50565b5f8151905061010f816100eb565b92915050565b5f806040838503121561012b5761012a6100b7565b5b5f61013885828601610101565b925050602061014985828601610101565b9150509250929050565b610bf6806101605f395ff3fe608060405234801561000f575f80fd5b506004361061007b575f3560e01c806357c90de51161005957806357c90de5146100ee57806399fdb3201461010a578063b9a2de3a14610128578063de0794ef146101445761007b565b80630121683f1461007f57806335af939b1461009b578063571a26a0146100b9575b5f80fd5b610099600480360381019061009491906106f1565b610162565b005b6100a3610392565b6040516100b091906107a9565b60405180910390f35b6100d360048036038101906100ce91906107c2565b6103b7565b6040516100e596959493929190610836565b60405180910390f35b610108600480360381019061010391906106f1565b610439565b005b6101126105a0565b60405161011f91906108b5565b60405180910390f35b610142600480360381019061013d91906107c2565b6105c3565b005b61014c6106b4565b60405161015991906108ce565b60405180910390f35b60015f9054906101000a900473ffffffffffffffffffffffffffffffffffffffff1673ffffffffffffffffffffffffffffffffffffffff166323b872dd3330856040518463ffffffff1660e01b81526004016101c0939291906108e7565b5f604051808303815f87803b1580156101d7575f80fd5b505af11580156101e9573d5f803e3d5ffd5b505050505f60025f81548092919061020090610949565b9190505590506040518060c001604052803373ffffffffffffffffffffffffffffffffffffffff1681526020015f73ffffffffffffffffffffffffffffffffffffffff1681526020015f815260200184815260200183426102619190610990565b81526020016001151581525060035f8381526020019081526020015f205f820151815f015f6101000a81548173ffffffffffffffffffffffffffffffffffffffff021916908373ffffffffffffffffffffffffffffffffffffffff1602179055506020820151816001015f6101000a81548173ffffffffffffffffffffffffffffffffffffffff021916908373ffffffffffffffffffffffffffffffffffffffff16021790555060408201518160020155606082015181600301556080820151816004015560a0820151816005015f6101000a81548160ff021916908315150217905550905050807fd6eddd1118d71820909c1197aa966dbc15ed6f508554252169cc3d5ccac756ca8484426103779190610990565b6040516103859291906109c3565b60405180910390a2505050565b60015f9054906101000a900473ffffffffffffffffffffffffffffffffffffffff1681565b6003602052805f5260405f205f91509050805f015f9054906101000a900473ffffffffffffffffffffffffffffffffffffffff1690806001015f9054906101000a900473ffffffffffffffffffffffffffffffffffffffff1690806002015490806003015490806004015490806005015f9054906101000a900460ff16905086565b5f60035f8481526020019081526020015f20905080600401544210610493576040517f08c379a000000000000000000000000000000000000000000000000000000000815260040161048a90610a44565b60405180910390fd5b806005015f9054906101000a900460ff166104e3576040517f08c379a00000000000000000000000000000000000000000000000000000000081526004016104da90610aac565b60405180910390fd5b80600201548211610529576040517f08c379a000000000000000000000000000000000000000000000000000000000815260040161052090610b3a565b60405180910390fd5b5f73ffffffffffffffffffffffffffffffffffffffff16816001015f9054906101000a9050505081816002018190555033816001015f6101000a81548173ffffffffffffffffffffffffffffffffffffffff021916908373ffffffffffffffffffffffffffffffffffffffff160217905550505050565b5f8054906101000a900473ffffffffffffffffffffffffffffffffffffffff1681565b5f60035f8381526020019081526020015f209050806004015442101561061e576040517f08c379a000000000000000000000000000000000000000000000000000000000815260040161061590610ba2565b60405180910390fd5b806005015f9054906101000a900460ff1661066e576040517f08c379a000000000000000000000000000000000000000000000000000000000815260040161066590610aac565b60405180910390fd5b5f816005015f6101000a81548160ff0219169083151502179055505f73ffffffffffffffffffffffffffffffffffffffff16816001015f9054906101000a905050505050565b60025481565b5f80fd5b5f819050919050565b6106d0816106be565b81146106da575f80fd5b50565b5f813590506106eb816106c7565b92915050565b5f8060408385031215610707576107066106ba565b5b5f610714858286016106dd565b9250506020610725858286016106dd565b9150509250929050565b5f73ffffffffffffffffffffffffffffffffffffffff82169050919050565b5f819050919050565b5f61077161076c6107678461072f565b61074e565b61072f565b9050919050565b5f61078282610757565b9050919050565b5f61079382610778565b9050919050565b6107a381610789565b82525050565b5f6020820190506107bc5f83018461079a565b92915050565b5f602082840312156107d7576107d66106ba565b5b5f6107e4848285016106dd565b91505092915050565b5f6107f78261072f565b9050919050565b610807816107ed565b82525050565b610816816106be565b82525050565b5f8115159050919050565b6108308161081c565b82525050565b5f60c0820190506108495f8301896107fe565b61085660208301886107fe565b610863604083018761080d565b610870606083018661080d565b61087d608083018561080d565b61088a60a0830184610827565b979650505050505050565b5f61089f82610778565b9050919050565b6108af81610895565b82525050565b5f6020820190506108c85f8301846108a6565b92915050565b5f6020820190506108e15f83018461080d565b92915050565b5f6060820190506108fa5f8301866107fe565b61090760208301856107fe565b610914604083018461080d565b949350505050565b7f4e487b71000000000000000000000000000000000000000000000000000000005f52601160045260245ffd5b5f610953826106be565b91507fffffffffffffffffffffffffffffffffffffffffffffffffffffffffffffffff82036109855761098461091c565b5b600182019050919050565b5f61099a826106be565b91506109a5836106be565b92508282019050808211156109bd576109bc61091c565b5b92915050565b5f6040820190506109d65f83018561080d565b6109e3602083018461080d565b9392505050565b5f82825260208201905092915050565b7f41756374696f6e2068617320656e6465640000000000000000000000000000005f82015250565b5f610a2e6011836109ea565b9150610a39826109fa565b602082019050919050565b5f6020820190508181035f830152610a5b81610a22565b9050919050565b7f41756374696f6e206973206e6f742061637469766500000000000000000000005f82015250565b5f610a966015836109ea565b9150610aa182610a62565b602082019050919050565b5f6020820190508181035f830152610ac381610a8a565b9050919050565b7f426964206d75737420626520686967686572207468616e2063757272656e74205f8201527f6869676865737420626964000000000000000000000000000000000000000000602082015250565b5f610b24602b836109ea565b9150610b2f82610aca565b604082019050919050565b5f6020820190508181035f830152610b5181610b18565b9050919050565b7f41756374696f6e20686173206e6f7420656e64656420796574000000000000005f82015250565b5f610b8c6019836109ea565b9150610b9782610b58565b602082019050919050565b5f6020820190508181035f830152610bb981610b80565b905091905056fea26469706673582212206462c24965cc6c83a475d3999d3f79b79b3be33fa7b18643a7c6601df482a90564736f6c63430008160033",
			"opcodes": "PUSH1 0x80 PUSH1 0x40 MSTORE CALLVALUE DUP1 ISZERO PUSH2 0xF JUMPI PUSH0 DUP1 REVERT JUMPDEST POP PUSH1 0x40 MLOAD PUSH2 0xD56 CODESIZE SUB DUP1 PUSH2 0xD56 DUP4 CODECOPY DUP2 DUP2 ADD PUSH1 0x40 MSTORE DUP2 ADD SWAP1 PUSH2 0x31 SWAP2 SWAP1 PUSH2 0x115 JUMP JUMPDEST DUP2 PUSH0 DUP1 PUSH2 0x100 EXP DUP2 SLOAD DUP2 PUSH20 0xFFFFFFFFFFFFFFFFFFFFFFFFFFFFFFFFFFFFFFFF MUL NOT AND SWAP1 DUP4 PUSH20 0xFFFFFFFFFFFFFFFFFFFFFFFFFFFFFFFFFFFFFFFF AND MUL OR SWAP1 SSTORE POP DUP1 PUSH1 0x1 PUSH0 PUSH2 0x100 EXP DUP2 SLOAD DUP2 PUSH20 0xFFFFFFFFFFFFFFFFFFFFFFFFFFFFFFFFFFFFFFFF MUL NOT AND SWAP1 DUP4 PUSH20 0xFFFFFFFFFFFFFFFFFFFFFFFFFFFFFFFFFFFFFFFF AND MUL OR SWAP1 SSTORE POP POP POP PUSH2 0x153 JUMP JUMPDEST PUSH0 DUP1 REVERT JUMPDEST PUSH0 PUSH20 0xFFFFFFFFFFFFFFFFFFFFFFFFFFFFFFFFFFFFFFFF DUP3 AND SWAP1 POP SWAP2 SWAP1 POP JUMP JUMPDEST PUSH0 PUSH2 0xE4 DUP3 PUSH2 0xBB JUMP JUMPDEST SWAP1 POP SWAP2 SWAP1 POP JUMP JUMPDEST PUSH2 0xF4 DUP2 PUSH2 0xDA JUMP JUMPDEST DUP2 EQ PUSH2 0xFE JUMPI PUSH0 DUP1 REVERT JUMPDEST POP JUMP JUMPDEST PUSH0 DUP2 MLOAD SWAP1 POP PUSH2 0x10F DUP2 PUSH2 0xEB JUMP JUMPDEST SWAP3 SWAP2 POP POP JUMP JUMPDEST PUSH0 DUP1 PUSH1 0x40 DUP4 DUP6 SUB SLT ISZERO PUSH2 0x12B JUMPI PUSH2 0x12A PUSH2 0xB7 JUMP JUMPDEST JUMPDEST PUSH0 PUSH2 0x138 DUP6 DUP3 DUP7 ADD PUSH2 0x101 JUMP JUMPDEST SWAP3 POP POP PUSH1 0x20 PUSH2 0x149 DUP6 DUP3 DUP7 ADD PUSH2 0x101 JUMP JUMPDEST SWAP2 POP POP SWAP3 POP SWAP3 SWAP1 POP JUMP JUMPDEST PUSH2 0xBF6 DUP1 PUSH2 0x160 PUSH0 CODECOPY PUSH0 RETURN INVALID PUSH1 0x80 PUSH1 0x40 MSTORE CALLVALUE DUP1 ISZERO PUSH2 0xF JUMPI PUSH0 DUP1 REVERT JUMPDEST POP PUSH1 0x4 CALLDATASIZE LT PUSH2 0x7B JUMPI PUSH0 CALLDATALOAD PUSH1 0xE0 SHR DUP1 PUSH4 0x57C90DE5 GT PUSH2 0x59 JUMPI DUP1 PUSH4 0x57C90DE5 EQ PUSH2 0xEE JUMPI DUP1 PUSH4 0x99FDB320 EQ PUSH2 0x10A JUMPI DUP1 PUSH4 0xB9A2DE3A EQ PUSH2 0x128 JUMPI DUP1 PUSH4 0xDE0794EF EQ PUSH2 0x144 JUMPI PUSH2 0x7B JUMP JUMPDEST DUP1 PUSH4 0x121683F EQ PUSH2 0x7F JUMPI DUP1 PUSH4 0x35AF939B EQ PUSH2 0x9B JUMPI DUP1 PUSH4 0x571A26A0 EQ PUSH2 0xB9 JUMPI JUMPDEST PUSH0 DUP1 REVERT JUMPDEST PUSH2 0x99 PUSH1 0x4 DUP1 CALLDATASIZE SUB DUP2 ADD SWAP1 PUSH2 0x94 SWAP2 SWAP1 PUSH2 0x6F1 JUMP JUMPDEST PUSH2 0x162 JUMP JUMPDEST STOP JUMPDEST PUSH2 0xA3 PUSH2 0x392 JUMP JUMPDEST PUSH1 0x40 MLOAD PUSH2 0xB0 SWAP2 SWAP1 PUSH2 0x7A9 JUMP JUMPDEST PUSH1 0x40 MLOAD DUP1 SWAP2 SUB SWAP1 RETURN JUMPDEST PUSH2 0xD3 PUSH1 0x4 DUP1 CALLDATASIZE SUB DUP2 ADD SWAP1 PUSH2 0xCE SWAP2 SWAP1 PUSH2 0x7C2 JUMP JUMPDEST PUSH2 0x3B7 JUMP JUMPDEST PUSH1 0x40 MLOAD PUSH2 0xE5 SWAP7 SWAP6 SWAP5 SWAP4 SWAP3 SWAP2 SWAP1 PUSH2 0x836 JUMP JUMPDEST PUSH1 0x40 MLOAD DUP1 SWAP2 SUB SWAP1 RETURN JUMPDEST PUSH2 0x108 PUSH1 0x4 DUP1 CALLDATASIZE SUB DUP2 ADD SWAP1 PUSH2 0x103 SWAP2 SWAP1 PUSH2 0x6F1 JUMP JUMPDEST PUSH2 0x439 JUMP JUMPDEST STOP JUMPDEST PUSH2 0x112 PUSH2 0x5A0 JUMP JUMPDEST PUSH1 0x40 MLOAD PUSH2 0x11F SWAP2 SWAP1 PUSH2 0x8B5 JUMP JUMPDEST PUSH1 0x40 MLOAD DUP1 SWAP2 SUB SWAP1 RETURN JUMPDEST PUSH2 0x142 PUSH1 0x4 DUP1 CALLDATASIZE SUB DUP2 ADD SWAP1 PUSH2 0x13D SWAP2 SWAP1 PUSH2 0x7C2 JUMP JUMPDEST PUSH2 0x5C3 JUMP JUMPDEST STOP JUMPDEST PUSH2 0x14C PUSH2 0x6B4 JUMP JUMPDEST PUSH1 0x40 MLOAD PUSH2 0x159 SWAP2 SWAP1 PUSH2 0x8CE JUMP JUMPDEST PUSH1 0x40 MLOAD DUP1 SWAP2 SUB SWAP1 RETURN JUMPDEST PUSH1 0x1 PUSH0 SWAP1 SLOAD SWAP1 PUSH2 0x100 EXP SWAP1 DIV PUSH20 0xFFFFFFFFFFFFFFFFFFFFFFFFFFFFFFFFFFFFFFFF AND PUSH20 0xFFFFFFFFFFFFFFFFFFFFFFFFFFFFFFFFFFFFFFFF AND PUSH4 0x23B872DD CALLER ADDRESS DUP6 PUSH1 0x40 MLOAD DUP5 PUSH4 0xFFFFFFFF AND PUSH1 0xE0 SHL DUP2 MSTORE PUSH1 0x4 ADD PUSH2 0x1C0 SWAP4 SWAP3 SWAP2 SWAP1 PUSH2 0x8E7 JUMP JUMPDEST PUSH0 PUSH1 0x40 MLOAD DUP1 DUP4 SUB DUP2 PUSH0 DUP8 DUP1 EXTCODESIZE ISZERO DUP1 ISZERO PUSH2 0x1D7 JUMPI PUSH0 DUP1 REVERT JUMPDEST POP GAS CALL ISZERO DUP1 ISZERO PUSH2 0x1E9 JUMPI RETURNDATASIZE PUSH0 DUP1 RETURNDATACOPY RETURNDATASIZE PUSH0 REVERT JUMPDEST POP POP POP POP PUSH0 PUSH1 0x2 PUSH0 DUP2 SLOAD DUP1 SWAP3 SWAP2 SWAP1 PUSH2 0x200 SWAP1 PUSH2 0x949 JUMP JUMPDEST SWAP2 SWAP1 POP SSTORE SWAP1 POP PUSH1 0x40 MLOAD DUP1 PUSH1 0xC0 ADD PUSH1 0x40 MSTORE DUP1 CALLER PUSH20 0xFFFFFFFFFFFFFFFFFFFFFFFFFFFFFFFFFFFFFFFF AND DUP2 MSTORE PUSH1 0x20 ADD PUSH0 PUSH20 0xFFFFFFFFFFFFFFFFFFFFFFFFFFFFFFFFFFFFFFFF AND DUP2 MSTORE PUSH1 0x20 ADD PUSH0 DUP2 MSTORE PUSH1 0x20 ADD DUP5 DUP2 MSTORE PUSH1 0x20 ADD DUP4 TIMESTAMP PUSH2 0x261 SWAP2 SWAP1 PUSH2 0x990 JUMP JUMPDEST DUP2 MSTORE PUSH1 0x20 ADD PUSH1 0x1 ISZERO ISZERO DUP2 MSTORE POP PUSH1 0x3 PUSH0 DUP4 DUP2 MSTORE PUSH1 0x20 ADD SWAP1 DUP2 MSTORE PUSH1 0x20 ADD PUSH0 KECCAK256 PUSH0 DUP3 ADD MLOAD DUP2 PUSH0 ADD PUSH0 PUSH2 0x100 EXP DUP2 SLOAD DUP2 PUSH20 0xFFFFFFFFFFFFFFFFFFFFFFFFFFFFFFFFFFFFFFFF MUL NOT AND SWAP1 DUP4 PUSH20 0xFFFFFFFFFFFFFFFFFFFFFFFFFFFFFFFFFFFFFFFF AND MUL OR SWAP1 SSTORE POP PUSH1 0x20 DUP3 ADD MLOAD DUP2 PUSH1 0x1 ADD PUSH0 PUSH2 0x100 EXP DUP2 SLOAD DUP2 PUSH20 0xFFFFFFFFFFFFFFFFFFFFFFFFFFFFFFFFFFFFFFFF MUL NOT AND SWAP1 DUP4 PUSH20 0xFFFFFFFFFFFFFFFFFFFFFFFFFFFFFFFFFFFFFFFF AND MUL OR SWAP1 SSTORE POP PUSH1 0x40 DUP3 ADD MLOAD DUP2 PUSH1 0x2 ADD SSTORE PUSH1 0x60 DUP3 ADD MLOAD DUP2 PUSH1 0x3 ADD SSTORE PUSH1 0x80 DUP3 ADD MLOAD DUP2 PUSH1 0x4 ADD SSTORE PUSH1 0xA0 DUP3 ADD MLOAD DUP2 PUSH1 0x5 ADD PUSH0 PUSH2 0x100 EXP DUP2 SLOAD DUP2 PUSH1 0xFF MUL NOT AND SWAP1 DUP4 ISZERO ISZERO MUL OR SWAP1 SSTORE POP SWAP1 POP POP DUP1 PUSH32 0xD6EDDD1118D71820909C1197AA966DBC15ED6F508554252169CC3D5CCAC756CA DUP5 DUP5 TIMESTAMP PUSH2 0x377 SWAP2 SWAP1 PUSH2 0x990 JUMP JUMPDEST PUSH1 0x40 MLOAD PUSH2 0x385 SWAP3 SWAP2 SWAP1 PUSH2 0x9C3 JUMP JUMPDEST PUSH1 0x40 MLOAD DUP1 SWAP2 SUB SWAP1 LOG2 POP POP POP JUMP JUMPDEST PUSH1 0x1 PUSH0 SWAP1 SLOAD SWAP1 PUSH2 0x100 EXP SWAP1 DIV PUSH20 0xFFFFFFFFFFFFFFFFFFFFFFFFFFFFFFFFFFFFFFFF AND DUP2 JUMP JUMPDEST PUSH1 0x3 PUSH1 0x20 MSTORE DUP1 PUSH0 MSTORE PUSH1 0x40 PUSH0 KECCAK256 PUSH0 SWAP2 POP SWAP1 POP DUP1 PUSH0 ADD PUSH0 SWAP1 SLOAD SWAP1 PUSH2 0x100 EXP SWAP1 DIV PUSH20 0xFFFFFFFFFFFFFFFFFFFFFFFFFFFFFFFFFFFFFFFF AND SWAP1 DUP1 PUSH1 0x1 ADD PUSH0 SWAP1 SLOAD SWAP1 PUSH2 0x100 EXP SWAP1 DIV PUSH20 0xFFFFFFFFFFFFFFFFFFFFFFFFFFFFFFFFFFFFFFFF AND SWAP1 DUP1 PUSH1 0x2 ADD SLOAD SWAP1 DUP1 PUSH1 0x3 ADD SLOAD SWAP1 DUP1 PUSH1 0x4 ADD SLOAD SWAP1 DUP1 PUSH1 0x5 ADD PUSH0 SWAP1 SLOAD SWAP1 PUSH2 0x100 EXP SWAP1 DIV PUSH1 0xFF AND SWAP1 POP DUP7 JUMP JUMPDEST PUSH0 PUSH1 0x3 PUSH0 DUP5 DUP2 MSTORE PUSH1 0x20 ADD SWAP1 DUP2 MSTORE PUSH1 0x20 ADD PUSH0 KECCAK256 SWAP1 POP DUP1 PUSH1 0x4 ADD SLOAD TIMESTAMP LT PUSH2 0x493 JUMPI PUSH1 0x40 MLOAD PUSH32 0x8C379A000000000000000000000000000000000000000000000000000000000 DUP2 MSTORE PUSH1 0x4 ADD PUSH2 0x48A SWAP1 PUSH2 0xA44 JUMP JUMPDEST PUSH1 0x40 MLOAD DUP1 SWAP2 SUB SWAP1 REVERT JUMPDEST DUP1 PUSH1 0x5 ADD PUSH0 SWAP1 SLOAD SWAP1 PUSH2 0x100 EXP SWAP1 DIV PUSH1 0xFF AND PUSH2 0x4E3 JUMPI PUSH1 0x40 MLOAD PUSH32 0x8C379A000000000000000000000000000000000000000000000000000000000 DUP2 MSTORE PUSH1 0x4 ADD PUSH2 0x4DA SWAP1 PUSH2 0xAAC JUMP JUMPDEST PUSH1 0x40 MLOAD DUP1 SWAP2 SUB SWAP1 REVERT JUMPDEST DUP1 PUSH1 0x2 ADD SLOAD DUP3 GT PUSH2 0x529 JUMPI PUSH1 0x40 MLOAD PUSH32 0x8C379A000000000000000000000000000000000000000000000000000000000 DUP2 MSTORE PUSH1 0x4 ADD PUSH2 0x520 SWAP1 PUSH2 0xB3A JUMP JUMPDEST PUSH1 0x40 MLOAD DUP1 SWAP2 SUB SWAP1 REVERT JUMPDEST PUSH0 PUSH20 0xFFFFFFFFFFFFFFFFFFFFFFFFFFFFFFFFFFFFFFFF AND DUP2 PUSH1 0x1 ADD PUSH0 SWAP1 SLOAD SWAP1 PUSH2 0x100 EXP SWAP1 POP POP POP DUP2 DUP2 PUSH1 0x2 ADD DUP2 SWAP1 SSTORE POP CALLER DUP2 PUSH1 0x1 ADD PUSH0 PUSH2 0x100 EXP DUP2 SLOAD DUP2 PUSH20 0xFFFFFFFFFFFFFFFFFFFFFFFFFFFFFFFFFFFFFFFF MUL NOT AND SWAP1 DUP4 PUSH20 0xFFFFFFFFFFFFFFFFFFFFFFFFFFFFFFFFFFFFFFFF AND MUL OR SWAP1 SSTORE POP POP POP POP JUMP JUMPDEST PUSH0 DUP1 SLOAD SWAP1 PUSH2 0x100 EXP SWAP1 DIV PUSH20 0xFFFFFFFFFFFFFFFFFFFFFFFFFFFFFFFFFFFFFFFF AND DUP2 JUMP JUMPDEST PUSH0 PUSH1 0x3 PUSH0 DUP4 DUP2 MSTORE PUSH1 0x20 ADD SWAP1 DUP2 MSTORE PUSH1 0x20 ADD PUSH0 KECCAK256 SWAP1 POP DUP1 PUSH1 0x4 ADD SLOAD TIMESTAMP LT ISZERO PUSH2 0x61E JUMPI PUSH1 0x40 MLOAD PUSH32 0x8C379A000000000000000000000000000000000000000000000000000000000 DUP2 MSTORE PUSH1 0x4 ADD PUSH2 0x615 SWAP1 PUSH2 0xBA2 JUMP JUMPDEST PUSH1 0x40 MLOAD DUP1 SWAP2 SUB SWAP1 REVERT JUMPDEST DUP1 PUSH1 0x5 ADD PUSH0 SWAP1 SLOAD SWAP1 PUSH2 0x100 EXP SWAP1 DIV PUSH1 0xFF AND PUSH2 0x66E JUMPI PUSH1 0x40 MLOAD PUSH32 0x8C379A000000000000000000000000000000000000000000000000000000000 DUP2 MSTORE PUSH1 0x4 ADD PUSH2 0x665 SWAP1 PUSH2 0xAAC JUMP JUMPDEST PUSH1 0x40 MLOAD DUP1 SWAP2 SUB SWAP1 REVERT JUMPDEST PUSH0 DUP2 PUSH1 0x5 ADD PUSH0 PUSH2 0x100 EXP DUP2 SLOAD DUP2 PUSH1 0xFF MUL NOT AND SWAP1 DUP4 ISZERO ISZERO MUL OR SWAP1 SSTORE POP PUSH0 PUSH20 0xFFFFFFFFFFFFFFFFFFFFFFFFFFFFFFFFFFFFFFFF AND DUP2 PUSH1 0x1 ADD PUSH0 SWAP1 SLOAD SWAP1 PUSH2 0x100 EXP SWAP1 POP POP POP POP POP JUMP JUMPDEST PUSH1 0x2 SLOAD DUP2 JUMP JUMPDEST PUSH0 DUP1 REVERT JUMPDEST PUSH0 DUP2 SWAP1 POP SWAP2 SWAP1 POP JUMP JUMPDEST PUSH2 0x6D0 DUP2 PUSH2 0x6BE JUMP JUMPDEST DUP2 EQ PUSH2 0x6DA JUMPI PUSH0 DUP1 REVERT JUMPDEST POP JUMP JUMPDEST PUSH0 DUP2 CALLDATALOAD SWAP1 POP PUSH2 0x6EB DUP2 PUSH2 0x6C7 JUMP JUMPDEST SWAP3 SWAP2 POP POP JUMP JUMPDEST PUSH0 DUP1 PUSH1 0x40 DUP4 DUP6 SUB SLT ISZERO PUSH2 0x707 JUMPI PUSH2 0x706 PUSH2 0x6BA JUMP JUMPDEST JUMPDEST PUSH0 PUSH2 0x714 DUP6 DUP3 DUP7 ADD PUSH2 0x6DD JUMP JUMPDEST SWAP3 POP POP PUSH1 0x20 PUSH2 0x725 DUP6 DUP3 DUP7 ADD PUSH2 0x6DD JUMP JUMPDEST SWAP2 POP POP SWAP3 POP SWAP3 SWAP1 POP JUMP JUMPDEST PUSH0 PUSH20 0xFFFFFFFFFFFFFFFFFFFFFFFFFFFFFFFFFFFFFFFF DUP3 AND SWAP1 POP SWAP2 SWAP1 POP JUMP JUMPDEST PUSH0 DUP2 SWAP1 POP SWAP2 SWAP1 POP JUMP JUMPDEST PUSH0 PUSH2 0x771 PUSH2 0x76C PUSH2 0x767 DUP5 PUSH2 0x72F JUMP JUMPDEST PUSH2 0x74E JUMP JUMPDEST PUSH2 0x72F JUMP JUMPDEST SWAP1 POP SWAP2 SWAP1 POP JUMP JUMPDEST PUSH0 PUSH2 0x782 DUP3 PUSH2 0x757 JUMP JUMPDEST SWAP1 POP SWAP2 SWAP1 POP JUMP JUMPDEST PUSH0 PUSH2 0x793 DUP3 PUSH2 0x778 JUMP JUMPDEST SWAP1 POP SWAP2 SWAP1 POP JUMP JUMPDEST PUSH2 0x7A3 DUP2 PUSH2 0x789 JUMP JUMPDEST DUP3 MSTORE POP POP JUMP JUMPDEST PUSH0 PUSH1 0x20 DUP3 ADD SWAP1 POP PUSH2 0x7BC PUSH0 DUP4 ADD DUP5 PUSH2 0x79A JUMP JUMPDEST SWAP3 SWAP2 POP POP JUMP JUMPDEST PUSH0 PUSH1 0x20 DUP3 DUP5 SUB SLT ISZERO PUSH2 0x7D7 JUMPI PUSH2 0x7D6 PUSH2 0x6BA JUMP JUMPDEST JUMPDEST PUSH0 PUSH2 0x7E4 DUP5 DUP3 DUP6 ADD PUSH2 0x6DD JUMP JUMPDEST SWAP2 POP POP SWAP3 SWAP2 POP POP JUMP JUMPDEST PUSH0 PUSH2 0x7F7 DUP3 PUSH2 0x72F JUMP JUMPDEST SWAP1 POP SWAP2 SWAP1 POP JUMP JUMPDEST PUSH2 0x807 DUP2 PUSH2 0x7ED JUMP JUMPDEST DUP3 MSTORE POP POP JUMP JUMPDEST PUSH2 0x816 DUP2 PUSH2 0x6BE JUMP JUMPDEST DUP3 MSTORE POP POP JUMP JUMPDEST PUSH0 DUP2 ISZERO ISZERO SWAP1 POP SWAP2 SWAP1 POP JUMP JUMPDEST PUSH2 0x830 DUP2 PUSH2 0x81C JUMP JUMPDEST DUP3 MSTORE POP POP JUMP JUMPDEST PUSH0 PUSH1 0xC0 DUP3 ADD SWAP1 POP PUSH2 0x849 PUSH0 DUP4 ADD DUP10 PUSH2 0x7FE JUMP JUMPDEST PUSH2 0x856 PUSH1 0x20 DUP4 ADD DUP9 PUSH2 0x7FE JUMP JUMPDEST PUSH2 0x863 PUSH1 0x40 DUP4 ADD DUP8 PUSH2 0x80D JUMP JUMPDEST PUSH2 0x870 PUSH1 0x60 DUP4 ADD DUP7 PUSH2 0x80D JUMP JUMPDEST PUSH2 0x87D PUSH1 0x80 DUP4 ADD DUP6 PUSH2 0x80D JUMP JUMPDEST PUSH2 0x88A PUSH1 0xA0 DUP4 ADD DUP5 PUSH2 0x827 JUMP JUMPDEST SWAP8 SWAP7 POP POP POP POP POP POP POP JUMP JUMPDEST PUSH0 PUSH2 0x89F DUP3 PUSH2 0x778 JUMP JUMPDEST SWAP1 POP SWAP2 SWAP1 POP JUMP JUMPDEST PUSH2 0x8AF DUP2 PUSH2 0x895 JUMP JUMPDEST DUP3 MSTORE POP POP JUMP JUMPDEST PUSH0 PUSH1 0x20 DUP3 ADD SWAP1 POP PUSH2 0x8C8 PUSH0 DUP4 ADD DUP5 PUSH2 0x8A6 JUMP JUMPDEST SWAP3 SWAP2 POP POP JUMP JUMPDEST PUSH0 PUSH1 0x20 DUP3 ADD SWAP1 POP PUSH2 0x8E1 PUSH0 DUP4 ADD DUP5 PUSH2 0x80D JUMP JUMPDEST SWAP3 SWAP2 POP POP JUMP JUMPDEST PUSH0 PUSH1 0x60 DUP3 ADD SWAP1 POP PUSH2 0x8FA PUSH0 DUP4 ADD DUP7 PUSH2 0x7FE JUMP JUMPDEST PUSH2 0x907 PUSH1 0x20 DUP4 ADD DUP6 PUSH2 0x7FE JUMP JUMPDEST PUSH2 0x914 PUSH1 0x40 DUP4 ADD DUP5 PUSH2 0x80D JUMP JUMPDEST SWAP5 SWAP4 POP POP POP POP JUMP JUMPDEST PUSH32 0x4E487B7100000000000000000000000000000000000000000000000000000000 PUSH0 MSTORE PUSH1 0x11 PUSH1 0x4 MSTORE PUSH1 0x24 PUSH0 REVERT JUMPDEST PUSH0 PUSH2 0x953 DUP3 PUSH2 0x6BE JUMP JUMPDEST SWAP2 POP PUSH32 0xFFFFFFFFFFFFFFFFFFFFFFFFFFFFFFFFFFFFFFFFFFFFFFFFFFFFFFFFFFFFFFFF DUP3 SUB PUSH2 0x985 JUMPI PUSH2 0x984 PUSH2 0x91C JUMP JUMPDEST JUMPDEST PUSH1 0x1 DUP3 ADD SWAP1 POP SWAP2 SWAP1 POP JUMP JUMPDEST PUSH0 PUSH2 0x99A DUP3 PUSH2 0x6BE JUMP JUMPDEST SWAP2 POP PUSH2 0x9A5 DUP4 PUSH2 0x6BE JUMP JUMPDEST SWAP3 POP DUP3 DUP3 ADD SWAP1 POP DUP1 DUP3 GT ISZERO PUSH2 0x9BD JUMPI PUSH2 0x9BC PUSH2 0x91C JUMP JUMPDEST JUMPDEST SWAP3 SWAP2 POP POP JUMP JUMPDEST PUSH0 PUSH1 0x40 DUP3 ADD SWAP1 POP PUSH2 0x9D6 PUSH0 DUP4 ADD DUP6 PUSH2 0x80D JUMP JUMPDEST PUSH2 0x9E3 PUSH1 0x20 DUP4 ADD DUP5 PUSH2 0x80D JUMP JUMPDEST SWAP4 SWAP3 POP POP POP JUMP JUMPDEST PUSH0 DUP3 DUP3 MSTORE PUSH1 0x20 DUP3 ADD SWAP1 POP SWAP3 SWAP2 POP POP JUMP JUMPDEST PUSH32 0x41756374696F6E2068617320656E646564000000000000000000000000000000 PUSH0 DUP3 ADD MSTORE POP JUMP JUMPDEST PUSH0 PUSH2 0xA2E PUSH1 0x11 DUP4 PUSH2 0x9EA JUMP JUMPDEST SWAP2 POP PUSH2 0xA39 DUP3 PUSH2 0x9FA JUMP JUMPDEST PUSH1 0x20 DUP3 ADD SWAP1 POP SWAP2 SWAP1 POP JUMP JUMPDEST PUSH0 PUSH1 0x20 DUP3 ADD SWAP1 POP DUP2 DUP2 SUB PUSH0 DUP4 ADD MSTORE PUSH2 0xA5B DUP2 PUSH2 0xA22 JUMP JUMPDEST SWAP1 POP SWAP2 SWAP1 POP JUMP JUMPDEST PUSH32 0x41756374696F6E206973206E6F74206163746976650000000000000000000000 PUSH0 DUP3 ADD MSTORE POP JUMP JUMPDEST PUSH0 PUSH2 0xA96 PUSH1 0x15 DUP4 PUSH2 0x9EA JUMP JUMPDEST SWAP2 POP PUSH2 0xAA1 DUP3 PUSH2 0xA62 JUMP JUMPDEST PUSH1 0x20 DUP3 ADD SWAP1 POP SWAP2 SWAP1 POP JUMP JUMPDEST PUSH0 PUSH1 0x20 DUP3 ADD SWAP1 POP DUP2 DUP2 SUB PUSH0 DUP4 ADD MSTORE PUSH2 0xAC3 DUP2 PUSH2 0xA8A JUMP JUMPDEST SWAP1 POP SWAP2 SWAP1 POP JUMP JUMPDEST PUSH32 0x426964206D75737420626520686967686572207468616E2063757272656E7420 PUSH0 DUP3 ADD MSTORE PUSH32 0x6869676865737420626964000000000000000000000000000000000000000000 PUSH1 0x20 DUP3 ADD MSTORE POP JUMP JUMPDEST PUSH0 PUSH2 0xB24 PUSH1 0x2B DUP4 PUSH2 0x9EA JUMP JUMPDEST SWAP2 POP PUSH2 0xB2F DUP3 PUSH2 0xACA JUMP JUMPDEST PUSH1 0x40 DUP3 ADD SWAP1 POP SWAP2 SWAP1 POP JUMP JUMPDEST PUSH0 PUSH1 0x20 DUP3 ADD SWAP1 POP DUP2 DUP2 SUB PUSH0 DUP4 ADD MSTORE PUSH2 0xB51 DUP2 PUSH2 0xB18 JUMP JUMPDEST SWAP1 POP SWAP2 SWAP1 POP JUMP JUMPDEST PUSH32 0x41756374696F6E20686173206E6F7420656E6465642079657400000000000000 PUSH0 DUP3 ADD MSTORE POP JUMP JUMPDEST PUSH0 PUSH2 0xB8C PUSH1 0x19 DUP4 PUSH2 0x9EA JUMP JUMPDEST SWAP2 POP PUSH2 0xB97 DUP3 PUSH2 0xB58 JUMP JUMPDEST PUSH1 0x20 DUP3 ADD SWAP1 POP SWAP2 SWAP1 POP JUMP JUMPDEST PUSH0 PUSH1 0x20 DUP3 ADD SWAP1 POP DUP2 DUP2 SUB PUSH0 DUP4 ADD MSTORE PUSH2 0xBB9 DUP2 PUSH2 0xB80 JUMP JUMPDEST SWAP1 POP SWAP2 SWAP1 POP JUMP INVALID LOG2 PUSH5 0x6970667358 0x22 SLT KECCAK256 PUSH5 0x62C24965CC PUSH13 0x83A475D3999D3F79B79B3BE33F 0xA7 0xB1 DUP7 NUMBER 0xA7 0xC6 PUSH1 0x1D DELEGATECALL DUP3 0xA9 SDIV PUSH5 0x736F6C6343 STOP ADDMOD AND STOP CALLER "
		},
		"gasEstimates": {
			"creation": {
				"codeDepositCost": "612400",
				"executionCost": "infinite",
				"totalCost": "infinite"
			},
			"external": {
				"auctionIdCounter()": "2491",
				"auctionNFT()": "infinite",
				"auctionToken()": "infinite",
				"auctions(uint256)": "infinite",
				"createAuction(uint256,uint256)": "infinite",
				"endAuction(uint256)": "31240",
				"placeBid(uint256,uint256)": "infinite"
			}
		},
		"methodIdentifiers": {
			"auctionIdCounter()": "de0794ef",
			"auctionNFT()": "35af939b",
			"auctionToken()": "99fdb320",
			"auctions(uint256)": "571a26a0",
			"createAuction(uint256,uint256)": "0121683f",
			"endAuction(uint256)": "b9a2de3a",
			"placeBid(uint256,uint256)": "57c90de5"
		}
	},
	"abi": [
		{
			"inputs": [
				{
					"internalType": "address",
					"name": "_auctionToken",
					"type": "address"
				},
				{
					"internalType": "address",
					"name": "_auctionNFT",
					"type": "address"
				}
			],
			"stateMutability": "nonpayable",
			"type": "constructor"
		},
		{
			"anonymous": false,
			"inputs": [
				{
					"indexed": true,
					"internalType": "uint256",
					"name": "auctionId",
					"type": "uint256"
				},
				{
					"indexed": false,
					"internalType": "uint256",
					"name": "tokenId",
					"type": "uint256"
				},
				{
					"indexed": false,
					"internalType": "uint256",
					"name": "endTime",
					"type": "uint256"
				}
			],
			"name": "AuctionCreated",
			"type": "event"
		},
		{
			"anonymous": false,
			"inputs": [
				{
					"indexed": true,
					"internalType": "uint256",
					"name": "auctionId",
					"type": "uint256"
				},
				{
					"indexed": false,
					"internalType": "address",
					"name": "winner",
					"type": "address"
				},
				{
					"indexed": false,
					"internalType": "uint256",
					"name": "bidAmount",
					"type": "uint256"
				}
			],
			"name": "AuctionEnded",
			"type": "event"
		},
		{
			"anonymous": false,
			"inputs": [
				{
					"indexed": true,
					"internalType": "uint256",
					"name": "auctionId",
					"type": "uint256"
				},
				{
					"indexed": false,
					"internalType": "address",
					"name": "bidder",
					"type": "address"
				},
				{
					"indexed": false,
					"internalType": "uint256",
					"name": "bidAmount",
					"type": "uint256"
				}
			],
			"name": "NewBid",
			"type": "event"
		},
		{
			"inputs": [],
			"name": "auctionIdCounter",
			"outputs": [
				{
					"internalType": "uint256",
					"name": "",
					"type": "uint256"
				}
			],
			"stateMutability": "view",
			"type": "function"
		},
		{
			"inputs": [],
			"name": "auctionNFT",
			"outputs": [
				{
					"internalType": "contract IERC721",
					"name": "",
					"type": "address"
				}
			],
			"stateMutability": "view",
			"type": "function"
		},
		{
			"inputs": [],
			"name": "auctionToken",
			"outputs": [
				{
					"internalType": "contract IERC20",
					"name": "",
					"type": "address"
				}
			],
			"stateMutability": "view",
			"type": "function"
		},
		{
			"inputs": [
				{
					"internalType": "uint256",
					"name": "",
					"type": "uint256"
				}
			],
			"name": "auctions",
			"outputs": [
				{
					"internalType": "address",
					"name": "seller",
					"type": "address"
				},
				{
					"internalType": "address",
					"name": "highestBidder",
					"type": "address"
				},
				{
					"internalType": "uint256",
					"name": "highestBid",
					"type": "uint256"
				},
				{
					"internalType": "uint256",
					"name": "tokenId",
					"type": "uint256"
				},
				{
					"internalType": "uint256",
					"name": "endTime",
					"type": "uint256"
				},
				{
					"internalType": "bool",
					"name": "active",
					"type": "bool"
				}
			],
			"stateMutability": "view",
			"type": "function"
		},
		{
			"inputs": [
				{
					"internalType": "uint256",
					"name": "tokenId",
					"type": "uint256"
				},
				{
					"internalType": "uint256",
					"name": "duration",
					"type": "uint256"
				}
			],
			"name": "createAuction",
			"outputs": [],
			"stateMutability": "nonpayable",
			"type": "function"
		},
		{
			"inputs": [
				{
					"internalType": "uint256",
					"name": "auctionId",
					"type": "uint256"
				}
			],
			"name": "endAuction",
			"outputs": [],
			"stateMutability": "nonpayable",
			"type": "function"
		},
		{
			"inputs": [
				{
					"internalType": "uint256",
					"name": "auctionId",
					"type": "uint256"
				},
				{
					"internalType": "uint256",
					"name": "bidAmount",
					"type": "uint256"
				}
			],
			"name": "placeBid",
			"outputs": [],
			"stateMutability": "nonpayable",
			"type": "function"
		}
	]
}