{
	"ETH - Henry/contracts/SimpleBank.sol": {
		"SimpleBank": {
			"abi": [
				{
					"inputs": [
						{
							"internalType": "uint256",
							"name": "_fee",
							"type": "uint256"
						},
						{
							"internalType": "address",
							"name": "_treasury",
							"type": "address"
						}
					],
					"stateMutability": "nonpayable",
					"type": "constructor"
				},
				{
					"anonymous": false,
					"inputs": [
						{
							"indexed": true,
							"internalType": "address",
							"name": "userAddress",
							"type": "address"
						},
						{
							"indexed": false,
							"internalType": "uint256",
							"name": "amount",
							"type": "uint256"
						}
					],
					"name": "Deposit",
					"type": "event"
				},
				{
					"anonymous": false,
					"inputs": [
						{
							"indexed": true,
							"internalType": "address",
							"name": "owner",
							"type": "address"
						},
						{
							"indexed": false,
							"internalType": "uint256",
							"name": "amount",
							"type": "uint256"
						}
					],
					"name": "TreasuryWithdrawal",
					"type": "event"
				},
				{
					"anonymous": false,
					"inputs": [
						{
							"indexed": true,
							"internalType": "address",
							"name": "userAddress",
							"type": "address"
						},
						{
							"indexed": false,
							"internalType": "string",
							"name": "firstName",
							"type": "string"
						},
						{
							"indexed": false,
							"internalType": "string",
							"name": "lastName",
							"type": "string"
						}
					],
					"name": "UserRegistered",
					"type": "event"
				},
				{
					"anonymous": false,
					"inputs": [
						{
							"indexed": true,
							"internalType": "address",
							"name": "userAddress",
							"type": "address"
						},
						{
							"indexed": false,
							"internalType": "uint256",
							"name": "amount",
							"type": "uint256"
						},
						{
							"indexed": false,
							"internalType": "uint256",
							"name": "fee",
							"type": "uint256"
						}
					],
					"name": "Withdrawal",
					"type": "event"
				},
				{
					"inputs": [],
					"name": "deposit",
					"outputs": [],
					"stateMutability": "payable",
					"type": "function"
				},
				{
					"inputs": [],
					"name": "feeBasisPoints",
					"outputs": [
						{
							"internalType": "uint256",
							"name": "",
							"type": "uint256"
						}
					],
					"stateMutability": "view",
					"type": "function"
				},
				{
					"inputs": [],
					"name": "getBalance",
					"outputs": [
						{
							"internalType": "uint256",
							"name": "",
							"type": "uint256"
						}
					],
					"stateMutability": "view",
					"type": "function"
				},
				{
					"inputs": [],
					"name": "owner",
					"outputs": [
						{
							"internalType": "address",
							"name": "",
							"type": "address"
						}
					],
					"stateMutability": "view",
					"type": "function"
				},
				{
					"inputs": [
						{
							"internalType": "string",
							"name": "_firstName",
							"type": "string"
						},
						{
							"internalType": "string",
							"name": "_lastName",
							"type": "string"
						}
					],
					"name": "register",
					"outputs": [],
					"stateMutability": "nonpayable",
					"type": "function"
				},
				{
					"inputs": [],
					"name": "treasury",
					"outputs": [
						{
							"internalType": "address",
							"name": "",
							"type": "address"
						}
					],
					"stateMutability": "view",
					"type": "function"
				},
				{
					"inputs": [],
					"name": "treasuryBalance",
					"outputs": [
						{
							"internalType": "uint256",
							"name": "",
							"type": "uint256"
						}
					],
					"stateMutability": "view",
					"type": "function"
				},
				{
					"inputs": [
						{
							"internalType": "uint256",
							"name": "_amount",
							"type": "uint256"
						}
					],
					"name": "withdraw",
					"outputs": [],
					"stateMutability": "nonpayable",
					"type": "function"
				},
				{
					"inputs": [
						{
							"internalType": "uint256",
							"name": "_amount",
							"type": "uint256"
						}
					],
					"name": "withdrawTreasury",
					"outputs": [],
					"stateMutability": "nonpayable",
					"type": "function"
				}
			],
			"devdoc": {
				"details": "Smart contract para gestionar un banco sencillo donde los usuarios pueden registrarse, depositar y retirar ETH.",
				"kind": "dev",
				"methods": {
					"constructor": {
						"details": "Constructor del contrato",
						"params": {
							"_fee": "El fee en puntos básicos (1% = 100 puntos básicos)",
							"_treasury": "La dirección de la tesorería"
						}
					},
					"deposit()": {
						"details": "Función para hacer un depósito de ETH en la cuenta del usuario"
					},
					"getBalance()": {
						"details": "Función para verificar el saldo del usuario",
						"returns": {
							"_0": "El saldo del usuario en wei"
						}
					},
					"register(string,string)": {
						"details": "Función para registrar un nuevo usuario",
						"params": {
							"_firstName": "El primer nombre del usuario",
							"_lastName": "El apellido del usuario"
						}
					},
					"withdraw(uint256)": {
						"details": "Función para retirar ETH de la cuenta del usuario",
						"params": {
							"_amount": "La cantidad a retirar (en wei)"
						}
					},
					"withdrawTreasury(uint256)": {
						"details": "Función para que el propietario retire fondos de la cuenta de tesorería",
						"params": {
							"_amount": "La cantidad a retirar de la tesorería (en wei)"
						}
					}
				},
				"title": "SimpleBank",
				"version": 1
			},
			"evm": {
				"assembly": "    /* \"ETH - Henry/contracts/SimpleBank.sol\":213:5853  contract SimpleBank {... */\n  mstore(0x40, 0x80)\n    /* \"ETH - Henry/contracts/SimpleBank.sol\":2057:2661  constructor(uint256 _fee, address _treasury) {... */\n  callvalue\n  dup1\n  iszero\n  tag_1\n  jumpi\n  0x00\n  dup1\n  revert\ntag_1:\n  pop\n  mload(0x40)\n  sub(codesize, bytecodeSize)\n  dup1\n  bytecodeSize\n  dup4\n  codecopy\n  dup2\n  dup2\n  add\n  0x40\n  mstore\n  dup2\n  add\n  swap1\n  tag_2\n  swap2\n  swap1\n  tag_3\n  jump\t// in\ntag_2:\n    /* \"ETH - Henry/contracts/SimpleBank.sol\":2142:2143  0 */\n  0x00\n    /* \"ETH - Henry/contracts/SimpleBank.sol\":2121:2144  _treasury != address(0) */\n  0xffffffffffffffffffffffffffffffffffffffff\n  and\n    /* \"ETH - Henry/contracts/SimpleBank.sol\":2121:2130  _treasury */\n  dup2\n    /* \"ETH - Henry/contracts/SimpleBank.sol\":2121:2144  _treasury != address(0) */\n  0xffffffffffffffffffffffffffffffffffffffff\n  and\n  sub\n    /* \"ETH - Henry/contracts/SimpleBank.sol\":2113:2193  require(_treasury != address(0), \"La direccion de tesoreria no puede ser cero.\") */\n  tag_6\n  jumpi\n  mload(0x40)\n  0x08c379a000000000000000000000000000000000000000000000000000000000\n  dup2\n  mstore\n  0x04\n  add\n  tag_7\n  swap1\n  tag_8\n  jump\t// in\ntag_7:\n  mload(0x40)\n  dup1\n  swap2\n  sub\n  swap1\n  revert\ntag_6:\n    /* \"ETH - Henry/contracts/SimpleBank.sol\":2220:2225  10000 */\n  0x2710\n    /* \"ETH - Henry/contracts/SimpleBank.sol\":2212:2216  _fee */\n  dup3\n    /* \"ETH - Henry/contracts/SimpleBank.sol\":2212:2225  _fee <= 10000 */\n  gt\n  iszero\n    /* \"ETH - Henry/contracts/SimpleBank.sol\":2204:2264  require(_fee <= 10000, \"El fee no puede ser mayor al 100%.\") */\n  tag_9\n  jumpi\n  mload(0x40)\n  0x08c379a000000000000000000000000000000000000000000000000000000000\n  dup2\n  mstore\n  0x04\n  add\n  tag_10\n  swap1\n  tag_11\n  jump\t// in\ntag_10:\n  mload(0x40)\n  dup1\n  swap2\n  sub\n  swap1\n  revert\ntag_9:\n    /* \"ETH - Henry/contracts/SimpleBank.sol\":2345:2355  msg.sender */\n  caller\n    /* \"ETH - Henry/contracts/SimpleBank.sol\":2337:2342  owner */\n  0x01\n  0x00\n    /* \"ETH - Henry/contracts/SimpleBank.sol\":2337:2355  owner = msg.sender */\n  0x0100\n  exp\n  dup2\n  sload\n  dup2\n  0xffffffffffffffffffffffffffffffffffffffff\n  mul\n  not\n  and\n  swap1\n  dup4\n  0xffffffffffffffffffffffffffffffffffffffff\n  and\n  mul\n  or\n  swap1\n  sstore\n  pop\n    /* \"ETH - Henry/contracts/SimpleBank.sol\":2431:2435  _fee */\n  dup2\n    /* \"ETH - Henry/contracts/SimpleBank.sol\":2414:2428  feeBasisPoints */\n  0x03\n    /* \"ETH - Henry/contracts/SimpleBank.sol\":2414:2435  feeBasisPoints = _fee */\n  dup2\n  swap1\n  sstore\n  pop\n    /* \"ETH - Henry/contracts/SimpleBank.sol\":2509:2518  _treasury */\n  dup1\n    /* \"ETH - Henry/contracts/SimpleBank.sol\":2498:2506  treasury */\n  0x02\n  0x00\n    /* \"ETH - Henry/contracts/SimpleBank.sol\":2498:2518  treasury = _treasury */\n  0x0100\n  exp\n  dup2\n  sload\n  dup2\n  0xffffffffffffffffffffffffffffffffffffffff\n  mul\n  not\n  and\n  swap1\n  dup4\n  0xffffffffffffffffffffffffffffffffffffffff\n  and\n  mul\n  or\n  swap1\n  sstore\n  pop\n    /* \"ETH - Henry/contracts/SimpleBank.sol\":2593:2594  0 */\n  0x00\n    /* \"ETH - Henry/contracts/SimpleBank.sol\":2575:2590  treasuryBalance */\n  0x04\n    /* \"ETH - Henry/contracts/SimpleBank.sol\":2575:2594  treasuryBalance = 0 */\n  dup2\n  swap1\n  sstore\n  pop\n    /* \"ETH - Henry/contracts/SimpleBank.sol\":2057:2661  constructor(uint256 _fee, address _treasury) {... */\n  pop\n  pop\n    /* \"ETH - Henry/contracts/SimpleBank.sol\":213:5853  contract SimpleBank {... */\n  jump(tag_12)\n    /* \"#utility.yul\":88:205   */\ntag_14:\n    /* \"#utility.yul\":197:198   */\n  0x00\n    /* \"#utility.yul\":194:195   */\n  dup1\n    /* \"#utility.yul\":187:199   */\n  revert\n    /* \"#utility.yul\":334:411   */\ntag_16:\n    /* \"#utility.yul\":371:378   */\n  0x00\n    /* \"#utility.yul\":400:405   */\n  dup2\n    /* \"#utility.yul\":389:405   */\n  swap1\n  pop\n    /* \"#utility.yul\":334:411   */\n  swap2\n  swap1\n  pop\n  jump\t// out\n    /* \"#utility.yul\":417:539   */\ntag_17:\n    /* \"#utility.yul\":490:514   */\n  tag_34\n    /* \"#utility.yul\":508:513   */\n  dup2\n    /* \"#utility.yul\":490:514   */\n  tag_16\n  jump\t// in\ntag_34:\n    /* \"#utility.yul\":483:488   */\n  dup2\n    /* \"#utility.yul\":480:515   */\n  eq\n    /* \"#utility.yul\":470:533   */\n  tag_35\n  jumpi\n    /* \"#utility.yul\":529:530   */\n  0x00\n    /* \"#utility.yul\":526:527   */\n  dup1\n    /* \"#utility.yul\":519:531   */\n  revert\n    /* \"#utility.yul\":470:533   */\ntag_35:\n    /* \"#utility.yul\":417:539   */\n  pop\n  jump\t// out\n    /* \"#utility.yul\":545:688   */\ntag_18:\n    /* \"#utility.yul\":602:607   */\n  0x00\n    /* \"#utility.yul\":633:639   */\n  dup2\n    /* \"#utility.yul\":627:640   */\n  mload\n    /* \"#utility.yul\":618:640   */\n  swap1\n  pop\n    /* \"#utility.yul\":649:682   */\n  tag_37\n    /* \"#utility.yul\":676:681   */\n  dup2\n    /* \"#utility.yul\":649:682   */\n  tag_17\n  jump\t// in\ntag_37:\n    /* \"#utility.yul\":545:688   */\n  swap3\n  swap2\n  pop\n  pop\n  jump\t// out\n    /* \"#utility.yul\":694:820   */\ntag_19:\n    /* \"#utility.yul\":731:738   */\n  0x00\n    /* \"#utility.yul\":771:813   */\n  0xffffffffffffffffffffffffffffffffffffffff\n    /* \"#utility.yul\":764:769   */\n  dup3\n    /* \"#utility.yul\":760:814   */\n  and\n    /* \"#utility.yul\":749:814   */\n  swap1\n  pop\n    /* \"#utility.yul\":694:820   */\n  swap2\n  swap1\n  pop\n  jump\t// out\n    /* \"#utility.yul\":826:922   */\ntag_20:\n    /* \"#utility.yul\":863:870   */\n  0x00\n    /* \"#utility.yul\":892:916   */\n  tag_40\n    /* \"#utility.yul\":910:915   */\n  dup3\n    /* \"#utility.yul\":892:916   */\n  tag_19\n  jump\t// in\ntag_40:\n    /* \"#utility.yul\":881:916   */\n  swap1\n  pop\n    /* \"#utility.yul\":826:922   */\n  swap2\n  swap1\n  pop\n  jump\t// out\n    /* \"#utility.yul\":928:1050   */\ntag_21:\n    /* \"#utility.yul\":1001:1025   */\n  tag_42\n    /* \"#utility.yul\":1019:1024   */\n  dup2\n    /* \"#utility.yul\":1001:1025   */\n  tag_20\n  jump\t// in\ntag_42:\n    /* \"#utility.yul\":994:999   */\n  dup2\n    /* \"#utility.yul\":991:1026   */\n  eq\n    /* \"#utility.yul\":981:1044   */\n  tag_43\n  jumpi\n    /* \"#utility.yul\":1040:1041   */\n  0x00\n    /* \"#utility.yul\":1037:1038   */\n  dup1\n    /* \"#utility.yul\":1030:1042   */\n  revert\n    /* \"#utility.yul\":981:1044   */\ntag_43:\n    /* \"#utility.yul\":928:1050   */\n  pop\n  jump\t// out\n    /* \"#utility.yul\":1056:1199   */\ntag_22:\n    /* \"#utility.yul\":1113:1118   */\n  0x00\n    /* \"#utility.yul\":1144:1150   */\n  dup2\n    /* \"#utility.yul\":1138:1151   */\n  mload\n    /* \"#utility.yul\":1129:1151   */\n  swap1\n  pop\n    /* \"#utility.yul\":1160:1193   */\n  tag_45\n    /* \"#utility.yul\":1187:1192   */\n  dup2\n    /* \"#utility.yul\":1160:1193   */\n  tag_21\n  jump\t// in\ntag_45:\n    /* \"#utility.yul\":1056:1199   */\n  swap3\n  swap2\n  pop\n  pop\n  jump\t// out\n    /* \"#utility.yul\":1205:1712   */\ntag_3:\n    /* \"#utility.yul\":1284:1290   */\n  0x00\n    /* \"#utility.yul\":1292:1298   */\n  dup1\n    /* \"#utility.yul\":1341:1343   */\n  0x40\n    /* \"#utility.yul\":1329:1338   */\n  dup4\n    /* \"#utility.yul\":1320:1327   */\n  dup6\n    /* \"#utility.yul\":1316:1339   */\n  sub\n    /* \"#utility.yul\":1312:1344   */\n  slt\n    /* \"#utility.yul\":1309:1428   */\n  iszero\n  tag_47\n  jumpi\n    /* \"#utility.yul\":1347:1426   */\n  tag_48\n  tag_14\n  jump\t// in\ntag_48:\n    /* \"#utility.yul\":1309:1428   */\ntag_47:\n    /* \"#utility.yul\":1467:1468   */\n  0x00\n    /* \"#utility.yul\":1492:1556   */\n  tag_49\n    /* \"#utility.yul\":1548:1555   */\n  dup6\n    /* \"#utility.yul\":1539:1545   */\n  dup3\n    /* \"#utility.yul\":1528:1537   */\n  dup7\n    /* \"#utility.yul\":1524:1546   */\n  add\n    /* \"#utility.yul\":1492:1556   */\n  tag_18\n  jump\t// in\ntag_49:\n    /* \"#utility.yul\":1482:1556   */\n  swap3\n  pop\n    /* \"#utility.yul\":1438:1566   */\n  pop\n    /* \"#utility.yul\":1605:1607   */\n  0x20\n    /* \"#utility.yul\":1631:1695   */\n  tag_50\n    /* \"#utility.yul\":1687:1694   */\n  dup6\n    /* \"#utility.yul\":1678:1684   */\n  dup3\n    /* \"#utility.yul\":1667:1676   */\n  dup7\n    /* \"#utility.yul\":1663:1685   */\n  add\n    /* \"#utility.yul\":1631:1695   */\n  tag_22\n  jump\t// in\ntag_50:\n    /* \"#utility.yul\":1621:1695   */\n  swap2\n  pop\n    /* \"#utility.yul\":1576:1705   */\n  pop\n    /* \"#utility.yul\":1205:1712   */\n  swap3\n  pop\n  swap3\n  swap1\n  pop\n  jump\t// out\n    /* \"#utility.yul\":1718:1887   */\ntag_23:\n    /* \"#utility.yul\":1802:1813   */\n  0x00\n    /* \"#utility.yul\":1836:1842   */\n  dup3\n    /* \"#utility.yul\":1831:1834   */\n  dup3\n    /* \"#utility.yul\":1824:1843   */\n  mstore\n    /* \"#utility.yul\":1876:1880   */\n  0x20\n    /* \"#utility.yul\":1871:1874   */\n  dup3\n    /* \"#utility.yul\":1867:1881   */\n  add\n    /* \"#utility.yul\":1852:1881   */\n  swap1\n  pop\n    /* \"#utility.yul\":1718:1887   */\n  swap3\n  swap2\n  pop\n  pop\n  jump\t// out\n    /* \"#utility.yul\":1893:2124   */\ntag_24:\n    /* \"#utility.yul\":2033:2067   */\n  0x4c6120646972656363696f6e206465207465736f7265726961206e6f20707565\n    /* \"#utility.yul\":2029:2030   */\n  0x00\n    /* \"#utility.yul\":2021:2027   */\n  dup3\n    /* \"#utility.yul\":2017:2031   */\n  add\n    /* \"#utility.yul\":2010:2068   */\n  mstore\n    /* \"#utility.yul\":2102:2116   */\n  0x646520736572206365726f2e0000000000000000000000000000000000000000\n    /* \"#utility.yul\":2097:2099   */\n  0x20\n    /* \"#utility.yul\":2089:2095   */\n  dup3\n    /* \"#utility.yul\":2085:2100   */\n  add\n    /* \"#utility.yul\":2078:2117   */\n  mstore\n    /* \"#utility.yul\":1893:2124   */\n  pop\n  jump\t// out\n    /* \"#utility.yul\":2130:2496   */\ntag_25:\n    /* \"#utility.yul\":2272:2275   */\n  0x00\n    /* \"#utility.yul\":2293:2360   */\n  tag_54\n    /* \"#utility.yul\":2357:2359   */\n  0x2c\n    /* \"#utility.yul\":2352:2355   */\n  dup4\n    /* \"#utility.yul\":2293:2360   */\n  tag_23\n  jump\t// in\ntag_54:\n    /* \"#utility.yul\":2286:2360   */\n  swap2\n  pop\n    /* \"#utility.yul\":2369:2462   */\n  tag_55\n    /* \"#utility.yul\":2458:2461   */\n  dup3\n    /* \"#utility.yul\":2369:2462   */\n  tag_24\n  jump\t// in\ntag_55:\n    /* \"#utility.yul\":2487:2489   */\n  0x40\n    /* \"#utility.yul\":2482:2485   */\n  dup3\n    /* \"#utility.yul\":2478:2490   */\n  add\n    /* \"#utility.yul\":2471:2490   */\n  swap1\n  pop\n    /* \"#utility.yul\":2130:2496   */\n  swap2\n  swap1\n  pop\n  jump\t// out\n    /* \"#utility.yul\":2502:2921   */\ntag_8:\n    /* \"#utility.yul\":2668:2672   */\n  0x00\n    /* \"#utility.yul\":2706:2708   */\n  0x20\n    /* \"#utility.yul\":2695:2704   */\n  dup3\n    /* \"#utility.yul\":2691:2709   */\n  add\n    /* \"#utility.yul\":2683:2709   */\n  swap1\n  pop\n    /* \"#utility.yul\":2755:2764   */\n  dup2\n    /* \"#utility.yul\":2749:2753   */\n  dup2\n    /* \"#utility.yul\":2745:2765   */\n  sub\n    /* \"#utility.yul\":2741:2742   */\n  0x00\n    /* \"#utility.yul\":2730:2739   */\n  dup4\n    /* \"#utility.yul\":2726:2743   */\n  add\n    /* \"#utility.yul\":2719:2766   */\n  mstore\n    /* \"#utility.yul\":2783:2914   */\n  tag_57\n    /* \"#utility.yul\":2909:2913   */\n  dup2\n    /* \"#utility.yul\":2783:2914   */\n  tag_25\n  jump\t// in\ntag_57:\n    /* \"#utility.yul\":2775:2914   */\n  swap1\n  pop\n    /* \"#utility.yul\":2502:2921   */\n  swap2\n  swap1\n  pop\n  jump\t// out\n    /* \"#utility.yul\":2927:3148   */\ntag_26:\n    /* \"#utility.yul\":3067:3101   */\n  0x456c20666565206e6f20707565646520736572206d61796f7220616c20313030\n    /* \"#utility.yul\":3063:3064   */\n  0x00\n    /* \"#utility.yul\":3055:3061   */\n  dup3\n    /* \"#utility.yul\":3051:3065   */\n  add\n    /* \"#utility.yul\":3044:3102   */\n  mstore\n    /* \"#utility.yul\":3136:3140   */\n  0x252e000000000000000000000000000000000000000000000000000000000000\n    /* \"#utility.yul\":3131:3133   */\n  0x20\n    /* \"#utility.yul\":3123:3129   */\n  dup3\n    /* \"#utility.yul\":3119:3134   */\n  add\n    /* \"#utility.yul\":3112:3141   */\n  mstore\n    /* \"#utility.yul\":2927:3148   */\n  pop\n  jump\t// out\n    /* \"#utility.yul\":3154:3520   */\ntag_27:\n    /* \"#utility.yul\":3296:3299   */\n  0x00\n    /* \"#utility.yul\":3317:3384   */\n  tag_60\n    /* \"#utility.yul\":3381:3383   */\n  0x22\n    /* \"#utility.yul\":3376:3379   */\n  dup4\n    /* \"#utility.yul\":3317:3384   */\n  tag_23\n  jump\t// in\ntag_60:\n    /* \"#utility.yul\":3310:3384   */\n  swap2\n  pop\n    /* \"#utility.yul\":3393:3486   */\n  tag_61\n    /* \"#utility.yul\":3482:3485   */\n  dup3\n    /* \"#utility.yul\":3393:3486   */\n  tag_26\n  jump\t// in\ntag_61:\n    /* \"#utility.yul\":3511:3513   */\n  0x40\n    /* \"#utility.yul\":3506:3509   */\n  dup3\n    /* \"#utility.yul\":3502:3514   */\n  add\n    /* \"#utility.yul\":3495:3514   */\n  swap1\n  pop\n    /* \"#utility.yul\":3154:3520   */\n  swap2\n  swap1\n  pop\n  jump\t// out\n    /* \"#utility.yul\":3526:3945   */\ntag_11:\n    /* \"#utility.yul\":3692:3696   */\n  0x00\n    /* \"#utility.yul\":3730:3732   */\n  0x20\n    /* \"#utility.yul\":3719:3728   */\n  dup3\n    /* \"#utility.yul\":3715:3733   */\n  add\n    /* \"#utility.yul\":3707:3733   */\n  swap1\n  pop\n    /* \"#utility.yul\":3779:3788   */\n  dup2\n    /* \"#utility.yul\":3773:3777   */\n  dup2\n    /* \"#utility.yul\":3769:3789   */\n  sub\n    /* \"#utility.yul\":3765:3766   */\n  0x00\n    /* \"#utility.yul\":3754:3763   */\n  dup4\n    /* \"#utility.yul\":3750:3767   */\n  add\n    /* \"#utility.yul\":3743:3790   */\n  mstore\n    /* \"#utility.yul\":3807:3938   */\n  tag_63\n    /* \"#utility.yul\":3933:3937   */\n  dup2\n    /* \"#utility.yul\":3807:3938   */\n  tag_27\n  jump\t// in\ntag_63:\n    /* \"#utility.yul\":3799:3938   */\n  swap1\n  pop\n    /* \"#utility.yul\":3526:3945   */\n  swap2\n  swap1\n  pop\n  jump\t// out\n    /* \"ETH - Henry/contracts/SimpleBank.sol\":213:5853  contract SimpleBank {... */\ntag_12:\n  dataSize(sub_0)\n  dup1\n  dataOffset(sub_0)\n  0x00\n  codecopy\n  0x00\n  return\nstop\n\nsub_0: assembly {\n        /* \"ETH - Henry/contracts/SimpleBank.sol\":213:5853  contract SimpleBank {... */\n      mstore(0x40, 0x80)\n      jumpi(tag_1, lt(calldatasize, 0x04))\n      shr(0xe0, calldataload(0x00))\n      dup1\n      0x3ffbd47f\n      gt\n      tag_11\n      jumpi\n      dup1\n      0x3ffbd47f\n      eq\n      tag_6\n      jumpi\n      dup1\n      0x61d027b3\n      eq\n      tag_7\n      jumpi\n      dup1\n      0x8da5cb5b\n      eq\n      tag_8\n      jumpi\n      dup1\n      0xb8606eef\n      eq\n      tag_9\n      jumpi\n      dup1\n      0xd0e30db0\n      eq\n      tag_10\n      jumpi\n      jump(tag_1)\n    tag_11:\n      dup1\n      0x11f1fc99\n      eq\n      tag_2\n      jumpi\n      dup1\n      0x12065fe0\n      eq\n      tag_3\n      jumpi\n      dup1\n      0x2e1a7d4d\n      eq\n      tag_4\n      jumpi\n      dup1\n      0x313dab20\n      eq\n      tag_5\n      jumpi\n    tag_1:\n      0x00\n      dup1\n      revert\n        /* \"ETH - Henry/contracts/SimpleBank.sol\":5406:5850  function withdrawTreasury(uint256 _amount) external onlyOwner {... */\n    tag_2:\n      callvalue\n      dup1\n      iszero\n      tag_12\n      jumpi\n      0x00\n      dup1\n      revert\n    tag_12:\n      pop\n      tag_13\n      0x04\n      dup1\n      calldatasize\n      sub\n      dup2\n      add\n      swap1\n      tag_14\n      swap2\n      swap1\n      tag_15\n      jump\t// in\n    tag_14:\n      tag_16\n      jump\t// in\n    tag_13:\n      stop\n        /* \"ETH - Henry/contracts/SimpleBank.sol\":4201:4364  function getBalance() external view onlyRegistered returns (uint256) {... */\n    tag_3:\n      callvalue\n      dup1\n      iszero\n      tag_17\n      jumpi\n      0x00\n      dup1\n      revert\n    tag_17:\n      pop\n      tag_18\n      tag_19\n      jump\t// in\n    tag_18:\n      mload(0x40)\n      tag_20\n      swap2\n      swap1\n      tag_21\n      jump\t// in\n    tag_20:\n      mload(0x40)\n      dup1\n      swap2\n      sub\n      swap1\n      return\n        /* \"ETH - Henry/contracts/SimpleBank.sol\":4509:5222  function withdraw(uint256 _amount) external onlyRegistered {... */\n    tag_4:\n      callvalue\n      dup1\n      iszero\n      tag_22\n      jumpi\n      0x00\n      dup1\n      revert\n    tag_22:\n      pop\n      tag_23\n      0x04\n      dup1\n      calldatasize\n      sub\n      dup2\n      add\n      swap1\n      tag_24\n      swap2\n      swap1\n      tag_15\n      jump\t// in\n    tag_24:\n      tag_25\n      jump\t// in\n    tag_23:\n      stop\n        /* \"ETH - Henry/contracts/SimpleBank.sol\":1001:1031  uint256 public treasuryBalance */\n    tag_5:\n      callvalue\n      dup1\n      iszero\n      tag_26\n      jumpi\n      0x00\n      dup1\n      revert\n    tag_26:\n      pop\n      tag_27\n      tag_28\n      jump\t// in\n    tag_27:\n      mload(0x40)\n      tag_29\n      swap2\n      swap1\n      tag_21\n      jump\t// in\n    tag_29:\n      mload(0x40)\n      dup1\n      swap2\n      sub\n      swap1\n      return\n        /* \"ETH - Henry/contracts/SimpleBank.sol\":2844:3608  function register(string calldata _firstName, string calldata _lastName) external {... */\n    tag_6:\n      callvalue\n      dup1\n      iszero\n      tag_30\n      jumpi\n      0x00\n      dup1\n      revert\n    tag_30:\n      pop\n      tag_31\n      0x04\n      dup1\n      calldatasize\n      sub\n      dup2\n      add\n      swap1\n      tag_32\n      swap2\n      swap1\n      tag_33\n      jump\t// in\n    tag_32:\n      tag_34\n      jump\t// in\n    tag_31:\n      stop\n        /* \"ETH - Henry/contracts/SimpleBank.sol\":839:862  address public treasury */\n    tag_7:\n      callvalue\n      dup1\n      iszero\n      tag_35\n      jumpi\n      0x00\n      dup1\n      revert\n    tag_35:\n      pop\n      tag_36\n      tag_37\n      jump\t// in\n    tag_36:\n      mload(0x40)\n      tag_38\n      swap2\n      swap1\n      tag_39\n      jump\t// in\n    tag_38:\n      mload(0x40)\n      dup1\n      swap2\n      sub\n      swap1\n      return\n        /* \"ETH - Henry/contracts/SimpleBank.sol\":757:777  address public owner */\n    tag_8:\n      callvalue\n      dup1\n      iszero\n      tag_40\n      jumpi\n      0x00\n      dup1\n      revert\n    tag_40:\n      pop\n      tag_41\n      tag_42\n      jump\t// in\n    tag_41:\n      mload(0x40)\n      tag_43\n      swap2\n      swap1\n      tag_39\n      jump\t// in\n    tag_43:\n      mload(0x40)\n      dup1\n      swap2\n      sub\n      swap1\n      return\n        /* \"ETH - Henry/contracts/SimpleBank.sol\":909:938  uint256 public feeBasisPoints */\n    tag_9:\n      callvalue\n      dup1\n      iszero\n      tag_44\n      jumpi\n      0x00\n      dup1\n      revert\n    tag_44:\n      pop\n      tag_45\n      tag_46\n      jump\t// in\n    tag_45:\n      mload(0x40)\n      tag_47\n      swap2\n      swap1\n      tag_21\n      jump\t// in\n    tag_47:\n      mload(0x40)\n      dup1\n      swap2\n      sub\n      swap1\n      return\n        /* \"ETH - Henry/contracts/SimpleBank.sol\":3713:4072  function deposit() external payable onlyRegistered {... */\n    tag_10:\n      tag_48\n      tag_49\n      jump\t// in\n    tag_48:\n      stop\n        /* \"ETH - Henry/contracts/SimpleBank.sol\":5406:5850  function withdrawTreasury(uint256 _amount) external onlyOwner {... */\n    tag_16:\n        /* \"ETH - Henry/contracts/SimpleBank.sol\":1785:1790  owner */\n      0x01\n      0x00\n      swap1\n      sload\n      swap1\n      0x0100\n      exp\n      swap1\n      div\n      0xffffffffffffffffffffffffffffffffffffffff\n      and\n        /* \"ETH - Henry/contracts/SimpleBank.sol\":1771:1790  msg.sender == owner */\n      0xffffffffffffffffffffffffffffffffffffffff\n      and\n        /* \"ETH - Henry/contracts/SimpleBank.sol\":1771:1781  msg.sender */\n      caller\n        /* \"ETH - Henry/contracts/SimpleBank.sol\":1771:1790  msg.sender == owner */\n      0xffffffffffffffffffffffffffffffffffffffff\n      and\n      eq\n        /* \"ETH - Henry/contracts/SimpleBank.sol\":1763:1843  require(msg.sender == owner, \"Solo el propietario puede ejecutar esta funcion.\") */\n      tag_51\n      jumpi\n      mload(0x40)\n      0x08c379a000000000000000000000000000000000000000000000000000000000\n      dup2\n      mstore\n      0x04\n      add\n      tag_52\n      swap1\n      tag_53\n      jump\t// in\n    tag_52:\n      mload(0x40)\n      dup1\n      swap2\n      sub\n      swap1\n      revert\n    tag_51:\n        /* \"ETH - Henry/contracts/SimpleBank.sol\":5506:5513  _amount */\n      dup1\n        /* \"ETH - Henry/contracts/SimpleBank.sol\":5487:5502  treasuryBalance */\n      sload(0x04)\n        /* \"ETH - Henry/contracts/SimpleBank.sol\":5487:5513  treasuryBalance >= _amount */\n      lt\n      iszero\n        /* \"ETH - Henry/contracts/SimpleBank.sol\":5479:5555  require(treasuryBalance >= _amount, \"Fondos insuficientes en la tesoreria.\") */\n      tag_55\n      jumpi\n      mload(0x40)\n      0x08c379a000000000000000000000000000000000000000000000000000000000\n      dup2\n      mstore\n      0x04\n      add\n      tag_56\n      swap1\n      tag_57\n      jump\t// in\n    tag_56:\n      mload(0x40)\n      dup1\n      swap2\n      sub\n      swap1\n      revert\n    tag_55:\n        /* \"ETH - Henry/contracts/SimpleBank.sol\":5667:5674  _amount */\n      dup1\n        /* \"ETH - Henry/contracts/SimpleBank.sol\":5648:5663  treasuryBalance */\n      0x04\n      0x00\n        /* \"ETH - Henry/contracts/SimpleBank.sol\":5648:5674  treasuryBalance -= _amount */\n      dup3\n      dup3\n      sload\n      tag_58\n      swap2\n      swap1\n      tag_59\n      jump\t// in\n    tag_58:\n      swap3\n      pop\n      pop\n      dup2\n      swap1\n      sstore\n      pop\n        /* \"ETH - Henry/contracts/SimpleBank.sol\":5693:5701  treasury */\n      0x02\n      0x00\n      swap1\n      sload\n      swap1\n      0x0100\n      exp\n      swap1\n      div\n      0xffffffffffffffffffffffffffffffffffffffff\n      and\n        /* \"ETH - Henry/contracts/SimpleBank.sol\":5685:5711  payable(treasury).transfer */\n      0xffffffffffffffffffffffffffffffffffffffff\n      and\n        /* \"ETH - Henry/contracts/SimpleBank.sol\":5685:5720  payable(treasury).transfer(_amount) */\n      0x08fc\n        /* \"ETH - Henry/contracts/SimpleBank.sol\":5712:5719  _amount */\n      dup3\n        /* \"ETH - Henry/contracts/SimpleBank.sol\":5685:5720  payable(treasury).transfer(_amount) */\n      swap1\n      dup2\n      iszero\n      mul\n      swap1\n      mload(0x40)\n      0x00\n      mload(0x40)\n      dup1\n      dup4\n      sub\n      dup2\n      dup6\n      dup9\n      dup9\n      call\n      swap4\n      pop\n      pop\n      pop\n      pop\n      iszero\n      dup1\n      iszero\n      tag_61\n      jumpi\n      returndatasize\n      0x00\n      dup1\n      returndatacopy\n      revert(0x00, returndatasize)\n    tag_61:\n      pop\n        /* \"ETH - Henry/contracts/SimpleBank.sol\":5827:5832  owner */\n      0x01\n      0x00\n      swap1\n      sload\n      swap1\n      0x0100\n      exp\n      swap1\n      div\n      0xffffffffffffffffffffffffffffffffffffffff\n      and\n        /* \"ETH - Henry/contracts/SimpleBank.sol\":5808:5842  TreasuryWithdrawal(owner, _amount) */\n      0xffffffffffffffffffffffffffffffffffffffff\n      and\n      0x233c84dc0c19fbf51f9fa92214ffd8a59f512e0098bff5827455d02e401221c0\n        /* \"ETH - Henry/contracts/SimpleBank.sol\":5834:5841  _amount */\n      dup3\n        /* \"ETH - Henry/contracts/SimpleBank.sol\":5808:5842  TreasuryWithdrawal(owner, _amount) */\n      mload(0x40)\n      tag_62\n      swap2\n      swap1\n      tag_21\n      jump\t// in\n    tag_62:\n      mload(0x40)\n      dup1\n      swap2\n      sub\n      swap1\n      log2\n        /* \"ETH - Henry/contracts/SimpleBank.sol\":5406:5850  function withdrawTreasury(uint256 _amount) external onlyOwner {... */\n      pop\n      jump\t// out\n        /* \"ETH - Henry/contracts/SimpleBank.sol\":4201:4364  function getBalance() external view onlyRegistered returns (uint256) {... */\n    tag_19:\n        /* \"ETH - Henry/contracts/SimpleBank.sol\":4261:4268  uint256 */\n      0x00\n        /* \"ETH - Henry/contracts/SimpleBank.sol\":1585:1590  users */\n      dup1\n        /* \"ETH - Henry/contracts/SimpleBank.sol\":1585:1602  users[msg.sender] */\n      0x00\n        /* \"ETH - Henry/contracts/SimpleBank.sol\":1591:1601  msg.sender */\n      caller\n        /* \"ETH - Henry/contracts/SimpleBank.sol\":1585:1602  users[msg.sender] */\n      0xffffffffffffffffffffffffffffffffffffffff\n      and\n      0xffffffffffffffffffffffffffffffffffffffff\n      and\n      dup2\n      mstore\n      0x20\n      add\n      swap1\n      dup2\n      mstore\n      0x20\n      add\n      0x00\n      keccak256\n        /* \"ETH - Henry/contracts/SimpleBank.sol\":1585:1615  users[msg.sender].isRegistered */\n      0x03\n      add\n      0x00\n      swap1\n      sload\n      swap1\n      0x0100\n      exp\n      swap1\n      div\n      0xff\n      and\n        /* \"ETH - Henry/contracts/SimpleBank.sol\":1577:1642  require(users[msg.sender].isRegistered, \"Debe estar registrado.\") */\n      tag_64\n      jumpi\n      mload(0x40)\n      0x08c379a000000000000000000000000000000000000000000000000000000000\n      dup2\n      mstore\n      0x04\n      add\n      tag_65\n      swap1\n      tag_66\n      jump\t// in\n    tag_65:\n      mload(0x40)\n      dup1\n      swap2\n      sub\n      swap1\n      revert\n    tag_64:\n        /* \"ETH - Henry/contracts/SimpleBank.sol\":4288:4293  users */\n      0x00\n        /* \"ETH - Henry/contracts/SimpleBank.sol\":4288:4305  users[msg.sender] */\n      dup1\n        /* \"ETH - Henry/contracts/SimpleBank.sol\":4294:4304  msg.sender */\n      caller\n        /* \"ETH - Henry/contracts/SimpleBank.sol\":4288:4305  users[msg.sender] */\n      0xffffffffffffffffffffffffffffffffffffffff\n      and\n      0xffffffffffffffffffffffffffffffffffffffff\n      and\n      dup2\n      mstore\n      0x20\n      add\n      swap1\n      dup2\n      mstore\n      0x20\n      add\n      0x00\n      keccak256\n        /* \"ETH - Henry/contracts/SimpleBank.sol\":4288:4313  users[msg.sender].balance */\n      0x02\n      add\n      sload\n        /* \"ETH - Henry/contracts/SimpleBank.sol\":4281:4313  return users[msg.sender].balance */\n      swap1\n      pop\n        /* \"ETH - Henry/contracts/SimpleBank.sol\":4201:4364  function getBalance() external view onlyRegistered returns (uint256) {... */\n      swap1\n      jump\t// out\n        /* \"ETH - Henry/contracts/SimpleBank.sol\":4509:5222  function withdraw(uint256 _amount) external onlyRegistered {... */\n    tag_25:\n        /* \"ETH - Henry/contracts/SimpleBank.sol\":1585:1590  users */\n      0x00\n        /* \"ETH - Henry/contracts/SimpleBank.sol\":1585:1602  users[msg.sender] */\n      dup1\n        /* \"ETH - Henry/contracts/SimpleBank.sol\":1591:1601  msg.sender */\n      caller\n        /* \"ETH - Henry/contracts/SimpleBank.sol\":1585:1602  users[msg.sender] */\n      0xffffffffffffffffffffffffffffffffffffffff\n      and\n      0xffffffffffffffffffffffffffffffffffffffff\n      and\n      dup2\n      mstore\n      0x20\n      add\n      swap1\n      dup2\n      mstore\n      0x20\n      add\n      0x00\n      keccak256\n        /* \"ETH - Henry/contracts/SimpleBank.sol\":1585:1615  users[msg.sender].isRegistered */\n      0x03\n      add\n      0x00\n      swap1\n      sload\n      swap1\n      0x0100\n      exp\n      swap1\n      div\n      0xff\n      and\n        /* \"ETH - Henry/contracts/SimpleBank.sol\":1577:1642  require(users[msg.sender].isRegistered, \"Debe estar registrado.\") */\n      tag_69\n      jumpi\n      mload(0x40)\n      0x08c379a000000000000000000000000000000000000000000000000000000000\n      dup2\n      mstore\n      0x04\n      add\n      tag_70\n      swap1\n      tag_66\n      jump\t// in\n    tag_70:\n      mload(0x40)\n      dup1\n      swap2\n      sub\n      swap1\n      revert\n    tag_69:\n        /* \"ETH - Henry/contracts/SimpleBank.sol\":4597:4598  0 */\n      0x00\n        /* \"ETH - Henry/contracts/SimpleBank.sol\":4587:4594  _amount */\n      dup2\n        /* \"ETH - Henry/contracts/SimpleBank.sol\":4587:4598  _amount > 0 */\n      gt\n        /* \"ETH - Henry/contracts/SimpleBank.sol\":4579:4634  require(_amount > 0, \"El monto debe ser mayor a cero.\") */\n      tag_72\n      jumpi\n      mload(0x40)\n      0x08c379a000000000000000000000000000000000000000000000000000000000\n      dup2\n      mstore\n      0x04\n      add\n      tag_73\n      swap1\n      tag_74\n      jump\t// in\n    tag_73:\n      mload(0x40)\n      dup1\n      swap2\n      sub\n      swap1\n      revert\n    tag_72:\n        /* \"ETH - Henry/contracts/SimpleBank.sol\":4682:4689  _amount */\n      dup1\n        /* \"ETH - Henry/contracts/SimpleBank.sol\":4653:4658  users */\n      0x00\n        /* \"ETH - Henry/contracts/SimpleBank.sol\":4653:4670  users[msg.sender] */\n      dup1\n        /* \"ETH - Henry/contracts/SimpleBank.sol\":4659:4669  msg.sender */\n      caller\n        /* \"ETH - Henry/contracts/SimpleBank.sol\":4653:4670  users[msg.sender] */\n      0xffffffffffffffffffffffffffffffffffffffff\n      and\n      0xffffffffffffffffffffffffffffffffffffffff\n      and\n      dup2\n      mstore\n      0x20\n      add\n      swap1\n      dup2\n      mstore\n      0x20\n      add\n      0x00\n      keccak256\n        /* \"ETH - Henry/contracts/SimpleBank.sol\":4653:4678  users[msg.sender].balance */\n      0x02\n      add\n      sload\n        /* \"ETH - Henry/contracts/SimpleBank.sol\":4653:4689  users[msg.sender].balance >= _amount */\n      lt\n      iszero\n        /* \"ETH - Henry/contracts/SimpleBank.sol\":4645:4713  require(users[msg.sender].balance >= _amount, \"Saldo insuficiente.\") */\n      tag_75\n      jumpi\n      mload(0x40)\n      0x08c379a000000000000000000000000000000000000000000000000000000000\n      dup2\n      mstore\n      0x04\n      add\n      tag_76\n      swap1\n      tag_77\n      jump\t// in\n    tag_76:\n      mload(0x40)\n      dup1\n      swap2\n      sub\n      swap1\n      revert\n    tag_75:\n        /* \"ETH - Henry/contracts/SimpleBank.sol\":4775:4786  uint256 fee */\n      0x00\n        /* \"ETH - Henry/contracts/SimpleBank.sol\":4818:4823  10000 */\n      0x2710\n        /* \"ETH - Henry/contracts/SimpleBank.sol\":4800:4814  feeBasisPoints */\n      sload(0x03)\n        /* \"ETH - Henry/contracts/SimpleBank.sol\":4790:4797  _amount */\n      dup4\n        /* \"ETH - Henry/contracts/SimpleBank.sol\":4790:4814  _amount * feeBasisPoints */\n      tag_78\n      swap2\n      swap1\n      tag_79\n      jump\t// in\n    tag_78:\n        /* \"ETH - Henry/contracts/SimpleBank.sol\":4789:4823  (_amount * feeBasisPoints) / 10000 */\n      tag_80\n      swap2\n      swap1\n      tag_81\n      jump\t// in\n    tag_80:\n        /* \"ETH - Henry/contracts/SimpleBank.sol\":4775:4823  uint256 fee = (_amount * feeBasisPoints) / 10000 */\n      swap1\n      pop\n        /* \"ETH - Henry/contracts/SimpleBank.sol\":4834:4856  uint256 amountAfterFee */\n      0x00\n        /* \"ETH - Henry/contracts/SimpleBank.sol\":4869:4872  fee */\n      dup2\n        /* \"ETH - Henry/contracts/SimpleBank.sol\":4859:4866  _amount */\n      dup4\n        /* \"ETH - Henry/contracts/SimpleBank.sol\":4859:4872  _amount - fee */\n      tag_82\n      swap2\n      swap1\n      tag_59\n      jump\t// in\n    tag_82:\n        /* \"ETH - Henry/contracts/SimpleBank.sol\":4834:4872  uint256 amountAfterFee = _amount - fee */\n      swap1\n      pop\n        /* \"ETH - Henry/contracts/SimpleBank.sol\":4953:4960  _amount */\n      dup3\n        /* \"ETH - Henry/contracts/SimpleBank.sol\":4924:4929  users */\n      0x00\n        /* \"ETH - Henry/contracts/SimpleBank.sol\":4924:4941  users[msg.sender] */\n      dup1\n        /* \"ETH - Henry/contracts/SimpleBank.sol\":4930:4940  msg.sender */\n      caller\n        /* \"ETH - Henry/contracts/SimpleBank.sol\":4924:4941  users[msg.sender] */\n      0xffffffffffffffffffffffffffffffffffffffff\n      and\n      0xffffffffffffffffffffffffffffffffffffffff\n      and\n      dup2\n      mstore\n      0x20\n      add\n      swap1\n      dup2\n      mstore\n      0x20\n      add\n      0x00\n      keccak256\n        /* \"ETH - Henry/contracts/SimpleBank.sol\":4924:4949  users[msg.sender].balance */\n      0x02\n      add\n      0x00\n        /* \"ETH - Henry/contracts/SimpleBank.sol\":4924:4960  users[msg.sender].balance -= _amount */\n      dup3\n      dup3\n      sload\n      tag_83\n      swap2\n      swap1\n      tag_59\n      jump\t// in\n    tag_83:\n      swap3\n      pop\n      pop\n      dup2\n      swap1\n      sstore\n      pop\n        /* \"ETH - Henry/contracts/SimpleBank.sol\":4990:4993  fee */\n      dup2\n        /* \"ETH - Henry/contracts/SimpleBank.sol\":4971:4986  treasuryBalance */\n      0x04\n      0x00\n        /* \"ETH - Henry/contracts/SimpleBank.sol\":4971:4993  treasuryBalance += fee */\n      dup3\n      dup3\n      sload\n      tag_84\n      swap2\n      swap1\n      tag_85\n      jump\t// in\n    tag_84:\n      swap3\n      pop\n      pop\n      dup2\n      swap1\n      sstore\n      pop\n        /* \"ETH - Henry/contracts/SimpleBank.sol\":5061:5071  msg.sender */\n      caller\n        /* \"ETH - Henry/contracts/SimpleBank.sol\":5053:5081  payable(msg.sender).transfer */\n      0xffffffffffffffffffffffffffffffffffffffff\n      and\n        /* \"ETH - Henry/contracts/SimpleBank.sol\":5053:5097  payable(msg.sender).transfer(amountAfterFee) */\n      0x08fc\n        /* \"ETH - Henry/contracts/SimpleBank.sol\":5082:5096  amountAfterFee */\n      dup3\n        /* \"ETH - Henry/contracts/SimpleBank.sol\":5053:5097  payable(msg.sender).transfer(amountAfterFee) */\n      swap1\n      dup2\n      iszero\n      mul\n      swap1\n      mload(0x40)\n      0x00\n      mload(0x40)\n      dup1\n      dup4\n      sub\n      dup2\n      dup6\n      dup9\n      dup9\n      call\n      swap4\n      pop\n      pop\n      pop\n      pop\n      iszero\n      dup1\n      iszero\n      tag_87\n      jumpi\n      returndatasize\n      0x00\n      dup1\n      returndatacopy\n      revert(0x00, returndatasize)\n    tag_87:\n      pop\n        /* \"ETH - Henry/contracts/SimpleBank.sol\":5189:5199  msg.sender */\n      caller\n        /* \"ETH - Henry/contracts/SimpleBank.sol\":5178:5214  Withdrawal(msg.sender, _amount, fee) */\n      0xffffffffffffffffffffffffffffffffffffffff\n      and\n      0xdf273cb619d95419a9cd0ec88123a0538c85064229baa6363788f743fff90deb\n        /* \"ETH - Henry/contracts/SimpleBank.sol\":5201:5208  _amount */\n      dup5\n        /* \"ETH - Henry/contracts/SimpleBank.sol\":5210:5213  fee */\n      dup5\n        /* \"ETH - Henry/contracts/SimpleBank.sol\":5178:5214  Withdrawal(msg.sender, _amount, fee) */\n      mload(0x40)\n      tag_88\n      swap3\n      swap2\n      swap1\n      tag_89\n      jump\t// in\n    tag_88:\n      mload(0x40)\n      dup1\n      swap2\n      sub\n      swap1\n      log2\n        /* \"ETH - Henry/contracts/SimpleBank.sol\":4568:5222  {... */\n      pop\n      pop\n        /* \"ETH - Henry/contracts/SimpleBank.sol\":4509:5222  function withdraw(uint256 _amount) external onlyRegistered {... */\n      pop\n      jump\t// out\n        /* \"ETH - Henry/contracts/SimpleBank.sol\":1001:1031  uint256 public treasuryBalance */\n    tag_28:\n      sload(0x04)\n      dup2\n      jump\t// out\n        /* \"ETH - Henry/contracts/SimpleBank.sol\":2844:3608  function register(string calldata _firstName, string calldata _lastName) external {... */\n    tag_34:\n        /* \"ETH - Henry/contracts/SimpleBank.sol\":2972:2973  0 */\n      0x00\n        /* \"ETH - Henry/contracts/SimpleBank.sol\":2951:2961  _firstName */\n      dup5\n      dup5\n        /* \"ETH - Henry/contracts/SimpleBank.sol\":2945:2969  bytes(_firstName).length */\n      swap1\n      pop\n        /* \"ETH - Henry/contracts/SimpleBank.sol\":2945:2973  bytes(_firstName).length > 0 */\n      gt\n        /* \"ETH - Henry/contracts/SimpleBank.sol\":2937:3009  require(bytes(_firstName).length > 0, \"El nombre no puede estar vacio.\") */\n      tag_91\n      jumpi\n      mload(0x40)\n      0x08c379a000000000000000000000000000000000000000000000000000000000\n      dup2\n      mstore\n      0x04\n      add\n      tag_92\n      swap1\n      tag_93\n      jump\t// in\n    tag_92:\n      mload(0x40)\n      dup1\n      swap2\n      sub\n      swap1\n      revert\n    tag_91:\n        /* \"ETH - Henry/contracts/SimpleBank.sol\":3054:3055  0 */\n      0x00\n        /* \"ETH - Henry/contracts/SimpleBank.sol\":3034:3043  _lastName */\n      dup3\n      dup3\n        /* \"ETH - Henry/contracts/SimpleBank.sol\":3028:3051  bytes(_lastName).length */\n      swap1\n      pop\n        /* \"ETH - Henry/contracts/SimpleBank.sol\":3028:3055  bytes(_lastName).length > 0 */\n      gt\n        /* \"ETH - Henry/contracts/SimpleBank.sol\":3020:3093  require(bytes(_lastName).length > 0, \"El apellido no puede estar vacio.\") */\n      tag_94\n      jumpi\n      mload(0x40)\n      0x08c379a000000000000000000000000000000000000000000000000000000000\n      dup2\n      mstore\n      0x04\n      add\n      tag_95\n      swap1\n      tag_96\n      jump\t// in\n    tag_95:\n      mload(0x40)\n      dup1\n      swap2\n      sub\n      swap1\n      revert\n    tag_94:\n        /* \"ETH - Henry/contracts/SimpleBank.sol\":3113:3118  users */\n      0x00\n        /* \"ETH - Henry/contracts/SimpleBank.sol\":3113:3130  users[msg.sender] */\n      dup1\n        /* \"ETH - Henry/contracts/SimpleBank.sol\":3119:3129  msg.sender */\n      caller\n        /* \"ETH - Henry/contracts/SimpleBank.sol\":3113:3130  users[msg.sender] */\n      0xffffffffffffffffffffffffffffffffffffffff\n      and\n      0xffffffffffffffffffffffffffffffffffffffff\n      and\n      dup2\n      mstore\n      0x20\n      add\n      swap1\n      dup2\n      mstore\n      0x20\n      add\n      0x00\n      keccak256\n        /* \"ETH - Henry/contracts/SimpleBank.sol\":3113:3143  users[msg.sender].isRegistered */\n      0x03\n      add\n      0x00\n      swap1\n      sload\n      swap1\n      0x0100\n      exp\n      swap1\n      div\n      0xff\n      and\n        /* \"ETH - Henry/contracts/SimpleBank.sol\":3112:3143  !users[msg.sender].isRegistered */\n      iszero\n        /* \"ETH - Henry/contracts/SimpleBank.sol\":3104:3170  require(!users[msg.sender].isRegistered, \"Usuario ya registrado.\") */\n      tag_97\n      jumpi\n      mload(0x40)\n      0x08c379a000000000000000000000000000000000000000000000000000000000\n      dup2\n      mstore\n      0x04\n      add\n      tag_98\n      swap1\n      tag_99\n      jump\t// in\n    tag_98:\n      mload(0x40)\n      dup1\n      swap2\n      sub\n      swap1\n      revert\n    tag_97:\n        /* \"ETH - Henry/contracts/SimpleBank.sol\":3291:3436  User({... */\n      mload(0x40)\n      dup1\n      0x80\n      add\n      0x40\n      mstore\n      dup1\n        /* \"ETH - Henry/contracts/SimpleBank.sol\":3322:3332  _firstName */\n      dup6\n      dup6\n        /* \"ETH - Henry/contracts/SimpleBank.sol\":3291:3436  User({... */\n      dup1\n      dup1\n      0x1f\n      add\n      0x20\n      dup1\n      swap2\n      div\n      mul\n      0x20\n      add\n      mload(0x40)\n      swap1\n      dup2\n      add\n      0x40\n      mstore\n      dup1\n      swap4\n      swap3\n      swap2\n      swap1\n      dup2\n      dup2\n      mstore\n      0x20\n      add\n      dup4\n      dup4\n      dup1\n      dup3\n      dup5\n      calldatacopy\n      0x00\n      dup2\n      dup5\n      add\n      mstore\n      not(0x1f)\n      0x1f\n      dup3\n      add\n      and\n      swap1\n      pop\n      dup1\n      dup4\n      add\n      swap3\n      pop\n      pop\n      pop\n      pop\n      pop\n      pop\n      pop\n      dup2\n      mstore\n      0x20\n      add\n        /* \"ETH - Henry/contracts/SimpleBank.sol\":3357:3366  _lastName */\n      dup4\n      dup4\n        /* \"ETH - Henry/contracts/SimpleBank.sol\":3291:3436  User({... */\n      dup1\n      dup1\n      0x1f\n      add\n      0x20\n      dup1\n      swap2\n      div\n      mul\n      0x20\n      add\n      mload(0x40)\n      swap1\n      dup2\n      add\n      0x40\n      mstore\n      dup1\n      swap4\n      swap3\n      swap2\n      swap1\n      dup2\n      dup2\n      mstore\n      0x20\n      add\n      dup4\n      dup4\n      dup1\n      dup3\n      dup5\n      calldatacopy\n      0x00\n      dup2\n      dup5\n      add\n      mstore\n      not(0x1f)\n      0x1f\n      dup3\n      add\n      and\n      swap1\n      pop\n      dup1\n      dup4\n      add\n      swap3\n      pop\n      pop\n      pop\n      pop\n      pop\n      pop\n      pop\n      dup2\n      mstore\n      0x20\n      add\n        /* \"ETH - Henry/contracts/SimpleBank.sol\":3390:3391  0 */\n      0x00\n        /* \"ETH - Henry/contracts/SimpleBank.sol\":3291:3436  User({... */\n      dup2\n      mstore\n      0x20\n      add\n        /* \"ETH - Henry/contracts/SimpleBank.sol\":3420:3424  true */\n      0x01\n        /* \"ETH - Henry/contracts/SimpleBank.sol\":3291:3436  User({... */\n      iszero\n      iszero\n      dup2\n      mstore\n      pop\n        /* \"ETH - Henry/contracts/SimpleBank.sol\":3271:3276  users */\n      0x00\n        /* \"ETH - Henry/contracts/SimpleBank.sol\":3271:3288  users[msg.sender] */\n      dup1\n        /* \"ETH - Henry/contracts/SimpleBank.sol\":3277:3287  msg.sender */\n      caller\n        /* \"ETH - Henry/contracts/SimpleBank.sol\":3271:3288  users[msg.sender] */\n      0xffffffffffffffffffffffffffffffffffffffff\n      and\n      0xffffffffffffffffffffffffffffffffffffffff\n      and\n      dup2\n      mstore\n      0x20\n      add\n      swap1\n      dup2\n      mstore\n      0x20\n      add\n      0x00\n      keccak256\n        /* \"ETH - Henry/contracts/SimpleBank.sol\":3271:3436  users[msg.sender] = User({... */\n      0x00\n      dup3\n      add\n      mload\n      dup2\n      0x00\n      add\n      swap1\n      dup2\n      tag_100\n      swap2\n      swap1\n      tag_101\n      jump\t// in\n    tag_100:\n      pop\n      0x20\n      dup3\n      add\n      mload\n      dup2\n      0x01\n      add\n      swap1\n      dup2\n      tag_102\n      swap2\n      swap1\n      tag_101\n      jump\t// in\n    tag_102:\n      pop\n      0x40\n      dup3\n      add\n      mload\n      dup2\n      0x02\n      add\n      sstore\n      0x60\n      dup3\n      add\n      mload\n      dup2\n      0x03\n      add\n      exp(0x0100, 0x00)\n      dup2\n      sload\n      dup2\n      0xff\n      mul\n      not\n      and\n      swap1\n      dup4\n      iszero\n      iszero\n      mul\n      or\n      swap1\n      sstore\n      pop\n      swap1\n      pop\n      pop\n        /* \"ETH - Henry/contracts/SimpleBank.sol\":3566:3576  msg.sender */\n      caller\n        /* \"ETH - Henry/contracts/SimpleBank.sol\":3551:3600  UserRegistered(msg.sender, _firstName, _lastName) */\n      0xffffffffffffffffffffffffffffffffffffffff\n      and\n      0x92822564bab8864c3a47b34e8d23fbce5c46234eb5da261f94087b995ac0f33b\n        /* \"ETH - Henry/contracts/SimpleBank.sol\":3578:3588  _firstName */\n      dup6\n      dup6\n        /* \"ETH - Henry/contracts/SimpleBank.sol\":3590:3599  _lastName */\n      dup6\n      dup6\n        /* \"ETH - Henry/contracts/SimpleBank.sol\":3551:3600  UserRegistered(msg.sender, _firstName, _lastName) */\n      mload(0x40)\n      tag_103\n      swap5\n      swap4\n      swap3\n      swap2\n      swap1\n      tag_104\n      jump\t// in\n    tag_103:\n      mload(0x40)\n      dup1\n      swap2\n      sub\n      swap1\n      log2\n        /* \"ETH - Henry/contracts/SimpleBank.sol\":2844:3608  function register(string calldata _firstName, string calldata _lastName) external {... */\n      pop\n      pop\n      pop\n      pop\n      jump\t// out\n        /* \"ETH - Henry/contracts/SimpleBank.sol\":839:862  address public treasury */\n    tag_37:\n      0x02\n      0x00\n      swap1\n      sload\n      swap1\n      0x0100\n      exp\n      swap1\n      div\n      0xffffffffffffffffffffffffffffffffffffffff\n      and\n      dup2\n      jump\t// out\n        /* \"ETH - Henry/contracts/SimpleBank.sol\":757:777  address public owner */\n    tag_42:\n      0x01\n      0x00\n      swap1\n      sload\n      swap1\n      0x0100\n      exp\n      swap1\n      div\n      0xffffffffffffffffffffffffffffffffffffffff\n      and\n      dup2\n      jump\t// out\n        /* \"ETH - Henry/contracts/SimpleBank.sol\":909:938  uint256 public feeBasisPoints */\n    tag_46:\n      sload(0x03)\n      dup2\n      jump\t// out\n        /* \"ETH - Henry/contracts/SimpleBank.sol\":3713:4072  function deposit() external payable onlyRegistered {... */\n    tag_49:\n        /* \"ETH - Henry/contracts/SimpleBank.sol\":1585:1590  users */\n      0x00\n        /* \"ETH - Henry/contracts/SimpleBank.sol\":1585:1602  users[msg.sender] */\n      dup1\n        /* \"ETH - Henry/contracts/SimpleBank.sol\":1591:1601  msg.sender */\n      caller\n        /* \"ETH - Henry/contracts/SimpleBank.sol\":1585:1602  users[msg.sender] */\n      0xffffffffffffffffffffffffffffffffffffffff\n      and\n      0xffffffffffffffffffffffffffffffffffffffff\n      and\n      dup2\n      mstore\n      0x20\n      add\n      swap1\n      dup2\n      mstore\n      0x20\n      add\n      0x00\n      keccak256\n        /* \"ETH - Henry/contracts/SimpleBank.sol\":1585:1615  users[msg.sender].isRegistered */\n      0x03\n      add\n      0x00\n      swap1\n      sload\n      swap1\n      0x0100\n      exp\n      swap1\n      div\n      0xff\n      and\n        /* \"ETH - Henry/contracts/SimpleBank.sol\":1577:1642  require(users[msg.sender].isRegistered, \"Debe estar registrado.\") */\n      tag_106\n      jumpi\n      mload(0x40)\n      0x08c379a000000000000000000000000000000000000000000000000000000000\n      dup2\n      mstore\n      0x04\n      add\n      tag_107\n      swap1\n      tag_66\n      jump\t// in\n    tag_107:\n      mload(0x40)\n      dup1\n      swap2\n      sub\n      swap1\n      revert\n    tag_106:\n        /* \"ETH - Henry/contracts/SimpleBank.sol\":3795:3796  0 */\n      0x00\n        /* \"ETH - Henry/contracts/SimpleBank.sol\":3783:3792  msg.value */\n      callvalue\n        /* \"ETH - Henry/contracts/SimpleBank.sol\":3783:3796  msg.value > 0 */\n      gt\n        /* \"ETH - Henry/contracts/SimpleBank.sol\":3775:3835  require(msg.value > 0, \"El deposito debe ser mayor a cero.\") */\n      tag_109\n      jumpi\n      mload(0x40)\n      0x08c379a000000000000000000000000000000000000000000000000000000000\n      dup2\n      mstore\n      0x04\n      add\n      tag_110\n      swap1\n      tag_111\n      jump\t// in\n    tag_110:\n      mload(0x40)\n      dup1\n      swap2\n      sub\n      swap1\n      revert\n    tag_109:\n        /* \"ETH - Henry/contracts/SimpleBank.sol\":3941:3950  msg.value */\n      callvalue\n        /* \"ETH - Henry/contracts/SimpleBank.sol\":3912:3917  users */\n      0x00\n        /* \"ETH - Henry/contracts/SimpleBank.sol\":3912:3929  users[msg.sender] */\n      dup1\n        /* \"ETH - Henry/contracts/SimpleBank.sol\":3918:3928  msg.sender */\n      caller\n        /* \"ETH - Henry/contracts/SimpleBank.sol\":3912:3929  users[msg.sender] */\n      0xffffffffffffffffffffffffffffffffffffffff\n      and\n      0xffffffffffffffffffffffffffffffffffffffff\n      and\n      dup2\n      mstore\n      0x20\n      add\n      swap1\n      dup2\n      mstore\n      0x20\n      add\n      0x00\n      keccak256\n        /* \"ETH - Henry/contracts/SimpleBank.sol\":3912:3937  users[msg.sender].balance */\n      0x02\n      add\n      0x00\n        /* \"ETH - Henry/contracts/SimpleBank.sol\":3912:3950  users[msg.sender].balance += msg.value */\n      dup3\n      dup3\n      sload\n      tag_112\n      swap2\n      swap1\n      tag_85\n      jump\t// in\n    tag_112:\n      swap3\n      pop\n      pop\n      dup2\n      swap1\n      sstore\n      pop\n        /* \"ETH - Henry/contracts/SimpleBank.sol\":4042:4052  msg.sender */\n      caller\n        /* \"ETH - Henry/contracts/SimpleBank.sol\":4034:4064  Deposit(msg.sender, msg.value) */\n      0xffffffffffffffffffffffffffffffffffffffff\n      and\n      0xe1fffcc4923d04b559f4d29a8bfc6cda04eb5b0d3c460751c2402c5c5cc9109c\n        /* \"ETH - Henry/contracts/SimpleBank.sol\":4054:4063  msg.value */\n      callvalue\n        /* \"ETH - Henry/contracts/SimpleBank.sol\":4034:4064  Deposit(msg.sender, msg.value) */\n      mload(0x40)\n      tag_113\n      swap2\n      swap1\n      tag_21\n      jump\t// in\n    tag_113:\n      mload(0x40)\n      dup1\n      swap2\n      sub\n      swap1\n      log2\n        /* \"ETH - Henry/contracts/SimpleBank.sol\":3713:4072  function deposit() external payable onlyRegistered {... */\n      jump\t// out\n        /* \"#utility.yul\":88:205   */\n    tag_115:\n        /* \"#utility.yul\":197:198   */\n      0x00\n        /* \"#utility.yul\":194:195   */\n      dup1\n        /* \"#utility.yul\":187:199   */\n      revert\n        /* \"#utility.yul\":211:328   */\n    tag_116:\n        /* \"#utility.yul\":320:321   */\n      0x00\n        /* \"#utility.yul\":317:318   */\n      dup1\n        /* \"#utility.yul\":310:322   */\n      revert\n        /* \"#utility.yul\":334:411   */\n    tag_117:\n        /* \"#utility.yul\":371:378   */\n      0x00\n        /* \"#utility.yul\":400:405   */\n      dup2\n        /* \"#utility.yul\":389:405   */\n      swap1\n      pop\n        /* \"#utility.yul\":334:411   */\n      swap2\n      swap1\n      pop\n      jump\t// out\n        /* \"#utility.yul\":417:539   */\n    tag_118:\n        /* \"#utility.yul\":490:514   */\n      tag_177\n        /* \"#utility.yul\":508:513   */\n      dup2\n        /* \"#utility.yul\":490:514   */\n      tag_117\n      jump\t// in\n    tag_177:\n        /* \"#utility.yul\":483:488   */\n      dup2\n        /* \"#utility.yul\":480:515   */\n      eq\n        /* \"#utility.yul\":470:533   */\n      tag_178\n      jumpi\n        /* \"#utility.yul\":529:530   */\n      0x00\n        /* \"#utility.yul\":526:527   */\n      dup1\n        /* \"#utility.yul\":519:531   */\n      revert\n        /* \"#utility.yul\":470:533   */\n    tag_178:\n        /* \"#utility.yul\":417:539   */\n      pop\n      jump\t// out\n        /* \"#utility.yul\":545:684   */\n    tag_119:\n        /* \"#utility.yul\":591:596   */\n      0x00\n        /* \"#utility.yul\":629:635   */\n      dup2\n        /* \"#utility.yul\":616:636   */\n      calldataload\n        /* \"#utility.yul\":607:636   */\n      swap1\n      pop\n        /* \"#utility.yul\":645:678   */\n      tag_180\n        /* \"#utility.yul\":672:677   */\n      dup2\n        /* \"#utility.yul\":645:678   */\n      tag_118\n      jump\t// in\n    tag_180:\n        /* \"#utility.yul\":545:684   */\n      swap3\n      swap2\n      pop\n      pop\n      jump\t// out\n        /* \"#utility.yul\":690:1019   */\n    tag_15:\n        /* \"#utility.yul\":749:755   */\n      0x00\n        /* \"#utility.yul\":798:800   */\n      0x20\n        /* \"#utility.yul\":786:795   */\n      dup3\n        /* \"#utility.yul\":777:784   */\n      dup5\n        /* \"#utility.yul\":773:796   */\n      sub\n        /* \"#utility.yul\":769:801   */\n      slt\n        /* \"#utility.yul\":766:885   */\n      iszero\n      tag_182\n      jumpi\n        /* \"#utility.yul\":804:883   */\n      tag_183\n      tag_115\n      jump\t// in\n    tag_183:\n        /* \"#utility.yul\":766:885   */\n    tag_182:\n        /* \"#utility.yul\":924:925   */\n      0x00\n        /* \"#utility.yul\":949:1002   */\n      tag_184\n        /* \"#utility.yul\":994:1001   */\n      dup5\n        /* \"#utility.yul\":985:991   */\n      dup3\n        /* \"#utility.yul\":974:983   */\n      dup6\n        /* \"#utility.yul\":970:992   */\n      add\n        /* \"#utility.yul\":949:1002   */\n      tag_119\n      jump\t// in\n    tag_184:\n        /* \"#utility.yul\":939:1002   */\n      swap2\n      pop\n        /* \"#utility.yul\":895:1012   */\n      pop\n        /* \"#utility.yul\":690:1019   */\n      swap3\n      swap2\n      pop\n      pop\n      jump\t// out\n        /* \"#utility.yul\":1025:1143   */\n    tag_120:\n        /* \"#utility.yul\":1112:1136   */\n      tag_186\n        /* \"#utility.yul\":1130:1135   */\n      dup2\n        /* \"#utility.yul\":1112:1136   */\n      tag_117\n      jump\t// in\n    tag_186:\n        /* \"#utility.yul\":1107:1110   */\n      dup3\n        /* \"#utility.yul\":1100:1137   */\n      mstore\n        /* \"#utility.yul\":1025:1143   */\n      pop\n      pop\n      jump\t// out\n        /* \"#utility.yul\":1149:1371   */\n    tag_21:\n        /* \"#utility.yul\":1242:1246   */\n      0x00\n        /* \"#utility.yul\":1280:1282   */\n      0x20\n        /* \"#utility.yul\":1269:1278   */\n      dup3\n        /* \"#utility.yul\":1265:1283   */\n      add\n        /* \"#utility.yul\":1257:1283   */\n      swap1\n      pop\n        /* \"#utility.yul\":1293:1364   */\n      tag_188\n        /* \"#utility.yul\":1361:1362   */\n      0x00\n        /* \"#utility.yul\":1350:1359   */\n      dup4\n        /* \"#utility.yul\":1346:1363   */\n      add\n        /* \"#utility.yul\":1337:1343   */\n      dup5\n        /* \"#utility.yul\":1293:1364   */\n      tag_120\n      jump\t// in\n    tag_188:\n        /* \"#utility.yul\":1149:1371   */\n      swap3\n      swap2\n      pop\n      pop\n      jump\t// out\n        /* \"#utility.yul\":1377:1494   */\n    tag_121:\n        /* \"#utility.yul\":1486:1487   */\n      0x00\n        /* \"#utility.yul\":1483:1484   */\n      dup1\n        /* \"#utility.yul\":1476:1488   */\n      revert\n        /* \"#utility.yul\":1500:1617   */\n    tag_122:\n        /* \"#utility.yul\":1609:1610   */\n      0x00\n        /* \"#utility.yul\":1606:1607   */\n      dup1\n        /* \"#utility.yul\":1599:1611   */\n      revert\n        /* \"#utility.yul\":1623:1740   */\n    tag_123:\n        /* \"#utility.yul\":1732:1733   */\n      0x00\n        /* \"#utility.yul\":1729:1730   */\n      dup1\n        /* \"#utility.yul\":1722:1734   */\n      revert\n        /* \"#utility.yul\":1760:2313   */\n    tag_124:\n        /* \"#utility.yul\":1818:1826   */\n      0x00\n        /* \"#utility.yul\":1828:1834   */\n      dup1\n        /* \"#utility.yul\":1878:1881   */\n      dup4\n        /* \"#utility.yul\":1871:1875   */\n      0x1f\n        /* \"#utility.yul\":1863:1869   */\n      dup5\n        /* \"#utility.yul\":1859:1876   */\n      add\n        /* \"#utility.yul\":1855:1882   */\n      slt\n        /* \"#utility.yul\":1845:1967   */\n      tag_193\n      jumpi\n        /* \"#utility.yul\":1886:1965   */\n      tag_194\n      tag_121\n      jump\t// in\n    tag_194:\n        /* \"#utility.yul\":1845:1967   */\n    tag_193:\n        /* \"#utility.yul\":1999:2005   */\n      dup3\n        /* \"#utility.yul\":1986:2006   */\n      calldataload\n        /* \"#utility.yul\":1976:2006   */\n      swap1\n      pop\n        /* \"#utility.yul\":2029:2047   */\n      0xffffffffffffffff\n        /* \"#utility.yul\":2021:2027   */\n      dup2\n        /* \"#utility.yul\":2018:2048   */\n      gt\n        /* \"#utility.yul\":2015:2132   */\n      iszero\n      tag_195\n      jumpi\n        /* \"#utility.yul\":2051:2130   */\n      tag_196\n      tag_122\n      jump\t// in\n    tag_196:\n        /* \"#utility.yul\":2015:2132   */\n    tag_195:\n        /* \"#utility.yul\":2165:2169   */\n      0x20\n        /* \"#utility.yul\":2157:2163   */\n      dup4\n        /* \"#utility.yul\":2153:2170   */\n      add\n        /* \"#utility.yul\":2141:2170   */\n      swap2\n      pop\n        /* \"#utility.yul\":2219:2222   */\n      dup4\n        /* \"#utility.yul\":2211:2215   */\n      0x01\n        /* \"#utility.yul\":2203:2209   */\n      dup3\n        /* \"#utility.yul\":2199:2216   */\n      mul\n        /* \"#utility.yul\":2189:2197   */\n      dup4\n        /* \"#utility.yul\":2185:2217   */\n      add\n        /* \"#utility.yul\":2182:2223   */\n      gt\n        /* \"#utility.yul\":2179:2307   */\n      iszero\n      tag_197\n      jumpi\n        /* \"#utility.yul\":2226:2305   */\n      tag_198\n      tag_123\n      jump\t// in\n    tag_198:\n        /* \"#utility.yul\":2179:2307   */\n    tag_197:\n        /* \"#utility.yul\":1760:2313   */\n      swap3\n      pop\n      swap3\n      swap1\n      pop\n      jump\t// out\n        /* \"#utility.yul\":2319:3193   */\n    tag_33:\n        /* \"#utility.yul\":2411:2417   */\n      0x00\n        /* \"#utility.yul\":2419:2425   */\n      dup1\n        /* \"#utility.yul\":2427:2433   */\n      0x00\n        /* \"#utility.yul\":2435:2441   */\n      dup1\n        /* \"#utility.yul\":2484:2486   */\n      0x40\n        /* \"#utility.yul\":2472:2481   */\n      dup6\n        /* \"#utility.yul\":2463:2470   */\n      dup8\n        /* \"#utility.yul\":2459:2482   */\n      sub\n        /* \"#utility.yul\":2455:2487   */\n      slt\n        /* \"#utility.yul\":2452:2571   */\n      iszero\n      tag_200\n      jumpi\n        /* \"#utility.yul\":2490:2569   */\n      tag_201\n      tag_115\n      jump\t// in\n    tag_201:\n        /* \"#utility.yul\":2452:2571   */\n    tag_200:\n        /* \"#utility.yul\":2638:2639   */\n      0x00\n        /* \"#utility.yul\":2627:2636   */\n      dup6\n        /* \"#utility.yul\":2623:2640   */\n      add\n        /* \"#utility.yul\":2610:2641   */\n      calldataload\n        /* \"#utility.yul\":2668:2686   */\n      0xffffffffffffffff\n        /* \"#utility.yul\":2660:2666   */\n      dup2\n        /* \"#utility.yul\":2657:2687   */\n      gt\n        /* \"#utility.yul\":2654:2771   */\n      iszero\n      tag_202\n      jumpi\n        /* \"#utility.yul\":2690:2769   */\n      tag_203\n      tag_116\n      jump\t// in\n    tag_203:\n        /* \"#utility.yul\":2654:2771   */\n    tag_202:\n        /* \"#utility.yul\":2803:2868   */\n      tag_204\n        /* \"#utility.yul\":2860:2867   */\n      dup8\n        /* \"#utility.yul\":2851:2857   */\n      dup3\n        /* \"#utility.yul\":2840:2849   */\n      dup9\n        /* \"#utility.yul\":2836:2858   */\n      add\n        /* \"#utility.yul\":2803:2868   */\n      tag_124\n      jump\t// in\n    tag_204:\n        /* \"#utility.yul\":2785:2868   */\n      swap5\n      pop\n      swap5\n      pop\n        /* \"#utility.yul\":2581:2878   */\n      pop\n        /* \"#utility.yul\":2945:2947   */\n      0x20\n        /* \"#utility.yul\":2934:2943   */\n      dup6\n        /* \"#utility.yul\":2930:2948   */\n      add\n        /* \"#utility.yul\":2917:2949   */\n      calldataload\n        /* \"#utility.yul\":2976:2994   */\n      0xffffffffffffffff\n        /* \"#utility.yul\":2968:2974   */\n      dup2\n        /* \"#utility.yul\":2965:2995   */\n      gt\n        /* \"#utility.yul\":2962:3079   */\n      iszero\n      tag_205\n      jumpi\n        /* \"#utility.yul\":2998:3077   */\n      tag_206\n      tag_116\n      jump\t// in\n    tag_206:\n        /* \"#utility.yul\":2962:3079   */\n    tag_205:\n        /* \"#utility.yul\":3111:3176   */\n      tag_207\n        /* \"#utility.yul\":3168:3175   */\n      dup8\n        /* \"#utility.yul\":3159:3165   */\n      dup3\n        /* \"#utility.yul\":3148:3157   */\n      dup9\n        /* \"#utility.yul\":3144:3166   */\n      add\n        /* \"#utility.yul\":3111:3176   */\n      tag_124\n      jump\t// in\n    tag_207:\n        /* \"#utility.yul\":3093:3176   */\n      swap3\n      pop\n      swap3\n      pop\n        /* \"#utility.yul\":2888:3186   */\n      pop\n        /* \"#utility.yul\":2319:3193   */\n      swap3\n      swap6\n      swap2\n      swap5\n      pop\n      swap3\n      pop\n      jump\t// out\n        /* \"#utility.yul\":3199:3325   */\n    tag_125:\n        /* \"#utility.yul\":3236:3243   */\n      0x00\n        /* \"#utility.yul\":3276:3318   */\n      0xffffffffffffffffffffffffffffffffffffffff\n        /* \"#utility.yul\":3269:3274   */\n      dup3\n        /* \"#utility.yul\":3265:3319   */\n      and\n        /* \"#utility.yul\":3254:3319   */\n      swap1\n      pop\n        /* \"#utility.yul\":3199:3325   */\n      swap2\n      swap1\n      pop\n      jump\t// out\n        /* \"#utility.yul\":3331:3427   */\n    tag_126:\n        /* \"#utility.yul\":3368:3375   */\n      0x00\n        /* \"#utility.yul\":3397:3421   */\n      tag_210\n        /* \"#utility.yul\":3415:3420   */\n      dup3\n        /* \"#utility.yul\":3397:3421   */\n      tag_125\n      jump\t// in\n    tag_210:\n        /* \"#utility.yul\":3386:3421   */\n      swap1\n      pop\n        /* \"#utility.yul\":3331:3427   */\n      swap2\n      swap1\n      pop\n      jump\t// out\n        /* \"#utility.yul\":3433:3551   */\n    tag_127:\n        /* \"#utility.yul\":3520:3544   */\n      tag_212\n        /* \"#utility.yul\":3538:3543   */\n      dup2\n        /* \"#utility.yul\":3520:3544   */\n      tag_126\n      jump\t// in\n    tag_212:\n        /* \"#utility.yul\":3515:3518   */\n      dup3\n        /* \"#utility.yul\":3508:3545   */\n      mstore\n        /* \"#utility.yul\":3433:3551   */\n      pop\n      pop\n      jump\t// out\n        /* \"#utility.yul\":3557:3779   */\n    tag_39:\n        /* \"#utility.yul\":3650:3654   */\n      0x00\n        /* \"#utility.yul\":3688:3690   */\n      0x20\n        /* \"#utility.yul\":3677:3686   */\n      dup3\n        /* \"#utility.yul\":3673:3691   */\n      add\n        /* \"#utility.yul\":3665:3691   */\n      swap1\n      pop\n        /* \"#utility.yul\":3701:3772   */\n      tag_214\n        /* \"#utility.yul\":3769:3770   */\n      0x00\n        /* \"#utility.yul\":3758:3767   */\n      dup4\n        /* \"#utility.yul\":3754:3771   */\n      add\n        /* \"#utility.yul\":3745:3751   */\n      dup5\n        /* \"#utility.yul\":3701:3772   */\n      tag_127\n      jump\t// in\n    tag_214:\n        /* \"#utility.yul\":3557:3779   */\n      swap3\n      swap2\n      pop\n      pop\n      jump\t// out\n        /* \"#utility.yul\":3785:3954   */\n    tag_128:\n        /* \"#utility.yul\":3869:3880   */\n      0x00\n        /* \"#utility.yul\":3903:3909   */\n      dup3\n        /* \"#utility.yul\":3898:3901   */\n      dup3\n        /* \"#utility.yul\":3891:3910   */\n      mstore\n        /* \"#utility.yul\":3943:3947   */\n      0x20\n        /* \"#utility.yul\":3938:3941   */\n      dup3\n        /* \"#utility.yul\":3934:3948   */\n      add\n        /* \"#utility.yul\":3919:3948   */\n      swap1\n      pop\n        /* \"#utility.yul\":3785:3954   */\n      swap3\n      swap2\n      pop\n      pop\n      jump\t// out\n        /* \"#utility.yul\":3960:4195   */\n    tag_129:\n        /* \"#utility.yul\":4100:4134   */\n      0x536f6c6f20656c2070726f706965746172696f20707565646520656a65637574\n        /* \"#utility.yul\":4096:4097   */\n      0x00\n        /* \"#utility.yul\":4088:4094   */\n      dup3\n        /* \"#utility.yul\":4084:4098   */\n      add\n        /* \"#utility.yul\":4077:4135   */\n      mstore\n        /* \"#utility.yul\":4169:4187   */\n      0x617220657374612066756e63696f6e2e00000000000000000000000000000000\n        /* \"#utility.yul\":4164:4166   */\n      0x20\n        /* \"#utility.yul\":4156:4162   */\n      dup3\n        /* \"#utility.yul\":4152:4167   */\n      add\n        /* \"#utility.yul\":4145:4188   */\n      mstore\n        /* \"#utility.yul\":3960:4195   */\n      pop\n      jump\t// out\n        /* \"#utility.yul\":4201:4567   */\n    tag_130:\n        /* \"#utility.yul\":4343:4346   */\n      0x00\n        /* \"#utility.yul\":4364:4431   */\n      tag_218\n        /* \"#utility.yul\":4428:4430   */\n      0x30\n        /* \"#utility.yul\":4423:4426   */\n      dup4\n        /* \"#utility.yul\":4364:4431   */\n      tag_128\n      jump\t// in\n    tag_218:\n        /* \"#utility.yul\":4357:4431   */\n      swap2\n      pop\n        /* \"#utility.yul\":4440:4533   */\n      tag_219\n        /* \"#utility.yul\":4529:4532   */\n      dup3\n        /* \"#utility.yul\":4440:4533   */\n      tag_129\n      jump\t// in\n    tag_219:\n        /* \"#utility.yul\":4558:4560   */\n      0x40\n        /* \"#utility.yul\":4553:4556   */\n      dup3\n        /* \"#utility.yul\":4549:4561   */\n      add\n        /* \"#utility.yul\":4542:4561   */\n      swap1\n      pop\n        /* \"#utility.yul\":4201:4567   */\n      swap2\n      swap1\n      pop\n      jump\t// out\n        /* \"#utility.yul\":4573:4992   */\n    tag_53:\n        /* \"#utility.yul\":4739:4743   */\n      0x00\n        /* \"#utility.yul\":4777:4779   */\n      0x20\n        /* \"#utility.yul\":4766:4775   */\n      dup3\n        /* \"#utility.yul\":4762:4780   */\n      add\n        /* \"#utility.yul\":4754:4780   */\n      swap1\n      pop\n        /* \"#utility.yul\":4826:4835   */\n      dup2\n        /* \"#utility.yul\":4820:4824   */\n      dup2\n        /* \"#utility.yul\":4816:4836   */\n      sub\n        /* \"#utility.yul\":4812:4813   */\n      0x00\n        /* \"#utility.yul\":4801:4810   */\n      dup4\n        /* \"#utility.yul\":4797:4814   */\n      add\n        /* \"#utility.yul\":4790:4837   */\n      mstore\n        /* \"#utility.yul\":4854:4985   */\n      tag_221\n        /* \"#utility.yul\":4980:4984   */\n      dup2\n        /* \"#utility.yul\":4854:4985   */\n      tag_130\n      jump\t// in\n    tag_221:\n        /* \"#utility.yul\":4846:4985   */\n      swap1\n      pop\n        /* \"#utility.yul\":4573:4992   */\n      swap2\n      swap1\n      pop\n      jump\t// out\n        /* \"#utility.yul\":4998:5222   */\n    tag_131:\n        /* \"#utility.yul\":5138:5172   */\n      0x466f6e646f7320696e737566696369656e74657320656e206c61207465736f72\n        /* \"#utility.yul\":5134:5135   */\n      0x00\n        /* \"#utility.yul\":5126:5132   */\n      dup3\n        /* \"#utility.yul\":5122:5136   */\n      add\n        /* \"#utility.yul\":5115:5173   */\n      mstore\n        /* \"#utility.yul\":5207:5214   */\n      0x657269612e000000000000000000000000000000000000000000000000000000\n        /* \"#utility.yul\":5202:5204   */\n      0x20\n        /* \"#utility.yul\":5194:5200   */\n      dup3\n        /* \"#utility.yul\":5190:5205   */\n      add\n        /* \"#utility.yul\":5183:5215   */\n      mstore\n        /* \"#utility.yul\":4998:5222   */\n      pop\n      jump\t// out\n        /* \"#utility.yul\":5228:5594   */\n    tag_132:\n        /* \"#utility.yul\":5370:5373   */\n      0x00\n        /* \"#utility.yul\":5391:5458   */\n      tag_224\n        /* \"#utility.yul\":5455:5457   */\n      0x25\n        /* \"#utility.yul\":5450:5453   */\n      dup4\n        /* \"#utility.yul\":5391:5458   */\n      tag_128\n      jump\t// in\n    tag_224:\n        /* \"#utility.yul\":5384:5458   */\n      swap2\n      pop\n        /* \"#utility.yul\":5467:5560   */\n      tag_225\n        /* \"#utility.yul\":5556:5559   */\n      dup3\n        /* \"#utility.yul\":5467:5560   */\n      tag_131\n      jump\t// in\n    tag_225:\n        /* \"#utility.yul\":5585:5587   */\n      0x40\n        /* \"#utility.yul\":5580:5583   */\n      dup3\n        /* \"#utility.yul\":5576:5588   */\n      add\n        /* \"#utility.yul\":5569:5588   */\n      swap1\n      pop\n        /* \"#utility.yul\":5228:5594   */\n      swap2\n      swap1\n      pop\n      jump\t// out\n        /* \"#utility.yul\":5600:6019   */\n    tag_57:\n        /* \"#utility.yul\":5766:5770   */\n      0x00\n        /* \"#utility.yul\":5804:5806   */\n      0x20\n        /* \"#utility.yul\":5793:5802   */\n      dup3\n        /* \"#utility.yul\":5789:5807   */\n      add\n        /* \"#utility.yul\":5781:5807   */\n      swap1\n      pop\n        /* \"#utility.yul\":5853:5862   */\n      dup2\n        /* \"#utility.yul\":5847:5851   */\n      dup2\n        /* \"#utility.yul\":5843:5863   */\n      sub\n        /* \"#utility.yul\":5839:5840   */\n      0x00\n        /* \"#utility.yul\":5828:5837   */\n      dup4\n        /* \"#utility.yul\":5824:5841   */\n      add\n        /* \"#utility.yul\":5817:5864   */\n      mstore\n        /* \"#utility.yul\":5881:6012   */\n      tag_227\n        /* \"#utility.yul\":6007:6011   */\n      dup2\n        /* \"#utility.yul\":5881:6012   */\n      tag_132\n      jump\t// in\n    tag_227:\n        /* \"#utility.yul\":5873:6012   */\n      swap1\n      pop\n        /* \"#utility.yul\":5600:6019   */\n      swap2\n      swap1\n      pop\n      jump\t// out\n        /* \"#utility.yul\":6025:6205   */\n    tag_133:\n        /* \"#utility.yul\":6073:6150   */\n      0x4e487b7100000000000000000000000000000000000000000000000000000000\n        /* \"#utility.yul\":6070:6071   */\n      0x00\n        /* \"#utility.yul\":6063:6151   */\n      mstore\n        /* \"#utility.yul\":6170:6174   */\n      0x11\n        /* \"#utility.yul\":6167:6168   */\n      0x04\n        /* \"#utility.yul\":6160:6175   */\n      mstore\n        /* \"#utility.yul\":6194:6198   */\n      0x24\n        /* \"#utility.yul\":6191:6192   */\n      0x00\n        /* \"#utility.yul\":6184:6199   */\n      revert\n        /* \"#utility.yul\":6211:6405   */\n    tag_59:\n        /* \"#utility.yul\":6251:6255   */\n      0x00\n        /* \"#utility.yul\":6271:6291   */\n      tag_230\n        /* \"#utility.yul\":6289:6290   */\n      dup3\n        /* \"#utility.yul\":6271:6291   */\n      tag_117\n      jump\t// in\n    tag_230:\n        /* \"#utility.yul\":6266:6291   */\n      swap2\n      pop\n        /* \"#utility.yul\":6305:6325   */\n      tag_231\n        /* \"#utility.yul\":6323:6324   */\n      dup4\n        /* \"#utility.yul\":6305:6325   */\n      tag_117\n      jump\t// in\n    tag_231:\n        /* \"#utility.yul\":6300:6325   */\n      swap3\n      pop\n        /* \"#utility.yul\":6349:6350   */\n      dup3\n        /* \"#utility.yul\":6346:6347   */\n      dup3\n        /* \"#utility.yul\":6342:6351   */\n      sub\n        /* \"#utility.yul\":6334:6351   */\n      swap1\n      pop\n        /* \"#utility.yul\":6373:6374   */\n      dup2\n        /* \"#utility.yul\":6367:6371   */\n      dup2\n        /* \"#utility.yul\":6364:6375   */\n      gt\n        /* \"#utility.yul\":6361:6398   */\n      iszero\n      tag_232\n      jumpi\n        /* \"#utility.yul\":6378:6396   */\n      tag_233\n      tag_133\n      jump\t// in\n    tag_233:\n        /* \"#utility.yul\":6361:6398   */\n    tag_232:\n        /* \"#utility.yul\":6211:6405   */\n      swap3\n      swap2\n      pop\n      pop\n      jump\t// out\n        /* \"#utility.yul\":6411:6583   */\n    tag_134:\n        /* \"#utility.yul\":6551:6575   */\n      0x44656265206573746172207265676973747261646f2e00000000000000000000\n        /* \"#utility.yul\":6547:6548   */\n      0x00\n        /* \"#utility.yul\":6539:6545   */\n      dup3\n        /* \"#utility.yul\":6535:6549   */\n      add\n        /* \"#utility.yul\":6528:6576   */\n      mstore\n        /* \"#utility.yul\":6411:6583   */\n      pop\n      jump\t// out\n        /* \"#utility.yul\":6589:6955   */\n    tag_135:\n        /* \"#utility.yul\":6731:6734   */\n      0x00\n        /* \"#utility.yul\":6752:6819   */\n      tag_236\n        /* \"#utility.yul\":6816:6818   */\n      0x16\n        /* \"#utility.yul\":6811:6814   */\n      dup4\n        /* \"#utility.yul\":6752:6819   */\n      tag_128\n      jump\t// in\n    tag_236:\n        /* \"#utility.yul\":6745:6819   */\n      swap2\n      pop\n        /* \"#utility.yul\":6828:6921   */\n      tag_237\n        /* \"#utility.yul\":6917:6920   */\n      dup3\n        /* \"#utility.yul\":6828:6921   */\n      tag_134\n      jump\t// in\n    tag_237:\n        /* \"#utility.yul\":6946:6948   */\n      0x20\n        /* \"#utility.yul\":6941:6944   */\n      dup3\n        /* \"#utility.yul\":6937:6949   */\n      add\n        /* \"#utility.yul\":6930:6949   */\n      swap1\n      pop\n        /* \"#utility.yul\":6589:6955   */\n      swap2\n      swap1\n      pop\n      jump\t// out\n        /* \"#utility.yul\":6961:7380   */\n    tag_66:\n        /* \"#utility.yul\":7127:7131   */\n      0x00\n        /* \"#utility.yul\":7165:7167   */\n      0x20\n        /* \"#utility.yul\":7154:7163   */\n      dup3\n        /* \"#utility.yul\":7150:7168   */\n      add\n        /* \"#utility.yul\":7142:7168   */\n      swap1\n      pop\n        /* \"#utility.yul\":7214:7223   */\n      dup2\n        /* \"#utility.yul\":7208:7212   */\n      dup2\n        /* \"#utility.yul\":7204:7224   */\n      sub\n        /* \"#utility.yul\":7200:7201   */\n      0x00\n        /* \"#utility.yul\":7189:7198   */\n      dup4\n        /* \"#utility.yul\":7185:7202   */\n      add\n        /* \"#utility.yul\":7178:7225   */\n      mstore\n        /* \"#utility.yul\":7242:7373   */\n      tag_239\n        /* \"#utility.yul\":7368:7372   */\n      dup2\n        /* \"#utility.yul\":7242:7373   */\n      tag_135\n      jump\t// in\n    tag_239:\n        /* \"#utility.yul\":7234:7373   */\n      swap1\n      pop\n        /* \"#utility.yul\":6961:7380   */\n      swap2\n      swap1\n      pop\n      jump\t// out\n        /* \"#utility.yul\":7386:7567   */\n    tag_136:\n        /* \"#utility.yul\":7526:7559   */\n      0x456c206d6f6e746f206465626520736572206d61796f722061206365726f2e00\n        /* \"#utility.yul\":7522:7523   */\n      0x00\n        /* \"#utility.yul\":7514:7520   */\n      dup3\n        /* \"#utility.yul\":7510:7524   */\n      add\n        /* \"#utility.yul\":7503:7560   */\n      mstore\n        /* \"#utility.yul\":7386:7567   */\n      pop\n      jump\t// out\n        /* \"#utility.yul\":7573:7939   */\n    tag_137:\n        /* \"#utility.yul\":7715:7718   */\n      0x00\n        /* \"#utility.yul\":7736:7803   */\n      tag_242\n        /* \"#utility.yul\":7800:7802   */\n      0x1f\n        /* \"#utility.yul\":7795:7798   */\n      dup4\n        /* \"#utility.yul\":7736:7803   */\n      tag_128\n      jump\t// in\n    tag_242:\n        /* \"#utility.yul\":7729:7803   */\n      swap2\n      pop\n        /* \"#utility.yul\":7812:7905   */\n      tag_243\n        /* \"#utility.yul\":7901:7904   */\n      dup3\n        /* \"#utility.yul\":7812:7905   */\n      tag_136\n      jump\t// in\n    tag_243:\n        /* \"#utility.yul\":7930:7932   */\n      0x20\n        /* \"#utility.yul\":7925:7928   */\n      dup3\n        /* \"#utility.yul\":7921:7933   */\n      add\n        /* \"#utility.yul\":7914:7933   */\n      swap1\n      pop\n        /* \"#utility.yul\":7573:7939   */\n      swap2\n      swap1\n      pop\n      jump\t// out\n        /* \"#utility.yul\":7945:8364   */\n    tag_74:\n        /* \"#utility.yul\":8111:8115   */\n      0x00\n        /* \"#utility.yul\":8149:8151   */\n      0x20\n        /* \"#utility.yul\":8138:8147   */\n      dup3\n        /* \"#utility.yul\":8134:8152   */\n      add\n        /* \"#utility.yul\":8126:8152   */\n      swap1\n      pop\n        /* \"#utility.yul\":8198:8207   */\n      dup2\n        /* \"#utility.yul\":8192:8196   */\n      dup2\n        /* \"#utility.yul\":8188:8208   */\n      sub\n        /* \"#utility.yul\":8184:8185   */\n      0x00\n        /* \"#utility.yul\":8173:8182   */\n      dup4\n        /* \"#utility.yul\":8169:8186   */\n      add\n        /* \"#utility.yul\":8162:8209   */\n      mstore\n        /* \"#utility.yul\":8226:8357   */\n      tag_245\n        /* \"#utility.yul\":8352:8356   */\n      dup2\n        /* \"#utility.yul\":8226:8357   */\n      tag_137\n      jump\t// in\n    tag_245:\n        /* \"#utility.yul\":8218:8357   */\n      swap1\n      pop\n        /* \"#utility.yul\":7945:8364   */\n      swap2\n      swap1\n      pop\n      jump\t// out\n        /* \"#utility.yul\":8370:8539   */\n    tag_138:\n        /* \"#utility.yul\":8510:8531   */\n      0x53616c646f20696e737566696369656e74652e00000000000000000000000000\n        /* \"#utility.yul\":8506:8507   */\n      0x00\n        /* \"#utility.yul\":8498:8504   */\n      dup3\n        /* \"#utility.yul\":8494:8508   */\n      add\n        /* \"#utility.yul\":8487:8532   */\n      mstore\n        /* \"#utility.yul\":8370:8539   */\n      pop\n      jump\t// out\n        /* \"#utility.yul\":8545:8911   */\n    tag_139:\n        /* \"#utility.yul\":8687:8690   */\n      0x00\n        /* \"#utility.yul\":8708:8775   */\n      tag_248\n        /* \"#utility.yul\":8772:8774   */\n      0x13\n        /* \"#utility.yul\":8767:8770   */\n      dup4\n        /* \"#utility.yul\":8708:8775   */\n      tag_128\n      jump\t// in\n    tag_248:\n        /* \"#utility.yul\":8701:8775   */\n      swap2\n      pop\n        /* \"#utility.yul\":8784:8877   */\n      tag_249\n        /* \"#utility.yul\":8873:8876   */\n      dup3\n        /* \"#utility.yul\":8784:8877   */\n      tag_138\n      jump\t// in\n    tag_249:\n        /* \"#utility.yul\":8902:8904   */\n      0x20\n        /* \"#utility.yul\":8897:8900   */\n      dup3\n        /* \"#utility.yul\":8893:8905   */\n      add\n        /* \"#utility.yul\":8886:8905   */\n      swap1\n      pop\n        /* \"#utility.yul\":8545:8911   */\n      swap2\n      swap1\n      pop\n      jump\t// out\n        /* \"#utility.yul\":8917:9336   */\n    tag_77:\n        /* \"#utility.yul\":9083:9087   */\n      0x00\n        /* \"#utility.yul\":9121:9123   */\n      0x20\n        /* \"#utility.yul\":9110:9119   */\n      dup3\n        /* \"#utility.yul\":9106:9124   */\n      add\n        /* \"#utility.yul\":9098:9124   */\n      swap1\n      pop\n        /* \"#utility.yul\":9170:9179   */\n      dup2\n        /* \"#utility.yul\":9164:9168   */\n      dup2\n        /* \"#utility.yul\":9160:9180   */\n      sub\n        /* \"#utility.yul\":9156:9157   */\n      0x00\n        /* \"#utility.yul\":9145:9154   */\n      dup4\n        /* \"#utility.yul\":9141:9158   */\n      add\n        /* \"#utility.yul\":9134:9181   */\n      mstore\n        /* \"#utility.yul\":9198:9329   */\n      tag_251\n        /* \"#utility.yul\":9324:9328   */\n      dup2\n        /* \"#utility.yul\":9198:9329   */\n      tag_139\n      jump\t// in\n    tag_251:\n        /* \"#utility.yul\":9190:9329   */\n      swap1\n      pop\n        /* \"#utility.yul\":8917:9336   */\n      swap2\n      swap1\n      pop\n      jump\t// out\n        /* \"#utility.yul\":9342:9752   */\n    tag_79:\n        /* \"#utility.yul\":9382:9389   */\n      0x00\n        /* \"#utility.yul\":9405:9425   */\n      tag_253\n        /* \"#utility.yul\":9423:9424   */\n      dup3\n        /* \"#utility.yul\":9405:9425   */\n      tag_117\n      jump\t// in\n    tag_253:\n        /* \"#utility.yul\":9400:9425   */\n      swap2\n      pop\n        /* \"#utility.yul\":9439:9459   */\n      tag_254\n        /* \"#utility.yul\":9457:9458   */\n      dup4\n        /* \"#utility.yul\":9439:9459   */\n      tag_117\n      jump\t// in\n    tag_254:\n        /* \"#utility.yul\":9434:9459   */\n      swap3\n      pop\n        /* \"#utility.yul\":9494:9495   */\n      dup3\n        /* \"#utility.yul\":9491:9492   */\n      dup3\n        /* \"#utility.yul\":9487:9496   */\n      mul\n        /* \"#utility.yul\":9516:9546   */\n      tag_255\n        /* \"#utility.yul\":9534:9545   */\n      dup2\n        /* \"#utility.yul\":9516:9546   */\n      tag_117\n      jump\t// in\n    tag_255:\n        /* \"#utility.yul\":9505:9546   */\n      swap2\n      pop\n        /* \"#utility.yul\":9695:9696   */\n      dup3\n        /* \"#utility.yul\":9686:9693   */\n      dup3\n        /* \"#utility.yul\":9682:9697   */\n      div\n        /* \"#utility.yul\":9679:9680   */\n      dup5\n        /* \"#utility.yul\":9676:9698   */\n      eq\n        /* \"#utility.yul\":9656:9657   */\n      dup4\n        /* \"#utility.yul\":9649:9658   */\n      iszero\n        /* \"#utility.yul\":9629:9712   */\n      or\n        /* \"#utility.yul\":9606:9745   */\n      tag_256\n      jumpi\n        /* \"#utility.yul\":9725:9743   */\n      tag_257\n      tag_133\n      jump\t// in\n    tag_257:\n        /* \"#utility.yul\":9606:9745   */\n    tag_256:\n        /* \"#utility.yul\":9390:9752   */\n      pop\n        /* \"#utility.yul\":9342:9752   */\n      swap3\n      swap2\n      pop\n      pop\n      jump\t// out\n        /* \"#utility.yul\":9758:9938   */\n    tag_140:\n        /* \"#utility.yul\":9806:9883   */\n      0x4e487b7100000000000000000000000000000000000000000000000000000000\n        /* \"#utility.yul\":9803:9804   */\n      0x00\n        /* \"#utility.yul\":9796:9884   */\n      mstore\n        /* \"#utility.yul\":9903:9907   */\n      0x12\n        /* \"#utility.yul\":9900:9901   */\n      0x04\n        /* \"#utility.yul\":9893:9908   */\n      mstore\n        /* \"#utility.yul\":9927:9931   */\n      0x24\n        /* \"#utility.yul\":9924:9925   */\n      0x00\n        /* \"#utility.yul\":9917:9932   */\n      revert\n        /* \"#utility.yul\":9944:10129   */\n    tag_81:\n        /* \"#utility.yul\":9984:9985   */\n      0x00\n        /* \"#utility.yul\":10001:10021   */\n      tag_260\n        /* \"#utility.yul\":10019:10020   */\n      dup3\n        /* \"#utility.yul\":10001:10021   */\n      tag_117\n      jump\t// in\n    tag_260:\n        /* \"#utility.yul\":9996:10021   */\n      swap2\n      pop\n        /* \"#utility.yul\":10035:10055   */\n      tag_261\n        /* \"#utility.yul\":10053:10054   */\n      dup4\n        /* \"#utility.yul\":10035:10055   */\n      tag_117\n      jump\t// in\n    tag_261:\n        /* \"#utility.yul\":10030:10055   */\n      swap3\n      pop\n        /* \"#utility.yul\":10074:10075   */\n      dup3\n        /* \"#utility.yul\":10064:10099   */\n      tag_262\n      jumpi\n        /* \"#utility.yul\":10079:10097   */\n      tag_263\n      tag_140\n      jump\t// in\n    tag_263:\n        /* \"#utility.yul\":10064:10099   */\n    tag_262:\n        /* \"#utility.yul\":10121:10122   */\n      dup3\n        /* \"#utility.yul\":10118:10119   */\n      dup3\n        /* \"#utility.yul\":10114:10123   */\n      div\n        /* \"#utility.yul\":10109:10123   */\n      swap1\n      pop\n        /* \"#utility.yul\":9944:10129   */\n      swap3\n      swap2\n      pop\n      pop\n      jump\t// out\n        /* \"#utility.yul\":10135:10326   */\n    tag_85:\n        /* \"#utility.yul\":10175:10178   */\n      0x00\n        /* \"#utility.yul\":10194:10214   */\n      tag_265\n        /* \"#utility.yul\":10212:10213   */\n      dup3\n        /* \"#utility.yul\":10194:10214   */\n      tag_117\n      jump\t// in\n    tag_265:\n        /* \"#utility.yul\":10189:10214   */\n      swap2\n      pop\n        /* \"#utility.yul\":10228:10248   */\n      tag_266\n        /* \"#utility.yul\":10246:10247   */\n      dup4\n        /* \"#utility.yul\":10228:10248   */\n      tag_117\n      jump\t// in\n    tag_266:\n        /* \"#utility.yul\":10223:10248   */\n      swap3\n      pop\n        /* \"#utility.yul\":10271:10272   */\n      dup3\n        /* \"#utility.yul\":10268:10269   */\n      dup3\n        /* \"#utility.yul\":10264:10273   */\n      add\n        /* \"#utility.yul\":10257:10273   */\n      swap1\n      pop\n        /* \"#utility.yul\":10292:10295   */\n      dup1\n        /* \"#utility.yul\":10289:10290   */\n      dup3\n        /* \"#utility.yul\":10286:10296   */\n      gt\n        /* \"#utility.yul\":10283:10319   */\n      iszero\n      tag_267\n      jumpi\n        /* \"#utility.yul\":10299:10317   */\n      tag_268\n      tag_133\n      jump\t// in\n    tag_268:\n        /* \"#utility.yul\":10283:10319   */\n    tag_267:\n        /* \"#utility.yul\":10135:10326   */\n      swap3\n      swap2\n      pop\n      pop\n      jump\t// out\n        /* \"#utility.yul\":10332:10664   */\n    tag_89:\n        /* \"#utility.yul\":10453:10457   */\n      0x00\n        /* \"#utility.yul\":10491:10493   */\n      0x40\n        /* \"#utility.yul\":10480:10489   */\n      dup3\n        /* \"#utility.yul\":10476:10494   */\n      add\n        /* \"#utility.yul\":10468:10494   */\n      swap1\n      pop\n        /* \"#utility.yul\":10504:10575   */\n      tag_270\n        /* \"#utility.yul\":10572:10573   */\n      0x00\n        /* \"#utility.yul\":10561:10570   */\n      dup4\n        /* \"#utility.yul\":10557:10574   */\n      add\n        /* \"#utility.yul\":10548:10554   */\n      dup6\n        /* \"#utility.yul\":10504:10575   */\n      tag_120\n      jump\t// in\n    tag_270:\n        /* \"#utility.yul\":10585:10657   */\n      tag_271\n        /* \"#utility.yul\":10653:10655   */\n      0x20\n        /* \"#utility.yul\":10642:10651   */\n      dup4\n        /* \"#utility.yul\":10638:10656   */\n      add\n        /* \"#utility.yul\":10629:10635   */\n      dup5\n        /* \"#utility.yul\":10585:10657   */\n      tag_120\n      jump\t// in\n    tag_271:\n        /* \"#utility.yul\":10332:10664   */\n      swap4\n      swap3\n      pop\n      pop\n      pop\n      jump\t// out\n        /* \"#utility.yul\":10670:10851   */\n    tag_141:\n        /* \"#utility.yul\":10810:10843   */\n      0x456c206e6f6d627265206e6f20707565646520657374617220766163696f2e00\n        /* \"#utility.yul\":10806:10807   */\n      0x00\n        /* \"#utility.yul\":10798:10804   */\n      dup3\n        /* \"#utility.yul\":10794:10808   */\n      add\n        /* \"#utility.yul\":10787:10844   */\n      mstore\n        /* \"#utility.yul\":10670:10851   */\n      pop\n      jump\t// out\n        /* \"#utility.yul\":10857:11223   */\n    tag_142:\n        /* \"#utility.yul\":10999:11002   */\n      0x00\n        /* \"#utility.yul\":11020:11087   */\n      tag_274\n        /* \"#utility.yul\":11084:11086   */\n      0x1f\n        /* \"#utility.yul\":11079:11082   */\n      dup4\n        /* \"#utility.yul\":11020:11087   */\n      tag_128\n      jump\t// in\n    tag_274:\n        /* \"#utility.yul\":11013:11087   */\n      swap2\n      pop\n        /* \"#utility.yul\":11096:11189   */\n      tag_275\n        /* \"#utility.yul\":11185:11188   */\n      dup3\n        /* \"#utility.yul\":11096:11189   */\n      tag_141\n      jump\t// in\n    tag_275:\n        /* \"#utility.yul\":11214:11216   */\n      0x20\n        /* \"#utility.yul\":11209:11212   */\n      dup3\n        /* \"#utility.yul\":11205:11217   */\n      add\n        /* \"#utility.yul\":11198:11217   */\n      swap1\n      pop\n        /* \"#utility.yul\":10857:11223   */\n      swap2\n      swap1\n      pop\n      jump\t// out\n        /* \"#utility.yul\":11229:11648   */\n    tag_93:\n        /* \"#utility.yul\":11395:11399   */\n      0x00\n        /* \"#utility.yul\":11433:11435   */\n      0x20\n        /* \"#utility.yul\":11422:11431   */\n      dup3\n        /* \"#utility.yul\":11418:11436   */\n      add\n        /* \"#utility.yul\":11410:11436   */\n      swap1\n      pop\n        /* \"#utility.yul\":11482:11491   */\n      dup2\n        /* \"#utility.yul\":11476:11480   */\n      dup2\n        /* \"#utility.yul\":11472:11492   */\n      sub\n        /* \"#utility.yul\":11468:11469   */\n      0x00\n        /* \"#utility.yul\":11457:11466   */\n      dup4\n        /* \"#utility.yul\":11453:11470   */\n      add\n        /* \"#utility.yul\":11446:11493   */\n      mstore\n        /* \"#utility.yul\":11510:11641   */\n      tag_277\n        /* \"#utility.yul\":11636:11640   */\n      dup2\n        /* \"#utility.yul\":11510:11641   */\n      tag_142\n      jump\t// in\n    tag_277:\n        /* \"#utility.yul\":11502:11641   */\n      swap1\n      pop\n        /* \"#utility.yul\":11229:11648   */\n      swap2\n      swap1\n      pop\n      jump\t// out\n        /* \"#utility.yul\":11654:11874   */\n    tag_143:\n        /* \"#utility.yul\":11794:11828   */\n      0x456c206170656c6c69646f206e6f20707565646520657374617220766163696f\n        /* \"#utility.yul\":11790:11791   */\n      0x00\n        /* \"#utility.yul\":11782:11788   */\n      dup3\n        /* \"#utility.yul\":11778:11792   */\n      add\n        /* \"#utility.yul\":11771:11829   */\n      mstore\n        /* \"#utility.yul\":11863:11866   */\n      0x2e00000000000000000000000000000000000000000000000000000000000000\n        /* \"#utility.yul\":11858:11860   */\n      0x20\n        /* \"#utility.yul\":11850:11856   */\n      dup3\n        /* \"#utility.yul\":11846:11861   */\n      add\n        /* \"#utility.yul\":11839:11867   */\n      mstore\n        /* \"#utility.yul\":11654:11874   */\n      pop\n      jump\t// out\n        /* \"#utility.yul\":11880:12246   */\n    tag_144:\n        /* \"#utility.yul\":12022:12025   */\n      0x00\n        /* \"#utility.yul\":12043:12110   */\n      tag_280\n        /* \"#utility.yul\":12107:12109   */\n      0x21\n        /* \"#utility.yul\":12102:12105   */\n      dup4\n        /* \"#utility.yul\":12043:12110   */\n      tag_128\n      jump\t// in\n    tag_280:\n        /* \"#utility.yul\":12036:12110   */\n      swap2\n      pop\n        /* \"#utility.yul\":12119:12212   */\n      tag_281\n        /* \"#utility.yul\":12208:12211   */\n      dup3\n        /* \"#utility.yul\":12119:12212   */\n      tag_143\n      jump\t// in\n    tag_281:\n        /* \"#utility.yul\":12237:12239   */\n      0x40\n        /* \"#utility.yul\":12232:12235   */\n      dup3\n        /* \"#utility.yul\":12228:12240   */\n      add\n        /* \"#utility.yul\":12221:12240   */\n      swap1\n      pop\n        /* \"#utility.yul\":11880:12246   */\n      swap2\n      swap1\n      pop\n      jump\t// out\n        /* \"#utility.yul\":12252:12671   */\n    tag_96:\n        /* \"#utility.yul\":12418:12422   */\n      0x00\n        /* \"#utility.yul\":12456:12458   */\n      0x20\n        /* \"#utility.yul\":12445:12454   */\n      dup3\n        /* \"#utility.yul\":12441:12459   */\n      add\n        /* \"#utility.yul\":12433:12459   */\n      swap1\n      pop\n        /* \"#utility.yul\":12505:12514   */\n      dup2\n        /* \"#utility.yul\":12499:12503   */\n      dup2\n        /* \"#utility.yul\":12495:12515   */\n      sub\n        /* \"#utility.yul\":12491:12492   */\n      0x00\n        /* \"#utility.yul\":12480:12489   */\n      dup4\n        /* \"#utility.yul\":12476:12493   */\n      add\n        /* \"#utility.yul\":12469:12516   */\n      mstore\n        /* \"#utility.yul\":12533:12664   */\n      tag_283\n        /* \"#utility.yul\":12659:12663   */\n      dup2\n        /* \"#utility.yul\":12533:12664   */\n      tag_144\n      jump\t// in\n    tag_283:\n        /* \"#utility.yul\":12525:12664   */\n      swap1\n      pop\n        /* \"#utility.yul\":12252:12671   */\n      swap2\n      swap1\n      pop\n      jump\t// out\n        /* \"#utility.yul\":12677:12849   */\n    tag_145:\n        /* \"#utility.yul\":12817:12841   */\n      0x5573756172696f207961207265676973747261646f2e00000000000000000000\n        /* \"#utility.yul\":12813:12814   */\n      0x00\n        /* \"#utility.yul\":12805:12811   */\n      dup3\n        /* \"#utility.yul\":12801:12815   */\n      add\n        /* \"#utility.yul\":12794:12842   */\n      mstore\n        /* \"#utility.yul\":12677:12849   */\n      pop\n      jump\t// out\n        /* \"#utility.yul\":12855:13221   */\n    tag_146:\n        /* \"#utility.yul\":12997:13000   */\n      0x00\n        /* \"#utility.yul\":13018:13085   */\n      tag_286\n        /* \"#utility.yul\":13082:13084   */\n      0x16\n        /* \"#utility.yul\":13077:13080   */\n      dup4\n        /* \"#utility.yul\":13018:13085   */\n      tag_128\n      jump\t// in\n    tag_286:\n        /* \"#utility.yul\":13011:13085   */\n      swap2\n      pop\n        /* \"#utility.yul\":13094:13187   */\n      tag_287\n        /* \"#utility.yul\":13183:13186   */\n      dup3\n        /* \"#utility.yul\":13094:13187   */\n      tag_145\n      jump\t// in\n    tag_287:\n        /* \"#utility.yul\":13212:13214   */\n      0x20\n        /* \"#utility.yul\":13207:13210   */\n      dup3\n        /* \"#utility.yul\":13203:13215   */\n      add\n        /* \"#utility.yul\":13196:13215   */\n      swap1\n      pop\n        /* \"#utility.yul\":12855:13221   */\n      swap2\n      swap1\n      pop\n      jump\t// out\n        /* \"#utility.yul\":13227:13646   */\n    tag_99:\n        /* \"#utility.yul\":13393:13397   */\n      0x00\n        /* \"#utility.yul\":13431:13433   */\n      0x20\n        /* \"#utility.yul\":13420:13429   */\n      dup3\n        /* \"#utility.yul\":13416:13434   */\n      add\n        /* \"#utility.yul\":13408:13434   */\n      swap1\n      pop\n        /* \"#utility.yul\":13480:13489   */\n      dup2\n        /* \"#utility.yul\":13474:13478   */\n      dup2\n        /* \"#utility.yul\":13470:13490   */\n      sub\n        /* \"#utility.yul\":13466:13467   */\n      0x00\n        /* \"#utility.yul\":13455:13464   */\n      dup4\n        /* \"#utility.yul\":13451:13468   */\n      add\n        /* \"#utility.yul\":13444:13491   */\n      mstore\n        /* \"#utility.yul\":13508:13639   */\n      tag_289\n        /* \"#utility.yul\":13634:13638   */\n      dup2\n        /* \"#utility.yul\":13508:13639   */\n      tag_146\n      jump\t// in\n    tag_289:\n        /* \"#utility.yul\":13500:13639   */\n      swap1\n      pop\n        /* \"#utility.yul\":13227:13646   */\n      swap2\n      swap1\n      pop\n      jump\t// out\n        /* \"#utility.yul\":13652:13751   */\n    tag_147:\n        /* \"#utility.yul\":13704:13710   */\n      0x00\n        /* \"#utility.yul\":13738:13743   */\n      dup2\n        /* \"#utility.yul\":13732:13744   */\n      mload\n        /* \"#utility.yul\":13722:13744   */\n      swap1\n      pop\n        /* \"#utility.yul\":13652:13751   */\n      swap2\n      swap1\n      pop\n      jump\t// out\n        /* \"#utility.yul\":13757:13937   */\n    tag_148:\n        /* \"#utility.yul\":13805:13882   */\n      0x4e487b7100000000000000000000000000000000000000000000000000000000\n        /* \"#utility.yul\":13802:13803   */\n      0x00\n        /* \"#utility.yul\":13795:13883   */\n      mstore\n        /* \"#utility.yul\":13902:13906   */\n      0x41\n        /* \"#utility.yul\":13899:13900   */\n      0x04\n        /* \"#utility.yul\":13892:13907   */\n      mstore\n        /* \"#utility.yul\":13926:13930   */\n      0x24\n        /* \"#utility.yul\":13923:13924   */\n      0x00\n        /* \"#utility.yul\":13916:13931   */\n      revert\n        /* \"#utility.yul\":13943:14123   */\n    tag_149:\n        /* \"#utility.yul\":13991:14068   */\n      0x4e487b7100000000000000000000000000000000000000000000000000000000\n        /* \"#utility.yul\":13988:13989   */\n      0x00\n        /* \"#utility.yul\":13981:14069   */\n      mstore\n        /* \"#utility.yul\":14088:14092   */\n      0x22\n        /* \"#utility.yul\":14085:14086   */\n      0x04\n        /* \"#utility.yul\":14078:14093   */\n      mstore\n        /* \"#utility.yul\":14112:14116   */\n      0x24\n        /* \"#utility.yul\":14109:14110   */\n      0x00\n        /* \"#utility.yul\":14102:14117   */\n      revert\n        /* \"#utility.yul\":14129:14449   */\n    tag_150:\n        /* \"#utility.yul\":14173:14179   */\n      0x00\n        /* \"#utility.yul\":14210:14211   */\n      0x02\n        /* \"#utility.yul\":14204:14208   */\n      dup3\n        /* \"#utility.yul\":14200:14212   */\n      div\n        /* \"#utility.yul\":14190:14212   */\n      swap1\n      pop\n        /* \"#utility.yul\":14257:14258   */\n      0x01\n        /* \"#utility.yul\":14251:14255   */\n      dup3\n        /* \"#utility.yul\":14247:14259   */\n      and\n        /* \"#utility.yul\":14278:14296   */\n      dup1\n        /* \"#utility.yul\":14268:14349   */\n      tag_294\n      jumpi\n        /* \"#utility.yul\":14334:14338   */\n      0x7f\n        /* \"#utility.yul\":14326:14332   */\n      dup3\n        /* \"#utility.yul\":14322:14339   */\n      and\n        /* \"#utility.yul\":14312:14339   */\n      swap2\n      pop\n        /* \"#utility.yul\":14268:14349   */\n    tag_294:\n        /* \"#utility.yul\":14396:14398   */\n      0x20\n        /* \"#utility.yul\":14388:14394   */\n      dup3\n        /* \"#utility.yul\":14385:14399   */\n      lt\n        /* \"#utility.yul\":14365:14383   */\n      dup2\n        /* \"#utility.yul\":14362:14400   */\n      sub\n        /* \"#utility.yul\":14359:14443   */\n      tag_295\n      jumpi\n        /* \"#utility.yul\":14415:14433   */\n      tag_296\n      tag_149\n      jump\t// in\n    tag_296:\n        /* \"#utility.yul\":14359:14443   */\n    tag_295:\n        /* \"#utility.yul\":14180:14449   */\n      pop\n        /* \"#utility.yul\":14129:14449   */\n      swap2\n      swap1\n      pop\n      jump\t// out\n        /* \"#utility.yul\":14455:14596   */\n    tag_151:\n        /* \"#utility.yul\":14504:14508   */\n      0x00\n        /* \"#utility.yul\":14527:14530   */\n      dup2\n        /* \"#utility.yul\":14519:14530   */\n      swap1\n      pop\n        /* \"#utility.yul\":14550:14553   */\n      dup2\n        /* \"#utility.yul\":14547:14548   */\n      0x00\n        /* \"#utility.yul\":14540:14554   */\n      mstore\n        /* \"#utility.yul\":14584:14588   */\n      0x20\n        /* \"#utility.yul\":14581:14582   */\n      0x00\n        /* \"#utility.yul\":14571:14589   */\n      keccak256\n        /* \"#utility.yul\":14563:14589   */\n      swap1\n      pop\n        /* \"#utility.yul\":14455:14596   */\n      swap2\n      swap1\n      pop\n      jump\t// out\n        /* \"#utility.yul\":14602:14695   */\n    tag_152:\n        /* \"#utility.yul\":14639:14645   */\n      0x00\n        /* \"#utility.yul\":14686:14688   */\n      0x20\n        /* \"#utility.yul\":14681:14683   */\n      0x1f\n        /* \"#utility.yul\":14674:14679   */\n      dup4\n        /* \"#utility.yul\":14670:14684   */\n      add\n        /* \"#utility.yul\":14666:14689   */\n      div\n        /* \"#utility.yul\":14656:14689   */\n      swap1\n      pop\n        /* \"#utility.yul\":14602:14695   */\n      swap2\n      swap1\n      pop\n      jump\t// out\n        /* \"#utility.yul\":14701:14808   */\n    tag_153:\n        /* \"#utility.yul\":14745:14753   */\n      0x00\n        /* \"#utility.yul\":14795:14800   */\n      dup3\n        /* \"#utility.yul\":14789:14793   */\n      dup3\n        /* \"#utility.yul\":14785:14801   */\n      shl\n        /* \"#utility.yul\":14764:14801   */\n      swap1\n      pop\n        /* \"#utility.yul\":14701:14808   */\n      swap3\n      swap2\n      pop\n      pop\n      jump\t// out\n        /* \"#utility.yul\":14814:15207   */\n    tag_154:\n        /* \"#utility.yul\":14883:14889   */\n      0x00\n        /* \"#utility.yul\":14933:14934   */\n      0x08\n        /* \"#utility.yul\":14921:14931   */\n      dup4\n        /* \"#utility.yul\":14917:14935   */\n      mul\n        /* \"#utility.yul\":14956:15053   */\n      tag_301\n        /* \"#utility.yul\":14986:15052   */\n      0xffffffffffffffffffffffffffffffffffffffffffffffffffffffffffffffff\n        /* \"#utility.yul\":14975:14984   */\n      dup3\n        /* \"#utility.yul\":14956:15053   */\n      tag_153\n      jump\t// in\n    tag_301:\n        /* \"#utility.yul\":15074:15113   */\n      tag_302\n        /* \"#utility.yul\":15104:15112   */\n      dup7\n        /* \"#utility.yul\":15093:15102   */\n      dup4\n        /* \"#utility.yul\":15074:15113   */\n      tag_153\n      jump\t// in\n    tag_302:\n        /* \"#utility.yul\":15062:15113   */\n      swap6\n      pop\n        /* \"#utility.yul\":15146:15150   */\n      dup1\n        /* \"#utility.yul\":15142:15151   */\n      not\n        /* \"#utility.yul\":15135:15140   */\n      dup5\n        /* \"#utility.yul\":15131:15152   */\n      and\n        /* \"#utility.yul\":15122:15152   */\n      swap4\n      pop\n        /* \"#utility.yul\":15195:15199   */\n      dup1\n        /* \"#utility.yul\":15185:15193   */\n      dup7\n        /* \"#utility.yul\":15181:15200   */\n      and\n        /* \"#utility.yul\":15174:15179   */\n      dup5\n        /* \"#utility.yul\":15171:15201   */\n      or\n        /* \"#utility.yul\":15161:15201   */\n      swap3\n      pop\n        /* \"#utility.yul\":14890:15207   */\n      pop\n      pop\n        /* \"#utility.yul\":14814:15207   */\n      swap4\n      swap3\n      pop\n      pop\n      pop\n      jump\t// out\n        /* \"#utility.yul\":15213:15273   */\n    tag_155:\n        /* \"#utility.yul\":15241:15244   */\n      0x00\n        /* \"#utility.yul\":15262:15267   */\n      dup2\n        /* \"#utility.yul\":15255:15267   */\n      swap1\n      pop\n        /* \"#utility.yul\":15213:15273   */\n      swap2\n      swap1\n      pop\n      jump\t// out\n        /* \"#utility.yul\":15279:15421   */\n    tag_156:\n        /* \"#utility.yul\":15329:15338   */\n      0x00\n        /* \"#utility.yul\":15362:15415   */\n      tag_305\n        /* \"#utility.yul\":15380:15414   */\n      tag_306\n        /* \"#utility.yul\":15389:15413   */\n      tag_307\n        /* \"#utility.yul\":15407:15412   */\n      dup5\n        /* \"#utility.yul\":15389:15413   */\n      tag_117\n      jump\t// in\n    tag_307:\n        /* \"#utility.yul\":15380:15414   */\n      tag_155\n      jump\t// in\n    tag_306:\n        /* \"#utility.yul\":15362:15415   */\n      tag_117\n      jump\t// in\n    tag_305:\n        /* \"#utility.yul\":15349:15415   */\n      swap1\n      pop\n        /* \"#utility.yul\":15279:15421   */\n      swap2\n      swap1\n      pop\n      jump\t// out\n        /* \"#utility.yul\":15427:15502   */\n    tag_157:\n        /* \"#utility.yul\":15470:15473   */\n      0x00\n        /* \"#utility.yul\":15491:15496   */\n      dup2\n        /* \"#utility.yul\":15484:15496   */\n      swap1\n      pop\n        /* \"#utility.yul\":15427:15502   */\n      swap2\n      swap1\n      pop\n      jump\t// out\n        /* \"#utility.yul\":15508:15777   */\n    tag_158:\n        /* \"#utility.yul\":15618:15657   */\n      tag_310\n        /* \"#utility.yul\":15649:15656   */\n      dup4\n        /* \"#utility.yul\":15618:15657   */\n      tag_156\n      jump\t// in\n    tag_310:\n        /* \"#utility.yul\":15679:15770   */\n      tag_311\n        /* \"#utility.yul\":15728:15769   */\n      tag_312\n        /* \"#utility.yul\":15752:15768   */\n      dup3\n        /* \"#utility.yul\":15728:15769   */\n      tag_157\n      jump\t// in\n    tag_312:\n        /* \"#utility.yul\":15720:15726   */\n      dup5\n        /* \"#utility.yul\":15713:15717   */\n      dup5\n        /* \"#utility.yul\":15707:15718   */\n      sload\n        /* \"#utility.yul\":15679:15770   */\n      tag_154\n      jump\t// in\n    tag_311:\n        /* \"#utility.yul\":15673:15677   */\n      dup3\n        /* \"#utility.yul\":15666:15771   */\n      sstore\n        /* \"#utility.yul\":15584:15777   */\n      pop\n        /* \"#utility.yul\":15508:15777   */\n      pop\n      pop\n      pop\n      jump\t// out\n        /* \"#utility.yul\":15783:15856   */\n    tag_159:\n        /* \"#utility.yul\":15828:15831   */\n      0x00\n        /* \"#utility.yul\":15783:15856   */\n      swap1\n      jump\t// out\n        /* \"#utility.yul\":15862:16051   */\n    tag_160:\n        /* \"#utility.yul\":15939:15971   */\n      tag_315\n      tag_159\n      jump\t// in\n    tag_315:\n        /* \"#utility.yul\":15980:16045   */\n      tag_316\n        /* \"#utility.yul\":16038:16044   */\n      dup2\n        /* \"#utility.yul\":16030:16036   */\n      dup5\n        /* \"#utility.yul\":16024:16028   */\n      dup5\n        /* \"#utility.yul\":15980:16045   */\n      tag_158\n      jump\t// in\n    tag_316:\n        /* \"#utility.yul\":15915:16051   */\n      pop\n        /* \"#utility.yul\":15862:16051   */\n      pop\n      pop\n      jump\t// out\n        /* \"#utility.yul\":16057:16243   */\n    tag_161:\n        /* \"#utility.yul\":16117:16237   */\n    tag_318:\n        /* \"#utility.yul\":16134:16137   */\n      dup2\n        /* \"#utility.yul\":16127:16132   */\n      dup2\n        /* \"#utility.yul\":16124:16138   */\n      lt\n        /* \"#utility.yul\":16117:16237   */\n      iszero\n      tag_320\n      jumpi\n        /* \"#utility.yul\":16188:16227   */\n      tag_321\n        /* \"#utility.yul\":16225:16226   */\n      0x00\n        /* \"#utility.yul\":16218:16223   */\n      dup3\n        /* \"#utility.yul\":16188:16227   */\n      tag_160\n      jump\t// in\n    tag_321:\n        /* \"#utility.yul\":16161:16162   */\n      0x01\n        /* \"#utility.yul\":16154:16159   */\n      dup2\n        /* \"#utility.yul\":16150:16163   */\n      add\n        /* \"#utility.yul\":16141:16163   */\n      swap1\n      pop\n        /* \"#utility.yul\":16117:16237   */\n      jump(tag_318)\n    tag_320:\n        /* \"#utility.yul\":16057:16243   */\n      pop\n      pop\n      jump\t// out\n        /* \"#utility.yul\":16249:16792   */\n    tag_162:\n        /* \"#utility.yul\":16350:16352   */\n      0x1f\n        /* \"#utility.yul\":16345:16348   */\n      dup3\n        /* \"#utility.yul\":16342:16353   */\n      gt\n        /* \"#utility.yul\":16339:16785   */\n      iszero\n      tag_323\n      jumpi\n        /* \"#utility.yul\":16384:16422   */\n      tag_324\n        /* \"#utility.yul\":16416:16421   */\n      dup2\n        /* \"#utility.yul\":16384:16422   */\n      tag_151\n      jump\t// in\n    tag_324:\n        /* \"#utility.yul\":16468:16497   */\n      tag_325\n        /* \"#utility.yul\":16486:16496   */\n      dup5\n        /* \"#utility.yul\":16468:16497   */\n      tag_152\n      jump\t// in\n    tag_325:\n        /* \"#utility.yul\":16458:16466   */\n      dup2\n        /* \"#utility.yul\":16454:16498   */\n      add\n        /* \"#utility.yul\":16651:16653   */\n      0x20\n        /* \"#utility.yul\":16639:16649   */\n      dup6\n        /* \"#utility.yul\":16636:16654   */\n      lt\n        /* \"#utility.yul\":16633:16682   */\n      iszero\n      tag_326\n      jumpi\n        /* \"#utility.yul\":16672:16680   */\n      dup2\n        /* \"#utility.yul\":16657:16680   */\n      swap1\n      pop\n        /* \"#utility.yul\":16633:16682   */\n    tag_326:\n        /* \"#utility.yul\":16695:16775   */\n      tag_327\n        /* \"#utility.yul\":16751:16773   */\n      tag_328\n        /* \"#utility.yul\":16769:16772   */\n      dup6\n        /* \"#utility.yul\":16751:16773   */\n      tag_152\n      jump\t// in\n    tag_328:\n        /* \"#utility.yul\":16741:16749   */\n      dup4\n        /* \"#utility.yul\":16737:16774   */\n      add\n        /* \"#utility.yul\":16724:16735   */\n      dup3\n        /* \"#utility.yul\":16695:16775   */\n      tag_161\n      jump\t// in\n    tag_327:\n        /* \"#utility.yul\":16354:16785   */\n      pop\n      pop\n        /* \"#utility.yul\":16339:16785   */\n    tag_323:\n        /* \"#utility.yul\":16249:16792   */\n      pop\n      pop\n      pop\n      jump\t// out\n        /* \"#utility.yul\":16798:16915   */\n    tag_163:\n        /* \"#utility.yul\":16852:16860   */\n      0x00\n        /* \"#utility.yul\":16902:16907   */\n      dup3\n        /* \"#utility.yul\":16896:16900   */\n      dup3\n        /* \"#utility.yul\":16892:16908   */\n      shr\n        /* \"#utility.yul\":16871:16908   */\n      swap1\n      pop\n        /* \"#utility.yul\":16798:16915   */\n      swap3\n      swap2\n      pop\n      pop\n      jump\t// out\n        /* \"#utility.yul\":16921:17090   */\n    tag_164:\n        /* \"#utility.yul\":16965:16971   */\n      0x00\n        /* \"#utility.yul\":16998:17049   */\n      tag_331\n        /* \"#utility.yul\":17046:17047   */\n      0x00\n        /* \"#utility.yul\":17042:17048   */\n      not\n        /* \"#utility.yul\":17034:17039   */\n      dup5\n        /* \"#utility.yul\":17031:17032   */\n      0x08\n        /* \"#utility.yul\":17027:17040   */\n      mul\n        /* \"#utility.yul\":16998:17049   */\n      tag_163\n      jump\t// in\n    tag_331:\n        /* \"#utility.yul\":16994:17050   */\n      not\n        /* \"#utility.yul\":17079:17083   */\n      dup1\n        /* \"#utility.yul\":17073:17077   */\n      dup4\n        /* \"#utility.yul\":17069:17084   */\n      and\n        /* \"#utility.yul\":17059:17084   */\n      swap2\n      pop\n        /* \"#utility.yul\":16972:17090   */\n      pop\n        /* \"#utility.yul\":16921:17090   */\n      swap3\n      swap2\n      pop\n      pop\n      jump\t// out\n        /* \"#utility.yul\":17095:17390   */\n    tag_165:\n        /* \"#utility.yul\":17171:17175   */\n      0x00\n        /* \"#utility.yul\":17317:17346   */\n      tag_333\n        /* \"#utility.yul\":17342:17345   */\n      dup4\n        /* \"#utility.yul\":17336:17340   */\n      dup4\n        /* \"#utility.yul\":17317:17346   */\n      tag_164\n      jump\t// in\n    tag_333:\n        /* \"#utility.yul\":17309:17346   */\n      swap2\n      pop\n        /* \"#utility.yul\":17379:17382   */\n      dup3\n        /* \"#utility.yul\":17376:17377   */\n      0x02\n        /* \"#utility.yul\":17372:17383   */\n      mul\n        /* \"#utility.yul\":17366:17370   */\n      dup3\n        /* \"#utility.yul\":17363:17384   */\n      or\n        /* \"#utility.yul\":17355:17384   */\n      swap1\n      pop\n        /* \"#utility.yul\":17095:17390   */\n      swap3\n      swap2\n      pop\n      pop\n      jump\t// out\n        /* \"#utility.yul\":17395:18790   */\n    tag_101:\n        /* \"#utility.yul\":17512:17549   */\n      tag_335\n        /* \"#utility.yul\":17545:17548   */\n      dup3\n        /* \"#utility.yul\":17512:17549   */\n      tag_147\n      jump\t// in\n    tag_335:\n        /* \"#utility.yul\":17614:17632   */\n      0xffffffffffffffff\n        /* \"#utility.yul\":17606:17612   */\n      dup2\n        /* \"#utility.yul\":17603:17633   */\n      gt\n        /* \"#utility.yul\":17600:17656   */\n      iszero\n      tag_336\n      jumpi\n        /* \"#utility.yul\":17636:17654   */\n      tag_337\n      tag_148\n      jump\t// in\n    tag_337:\n        /* \"#utility.yul\":17600:17656   */\n    tag_336:\n        /* \"#utility.yul\":17680:17718   */\n      tag_338\n        /* \"#utility.yul\":17712:17716   */\n      dup3\n        /* \"#utility.yul\":17706:17717   */\n      sload\n        /* \"#utility.yul\":17680:17718   */\n      tag_150\n      jump\t// in\n    tag_338:\n        /* \"#utility.yul\":17765:17832   */\n      tag_339\n        /* \"#utility.yul\":17825:17831   */\n      dup3\n        /* \"#utility.yul\":17817:17823   */\n      dup3\n        /* \"#utility.yul\":17811:17815   */\n      dup6\n        /* \"#utility.yul\":17765:17832   */\n      tag_162\n      jump\t// in\n    tag_339:\n        /* \"#utility.yul\":17859:17860   */\n      0x00\n        /* \"#utility.yul\":17883:17887   */\n      0x20\n        /* \"#utility.yul\":17870:17887   */\n      swap1\n      pop\n        /* \"#utility.yul\":17915:17917   */\n      0x1f\n        /* \"#utility.yul\":17907:17913   */\n      dup4\n        /* \"#utility.yul\":17904:17918   */\n      gt\n        /* \"#utility.yul\":17932:17933   */\n      0x01\n        /* \"#utility.yul\":17927:18545   */\n      dup2\n      eq\n      tag_341\n      jumpi\n        /* \"#utility.yul\":18589:18590   */\n      0x00\n        /* \"#utility.yul\":18606:18612   */\n      dup5\n        /* \"#utility.yul\":18603:18680   */\n      iszero\n      tag_342\n      jumpi\n        /* \"#utility.yul\":18655:18664   */\n      dup3\n        /* \"#utility.yul\":18650:18653   */\n      dup8\n        /* \"#utility.yul\":18646:18665   */\n      add\n        /* \"#utility.yul\":18640:18666   */\n      mload\n        /* \"#utility.yul\":18631:18666   */\n      swap1\n      pop\n        /* \"#utility.yul\":18603:18680   */\n    tag_342:\n        /* \"#utility.yul\":18706:18773   */\n      tag_343\n        /* \"#utility.yul\":18766:18772   */\n      dup6\n        /* \"#utility.yul\":18759:18764   */\n      dup3\n        /* \"#utility.yul\":18706:18773   */\n      tag_165\n      jump\t// in\n    tag_343:\n        /* \"#utility.yul\":18700:18704   */\n      dup7\n        /* \"#utility.yul\":18693:18774   */\n      sstore\n        /* \"#utility.yul\":18562:18784   */\n      pop\n        /* \"#utility.yul\":17897:18784   */\n      jump(tag_340)\n        /* \"#utility.yul\":17927:18545   */\n    tag_341:\n        /* \"#utility.yul\":17979:17983   */\n      0x1f\n        /* \"#utility.yul\":17975:17984   */\n      not\n        /* \"#utility.yul\":17967:17973   */\n      dup5\n        /* \"#utility.yul\":17963:17985   */\n      and\n        /* \"#utility.yul\":18013:18050   */\n      tag_344\n        /* \"#utility.yul\":18045:18049   */\n      dup7\n        /* \"#utility.yul\":18013:18050   */\n      tag_151\n      jump\t// in\n    tag_344:\n        /* \"#utility.yul\":18072:18073   */\n      0x00\n        /* \"#utility.yul\":18086:18294   */\n    tag_345:\n        /* \"#utility.yul\":18100:18107   */\n      dup3\n        /* \"#utility.yul\":18097:18098   */\n      dup2\n        /* \"#utility.yul\":18094:18108   */\n      lt\n        /* \"#utility.yul\":18086:18294   */\n      iszero\n      tag_347\n      jumpi\n        /* \"#utility.yul\":18179:18188   */\n      dup5\n        /* \"#utility.yul\":18174:18177   */\n      dup10\n        /* \"#utility.yul\":18170:18189   */\n      add\n        /* \"#utility.yul\":18164:18190   */\n      mload\n        /* \"#utility.yul\":18156:18162   */\n      dup3\n        /* \"#utility.yul\":18149:18191   */\n      sstore\n        /* \"#utility.yul\":18230:18231   */\n      0x01\n        /* \"#utility.yul\":18222:18228   */\n      dup3\n        /* \"#utility.yul\":18218:18232   */\n      add\n        /* \"#utility.yul\":18208:18232   */\n      swap2\n      pop\n        /* \"#utility.yul\":18277:18279   */\n      0x20\n        /* \"#utility.yul\":18266:18275   */\n      dup6\n        /* \"#utility.yul\":18262:18280   */\n      add\n        /* \"#utility.yul\":18249:18280   */\n      swap5\n      pop\n        /* \"#utility.yul\":18123:18127   */\n      0x20\n        /* \"#utility.yul\":18120:18121   */\n      dup2\n        /* \"#utility.yul\":18116:18128   */\n      add\n        /* \"#utility.yul\":18111:18128   */\n      swap1\n      pop\n        /* \"#utility.yul\":18086:18294   */\n      jump(tag_345)\n    tag_347:\n        /* \"#utility.yul\":18322:18328   */\n      dup7\n        /* \"#utility.yul\":18313:18320   */\n      dup4\n        /* \"#utility.yul\":18310:18329   */\n      lt\n        /* \"#utility.yul\":18307:18486   */\n      iszero\n      tag_348\n      jumpi\n        /* \"#utility.yul\":18380:18389   */\n      dup5\n        /* \"#utility.yul\":18375:18378   */\n      dup10\n        /* \"#utility.yul\":18371:18390   */\n      add\n        /* \"#utility.yul\":18365:18391   */\n      mload\n        /* \"#utility.yul\":18423:18471   */\n      tag_349\n        /* \"#utility.yul\":18465:18469   */\n      0x1f\n        /* \"#utility.yul\":18457:18463   */\n      dup10\n        /* \"#utility.yul\":18453:18470   */\n      and\n        /* \"#utility.yul\":18442:18451   */\n      dup3\n        /* \"#utility.yul\":18423:18471   */\n      tag_164\n      jump\t// in\n    tag_349:\n        /* \"#utility.yul\":18415:18421   */\n      dup4\n        /* \"#utility.yul\":18408:18472   */\n      sstore\n        /* \"#utility.yul\":18330:18486   */\n      pop\n        /* \"#utility.yul\":18307:18486   */\n    tag_348:\n        /* \"#utility.yul\":18532:18533   */\n      0x01\n        /* \"#utility.yul\":18528:18529   */\n      0x02\n        /* \"#utility.yul\":18520:18526   */\n      dup9\n        /* \"#utility.yul\":18516:18530   */\n      mul\n        /* \"#utility.yul\":18512:18534   */\n      add\n        /* \"#utility.yul\":18506:18510   */\n      dup9\n        /* \"#utility.yul\":18499:18535   */\n      sstore\n        /* \"#utility.yul\":17934:18545   */\n      pop\n      pop\n      pop\n        /* \"#utility.yul\":17897:18784   */\n    tag_340:\n      pop\n        /* \"#utility.yul\":17487:18790   */\n      pop\n      pop\n      pop\n        /* \"#utility.yul\":17395:18790   */\n      pop\n      pop\n      jump\t// out\n        /* \"#utility.yul\":18796:18944   */\n    tag_166:\n        /* \"#utility.yul\":18894:18900   */\n      dup3\n        /* \"#utility.yul\":18889:18892   */\n      dup2\n        /* \"#utility.yul\":18884:18887   */\n      dup4\n        /* \"#utility.yul\":18871:18901   */\n      calldatacopy\n        /* \"#utility.yul\":18935:18936   */\n      0x00\n        /* \"#utility.yul\":18926:18932   */\n      dup4\n        /* \"#utility.yul\":18921:18924   */\n      dup4\n        /* \"#utility.yul\":18917:18933   */\n      add\n        /* \"#utility.yul\":18910:18937   */\n      mstore\n        /* \"#utility.yul\":18796:18944   */\n      pop\n      pop\n      pop\n      jump\t// out\n        /* \"#utility.yul\":18950:19052   */\n    tag_167:\n        /* \"#utility.yul\":18991:18997   */\n      0x00\n        /* \"#utility.yul\":19042:19044   */\n      0x1f\n        /* \"#utility.yul\":19038:19045   */\n      not\n        /* \"#utility.yul\":19033:19035   */\n      0x1f\n        /* \"#utility.yul\":19026:19031   */\n      dup4\n        /* \"#utility.yul\":19022:19036   */\n      add\n        /* \"#utility.yul\":19018:19046   */\n      and\n        /* \"#utility.yul\":19008:19046   */\n      swap1\n      pop\n        /* \"#utility.yul\":18950:19052   */\n      swap2\n      swap1\n      pop\n      jump\t// out\n        /* \"#utility.yul\":19082:19399   */\n    tag_168:\n        /* \"#utility.yul\":19180:19183   */\n      0x00\n        /* \"#utility.yul\":19201:19272   */\n      tag_353\n        /* \"#utility.yul\":19265:19271   */\n      dup4\n        /* \"#utility.yul\":19260:19263   */\n      dup6\n        /* \"#utility.yul\":19201:19272   */\n      tag_128\n      jump\t// in\n    tag_353:\n        /* \"#utility.yul\":19194:19272   */\n      swap4\n      pop\n        /* \"#utility.yul\":19282:19338   */\n      tag_354\n        /* \"#utility.yul\":19331:19337   */\n      dup4\n        /* \"#utility.yul\":19326:19329   */\n      dup6\n        /* \"#utility.yul\":19319:19324   */\n      dup5\n        /* \"#utility.yul\":19282:19338   */\n      tag_166\n      jump\t// in\n    tag_354:\n        /* \"#utility.yul\":19363:19392   */\n      tag_355\n        /* \"#utility.yul\":19385:19391   */\n      dup4\n        /* \"#utility.yul\":19363:19392   */\n      tag_167\n      jump\t// in\n    tag_355:\n        /* \"#utility.yul\":19358:19361   */\n      dup5\n        /* \"#utility.yul\":19354:19393   */\n      add\n        /* \"#utility.yul\":19347:19393   */\n      swap1\n      pop\n        /* \"#utility.yul\":19082:19399   */\n      swap4\n      swap3\n      pop\n      pop\n      pop\n      jump\t// out\n        /* \"#utility.yul\":19405:19959   */\n    tag_104:\n        /* \"#utility.yul\":19586:19590   */\n      0x00\n        /* \"#utility.yul\":19624:19626   */\n      0x40\n        /* \"#utility.yul\":19613:19622   */\n      dup3\n        /* \"#utility.yul\":19609:19627   */\n      add\n        /* \"#utility.yul\":19601:19627   */\n      swap1\n      pop\n        /* \"#utility.yul\":19673:19682   */\n      dup2\n        /* \"#utility.yul\":19667:19671   */\n      dup2\n        /* \"#utility.yul\":19663:19683   */\n      sub\n        /* \"#utility.yul\":19659:19660   */\n      0x00\n        /* \"#utility.yul\":19648:19657   */\n      dup4\n        /* \"#utility.yul\":19644:19661   */\n      add\n        /* \"#utility.yul\":19637:19684   */\n      mstore\n        /* \"#utility.yul\":19701:19789   */\n      tag_357\n        /* \"#utility.yul\":19784:19788   */\n      dup2\n        /* \"#utility.yul\":19775:19781   */\n      dup7\n        /* \"#utility.yul\":19767:19773   */\n      dup9\n        /* \"#utility.yul\":19701:19789   */\n      tag_168\n      jump\t// in\n    tag_357:\n        /* \"#utility.yul\":19693:19789   */\n      swap1\n      pop\n        /* \"#utility.yul\":19836:19845   */\n      dup2\n        /* \"#utility.yul\":19830:19834   */\n      dup2\n        /* \"#utility.yul\":19826:19846   */\n      sub\n        /* \"#utility.yul\":19821:19823   */\n      0x20\n        /* \"#utility.yul\":19810:19819   */\n      dup4\n        /* \"#utility.yul\":19806:19824   */\n      add\n        /* \"#utility.yul\":19799:19847   */\n      mstore\n        /* \"#utility.yul\":19864:19952   */\n      tag_358\n        /* \"#utility.yul\":19947:19951   */\n      dup2\n        /* \"#utility.yul\":19938:19944   */\n      dup5\n        /* \"#utility.yul\":19930:19936   */\n      dup7\n        /* \"#utility.yul\":19864:19952   */\n      tag_168\n      jump\t// in\n    tag_358:\n        /* \"#utility.yul\":19856:19952   */\n      swap1\n      pop\n        /* \"#utility.yul\":19405:19959   */\n      swap6\n      swap5\n      pop\n      pop\n      pop\n      pop\n      pop\n      jump\t// out\n        /* \"#utility.yul\":19965:20186   */\n    tag_169:\n        /* \"#utility.yul\":20105:20139   */\n      0x456c206465706f7369746f206465626520736572206d61796f72206120636572\n        /* \"#utility.yul\":20101:20102   */\n      0x00\n        /* \"#utility.yul\":20093:20099   */\n      dup3\n        /* \"#utility.yul\":20089:20103   */\n      add\n        /* \"#utility.yul\":20082:20140   */\n      mstore\n        /* \"#utility.yul\":20174:20178   */\n      0x6f2e000000000000000000000000000000000000000000000000000000000000\n        /* \"#utility.yul\":20169:20171   */\n      0x20\n        /* \"#utility.yul\":20161:20167   */\n      dup3\n        /* \"#utility.yul\":20157:20172   */\n      add\n        /* \"#utility.yul\":20150:20179   */\n      mstore\n        /* \"#utility.yul\":19965:20186   */\n      pop\n      jump\t// out\n        /* \"#utility.yul\":20192:20558   */\n    tag_170:\n        /* \"#utility.yul\":20334:20337   */\n      0x00\n        /* \"#utility.yul\":20355:20422   */\n      tag_361\n        /* \"#utility.yul\":20419:20421   */\n      0x22\n        /* \"#utility.yul\":20414:20417   */\n      dup4\n        /* \"#utility.yul\":20355:20422   */\n      tag_128\n      jump\t// in\n    tag_361:\n        /* \"#utility.yul\":20348:20422   */\n      swap2\n      pop\n        /* \"#utility.yul\":20431:20524   */\n      tag_362\n        /* \"#utility.yul\":20520:20523   */\n      dup3\n        /* \"#utility.yul\":20431:20524   */\n      tag_169\n      jump\t// in\n    tag_362:\n        /* \"#utility.yul\":20549:20551   */\n      0x40\n        /* \"#utility.yul\":20544:20547   */\n      dup3\n        /* \"#utility.yul\":20540:20552   */\n      add\n        /* \"#utility.yul\":20533:20552   */\n      swap1\n      pop\n        /* \"#utility.yul\":20192:20558   */\n      swap2\n      swap1\n      pop\n      jump\t// out\n        /* \"#utility.yul\":20564:20983   */\n    tag_111:\n        /* \"#utility.yul\":20730:20734   */\n      0x00\n        /* \"#utility.yul\":20768:20770   */\n      0x20\n        /* \"#utility.yul\":20757:20766   */\n      dup3\n        /* \"#utility.yul\":20753:20771   */\n      add\n        /* \"#utility.yul\":20745:20771   */\n      swap1\n      pop\n        /* \"#utility.yul\":20817:20826   */\n      dup2\n        /* \"#utility.yul\":20811:20815   */\n      dup2\n        /* \"#utility.yul\":20807:20827   */\n      sub\n        /* \"#utility.yul\":20803:20804   */\n      0x00\n        /* \"#utility.yul\":20792:20801   */\n      dup4\n        /* \"#utility.yul\":20788:20805   */\n      add\n        /* \"#utility.yul\":20781:20828   */\n      mstore\n        /* \"#utility.yul\":20845:20976   */\n      tag_364\n        /* \"#utility.yul\":20971:20975   */\n      dup2\n        /* \"#utility.yul\":20845:20976   */\n      tag_170\n      jump\t// in\n    tag_364:\n        /* \"#utility.yul\":20837:20976   */\n      swap1\n      pop\n        /* \"#utility.yul\":20564:20983   */\n      swap2\n      swap1\n      pop\n      jump\t// out\n\n    auxdata: 0xa2646970667358221220c475030f1d3f105549d381b58d6241df4f4496ad382bda9e67c0d18c3a82097764736f6c634300081a0033\n}\n",
				"bytecode": {
					"linkReferences": {},
					"object": "608060405234801561000f575f80fd5b50604051611a0e380380611a0e8339818101604052810190610031919061020a565b5f73ffffffffffffffffffffffffffffffffffffffff168173ffffffffffffffffffffffffffffffffffffffff160361009f576040517f08c379a0000000000000000000000000000000000000000000000000000000008152600401610096906102c8565b60405180910390fd5b6127108211156100e4576040517f08c379a00000000000000000000000000000000000000000000000000000000081526004016100db90610356565b60405180910390fd5b3360015f6101000a81548173ffffffffffffffffffffffffffffffffffffffff021916908373ffffffffffffffffffffffffffffffffffffffff160217905550816003819055508060025f6101000a81548173ffffffffffffffffffffffffffffffffffffffff021916908373ffffffffffffffffffffffffffffffffffffffff1602179055505f6004819055505050610374565b5f80fd5b5f819050919050565b61018f8161017d565b8114610199575f80fd5b50565b5f815190506101aa81610186565b92915050565b5f73ffffffffffffffffffffffffffffffffffffffff82169050919050565b5f6101d9826101b0565b9050919050565b6101e9816101cf565b81146101f3575f80fd5b50565b5f81519050610204816101e0565b92915050565b5f80604083850312156102205761021f610179565b5b5f61022d8582860161019c565b925050602061023e858286016101f6565b9150509250929050565b5f82825260208201905092915050565b7f4c6120646972656363696f6e206465207465736f7265726961206e6f207075655f8201527f646520736572206365726f2e0000000000000000000000000000000000000000602082015250565b5f6102b2602c83610248565b91506102bd82610258565b604082019050919050565b5f6020820190508181035f8301526102df816102a6565b9050919050565b7f456c20666565206e6f20707565646520736572206d61796f7220616c203130305f8201527f252e000000000000000000000000000000000000000000000000000000000000602082015250565b5f610340602283610248565b915061034b826102e6565b604082019050919050565b5f6020820190508181035f83015261036d81610334565b9050919050565b61168d806103815f395ff3fe608060405260043610610085575f3560e01c80633ffbd47f116100585780633ffbd47f1461012d57806361d027b3146101555780638da5cb5b1461017f578063b8606eef146101a9578063d0e30db0146101d357610085565b806311f1fc991461008957806312065fe0146100b15780632e1a7d4d146100db578063313dab2014610103575b5f80fd5b348015610094575f80fd5b506100af60048036038101906100aa9190610ba2565b6101dd565b005b3480156100bc575f80fd5b506100c56103a0565b6040516100d29190610bdc565b60405180910390f35b3480156100e6575f80fd5b5061010160048036038101906100fc9190610ba2565b610471565b005b34801561010e575f80fd5b506101176106f3565b6040516101249190610bdc565b60405180910390f35b348015610138575f80fd5b50610153600480360381019061014e9190610c56565b6106f9565b005b348015610160575f80fd5b506101696109a5565b6040516101769190610d13565b60405180910390f35b34801561018a575f80fd5b506101936109ca565b6040516101a09190610d13565b60405180910390f35b3480156101b4575f80fd5b506101bd6109ef565b6040516101ca9190610bdc565b60405180910390f35b6101db6109f5565b005b60015f9054906101000a900473ffffffffffffffffffffffffffffffffffffffff1673ffffffffffffffffffffffffffffffffffffffff163373ffffffffffffffffffffffffffffffffffffffff161461026c576040517f08c379a000000000000000000000000000000000000000000000000000000000815260040161026390610dac565b60405180910390fd5b8060045410156102b1576040517f08c379a00000000000000000000000000000000000000000000000000000000081526004016102a890610e3a565b60405180910390fd5b8060045f8282546102c29190610e85565b9250508190555060025f9054906101000a900473ffffffffffffffffffffffffffffffffffffffff1673ffffffffffffffffffffffffffffffffffffffff166108fc8290811502906040515f60405180830381858888f1935050505015801561032d573d5f803e3d5ffd5b5060015f9054906101000a900473ffffffffffffffffffffffffffffffffffffffff1673ffffffffffffffffffffffffffffffffffffffff167f233c84dc0c19fbf51f9fa92214ffd8a59f512e0098bff5827455d02e401221c0826040516103959190610bdc565b60405180910390a250565b5f805f3373ffffffffffffffffffffffffffffffffffffffff1673ffffffffffffffffffffffffffffffffffffffff1681526020019081526020015f206003015f9054906101000a900460ff1661042c576040517f08c379a000000000000000000000000000000000000000000000000000000000815260040161042390610f02565b60405180910390fd5b5f803373ffffffffffffffffffffffffffffffffffffffff1673ffffffffffffffffffffffffffffffffffffffff1681526020019081526020015f2060020154905090565b5f803373ffffffffffffffffffffffffffffffffffffffff1673ffffffffffffffffffffffffffffffffffffffff1681526020019081526020015f206003015f9054906101000a900460ff166104fc576040517f08c379a00000000000000000000000000000000000000000000000000000000081526004016104f390610f02565b60405180910390fd5b5f811161053e576040517f08c379a000000000000000000000000000000000000000000000000000000000815260040161053590610f6a565b60405180910390fd5b805f803373ffffffffffffffffffffffffffffffffffffffff1673ffffffffffffffffffffffffffffffffffffffff1681526020019081526020015f206002015410156105c0576040517f08c379a00000000000000000000000000000000000000000000000000000000081526004016105b790610fd2565b60405180910390fd5b5f612710600354836105d29190610ff0565b6105dc919061105e565b90505f81836105eb9190610e85565b9050825f803373ffffffffffffffffffffffffffffffffffffffff1673ffffffffffffffffffffffffffffffffffffffff1681526020019081526020015f206002015f82825461063b9190610e85565b925050819055508160045f828254610653919061108e565b925050819055503373ffffffffffffffffffffffffffffffffffffffff166108fc8290811502906040515f60405180830381858888f1935050505015801561069d573d5f803e3d5ffd5b503373ffffffffffffffffffffffffffffffffffffffff167fdf273cb619d95419a9cd0ec88123a0538c85064229baa6363788f743fff90deb84846040516106e69291906110c1565b60405180910390a2505050565b60045481565b5f848490501161073e576040517f08c379a000000000000000000000000000000000000000000000000000000000815260040161073590611132565b60405180910390fd5b5f8282905011610783576040517f08c379a000000000000000000000000000000000000000000000000000000000815260040161077a906111c0565b60405180910390fd5b5f803373ffffffffffffffffffffffffffffffffffffffff1673ffffffffffffffffffffffffffffffffffffffff1681526020019081526020015f206003015f9054906101000a900460ff161561080f576040517f08c379a000000000000000000000000000000000000000000000000000000000815260040161080690611228565b60405180910390fd5b604051806080016040528085858080601f0160208091040260200160405190810160405280939291908181526020018383808284375f81840152601f19601f82011690508083019250505050505050815260200183838080601f0160208091040260200160405190810160405280939291908181526020018383808284375f81840152601f19601f8201169050808301925050505050505081526020015f8152602001600115158152505f803373ffffffffffffffffffffffffffffffffffffffff1673ffffffffffffffffffffffffffffffffffffffff1681526020019081526020015f205f820151815f0190816109089190611477565b50602082015181600101908161091e9190611477565b50604082015181600201556060820151816003015f6101000a81548160ff0219169083151502179055509050503373ffffffffffffffffffffffffffffffffffffffff167f92822564bab8864c3a47b34e8d23fbce5c46234eb5da261f94087b995ac0f33b858585856040516109979493929190611590565b60405180910390a250505050565b60025f9054906101000a900473ffffffffffffffffffffffffffffffffffffffff1681565b60015f9054906101000a900473ffffffffffffffffffffffffffffffffffffffff1681565b60035481565b5f803373ffffffffffffffffffffffffffffffffffffffff1673ffffffffffffffffffffffffffffffffffffffff1681526020019081526020015f206003015f9054906101000a900460ff16610a80576040517f08c379a0000000000000000000000000000000000000000000000000000000008152600401610a7790610f02565b60405180910390fd5b5f3411610ac2576040517f08c379a0000000000000000000000000000000000000000000000000000000008152600401610ab990611639565b60405180910390fd5b345f803373ffffffffffffffffffffffffffffffffffffffff1673ffffffffffffffffffffffffffffffffffffffff1681526020019081526020015f206002015f828254610b10919061108e565b925050819055503373ffffffffffffffffffffffffffffffffffffffff167fe1fffcc4923d04b559f4d29a8bfc6cda04eb5b0d3c460751c2402c5c5cc9109c34604051610b5d9190610bdc565b60405180910390a2565b5f80fd5b5f80fd5b5f819050919050565b610b8181610b6f565b8114610b8b575f80fd5b50565b5f81359050610b9c81610b78565b92915050565b5f60208284031215610bb757610bb6610b67565b5b5f610bc484828501610b8e565b91505092915050565b610bd681610b6f565b82525050565b5f602082019050610bef5f830184610bcd565b92915050565b5f80fd5b5f80fd5b5f80fd5b5f8083601f840112610c1657610c15610bf5565b5b8235905067ffffffffffffffff811115610c3357610c32610bf9565b5b602083019150836001820283011115610c4f57610c4e610bfd565b5b9250929050565b5f805f8060408587031215610c6e57610c6d610b67565b5b5f85013567ffffffffffffffff811115610c8b57610c8a610b6b565b5b610c9787828801610c01565b9450945050602085013567ffffffffffffffff811115610cba57610cb9610b6b565b5b610cc687828801610c01565b925092505092959194509250565b5f73ffffffffffffffffffffffffffffffffffffffff82169050919050565b5f610cfd82610cd4565b9050919050565b610d0d81610cf3565b82525050565b5f602082019050610d265f830184610d04565b92915050565b5f82825260208201905092915050565b7f536f6c6f20656c2070726f706965746172696f20707565646520656a656375745f8201527f617220657374612066756e63696f6e2e00000000000000000000000000000000602082015250565b5f610d96603083610d2c565b9150610da182610d3c565b604082019050919050565b5f6020820190508181035f830152610dc381610d8a565b9050919050565b7f466f6e646f7320696e737566696369656e74657320656e206c61207465736f725f8201527f657269612e000000000000000000000000000000000000000000000000000000602082015250565b5f610e24602583610d2c565b9150610e2f82610dca565b604082019050919050565b5f6020820190508181035f830152610e5181610e18565b9050919050565b7f4e487b71000000000000000000000000000000000000000000000000000000005f52601160045260245ffd5b5f610e8f82610b6f565b9150610e9a83610b6f565b9250828203905081811115610eb257610eb1610e58565b5b92915050565b7f44656265206573746172207265676973747261646f2e000000000000000000005f82015250565b5f610eec601683610d2c565b9150610ef782610eb8565b602082019050919050565b5f6020820190508181035f830152610f1981610ee0565b9050919050565b7f456c206d6f6e746f206465626520736572206d61796f722061206365726f2e005f82015250565b5f610f54601f83610d2c565b9150610f5f82610f20565b602082019050919050565b5f6020820190508181035f830152610f8181610f48565b9050919050565b7f53616c646f20696e737566696369656e74652e000000000000000000000000005f82015250565b5f610fbc601383610d2c565b9150610fc782610f88565b602082019050919050565b5f6020820190508181035f830152610fe981610fb0565b9050919050565b5f610ffa82610b6f565b915061100583610b6f565b925082820261101381610b6f565b9150828204841483151761102a57611029610e58565b5b5092915050565b7f4e487b71000000000000000000000000000000000000000000000000000000005f52601260045260245ffd5b5f61106882610b6f565b915061107383610b6f565b92508261108357611082611031565b5b828204905092915050565b5f61109882610b6f565b91506110a383610b6f565b92508282019050808211156110bb576110ba610e58565b5b92915050565b5f6040820190506110d45f830185610bcd565b6110e16020830184610bcd565b9392505050565b7f456c206e6f6d627265206e6f20707565646520657374617220766163696f2e005f82015250565b5f61111c601f83610d2c565b9150611127826110e8565b602082019050919050565b5f6020820190508181035f83015261114981611110565b9050919050565b7f456c206170656c6c69646f206e6f20707565646520657374617220766163696f5f8201527f2e00000000000000000000000000000000000000000000000000000000000000602082015250565b5f6111aa602183610d2c565b91506111b582611150565b604082019050919050565b5f6020820190508181035f8301526111d78161119e565b9050919050565b7f5573756172696f207961207265676973747261646f2e000000000000000000005f82015250565b5f611212601683610d2c565b915061121d826111de565b602082019050919050565b5f6020820190508181035f83015261123f81611206565b9050919050565b5f81519050919050565b7f4e487b71000000000000000000000000000000000000000000000000000000005f52604160045260245ffd5b7f4e487b71000000000000000000000000000000000000000000000000000000005f52602260045260245ffd5b5f60028204905060018216806112c157607f821691505b6020821081036112d4576112d361127d565b5b50919050565b5f819050815f5260205f209050919050565b5f6020601f8301049050919050565b5f82821b905092915050565b5f600883026113367fffffffffffffffffffffffffffffffffffffffffffffffffffffffffffffffff826112fb565b61134086836112fb565b95508019841693508086168417925050509392505050565b5f819050919050565b5f61137b61137661137184610b6f565b611358565b610b6f565b9050919050565b5f819050919050565b61139483611361565b6113a86113a082611382565b848454611307565b825550505050565b5f90565b6113bc6113b0565b6113c781848461138b565b505050565b5b818110156113ea576113df5f826113b4565b6001810190506113cd565b5050565b601f82111561142f57611400816112da565b611409846112ec565b81016020851015611418578190505b61142c611424856112ec565b8301826113cc565b50505b505050565b5f82821c905092915050565b5f61144f5f1984600802611434565b1980831691505092915050565b5f6114678383611440565b9150826002028217905092915050565b61148082611246565b67ffffffffffffffff81111561149957611498611250565b5b6114a382546112aa565b6114ae8282856113ee565b5f60209050601f8311600181146114df575f84156114cd578287015190505b6114d7858261145c565b86555061153e565b601f1984166114ed866112da565b5f5b82811015611514578489015182556001820191506020850194506020810190506114ef565b86831015611531578489015161152d601f891682611440565b8355505b6001600288020188555050505b505050505050565b828183375f83830152505050565b5f601f19601f8301169050919050565b5f61156f8385610d2c565b935061157c838584611546565b61158583611554565b840190509392505050565b5f6040820190508181035f8301526115a9818688611564565b905081810360208301526115be818486611564565b905095945050505050565b7f456c206465706f7369746f206465626520736572206d61796f722061206365725f8201527f6f2e000000000000000000000000000000000000000000000000000000000000602082015250565b5f611623602283610d2c565b915061162e826115c9565b604082019050919050565b5f6020820190508181035f83015261165081611617565b905091905056fea2646970667358221220c475030f1d3f105549d381b58d6241df4f4496ad382bda9e67c0d18c3a82097764736f6c634300081a0033",
					"opcodes": "PUSH1 0x80 PUSH1 0x40 MSTORE CALLVALUE DUP1 ISZERO PUSH2 0xF JUMPI PUSH0 DUP1 REVERT JUMPDEST POP PUSH1 0x40 MLOAD PUSH2 0x1A0E CODESIZE SUB DUP1 PUSH2 0x1A0E DUP4 CODECOPY DUP2 DUP2 ADD PUSH1 0x40 MSTORE DUP2 ADD SWAP1 PUSH2 0x31 SWAP2 SWAP1 PUSH2 0x20A JUMP JUMPDEST PUSH0 PUSH20 0xFFFFFFFFFFFFFFFFFFFFFFFFFFFFFFFFFFFFFFFF AND DUP2 PUSH20 0xFFFFFFFFFFFFFFFFFFFFFFFFFFFFFFFFFFFFFFFF AND SUB PUSH2 0x9F JUMPI PUSH1 0x40 MLOAD PUSH32 0x8C379A000000000000000000000000000000000000000000000000000000000 DUP2 MSTORE PUSH1 0x4 ADD PUSH2 0x96 SWAP1 PUSH2 0x2C8 JUMP JUMPDEST PUSH1 0x40 MLOAD DUP1 SWAP2 SUB SWAP1 REVERT JUMPDEST PUSH2 0x2710 DUP3 GT ISZERO PUSH2 0xE4 JUMPI PUSH1 0x40 MLOAD PUSH32 0x8C379A000000000000000000000000000000000000000000000000000000000 DUP2 MSTORE PUSH1 0x4 ADD PUSH2 0xDB SWAP1 PUSH2 0x356 JUMP JUMPDEST PUSH1 0x40 MLOAD DUP1 SWAP2 SUB SWAP1 REVERT JUMPDEST CALLER PUSH1 0x1 PUSH0 PUSH2 0x100 EXP DUP2 SLOAD DUP2 PUSH20 0xFFFFFFFFFFFFFFFFFFFFFFFFFFFFFFFFFFFFFFFF MUL NOT AND SWAP1 DUP4 PUSH20 0xFFFFFFFFFFFFFFFFFFFFFFFFFFFFFFFFFFFFFFFF AND MUL OR SWAP1 SSTORE POP DUP2 PUSH1 0x3 DUP2 SWAP1 SSTORE POP DUP1 PUSH1 0x2 PUSH0 PUSH2 0x100 EXP DUP2 SLOAD DUP2 PUSH20 0xFFFFFFFFFFFFFFFFFFFFFFFFFFFFFFFFFFFFFFFF MUL NOT AND SWAP1 DUP4 PUSH20 0xFFFFFFFFFFFFFFFFFFFFFFFFFFFFFFFFFFFFFFFF AND MUL OR SWAP1 SSTORE POP PUSH0 PUSH1 0x4 DUP2 SWAP1 SSTORE POP POP POP PUSH2 0x374 JUMP JUMPDEST PUSH0 DUP1 REVERT JUMPDEST PUSH0 DUP2 SWAP1 POP SWAP2 SWAP1 POP JUMP JUMPDEST PUSH2 0x18F DUP2 PUSH2 0x17D JUMP JUMPDEST DUP2 EQ PUSH2 0x199 JUMPI PUSH0 DUP1 REVERT JUMPDEST POP JUMP JUMPDEST PUSH0 DUP2 MLOAD SWAP1 POP PUSH2 0x1AA DUP2 PUSH2 0x186 JUMP JUMPDEST SWAP3 SWAP2 POP POP JUMP JUMPDEST PUSH0 PUSH20 0xFFFFFFFFFFFFFFFFFFFFFFFFFFFFFFFFFFFFFFFF DUP3 AND SWAP1 POP SWAP2 SWAP1 POP JUMP JUMPDEST PUSH0 PUSH2 0x1D9 DUP3 PUSH2 0x1B0 JUMP JUMPDEST SWAP1 POP SWAP2 SWAP1 POP JUMP JUMPDEST PUSH2 0x1E9 DUP2 PUSH2 0x1CF JUMP JUMPDEST DUP2 EQ PUSH2 0x1F3 JUMPI PUSH0 DUP1 REVERT JUMPDEST POP JUMP JUMPDEST PUSH0 DUP2 MLOAD SWAP1 POP PUSH2 0x204 DUP2 PUSH2 0x1E0 JUMP JUMPDEST SWAP3 SWAP2 POP POP JUMP JUMPDEST PUSH0 DUP1 PUSH1 0x40 DUP4 DUP6 SUB SLT ISZERO PUSH2 0x220 JUMPI PUSH2 0x21F PUSH2 0x179 JUMP JUMPDEST JUMPDEST PUSH0 PUSH2 0x22D DUP6 DUP3 DUP7 ADD PUSH2 0x19C JUMP JUMPDEST SWAP3 POP POP PUSH1 0x20 PUSH2 0x23E DUP6 DUP3 DUP7 ADD PUSH2 0x1F6 JUMP JUMPDEST SWAP2 POP POP SWAP3 POP SWAP3 SWAP1 POP JUMP JUMPDEST PUSH0 DUP3 DUP3 MSTORE PUSH1 0x20 DUP3 ADD SWAP1 POP SWAP3 SWAP2 POP POP JUMP JUMPDEST PUSH32 0x4C6120646972656363696F6E206465207465736F7265726961206E6F20707565 PUSH0 DUP3 ADD MSTORE PUSH32 0x646520736572206365726F2E0000000000000000000000000000000000000000 PUSH1 0x20 DUP3 ADD MSTORE POP JUMP JUMPDEST PUSH0 PUSH2 0x2B2 PUSH1 0x2C DUP4 PUSH2 0x248 JUMP JUMPDEST SWAP2 POP PUSH2 0x2BD DUP3 PUSH2 0x258 JUMP JUMPDEST PUSH1 0x40 DUP3 ADD SWAP1 POP SWAP2 SWAP1 POP JUMP JUMPDEST PUSH0 PUSH1 0x20 DUP3 ADD SWAP1 POP DUP2 DUP2 SUB PUSH0 DUP4 ADD MSTORE PUSH2 0x2DF DUP2 PUSH2 0x2A6 JUMP JUMPDEST SWAP1 POP SWAP2 SWAP1 POP JUMP JUMPDEST PUSH32 0x456C20666565206E6F20707565646520736572206D61796F7220616C20313030 PUSH0 DUP3 ADD MSTORE PUSH32 0x252E000000000000000000000000000000000000000000000000000000000000 PUSH1 0x20 DUP3 ADD MSTORE POP JUMP JUMPDEST PUSH0 PUSH2 0x340 PUSH1 0x22 DUP4 PUSH2 0x248 JUMP JUMPDEST SWAP2 POP PUSH2 0x34B DUP3 PUSH2 0x2E6 JUMP JUMPDEST PUSH1 0x40 DUP3 ADD SWAP1 POP SWAP2 SWAP1 POP JUMP JUMPDEST PUSH0 PUSH1 0x20 DUP3 ADD SWAP1 POP DUP2 DUP2 SUB PUSH0 DUP4 ADD MSTORE PUSH2 0x36D DUP2 PUSH2 0x334 JUMP JUMPDEST SWAP1 POP SWAP2 SWAP1 POP JUMP JUMPDEST PUSH2 0x168D DUP1 PUSH2 0x381 PUSH0 CODECOPY PUSH0 RETURN INVALID PUSH1 0x80 PUSH1 0x40 MSTORE PUSH1 0x4 CALLDATASIZE LT PUSH2 0x85 JUMPI PUSH0 CALLDATALOAD PUSH1 0xE0 SHR DUP1 PUSH4 0x3FFBD47F GT PUSH2 0x58 JUMPI DUP1 PUSH4 0x3FFBD47F EQ PUSH2 0x12D JUMPI DUP1 PUSH4 0x61D027B3 EQ PUSH2 0x155 JUMPI DUP1 PUSH4 0x8DA5CB5B EQ PUSH2 0x17F JUMPI DUP1 PUSH4 0xB8606EEF EQ PUSH2 0x1A9 JUMPI DUP1 PUSH4 0xD0E30DB0 EQ PUSH2 0x1D3 JUMPI PUSH2 0x85 JUMP JUMPDEST DUP1 PUSH4 0x11F1FC99 EQ PUSH2 0x89 JUMPI DUP1 PUSH4 0x12065FE0 EQ PUSH2 0xB1 JUMPI DUP1 PUSH4 0x2E1A7D4D EQ PUSH2 0xDB JUMPI DUP1 PUSH4 0x313DAB20 EQ PUSH2 0x103 JUMPI JUMPDEST PUSH0 DUP1 REVERT JUMPDEST CALLVALUE DUP1 ISZERO PUSH2 0x94 JUMPI PUSH0 DUP1 REVERT JUMPDEST POP PUSH2 0xAF PUSH1 0x4 DUP1 CALLDATASIZE SUB DUP2 ADD SWAP1 PUSH2 0xAA SWAP2 SWAP1 PUSH2 0xBA2 JUMP JUMPDEST PUSH2 0x1DD JUMP JUMPDEST STOP JUMPDEST CALLVALUE DUP1 ISZERO PUSH2 0xBC JUMPI PUSH0 DUP1 REVERT JUMPDEST POP PUSH2 0xC5 PUSH2 0x3A0 JUMP JUMPDEST PUSH1 0x40 MLOAD PUSH2 0xD2 SWAP2 SWAP1 PUSH2 0xBDC JUMP JUMPDEST PUSH1 0x40 MLOAD DUP1 SWAP2 SUB SWAP1 RETURN JUMPDEST CALLVALUE DUP1 ISZERO PUSH2 0xE6 JUMPI PUSH0 DUP1 REVERT JUMPDEST POP PUSH2 0x101 PUSH1 0x4 DUP1 CALLDATASIZE SUB DUP2 ADD SWAP1 PUSH2 0xFC SWAP2 SWAP1 PUSH2 0xBA2 JUMP JUMPDEST PUSH2 0x471 JUMP JUMPDEST STOP JUMPDEST CALLVALUE DUP1 ISZERO PUSH2 0x10E JUMPI PUSH0 DUP1 REVERT JUMPDEST POP PUSH2 0x117 PUSH2 0x6F3 JUMP JUMPDEST PUSH1 0x40 MLOAD PUSH2 0x124 SWAP2 SWAP1 PUSH2 0xBDC JUMP JUMPDEST PUSH1 0x40 MLOAD DUP1 SWAP2 SUB SWAP1 RETURN JUMPDEST CALLVALUE DUP1 ISZERO PUSH2 0x138 JUMPI PUSH0 DUP1 REVERT JUMPDEST POP PUSH2 0x153 PUSH1 0x4 DUP1 CALLDATASIZE SUB DUP2 ADD SWAP1 PUSH2 0x14E SWAP2 SWAP1 PUSH2 0xC56 JUMP JUMPDEST PUSH2 0x6F9 JUMP JUMPDEST STOP JUMPDEST CALLVALUE DUP1 ISZERO PUSH2 0x160 JUMPI PUSH0 DUP1 REVERT JUMPDEST POP PUSH2 0x169 PUSH2 0x9A5 JUMP JUMPDEST PUSH1 0x40 MLOAD PUSH2 0x176 SWAP2 SWAP1 PUSH2 0xD13 JUMP JUMPDEST PUSH1 0x40 MLOAD DUP1 SWAP2 SUB SWAP1 RETURN JUMPDEST CALLVALUE DUP1 ISZERO PUSH2 0x18A JUMPI PUSH0 DUP1 REVERT JUMPDEST POP PUSH2 0x193 PUSH2 0x9CA JUMP JUMPDEST PUSH1 0x40 MLOAD PUSH2 0x1A0 SWAP2 SWAP1 PUSH2 0xD13 JUMP JUMPDEST PUSH1 0x40 MLOAD DUP1 SWAP2 SUB SWAP1 RETURN JUMPDEST CALLVALUE DUP1 ISZERO PUSH2 0x1B4 JUMPI PUSH0 DUP1 REVERT JUMPDEST POP PUSH2 0x1BD PUSH2 0x9EF JUMP JUMPDEST PUSH1 0x40 MLOAD PUSH2 0x1CA SWAP2 SWAP1 PUSH2 0xBDC JUMP JUMPDEST PUSH1 0x40 MLOAD DUP1 SWAP2 SUB SWAP1 RETURN JUMPDEST PUSH2 0x1DB PUSH2 0x9F5 JUMP JUMPDEST STOP JUMPDEST PUSH1 0x1 PUSH0 SWAP1 SLOAD SWAP1 PUSH2 0x100 EXP SWAP1 DIV PUSH20 0xFFFFFFFFFFFFFFFFFFFFFFFFFFFFFFFFFFFFFFFF AND PUSH20 0xFFFFFFFFFFFFFFFFFFFFFFFFFFFFFFFFFFFFFFFF AND CALLER PUSH20 0xFFFFFFFFFFFFFFFFFFFFFFFFFFFFFFFFFFFFFFFF AND EQ PUSH2 0x26C JUMPI PUSH1 0x40 MLOAD PUSH32 0x8C379A000000000000000000000000000000000000000000000000000000000 DUP2 MSTORE PUSH1 0x4 ADD PUSH2 0x263 SWAP1 PUSH2 0xDAC JUMP JUMPDEST PUSH1 0x40 MLOAD DUP1 SWAP2 SUB SWAP1 REVERT JUMPDEST DUP1 PUSH1 0x4 SLOAD LT ISZERO PUSH2 0x2B1 JUMPI PUSH1 0x40 MLOAD PUSH32 0x8C379A000000000000000000000000000000000000000000000000000000000 DUP2 MSTORE PUSH1 0x4 ADD PUSH2 0x2A8 SWAP1 PUSH2 0xE3A JUMP JUMPDEST PUSH1 0x40 MLOAD DUP1 SWAP2 SUB SWAP1 REVERT JUMPDEST DUP1 PUSH1 0x4 PUSH0 DUP3 DUP3 SLOAD PUSH2 0x2C2 SWAP2 SWAP1 PUSH2 0xE85 JUMP JUMPDEST SWAP3 POP POP DUP2 SWAP1 SSTORE POP PUSH1 0x2 PUSH0 SWAP1 SLOAD SWAP1 PUSH2 0x100 EXP SWAP1 DIV PUSH20 0xFFFFFFFFFFFFFFFFFFFFFFFFFFFFFFFFFFFFFFFF AND PUSH20 0xFFFFFFFFFFFFFFFFFFFFFFFFFFFFFFFFFFFFFFFF AND PUSH2 0x8FC DUP3 SWAP1 DUP2 ISZERO MUL SWAP1 PUSH1 0x40 MLOAD PUSH0 PUSH1 0x40 MLOAD DUP1 DUP4 SUB DUP2 DUP6 DUP9 DUP9 CALL SWAP4 POP POP POP POP ISZERO DUP1 ISZERO PUSH2 0x32D JUMPI RETURNDATASIZE PUSH0 DUP1 RETURNDATACOPY RETURNDATASIZE PUSH0 REVERT JUMPDEST POP PUSH1 0x1 PUSH0 SWAP1 SLOAD SWAP1 PUSH2 0x100 EXP SWAP1 DIV PUSH20 0xFFFFFFFFFFFFFFFFFFFFFFFFFFFFFFFFFFFFFFFF AND PUSH20 0xFFFFFFFFFFFFFFFFFFFFFFFFFFFFFFFFFFFFFFFF AND PUSH32 0x233C84DC0C19FBF51F9FA92214FFD8A59F512E0098BFF5827455D02E401221C0 DUP3 PUSH1 0x40 MLOAD PUSH2 0x395 SWAP2 SWAP1 PUSH2 0xBDC JUMP JUMPDEST PUSH1 0x40 MLOAD DUP1 SWAP2 SUB SWAP1 LOG2 POP JUMP JUMPDEST PUSH0 DUP1 PUSH0 CALLER PUSH20 0xFFFFFFFFFFFFFFFFFFFFFFFFFFFFFFFFFFFFFFFF AND PUSH20 0xFFFFFFFFFFFFFFFFFFFFFFFFFFFFFFFFFFFFFFFF AND DUP2 MSTORE PUSH1 0x20 ADD SWAP1 DUP2 MSTORE PUSH1 0x20 ADD PUSH0 KECCAK256 PUSH1 0x3 ADD PUSH0 SWAP1 SLOAD SWAP1 PUSH2 0x100 EXP SWAP1 DIV PUSH1 0xFF AND PUSH2 0x42C JUMPI PUSH1 0x40 MLOAD PUSH32 0x8C379A000000000000000000000000000000000000000000000000000000000 DUP2 MSTORE PUSH1 0x4 ADD PUSH2 0x423 SWAP1 PUSH2 0xF02 JUMP JUMPDEST PUSH1 0x40 MLOAD DUP1 SWAP2 SUB SWAP1 REVERT JUMPDEST PUSH0 DUP1 CALLER PUSH20 0xFFFFFFFFFFFFFFFFFFFFFFFFFFFFFFFFFFFFFFFF AND PUSH20 0xFFFFFFFFFFFFFFFFFFFFFFFFFFFFFFFFFFFFFFFF AND DUP2 MSTORE PUSH1 0x20 ADD SWAP1 DUP2 MSTORE PUSH1 0x20 ADD PUSH0 KECCAK256 PUSH1 0x2 ADD SLOAD SWAP1 POP SWAP1 JUMP JUMPDEST PUSH0 DUP1 CALLER PUSH20 0xFFFFFFFFFFFFFFFFFFFFFFFFFFFFFFFFFFFFFFFF AND PUSH20 0xFFFFFFFFFFFFFFFFFFFFFFFFFFFFFFFFFFFFFFFF AND DUP2 MSTORE PUSH1 0x20 ADD SWAP1 DUP2 MSTORE PUSH1 0x20 ADD PUSH0 KECCAK256 PUSH1 0x3 ADD PUSH0 SWAP1 SLOAD SWAP1 PUSH2 0x100 EXP SWAP1 DIV PUSH1 0xFF AND PUSH2 0x4FC JUMPI PUSH1 0x40 MLOAD PUSH32 0x8C379A000000000000000000000000000000000000000000000000000000000 DUP2 MSTORE PUSH1 0x4 ADD PUSH2 0x4F3 SWAP1 PUSH2 0xF02 JUMP JUMPDEST PUSH1 0x40 MLOAD DUP1 SWAP2 SUB SWAP1 REVERT JUMPDEST PUSH0 DUP2 GT PUSH2 0x53E JUMPI PUSH1 0x40 MLOAD PUSH32 0x8C379A000000000000000000000000000000000000000000000000000000000 DUP2 MSTORE PUSH1 0x4 ADD PUSH2 0x535 SWAP1 PUSH2 0xF6A JUMP JUMPDEST PUSH1 0x40 MLOAD DUP1 SWAP2 SUB SWAP1 REVERT JUMPDEST DUP1 PUSH0 DUP1 CALLER PUSH20 0xFFFFFFFFFFFFFFFFFFFFFFFFFFFFFFFFFFFFFFFF AND PUSH20 0xFFFFFFFFFFFFFFFFFFFFFFFFFFFFFFFFFFFFFFFF AND DUP2 MSTORE PUSH1 0x20 ADD SWAP1 DUP2 MSTORE PUSH1 0x20 ADD PUSH0 KECCAK256 PUSH1 0x2 ADD SLOAD LT ISZERO PUSH2 0x5C0 JUMPI PUSH1 0x40 MLOAD PUSH32 0x8C379A000000000000000000000000000000000000000000000000000000000 DUP2 MSTORE PUSH1 0x4 ADD PUSH2 0x5B7 SWAP1 PUSH2 0xFD2 JUMP JUMPDEST PUSH1 0x40 MLOAD DUP1 SWAP2 SUB SWAP1 REVERT JUMPDEST PUSH0 PUSH2 0x2710 PUSH1 0x3 SLOAD DUP4 PUSH2 0x5D2 SWAP2 SWAP1 PUSH2 0xFF0 JUMP JUMPDEST PUSH2 0x5DC SWAP2 SWAP1 PUSH2 0x105E JUMP JUMPDEST SWAP1 POP PUSH0 DUP2 DUP4 PUSH2 0x5EB SWAP2 SWAP1 PUSH2 0xE85 JUMP JUMPDEST SWAP1 POP DUP3 PUSH0 DUP1 CALLER PUSH20 0xFFFFFFFFFFFFFFFFFFFFFFFFFFFFFFFFFFFFFFFF AND PUSH20 0xFFFFFFFFFFFFFFFFFFFFFFFFFFFFFFFFFFFFFFFF AND DUP2 MSTORE PUSH1 0x20 ADD SWAP1 DUP2 MSTORE PUSH1 0x20 ADD PUSH0 KECCAK256 PUSH1 0x2 ADD PUSH0 DUP3 DUP3 SLOAD PUSH2 0x63B SWAP2 SWAP1 PUSH2 0xE85 JUMP JUMPDEST SWAP3 POP POP DUP2 SWAP1 SSTORE POP DUP2 PUSH1 0x4 PUSH0 DUP3 DUP3 SLOAD PUSH2 0x653 SWAP2 SWAP1 PUSH2 0x108E JUMP JUMPDEST SWAP3 POP POP DUP2 SWAP1 SSTORE POP CALLER PUSH20 0xFFFFFFFFFFFFFFFFFFFFFFFFFFFFFFFFFFFFFFFF AND PUSH2 0x8FC DUP3 SWAP1 DUP2 ISZERO MUL SWAP1 PUSH1 0x40 MLOAD PUSH0 PUSH1 0x40 MLOAD DUP1 DUP4 SUB DUP2 DUP6 DUP9 DUP9 CALL SWAP4 POP POP POP POP ISZERO DUP1 ISZERO PUSH2 0x69D JUMPI RETURNDATASIZE PUSH0 DUP1 RETURNDATACOPY RETURNDATASIZE PUSH0 REVERT JUMPDEST POP CALLER PUSH20 0xFFFFFFFFFFFFFFFFFFFFFFFFFFFFFFFFFFFFFFFF AND PUSH32 0xDF273CB619D95419A9CD0EC88123A0538C85064229BAA6363788F743FFF90DEB DUP5 DUP5 PUSH1 0x40 MLOAD PUSH2 0x6E6 SWAP3 SWAP2 SWAP1 PUSH2 0x10C1 JUMP JUMPDEST PUSH1 0x40 MLOAD DUP1 SWAP2 SUB SWAP1 LOG2 POP POP POP JUMP JUMPDEST PUSH1 0x4 SLOAD DUP2 JUMP JUMPDEST PUSH0 DUP5 DUP5 SWAP1 POP GT PUSH2 0x73E JUMPI PUSH1 0x40 MLOAD PUSH32 0x8C379A000000000000000000000000000000000000000000000000000000000 DUP2 MSTORE PUSH1 0x4 ADD PUSH2 0x735 SWAP1 PUSH2 0x1132 JUMP JUMPDEST PUSH1 0x40 MLOAD DUP1 SWAP2 SUB SWAP1 REVERT JUMPDEST PUSH0 DUP3 DUP3 SWAP1 POP GT PUSH2 0x783 JUMPI PUSH1 0x40 MLOAD PUSH32 0x8C379A000000000000000000000000000000000000000000000000000000000 DUP2 MSTORE PUSH1 0x4 ADD PUSH2 0x77A SWAP1 PUSH2 0x11C0 JUMP JUMPDEST PUSH1 0x40 MLOAD DUP1 SWAP2 SUB SWAP1 REVERT JUMPDEST PUSH0 DUP1 CALLER PUSH20 0xFFFFFFFFFFFFFFFFFFFFFFFFFFFFFFFFFFFFFFFF AND PUSH20 0xFFFFFFFFFFFFFFFFFFFFFFFFFFFFFFFFFFFFFFFF AND DUP2 MSTORE PUSH1 0x20 ADD SWAP1 DUP2 MSTORE PUSH1 0x20 ADD PUSH0 KECCAK256 PUSH1 0x3 ADD PUSH0 SWAP1 SLOAD SWAP1 PUSH2 0x100 EXP SWAP1 DIV PUSH1 0xFF AND ISZERO PUSH2 0x80F JUMPI PUSH1 0x40 MLOAD PUSH32 0x8C379A000000000000000000000000000000000000000000000000000000000 DUP2 MSTORE PUSH1 0x4 ADD PUSH2 0x806 SWAP1 PUSH2 0x1228 JUMP JUMPDEST PUSH1 0x40 MLOAD DUP1 SWAP2 SUB SWAP1 REVERT JUMPDEST PUSH1 0x40 MLOAD DUP1 PUSH1 0x80 ADD PUSH1 0x40 MSTORE DUP1 DUP6 DUP6 DUP1 DUP1 PUSH1 0x1F ADD PUSH1 0x20 DUP1 SWAP2 DIV MUL PUSH1 0x20 ADD PUSH1 0x40 MLOAD SWAP1 DUP2 ADD PUSH1 0x40 MSTORE DUP1 SWAP4 SWAP3 SWAP2 SWAP1 DUP2 DUP2 MSTORE PUSH1 0x20 ADD DUP4 DUP4 DUP1 DUP3 DUP5 CALLDATACOPY PUSH0 DUP2 DUP5 ADD MSTORE PUSH1 0x1F NOT PUSH1 0x1F DUP3 ADD AND SWAP1 POP DUP1 DUP4 ADD SWAP3 POP POP POP POP POP POP POP DUP2 MSTORE PUSH1 0x20 ADD DUP4 DUP4 DUP1 DUP1 PUSH1 0x1F ADD PUSH1 0x20 DUP1 SWAP2 DIV MUL PUSH1 0x20 ADD PUSH1 0x40 MLOAD SWAP1 DUP2 ADD PUSH1 0x40 MSTORE DUP1 SWAP4 SWAP3 SWAP2 SWAP1 DUP2 DUP2 MSTORE PUSH1 0x20 ADD DUP4 DUP4 DUP1 DUP3 DUP5 CALLDATACOPY PUSH0 DUP2 DUP5 ADD MSTORE PUSH1 0x1F NOT PUSH1 0x1F DUP3 ADD AND SWAP1 POP DUP1 DUP4 ADD SWAP3 POP POP POP POP POP POP POP DUP2 MSTORE PUSH1 0x20 ADD PUSH0 DUP2 MSTORE PUSH1 0x20 ADD PUSH1 0x1 ISZERO ISZERO DUP2 MSTORE POP PUSH0 DUP1 CALLER PUSH20 0xFFFFFFFFFFFFFFFFFFFFFFFFFFFFFFFFFFFFFFFF AND PUSH20 0xFFFFFFFFFFFFFFFFFFFFFFFFFFFFFFFFFFFFFFFF AND DUP2 MSTORE PUSH1 0x20 ADD SWAP1 DUP2 MSTORE PUSH1 0x20 ADD PUSH0 KECCAK256 PUSH0 DUP3 ADD MLOAD DUP2 PUSH0 ADD SWAP1 DUP2 PUSH2 0x908 SWAP2 SWAP1 PUSH2 0x1477 JUMP JUMPDEST POP PUSH1 0x20 DUP3 ADD MLOAD DUP2 PUSH1 0x1 ADD SWAP1 DUP2 PUSH2 0x91E SWAP2 SWAP1 PUSH2 0x1477 JUMP JUMPDEST POP PUSH1 0x40 DUP3 ADD MLOAD DUP2 PUSH1 0x2 ADD SSTORE PUSH1 0x60 DUP3 ADD MLOAD DUP2 PUSH1 0x3 ADD PUSH0 PUSH2 0x100 EXP DUP2 SLOAD DUP2 PUSH1 0xFF MUL NOT AND SWAP1 DUP4 ISZERO ISZERO MUL OR SWAP1 SSTORE POP SWAP1 POP POP CALLER PUSH20 0xFFFFFFFFFFFFFFFFFFFFFFFFFFFFFFFFFFFFFFFF AND PUSH32 0x92822564BAB8864C3A47B34E8D23FBCE5C46234EB5DA261F94087B995AC0F33B DUP6 DUP6 DUP6 DUP6 PUSH1 0x40 MLOAD PUSH2 0x997 SWAP5 SWAP4 SWAP3 SWAP2 SWAP1 PUSH2 0x1590 JUMP JUMPDEST PUSH1 0x40 MLOAD DUP1 SWAP2 SUB SWAP1 LOG2 POP POP POP POP JUMP JUMPDEST PUSH1 0x2 PUSH0 SWAP1 SLOAD SWAP1 PUSH2 0x100 EXP SWAP1 DIV PUSH20 0xFFFFFFFFFFFFFFFFFFFFFFFFFFFFFFFFFFFFFFFF AND DUP2 JUMP JUMPDEST PUSH1 0x1 PUSH0 SWAP1 SLOAD SWAP1 PUSH2 0x100 EXP SWAP1 DIV PUSH20 0xFFFFFFFFFFFFFFFFFFFFFFFFFFFFFFFFFFFFFFFF AND DUP2 JUMP JUMPDEST PUSH1 0x3 SLOAD DUP2 JUMP JUMPDEST PUSH0 DUP1 CALLER PUSH20 0xFFFFFFFFFFFFFFFFFFFFFFFFFFFFFFFFFFFFFFFF AND PUSH20 0xFFFFFFFFFFFFFFFFFFFFFFFFFFFFFFFFFFFFFFFF AND DUP2 MSTORE PUSH1 0x20 ADD SWAP1 DUP2 MSTORE PUSH1 0x20 ADD PUSH0 KECCAK256 PUSH1 0x3 ADD PUSH0 SWAP1 SLOAD SWAP1 PUSH2 0x100 EXP SWAP1 DIV PUSH1 0xFF AND PUSH2 0xA80 JUMPI PUSH1 0x40 MLOAD PUSH32 0x8C379A000000000000000000000000000000000000000000000000000000000 DUP2 MSTORE PUSH1 0x4 ADD PUSH2 0xA77 SWAP1 PUSH2 0xF02 JUMP JUMPDEST PUSH1 0x40 MLOAD DUP1 SWAP2 SUB SWAP1 REVERT JUMPDEST PUSH0 CALLVALUE GT PUSH2 0xAC2 JUMPI PUSH1 0x40 MLOAD PUSH32 0x8C379A000000000000000000000000000000000000000000000000000000000 DUP2 MSTORE PUSH1 0x4 ADD PUSH2 0xAB9 SWAP1 PUSH2 0x1639 JUMP JUMPDEST PUSH1 0x40 MLOAD DUP1 SWAP2 SUB SWAP1 REVERT JUMPDEST CALLVALUE PUSH0 DUP1 CALLER PUSH20 0xFFFFFFFFFFFFFFFFFFFFFFFFFFFFFFFFFFFFFFFF AND PUSH20 0xFFFFFFFFFFFFFFFFFFFFFFFFFFFFFFFFFFFFFFFF AND DUP2 MSTORE PUSH1 0x20 ADD SWAP1 DUP2 MSTORE PUSH1 0x20 ADD PUSH0 KECCAK256 PUSH1 0x2 ADD PUSH0 DUP3 DUP3 SLOAD PUSH2 0xB10 SWAP2 SWAP1 PUSH2 0x108E JUMP JUMPDEST SWAP3 POP POP DUP2 SWAP1 SSTORE POP CALLER PUSH20 0xFFFFFFFFFFFFFFFFFFFFFFFFFFFFFFFFFFFFFFFF AND PUSH32 0xE1FFFCC4923D04B559F4D29A8BFC6CDA04EB5B0D3C460751C2402C5C5CC9109C CALLVALUE PUSH1 0x40 MLOAD PUSH2 0xB5D SWAP2 SWAP1 PUSH2 0xBDC JUMP JUMPDEST PUSH1 0x40 MLOAD DUP1 SWAP2 SUB SWAP1 LOG2 JUMP JUMPDEST PUSH0 DUP1 REVERT JUMPDEST PUSH0 DUP1 REVERT JUMPDEST PUSH0 DUP2 SWAP1 POP SWAP2 SWAP1 POP JUMP JUMPDEST PUSH2 0xB81 DUP2 PUSH2 0xB6F JUMP JUMPDEST DUP2 EQ PUSH2 0xB8B JUMPI PUSH0 DUP1 REVERT JUMPDEST POP JUMP JUMPDEST PUSH0 DUP2 CALLDATALOAD SWAP1 POP PUSH2 0xB9C DUP2 PUSH2 0xB78 JUMP JUMPDEST SWAP3 SWAP2 POP POP JUMP JUMPDEST PUSH0 PUSH1 0x20 DUP3 DUP5 SUB SLT ISZERO PUSH2 0xBB7 JUMPI PUSH2 0xBB6 PUSH2 0xB67 JUMP JUMPDEST JUMPDEST PUSH0 PUSH2 0xBC4 DUP5 DUP3 DUP6 ADD PUSH2 0xB8E JUMP JUMPDEST SWAP2 POP POP SWAP3 SWAP2 POP POP JUMP JUMPDEST PUSH2 0xBD6 DUP2 PUSH2 0xB6F JUMP JUMPDEST DUP3 MSTORE POP POP JUMP JUMPDEST PUSH0 PUSH1 0x20 DUP3 ADD SWAP1 POP PUSH2 0xBEF PUSH0 DUP4 ADD DUP5 PUSH2 0xBCD JUMP JUMPDEST SWAP3 SWAP2 POP POP JUMP JUMPDEST PUSH0 DUP1 REVERT JUMPDEST PUSH0 DUP1 REVERT JUMPDEST PUSH0 DUP1 REVERT JUMPDEST PUSH0 DUP1 DUP4 PUSH1 0x1F DUP5 ADD SLT PUSH2 0xC16 JUMPI PUSH2 0xC15 PUSH2 0xBF5 JUMP JUMPDEST JUMPDEST DUP3 CALLDATALOAD SWAP1 POP PUSH8 0xFFFFFFFFFFFFFFFF DUP2 GT ISZERO PUSH2 0xC33 JUMPI PUSH2 0xC32 PUSH2 0xBF9 JUMP JUMPDEST JUMPDEST PUSH1 0x20 DUP4 ADD SWAP2 POP DUP4 PUSH1 0x1 DUP3 MUL DUP4 ADD GT ISZERO PUSH2 0xC4F JUMPI PUSH2 0xC4E PUSH2 0xBFD JUMP JUMPDEST JUMPDEST SWAP3 POP SWAP3 SWAP1 POP JUMP JUMPDEST PUSH0 DUP1 PUSH0 DUP1 PUSH1 0x40 DUP6 DUP8 SUB SLT ISZERO PUSH2 0xC6E JUMPI PUSH2 0xC6D PUSH2 0xB67 JUMP JUMPDEST JUMPDEST PUSH0 DUP6 ADD CALLDATALOAD PUSH8 0xFFFFFFFFFFFFFFFF DUP2 GT ISZERO PUSH2 0xC8B JUMPI PUSH2 0xC8A PUSH2 0xB6B JUMP JUMPDEST JUMPDEST PUSH2 0xC97 DUP8 DUP3 DUP9 ADD PUSH2 0xC01 JUMP JUMPDEST SWAP5 POP SWAP5 POP POP PUSH1 0x20 DUP6 ADD CALLDATALOAD PUSH8 0xFFFFFFFFFFFFFFFF DUP2 GT ISZERO PUSH2 0xCBA JUMPI PUSH2 0xCB9 PUSH2 0xB6B JUMP JUMPDEST JUMPDEST PUSH2 0xCC6 DUP8 DUP3 DUP9 ADD PUSH2 0xC01 JUMP JUMPDEST SWAP3 POP SWAP3 POP POP SWAP3 SWAP6 SWAP2 SWAP5 POP SWAP3 POP JUMP JUMPDEST PUSH0 PUSH20 0xFFFFFFFFFFFFFFFFFFFFFFFFFFFFFFFFFFFFFFFF DUP3 AND SWAP1 POP SWAP2 SWAP1 POP JUMP JUMPDEST PUSH0 PUSH2 0xCFD DUP3 PUSH2 0xCD4 JUMP JUMPDEST SWAP1 POP SWAP2 SWAP1 POP JUMP JUMPDEST PUSH2 0xD0D DUP2 PUSH2 0xCF3 JUMP JUMPDEST DUP3 MSTORE POP POP JUMP JUMPDEST PUSH0 PUSH1 0x20 DUP3 ADD SWAP1 POP PUSH2 0xD26 PUSH0 DUP4 ADD DUP5 PUSH2 0xD04 JUMP JUMPDEST SWAP3 SWAP2 POP POP JUMP JUMPDEST PUSH0 DUP3 DUP3 MSTORE PUSH1 0x20 DUP3 ADD SWAP1 POP SWAP3 SWAP2 POP POP JUMP JUMPDEST PUSH32 0x536F6C6F20656C2070726F706965746172696F20707565646520656A65637574 PUSH0 DUP3 ADD MSTORE PUSH32 0x617220657374612066756E63696F6E2E00000000000000000000000000000000 PUSH1 0x20 DUP3 ADD MSTORE POP JUMP JUMPDEST PUSH0 PUSH2 0xD96 PUSH1 0x30 DUP4 PUSH2 0xD2C JUMP JUMPDEST SWAP2 POP PUSH2 0xDA1 DUP3 PUSH2 0xD3C JUMP JUMPDEST PUSH1 0x40 DUP3 ADD SWAP1 POP SWAP2 SWAP1 POP JUMP JUMPDEST PUSH0 PUSH1 0x20 DUP3 ADD SWAP1 POP DUP2 DUP2 SUB PUSH0 DUP4 ADD MSTORE PUSH2 0xDC3 DUP2 PUSH2 0xD8A JUMP JUMPDEST SWAP1 POP SWAP2 SWAP1 POP JUMP JUMPDEST PUSH32 0x466F6E646F7320696E737566696369656E74657320656E206C61207465736F72 PUSH0 DUP3 ADD MSTORE PUSH32 0x657269612E000000000000000000000000000000000000000000000000000000 PUSH1 0x20 DUP3 ADD MSTORE POP JUMP JUMPDEST PUSH0 PUSH2 0xE24 PUSH1 0x25 DUP4 PUSH2 0xD2C JUMP JUMPDEST SWAP2 POP PUSH2 0xE2F DUP3 PUSH2 0xDCA JUMP JUMPDEST PUSH1 0x40 DUP3 ADD SWAP1 POP SWAP2 SWAP1 POP JUMP JUMPDEST PUSH0 PUSH1 0x20 DUP3 ADD SWAP1 POP DUP2 DUP2 SUB PUSH0 DUP4 ADD MSTORE PUSH2 0xE51 DUP2 PUSH2 0xE18 JUMP JUMPDEST SWAP1 POP SWAP2 SWAP1 POP JUMP JUMPDEST PUSH32 0x4E487B7100000000000000000000000000000000000000000000000000000000 PUSH0 MSTORE PUSH1 0x11 PUSH1 0x4 MSTORE PUSH1 0x24 PUSH0 REVERT JUMPDEST PUSH0 PUSH2 0xE8F DUP3 PUSH2 0xB6F JUMP JUMPDEST SWAP2 POP PUSH2 0xE9A DUP4 PUSH2 0xB6F JUMP JUMPDEST SWAP3 POP DUP3 DUP3 SUB SWAP1 POP DUP2 DUP2 GT ISZERO PUSH2 0xEB2 JUMPI PUSH2 0xEB1 PUSH2 0xE58 JUMP JUMPDEST JUMPDEST SWAP3 SWAP2 POP POP JUMP JUMPDEST PUSH32 0x44656265206573746172207265676973747261646F2E00000000000000000000 PUSH0 DUP3 ADD MSTORE POP JUMP JUMPDEST PUSH0 PUSH2 0xEEC PUSH1 0x16 DUP4 PUSH2 0xD2C JUMP JUMPDEST SWAP2 POP PUSH2 0xEF7 DUP3 PUSH2 0xEB8 JUMP JUMPDEST PUSH1 0x20 DUP3 ADD SWAP1 POP SWAP2 SWAP1 POP JUMP JUMPDEST PUSH0 PUSH1 0x20 DUP3 ADD SWAP1 POP DUP2 DUP2 SUB PUSH0 DUP4 ADD MSTORE PUSH2 0xF19 DUP2 PUSH2 0xEE0 JUMP JUMPDEST SWAP1 POP SWAP2 SWAP1 POP JUMP JUMPDEST PUSH32 0x456C206D6F6E746F206465626520736572206D61796F722061206365726F2E00 PUSH0 DUP3 ADD MSTORE POP JUMP JUMPDEST PUSH0 PUSH2 0xF54 PUSH1 0x1F DUP4 PUSH2 0xD2C JUMP JUMPDEST SWAP2 POP PUSH2 0xF5F DUP3 PUSH2 0xF20 JUMP JUMPDEST PUSH1 0x20 DUP3 ADD SWAP1 POP SWAP2 SWAP1 POP JUMP JUMPDEST PUSH0 PUSH1 0x20 DUP3 ADD SWAP1 POP DUP2 DUP2 SUB PUSH0 DUP4 ADD MSTORE PUSH2 0xF81 DUP2 PUSH2 0xF48 JUMP JUMPDEST SWAP1 POP SWAP2 SWAP1 POP JUMP JUMPDEST PUSH32 0x53616C646F20696E737566696369656E74652E00000000000000000000000000 PUSH0 DUP3 ADD MSTORE POP JUMP JUMPDEST PUSH0 PUSH2 0xFBC PUSH1 0x13 DUP4 PUSH2 0xD2C JUMP JUMPDEST SWAP2 POP PUSH2 0xFC7 DUP3 PUSH2 0xF88 JUMP JUMPDEST PUSH1 0x20 DUP3 ADD SWAP1 POP SWAP2 SWAP1 POP JUMP JUMPDEST PUSH0 PUSH1 0x20 DUP3 ADD SWAP1 POP DUP2 DUP2 SUB PUSH0 DUP4 ADD MSTORE PUSH2 0xFE9 DUP2 PUSH2 0xFB0 JUMP JUMPDEST SWAP1 POP SWAP2 SWAP1 POP JUMP JUMPDEST PUSH0 PUSH2 0xFFA DUP3 PUSH2 0xB6F JUMP JUMPDEST SWAP2 POP PUSH2 0x1005 DUP4 PUSH2 0xB6F JUMP JUMPDEST SWAP3 POP DUP3 DUP3 MUL PUSH2 0x1013 DUP2 PUSH2 0xB6F JUMP JUMPDEST SWAP2 POP DUP3 DUP3 DIV DUP5 EQ DUP4 ISZERO OR PUSH2 0x102A JUMPI PUSH2 0x1029 PUSH2 0xE58 JUMP JUMPDEST JUMPDEST POP SWAP3 SWAP2 POP POP JUMP JUMPDEST PUSH32 0x4E487B7100000000000000000000000000000000000000000000000000000000 PUSH0 MSTORE PUSH1 0x12 PUSH1 0x4 MSTORE PUSH1 0x24 PUSH0 REVERT JUMPDEST PUSH0 PUSH2 0x1068 DUP3 PUSH2 0xB6F JUMP JUMPDEST SWAP2 POP PUSH2 0x1073 DUP4 PUSH2 0xB6F JUMP JUMPDEST SWAP3 POP DUP3 PUSH2 0x1083 JUMPI PUSH2 0x1082 PUSH2 0x1031 JUMP JUMPDEST JUMPDEST DUP3 DUP3 DIV SWAP1 POP SWAP3 SWAP2 POP POP JUMP JUMPDEST PUSH0 PUSH2 0x1098 DUP3 PUSH2 0xB6F JUMP JUMPDEST SWAP2 POP PUSH2 0x10A3 DUP4 PUSH2 0xB6F JUMP JUMPDEST SWAP3 POP DUP3 DUP3 ADD SWAP1 POP DUP1 DUP3 GT ISZERO PUSH2 0x10BB JUMPI PUSH2 0x10BA PUSH2 0xE58 JUMP JUMPDEST JUMPDEST SWAP3 SWAP2 POP POP JUMP JUMPDEST PUSH0 PUSH1 0x40 DUP3 ADD SWAP1 POP PUSH2 0x10D4 PUSH0 DUP4 ADD DUP6 PUSH2 0xBCD JUMP JUMPDEST PUSH2 0x10E1 PUSH1 0x20 DUP4 ADD DUP5 PUSH2 0xBCD JUMP JUMPDEST SWAP4 SWAP3 POP POP POP JUMP JUMPDEST PUSH32 0x456C206E6F6D627265206E6F20707565646520657374617220766163696F2E00 PUSH0 DUP3 ADD MSTORE POP JUMP JUMPDEST PUSH0 PUSH2 0x111C PUSH1 0x1F DUP4 PUSH2 0xD2C JUMP JUMPDEST SWAP2 POP PUSH2 0x1127 DUP3 PUSH2 0x10E8 JUMP JUMPDEST PUSH1 0x20 DUP3 ADD SWAP1 POP SWAP2 SWAP1 POP JUMP JUMPDEST PUSH0 PUSH1 0x20 DUP3 ADD SWAP1 POP DUP2 DUP2 SUB PUSH0 DUP4 ADD MSTORE PUSH2 0x1149 DUP2 PUSH2 0x1110 JUMP JUMPDEST SWAP1 POP SWAP2 SWAP1 POP JUMP JUMPDEST PUSH32 0x456C206170656C6C69646F206E6F20707565646520657374617220766163696F PUSH0 DUP3 ADD MSTORE PUSH32 0x2E00000000000000000000000000000000000000000000000000000000000000 PUSH1 0x20 DUP3 ADD MSTORE POP JUMP JUMPDEST PUSH0 PUSH2 0x11AA PUSH1 0x21 DUP4 PUSH2 0xD2C JUMP JUMPDEST SWAP2 POP PUSH2 0x11B5 DUP3 PUSH2 0x1150 JUMP JUMPDEST PUSH1 0x40 DUP3 ADD SWAP1 POP SWAP2 SWAP1 POP JUMP JUMPDEST PUSH0 PUSH1 0x20 DUP3 ADD SWAP1 POP DUP2 DUP2 SUB PUSH0 DUP4 ADD MSTORE PUSH2 0x11D7 DUP2 PUSH2 0x119E JUMP JUMPDEST SWAP1 POP SWAP2 SWAP1 POP JUMP JUMPDEST PUSH32 0x5573756172696F207961207265676973747261646F2E00000000000000000000 PUSH0 DUP3 ADD MSTORE POP JUMP JUMPDEST PUSH0 PUSH2 0x1212 PUSH1 0x16 DUP4 PUSH2 0xD2C JUMP JUMPDEST SWAP2 POP PUSH2 0x121D DUP3 PUSH2 0x11DE JUMP JUMPDEST PUSH1 0x20 DUP3 ADD SWAP1 POP SWAP2 SWAP1 POP JUMP JUMPDEST PUSH0 PUSH1 0x20 DUP3 ADD SWAP1 POP DUP2 DUP2 SUB PUSH0 DUP4 ADD MSTORE PUSH2 0x123F DUP2 PUSH2 0x1206 JUMP JUMPDEST SWAP1 POP SWAP2 SWAP1 POP JUMP JUMPDEST PUSH0 DUP2 MLOAD SWAP1 POP SWAP2 SWAP1 POP JUMP JUMPDEST PUSH32 0x4E487B7100000000000000000000000000000000000000000000000000000000 PUSH0 MSTORE PUSH1 0x41 PUSH1 0x4 MSTORE PUSH1 0x24 PUSH0 REVERT JUMPDEST PUSH32 0x4E487B7100000000000000000000000000000000000000000000000000000000 PUSH0 MSTORE PUSH1 0x22 PUSH1 0x4 MSTORE PUSH1 0x24 PUSH0 REVERT JUMPDEST PUSH0 PUSH1 0x2 DUP3 DIV SWAP1 POP PUSH1 0x1 DUP3 AND DUP1 PUSH2 0x12C1 JUMPI PUSH1 0x7F DUP3 AND SWAP2 POP JUMPDEST PUSH1 0x20 DUP3 LT DUP2 SUB PUSH2 0x12D4 JUMPI PUSH2 0x12D3 PUSH2 0x127D JUMP JUMPDEST JUMPDEST POP SWAP2 SWAP1 POP JUMP JUMPDEST PUSH0 DUP2 SWAP1 POP DUP2 PUSH0 MSTORE PUSH1 0x20 PUSH0 KECCAK256 SWAP1 POP SWAP2 SWAP1 POP JUMP JUMPDEST PUSH0 PUSH1 0x20 PUSH1 0x1F DUP4 ADD DIV SWAP1 POP SWAP2 SWAP1 POP JUMP JUMPDEST PUSH0 DUP3 DUP3 SHL SWAP1 POP SWAP3 SWAP2 POP POP JUMP JUMPDEST PUSH0 PUSH1 0x8 DUP4 MUL PUSH2 0x1336 PUSH32 0xFFFFFFFFFFFFFFFFFFFFFFFFFFFFFFFFFFFFFFFFFFFFFFFFFFFFFFFFFFFFFFFF DUP3 PUSH2 0x12FB JUMP JUMPDEST PUSH2 0x1340 DUP7 DUP4 PUSH2 0x12FB JUMP JUMPDEST SWAP6 POP DUP1 NOT DUP5 AND SWAP4 POP DUP1 DUP7 AND DUP5 OR SWAP3 POP POP POP SWAP4 SWAP3 POP POP POP JUMP JUMPDEST PUSH0 DUP2 SWAP1 POP SWAP2 SWAP1 POP JUMP JUMPDEST PUSH0 PUSH2 0x137B PUSH2 0x1376 PUSH2 0x1371 DUP5 PUSH2 0xB6F JUMP JUMPDEST PUSH2 0x1358 JUMP JUMPDEST PUSH2 0xB6F JUMP JUMPDEST SWAP1 POP SWAP2 SWAP1 POP JUMP JUMPDEST PUSH0 DUP2 SWAP1 POP SWAP2 SWAP1 POP JUMP JUMPDEST PUSH2 0x1394 DUP4 PUSH2 0x1361 JUMP JUMPDEST PUSH2 0x13A8 PUSH2 0x13A0 DUP3 PUSH2 0x1382 JUMP JUMPDEST DUP5 DUP5 SLOAD PUSH2 0x1307 JUMP JUMPDEST DUP3 SSTORE POP POP POP POP JUMP JUMPDEST PUSH0 SWAP1 JUMP JUMPDEST PUSH2 0x13BC PUSH2 0x13B0 JUMP JUMPDEST PUSH2 0x13C7 DUP2 DUP5 DUP5 PUSH2 0x138B JUMP JUMPDEST POP POP POP JUMP JUMPDEST JUMPDEST DUP2 DUP2 LT ISZERO PUSH2 0x13EA JUMPI PUSH2 0x13DF PUSH0 DUP3 PUSH2 0x13B4 JUMP JUMPDEST PUSH1 0x1 DUP2 ADD SWAP1 POP PUSH2 0x13CD JUMP JUMPDEST POP POP JUMP JUMPDEST PUSH1 0x1F DUP3 GT ISZERO PUSH2 0x142F JUMPI PUSH2 0x1400 DUP2 PUSH2 0x12DA JUMP JUMPDEST PUSH2 0x1409 DUP5 PUSH2 0x12EC JUMP JUMPDEST DUP2 ADD PUSH1 0x20 DUP6 LT ISZERO PUSH2 0x1418 JUMPI DUP2 SWAP1 POP JUMPDEST PUSH2 0x142C PUSH2 0x1424 DUP6 PUSH2 0x12EC JUMP JUMPDEST DUP4 ADD DUP3 PUSH2 0x13CC JUMP JUMPDEST POP POP JUMPDEST POP POP POP JUMP JUMPDEST PUSH0 DUP3 DUP3 SHR SWAP1 POP SWAP3 SWAP2 POP POP JUMP JUMPDEST PUSH0 PUSH2 0x144F PUSH0 NOT DUP5 PUSH1 0x8 MUL PUSH2 0x1434 JUMP JUMPDEST NOT DUP1 DUP4 AND SWAP2 POP POP SWAP3 SWAP2 POP POP JUMP JUMPDEST PUSH0 PUSH2 0x1467 DUP4 DUP4 PUSH2 0x1440 JUMP JUMPDEST SWAP2 POP DUP3 PUSH1 0x2 MUL DUP3 OR SWAP1 POP SWAP3 SWAP2 POP POP JUMP JUMPDEST PUSH2 0x1480 DUP3 PUSH2 0x1246 JUMP JUMPDEST PUSH8 0xFFFFFFFFFFFFFFFF DUP2 GT ISZERO PUSH2 0x1499 JUMPI PUSH2 0x1498 PUSH2 0x1250 JUMP JUMPDEST JUMPDEST PUSH2 0x14A3 DUP3 SLOAD PUSH2 0x12AA JUMP JUMPDEST PUSH2 0x14AE DUP3 DUP3 DUP6 PUSH2 0x13EE JUMP JUMPDEST PUSH0 PUSH1 0x20 SWAP1 POP PUSH1 0x1F DUP4 GT PUSH1 0x1 DUP2 EQ PUSH2 0x14DF JUMPI PUSH0 DUP5 ISZERO PUSH2 0x14CD JUMPI DUP3 DUP8 ADD MLOAD SWAP1 POP JUMPDEST PUSH2 0x14D7 DUP6 DUP3 PUSH2 0x145C JUMP JUMPDEST DUP7 SSTORE POP PUSH2 0x153E JUMP JUMPDEST PUSH1 0x1F NOT DUP5 AND PUSH2 0x14ED DUP7 PUSH2 0x12DA JUMP JUMPDEST PUSH0 JUMPDEST DUP3 DUP2 LT ISZERO PUSH2 0x1514 JUMPI DUP5 DUP10 ADD MLOAD DUP3 SSTORE PUSH1 0x1 DUP3 ADD SWAP2 POP PUSH1 0x20 DUP6 ADD SWAP5 POP PUSH1 0x20 DUP2 ADD SWAP1 POP PUSH2 0x14EF JUMP JUMPDEST DUP7 DUP4 LT ISZERO PUSH2 0x1531 JUMPI DUP5 DUP10 ADD MLOAD PUSH2 0x152D PUSH1 0x1F DUP10 AND DUP3 PUSH2 0x1440 JUMP JUMPDEST DUP4 SSTORE POP JUMPDEST PUSH1 0x1 PUSH1 0x2 DUP9 MUL ADD DUP9 SSTORE POP POP POP JUMPDEST POP POP POP POP POP POP JUMP JUMPDEST DUP3 DUP2 DUP4 CALLDATACOPY PUSH0 DUP4 DUP4 ADD MSTORE POP POP POP JUMP JUMPDEST PUSH0 PUSH1 0x1F NOT PUSH1 0x1F DUP4 ADD AND SWAP1 POP SWAP2 SWAP1 POP JUMP JUMPDEST PUSH0 PUSH2 0x156F DUP4 DUP6 PUSH2 0xD2C JUMP JUMPDEST SWAP4 POP PUSH2 0x157C DUP4 DUP6 DUP5 PUSH2 0x1546 JUMP JUMPDEST PUSH2 0x1585 DUP4 PUSH2 0x1554 JUMP JUMPDEST DUP5 ADD SWAP1 POP SWAP4 SWAP3 POP POP POP JUMP JUMPDEST PUSH0 PUSH1 0x40 DUP3 ADD SWAP1 POP DUP2 DUP2 SUB PUSH0 DUP4 ADD MSTORE PUSH2 0x15A9 DUP2 DUP7 DUP9 PUSH2 0x1564 JUMP JUMPDEST SWAP1 POP DUP2 DUP2 SUB PUSH1 0x20 DUP4 ADD MSTORE PUSH2 0x15BE DUP2 DUP5 DUP7 PUSH2 0x1564 JUMP JUMPDEST SWAP1 POP SWAP6 SWAP5 POP POP POP POP POP JUMP JUMPDEST PUSH32 0x456C206465706F7369746F206465626520736572206D61796F72206120636572 PUSH0 DUP3 ADD MSTORE PUSH32 0x6F2E000000000000000000000000000000000000000000000000000000000000 PUSH1 0x20 DUP3 ADD MSTORE POP JUMP JUMPDEST PUSH0 PUSH2 0x1623 PUSH1 0x22 DUP4 PUSH2 0xD2C JUMP JUMPDEST SWAP2 POP PUSH2 0x162E DUP3 PUSH2 0x15C9 JUMP JUMPDEST PUSH1 0x40 DUP3 ADD SWAP1 POP SWAP2 SWAP1 POP JUMP JUMPDEST PUSH0 PUSH1 0x20 DUP3 ADD SWAP1 POP DUP2 DUP2 SUB PUSH0 DUP4 ADD MSTORE PUSH2 0x1650 DUP2 PUSH2 0x1617 JUMP JUMPDEST SWAP1 POP SWAP2 SWAP1 POP JUMP INVALID LOG2 PUSH5 0x6970667358 0x22 SLT KECCAK256 0xC4 PUSH22 0x30F1D3F105549D381B58D6241DF4F4496AD382BDA9E PUSH8 0xC0D18C3A82097764 PUSH20 0x6F6C634300081A00330000000000000000000000 "
				},
				"gasEstimates": {
					"creation": {
						"codeDepositCost": "1154600",
						"executionCost": "infinite",
						"totalCost": "infinite"
					},
					"external": {
						"deposit()": "infinite",
						"feeBasisPoints()": "2491",
						"getBalance()": "4793",
						"owner()": "2552",
						"register(string,string)": "infinite",
						"treasury()": "2530",
						"treasuryBalance()": "2492",
						"withdraw(uint256)": "infinite",
						"withdrawTreasury(uint256)": "infinite"
					}
				},
				"methodIdentifiers": {
					"deposit()": "d0e30db0",
					"feeBasisPoints()": "b8606eef",
					"getBalance()": "12065fe0",
					"owner()": "8da5cb5b",
					"register(string,string)": "3ffbd47f",
					"treasury()": "61d027b3",
					"treasuryBalance()": "313dab20",
					"withdraw(uint256)": "2e1a7d4d",
					"withdrawTreasury(uint256)": "11f1fc99"
				}
			},
			"storageLayout": {
				"storage": [
					{
						"astId": 16,
						"contract": "ETH - Henry/contracts/SimpleBank.sol:SimpleBank",
						"label": "users",
						"offset": 0,
						"slot": "0",
						"type": "t_mapping(t_address,t_struct(User)11_storage)"
					},
					{
						"astId": 18,
						"contract": "ETH - Henry/contracts/SimpleBank.sol:SimpleBank",
						"label": "owner",
						"offset": 0,
						"slot": "1",
						"type": "t_address"
					},
					{
						"astId": 20,
						"contract": "ETH - Henry/contracts/SimpleBank.sol:SimpleBank",
						"label": "treasury",
						"offset": 0,
						"slot": "2",
						"type": "t_address"
					},
					{
						"astId": 22,
						"contract": "ETH - Henry/contracts/SimpleBank.sol:SimpleBank",
						"label": "feeBasisPoints",
						"offset": 0,
						"slot": "3",
						"type": "t_uint256"
					},
					{
						"astId": 24,
						"contract": "ETH - Henry/contracts/SimpleBank.sol:SimpleBank",
						"label": "treasuryBalance",
						"offset": 0,
						"slot": "4",
						"type": "t_uint256"
					}
				],
				"types": {
					"t_address": {
						"encoding": "inplace",
						"label": "address",
						"numberOfBytes": "20"
					},
					"t_bool": {
						"encoding": "inplace",
						"label": "bool",
						"numberOfBytes": "1"
					},
					"t_mapping(t_address,t_struct(User)11_storage)": {
						"encoding": "mapping",
						"key": "t_address",
						"label": "mapping(address => struct SimpleBank.User)",
						"numberOfBytes": "32",
						"value": "t_struct(User)11_storage"
					},
					"t_string_storage": {
						"encoding": "bytes",
						"label": "string",
						"numberOfBytes": "32"
					},
					"t_struct(User)11_storage": {
						"encoding": "inplace",
						"label": "struct SimpleBank.User",
						"members": [
							{
								"astId": 4,
								"contract": "ETH - Henry/contracts/SimpleBank.sol:SimpleBank",
								"label": "firstName",
								"offset": 0,
								"slot": "0",
								"type": "t_string_storage"
							},
							{
								"astId": 6,
								"contract": "ETH - Henry/contracts/SimpleBank.sol:SimpleBank",
								"label": "lastName",
								"offset": 0,
								"slot": "1",
								"type": "t_string_storage"
							},
							{
								"astId": 8,
								"contract": "ETH - Henry/contracts/SimpleBank.sol:SimpleBank",
								"label": "balance",
								"offset": 0,
								"slot": "2",
								"type": "t_uint256"
							},
							{
								"astId": 10,
								"contract": "ETH - Henry/contracts/SimpleBank.sol:SimpleBank",
								"label": "isRegistered",
								"offset": 0,
								"slot": "3",
								"type": "t_bool"
							}
						],
						"numberOfBytes": "128"
					},
					"t_uint256": {
						"encoding": "inplace",
						"label": "uint256",
						"numberOfBytes": "32"
					}
				}
			},
			"userdoc": {
				"kind": "user",
				"methods": {},
				"version": 1
			}
		}
	}
}