{
	"ETH - Henry/contracts/SimpleBank.sol": {
		"SimpleBank": {
			"abi": [
				{
					"inputs": [
						{
							"internalType": "uint256",
							"name": "_transactionFee",
							"type": "uint256"
						},
						{
							"internalType": "address",
							"name": "_fundAccount",
							"type": "address"
						}
					],
					"stateMutability": "nonpayable",
					"type": "constructor"
				},
				{
					"anonymous": false,
					"inputs": [
						{
							"indexed": true,
							"internalType": "address",
							"name": "clientAddr",
							"type": "address"
						},
						{
							"indexed": false,
							"internalType": "string",
							"name": "name",
							"type": "string"
						},
						{
							"indexed": false,
							"internalType": "string",
							"name": "surname",
							"type": "string"
						}
					],
					"name": "ClientAdded",
					"type": "event"
				},
				{
					"anonymous": false,
					"inputs": [
						{
							"indexed": true,
							"internalType": "address",
							"name": "adminAddr",
							"type": "address"
						},
						{
							"indexed": false,
							"internalType": "uint256",
							"name": "amount",
							"type": "uint256"
						}
					],
					"name": "FundWithdrawn",
					"type": "event"
				},
				{
					"anonymous": false,
					"inputs": [
						{
							"indexed": true,
							"internalType": "address",
							"name": "clientAddr",
							"type": "address"
						},
						{
							"indexed": false,
							"internalType": "uint256",
							"name": "amount",
							"type": "uint256"
						}
					],
					"name": "FundsDeposited",
					"type": "event"
				},
				{
					"anonymous": false,
					"inputs": [
						{
							"indexed": true,
							"internalType": "address",
							"name": "clientAddr",
							"type": "address"
						},
						{
							"indexed": false,
							"internalType": "uint256",
							"name": "amount",
							"type": "uint256"
						},
						{
							"indexed": false,
							"internalType": "uint256",
							"name": "feeDeducted",
							"type": "uint256"
						}
					],
					"name": "FundsWithdrawn",
					"type": "event"
				},
				{
					"inputs": [],
					"name": "addFunds",
					"outputs": [],
					"stateMutability": "payable",
					"type": "function"
				},
				{
					"inputs": [],
					"name": "admin",
					"outputs": [
						{
							"internalType": "address",
							"name": "",
							"type": "address"
						}
					],
					"stateMutability": "view",
					"type": "function"
				},
				{
					"inputs": [],
					"name": "checkBalance",
					"outputs": [
						{
							"internalType": "uint256",
							"name": "",
							"type": "uint256"
						}
					],
					"stateMutability": "view",
					"type": "function"
				},
				{
					"inputs": [],
					"name": "fundAccount",
					"outputs": [
						{
							"internalType": "address",
							"name": "",
							"type": "address"
						}
					],
					"stateMutability": "view",
					"type": "function"
				},
				{
					"inputs": [],
					"name": "fundBalance",
					"outputs": [
						{
							"internalType": "uint256",
							"name": "",
							"type": "uint256"
						}
					],
					"stateMutability": "view",
					"type": "function"
				},
				{
					"inputs": [
						{
							"internalType": "uint256",
							"name": "_amount",
							"type": "uint256"
						}
					],
					"name": "retrieveFunds",
					"outputs": [],
					"stateMutability": "nonpayable",
					"type": "function"
				},
				{
					"inputs": [
						{
							"internalType": "string",
							"name": "_name",
							"type": "string"
						},
						{
							"internalType": "string",
							"name": "_surname",
							"type": "string"
						}
					],
					"name": "signUp",
					"outputs": [],
					"stateMutability": "nonpayable",
					"type": "function"
				},
				{
					"inputs": [
						{
							"internalType": "uint256",
							"name": "_amount",
							"type": "uint256"
						}
					],
					"name": "takeOutFunds",
					"outputs": [],
					"stateMutability": "nonpayable",
					"type": "function"
				},
				{
					"inputs": [],
					"name": "transactionFee",
					"outputs": [
						{
							"internalType": "uint256",
							"name": "",
							"type": "uint256"
						}
					],
					"stateMutability": "view",
					"type": "function"
				}
			],
			"devdoc": {
				"details": "Smart contract para gestionar un banco sencillo donde los usuarios pueden registrarse, depositar y retirar ETH.",
				"kind": "dev",
				"methods": {
					"addFunds()": {
						"details": "Función para hacer un depósito de ETH en la cuenta del usuario"
					},
					"checkBalance()": {
						"details": "Función para verificar el saldo del usuario",
						"returns": {
							"_0": "El saldo del usuario en wei"
						}
					},
					"constructor": {
						"details": "Constructor del contrato"
					},
					"retrieveFunds(uint256)": {
						"details": "Función para que el propietario retire fondos de la cuenta de tesorería",
						"params": {
							"_amount": "La cantidad a retirar de la tesorería (en wei)"
						}
					},
					"signUp(string,string)": {
						"details": "Función para registrar un nuevo usuario"
					},
					"takeOutFunds(uint256)": {
						"details": "Función para retirar ETH de la cuenta del usuario",
						"params": {
							"_amount": "La cantidad a retirar (en wei)"
						}
					}
				},
				"title": "SimpleBank",
				"version": 1
			},
			"evm": {
				"assembly": "    /* \"ETH - Henry/contracts/SimpleBank.sol\":213:6154  contract SimpleBank {... */\n  mstore(0x40, 0x80)\n    /* \"ETH - Henry/contracts/SimpleBank.sol\":2014:2723  constructor(uint256 _transactionFee, address _fundAccount) {... */\n  callvalue\n  dup1\n  iszero\n  tag_1\n  jumpi\n  0x00\n  dup1\n  revert\ntag_1:\n  pop\n  mload(0x40)\n  sub(codesize, bytecodeSize)\n  dup1\n  bytecodeSize\n  dup4\n  codecopy\n  dup2\n  dup2\n  add\n  0x40\n  mstore\n  dup2\n  add\n  swap1\n  tag_2\n  swap2\n  swap1\n  tag_3\n  jump\t// in\ntag_2:\n    /* \"ETH - Henry/contracts/SimpleBank.sol\":2116:2117  0 */\n  0x00\n    /* \"ETH - Henry/contracts/SimpleBank.sol\":2092:2118  _fundAccount != address(0) */\n  0xffffffffffffffffffffffffffffffffffffffff\n  and\n    /* \"ETH - Henry/contracts/SimpleBank.sol\":2092:2104  _fundAccount */\n  dup2\n    /* \"ETH - Henry/contracts/SimpleBank.sol\":2092:2118  _fundAccount != address(0) */\n  0xffffffffffffffffffffffffffffffffffffffff\n  and\n  sub\n    /* \"ETH - Henry/contracts/SimpleBank.sol\":2084:2142  require(_fundAccount != address(0), \"Direccion no valida\") */\n  tag_6\n  jumpi\n  mload(0x40)\n  0x08c379a000000000000000000000000000000000000000000000000000000000\n  dup2\n  mstore\n  0x04\n  add\n  tag_7\n  swap1\n  tag_8\n  jump\t// in\ntag_7:\n  mload(0x40)\n  dup1\n  swap2\n  sub\n  swap1\n  revert\ntag_6:\n    /* \"ETH - Henry/contracts/SimpleBank.sol\":2235:2240  10000 */\n  0x2710\n    /* \"ETH - Henry/contracts/SimpleBank.sol\":2216:2231  _transactionFee */\n  dup3\n    /* \"ETH - Henry/contracts/SimpleBank.sol\":2216:2240  _transactionFee <= 10000 */\n  gt\n  iszero\n    /* \"ETH - Henry/contracts/SimpleBank.sol\":2208:2260  require(_transactionFee <= 10000, \"Cuota no valida\") */\n  tag_9\n  jumpi\n  mload(0x40)\n  0x08c379a000000000000000000000000000000000000000000000000000000000\n  dup2\n  mstore\n  0x04\n  add\n  tag_10\n  swap1\n  tag_11\n  jump\t// in\ntag_10:\n  mload(0x40)\n  dup1\n  swap2\n  sub\n  swap1\n  revert\ntag_9:\n    /* \"ETH - Henry/contracts/SimpleBank.sol\":2375:2385  msg.sender */\n  caller\n    /* \"ETH - Henry/contracts/SimpleBank.sol\":2367:2372  admin */\n  0x01\n  0x00\n    /* \"ETH - Henry/contracts/SimpleBank.sol\":2367:2385  admin = msg.sender */\n  0x0100\n  exp\n  dup2\n  sload\n  dup2\n  0xffffffffffffffffffffffffffffffffffffffff\n  mul\n  not\n  and\n  swap1\n  dup4\n  0xffffffffffffffffffffffffffffffffffffffff\n  and\n  mul\n  or\n  swap1\n  sstore\n  pop\n    /* \"ETH - Henry/contracts/SimpleBank.sol\":2485:2500  _transactionFee */\n  dup2\n    /* \"ETH - Henry/contracts/SimpleBank.sol\":2468:2482  transactionFee */\n  0x03\n    /* \"ETH - Henry/contracts/SimpleBank.sol\":2468:2500  transactionFee = _transactionFee */\n  dup2\n  swap1\n  sstore\n  pop\n    /* \"ETH - Henry/contracts/SimpleBank.sol\":2570:2582  _fundAccount */\n  dup1\n    /* \"ETH - Henry/contracts/SimpleBank.sol\":2556:2567  fundAccount */\n  0x02\n  0x00\n    /* \"ETH - Henry/contracts/SimpleBank.sol\":2556:2582  fundAccount = _fundAccount */\n  0x0100\n  exp\n  dup2\n  sload\n  dup2\n  0xffffffffffffffffffffffffffffffffffffffff\n  mul\n  not\n  and\n  swap1\n  dup4\n  0xffffffffffffffffffffffffffffffffffffffff\n  and\n  mul\n  or\n  swap1\n  sstore\n  pop\n    /* \"ETH - Henry/contracts/SimpleBank.sol\":2649:2650  0 */\n  0x00\n    /* \"ETH - Henry/contracts/SimpleBank.sol\":2635:2646  fundBalance */\n  0x04\n    /* \"ETH - Henry/contracts/SimpleBank.sol\":2635:2650  fundBalance = 0 */\n  dup2\n  swap1\n  sstore\n  pop\n    /* \"ETH - Henry/contracts/SimpleBank.sol\":2014:2723  constructor(uint256 _transactionFee, address _fundAccount) {... */\n  pop\n  pop\n    /* \"ETH - Henry/contracts/SimpleBank.sol\":213:6154  contract SimpleBank {... */\n  jump(tag_12)\n    /* \"#utility.yul\":88:205   */\ntag_14:\n    /* \"#utility.yul\":197:198   */\n  0x00\n    /* \"#utility.yul\":194:195   */\n  dup1\n    /* \"#utility.yul\":187:199   */\n  revert\n    /* \"#utility.yul\":334:411   */\ntag_16:\n    /* \"#utility.yul\":371:378   */\n  0x00\n    /* \"#utility.yul\":400:405   */\n  dup2\n    /* \"#utility.yul\":389:405   */\n  swap1\n  pop\n    /* \"#utility.yul\":334:411   */\n  swap2\n  swap1\n  pop\n  jump\t// out\n    /* \"#utility.yul\":417:539   */\ntag_17:\n    /* \"#utility.yul\":490:514   */\n  tag_34\n    /* \"#utility.yul\":508:513   */\n  dup2\n    /* \"#utility.yul\":490:514   */\n  tag_16\n  jump\t// in\ntag_34:\n    /* \"#utility.yul\":483:488   */\n  dup2\n    /* \"#utility.yul\":480:515   */\n  eq\n    /* \"#utility.yul\":470:533   */\n  tag_35\n  jumpi\n    /* \"#utility.yul\":529:530   */\n  0x00\n    /* \"#utility.yul\":526:527   */\n  dup1\n    /* \"#utility.yul\":519:531   */\n  revert\n    /* \"#utility.yul\":470:533   */\ntag_35:\n    /* \"#utility.yul\":417:539   */\n  pop\n  jump\t// out\n    /* \"#utility.yul\":545:688   */\ntag_18:\n    /* \"#utility.yul\":602:607   */\n  0x00\n    /* \"#utility.yul\":633:639   */\n  dup2\n    /* \"#utility.yul\":627:640   */\n  mload\n    /* \"#utility.yul\":618:640   */\n  swap1\n  pop\n    /* \"#utility.yul\":649:682   */\n  tag_37\n    /* \"#utility.yul\":676:681   */\n  dup2\n    /* \"#utility.yul\":649:682   */\n  tag_17\n  jump\t// in\ntag_37:\n    /* \"#utility.yul\":545:688   */\n  swap3\n  swap2\n  pop\n  pop\n  jump\t// out\n    /* \"#utility.yul\":694:820   */\ntag_19:\n    /* \"#utility.yul\":731:738   */\n  0x00\n    /* \"#utility.yul\":771:813   */\n  0xffffffffffffffffffffffffffffffffffffffff\n    /* \"#utility.yul\":764:769   */\n  dup3\n    /* \"#utility.yul\":760:814   */\n  and\n    /* \"#utility.yul\":749:814   */\n  swap1\n  pop\n    /* \"#utility.yul\":694:820   */\n  swap2\n  swap1\n  pop\n  jump\t// out\n    /* \"#utility.yul\":826:922   */\ntag_20:\n    /* \"#utility.yul\":863:870   */\n  0x00\n    /* \"#utility.yul\":892:916   */\n  tag_40\n    /* \"#utility.yul\":910:915   */\n  dup3\n    /* \"#utility.yul\":892:916   */\n  tag_19\n  jump\t// in\ntag_40:\n    /* \"#utility.yul\":881:916   */\n  swap1\n  pop\n    /* \"#utility.yul\":826:922   */\n  swap2\n  swap1\n  pop\n  jump\t// out\n    /* \"#utility.yul\":928:1050   */\ntag_21:\n    /* \"#utility.yul\":1001:1025   */\n  tag_42\n    /* \"#utility.yul\":1019:1024   */\n  dup2\n    /* \"#utility.yul\":1001:1025   */\n  tag_20\n  jump\t// in\ntag_42:\n    /* \"#utility.yul\":994:999   */\n  dup2\n    /* \"#utility.yul\":991:1026   */\n  eq\n    /* \"#utility.yul\":981:1044   */\n  tag_43\n  jumpi\n    /* \"#utility.yul\":1040:1041   */\n  0x00\n    /* \"#utility.yul\":1037:1038   */\n  dup1\n    /* \"#utility.yul\":1030:1042   */\n  revert\n    /* \"#utility.yul\":981:1044   */\ntag_43:\n    /* \"#utility.yul\":928:1050   */\n  pop\n  jump\t// out\n    /* \"#utility.yul\":1056:1199   */\ntag_22:\n    /* \"#utility.yul\":1113:1118   */\n  0x00\n    /* \"#utility.yul\":1144:1150   */\n  dup2\n    /* \"#utility.yul\":1138:1151   */\n  mload\n    /* \"#utility.yul\":1129:1151   */\n  swap1\n  pop\n    /* \"#utility.yul\":1160:1193   */\n  tag_45\n    /* \"#utility.yul\":1187:1192   */\n  dup2\n    /* \"#utility.yul\":1160:1193   */\n  tag_21\n  jump\t// in\ntag_45:\n    /* \"#utility.yul\":1056:1199   */\n  swap3\n  swap2\n  pop\n  pop\n  jump\t// out\n    /* \"#utility.yul\":1205:1712   */\ntag_3:\n    /* \"#utility.yul\":1284:1290   */\n  0x00\n    /* \"#utility.yul\":1292:1298   */\n  dup1\n    /* \"#utility.yul\":1341:1343   */\n  0x40\n    /* \"#utility.yul\":1329:1338   */\n  dup4\n    /* \"#utility.yul\":1320:1327   */\n  dup6\n    /* \"#utility.yul\":1316:1339   */\n  sub\n    /* \"#utility.yul\":1312:1344   */\n  slt\n    /* \"#utility.yul\":1309:1428   */\n  iszero\n  tag_47\n  jumpi\n    /* \"#utility.yul\":1347:1426   */\n  tag_48\n  tag_14\n  jump\t// in\ntag_48:\n    /* \"#utility.yul\":1309:1428   */\ntag_47:\n    /* \"#utility.yul\":1467:1468   */\n  0x00\n    /* \"#utility.yul\":1492:1556   */\n  tag_49\n    /* \"#utility.yul\":1548:1555   */\n  dup6\n    /* \"#utility.yul\":1539:1545   */\n  dup3\n    /* \"#utility.yul\":1528:1537   */\n  dup7\n    /* \"#utility.yul\":1524:1546   */\n  add\n    /* \"#utility.yul\":1492:1556   */\n  tag_18\n  jump\t// in\ntag_49:\n    /* \"#utility.yul\":1482:1556   */\n  swap3\n  pop\n    /* \"#utility.yul\":1438:1566   */\n  pop\n    /* \"#utility.yul\":1605:1607   */\n  0x20\n    /* \"#utility.yul\":1631:1695   */\n  tag_50\n    /* \"#utility.yul\":1687:1694   */\n  dup6\n    /* \"#utility.yul\":1678:1684   */\n  dup3\n    /* \"#utility.yul\":1667:1676   */\n  dup7\n    /* \"#utility.yul\":1663:1685   */\n  add\n    /* \"#utility.yul\":1631:1695   */\n  tag_22\n  jump\t// in\ntag_50:\n    /* \"#utility.yul\":1621:1695   */\n  swap2\n  pop\n    /* \"#utility.yul\":1576:1705   */\n  pop\n    /* \"#utility.yul\":1205:1712   */\n  swap3\n  pop\n  swap3\n  swap1\n  pop\n  jump\t// out\n    /* \"#utility.yul\":1718:1887   */\ntag_23:\n    /* \"#utility.yul\":1802:1813   */\n  0x00\n    /* \"#utility.yul\":1836:1842   */\n  dup3\n    /* \"#utility.yul\":1831:1834   */\n  dup3\n    /* \"#utility.yul\":1824:1843   */\n  mstore\n    /* \"#utility.yul\":1876:1880   */\n  0x20\n    /* \"#utility.yul\":1871:1874   */\n  dup3\n    /* \"#utility.yul\":1867:1881   */\n  add\n    /* \"#utility.yul\":1852:1881   */\n  swap1\n  pop\n    /* \"#utility.yul\":1718:1887   */\n  swap3\n  swap2\n  pop\n  pop\n  jump\t// out\n    /* \"#utility.yul\":1893:2062   */\ntag_24:\n    /* \"#utility.yul\":2033:2054   */\n  0x446972656363696f6e206e6f2076616c69646100000000000000000000000000\n    /* \"#utility.yul\":2029:2030   */\n  0x00\n    /* \"#utility.yul\":2021:2027   */\n  dup3\n    /* \"#utility.yul\":2017:2031   */\n  add\n    /* \"#utility.yul\":2010:2055   */\n  mstore\n    /* \"#utility.yul\":1893:2062   */\n  pop\n  jump\t// out\n    /* \"#utility.yul\":2068:2434   */\ntag_25:\n    /* \"#utility.yul\":2210:2213   */\n  0x00\n    /* \"#utility.yul\":2231:2298   */\n  tag_54\n    /* \"#utility.yul\":2295:2297   */\n  0x13\n    /* \"#utility.yul\":2290:2293   */\n  dup4\n    /* \"#utility.yul\":2231:2298   */\n  tag_23\n  jump\t// in\ntag_54:\n    /* \"#utility.yul\":2224:2298   */\n  swap2\n  pop\n    /* \"#utility.yul\":2307:2400   */\n  tag_55\n    /* \"#utility.yul\":2396:2399   */\n  dup3\n    /* \"#utility.yul\":2307:2400   */\n  tag_24\n  jump\t// in\ntag_55:\n    /* \"#utility.yul\":2425:2427   */\n  0x20\n    /* \"#utility.yul\":2420:2423   */\n  dup3\n    /* \"#utility.yul\":2416:2428   */\n  add\n    /* \"#utility.yul\":2409:2428   */\n  swap1\n  pop\n    /* \"#utility.yul\":2068:2434   */\n  swap2\n  swap1\n  pop\n  jump\t// out\n    /* \"#utility.yul\":2440:2859   */\ntag_8:\n    /* \"#utility.yul\":2606:2610   */\n  0x00\n    /* \"#utility.yul\":2644:2646   */\n  0x20\n    /* \"#utility.yul\":2633:2642   */\n  dup3\n    /* \"#utility.yul\":2629:2647   */\n  add\n    /* \"#utility.yul\":2621:2647   */\n  swap1\n  pop\n    /* \"#utility.yul\":2693:2702   */\n  dup2\n    /* \"#utility.yul\":2687:2691   */\n  dup2\n    /* \"#utility.yul\":2683:2703   */\n  sub\n    /* \"#utility.yul\":2679:2680   */\n  0x00\n    /* \"#utility.yul\":2668:2677   */\n  dup4\n    /* \"#utility.yul\":2664:2681   */\n  add\n    /* \"#utility.yul\":2657:2704   */\n  mstore\n    /* \"#utility.yul\":2721:2852   */\n  tag_57\n    /* \"#utility.yul\":2847:2851   */\n  dup2\n    /* \"#utility.yul\":2721:2852   */\n  tag_25\n  jump\t// in\ntag_57:\n    /* \"#utility.yul\":2713:2852   */\n  swap1\n  pop\n    /* \"#utility.yul\":2440:2859   */\n  swap2\n  swap1\n  pop\n  jump\t// out\n    /* \"#utility.yul\":2865:3030   */\ntag_26:\n    /* \"#utility.yul\":3005:3022   */\n  0x43756f7461206e6f2076616c6964610000000000000000000000000000000000\n    /* \"#utility.yul\":3001:3002   */\n  0x00\n    /* \"#utility.yul\":2993:2999   */\n  dup3\n    /* \"#utility.yul\":2989:3003   */\n  add\n    /* \"#utility.yul\":2982:3023   */\n  mstore\n    /* \"#utility.yul\":2865:3030   */\n  pop\n  jump\t// out\n    /* \"#utility.yul\":3036:3402   */\ntag_27:\n    /* \"#utility.yul\":3178:3181   */\n  0x00\n    /* \"#utility.yul\":3199:3266   */\n  tag_60\n    /* \"#utility.yul\":3263:3265   */\n  0x0f\n    /* \"#utility.yul\":3258:3261   */\n  dup4\n    /* \"#utility.yul\":3199:3266   */\n  tag_23\n  jump\t// in\ntag_60:\n    /* \"#utility.yul\":3192:3266   */\n  swap2\n  pop\n    /* \"#utility.yul\":3275:3368   */\n  tag_61\n    /* \"#utility.yul\":3364:3367   */\n  dup3\n    /* \"#utility.yul\":3275:3368   */\n  tag_26\n  jump\t// in\ntag_61:\n    /* \"#utility.yul\":3393:3395   */\n  0x20\n    /* \"#utility.yul\":3388:3391   */\n  dup3\n    /* \"#utility.yul\":3384:3396   */\n  add\n    /* \"#utility.yul\":3377:3396   */\n  swap1\n  pop\n    /* \"#utility.yul\":3036:3402   */\n  swap2\n  swap1\n  pop\n  jump\t// out\n    /* \"#utility.yul\":3408:3827   */\ntag_11:\n    /* \"#utility.yul\":3574:3578   */\n  0x00\n    /* \"#utility.yul\":3612:3614   */\n  0x20\n    /* \"#utility.yul\":3601:3610   */\n  dup3\n    /* \"#utility.yul\":3597:3615   */\n  add\n    /* \"#utility.yul\":3589:3615   */\n  swap1\n  pop\n    /* \"#utility.yul\":3661:3670   */\n  dup2\n    /* \"#utility.yul\":3655:3659   */\n  dup2\n    /* \"#utility.yul\":3651:3671   */\n  sub\n    /* \"#utility.yul\":3647:3648   */\n  0x00\n    /* \"#utility.yul\":3636:3645   */\n  dup4\n    /* \"#utility.yul\":3632:3649   */\n  add\n    /* \"#utility.yul\":3625:3672   */\n  mstore\n    /* \"#utility.yul\":3689:3820   */\n  tag_63\n    /* \"#utility.yul\":3815:3819   */\n  dup2\n    /* \"#utility.yul\":3689:3820   */\n  tag_27\n  jump\t// in\ntag_63:\n    /* \"#utility.yul\":3681:3820   */\n  swap1\n  pop\n    /* \"#utility.yul\":3408:3827   */\n  swap2\n  swap1\n  pop\n  jump\t// out\n    /* \"ETH - Henry/contracts/SimpleBank.sol\":213:6154  contract SimpleBank {... */\ntag_12:\n  dataSize(sub_0)\n  dup1\n  dataOffset(sub_0)\n  0x00\n  codecopy\n  0x00\n  return\nstop\n\nsub_0: assembly {\n        /* \"ETH - Henry/contracts/SimpleBank.sol\":213:6154  contract SimpleBank {... */\n      mstore(0x40, 0x80)\n      jumpi(tag_1, lt(calldatasize, 0x04))\n      shr(0xe0, calldataload(0x00))\n      dup1\n      0xa469a332\n      gt\n      tag_11\n      jumpi\n      dup1\n      0xa469a332\n      eq\n      tag_6\n      jumpi\n      dup1\n      0xc71daccb\n      eq\n      tag_7\n      jumpi\n      dup1\n      0xd9a8748c\n      eq\n      tag_8\n      jumpi\n      dup1\n      0xf851a440\n      eq\n      tag_9\n      jumpi\n      dup1\n      0xfc41491e\n      eq\n      tag_10\n      jumpi\n      jump(tag_1)\n    tag_11:\n      dup1\n      0x3c067945\n      eq\n      tag_2\n      jumpi\n      dup1\n      0x481113c2\n      eq\n      tag_3\n      jumpi\n      dup1\n      0x9ed3edf0\n      eq\n      tag_4\n      jumpi\n      dup1\n      0xa26759cb\n      eq\n      tag_5\n      jumpi\n    tag_1:\n      0x00\n      dup1\n      revert\n        /* \"ETH - Henry/contracts/SimpleBank.sol\":1058:1084  uint256 public fundBalance */\n    tag_2:\n      callvalue\n      dup1\n      iszero\n      tag_12\n      jumpi\n      0x00\n      dup1\n      revert\n    tag_12:\n      pop\n      tag_13\n      tag_14\n      jump\t// in\n    tag_13:\n      mload(0x40)\n      tag_15\n      swap2\n      swap1\n      tag_16\n      jump\t// in\n    tag_15:\n      mload(0x40)\n      dup1\n      swap2\n      sub\n      swap1\n      return\n        /* \"ETH - Henry/contracts/SimpleBank.sol\":4467:5479  function takeOutFunds(uint256 _amount) external onlyClient {... */\n    tag_3:\n      callvalue\n      dup1\n      iszero\n      tag_17\n      jumpi\n      0x00\n      dup1\n      revert\n    tag_17:\n      pop\n      tag_18\n      0x04\n      dup1\n      calldatasize\n      sub\n      dup2\n      add\n      swap1\n      tag_19\n      swap2\n      swap1\n      tag_20\n      jump\t// in\n    tag_19:\n      tag_21\n      jump\t// in\n    tag_18:\n      stop\n        /* \"ETH - Henry/contracts/SimpleBank.sol\":957:986  uint256 public transactionFee */\n    tag_4:\n      callvalue\n      dup1\n      iszero\n      tag_22\n      jumpi\n      0x00\n      dup1\n      revert\n    tag_22:\n      pop\n      tag_23\n      tag_24\n      jump\t// in\n    tag_23:\n      mload(0x40)\n      tag_25\n      swap2\n      swap1\n      tag_16\n      jump\t// in\n    tag_25:\n      mload(0x40)\n      dup1\n      swap2\n      sub\n      swap1\n      return\n        /* \"ETH - Henry/contracts/SimpleBank.sol\":3638:4034  function addFunds() external payable onlyClient {... */\n    tag_5:\n      tag_26\n      tag_27\n      jump\t// in\n    tag_26:\n      stop\n        /* \"ETH - Henry/contracts/SimpleBank.sol\":2802:3533  function signUp(string calldata _name, string calldata _surname) external {... */\n    tag_6:\n      callvalue\n      dup1\n      iszero\n      tag_28\n      jumpi\n      0x00\n      dup1\n      revert\n    tag_28:\n      pop\n      tag_29\n      0x04\n      dup1\n      calldatasize\n      sub\n      dup2\n      add\n      swap1\n      tag_30\n      swap2\n      swap1\n      tag_31\n      jump\t// in\n    tag_30:\n      tag_32\n      jump\t// in\n    tag_29:\n      stop\n        /* \"ETH - Henry/contracts/SimpleBank.sol\":4163:4323  function checkBalance() external view onlyClient returns (uint256) {... */\n    tag_7:\n      callvalue\n      dup1\n      iszero\n      tag_33\n      jumpi\n      0x00\n      dup1\n      revert\n    tag_33:\n      pop\n      tag_34\n      tag_35\n      jump\t// in\n    tag_34:\n      mload(0x40)\n      tag_36\n      swap2\n      swap1\n      tag_16\n      jump\t// in\n    tag_36:\n      mload(0x40)\n      dup1\n      swap2\n      sub\n      swap1\n      return\n        /* \"ETH - Henry/contracts/SimpleBank.sol\":859:885  address public fundAccount */\n    tag_8:\n      callvalue\n      dup1\n      iszero\n      tag_37\n      jumpi\n      0x00\n      dup1\n      revert\n    tag_37:\n      pop\n      tag_38\n      tag_39\n      jump\t// in\n    tag_38:\n      mload(0x40)\n      tag_40\n      swap2\n      swap1\n      tag_41\n      jump\t// in\n    tag_40:\n      mload(0x40)\n      dup1\n      swap2\n      sub\n      swap1\n      return\n        /* \"ETH - Henry/contracts/SimpleBank.sol\":763:783  address public admin */\n    tag_9:\n      callvalue\n      dup1\n      iszero\n      tag_42\n      jumpi\n      0x00\n      dup1\n      revert\n    tag_42:\n      pop\n      tag_43\n      tag_44\n      jump\t// in\n    tag_43:\n      mload(0x40)\n      tag_45\n      swap2\n      swap1\n      tag_41\n      jump\t// in\n    tag_45:\n      mload(0x40)\n      dup1\n      swap2\n      sub\n      swap1\n      return\n        /* \"ETH - Henry/contracts/SimpleBank.sol\":5663:6151  function retrieveFunds(uint256 _amount) external onlyAdmin {... */\n    tag_10:\n      callvalue\n      dup1\n      iszero\n      tag_46\n      jumpi\n      0x00\n      dup1\n      revert\n    tag_46:\n      pop\n      tag_47\n      0x04\n      dup1\n      calldatasize\n      sub\n      dup2\n      add\n      swap1\n      tag_48\n      swap2\n      swap1\n      tag_20\n      jump\t// in\n    tag_48:\n      tag_49\n      jump\t// in\n    tag_47:\n      stop\n        /* \"ETH - Henry/contracts/SimpleBank.sol\":1058:1084  uint256 public fundBalance */\n    tag_14:\n      sload(0x04)\n      dup2\n      jump\t// out\n        /* \"ETH - Henry/contracts/SimpleBank.sol\":4467:5479  function takeOutFunds(uint256 _amount) external onlyClient {... */\n    tag_21:\n        /* \"ETH - Henry/contracts/SimpleBank.sol\":1686:1693  clients */\n      0x00\n        /* \"ETH - Henry/contracts/SimpleBank.sol\":1686:1705  clients[msg.sender] */\n      dup1\n        /* \"ETH - Henry/contracts/SimpleBank.sol\":1694:1704  msg.sender */\n      caller\n        /* \"ETH - Henry/contracts/SimpleBank.sol\":1686:1705  clients[msg.sender] */\n      0xffffffffffffffffffffffffffffffffffffffff\n      and\n      0xffffffffffffffffffffffffffffffffffffffff\n      and\n      dup2\n      mstore\n      0x20\n      add\n      swap1\n      dup2\n      mstore\n      0x20\n      add\n      0x00\n      keccak256\n        /* \"ETH - Henry/contracts/SimpleBank.sol\":1686:1716  clients[msg.sender].registered */\n      0x03\n      add\n      0x00\n      swap1\n      sload\n      swap1\n      0x0100\n      exp\n      swap1\n      div\n      0xff\n      and\n        /* \"ETH - Henry/contracts/SimpleBank.sol\":1678:1734  require(clients[msg.sender].registered, \"No registrado\") */\n      tag_51\n      jumpi\n      mload(0x40)\n      0x08c379a000000000000000000000000000000000000000000000000000000000\n      dup2\n      mstore\n      0x04\n      add\n      tag_52\n      swap1\n      tag_53\n      jump\t// in\n    tag_52:\n      mload(0x40)\n      dup1\n      swap2\n      sub\n      swap1\n      revert\n    tag_51:\n        /* \"ETH - Henry/contracts/SimpleBank.sol\":4555:4556  0 */\n      0x00\n        /* \"ETH - Henry/contracts/SimpleBank.sol\":4545:4552  _amount */\n      dup2\n        /* \"ETH - Henry/contracts/SimpleBank.sol\":4545:4556  _amount > 0 */\n      gt\n        /* \"ETH - Henry/contracts/SimpleBank.sol\":4537:4584  require(_amount > 0, \"Monto debe ser positivo\") */\n      tag_55\n      jumpi\n      mload(0x40)\n      0x08c379a000000000000000000000000000000000000000000000000000000000\n      dup2\n      mstore\n      0x04\n      add\n      tag_56\n      swap1\n      tag_57\n      jump\t// in\n    tag_56:\n      mload(0x40)\n      dup1\n      swap2\n      sub\n      swap1\n      revert\n    tag_55:\n        /* \"ETH - Henry/contracts/SimpleBank.sol\":4691:4698  _amount */\n      dup1\n        /* \"ETH - Henry/contracts/SimpleBank.sol\":4660:4667  clients */\n      0x00\n        /* \"ETH - Henry/contracts/SimpleBank.sol\":4660:4679  clients[msg.sender] */\n      dup1\n        /* \"ETH - Henry/contracts/SimpleBank.sol\":4668:4678  msg.sender */\n      caller\n        /* \"ETH - Henry/contracts/SimpleBank.sol\":4660:4679  clients[msg.sender] */\n      0xffffffffffffffffffffffffffffffffffffffff\n      and\n      0xffffffffffffffffffffffffffffffffffffffff\n      and\n      dup2\n      mstore\n      0x20\n      add\n      swap1\n      dup2\n      mstore\n      0x20\n      add\n      0x00\n      keccak256\n        /* \"ETH - Henry/contracts/SimpleBank.sol\":4660:4687  clients[msg.sender].balance */\n      0x02\n      add\n      sload\n        /* \"ETH - Henry/contracts/SimpleBank.sol\":4660:4698  clients[msg.sender].balance >= _amount */\n      lt\n      iszero\n        /* \"ETH - Henry/contracts/SimpleBank.sol\":4652:4723  require(clients[msg.sender].balance >= _amount, \"Fondos insuficientes\") */\n      tag_58\n      jumpi\n      mload(0x40)\n      0x08c379a000000000000000000000000000000000000000000000000000000000\n      dup2\n      mstore\n      0x04\n      add\n      tag_59\n      swap1\n      tag_60\n      jump\t// in\n    tag_59:\n      mload(0x40)\n      dup1\n      swap2\n      sub\n      swap1\n      revert\n    tag_58:\n        /* \"ETH - Henry/contracts/SimpleBank.sol\":4875:4892  uint256 feeAmount */\n      0x00\n        /* \"ETH - Henry/contracts/SimpleBank.sol\":4924:4929  10000 */\n      0x2710\n        /* \"ETH - Henry/contracts/SimpleBank.sol\":4906:4920  transactionFee */\n      sload(0x03)\n        /* \"ETH - Henry/contracts/SimpleBank.sol\":4896:4903  _amount */\n      dup4\n        /* \"ETH - Henry/contracts/SimpleBank.sol\":4896:4920  _amount * transactionFee */\n      tag_61\n      swap2\n      swap1\n      tag_62\n      jump\t// in\n    tag_61:\n        /* \"ETH - Henry/contracts/SimpleBank.sol\":4895:4929  (_amount * transactionFee) / 10000 */\n      tag_63\n      swap2\n      swap1\n      tag_64\n      jump\t// in\n    tag_63:\n        /* \"ETH - Henry/contracts/SimpleBank.sol\":4875:4929  uint256 feeAmount = (_amount * transactionFee) / 10000 */\n      swap1\n      pop\n        /* \"ETH - Henry/contracts/SimpleBank.sol\":4940:4962  uint256 amountAfterFee */\n      0x00\n        /* \"ETH - Henry/contracts/SimpleBank.sol\":4975:4984  feeAmount */\n      dup2\n        /* \"ETH - Henry/contracts/SimpleBank.sol\":4965:4972  _amount */\n      dup4\n        /* \"ETH - Henry/contracts/SimpleBank.sol\":4965:4984  _amount - feeAmount */\n      tag_65\n      swap2\n      swap1\n      tag_66\n      jump\t// in\n    tag_65:\n        /* \"ETH - Henry/contracts/SimpleBank.sol\":4940:4984  uint256 amountAfterFee = _amount - feeAmount */\n      swap1\n      pop\n        /* \"ETH - Henry/contracts/SimpleBank.sol\":5170:5177  _amount */\n      dup3\n        /* \"ETH - Henry/contracts/SimpleBank.sol\":5139:5146  clients */\n      0x00\n        /* \"ETH - Henry/contracts/SimpleBank.sol\":5139:5158  clients[msg.sender] */\n      dup1\n        /* \"ETH - Henry/contracts/SimpleBank.sol\":5147:5157  msg.sender */\n      caller\n        /* \"ETH - Henry/contracts/SimpleBank.sol\":5139:5158  clients[msg.sender] */\n      0xffffffffffffffffffffffffffffffffffffffff\n      and\n      0xffffffffffffffffffffffffffffffffffffffff\n      and\n      dup2\n      mstore\n      0x20\n      add\n      swap1\n      dup2\n      mstore\n      0x20\n      add\n      0x00\n      keccak256\n        /* \"ETH - Henry/contracts/SimpleBank.sol\":5139:5166  clients[msg.sender].balance */\n      0x02\n      add\n      0x00\n        /* \"ETH - Henry/contracts/SimpleBank.sol\":5139:5177  clients[msg.sender].balance -= _amount */\n      dup3\n      dup3\n      sload\n      tag_67\n      swap2\n      swap1\n      tag_66\n      jump\t// in\n    tag_67:\n      swap3\n      pop\n      pop\n      dup2\n      swap1\n      sstore\n      pop\n        /* \"ETH - Henry/contracts/SimpleBank.sol\":5203:5212  feeAmount */\n      dup2\n        /* \"ETH - Henry/contracts/SimpleBank.sol\":5188:5199  fundBalance */\n      0x04\n      0x00\n        /* \"ETH - Henry/contracts/SimpleBank.sol\":5188:5212  fundBalance += feeAmount */\n      dup3\n      dup3\n      sload\n      tag_68\n      swap2\n      swap1\n      tag_69\n      jump\t// in\n    tag_68:\n      swap3\n      pop\n      pop\n      dup2\n      swap1\n      sstore\n      pop\n        /* \"ETH - Henry/contracts/SimpleBank.sol\":5301:5311  msg.sender */\n      caller\n        /* \"ETH - Henry/contracts/SimpleBank.sol\":5293:5321  payable(msg.sender).transfer */\n      0xffffffffffffffffffffffffffffffffffffffff\n      and\n        /* \"ETH - Henry/contracts/SimpleBank.sol\":5293:5337  payable(msg.sender).transfer(amountAfterFee) */\n      0x08fc\n        /* \"ETH - Henry/contracts/SimpleBank.sol\":5322:5336  amountAfterFee */\n      dup3\n        /* \"ETH - Henry/contracts/SimpleBank.sol\":5293:5337  payable(msg.sender).transfer(amountAfterFee) */\n      swap1\n      dup2\n      iszero\n      mul\n      swap1\n      mload(0x40)\n      0x00\n      mload(0x40)\n      dup1\n      dup4\n      sub\n      dup2\n      dup6\n      dup9\n      dup9\n      call\n      swap4\n      pop\n      pop\n      pop\n      pop\n      iszero\n      dup1\n      iszero\n      tag_71\n      jumpi\n      returndatasize\n      0x00\n      dup1\n      returndatacopy\n      revert(0x00, returndatasize)\n    tag_71:\n      pop\n        /* \"ETH - Henry/contracts/SimpleBank.sol\":5433:5443  msg.sender */\n      caller\n        /* \"ETH - Henry/contracts/SimpleBank.sol\":5418:5471  FundsWithdrawn(msg.sender, amountAfterFee, feeAmount) */\n      0xffffffffffffffffffffffffffffffffffffffff\n      and\n      0xfbc3a599b784fe88772fc5abcc07223f64ca0b13acc341f4fb1e46bef0510eb4\n        /* \"ETH - Henry/contracts/SimpleBank.sol\":5445:5459  amountAfterFee */\n      dup3\n        /* \"ETH - Henry/contracts/SimpleBank.sol\":5461:5470  feeAmount */\n      dup5\n        /* \"ETH - Henry/contracts/SimpleBank.sol\":5418:5471  FundsWithdrawn(msg.sender, amountAfterFee, feeAmount) */\n      mload(0x40)\n      tag_72\n      swap3\n      swap2\n      swap1\n      tag_73\n      jump\t// in\n    tag_72:\n      mload(0x40)\n      dup1\n      swap2\n      sub\n      swap1\n      log2\n        /* \"ETH - Henry/contracts/SimpleBank.sol\":4526:5479  {... */\n      pop\n      pop\n        /* \"ETH - Henry/contracts/SimpleBank.sol\":4467:5479  function takeOutFunds(uint256 _amount) external onlyClient {... */\n      pop\n      jump\t// out\n        /* \"ETH - Henry/contracts/SimpleBank.sol\":957:986  uint256 public transactionFee */\n    tag_24:\n      sload(0x03)\n      dup2\n      jump\t// out\n        /* \"ETH - Henry/contracts/SimpleBank.sol\":3638:4034  function addFunds() external payable onlyClient {... */\n    tag_27:\n        /* \"ETH - Henry/contracts/SimpleBank.sol\":1686:1693  clients */\n      0x00\n        /* \"ETH - Henry/contracts/SimpleBank.sol\":1686:1705  clients[msg.sender] */\n      dup1\n        /* \"ETH - Henry/contracts/SimpleBank.sol\":1694:1704  msg.sender */\n      caller\n        /* \"ETH - Henry/contracts/SimpleBank.sol\":1686:1705  clients[msg.sender] */\n      0xffffffffffffffffffffffffffffffffffffffff\n      and\n      0xffffffffffffffffffffffffffffffffffffffff\n      and\n      dup2\n      mstore\n      0x20\n      add\n      swap1\n      dup2\n      mstore\n      0x20\n      add\n      0x00\n      keccak256\n        /* \"ETH - Henry/contracts/SimpleBank.sol\":1686:1716  clients[msg.sender].registered */\n      0x03\n      add\n      0x00\n      swap1\n      sload\n      swap1\n      0x0100\n      exp\n      swap1\n      div\n      0xff\n      and\n        /* \"ETH - Henry/contracts/SimpleBank.sol\":1678:1734  require(clients[msg.sender].registered, \"No registrado\") */\n      tag_75\n      jumpi\n      mload(0x40)\n      0x08c379a000000000000000000000000000000000000000000000000000000000\n      dup2\n      mstore\n      0x04\n      add\n      tag_76\n      swap1\n      tag_53\n      jump\t// in\n    tag_76:\n      mload(0x40)\n      dup1\n      swap2\n      sub\n      swap1\n      revert\n    tag_75:\n        /* \"ETH - Henry/contracts/SimpleBank.sol\":3717:3718  0 */\n      0x00\n        /* \"ETH - Henry/contracts/SimpleBank.sol\":3705:3714  msg.value */\n      callvalue\n        /* \"ETH - Henry/contracts/SimpleBank.sol\":3705:3718  msg.value > 0 */\n      gt\n        /* \"ETH - Henry/contracts/SimpleBank.sol\":3697:3750  require(msg.value > 0, \"Monto debe ser mayor a cero\") */\n      tag_78\n      jumpi\n      mload(0x40)\n      0x08c379a000000000000000000000000000000000000000000000000000000000\n      dup2\n      mstore\n      0x04\n      add\n      tag_79\n      swap1\n      tag_80\n      jump\t// in\n    tag_79:\n      mload(0x40)\n      dup1\n      swap2\n      sub\n      swap1\n      revert\n    tag_78:\n        /* \"ETH - Henry/contracts/SimpleBank.sol\":3896:3905  msg.value */\n      callvalue\n        /* \"ETH - Henry/contracts/SimpleBank.sol\":3865:3872  clients */\n      0x00\n        /* \"ETH - Henry/contracts/SimpleBank.sol\":3865:3884  clients[msg.sender] */\n      dup1\n        /* \"ETH - Henry/contracts/SimpleBank.sol\":3873:3883  msg.sender */\n      caller\n        /* \"ETH - Henry/contracts/SimpleBank.sol\":3865:3884  clients[msg.sender] */\n      0xffffffffffffffffffffffffffffffffffffffff\n      and\n      0xffffffffffffffffffffffffffffffffffffffff\n      and\n      dup2\n      mstore\n      0x20\n      add\n      swap1\n      dup2\n      mstore\n      0x20\n      add\n      0x00\n      keccak256\n        /* \"ETH - Henry/contracts/SimpleBank.sol\":3865:3892  clients[msg.sender].balance */\n      0x02\n      add\n      0x00\n        /* \"ETH - Henry/contracts/SimpleBank.sol\":3865:3905  clients[msg.sender].balance += msg.value */\n      dup3\n      dup3\n      sload\n      tag_81\n      swap2\n      swap1\n      tag_69\n      jump\t// in\n    tag_81:\n      swap3\n      pop\n      pop\n      dup2\n      swap1\n      sstore\n      pop\n        /* \"ETH - Henry/contracts/SimpleBank.sol\":4004:4014  msg.sender */\n      caller\n        /* \"ETH - Henry/contracts/SimpleBank.sol\":3989:4026  FundsDeposited(msg.sender, msg.value) */\n      0xffffffffffffffffffffffffffffffffffffffff\n      and\n      0x543ba50a5eec5e6178218e364b1d0f396157b3c8fa278522c2cb7fd99407d474\n        /* \"ETH - Henry/contracts/SimpleBank.sol\":4016:4025  msg.value */\n      callvalue\n        /* \"ETH - Henry/contracts/SimpleBank.sol\":3989:4026  FundsDeposited(msg.sender, msg.value) */\n      mload(0x40)\n      tag_82\n      swap2\n      swap1\n      tag_16\n      jump\t// in\n    tag_82:\n      mload(0x40)\n      dup1\n      swap2\n      sub\n      swap1\n      log2\n        /* \"ETH - Henry/contracts/SimpleBank.sol\":3638:4034  function addFunds() external payable onlyClient {... */\n      jump\t// out\n        /* \"ETH - Henry/contracts/SimpleBank.sol\":2802:3533  function signUp(string calldata _name, string calldata _surname) external {... */\n    tag_32:\n        /* \"ETH - Henry/contracts/SimpleBank.sol\":2917:2918  0 */\n      0x00\n        /* \"ETH - Henry/contracts/SimpleBank.sol\":2901:2906  _name */\n      dup5\n      dup5\n        /* \"ETH - Henry/contracts/SimpleBank.sol\":2895:2914  bytes(_name).length */\n      swap1\n      pop\n        /* \"ETH - Henry/contracts/SimpleBank.sol\":2895:2918  bytes(_name).length > 0 */\n      gt\n        /* \"ETH - Henry/contracts/SimpleBank.sol\":2887:2939  require(bytes(_name).length > 0, \"Nombre requerido\") */\n      tag_84\n      jumpi\n      mload(0x40)\n      0x08c379a000000000000000000000000000000000000000000000000000000000\n      dup2\n      mstore\n      0x04\n      add\n      tag_85\n      swap1\n      tag_86\n      jump\t// in\n    tag_85:\n      mload(0x40)\n      dup1\n      swap2\n      sub\n      swap1\n      revert\n    tag_84:\n        /* \"ETH - Henry/contracts/SimpleBank.sol\":3025:3026  0 */\n      0x00\n        /* \"ETH - Henry/contracts/SimpleBank.sol\":3006:3014  _surname */\n      dup3\n      dup3\n        /* \"ETH - Henry/contracts/SimpleBank.sol\":3000:3022  bytes(_surname).length */\n      swap1\n      pop\n        /* \"ETH - Henry/contracts/SimpleBank.sol\":3000:3026  bytes(_surname).length > 0 */\n      gt\n        /* \"ETH - Henry/contracts/SimpleBank.sol\":2992:3049  require(bytes(_surname).length > 0, \"Apellido requerido\") */\n      tag_87\n      jumpi\n      mload(0x40)\n      0x08c379a000000000000000000000000000000000000000000000000000000000\n      dup2\n      mstore\n      0x04\n      add\n      tag_88\n      swap1\n      tag_89\n      jump\t// in\n    tag_88:\n      mload(0x40)\n      dup1\n      swap2\n      sub\n      swap1\n      revert\n    tag_87:\n        /* \"ETH - Henry/contracts/SimpleBank.sol\":3109:3116  clients */\n      0x00\n        /* \"ETH - Henry/contracts/SimpleBank.sol\":3109:3128  clients[msg.sender] */\n      dup1\n        /* \"ETH - Henry/contracts/SimpleBank.sol\":3117:3127  msg.sender */\n      caller\n        /* \"ETH - Henry/contracts/SimpleBank.sol\":3109:3128  clients[msg.sender] */\n      0xffffffffffffffffffffffffffffffffffffffff\n      and\n      0xffffffffffffffffffffffffffffffffffffffff\n      and\n      dup2\n      mstore\n      0x20\n      add\n      swap1\n      dup2\n      mstore\n      0x20\n      add\n      0x00\n      keccak256\n        /* \"ETH - Henry/contracts/SimpleBank.sol\":3109:3139  clients[msg.sender].registered */\n      0x03\n      add\n      0x00\n      swap1\n      sload\n      swap1\n      0x0100\n      exp\n      swap1\n      div\n      0xff\n      and\n        /* \"ETH - Henry/contracts/SimpleBank.sol\":3108:3139  !clients[msg.sender].registered */\n      iszero\n        /* \"ETH - Henry/contracts/SimpleBank.sol\":3100:3165  require(!clients[msg.sender].registered, \"Cliente ya registrado\") */\n      tag_90\n      jumpi\n      mload(0x40)\n      0x08c379a000000000000000000000000000000000000000000000000000000000\n      dup2\n      mstore\n      0x04\n      add\n      tag_91\n      swap1\n      tag_92\n      jump\t// in\n    tag_91:\n      mload(0x40)\n      dup1\n      swap2\n      sub\n      swap1\n      revert\n    tag_90:\n        /* \"ETH - Henry/contracts/SimpleBank.sol\":3338:3370  Client(_name, _surname, 0, true) */\n      mload(0x40)\n      dup1\n      0x80\n      add\n      0x40\n      mstore\n      dup1\n        /* \"ETH - Henry/contracts/SimpleBank.sol\":3345:3350  _name */\n      dup6\n      dup6\n        /* \"ETH - Henry/contracts/SimpleBank.sol\":3338:3370  Client(_name, _surname, 0, true) */\n      dup1\n      dup1\n      0x1f\n      add\n      0x20\n      dup1\n      swap2\n      div\n      mul\n      0x20\n      add\n      mload(0x40)\n      swap1\n      dup2\n      add\n      0x40\n      mstore\n      dup1\n      swap4\n      swap3\n      swap2\n      swap1\n      dup2\n      dup2\n      mstore\n      0x20\n      add\n      dup4\n      dup4\n      dup1\n      dup3\n      dup5\n      calldatacopy\n      0x00\n      dup2\n      dup5\n      add\n      mstore\n      not(0x1f)\n      0x1f\n      dup3\n      add\n      and\n      swap1\n      pop\n      dup1\n      dup4\n      add\n      swap3\n      pop\n      pop\n      pop\n      pop\n      pop\n      pop\n      pop\n      dup2\n      mstore\n      0x20\n      add\n        /* \"ETH - Henry/contracts/SimpleBank.sol\":3352:3360  _surname */\n      dup4\n      dup4\n        /* \"ETH - Henry/contracts/SimpleBank.sol\":3338:3370  Client(_name, _surname, 0, true) */\n      dup1\n      dup1\n      0x1f\n      add\n      0x20\n      dup1\n      swap2\n      div\n      mul\n      0x20\n      add\n      mload(0x40)\n      swap1\n      dup2\n      add\n      0x40\n      mstore\n      dup1\n      swap4\n      swap3\n      swap2\n      swap1\n      dup2\n      dup2\n      mstore\n      0x20\n      add\n      dup4\n      dup4\n      dup1\n      dup3\n      dup5\n      calldatacopy\n      0x00\n      dup2\n      dup5\n      add\n      mstore\n      not(0x1f)\n      0x1f\n      dup3\n      add\n      and\n      swap1\n      pop\n      dup1\n      dup4\n      add\n      swap3\n      pop\n      pop\n      pop\n      pop\n      pop\n      pop\n      pop\n      dup2\n      mstore\n      0x20\n      add\n        /* \"ETH - Henry/contracts/SimpleBank.sol\":3362:3363  0 */\n      0x00\n        /* \"ETH - Henry/contracts/SimpleBank.sol\":3338:3370  Client(_name, _surname, 0, true) */\n      dup2\n      mstore\n      0x20\n      add\n        /* \"ETH - Henry/contracts/SimpleBank.sol\":3365:3369  true */\n      0x01\n        /* \"ETH - Henry/contracts/SimpleBank.sol\":3338:3370  Client(_name, _surname, 0, true) */\n      iszero\n      iszero\n      dup2\n      mstore\n      pop\n        /* \"ETH - Henry/contracts/SimpleBank.sol\":3316:3323  clients */\n      0x00\n        /* \"ETH - Henry/contracts/SimpleBank.sol\":3316:3335  clients[msg.sender] */\n      dup1\n        /* \"ETH - Henry/contracts/SimpleBank.sol\":3324:3334  msg.sender */\n      caller\n        /* \"ETH - Henry/contracts/SimpleBank.sol\":3316:3335  clients[msg.sender] */\n      0xffffffffffffffffffffffffffffffffffffffff\n      and\n      0xffffffffffffffffffffffffffffffffffffffff\n      and\n      dup2\n      mstore\n      0x20\n      add\n      swap1\n      dup2\n      mstore\n      0x20\n      add\n      0x00\n      keccak256\n        /* \"ETH - Henry/contracts/SimpleBank.sol\":3316:3370  clients[msg.sender] = Client(_name, _surname, 0, true) */\n      0x00\n      dup3\n      add\n      mload\n      dup2\n      0x00\n      add\n      swap1\n      dup2\n      tag_93\n      swap2\n      swap1\n      tag_94\n      jump\t// in\n    tag_93:\n      pop\n      0x20\n      dup3\n      add\n      mload\n      dup2\n      0x01\n      add\n      swap1\n      dup2\n      tag_95\n      swap2\n      swap1\n      tag_94\n      jump\t// in\n    tag_95:\n      pop\n      0x40\n      dup3\n      add\n      mload\n      dup2\n      0x02\n      add\n      sstore\n      0x60\n      dup3\n      add\n      mload\n      dup2\n      0x03\n      add\n      exp(0x0100, 0x00)\n      dup2\n      sload\n      dup2\n      0xff\n      mul\n      not\n      and\n      swap1\n      dup4\n      iszero\n      iszero\n      mul\n      or\n      swap1\n      sstore\n      pop\n      swap1\n      pop\n      pop\n        /* \"ETH - Henry/contracts/SimpleBank.sol\":3497:3507  msg.sender */\n      caller\n        /* \"ETH - Henry/contracts/SimpleBank.sol\":3485:3525  ClientAdded(msg.sender, _name, _surname) */\n      0xffffffffffffffffffffffffffffffffffffffff\n      and\n      0xfc753eff51ef9bc95cc7789cefef07d6f2b86de04834071141298e2cc3e5360f\n        /* \"ETH - Henry/contracts/SimpleBank.sol\":3509:3514  _name */\n      dup6\n      dup6\n        /* \"ETH - Henry/contracts/SimpleBank.sol\":3516:3524  _surname */\n      dup6\n      dup6\n        /* \"ETH - Henry/contracts/SimpleBank.sol\":3485:3525  ClientAdded(msg.sender, _name, _surname) */\n      mload(0x40)\n      tag_96\n      swap5\n      swap4\n      swap3\n      swap2\n      swap1\n      tag_97\n      jump\t// in\n    tag_96:\n      mload(0x40)\n      dup1\n      swap2\n      sub\n      swap1\n      log2\n        /* \"ETH - Henry/contracts/SimpleBank.sol\":2802:3533  function signUp(string calldata _name, string calldata _surname) external {... */\n      pop\n      pop\n      pop\n      pop\n      jump\t// out\n        /* \"ETH - Henry/contracts/SimpleBank.sol\":4163:4323  function checkBalance() external view onlyClient returns (uint256) {... */\n    tag_35:\n        /* \"ETH - Henry/contracts/SimpleBank.sol\":4221:4228  uint256 */\n      0x00\n        /* \"ETH - Henry/contracts/SimpleBank.sol\":1686:1693  clients */\n      dup1\n        /* \"ETH - Henry/contracts/SimpleBank.sol\":1686:1705  clients[msg.sender] */\n      0x00\n        /* \"ETH - Henry/contracts/SimpleBank.sol\":1694:1704  msg.sender */\n      caller\n        /* \"ETH - Henry/contracts/SimpleBank.sol\":1686:1705  clients[msg.sender] */\n      0xffffffffffffffffffffffffffffffffffffffff\n      and\n      0xffffffffffffffffffffffffffffffffffffffff\n      and\n      dup2\n      mstore\n      0x20\n      add\n      swap1\n      dup2\n      mstore\n      0x20\n      add\n      0x00\n      keccak256\n        /* \"ETH - Henry/contracts/SimpleBank.sol\":1686:1716  clients[msg.sender].registered */\n      0x03\n      add\n      0x00\n      swap1\n      sload\n      swap1\n      0x0100\n      exp\n      swap1\n      div\n      0xff\n      and\n        /* \"ETH - Henry/contracts/SimpleBank.sol\":1678:1734  require(clients[msg.sender].registered, \"No registrado\") */\n      tag_99\n      jumpi\n      mload(0x40)\n      0x08c379a000000000000000000000000000000000000000000000000000000000\n      dup2\n      mstore\n      0x04\n      add\n      tag_100\n      swap1\n      tag_53\n      jump\t// in\n    tag_100:\n      mload(0x40)\n      dup1\n      swap2\n      sub\n      swap1\n      revert\n    tag_99:\n        /* \"ETH - Henry/contracts/SimpleBank.sol\":4248:4255  clients */\n      0x00\n        /* \"ETH - Henry/contracts/SimpleBank.sol\":4248:4267  clients[msg.sender] */\n      dup1\n        /* \"ETH - Henry/contracts/SimpleBank.sol\":4256:4266  msg.sender */\n      caller\n        /* \"ETH - Henry/contracts/SimpleBank.sol\":4248:4267  clients[msg.sender] */\n      0xffffffffffffffffffffffffffffffffffffffff\n      and\n      0xffffffffffffffffffffffffffffffffffffffff\n      and\n      dup2\n      mstore\n      0x20\n      add\n      swap1\n      dup2\n      mstore\n      0x20\n      add\n      0x00\n      keccak256\n        /* \"ETH - Henry/contracts/SimpleBank.sol\":4248:4275  clients[msg.sender].balance */\n      0x02\n      add\n      sload\n        /* \"ETH - Henry/contracts/SimpleBank.sol\":4241:4275  return clients[msg.sender].balance */\n      swap1\n      pop\n        /* \"ETH - Henry/contracts/SimpleBank.sol\":4163:4323  function checkBalance() external view onlyClient returns (uint256) {... */\n      swap1\n      jump\t// out\n        /* \"ETH - Henry/contracts/SimpleBank.sol\":859:885  address public fundAccount */\n    tag_39:\n      0x02\n      0x00\n      swap1\n      sload\n      swap1\n      0x0100\n      exp\n      swap1\n      div\n      0xffffffffffffffffffffffffffffffffffffffff\n      and\n      dup2\n      jump\t// out\n        /* \"ETH - Henry/contracts/SimpleBank.sol\":763:783  address public admin */\n    tag_44:\n      0x01\n      0x00\n      swap1\n      sload\n      swap1\n      0x0100\n      exp\n      swap1\n      div\n      0xffffffffffffffffffffffffffffffffffffffff\n      and\n      dup2\n      jump\t// out\n        /* \"ETH - Henry/contracts/SimpleBank.sol\":5663:6151  function retrieveFunds(uint256 _amount) external onlyAdmin {... */\n    tag_49:\n        /* \"ETH - Henry/contracts/SimpleBank.sol\":1909:1914  admin */\n      0x01\n      0x00\n      swap1\n      sload\n      swap1\n      0x0100\n      exp\n      swap1\n      div\n      0xffffffffffffffffffffffffffffffffffffffff\n      and\n        /* \"ETH - Henry/contracts/SimpleBank.sol\":1895:1914  msg.sender == admin */\n      0xffffffffffffffffffffffffffffffffffffffff\n      and\n        /* \"ETH - Henry/contracts/SimpleBank.sol\":1895:1905  msg.sender */\n      caller\n        /* \"ETH - Henry/contracts/SimpleBank.sol\":1895:1914  msg.sender == admin */\n      0xffffffffffffffffffffffffffffffffffffffff\n      and\n      eq\n        /* \"ETH - Henry/contracts/SimpleBank.sol\":1887:1929  require(msg.sender == admin, \"Solo admin\") */\n      tag_103\n      jumpi\n      mload(0x40)\n      0x08c379a000000000000000000000000000000000000000000000000000000000\n      dup2\n      mstore\n      0x04\n      add\n      tag_104\n      swap1\n      tag_105\n      jump\t// in\n    tag_104:\n      mload(0x40)\n      dup1\n      swap2\n      sub\n      swap1\n      revert\n    tag_103:\n        /* \"ETH - Henry/contracts/SimpleBank.sol\":5756:5763  _amount */\n      dup1\n        /* \"ETH - Henry/contracts/SimpleBank.sol\":5741:5752  fundBalance */\n      sload(0x04)\n        /* \"ETH - Henry/contracts/SimpleBank.sol\":5741:5763  fundBalance >= _amount */\n      lt\n      iszero\n        /* \"ETH - Henry/contracts/SimpleBank.sol\":5733:5798  require(fundBalance >= _amount, \"Fondos insuficientes en cuenta\") */\n      tag_107\n      jumpi\n      mload(0x40)\n      0x08c379a000000000000000000000000000000000000000000000000000000000\n      dup2\n      mstore\n      0x04\n      add\n      tag_108\n      swap1\n      tag_109\n      jump\t// in\n    tag_108:\n      mload(0x40)\n      dup1\n      swap2\n      sub\n      swap1\n      revert\n    tag_107:\n        /* \"ETH - Henry/contracts/SimpleBank.sol\":5971:5978  _amount */\n      dup1\n        /* \"ETH - Henry/contracts/SimpleBank.sol\":5956:5967  fundBalance */\n      0x04\n      0x00\n        /* \"ETH - Henry/contracts/SimpleBank.sol\":5956:5978  fundBalance -= _amount */\n      dup3\n      dup3\n      sload\n      tag_110\n      swap2\n      swap1\n      tag_66\n      jump\t// in\n    tag_110:\n      swap3\n      pop\n      pop\n      dup2\n      swap1\n      sstore\n      pop\n        /* \"ETH - Henry/contracts/SimpleBank.sol\":5997:6007  msg.sender */\n      caller\n        /* \"ETH - Henry/contracts/SimpleBank.sol\":5989:6017  payable(msg.sender).transfer */\n      0xffffffffffffffffffffffffffffffffffffffff\n      and\n        /* \"ETH - Henry/contracts/SimpleBank.sol\":5989:6026  payable(msg.sender).transfer(_amount) */\n      0x08fc\n        /* \"ETH - Henry/contracts/SimpleBank.sol\":6018:6025  _amount */\n      dup3\n        /* \"ETH - Henry/contracts/SimpleBank.sol\":5989:6026  payable(msg.sender).transfer(_amount) */\n      swap1\n      dup2\n      iszero\n      mul\n      swap1\n      mload(0x40)\n      0x00\n      mload(0x40)\n      dup1\n      dup4\n      sub\n      dup2\n      dup6\n      dup9\n      dup9\n      call\n      swap4\n      pop\n      pop\n      pop\n      pop\n      iszero\n      dup1\n      iszero\n      tag_112\n      jumpi\n      returndatasize\n      0x00\n      dup1\n      returndatacopy\n      revert(0x00, returndatasize)\n    tag_112:\n      pop\n        /* \"ETH - Henry/contracts/SimpleBank.sol\":6128:6133  admin */\n      0x01\n      0x00\n      swap1\n      sload\n      swap1\n      0x0100\n      exp\n      swap1\n      div\n      0xffffffffffffffffffffffffffffffffffffffff\n      and\n        /* \"ETH - Henry/contracts/SimpleBank.sol\":6114:6143  FundWithdrawn(admin, _amount) */\n      0xffffffffffffffffffffffffffffffffffffffff\n      and\n      0xa692503bc54c9f1d1483729b6058a24987097ff492084b1a8adf8cae08e4fb43\n        /* \"ETH - Henry/contracts/SimpleBank.sol\":6135:6142  _amount */\n      dup3\n        /* \"ETH - Henry/contracts/SimpleBank.sol\":6114:6143  FundWithdrawn(admin, _amount) */\n      mload(0x40)\n      tag_113\n      swap2\n      swap1\n      tag_16\n      jump\t// in\n    tag_113:\n      mload(0x40)\n      dup1\n      swap2\n      sub\n      swap1\n      log2\n        /* \"ETH - Henry/contracts/SimpleBank.sol\":5663:6151  function retrieveFunds(uint256 _amount) external onlyAdmin {... */\n      pop\n      jump\t// out\n        /* \"#utility.yul\":7:84   */\n    tag_114:\n        /* \"#utility.yul\":44:51   */\n      0x00\n        /* \"#utility.yul\":73:78   */\n      dup2\n        /* \"#utility.yul\":62:78   */\n      swap1\n      pop\n        /* \"#utility.yul\":7:84   */\n      swap2\n      swap1\n      pop\n      jump\t// out\n        /* \"#utility.yul\":90:208   */\n    tag_115:\n        /* \"#utility.yul\":177:201   */\n      tag_174\n        /* \"#utility.yul\":195:200   */\n      dup2\n        /* \"#utility.yul\":177:201   */\n      tag_114\n      jump\t// in\n    tag_174:\n        /* \"#utility.yul\":172:175   */\n      dup3\n        /* \"#utility.yul\":165:202   */\n      mstore\n        /* \"#utility.yul\":90:208   */\n      pop\n      pop\n      jump\t// out\n        /* \"#utility.yul\":214:436   */\n    tag_16:\n        /* \"#utility.yul\":307:311   */\n      0x00\n        /* \"#utility.yul\":345:347   */\n      0x20\n        /* \"#utility.yul\":334:343   */\n      dup3\n        /* \"#utility.yul\":330:348   */\n      add\n        /* \"#utility.yul\":322:348   */\n      swap1\n      pop\n        /* \"#utility.yul\":358:429   */\n      tag_176\n        /* \"#utility.yul\":426:427   */\n      0x00\n        /* \"#utility.yul\":415:424   */\n      dup4\n        /* \"#utility.yul\":411:428   */\n      add\n        /* \"#utility.yul\":402:408   */\n      dup5\n        /* \"#utility.yul\":358:429   */\n      tag_115\n      jump\t// in\n    tag_176:\n        /* \"#utility.yul\":214:436   */\n      swap3\n      swap2\n      pop\n      pop\n      jump\t// out\n        /* \"#utility.yul\":523:640   */\n    tag_117:\n        /* \"#utility.yul\":632:633   */\n      0x00\n        /* \"#utility.yul\":629:630   */\n      dup1\n        /* \"#utility.yul\":622:634   */\n      revert\n        /* \"#utility.yul\":646:763   */\n    tag_118:\n        /* \"#utility.yul\":755:756   */\n      0x00\n        /* \"#utility.yul\":752:753   */\n      dup1\n        /* \"#utility.yul\":745:757   */\n      revert\n        /* \"#utility.yul\":769:891   */\n    tag_119:\n        /* \"#utility.yul\":842:866   */\n      tag_181\n        /* \"#utility.yul\":860:865   */\n      dup2\n        /* \"#utility.yul\":842:866   */\n      tag_114\n      jump\t// in\n    tag_181:\n        /* \"#utility.yul\":835:840   */\n      dup2\n        /* \"#utility.yul\":832:867   */\n      eq\n        /* \"#utility.yul\":822:885   */\n      tag_182\n      jumpi\n        /* \"#utility.yul\":881:882   */\n      0x00\n        /* \"#utility.yul\":878:879   */\n      dup1\n        /* \"#utility.yul\":871:883   */\n      revert\n        /* \"#utility.yul\":822:885   */\n    tag_182:\n        /* \"#utility.yul\":769:891   */\n      pop\n      jump\t// out\n        /* \"#utility.yul\":897:1036   */\n    tag_120:\n        /* \"#utility.yul\":943:948   */\n      0x00\n        /* \"#utility.yul\":981:987   */\n      dup2\n        /* \"#utility.yul\":968:988   */\n      calldataload\n        /* \"#utility.yul\":959:988   */\n      swap1\n      pop\n        /* \"#utility.yul\":997:1030   */\n      tag_184\n        /* \"#utility.yul\":1024:1029   */\n      dup2\n        /* \"#utility.yul\":997:1030   */\n      tag_119\n      jump\t// in\n    tag_184:\n        /* \"#utility.yul\":897:1036   */\n      swap3\n      swap2\n      pop\n      pop\n      jump\t// out\n        /* \"#utility.yul\":1042:1371   */\n    tag_20:\n        /* \"#utility.yul\":1101:1107   */\n      0x00\n        /* \"#utility.yul\":1150:1152   */\n      0x20\n        /* \"#utility.yul\":1138:1147   */\n      dup3\n        /* \"#utility.yul\":1129:1136   */\n      dup5\n        /* \"#utility.yul\":1125:1148   */\n      sub\n        /* \"#utility.yul\":1121:1153   */\n      slt\n        /* \"#utility.yul\":1118:1237   */\n      iszero\n      tag_186\n      jumpi\n        /* \"#utility.yul\":1156:1235   */\n      tag_187\n      tag_117\n      jump\t// in\n    tag_187:\n        /* \"#utility.yul\":1118:1237   */\n    tag_186:\n        /* \"#utility.yul\":1276:1277   */\n      0x00\n        /* \"#utility.yul\":1301:1354   */\n      tag_188\n        /* \"#utility.yul\":1346:1353   */\n      dup5\n        /* \"#utility.yul\":1337:1343   */\n      dup3\n        /* \"#utility.yul\":1326:1335   */\n      dup6\n        /* \"#utility.yul\":1322:1344   */\n      add\n        /* \"#utility.yul\":1301:1354   */\n      tag_120\n      jump\t// in\n    tag_188:\n        /* \"#utility.yul\":1291:1354   */\n      swap2\n      pop\n        /* \"#utility.yul\":1247:1364   */\n      pop\n        /* \"#utility.yul\":1042:1371   */\n      swap3\n      swap2\n      pop\n      pop\n      jump\t// out\n        /* \"#utility.yul\":1377:1494   */\n    tag_121:\n        /* \"#utility.yul\":1486:1487   */\n      0x00\n        /* \"#utility.yul\":1483:1484   */\n      dup1\n        /* \"#utility.yul\":1476:1488   */\n      revert\n        /* \"#utility.yul\":1500:1617   */\n    tag_122:\n        /* \"#utility.yul\":1609:1610   */\n      0x00\n        /* \"#utility.yul\":1606:1607   */\n      dup1\n        /* \"#utility.yul\":1599:1611   */\n      revert\n        /* \"#utility.yul\":1623:1740   */\n    tag_123:\n        /* \"#utility.yul\":1732:1733   */\n      0x00\n        /* \"#utility.yul\":1729:1730   */\n      dup1\n        /* \"#utility.yul\":1722:1734   */\n      revert\n        /* \"#utility.yul\":1760:2313   */\n    tag_124:\n        /* \"#utility.yul\":1818:1826   */\n      0x00\n        /* \"#utility.yul\":1828:1834   */\n      dup1\n        /* \"#utility.yul\":1878:1881   */\n      dup4\n        /* \"#utility.yul\":1871:1875   */\n      0x1f\n        /* \"#utility.yul\":1863:1869   */\n      dup5\n        /* \"#utility.yul\":1859:1876   */\n      add\n        /* \"#utility.yul\":1855:1882   */\n      slt\n        /* \"#utility.yul\":1845:1967   */\n      tag_193\n      jumpi\n        /* \"#utility.yul\":1886:1965   */\n      tag_194\n      tag_121\n      jump\t// in\n    tag_194:\n        /* \"#utility.yul\":1845:1967   */\n    tag_193:\n        /* \"#utility.yul\":1999:2005   */\n      dup3\n        /* \"#utility.yul\":1986:2006   */\n      calldataload\n        /* \"#utility.yul\":1976:2006   */\n      swap1\n      pop\n        /* \"#utility.yul\":2029:2047   */\n      0xffffffffffffffff\n        /* \"#utility.yul\":2021:2027   */\n      dup2\n        /* \"#utility.yul\":2018:2048   */\n      gt\n        /* \"#utility.yul\":2015:2132   */\n      iszero\n      tag_195\n      jumpi\n        /* \"#utility.yul\":2051:2130   */\n      tag_196\n      tag_122\n      jump\t// in\n    tag_196:\n        /* \"#utility.yul\":2015:2132   */\n    tag_195:\n        /* \"#utility.yul\":2165:2169   */\n      0x20\n        /* \"#utility.yul\":2157:2163   */\n      dup4\n        /* \"#utility.yul\":2153:2170   */\n      add\n        /* \"#utility.yul\":2141:2170   */\n      swap2\n      pop\n        /* \"#utility.yul\":2219:2222   */\n      dup4\n        /* \"#utility.yul\":2211:2215   */\n      0x01\n        /* \"#utility.yul\":2203:2209   */\n      dup3\n        /* \"#utility.yul\":2199:2216   */\n      mul\n        /* \"#utility.yul\":2189:2197   */\n      dup4\n        /* \"#utility.yul\":2185:2217   */\n      add\n        /* \"#utility.yul\":2182:2223   */\n      gt\n        /* \"#utility.yul\":2179:2307   */\n      iszero\n      tag_197\n      jumpi\n        /* \"#utility.yul\":2226:2305   */\n      tag_198\n      tag_123\n      jump\t// in\n    tag_198:\n        /* \"#utility.yul\":2179:2307   */\n    tag_197:\n        /* \"#utility.yul\":1760:2313   */\n      swap3\n      pop\n      swap3\n      swap1\n      pop\n      jump\t// out\n        /* \"#utility.yul\":2319:3193   */\n    tag_31:\n        /* \"#utility.yul\":2411:2417   */\n      0x00\n        /* \"#utility.yul\":2419:2425   */\n      dup1\n        /* \"#utility.yul\":2427:2433   */\n      0x00\n        /* \"#utility.yul\":2435:2441   */\n      dup1\n        /* \"#utility.yul\":2484:2486   */\n      0x40\n        /* \"#utility.yul\":2472:2481   */\n      dup6\n        /* \"#utility.yul\":2463:2470   */\n      dup8\n        /* \"#utility.yul\":2459:2482   */\n      sub\n        /* \"#utility.yul\":2455:2487   */\n      slt\n        /* \"#utility.yul\":2452:2571   */\n      iszero\n      tag_200\n      jumpi\n        /* \"#utility.yul\":2490:2569   */\n      tag_201\n      tag_117\n      jump\t// in\n    tag_201:\n        /* \"#utility.yul\":2452:2571   */\n    tag_200:\n        /* \"#utility.yul\":2638:2639   */\n      0x00\n        /* \"#utility.yul\":2627:2636   */\n      dup6\n        /* \"#utility.yul\":2623:2640   */\n      add\n        /* \"#utility.yul\":2610:2641   */\n      calldataload\n        /* \"#utility.yul\":2668:2686   */\n      0xffffffffffffffff\n        /* \"#utility.yul\":2660:2666   */\n      dup2\n        /* \"#utility.yul\":2657:2687   */\n      gt\n        /* \"#utility.yul\":2654:2771   */\n      iszero\n      tag_202\n      jumpi\n        /* \"#utility.yul\":2690:2769   */\n      tag_203\n      tag_118\n      jump\t// in\n    tag_203:\n        /* \"#utility.yul\":2654:2771   */\n    tag_202:\n        /* \"#utility.yul\":2803:2868   */\n      tag_204\n        /* \"#utility.yul\":2860:2867   */\n      dup8\n        /* \"#utility.yul\":2851:2857   */\n      dup3\n        /* \"#utility.yul\":2840:2849   */\n      dup9\n        /* \"#utility.yul\":2836:2858   */\n      add\n        /* \"#utility.yul\":2803:2868   */\n      tag_124\n      jump\t// in\n    tag_204:\n        /* \"#utility.yul\":2785:2868   */\n      swap5\n      pop\n      swap5\n      pop\n        /* \"#utility.yul\":2581:2878   */\n      pop\n        /* \"#utility.yul\":2945:2947   */\n      0x20\n        /* \"#utility.yul\":2934:2943   */\n      dup6\n        /* \"#utility.yul\":2930:2948   */\n      add\n        /* \"#utility.yul\":2917:2949   */\n      calldataload\n        /* \"#utility.yul\":2976:2994   */\n      0xffffffffffffffff\n        /* \"#utility.yul\":2968:2974   */\n      dup2\n        /* \"#utility.yul\":2965:2995   */\n      gt\n        /* \"#utility.yul\":2962:3079   */\n      iszero\n      tag_205\n      jumpi\n        /* \"#utility.yul\":2998:3077   */\n      tag_206\n      tag_118\n      jump\t// in\n    tag_206:\n        /* \"#utility.yul\":2962:3079   */\n    tag_205:\n        /* \"#utility.yul\":3111:3176   */\n      tag_207\n        /* \"#utility.yul\":3168:3175   */\n      dup8\n        /* \"#utility.yul\":3159:3165   */\n      dup3\n        /* \"#utility.yul\":3148:3157   */\n      dup9\n        /* \"#utility.yul\":3144:3166   */\n      add\n        /* \"#utility.yul\":3111:3176   */\n      tag_124\n      jump\t// in\n    tag_207:\n        /* \"#utility.yul\":3093:3176   */\n      swap3\n      pop\n      swap3\n      pop\n        /* \"#utility.yul\":2888:3186   */\n      pop\n        /* \"#utility.yul\":2319:3193   */\n      swap3\n      swap6\n      swap2\n      swap5\n      pop\n      swap3\n      pop\n      jump\t// out\n        /* \"#utility.yul\":3199:3325   */\n    tag_125:\n        /* \"#utility.yul\":3236:3243   */\n      0x00\n        /* \"#utility.yul\":3276:3318   */\n      0xffffffffffffffffffffffffffffffffffffffff\n        /* \"#utility.yul\":3269:3274   */\n      dup3\n        /* \"#utility.yul\":3265:3319   */\n      and\n        /* \"#utility.yul\":3254:3319   */\n      swap1\n      pop\n        /* \"#utility.yul\":3199:3325   */\n      swap2\n      swap1\n      pop\n      jump\t// out\n        /* \"#utility.yul\":3331:3427   */\n    tag_126:\n        /* \"#utility.yul\":3368:3375   */\n      0x00\n        /* \"#utility.yul\":3397:3421   */\n      tag_210\n        /* \"#utility.yul\":3415:3420   */\n      dup3\n        /* \"#utility.yul\":3397:3421   */\n      tag_125\n      jump\t// in\n    tag_210:\n        /* \"#utility.yul\":3386:3421   */\n      swap1\n      pop\n        /* \"#utility.yul\":3331:3427   */\n      swap2\n      swap1\n      pop\n      jump\t// out\n        /* \"#utility.yul\":3433:3551   */\n    tag_127:\n        /* \"#utility.yul\":3520:3544   */\n      tag_212\n        /* \"#utility.yul\":3538:3543   */\n      dup2\n        /* \"#utility.yul\":3520:3544   */\n      tag_126\n      jump\t// in\n    tag_212:\n        /* \"#utility.yul\":3515:3518   */\n      dup3\n        /* \"#utility.yul\":3508:3545   */\n      mstore\n        /* \"#utility.yul\":3433:3551   */\n      pop\n      pop\n      jump\t// out\n        /* \"#utility.yul\":3557:3779   */\n    tag_41:\n        /* \"#utility.yul\":3650:3654   */\n      0x00\n        /* \"#utility.yul\":3688:3690   */\n      0x20\n        /* \"#utility.yul\":3677:3686   */\n      dup3\n        /* \"#utility.yul\":3673:3691   */\n      add\n        /* \"#utility.yul\":3665:3691   */\n      swap1\n      pop\n        /* \"#utility.yul\":3701:3772   */\n      tag_214\n        /* \"#utility.yul\":3769:3770   */\n      0x00\n        /* \"#utility.yul\":3758:3767   */\n      dup4\n        /* \"#utility.yul\":3754:3771   */\n      add\n        /* \"#utility.yul\":3745:3751   */\n      dup5\n        /* \"#utility.yul\":3701:3772   */\n      tag_127\n      jump\t// in\n    tag_214:\n        /* \"#utility.yul\":3557:3779   */\n      swap3\n      swap2\n      pop\n      pop\n      jump\t// out\n        /* \"#utility.yul\":3785:3954   */\n    tag_128:\n        /* \"#utility.yul\":3869:3880   */\n      0x00\n        /* \"#utility.yul\":3903:3909   */\n      dup3\n        /* \"#utility.yul\":3898:3901   */\n      dup3\n        /* \"#utility.yul\":3891:3910   */\n      mstore\n        /* \"#utility.yul\":3943:3947   */\n      0x20\n        /* \"#utility.yul\":3938:3941   */\n      dup3\n        /* \"#utility.yul\":3934:3948   */\n      add\n        /* \"#utility.yul\":3919:3948   */\n      swap1\n      pop\n        /* \"#utility.yul\":3785:3954   */\n      swap3\n      swap2\n      pop\n      pop\n      jump\t// out\n        /* \"#utility.yul\":3960:4123   */\n    tag_129:\n        /* \"#utility.yul\":4100:4115   */\n      0x4e6f207265676973747261646f00000000000000000000000000000000000000\n        /* \"#utility.yul\":4096:4097   */\n      0x00\n        /* \"#utility.yul\":4088:4094   */\n      dup3\n        /* \"#utility.yul\":4084:4098   */\n      add\n        /* \"#utility.yul\":4077:4116   */\n      mstore\n        /* \"#utility.yul\":3960:4123   */\n      pop\n      jump\t// out\n        /* \"#utility.yul\":4129:4495   */\n    tag_130:\n        /* \"#utility.yul\":4271:4274   */\n      0x00\n        /* \"#utility.yul\":4292:4359   */\n      tag_218\n        /* \"#utility.yul\":4356:4358   */\n      0x0d\n        /* \"#utility.yul\":4351:4354   */\n      dup4\n        /* \"#utility.yul\":4292:4359   */\n      tag_128\n      jump\t// in\n    tag_218:\n        /* \"#utility.yul\":4285:4359   */\n      swap2\n      pop\n        /* \"#utility.yul\":4368:4461   */\n      tag_219\n        /* \"#utility.yul\":4457:4460   */\n      dup3\n        /* \"#utility.yul\":4368:4461   */\n      tag_129\n      jump\t// in\n    tag_219:\n        /* \"#utility.yul\":4486:4488   */\n      0x20\n        /* \"#utility.yul\":4481:4484   */\n      dup3\n        /* \"#utility.yul\":4477:4489   */\n      add\n        /* \"#utility.yul\":4470:4489   */\n      swap1\n      pop\n        /* \"#utility.yul\":4129:4495   */\n      swap2\n      swap1\n      pop\n      jump\t// out\n        /* \"#utility.yul\":4501:4920   */\n    tag_53:\n        /* \"#utility.yul\":4667:4671   */\n      0x00\n        /* \"#utility.yul\":4705:4707   */\n      0x20\n        /* \"#utility.yul\":4694:4703   */\n      dup3\n        /* \"#utility.yul\":4690:4708   */\n      add\n        /* \"#utility.yul\":4682:4708   */\n      swap1\n      pop\n        /* \"#utility.yul\":4754:4763   */\n      dup2\n        /* \"#utility.yul\":4748:4752   */\n      dup2\n        /* \"#utility.yul\":4744:4764   */\n      sub\n        /* \"#utility.yul\":4740:4741   */\n      0x00\n        /* \"#utility.yul\":4729:4738   */\n      dup4\n        /* \"#utility.yul\":4725:4742   */\n      add\n        /* \"#utility.yul\":4718:4765   */\n      mstore\n        /* \"#utility.yul\":4782:4913   */\n      tag_221\n        /* \"#utility.yul\":4908:4912   */\n      dup2\n        /* \"#utility.yul\":4782:4913   */\n      tag_130\n      jump\t// in\n    tag_221:\n        /* \"#utility.yul\":4774:4913   */\n      swap1\n      pop\n        /* \"#utility.yul\":4501:4920   */\n      swap2\n      swap1\n      pop\n      jump\t// out\n        /* \"#utility.yul\":4926:5099   */\n    tag_131:\n        /* \"#utility.yul\":5066:5091   */\n      0x4d6f6e746f20646562652073657220706f73697469766f000000000000000000\n        /* \"#utility.yul\":5062:5063   */\n      0x00\n        /* \"#utility.yul\":5054:5060   */\n      dup3\n        /* \"#utility.yul\":5050:5064   */\n      add\n        /* \"#utility.yul\":5043:5092   */\n      mstore\n        /* \"#utility.yul\":4926:5099   */\n      pop\n      jump\t// out\n        /* \"#utility.yul\":5105:5471   */\n    tag_132:\n        /* \"#utility.yul\":5247:5250   */\n      0x00\n        /* \"#utility.yul\":5268:5335   */\n      tag_224\n        /* \"#utility.yul\":5332:5334   */\n      0x17\n        /* \"#utility.yul\":5327:5330   */\n      dup4\n        /* \"#utility.yul\":5268:5335   */\n      tag_128\n      jump\t// in\n    tag_224:\n        /* \"#utility.yul\":5261:5335   */\n      swap2\n      pop\n        /* \"#utility.yul\":5344:5437   */\n      tag_225\n        /* \"#utility.yul\":5433:5436   */\n      dup3\n        /* \"#utility.yul\":5344:5437   */\n      tag_131\n      jump\t// in\n    tag_225:\n        /* \"#utility.yul\":5462:5464   */\n      0x20\n        /* \"#utility.yul\":5457:5460   */\n      dup3\n        /* \"#utility.yul\":5453:5465   */\n      add\n        /* \"#utility.yul\":5446:5465   */\n      swap1\n      pop\n        /* \"#utility.yul\":5105:5471   */\n      swap2\n      swap1\n      pop\n      jump\t// out\n        /* \"#utility.yul\":5477:5896   */\n    tag_57:\n        /* \"#utility.yul\":5643:5647   */\n      0x00\n        /* \"#utility.yul\":5681:5683   */\n      0x20\n        /* \"#utility.yul\":5670:5679   */\n      dup3\n        /* \"#utility.yul\":5666:5684   */\n      add\n        /* \"#utility.yul\":5658:5684   */\n      swap1\n      pop\n        /* \"#utility.yul\":5730:5739   */\n      dup2\n        /* \"#utility.yul\":5724:5728   */\n      dup2\n        /* \"#utility.yul\":5720:5740   */\n      sub\n        /* \"#utility.yul\":5716:5717   */\n      0x00\n        /* \"#utility.yul\":5705:5714   */\n      dup4\n        /* \"#utility.yul\":5701:5718   */\n      add\n        /* \"#utility.yul\":5694:5741   */\n      mstore\n        /* \"#utility.yul\":5758:5889   */\n      tag_227\n        /* \"#utility.yul\":5884:5888   */\n      dup2\n        /* \"#utility.yul\":5758:5889   */\n      tag_132\n      jump\t// in\n    tag_227:\n        /* \"#utility.yul\":5750:5889   */\n      swap1\n      pop\n        /* \"#utility.yul\":5477:5896   */\n      swap2\n      swap1\n      pop\n      jump\t// out\n        /* \"#utility.yul\":5902:6072   */\n    tag_133:\n        /* \"#utility.yul\":6042:6064   */\n      0x466f6e646f7320696e737566696369656e746573000000000000000000000000\n        /* \"#utility.yul\":6038:6039   */\n      0x00\n        /* \"#utility.yul\":6030:6036   */\n      dup3\n        /* \"#utility.yul\":6026:6040   */\n      add\n        /* \"#utility.yul\":6019:6065   */\n      mstore\n        /* \"#utility.yul\":5902:6072   */\n      pop\n      jump\t// out\n        /* \"#utility.yul\":6078:6444   */\n    tag_134:\n        /* \"#utility.yul\":6220:6223   */\n      0x00\n        /* \"#utility.yul\":6241:6308   */\n      tag_230\n        /* \"#utility.yul\":6305:6307   */\n      0x14\n        /* \"#utility.yul\":6300:6303   */\n      dup4\n        /* \"#utility.yul\":6241:6308   */\n      tag_128\n      jump\t// in\n    tag_230:\n        /* \"#utility.yul\":6234:6308   */\n      swap2\n      pop\n        /* \"#utility.yul\":6317:6410   */\n      tag_231\n        /* \"#utility.yul\":6406:6409   */\n      dup3\n        /* \"#utility.yul\":6317:6410   */\n      tag_133\n      jump\t// in\n    tag_231:\n        /* \"#utility.yul\":6435:6437   */\n      0x20\n        /* \"#utility.yul\":6430:6433   */\n      dup3\n        /* \"#utility.yul\":6426:6438   */\n      add\n        /* \"#utility.yul\":6419:6438   */\n      swap1\n      pop\n        /* \"#utility.yul\":6078:6444   */\n      swap2\n      swap1\n      pop\n      jump\t// out\n        /* \"#utility.yul\":6450:6869   */\n    tag_60:\n        /* \"#utility.yul\":6616:6620   */\n      0x00\n        /* \"#utility.yul\":6654:6656   */\n      0x20\n        /* \"#utility.yul\":6643:6652   */\n      dup3\n        /* \"#utility.yul\":6639:6657   */\n      add\n        /* \"#utility.yul\":6631:6657   */\n      swap1\n      pop\n        /* \"#utility.yul\":6703:6712   */\n      dup2\n        /* \"#utility.yul\":6697:6701   */\n      dup2\n        /* \"#utility.yul\":6693:6713   */\n      sub\n        /* \"#utility.yul\":6689:6690   */\n      0x00\n        /* \"#utility.yul\":6678:6687   */\n      dup4\n        /* \"#utility.yul\":6674:6691   */\n      add\n        /* \"#utility.yul\":6667:6714   */\n      mstore\n        /* \"#utility.yul\":6731:6862   */\n      tag_233\n        /* \"#utility.yul\":6857:6861   */\n      dup2\n        /* \"#utility.yul\":6731:6862   */\n      tag_134\n      jump\t// in\n    tag_233:\n        /* \"#utility.yul\":6723:6862   */\n      swap1\n      pop\n        /* \"#utility.yul\":6450:6869   */\n      swap2\n      swap1\n      pop\n      jump\t// out\n        /* \"#utility.yul\":6875:7055   */\n    tag_135:\n        /* \"#utility.yul\":6923:7000   */\n      0x4e487b7100000000000000000000000000000000000000000000000000000000\n        /* \"#utility.yul\":6920:6921   */\n      0x00\n        /* \"#utility.yul\":6913:7001   */\n      mstore\n        /* \"#utility.yul\":7020:7024   */\n      0x11\n        /* \"#utility.yul\":7017:7018   */\n      0x04\n        /* \"#utility.yul\":7010:7025   */\n      mstore\n        /* \"#utility.yul\":7044:7048   */\n      0x24\n        /* \"#utility.yul\":7041:7042   */\n      0x00\n        /* \"#utility.yul\":7034:7049   */\n      revert\n        /* \"#utility.yul\":7061:7471   */\n    tag_62:\n        /* \"#utility.yul\":7101:7108   */\n      0x00\n        /* \"#utility.yul\":7124:7144   */\n      tag_236\n        /* \"#utility.yul\":7142:7143   */\n      dup3\n        /* \"#utility.yul\":7124:7144   */\n      tag_114\n      jump\t// in\n    tag_236:\n        /* \"#utility.yul\":7119:7144   */\n      swap2\n      pop\n        /* \"#utility.yul\":7158:7178   */\n      tag_237\n        /* \"#utility.yul\":7176:7177   */\n      dup4\n        /* \"#utility.yul\":7158:7178   */\n      tag_114\n      jump\t// in\n    tag_237:\n        /* \"#utility.yul\":7153:7178   */\n      swap3\n      pop\n        /* \"#utility.yul\":7213:7214   */\n      dup3\n        /* \"#utility.yul\":7210:7211   */\n      dup3\n        /* \"#utility.yul\":7206:7215   */\n      mul\n        /* \"#utility.yul\":7235:7265   */\n      tag_238\n        /* \"#utility.yul\":7253:7264   */\n      dup2\n        /* \"#utility.yul\":7235:7265   */\n      tag_114\n      jump\t// in\n    tag_238:\n        /* \"#utility.yul\":7224:7265   */\n      swap2\n      pop\n        /* \"#utility.yul\":7414:7415   */\n      dup3\n        /* \"#utility.yul\":7405:7412   */\n      dup3\n        /* \"#utility.yul\":7401:7416   */\n      div\n        /* \"#utility.yul\":7398:7399   */\n      dup5\n        /* \"#utility.yul\":7395:7417   */\n      eq\n        /* \"#utility.yul\":7375:7376   */\n      dup4\n        /* \"#utility.yul\":7368:7377   */\n      iszero\n        /* \"#utility.yul\":7348:7431   */\n      or\n        /* \"#utility.yul\":7325:7464   */\n      tag_239\n      jumpi\n        /* \"#utility.yul\":7444:7462   */\n      tag_240\n      tag_135\n      jump\t// in\n    tag_240:\n        /* \"#utility.yul\":7325:7464   */\n    tag_239:\n        /* \"#utility.yul\":7109:7471   */\n      pop\n        /* \"#utility.yul\":7061:7471   */\n      swap3\n      swap2\n      pop\n      pop\n      jump\t// out\n        /* \"#utility.yul\":7477:7657   */\n    tag_136:\n        /* \"#utility.yul\":7525:7602   */\n      0x4e487b7100000000000000000000000000000000000000000000000000000000\n        /* \"#utility.yul\":7522:7523   */\n      0x00\n        /* \"#utility.yul\":7515:7603   */\n      mstore\n        /* \"#utility.yul\":7622:7626   */\n      0x12\n        /* \"#utility.yul\":7619:7620   */\n      0x04\n        /* \"#utility.yul\":7612:7627   */\n      mstore\n        /* \"#utility.yul\":7646:7650   */\n      0x24\n        /* \"#utility.yul\":7643:7644   */\n      0x00\n        /* \"#utility.yul\":7636:7651   */\n      revert\n        /* \"#utility.yul\":7663:7848   */\n    tag_64:\n        /* \"#utility.yul\":7703:7704   */\n      0x00\n        /* \"#utility.yul\":7720:7740   */\n      tag_243\n        /* \"#utility.yul\":7738:7739   */\n      dup3\n        /* \"#utility.yul\":7720:7740   */\n      tag_114\n      jump\t// in\n    tag_243:\n        /* \"#utility.yul\":7715:7740   */\n      swap2\n      pop\n        /* \"#utility.yul\":7754:7774   */\n      tag_244\n        /* \"#utility.yul\":7772:7773   */\n      dup4\n        /* \"#utility.yul\":7754:7774   */\n      tag_114\n      jump\t// in\n    tag_244:\n        /* \"#utility.yul\":7749:7774   */\n      swap3\n      pop\n        /* \"#utility.yul\":7793:7794   */\n      dup3\n        /* \"#utility.yul\":7783:7818   */\n      tag_245\n      jumpi\n        /* \"#utility.yul\":7798:7816   */\n      tag_246\n      tag_136\n      jump\t// in\n    tag_246:\n        /* \"#utility.yul\":7783:7818   */\n    tag_245:\n        /* \"#utility.yul\":7840:7841   */\n      dup3\n        /* \"#utility.yul\":7837:7838   */\n      dup3\n        /* \"#utility.yul\":7833:7842   */\n      div\n        /* \"#utility.yul\":7828:7842   */\n      swap1\n      pop\n        /* \"#utility.yul\":7663:7848   */\n      swap3\n      swap2\n      pop\n      pop\n      jump\t// out\n        /* \"#utility.yul\":7854:8048   */\n    tag_66:\n        /* \"#utility.yul\":7894:7898   */\n      0x00\n        /* \"#utility.yul\":7914:7934   */\n      tag_248\n        /* \"#utility.yul\":7932:7933   */\n      dup3\n        /* \"#utility.yul\":7914:7934   */\n      tag_114\n      jump\t// in\n    tag_248:\n        /* \"#utility.yul\":7909:7934   */\n      swap2\n      pop\n        /* \"#utility.yul\":7948:7968   */\n      tag_249\n        /* \"#utility.yul\":7966:7967   */\n      dup4\n        /* \"#utility.yul\":7948:7968   */\n      tag_114\n      jump\t// in\n    tag_249:\n        /* \"#utility.yul\":7943:7968   */\n      swap3\n      pop\n        /* \"#utility.yul\":7992:7993   */\n      dup3\n        /* \"#utility.yul\":7989:7990   */\n      dup3\n        /* \"#utility.yul\":7985:7994   */\n      sub\n        /* \"#utility.yul\":7977:7994   */\n      swap1\n      pop\n        /* \"#utility.yul\":8016:8017   */\n      dup2\n        /* \"#utility.yul\":8010:8014   */\n      dup2\n        /* \"#utility.yul\":8007:8018   */\n      gt\n        /* \"#utility.yul\":8004:8041   */\n      iszero\n      tag_250\n      jumpi\n        /* \"#utility.yul\":8021:8039   */\n      tag_251\n      tag_135\n      jump\t// in\n    tag_251:\n        /* \"#utility.yul\":8004:8041   */\n    tag_250:\n        /* \"#utility.yul\":7854:8048   */\n      swap3\n      swap2\n      pop\n      pop\n      jump\t// out\n        /* \"#utility.yul\":8054:8245   */\n    tag_69:\n        /* \"#utility.yul\":8094:8097   */\n      0x00\n        /* \"#utility.yul\":8113:8133   */\n      tag_253\n        /* \"#utility.yul\":8131:8132   */\n      dup3\n        /* \"#utility.yul\":8113:8133   */\n      tag_114\n      jump\t// in\n    tag_253:\n        /* \"#utility.yul\":8108:8133   */\n      swap2\n      pop\n        /* \"#utility.yul\":8147:8167   */\n      tag_254\n        /* \"#utility.yul\":8165:8166   */\n      dup4\n        /* \"#utility.yul\":8147:8167   */\n      tag_114\n      jump\t// in\n    tag_254:\n        /* \"#utility.yul\":8142:8167   */\n      swap3\n      pop\n        /* \"#utility.yul\":8190:8191   */\n      dup3\n        /* \"#utility.yul\":8187:8188   */\n      dup3\n        /* \"#utility.yul\":8183:8192   */\n      add\n        /* \"#utility.yul\":8176:8192   */\n      swap1\n      pop\n        /* \"#utility.yul\":8211:8214   */\n      dup1\n        /* \"#utility.yul\":8208:8209   */\n      dup3\n        /* \"#utility.yul\":8205:8215   */\n      gt\n        /* \"#utility.yul\":8202:8238   */\n      iszero\n      tag_255\n      jumpi\n        /* \"#utility.yul\":8218:8236   */\n      tag_256\n      tag_135\n      jump\t// in\n    tag_256:\n        /* \"#utility.yul\":8202:8238   */\n    tag_255:\n        /* \"#utility.yul\":8054:8245   */\n      swap3\n      swap2\n      pop\n      pop\n      jump\t// out\n        /* \"#utility.yul\":8251:8583   */\n    tag_73:\n        /* \"#utility.yul\":8372:8376   */\n      0x00\n        /* \"#utility.yul\":8410:8412   */\n      0x40\n        /* \"#utility.yul\":8399:8408   */\n      dup3\n        /* \"#utility.yul\":8395:8413   */\n      add\n        /* \"#utility.yul\":8387:8413   */\n      swap1\n      pop\n        /* \"#utility.yul\":8423:8494   */\n      tag_258\n        /* \"#utility.yul\":8491:8492   */\n      0x00\n        /* \"#utility.yul\":8480:8489   */\n      dup4\n        /* \"#utility.yul\":8476:8493   */\n      add\n        /* \"#utility.yul\":8467:8473   */\n      dup6\n        /* \"#utility.yul\":8423:8494   */\n      tag_115\n      jump\t// in\n    tag_258:\n        /* \"#utility.yul\":8504:8576   */\n      tag_259\n        /* \"#utility.yul\":8572:8574   */\n      0x20\n        /* \"#utility.yul\":8561:8570   */\n      dup4\n        /* \"#utility.yul\":8557:8575   */\n      add\n        /* \"#utility.yul\":8548:8554   */\n      dup5\n        /* \"#utility.yul\":8504:8576   */\n      tag_115\n      jump\t// in\n    tag_259:\n        /* \"#utility.yul\":8251:8583   */\n      swap4\n      swap3\n      pop\n      pop\n      pop\n      jump\t// out\n        /* \"#utility.yul\":8589:8766   */\n    tag_137:\n        /* \"#utility.yul\":8729:8758   */\n      0x4d6f6e746f206465626520736572206d61796f722061206365726f0000000000\n        /* \"#utility.yul\":8725:8726   */\n      0x00\n        /* \"#utility.yul\":8717:8723   */\n      dup3\n        /* \"#utility.yul\":8713:8727   */\n      add\n        /* \"#utility.yul\":8706:8759   */\n      mstore\n        /* \"#utility.yul\":8589:8766   */\n      pop\n      jump\t// out\n        /* \"#utility.yul\":8772:9138   */\n    tag_138:\n        /* \"#utility.yul\":8914:8917   */\n      0x00\n        /* \"#utility.yul\":8935:9002   */\n      tag_262\n        /* \"#utility.yul\":8999:9001   */\n      0x1b\n        /* \"#utility.yul\":8994:8997   */\n      dup4\n        /* \"#utility.yul\":8935:9002   */\n      tag_128\n      jump\t// in\n    tag_262:\n        /* \"#utility.yul\":8928:9002   */\n      swap2\n      pop\n        /* \"#utility.yul\":9011:9104   */\n      tag_263\n        /* \"#utility.yul\":9100:9103   */\n      dup3\n        /* \"#utility.yul\":9011:9104   */\n      tag_137\n      jump\t// in\n    tag_263:\n        /* \"#utility.yul\":9129:9131   */\n      0x20\n        /* \"#utility.yul\":9124:9127   */\n      dup3\n        /* \"#utility.yul\":9120:9132   */\n      add\n        /* \"#utility.yul\":9113:9132   */\n      swap1\n      pop\n        /* \"#utility.yul\":8772:9138   */\n      swap2\n      swap1\n      pop\n      jump\t// out\n        /* \"#utility.yul\":9144:9563   */\n    tag_80:\n        /* \"#utility.yul\":9310:9314   */\n      0x00\n        /* \"#utility.yul\":9348:9350   */\n      0x20\n        /* \"#utility.yul\":9337:9346   */\n      dup3\n        /* \"#utility.yul\":9333:9351   */\n      add\n        /* \"#utility.yul\":9325:9351   */\n      swap1\n      pop\n        /* \"#utility.yul\":9397:9406   */\n      dup2\n        /* \"#utility.yul\":9391:9395   */\n      dup2\n        /* \"#utility.yul\":9387:9407   */\n      sub\n        /* \"#utility.yul\":9383:9384   */\n      0x00\n        /* \"#utility.yul\":9372:9381   */\n      dup4\n        /* \"#utility.yul\":9368:9385   */\n      add\n        /* \"#utility.yul\":9361:9408   */\n      mstore\n        /* \"#utility.yul\":9425:9556   */\n      tag_265\n        /* \"#utility.yul\":9551:9555   */\n      dup2\n        /* \"#utility.yul\":9425:9556   */\n      tag_138\n      jump\t// in\n    tag_265:\n        /* \"#utility.yul\":9417:9556   */\n      swap1\n      pop\n        /* \"#utility.yul\":9144:9563   */\n      swap2\n      swap1\n      pop\n      jump\t// out\n        /* \"#utility.yul\":9569:9735   */\n    tag_139:\n        /* \"#utility.yul\":9709:9727   */\n      0x4e6f6d6272652072657175657269646f00000000000000000000000000000000\n        /* \"#utility.yul\":9705:9706   */\n      0x00\n        /* \"#utility.yul\":9697:9703   */\n      dup3\n        /* \"#utility.yul\":9693:9707   */\n      add\n        /* \"#utility.yul\":9686:9728   */\n      mstore\n        /* \"#utility.yul\":9569:9735   */\n      pop\n      jump\t// out\n        /* \"#utility.yul\":9741:10107   */\n    tag_140:\n        /* \"#utility.yul\":9883:9886   */\n      0x00\n        /* \"#utility.yul\":9904:9971   */\n      tag_268\n        /* \"#utility.yul\":9968:9970   */\n      0x10\n        /* \"#utility.yul\":9963:9966   */\n      dup4\n        /* \"#utility.yul\":9904:9971   */\n      tag_128\n      jump\t// in\n    tag_268:\n        /* \"#utility.yul\":9897:9971   */\n      swap2\n      pop\n        /* \"#utility.yul\":9980:10073   */\n      tag_269\n        /* \"#utility.yul\":10069:10072   */\n      dup3\n        /* \"#utility.yul\":9980:10073   */\n      tag_139\n      jump\t// in\n    tag_269:\n        /* \"#utility.yul\":10098:10100   */\n      0x20\n        /* \"#utility.yul\":10093:10096   */\n      dup3\n        /* \"#utility.yul\":10089:10101   */\n      add\n        /* \"#utility.yul\":10082:10101   */\n      swap1\n      pop\n        /* \"#utility.yul\":9741:10107   */\n      swap2\n      swap1\n      pop\n      jump\t// out\n        /* \"#utility.yul\":10113:10532   */\n    tag_86:\n        /* \"#utility.yul\":10279:10283   */\n      0x00\n        /* \"#utility.yul\":10317:10319   */\n      0x20\n        /* \"#utility.yul\":10306:10315   */\n      dup3\n        /* \"#utility.yul\":10302:10320   */\n      add\n        /* \"#utility.yul\":10294:10320   */\n      swap1\n      pop\n        /* \"#utility.yul\":10366:10375   */\n      dup2\n        /* \"#utility.yul\":10360:10364   */\n      dup2\n        /* \"#utility.yul\":10356:10376   */\n      sub\n        /* \"#utility.yul\":10352:10353   */\n      0x00\n        /* \"#utility.yul\":10341:10350   */\n      dup4\n        /* \"#utility.yul\":10337:10354   */\n      add\n        /* \"#utility.yul\":10330:10377   */\n      mstore\n        /* \"#utility.yul\":10394:10525   */\n      tag_271\n        /* \"#utility.yul\":10520:10524   */\n      dup2\n        /* \"#utility.yul\":10394:10525   */\n      tag_140\n      jump\t// in\n    tag_271:\n        /* \"#utility.yul\":10386:10525   */\n      swap1\n      pop\n        /* \"#utility.yul\":10113:10532   */\n      swap2\n      swap1\n      pop\n      jump\t// out\n        /* \"#utility.yul\":10538:10706   */\n    tag_141:\n        /* \"#utility.yul\":10678:10698   */\n      0x4170656c6c69646f2072657175657269646f0000000000000000000000000000\n        /* \"#utility.yul\":10674:10675   */\n      0x00\n        /* \"#utility.yul\":10666:10672   */\n      dup3\n        /* \"#utility.yul\":10662:10676   */\n      add\n        /* \"#utility.yul\":10655:10699   */\n      mstore\n        /* \"#utility.yul\":10538:10706   */\n      pop\n      jump\t// out\n        /* \"#utility.yul\":10712:11078   */\n    tag_142:\n        /* \"#utility.yul\":10854:10857   */\n      0x00\n        /* \"#utility.yul\":10875:10942   */\n      tag_274\n        /* \"#utility.yul\":10939:10941   */\n      0x12\n        /* \"#utility.yul\":10934:10937   */\n      dup4\n        /* \"#utility.yul\":10875:10942   */\n      tag_128\n      jump\t// in\n    tag_274:\n        /* \"#utility.yul\":10868:10942   */\n      swap2\n      pop\n        /* \"#utility.yul\":10951:11044   */\n      tag_275\n        /* \"#utility.yul\":11040:11043   */\n      dup3\n        /* \"#utility.yul\":10951:11044   */\n      tag_141\n      jump\t// in\n    tag_275:\n        /* \"#utility.yul\":11069:11071   */\n      0x20\n        /* \"#utility.yul\":11064:11067   */\n      dup3\n        /* \"#utility.yul\":11060:11072   */\n      add\n        /* \"#utility.yul\":11053:11072   */\n      swap1\n      pop\n        /* \"#utility.yul\":10712:11078   */\n      swap2\n      swap1\n      pop\n      jump\t// out\n        /* \"#utility.yul\":11084:11503   */\n    tag_89:\n        /* \"#utility.yul\":11250:11254   */\n      0x00\n        /* \"#utility.yul\":11288:11290   */\n      0x20\n        /* \"#utility.yul\":11277:11286   */\n      dup3\n        /* \"#utility.yul\":11273:11291   */\n      add\n        /* \"#utility.yul\":11265:11291   */\n      swap1\n      pop\n        /* \"#utility.yul\":11337:11346   */\n      dup2\n        /* \"#utility.yul\":11331:11335   */\n      dup2\n        /* \"#utility.yul\":11327:11347   */\n      sub\n        /* \"#utility.yul\":11323:11324   */\n      0x00\n        /* \"#utility.yul\":11312:11321   */\n      dup4\n        /* \"#utility.yul\":11308:11325   */\n      add\n        /* \"#utility.yul\":11301:11348   */\n      mstore\n        /* \"#utility.yul\":11365:11496   */\n      tag_277\n        /* \"#utility.yul\":11491:11495   */\n      dup2\n        /* \"#utility.yul\":11365:11496   */\n      tag_142\n      jump\t// in\n    tag_277:\n        /* \"#utility.yul\":11357:11496   */\n      swap1\n      pop\n        /* \"#utility.yul\":11084:11503   */\n      swap2\n      swap1\n      pop\n      jump\t// out\n        /* \"#utility.yul\":11509:11680   */\n    tag_143:\n        /* \"#utility.yul\":11649:11672   */\n      0x436c69656e7465207961207265676973747261646f0000000000000000000000\n        /* \"#utility.yul\":11645:11646   */\n      0x00\n        /* \"#utility.yul\":11637:11643   */\n      dup3\n        /* \"#utility.yul\":11633:11647   */\n      add\n        /* \"#utility.yul\":11626:11673   */\n      mstore\n        /* \"#utility.yul\":11509:11680   */\n      pop\n      jump\t// out\n        /* \"#utility.yul\":11686:12052   */\n    tag_144:\n        /* \"#utility.yul\":11828:11831   */\n      0x00\n        /* \"#utility.yul\":11849:11916   */\n      tag_280\n        /* \"#utility.yul\":11913:11915   */\n      0x15\n        /* \"#utility.yul\":11908:11911   */\n      dup4\n        /* \"#utility.yul\":11849:11916   */\n      tag_128\n      jump\t// in\n    tag_280:\n        /* \"#utility.yul\":11842:11916   */\n      swap2\n      pop\n        /* \"#utility.yul\":11925:12018   */\n      tag_281\n        /* \"#utility.yul\":12014:12017   */\n      dup3\n        /* \"#utility.yul\":11925:12018   */\n      tag_143\n      jump\t// in\n    tag_281:\n        /* \"#utility.yul\":12043:12045   */\n      0x20\n        /* \"#utility.yul\":12038:12041   */\n      dup3\n        /* \"#utility.yul\":12034:12046   */\n      add\n        /* \"#utility.yul\":12027:12046   */\n      swap1\n      pop\n        /* \"#utility.yul\":11686:12052   */\n      swap2\n      swap1\n      pop\n      jump\t// out\n        /* \"#utility.yul\":12058:12477   */\n    tag_92:\n        /* \"#utility.yul\":12224:12228   */\n      0x00\n        /* \"#utility.yul\":12262:12264   */\n      0x20\n        /* \"#utility.yul\":12251:12260   */\n      dup3\n        /* \"#utility.yul\":12247:12265   */\n      add\n        /* \"#utility.yul\":12239:12265   */\n      swap1\n      pop\n        /* \"#utility.yul\":12311:12320   */\n      dup2\n        /* \"#utility.yul\":12305:12309   */\n      dup2\n        /* \"#utility.yul\":12301:12321   */\n      sub\n        /* \"#utility.yul\":12297:12298   */\n      0x00\n        /* \"#utility.yul\":12286:12295   */\n      dup4\n        /* \"#utility.yul\":12282:12299   */\n      add\n        /* \"#utility.yul\":12275:12322   */\n      mstore\n        /* \"#utility.yul\":12339:12470   */\n      tag_283\n        /* \"#utility.yul\":12465:12469   */\n      dup2\n        /* \"#utility.yul\":12339:12470   */\n      tag_144\n      jump\t// in\n    tag_283:\n        /* \"#utility.yul\":12331:12470   */\n      swap1\n      pop\n        /* \"#utility.yul\":12058:12477   */\n      swap2\n      swap1\n      pop\n      jump\t// out\n        /* \"#utility.yul\":12483:12582   */\n    tag_145:\n        /* \"#utility.yul\":12535:12541   */\n      0x00\n        /* \"#utility.yul\":12569:12574   */\n      dup2\n        /* \"#utility.yul\":12563:12575   */\n      mload\n        /* \"#utility.yul\":12553:12575   */\n      swap1\n      pop\n        /* \"#utility.yul\":12483:12582   */\n      swap2\n      swap1\n      pop\n      jump\t// out\n        /* \"#utility.yul\":12588:12768   */\n    tag_146:\n        /* \"#utility.yul\":12636:12713   */\n      0x4e487b7100000000000000000000000000000000000000000000000000000000\n        /* \"#utility.yul\":12633:12634   */\n      0x00\n        /* \"#utility.yul\":12626:12714   */\n      mstore\n        /* \"#utility.yul\":12733:12737   */\n      0x41\n        /* \"#utility.yul\":12730:12731   */\n      0x04\n        /* \"#utility.yul\":12723:12738   */\n      mstore\n        /* \"#utility.yul\":12757:12761   */\n      0x24\n        /* \"#utility.yul\":12754:12755   */\n      0x00\n        /* \"#utility.yul\":12747:12762   */\n      revert\n        /* \"#utility.yul\":12774:12954   */\n    tag_147:\n        /* \"#utility.yul\":12822:12899   */\n      0x4e487b7100000000000000000000000000000000000000000000000000000000\n        /* \"#utility.yul\":12819:12820   */\n      0x00\n        /* \"#utility.yul\":12812:12900   */\n      mstore\n        /* \"#utility.yul\":12919:12923   */\n      0x22\n        /* \"#utility.yul\":12916:12917   */\n      0x04\n        /* \"#utility.yul\":12909:12924   */\n      mstore\n        /* \"#utility.yul\":12943:12947   */\n      0x24\n        /* \"#utility.yul\":12940:12941   */\n      0x00\n        /* \"#utility.yul\":12933:12948   */\n      revert\n        /* \"#utility.yul\":12960:13280   */\n    tag_148:\n        /* \"#utility.yul\":13004:13010   */\n      0x00\n        /* \"#utility.yul\":13041:13042   */\n      0x02\n        /* \"#utility.yul\":13035:13039   */\n      dup3\n        /* \"#utility.yul\":13031:13043   */\n      div\n        /* \"#utility.yul\":13021:13043   */\n      swap1\n      pop\n        /* \"#utility.yul\":13088:13089   */\n      0x01\n        /* \"#utility.yul\":13082:13086   */\n      dup3\n        /* \"#utility.yul\":13078:13090   */\n      and\n        /* \"#utility.yul\":13109:13127   */\n      dup1\n        /* \"#utility.yul\":13099:13180   */\n      tag_288\n      jumpi\n        /* \"#utility.yul\":13165:13169   */\n      0x7f\n        /* \"#utility.yul\":13157:13163   */\n      dup3\n        /* \"#utility.yul\":13153:13170   */\n      and\n        /* \"#utility.yul\":13143:13170   */\n      swap2\n      pop\n        /* \"#utility.yul\":13099:13180   */\n    tag_288:\n        /* \"#utility.yul\":13227:13229   */\n      0x20\n        /* \"#utility.yul\":13219:13225   */\n      dup3\n        /* \"#utility.yul\":13216:13230   */\n      lt\n        /* \"#utility.yul\":13196:13214   */\n      dup2\n        /* \"#utility.yul\":13193:13231   */\n      sub\n        /* \"#utility.yul\":13190:13274   */\n      tag_289\n      jumpi\n        /* \"#utility.yul\":13246:13264   */\n      tag_290\n      tag_147\n      jump\t// in\n    tag_290:\n        /* \"#utility.yul\":13190:13274   */\n    tag_289:\n        /* \"#utility.yul\":13011:13280   */\n      pop\n        /* \"#utility.yul\":12960:13280   */\n      swap2\n      swap1\n      pop\n      jump\t// out\n        /* \"#utility.yul\":13286:13427   */\n    tag_149:\n        /* \"#utility.yul\":13335:13339   */\n      0x00\n        /* \"#utility.yul\":13358:13361   */\n      dup2\n        /* \"#utility.yul\":13350:13361   */\n      swap1\n      pop\n        /* \"#utility.yul\":13381:13384   */\n      dup2\n        /* \"#utility.yul\":13378:13379   */\n      0x00\n        /* \"#utility.yul\":13371:13385   */\n      mstore\n        /* \"#utility.yul\":13415:13419   */\n      0x20\n        /* \"#utility.yul\":13412:13413   */\n      0x00\n        /* \"#utility.yul\":13402:13420   */\n      keccak256\n        /* \"#utility.yul\":13394:13420   */\n      swap1\n      pop\n        /* \"#utility.yul\":13286:13427   */\n      swap2\n      swap1\n      pop\n      jump\t// out\n        /* \"#utility.yul\":13433:13526   */\n    tag_150:\n        /* \"#utility.yul\":13470:13476   */\n      0x00\n        /* \"#utility.yul\":13517:13519   */\n      0x20\n        /* \"#utility.yul\":13512:13514   */\n      0x1f\n        /* \"#utility.yul\":13505:13510   */\n      dup4\n        /* \"#utility.yul\":13501:13515   */\n      add\n        /* \"#utility.yul\":13497:13520   */\n      div\n        /* \"#utility.yul\":13487:13520   */\n      swap1\n      pop\n        /* \"#utility.yul\":13433:13526   */\n      swap2\n      swap1\n      pop\n      jump\t// out\n        /* \"#utility.yul\":13532:13639   */\n    tag_151:\n        /* \"#utility.yul\":13576:13584   */\n      0x00\n        /* \"#utility.yul\":13626:13631   */\n      dup3\n        /* \"#utility.yul\":13620:13624   */\n      dup3\n        /* \"#utility.yul\":13616:13632   */\n      shl\n        /* \"#utility.yul\":13595:13632   */\n      swap1\n      pop\n        /* \"#utility.yul\":13532:13639   */\n      swap3\n      swap2\n      pop\n      pop\n      jump\t// out\n        /* \"#utility.yul\":13645:14038   */\n    tag_152:\n        /* \"#utility.yul\":13714:13720   */\n      0x00\n        /* \"#utility.yul\":13764:13765   */\n      0x08\n        /* \"#utility.yul\":13752:13762   */\n      dup4\n        /* \"#utility.yul\":13748:13766   */\n      mul\n        /* \"#utility.yul\":13787:13884   */\n      tag_295\n        /* \"#utility.yul\":13817:13883   */\n      0xffffffffffffffffffffffffffffffffffffffffffffffffffffffffffffffff\n        /* \"#utility.yul\":13806:13815   */\n      dup3\n        /* \"#utility.yul\":13787:13884   */\n      tag_151\n      jump\t// in\n    tag_295:\n        /* \"#utility.yul\":13905:13944   */\n      tag_296\n        /* \"#utility.yul\":13935:13943   */\n      dup7\n        /* \"#utility.yul\":13924:13933   */\n      dup4\n        /* \"#utility.yul\":13905:13944   */\n      tag_151\n      jump\t// in\n    tag_296:\n        /* \"#utility.yul\":13893:13944   */\n      swap6\n      pop\n        /* \"#utility.yul\":13977:13981   */\n      dup1\n        /* \"#utility.yul\":13973:13982   */\n      not\n        /* \"#utility.yul\":13966:13971   */\n      dup5\n        /* \"#utility.yul\":13962:13983   */\n      and\n        /* \"#utility.yul\":13953:13983   */\n      swap4\n      pop\n        /* \"#utility.yul\":14026:14030   */\n      dup1\n        /* \"#utility.yul\":14016:14024   */\n      dup7\n        /* \"#utility.yul\":14012:14031   */\n      and\n        /* \"#utility.yul\":14005:14010   */\n      dup5\n        /* \"#utility.yul\":14002:14032   */\n      or\n        /* \"#utility.yul\":13992:14032   */\n      swap3\n      pop\n        /* \"#utility.yul\":13721:14038   */\n      pop\n      pop\n        /* \"#utility.yul\":13645:14038   */\n      swap4\n      swap3\n      pop\n      pop\n      pop\n      jump\t// out\n        /* \"#utility.yul\":14044:14104   */\n    tag_153:\n        /* \"#utility.yul\":14072:14075   */\n      0x00\n        /* \"#utility.yul\":14093:14098   */\n      dup2\n        /* \"#utility.yul\":14086:14098   */\n      swap1\n      pop\n        /* \"#utility.yul\":14044:14104   */\n      swap2\n      swap1\n      pop\n      jump\t// out\n        /* \"#utility.yul\":14110:14252   */\n    tag_154:\n        /* \"#utility.yul\":14160:14169   */\n      0x00\n        /* \"#utility.yul\":14193:14246   */\n      tag_299\n        /* \"#utility.yul\":14211:14245   */\n      tag_300\n        /* \"#utility.yul\":14220:14244   */\n      tag_301\n        /* \"#utility.yul\":14238:14243   */\n      dup5\n        /* \"#utility.yul\":14220:14244   */\n      tag_114\n      jump\t// in\n    tag_301:\n        /* \"#utility.yul\":14211:14245   */\n      tag_153\n      jump\t// in\n    tag_300:\n        /* \"#utility.yul\":14193:14246   */\n      tag_114\n      jump\t// in\n    tag_299:\n        /* \"#utility.yul\":14180:14246   */\n      swap1\n      pop\n        /* \"#utility.yul\":14110:14252   */\n      swap2\n      swap1\n      pop\n      jump\t// out\n        /* \"#utility.yul\":14258:14333   */\n    tag_155:\n        /* \"#utility.yul\":14301:14304   */\n      0x00\n        /* \"#utility.yul\":14322:14327   */\n      dup2\n        /* \"#utility.yul\":14315:14327   */\n      swap1\n      pop\n        /* \"#utility.yul\":14258:14333   */\n      swap2\n      swap1\n      pop\n      jump\t// out\n        /* \"#utility.yul\":14339:14608   */\n    tag_156:\n        /* \"#utility.yul\":14449:14488   */\n      tag_304\n        /* \"#utility.yul\":14480:14487   */\n      dup4\n        /* \"#utility.yul\":14449:14488   */\n      tag_154\n      jump\t// in\n    tag_304:\n        /* \"#utility.yul\":14510:14601   */\n      tag_305\n        /* \"#utility.yul\":14559:14600   */\n      tag_306\n        /* \"#utility.yul\":14583:14599   */\n      dup3\n        /* \"#utility.yul\":14559:14600   */\n      tag_155\n      jump\t// in\n    tag_306:\n        /* \"#utility.yul\":14551:14557   */\n      dup5\n        /* \"#utility.yul\":14544:14548   */\n      dup5\n        /* \"#utility.yul\":14538:14549   */\n      sload\n        /* \"#utility.yul\":14510:14601   */\n      tag_152\n      jump\t// in\n    tag_305:\n        /* \"#utility.yul\":14504:14508   */\n      dup3\n        /* \"#utility.yul\":14497:14602   */\n      sstore\n        /* \"#utility.yul\":14415:14608   */\n      pop\n        /* \"#utility.yul\":14339:14608   */\n      pop\n      pop\n      pop\n      jump\t// out\n        /* \"#utility.yul\":14614:14687   */\n    tag_157:\n        /* \"#utility.yul\":14659:14662   */\n      0x00\n        /* \"#utility.yul\":14614:14687   */\n      swap1\n      jump\t// out\n        /* \"#utility.yul\":14693:14882   */\n    tag_158:\n        /* \"#utility.yul\":14770:14802   */\n      tag_309\n      tag_157\n      jump\t// in\n    tag_309:\n        /* \"#utility.yul\":14811:14876   */\n      tag_310\n        /* \"#utility.yul\":14869:14875   */\n      dup2\n        /* \"#utility.yul\":14861:14867   */\n      dup5\n        /* \"#utility.yul\":14855:14859   */\n      dup5\n        /* \"#utility.yul\":14811:14876   */\n      tag_156\n      jump\t// in\n    tag_310:\n        /* \"#utility.yul\":14746:14882   */\n      pop\n        /* \"#utility.yul\":14693:14882   */\n      pop\n      pop\n      jump\t// out\n        /* \"#utility.yul\":14888:15074   */\n    tag_159:\n        /* \"#utility.yul\":14948:15068   */\n    tag_312:\n        /* \"#utility.yul\":14965:14968   */\n      dup2\n        /* \"#utility.yul\":14958:14963   */\n      dup2\n        /* \"#utility.yul\":14955:14969   */\n      lt\n        /* \"#utility.yul\":14948:15068   */\n      iszero\n      tag_314\n      jumpi\n        /* \"#utility.yul\":15019:15058   */\n      tag_315\n        /* \"#utility.yul\":15056:15057   */\n      0x00\n        /* \"#utility.yul\":15049:15054   */\n      dup3\n        /* \"#utility.yul\":15019:15058   */\n      tag_158\n      jump\t// in\n    tag_315:\n        /* \"#utility.yul\":14992:14993   */\n      0x01\n        /* \"#utility.yul\":14985:14990   */\n      dup2\n        /* \"#utility.yul\":14981:14994   */\n      add\n        /* \"#utility.yul\":14972:14994   */\n      swap1\n      pop\n        /* \"#utility.yul\":14948:15068   */\n      jump(tag_312)\n    tag_314:\n        /* \"#utility.yul\":14888:15074   */\n      pop\n      pop\n      jump\t// out\n        /* \"#utility.yul\":15080:15623   */\n    tag_160:\n        /* \"#utility.yul\":15181:15183   */\n      0x1f\n        /* \"#utility.yul\":15176:15179   */\n      dup3\n        /* \"#utility.yul\":15173:15184   */\n      gt\n        /* \"#utility.yul\":15170:15616   */\n      iszero\n      tag_317\n      jumpi\n        /* \"#utility.yul\":15215:15253   */\n      tag_318\n        /* \"#utility.yul\":15247:15252   */\n      dup2\n        /* \"#utility.yul\":15215:15253   */\n      tag_149\n      jump\t// in\n    tag_318:\n        /* \"#utility.yul\":15299:15328   */\n      tag_319\n        /* \"#utility.yul\":15317:15327   */\n      dup5\n        /* \"#utility.yul\":15299:15328   */\n      tag_150\n      jump\t// in\n    tag_319:\n        /* \"#utility.yul\":15289:15297   */\n      dup2\n        /* \"#utility.yul\":15285:15329   */\n      add\n        /* \"#utility.yul\":15482:15484   */\n      0x20\n        /* \"#utility.yul\":15470:15480   */\n      dup6\n        /* \"#utility.yul\":15467:15485   */\n      lt\n        /* \"#utility.yul\":15464:15513   */\n      iszero\n      tag_320\n      jumpi\n        /* \"#utility.yul\":15503:15511   */\n      dup2\n        /* \"#utility.yul\":15488:15511   */\n      swap1\n      pop\n        /* \"#utility.yul\":15464:15513   */\n    tag_320:\n        /* \"#utility.yul\":15526:15606   */\n      tag_321\n        /* \"#utility.yul\":15582:15604   */\n      tag_322\n        /* \"#utility.yul\":15600:15603   */\n      dup6\n        /* \"#utility.yul\":15582:15604   */\n      tag_150\n      jump\t// in\n    tag_322:\n        /* \"#utility.yul\":15572:15580   */\n      dup4\n        /* \"#utility.yul\":15568:15605   */\n      add\n        /* \"#utility.yul\":15555:15566   */\n      dup3\n        /* \"#utility.yul\":15526:15606   */\n      tag_159\n      jump\t// in\n    tag_321:\n        /* \"#utility.yul\":15185:15616   */\n      pop\n      pop\n        /* \"#utility.yul\":15170:15616   */\n    tag_317:\n        /* \"#utility.yul\":15080:15623   */\n      pop\n      pop\n      pop\n      jump\t// out\n        /* \"#utility.yul\":15629:15746   */\n    tag_161:\n        /* \"#utility.yul\":15683:15691   */\n      0x00\n        /* \"#utility.yul\":15733:15738   */\n      dup3\n        /* \"#utility.yul\":15727:15731   */\n      dup3\n        /* \"#utility.yul\":15723:15739   */\n      shr\n        /* \"#utility.yul\":15702:15739   */\n      swap1\n      pop\n        /* \"#utility.yul\":15629:15746   */\n      swap3\n      swap2\n      pop\n      pop\n      jump\t// out\n        /* \"#utility.yul\":15752:15921   */\n    tag_162:\n        /* \"#utility.yul\":15796:15802   */\n      0x00\n        /* \"#utility.yul\":15829:15880   */\n      tag_325\n        /* \"#utility.yul\":15877:15878   */\n      0x00\n        /* \"#utility.yul\":15873:15879   */\n      not\n        /* \"#utility.yul\":15865:15870   */\n      dup5\n        /* \"#utility.yul\":15862:15863   */\n      0x08\n        /* \"#utility.yul\":15858:15871   */\n      mul\n        /* \"#utility.yul\":15829:15880   */\n      tag_161\n      jump\t// in\n    tag_325:\n        /* \"#utility.yul\":15825:15881   */\n      not\n        /* \"#utility.yul\":15910:15914   */\n      dup1\n        /* \"#utility.yul\":15904:15908   */\n      dup4\n        /* \"#utility.yul\":15900:15915   */\n      and\n        /* \"#utility.yul\":15890:15915   */\n      swap2\n      pop\n        /* \"#utility.yul\":15803:15921   */\n      pop\n        /* \"#utility.yul\":15752:15921   */\n      swap3\n      swap2\n      pop\n      pop\n      jump\t// out\n        /* \"#utility.yul\":15926:16221   */\n    tag_163:\n        /* \"#utility.yul\":16002:16006   */\n      0x00\n        /* \"#utility.yul\":16148:16177   */\n      tag_327\n        /* \"#utility.yul\":16173:16176   */\n      dup4\n        /* \"#utility.yul\":16167:16171   */\n      dup4\n        /* \"#utility.yul\":16148:16177   */\n      tag_162\n      jump\t// in\n    tag_327:\n        /* \"#utility.yul\":16140:16177   */\n      swap2\n      pop\n        /* \"#utility.yul\":16210:16213   */\n      dup3\n        /* \"#utility.yul\":16207:16208   */\n      0x02\n        /* \"#utility.yul\":16203:16214   */\n      mul\n        /* \"#utility.yul\":16197:16201   */\n      dup3\n        /* \"#utility.yul\":16194:16215   */\n      or\n        /* \"#utility.yul\":16186:16215   */\n      swap1\n      pop\n        /* \"#utility.yul\":15926:16221   */\n      swap3\n      swap2\n      pop\n      pop\n      jump\t// out\n        /* \"#utility.yul\":16226:17621   */\n    tag_94:\n        /* \"#utility.yul\":16343:16380   */\n      tag_329\n        /* \"#utility.yul\":16376:16379   */\n      dup3\n        /* \"#utility.yul\":16343:16380   */\n      tag_145\n      jump\t// in\n    tag_329:\n        /* \"#utility.yul\":16445:16463   */\n      0xffffffffffffffff\n        /* \"#utility.yul\":16437:16443   */\n      dup2\n        /* \"#utility.yul\":16434:16464   */\n      gt\n        /* \"#utility.yul\":16431:16487   */\n      iszero\n      tag_330\n      jumpi\n        /* \"#utility.yul\":16467:16485   */\n      tag_331\n      tag_146\n      jump\t// in\n    tag_331:\n        /* \"#utility.yul\":16431:16487   */\n    tag_330:\n        /* \"#utility.yul\":16511:16549   */\n      tag_332\n        /* \"#utility.yul\":16543:16547   */\n      dup3\n        /* \"#utility.yul\":16537:16548   */\n      sload\n        /* \"#utility.yul\":16511:16549   */\n      tag_148\n      jump\t// in\n    tag_332:\n        /* \"#utility.yul\":16596:16663   */\n      tag_333\n        /* \"#utility.yul\":16656:16662   */\n      dup3\n        /* \"#utility.yul\":16648:16654   */\n      dup3\n        /* \"#utility.yul\":16642:16646   */\n      dup6\n        /* \"#utility.yul\":16596:16663   */\n      tag_160\n      jump\t// in\n    tag_333:\n        /* \"#utility.yul\":16690:16691   */\n      0x00\n        /* \"#utility.yul\":16714:16718   */\n      0x20\n        /* \"#utility.yul\":16701:16718   */\n      swap1\n      pop\n        /* \"#utility.yul\":16746:16748   */\n      0x1f\n        /* \"#utility.yul\":16738:16744   */\n      dup4\n        /* \"#utility.yul\":16735:16749   */\n      gt\n        /* \"#utility.yul\":16763:16764   */\n      0x01\n        /* \"#utility.yul\":16758:17376   */\n      dup2\n      eq\n      tag_335\n      jumpi\n        /* \"#utility.yul\":17420:17421   */\n      0x00\n        /* \"#utility.yul\":17437:17443   */\n      dup5\n        /* \"#utility.yul\":17434:17511   */\n      iszero\n      tag_336\n      jumpi\n        /* \"#utility.yul\":17486:17495   */\n      dup3\n        /* \"#utility.yul\":17481:17484   */\n      dup8\n        /* \"#utility.yul\":17477:17496   */\n      add\n        /* \"#utility.yul\":17471:17497   */\n      mload\n        /* \"#utility.yul\":17462:17497   */\n      swap1\n      pop\n        /* \"#utility.yul\":17434:17511   */\n    tag_336:\n        /* \"#utility.yul\":17537:17604   */\n      tag_337\n        /* \"#utility.yul\":17597:17603   */\n      dup6\n        /* \"#utility.yul\":17590:17595   */\n      dup3\n        /* \"#utility.yul\":17537:17604   */\n      tag_163\n      jump\t// in\n    tag_337:\n        /* \"#utility.yul\":17531:17535   */\n      dup7\n        /* \"#utility.yul\":17524:17605   */\n      sstore\n        /* \"#utility.yul\":17393:17615   */\n      pop\n        /* \"#utility.yul\":16728:17615   */\n      jump(tag_334)\n        /* \"#utility.yul\":16758:17376   */\n    tag_335:\n        /* \"#utility.yul\":16810:16814   */\n      0x1f\n        /* \"#utility.yul\":16806:16815   */\n      not\n        /* \"#utility.yul\":16798:16804   */\n      dup5\n        /* \"#utility.yul\":16794:16816   */\n      and\n        /* \"#utility.yul\":16844:16881   */\n      tag_338\n        /* \"#utility.yul\":16876:16880   */\n      dup7\n        /* \"#utility.yul\":16844:16881   */\n      tag_149\n      jump\t// in\n    tag_338:\n        /* \"#utility.yul\":16903:16904   */\n      0x00\n        /* \"#utility.yul\":16917:17125   */\n    tag_339:\n        /* \"#utility.yul\":16931:16938   */\n      dup3\n        /* \"#utility.yul\":16928:16929   */\n      dup2\n        /* \"#utility.yul\":16925:16939   */\n      lt\n        /* \"#utility.yul\":16917:17125   */\n      iszero\n      tag_341\n      jumpi\n        /* \"#utility.yul\":17010:17019   */\n      dup5\n        /* \"#utility.yul\":17005:17008   */\n      dup10\n        /* \"#utility.yul\":17001:17020   */\n      add\n        /* \"#utility.yul\":16995:17021   */\n      mload\n        /* \"#utility.yul\":16987:16993   */\n      dup3\n        /* \"#utility.yul\":16980:17022   */\n      sstore\n        /* \"#utility.yul\":17061:17062   */\n      0x01\n        /* \"#utility.yul\":17053:17059   */\n      dup3\n        /* \"#utility.yul\":17049:17063   */\n      add\n        /* \"#utility.yul\":17039:17063   */\n      swap2\n      pop\n        /* \"#utility.yul\":17108:17110   */\n      0x20\n        /* \"#utility.yul\":17097:17106   */\n      dup6\n        /* \"#utility.yul\":17093:17111   */\n      add\n        /* \"#utility.yul\":17080:17111   */\n      swap5\n      pop\n        /* \"#utility.yul\":16954:16958   */\n      0x20\n        /* \"#utility.yul\":16951:16952   */\n      dup2\n        /* \"#utility.yul\":16947:16959   */\n      add\n        /* \"#utility.yul\":16942:16959   */\n      swap1\n      pop\n        /* \"#utility.yul\":16917:17125   */\n      jump(tag_339)\n    tag_341:\n        /* \"#utility.yul\":17153:17159   */\n      dup7\n        /* \"#utility.yul\":17144:17151   */\n      dup4\n        /* \"#utility.yul\":17141:17160   */\n      lt\n        /* \"#utility.yul\":17138:17317   */\n      iszero\n      tag_342\n      jumpi\n        /* \"#utility.yul\":17211:17220   */\n      dup5\n        /* \"#utility.yul\":17206:17209   */\n      dup10\n        /* \"#utility.yul\":17202:17221   */\n      add\n        /* \"#utility.yul\":17196:17222   */\n      mload\n        /* \"#utility.yul\":17254:17302   */\n      tag_343\n        /* \"#utility.yul\":17296:17300   */\n      0x1f\n        /* \"#utility.yul\":17288:17294   */\n      dup10\n        /* \"#utility.yul\":17284:17301   */\n      and\n        /* \"#utility.yul\":17273:17282   */\n      dup3\n        /* \"#utility.yul\":17254:17302   */\n      tag_162\n      jump\t// in\n    tag_343:\n        /* \"#utility.yul\":17246:17252   */\n      dup4\n        /* \"#utility.yul\":17239:17303   */\n      sstore\n        /* \"#utility.yul\":17161:17317   */\n      pop\n        /* \"#utility.yul\":17138:17317   */\n    tag_342:\n        /* \"#utility.yul\":17363:17364   */\n      0x01\n        /* \"#utility.yul\":17359:17360   */\n      0x02\n        /* \"#utility.yul\":17351:17357   */\n      dup9\n        /* \"#utility.yul\":17347:17361   */\n      mul\n        /* \"#utility.yul\":17343:17365   */\n      add\n        /* \"#utility.yul\":17337:17341   */\n      dup9\n        /* \"#utility.yul\":17330:17366   */\n      sstore\n        /* \"#utility.yul\":16765:17376   */\n      pop\n      pop\n      pop\n        /* \"#utility.yul\":16728:17615   */\n    tag_334:\n      pop\n        /* \"#utility.yul\":16318:17621   */\n      pop\n      pop\n      pop\n        /* \"#utility.yul\":16226:17621   */\n      pop\n      pop\n      jump\t// out\n        /* \"#utility.yul\":17627:17775   */\n    tag_164:\n        /* \"#utility.yul\":17725:17731   */\n      dup3\n        /* \"#utility.yul\":17720:17723   */\n      dup2\n        /* \"#utility.yul\":17715:17718   */\n      dup4\n        /* \"#utility.yul\":17702:17732   */\n      calldatacopy\n        /* \"#utility.yul\":17766:17767   */\n      0x00\n        /* \"#utility.yul\":17757:17763   */\n      dup4\n        /* \"#utility.yul\":17752:17755   */\n      dup4\n        /* \"#utility.yul\":17748:17764   */\n      add\n        /* \"#utility.yul\":17741:17768   */\n      mstore\n        /* \"#utility.yul\":17627:17775   */\n      pop\n      pop\n      pop\n      jump\t// out\n        /* \"#utility.yul\":17781:17883   */\n    tag_165:\n        /* \"#utility.yul\":17822:17828   */\n      0x00\n        /* \"#utility.yul\":17873:17875   */\n      0x1f\n        /* \"#utility.yul\":17869:17876   */\n      not\n        /* \"#utility.yul\":17864:17866   */\n      0x1f\n        /* \"#utility.yul\":17857:17862   */\n      dup4\n        /* \"#utility.yul\":17853:17867   */\n      add\n        /* \"#utility.yul\":17849:17877   */\n      and\n        /* \"#utility.yul\":17839:17877   */\n      swap1\n      pop\n        /* \"#utility.yul\":17781:17883   */\n      swap2\n      swap1\n      pop\n      jump\t// out\n        /* \"#utility.yul\":17913:18230   */\n    tag_166:\n        /* \"#utility.yul\":18011:18014   */\n      0x00\n        /* \"#utility.yul\":18032:18103   */\n      tag_347\n        /* \"#utility.yul\":18096:18102   */\n      dup4\n        /* \"#utility.yul\":18091:18094   */\n      dup6\n        /* \"#utility.yul\":18032:18103   */\n      tag_128\n      jump\t// in\n    tag_347:\n        /* \"#utility.yul\":18025:18103   */\n      swap4\n      pop\n        /* \"#utility.yul\":18113:18169   */\n      tag_348\n        /* \"#utility.yul\":18162:18168   */\n      dup4\n        /* \"#utility.yul\":18157:18160   */\n      dup6\n        /* \"#utility.yul\":18150:18155   */\n      dup5\n        /* \"#utility.yul\":18113:18169   */\n      tag_164\n      jump\t// in\n    tag_348:\n        /* \"#utility.yul\":18194:18223   */\n      tag_349\n        /* \"#utility.yul\":18216:18222   */\n      dup4\n        /* \"#utility.yul\":18194:18223   */\n      tag_165\n      jump\t// in\n    tag_349:\n        /* \"#utility.yul\":18189:18192   */\n      dup5\n        /* \"#utility.yul\":18185:18224   */\n      add\n        /* \"#utility.yul\":18178:18224   */\n      swap1\n      pop\n        /* \"#utility.yul\":17913:18230   */\n      swap4\n      swap3\n      pop\n      pop\n      pop\n      jump\t// out\n        /* \"#utility.yul\":18236:18790   */\n    tag_97:\n        /* \"#utility.yul\":18417:18421   */\n      0x00\n        /* \"#utility.yul\":18455:18457   */\n      0x40\n        /* \"#utility.yul\":18444:18453   */\n      dup3\n        /* \"#utility.yul\":18440:18458   */\n      add\n        /* \"#utility.yul\":18432:18458   */\n      swap1\n      pop\n        /* \"#utility.yul\":18504:18513   */\n      dup2\n        /* \"#utility.yul\":18498:18502   */\n      dup2\n        /* \"#utility.yul\":18494:18514   */\n      sub\n        /* \"#utility.yul\":18490:18491   */\n      0x00\n        /* \"#utility.yul\":18479:18488   */\n      dup4\n        /* \"#utility.yul\":18475:18492   */\n      add\n        /* \"#utility.yul\":18468:18515   */\n      mstore\n        /* \"#utility.yul\":18532:18620   */\n      tag_351\n        /* \"#utility.yul\":18615:18619   */\n      dup2\n        /* \"#utility.yul\":18606:18612   */\n      dup7\n        /* \"#utility.yul\":18598:18604   */\n      dup9\n        /* \"#utility.yul\":18532:18620   */\n      tag_166\n      jump\t// in\n    tag_351:\n        /* \"#utility.yul\":18524:18620   */\n      swap1\n      pop\n        /* \"#utility.yul\":18667:18676   */\n      dup2\n        /* \"#utility.yul\":18661:18665   */\n      dup2\n        /* \"#utility.yul\":18657:18677   */\n      sub\n        /* \"#utility.yul\":18652:18654   */\n      0x20\n        /* \"#utility.yul\":18641:18650   */\n      dup4\n        /* \"#utility.yul\":18637:18655   */\n      add\n        /* \"#utility.yul\":18630:18678   */\n      mstore\n        /* \"#utility.yul\":18695:18783   */\n      tag_352\n        /* \"#utility.yul\":18778:18782   */\n      dup2\n        /* \"#utility.yul\":18769:18775   */\n      dup5\n        /* \"#utility.yul\":18761:18767   */\n      dup7\n        /* \"#utility.yul\":18695:18783   */\n      tag_166\n      jump\t// in\n    tag_352:\n        /* \"#utility.yul\":18687:18783   */\n      swap1\n      pop\n        /* \"#utility.yul\":18236:18790   */\n      swap6\n      swap5\n      pop\n      pop\n      pop\n      pop\n      pop\n      jump\t// out\n        /* \"#utility.yul\":18796:18956   */\n    tag_167:\n        /* \"#utility.yul\":18936:18948   */\n      0x536f6c6f2061646d696e00000000000000000000000000000000000000000000\n        /* \"#utility.yul\":18932:18933   */\n      0x00\n        /* \"#utility.yul\":18924:18930   */\n      dup3\n        /* \"#utility.yul\":18920:18934   */\n      add\n        /* \"#utility.yul\":18913:18949   */\n      mstore\n        /* \"#utility.yul\":18796:18956   */\n      pop\n      jump\t// out\n        /* \"#utility.yul\":18962:19328   */\n    tag_168:\n        /* \"#utility.yul\":19104:19107   */\n      0x00\n        /* \"#utility.yul\":19125:19192   */\n      tag_355\n        /* \"#utility.yul\":19189:19191   */\n      0x0a\n        /* \"#utility.yul\":19184:19187   */\n      dup4\n        /* \"#utility.yul\":19125:19192   */\n      tag_128\n      jump\t// in\n    tag_355:\n        /* \"#utility.yul\":19118:19192   */\n      swap2\n      pop\n        /* \"#utility.yul\":19201:19294   */\n      tag_356\n        /* \"#utility.yul\":19290:19293   */\n      dup3\n        /* \"#utility.yul\":19201:19294   */\n      tag_167\n      jump\t// in\n    tag_356:\n        /* \"#utility.yul\":19319:19321   */\n      0x20\n        /* \"#utility.yul\":19314:19317   */\n      dup3\n        /* \"#utility.yul\":19310:19322   */\n      add\n        /* \"#utility.yul\":19303:19322   */\n      swap1\n      pop\n        /* \"#utility.yul\":18962:19328   */\n      swap2\n      swap1\n      pop\n      jump\t// out\n        /* \"#utility.yul\":19334:19753   */\n    tag_105:\n        /* \"#utility.yul\":19500:19504   */\n      0x00\n        /* \"#utility.yul\":19538:19540   */\n      0x20\n        /* \"#utility.yul\":19527:19536   */\n      dup3\n        /* \"#utility.yul\":19523:19541   */\n      add\n        /* \"#utility.yul\":19515:19541   */\n      swap1\n      pop\n        /* \"#utility.yul\":19587:19596   */\n      dup2\n        /* \"#utility.yul\":19581:19585   */\n      dup2\n        /* \"#utility.yul\":19577:19597   */\n      sub\n        /* \"#utility.yul\":19573:19574   */\n      0x00\n        /* \"#utility.yul\":19562:19571   */\n      dup4\n        /* \"#utility.yul\":19558:19575   */\n      add\n        /* \"#utility.yul\":19551:19598   */\n      mstore\n        /* \"#utility.yul\":19615:19746   */\n      tag_358\n        /* \"#utility.yul\":19741:19745   */\n      dup2\n        /* \"#utility.yul\":19615:19746   */\n      tag_168\n      jump\t// in\n    tag_358:\n        /* \"#utility.yul\":19607:19746   */\n      swap1\n      pop\n        /* \"#utility.yul\":19334:19753   */\n      swap2\n      swap1\n      pop\n      jump\t// out\n        /* \"#utility.yul\":19759:19939   */\n    tag_169:\n        /* \"#utility.yul\":19899:19931   */\n      0x466f6e646f7320696e737566696369656e74657320656e206375656e74610000\n        /* \"#utility.yul\":19895:19896   */\n      0x00\n        /* \"#utility.yul\":19887:19893   */\n      dup3\n        /* \"#utility.yul\":19883:19897   */\n      add\n        /* \"#utility.yul\":19876:19932   */\n      mstore\n        /* \"#utility.yul\":19759:19939   */\n      pop\n      jump\t// out\n        /* \"#utility.yul\":19945:20311   */\n    tag_170:\n        /* \"#utility.yul\":20087:20090   */\n      0x00\n        /* \"#utility.yul\":20108:20175   */\n      tag_361\n        /* \"#utility.yul\":20172:20174   */\n      0x1e\n        /* \"#utility.yul\":20167:20170   */\n      dup4\n        /* \"#utility.yul\":20108:20175   */\n      tag_128\n      jump\t// in\n    tag_361:\n        /* \"#utility.yul\":20101:20175   */\n      swap2\n      pop\n        /* \"#utility.yul\":20184:20277   */\n      tag_362\n        /* \"#utility.yul\":20273:20276   */\n      dup3\n        /* \"#utility.yul\":20184:20277   */\n      tag_169\n      jump\t// in\n    tag_362:\n        /* \"#utility.yul\":20302:20304   */\n      0x20\n        /* \"#utility.yul\":20297:20300   */\n      dup3\n        /* \"#utility.yul\":20293:20305   */\n      add\n        /* \"#utility.yul\":20286:20305   */\n      swap1\n      pop\n        /* \"#utility.yul\":19945:20311   */\n      swap2\n      swap1\n      pop\n      jump\t// out\n        /* \"#utility.yul\":20317:20736   */\n    tag_109:\n        /* \"#utility.yul\":20483:20487   */\n      0x00\n        /* \"#utility.yul\":20521:20523   */\n      0x20\n        /* \"#utility.yul\":20510:20519   */\n      dup3\n        /* \"#utility.yul\":20506:20524   */\n      add\n        /* \"#utility.yul\":20498:20524   */\n      swap1\n      pop\n        /* \"#utility.yul\":20570:20579   */\n      dup2\n        /* \"#utility.yul\":20564:20568   */\n      dup2\n        /* \"#utility.yul\":20560:20580   */\n      sub\n        /* \"#utility.yul\":20556:20557   */\n      0x00\n        /* \"#utility.yul\":20545:20554   */\n      dup4\n        /* \"#utility.yul\":20541:20558   */\n      add\n        /* \"#utility.yul\":20534:20581   */\n      mstore\n        /* \"#utility.yul\":20598:20729   */\n      tag_364\n        /* \"#utility.yul\":20724:20728   */\n      dup2\n        /* \"#utility.yul\":20598:20729   */\n      tag_170\n      jump\t// in\n    tag_364:\n        /* \"#utility.yul\":20590:20729   */\n      swap1\n      pop\n        /* \"#utility.yul\":20317:20736   */\n      swap2\n      swap1\n      pop\n      jump\t// out\n\n    auxdata: 0xa264697066735822122020c1af1eb95e422a2c46501c632499cb7d3568f90981c5a2601f188451d22f0d64736f6c634300081a0033\n}\n",
				"bytecode": {
					"linkReferences": {},
					"object": "608060405234801561000f575f80fd5b506040516119093803806119098339818101604052810190610031919061020a565b5f73ffffffffffffffffffffffffffffffffffffffff168173ffffffffffffffffffffffffffffffffffffffff160361009f576040517f08c379a0000000000000000000000000000000000000000000000000000000008152600401610096906102a2565b60405180910390fd5b6127108211156100e4576040517f08c379a00000000000000000000000000000000000000000000000000000000081526004016100db9061030a565b60405180910390fd5b3360015f6101000a81548173ffffffffffffffffffffffffffffffffffffffff021916908373ffffffffffffffffffffffffffffffffffffffff160217905550816003819055508060025f6101000a81548173ffffffffffffffffffffffffffffffffffffffff021916908373ffffffffffffffffffffffffffffffffffffffff1602179055505f6004819055505050610328565b5f80fd5b5f819050919050565b61018f8161017d565b8114610199575f80fd5b50565b5f815190506101aa81610186565b92915050565b5f73ffffffffffffffffffffffffffffffffffffffff82169050919050565b5f6101d9826101b0565b9050919050565b6101e9816101cf565b81146101f3575f80fd5b50565b5f81519050610204816101e0565b92915050565b5f80604083850312156102205761021f610179565b5b5f61022d8582860161019c565b925050602061023e858286016101f6565b9150509250929050565b5f82825260208201905092915050565b7f446972656363696f6e206e6f2076616c696461000000000000000000000000005f82015250565b5f61028c601383610248565b915061029782610258565b602082019050919050565b5f6020820190508181035f8301526102b981610280565b9050919050565b7f43756f7461206e6f2076616c69646100000000000000000000000000000000005f82015250565b5f6102f4600f83610248565b91506102ff826102c0565b602082019050919050565b5f6020820190508181035f830152610321816102e8565b9050919050565b6115d4806103355f395ff3fe608060405260043610610085575f3560e01c8063a469a33211610058578063a469a3321461010f578063c71daccb14610137578063d9a8748c14610161578063f851a4401461018b578063fc41491e146101b557610085565b80633c06794514610089578063481113c2146100b35780639ed3edf0146100db578063a26759cb14610105575b5f80fd5b348015610094575f80fd5b5061009d6101dd565b6040516100aa9190610b5e565b60405180910390f35b3480156100be575f80fd5b506100d960048036038101906100d49190610ba9565b6101e3565b005b3480156100e6575f80fd5b506100ef610465565b6040516100fc9190610b5e565b60405180910390f35b61010d61046b565b005b34801561011a575f80fd5b5061013560048036038101906101309190610c35565b6105dd565b005b348015610142575f80fd5b5061014b610889565b6040516101589190610b5e565b60405180910390f35b34801561016c575f80fd5b5061017561095a565b6040516101829190610cf2565b60405180910390f35b348015610196575f80fd5b5061019f61097f565b6040516101ac9190610cf2565b60405180910390f35b3480156101c0575f80fd5b506101db60048036038101906101d69190610ba9565b6109a4565b005b60045481565b5f803373ffffffffffffffffffffffffffffffffffffffff1673ffffffffffffffffffffffffffffffffffffffff1681526020019081526020015f206003015f9054906101000a900460ff1661026e576040517f08c379a000000000000000000000000000000000000000000000000000000000815260040161026590610d65565b60405180910390fd5b5f81116102b0576040517f08c379a00000000000000000000000000000000000000000000000000000000081526004016102a790610dcd565b60405180910390fd5b805f803373ffffffffffffffffffffffffffffffffffffffff1673ffffffffffffffffffffffffffffffffffffffff1681526020019081526020015f20600201541015610332576040517f08c379a000000000000000000000000000000000000000000000000000000000815260040161032990610e35565b60405180910390fd5b5f612710600354836103449190610e80565b61034e9190610eee565b90505f818361035d9190610f1e565b9050825f803373ffffffffffffffffffffffffffffffffffffffff1673ffffffffffffffffffffffffffffffffffffffff1681526020019081526020015f206002015f8282546103ad9190610f1e565b925050819055508160045f8282546103c59190610f51565b925050819055503373ffffffffffffffffffffffffffffffffffffffff166108fc8290811502906040515f60405180830381858888f1935050505015801561040f573d5f803e3d5ffd5b503373ffffffffffffffffffffffffffffffffffffffff167ffbc3a599b784fe88772fc5abcc07223f64ca0b13acc341f4fb1e46bef0510eb48284604051610458929190610f84565b60405180910390a2505050565b60035481565b5f803373ffffffffffffffffffffffffffffffffffffffff1673ffffffffffffffffffffffffffffffffffffffff1681526020019081526020015f206003015f9054906101000a900460ff166104f6576040517f08c379a00000000000000000000000000000000000000000000000000000000081526004016104ed90610d65565b60405180910390fd5b5f3411610538576040517f08c379a000000000000000000000000000000000000000000000000000000000815260040161052f90610ff5565b60405180910390fd5b345f803373ffffffffffffffffffffffffffffffffffffffff1673ffffffffffffffffffffffffffffffffffffffff1681526020019081526020015f206002015f8282546105869190610f51565b925050819055503373ffffffffffffffffffffffffffffffffffffffff167f543ba50a5eec5e6178218e364b1d0f396157b3c8fa278522c2cb7fd99407d474346040516105d39190610b5e565b60405180910390a2565b5f8484905011610622576040517f08c379a00000000000000000000000000000000000000000000000000000000081526004016106199061105d565b60405180910390fd5b5f8282905011610667576040517f08c379a000000000000000000000000000000000000000000000000000000000815260040161065e906110c5565b60405180910390fd5b5f803373ffffffffffffffffffffffffffffffffffffffff1673ffffffffffffffffffffffffffffffffffffffff1681526020019081526020015f206003015f9054906101000a900460ff16156106f3576040517f08c379a00000000000000000000000000000000000000000000000000000000081526004016106ea9061112d565b60405180910390fd5b604051806080016040528085858080601f0160208091040260200160405190810160405280939291908181526020018383808284375f81840152601f19601f82011690508083019250505050505050815260200183838080601f0160208091040260200160405190810160405280939291908181526020018383808284375f81840152601f19601f8201169050808301925050505050505081526020015f8152602001600115158152505f803373ffffffffffffffffffffffffffffffffffffffff1673ffffffffffffffffffffffffffffffffffffffff1681526020019081526020015f205f820151815f0190816107ec919061137c565b506020820151816001019081610802919061137c565b50604082015181600201556060820151816003015f6101000a81548160ff0219169083151502179055509050503373ffffffffffffffffffffffffffffffffffffffff167ffc753eff51ef9bc95cc7789cefef07d6f2b86de04834071141298e2cc3e5360f8585858560405161087b9493929190611495565b60405180910390a250505050565b5f805f3373ffffffffffffffffffffffffffffffffffffffff1673ffffffffffffffffffffffffffffffffffffffff1681526020019081526020015f206003015f9054906101000a900460ff16610915576040517f08c379a000000000000000000000000000000000000000000000000000000000815260040161090c90610d65565b60405180910390fd5b5f803373ffffffffffffffffffffffffffffffffffffffff1673ffffffffffffffffffffffffffffffffffffffff1681526020019081526020015f2060020154905090565b60025f9054906101000a900473ffffffffffffffffffffffffffffffffffffffff1681565b60015f9054906101000a900473ffffffffffffffffffffffffffffffffffffffff1681565b60015f9054906101000a900473ffffffffffffffffffffffffffffffffffffffff1673ffffffffffffffffffffffffffffffffffffffff163373ffffffffffffffffffffffffffffffffffffffff1614610a33576040517f08c379a0000000000000000000000000000000000000000000000000000000008152600401610a2a90611518565b60405180910390fd5b806004541015610a78576040517f08c379a0000000000000000000000000000000000000000000000000000000008152600401610a6f90611580565b60405180910390fd5b8060045f828254610a899190610f1e565b925050819055503373ffffffffffffffffffffffffffffffffffffffff166108fc8290811502906040515f60405180830381858888f19350505050158015610ad3573d5f803e3d5ffd5b5060015f9054906101000a900473ffffffffffffffffffffffffffffffffffffffff1673ffffffffffffffffffffffffffffffffffffffff167fa692503bc54c9f1d1483729b6058a24987097ff492084b1a8adf8cae08e4fb4382604051610b3b9190610b5e565b60405180910390a250565b5f819050919050565b610b5881610b46565b82525050565b5f602082019050610b715f830184610b4f565b92915050565b5f80fd5b5f80fd5b610b8881610b46565b8114610b92575f80fd5b50565b5f81359050610ba381610b7f565b92915050565b5f60208284031215610bbe57610bbd610b77565b5b5f610bcb84828501610b95565b91505092915050565b5f80fd5b5f80fd5b5f80fd5b5f8083601f840112610bf557610bf4610bd4565b5b8235905067ffffffffffffffff811115610c1257610c11610bd8565b5b602083019150836001820283011115610c2e57610c2d610bdc565b5b9250929050565b5f805f8060408587031215610c4d57610c4c610b77565b5b5f85013567ffffffffffffffff811115610c6a57610c69610b7b565b5b610c7687828801610be0565b9450945050602085013567ffffffffffffffff811115610c9957610c98610b7b565b5b610ca587828801610be0565b925092505092959194509250565b5f73ffffffffffffffffffffffffffffffffffffffff82169050919050565b5f610cdc82610cb3565b9050919050565b610cec81610cd2565b82525050565b5f602082019050610d055f830184610ce3565b92915050565b5f82825260208201905092915050565b7f4e6f207265676973747261646f000000000000000000000000000000000000005f82015250565b5f610d4f600d83610d0b565b9150610d5a82610d1b565b602082019050919050565b5f6020820190508181035f830152610d7c81610d43565b9050919050565b7f4d6f6e746f20646562652073657220706f73697469766f0000000000000000005f82015250565b5f610db7601783610d0b565b9150610dc282610d83565b602082019050919050565b5f6020820190508181035f830152610de481610dab565b9050919050565b7f466f6e646f7320696e737566696369656e7465730000000000000000000000005f82015250565b5f610e1f601483610d0b565b9150610e2a82610deb565b602082019050919050565b5f6020820190508181035f830152610e4c81610e13565b9050919050565b7f4e487b71000000000000000000000000000000000000000000000000000000005f52601160045260245ffd5b5f610e8a82610b46565b9150610e9583610b46565b9250828202610ea381610b46565b91508282048414831517610eba57610eb9610e53565b5b5092915050565b7f4e487b71000000000000000000000000000000000000000000000000000000005f52601260045260245ffd5b5f610ef882610b46565b9150610f0383610b46565b925082610f1357610f12610ec1565b5b828204905092915050565b5f610f2882610b46565b9150610f3383610b46565b9250828203905081811115610f4b57610f4a610e53565b5b92915050565b5f610f5b82610b46565b9150610f6683610b46565b9250828201905080821115610f7e57610f7d610e53565b5b92915050565b5f604082019050610f975f830185610b4f565b610fa46020830184610b4f565b9392505050565b7f4d6f6e746f206465626520736572206d61796f722061206365726f00000000005f82015250565b5f610fdf601b83610d0b565b9150610fea82610fab565b602082019050919050565b5f6020820190508181035f83015261100c81610fd3565b9050919050565b7f4e6f6d6272652072657175657269646f000000000000000000000000000000005f82015250565b5f611047601083610d0b565b915061105282611013565b602082019050919050565b5f6020820190508181035f8301526110748161103b565b9050919050565b7f4170656c6c69646f2072657175657269646f00000000000000000000000000005f82015250565b5f6110af601283610d0b565b91506110ba8261107b565b602082019050919050565b5f6020820190508181035f8301526110dc816110a3565b9050919050565b7f436c69656e7465207961207265676973747261646f00000000000000000000005f82015250565b5f611117601583610d0b565b9150611122826110e3565b602082019050919050565b5f6020820190508181035f8301526111448161110b565b9050919050565b5f81519050919050565b7f4e487b71000000000000000000000000000000000000000000000000000000005f52604160045260245ffd5b7f4e487b71000000000000000000000000000000000000000000000000000000005f52602260045260245ffd5b5f60028204905060018216806111c657607f821691505b6020821081036111d9576111d8611182565b5b50919050565b5f819050815f5260205f209050919050565b5f6020601f8301049050919050565b5f82821b905092915050565b5f6008830261123b7fffffffffffffffffffffffffffffffffffffffffffffffffffffffffffffffff82611200565b6112458683611200565b95508019841693508086168417925050509392505050565b5f819050919050565b5f61128061127b61127684610b46565b61125d565b610b46565b9050919050565b5f819050919050565b61129983611266565b6112ad6112a582611287565b84845461120c565b825550505050565b5f90565b6112c16112b5565b6112cc818484611290565b505050565b5b818110156112ef576112e45f826112b9565b6001810190506112d2565b5050565b601f82111561133457611305816111df565b61130e846111f1565b8101602085101561131d578190505b611331611329856111f1565b8301826112d1565b50505b505050565b5f82821c905092915050565b5f6113545f1984600802611339565b1980831691505092915050565b5f61136c8383611345565b9150826002028217905092915050565b6113858261114b565b67ffffffffffffffff81111561139e5761139d611155565b5b6113a882546111af565b6113b38282856112f3565b5f60209050601f8311600181146113e4575f84156113d2578287015190505b6113dc8582611361565b865550611443565b601f1984166113f2866111df565b5f5b82811015611419578489015182556001820191506020850194506020810190506113f4565b868310156114365784890151611432601f891682611345565b8355505b6001600288020188555050505b505050505050565b828183375f83830152505050565b5f601f19601f8301169050919050565b5f6114748385610d0b565b935061148183858461144b565b61148a83611459565b840190509392505050565b5f6040820190508181035f8301526114ae818688611469565b905081810360208301526114c3818486611469565b905095945050505050565b7f536f6c6f2061646d696e000000000000000000000000000000000000000000005f82015250565b5f611502600a83610d0b565b915061150d826114ce565b602082019050919050565b5f6020820190508181035f83015261152f816114f6565b9050919050565b7f466f6e646f7320696e737566696369656e74657320656e206375656e746100005f82015250565b5f61156a601e83610d0b565b915061157582611536565b602082019050919050565b5f6020820190508181035f8301526115978161155e565b905091905056fea264697066735822122020c1af1eb95e422a2c46501c632499cb7d3568f90981c5a2601f188451d22f0d64736f6c634300081a0033",
					"opcodes": "PUSH1 0x80 PUSH1 0x40 MSTORE CALLVALUE DUP1 ISZERO PUSH2 0xF JUMPI PUSH0 DUP1 REVERT JUMPDEST POP PUSH1 0x40 MLOAD PUSH2 0x1909 CODESIZE SUB DUP1 PUSH2 0x1909 DUP4 CODECOPY DUP2 DUP2 ADD PUSH1 0x40 MSTORE DUP2 ADD SWAP1 PUSH2 0x31 SWAP2 SWAP1 PUSH2 0x20A JUMP JUMPDEST PUSH0 PUSH20 0xFFFFFFFFFFFFFFFFFFFFFFFFFFFFFFFFFFFFFFFF AND DUP2 PUSH20 0xFFFFFFFFFFFFFFFFFFFFFFFFFFFFFFFFFFFFFFFF AND SUB PUSH2 0x9F JUMPI PUSH1 0x40 MLOAD PUSH32 0x8C379A000000000000000000000000000000000000000000000000000000000 DUP2 MSTORE PUSH1 0x4 ADD PUSH2 0x96 SWAP1 PUSH2 0x2A2 JUMP JUMPDEST PUSH1 0x40 MLOAD DUP1 SWAP2 SUB SWAP1 REVERT JUMPDEST PUSH2 0x2710 DUP3 GT ISZERO PUSH2 0xE4 JUMPI PUSH1 0x40 MLOAD PUSH32 0x8C379A000000000000000000000000000000000000000000000000000000000 DUP2 MSTORE PUSH1 0x4 ADD PUSH2 0xDB SWAP1 PUSH2 0x30A JUMP JUMPDEST PUSH1 0x40 MLOAD DUP1 SWAP2 SUB SWAP1 REVERT JUMPDEST CALLER PUSH1 0x1 PUSH0 PUSH2 0x100 EXP DUP2 SLOAD DUP2 PUSH20 0xFFFFFFFFFFFFFFFFFFFFFFFFFFFFFFFFFFFFFFFF MUL NOT AND SWAP1 DUP4 PUSH20 0xFFFFFFFFFFFFFFFFFFFFFFFFFFFFFFFFFFFFFFFF AND MUL OR SWAP1 SSTORE POP DUP2 PUSH1 0x3 DUP2 SWAP1 SSTORE POP DUP1 PUSH1 0x2 PUSH0 PUSH2 0x100 EXP DUP2 SLOAD DUP2 PUSH20 0xFFFFFFFFFFFFFFFFFFFFFFFFFFFFFFFFFFFFFFFF MUL NOT AND SWAP1 DUP4 PUSH20 0xFFFFFFFFFFFFFFFFFFFFFFFFFFFFFFFFFFFFFFFF AND MUL OR SWAP1 SSTORE POP PUSH0 PUSH1 0x4 DUP2 SWAP1 SSTORE POP POP POP PUSH2 0x328 JUMP JUMPDEST PUSH0 DUP1 REVERT JUMPDEST PUSH0 DUP2 SWAP1 POP SWAP2 SWAP1 POP JUMP JUMPDEST PUSH2 0x18F DUP2 PUSH2 0x17D JUMP JUMPDEST DUP2 EQ PUSH2 0x199 JUMPI PUSH0 DUP1 REVERT JUMPDEST POP JUMP JUMPDEST PUSH0 DUP2 MLOAD SWAP1 POP PUSH2 0x1AA DUP2 PUSH2 0x186 JUMP JUMPDEST SWAP3 SWAP2 POP POP JUMP JUMPDEST PUSH0 PUSH20 0xFFFFFFFFFFFFFFFFFFFFFFFFFFFFFFFFFFFFFFFF DUP3 AND SWAP1 POP SWAP2 SWAP1 POP JUMP JUMPDEST PUSH0 PUSH2 0x1D9 DUP3 PUSH2 0x1B0 JUMP JUMPDEST SWAP1 POP SWAP2 SWAP1 POP JUMP JUMPDEST PUSH2 0x1E9 DUP2 PUSH2 0x1CF JUMP JUMPDEST DUP2 EQ PUSH2 0x1F3 JUMPI PUSH0 DUP1 REVERT JUMPDEST POP JUMP JUMPDEST PUSH0 DUP2 MLOAD SWAP1 POP PUSH2 0x204 DUP2 PUSH2 0x1E0 JUMP JUMPDEST SWAP3 SWAP2 POP POP JUMP JUMPDEST PUSH0 DUP1 PUSH1 0x40 DUP4 DUP6 SUB SLT ISZERO PUSH2 0x220 JUMPI PUSH2 0x21F PUSH2 0x179 JUMP JUMPDEST JUMPDEST PUSH0 PUSH2 0x22D DUP6 DUP3 DUP7 ADD PUSH2 0x19C JUMP JUMPDEST SWAP3 POP POP PUSH1 0x20 PUSH2 0x23E DUP6 DUP3 DUP7 ADD PUSH2 0x1F6 JUMP JUMPDEST SWAP2 POP POP SWAP3 POP SWAP3 SWAP1 POP JUMP JUMPDEST PUSH0 DUP3 DUP3 MSTORE PUSH1 0x20 DUP3 ADD SWAP1 POP SWAP3 SWAP2 POP POP JUMP JUMPDEST PUSH32 0x446972656363696F6E206E6F2076616C69646100000000000000000000000000 PUSH0 DUP3 ADD MSTORE POP JUMP JUMPDEST PUSH0 PUSH2 0x28C PUSH1 0x13 DUP4 PUSH2 0x248 JUMP JUMPDEST SWAP2 POP PUSH2 0x297 DUP3 PUSH2 0x258 JUMP JUMPDEST PUSH1 0x20 DUP3 ADD SWAP1 POP SWAP2 SWAP1 POP JUMP JUMPDEST PUSH0 PUSH1 0x20 DUP3 ADD SWAP1 POP DUP2 DUP2 SUB PUSH0 DUP4 ADD MSTORE PUSH2 0x2B9 DUP2 PUSH2 0x280 JUMP JUMPDEST SWAP1 POP SWAP2 SWAP1 POP JUMP JUMPDEST PUSH32 0x43756F7461206E6F2076616C6964610000000000000000000000000000000000 PUSH0 DUP3 ADD MSTORE POP JUMP JUMPDEST PUSH0 PUSH2 0x2F4 PUSH1 0xF DUP4 PUSH2 0x248 JUMP JUMPDEST SWAP2 POP PUSH2 0x2FF DUP3 PUSH2 0x2C0 JUMP JUMPDEST PUSH1 0x20 DUP3 ADD SWAP1 POP SWAP2 SWAP1 POP JUMP JUMPDEST PUSH0 PUSH1 0x20 DUP3 ADD SWAP1 POP DUP2 DUP2 SUB PUSH0 DUP4 ADD MSTORE PUSH2 0x321 DUP2 PUSH2 0x2E8 JUMP JUMPDEST SWAP1 POP SWAP2 SWAP1 POP JUMP JUMPDEST PUSH2 0x15D4 DUP1 PUSH2 0x335 PUSH0 CODECOPY PUSH0 RETURN INVALID PUSH1 0x80 PUSH1 0x40 MSTORE PUSH1 0x4 CALLDATASIZE LT PUSH2 0x85 JUMPI PUSH0 CALLDATALOAD PUSH1 0xE0 SHR DUP1 PUSH4 0xA469A332 GT PUSH2 0x58 JUMPI DUP1 PUSH4 0xA469A332 EQ PUSH2 0x10F JUMPI DUP1 PUSH4 0xC71DACCB EQ PUSH2 0x137 JUMPI DUP1 PUSH4 0xD9A8748C EQ PUSH2 0x161 JUMPI DUP1 PUSH4 0xF851A440 EQ PUSH2 0x18B JUMPI DUP1 PUSH4 0xFC41491E EQ PUSH2 0x1B5 JUMPI PUSH2 0x85 JUMP JUMPDEST DUP1 PUSH4 0x3C067945 EQ PUSH2 0x89 JUMPI DUP1 PUSH4 0x481113C2 EQ PUSH2 0xB3 JUMPI DUP1 PUSH4 0x9ED3EDF0 EQ PUSH2 0xDB JUMPI DUP1 PUSH4 0xA26759CB EQ PUSH2 0x105 JUMPI JUMPDEST PUSH0 DUP1 REVERT JUMPDEST CALLVALUE DUP1 ISZERO PUSH2 0x94 JUMPI PUSH0 DUP1 REVERT JUMPDEST POP PUSH2 0x9D PUSH2 0x1DD JUMP JUMPDEST PUSH1 0x40 MLOAD PUSH2 0xAA SWAP2 SWAP1 PUSH2 0xB5E JUMP JUMPDEST PUSH1 0x40 MLOAD DUP1 SWAP2 SUB SWAP1 RETURN JUMPDEST CALLVALUE DUP1 ISZERO PUSH2 0xBE JUMPI PUSH0 DUP1 REVERT JUMPDEST POP PUSH2 0xD9 PUSH1 0x4 DUP1 CALLDATASIZE SUB DUP2 ADD SWAP1 PUSH2 0xD4 SWAP2 SWAP1 PUSH2 0xBA9 JUMP JUMPDEST PUSH2 0x1E3 JUMP JUMPDEST STOP JUMPDEST CALLVALUE DUP1 ISZERO PUSH2 0xE6 JUMPI PUSH0 DUP1 REVERT JUMPDEST POP PUSH2 0xEF PUSH2 0x465 JUMP JUMPDEST PUSH1 0x40 MLOAD PUSH2 0xFC SWAP2 SWAP1 PUSH2 0xB5E JUMP JUMPDEST PUSH1 0x40 MLOAD DUP1 SWAP2 SUB SWAP1 RETURN JUMPDEST PUSH2 0x10D PUSH2 0x46B JUMP JUMPDEST STOP JUMPDEST CALLVALUE DUP1 ISZERO PUSH2 0x11A JUMPI PUSH0 DUP1 REVERT JUMPDEST POP PUSH2 0x135 PUSH1 0x4 DUP1 CALLDATASIZE SUB DUP2 ADD SWAP1 PUSH2 0x130 SWAP2 SWAP1 PUSH2 0xC35 JUMP JUMPDEST PUSH2 0x5DD JUMP JUMPDEST STOP JUMPDEST CALLVALUE DUP1 ISZERO PUSH2 0x142 JUMPI PUSH0 DUP1 REVERT JUMPDEST POP PUSH2 0x14B PUSH2 0x889 JUMP JUMPDEST PUSH1 0x40 MLOAD PUSH2 0x158 SWAP2 SWAP1 PUSH2 0xB5E JUMP JUMPDEST PUSH1 0x40 MLOAD DUP1 SWAP2 SUB SWAP1 RETURN JUMPDEST CALLVALUE DUP1 ISZERO PUSH2 0x16C JUMPI PUSH0 DUP1 REVERT JUMPDEST POP PUSH2 0x175 PUSH2 0x95A JUMP JUMPDEST PUSH1 0x40 MLOAD PUSH2 0x182 SWAP2 SWAP1 PUSH2 0xCF2 JUMP JUMPDEST PUSH1 0x40 MLOAD DUP1 SWAP2 SUB SWAP1 RETURN JUMPDEST CALLVALUE DUP1 ISZERO PUSH2 0x196 JUMPI PUSH0 DUP1 REVERT JUMPDEST POP PUSH2 0x19F PUSH2 0x97F JUMP JUMPDEST PUSH1 0x40 MLOAD PUSH2 0x1AC SWAP2 SWAP1 PUSH2 0xCF2 JUMP JUMPDEST PUSH1 0x40 MLOAD DUP1 SWAP2 SUB SWAP1 RETURN JUMPDEST CALLVALUE DUP1 ISZERO PUSH2 0x1C0 JUMPI PUSH0 DUP1 REVERT JUMPDEST POP PUSH2 0x1DB PUSH1 0x4 DUP1 CALLDATASIZE SUB DUP2 ADD SWAP1 PUSH2 0x1D6 SWAP2 SWAP1 PUSH2 0xBA9 JUMP JUMPDEST PUSH2 0x9A4 JUMP JUMPDEST STOP JUMPDEST PUSH1 0x4 SLOAD DUP2 JUMP JUMPDEST PUSH0 DUP1 CALLER PUSH20 0xFFFFFFFFFFFFFFFFFFFFFFFFFFFFFFFFFFFFFFFF AND PUSH20 0xFFFFFFFFFFFFFFFFFFFFFFFFFFFFFFFFFFFFFFFF AND DUP2 MSTORE PUSH1 0x20 ADD SWAP1 DUP2 MSTORE PUSH1 0x20 ADD PUSH0 KECCAK256 PUSH1 0x3 ADD PUSH0 SWAP1 SLOAD SWAP1 PUSH2 0x100 EXP SWAP1 DIV PUSH1 0xFF AND PUSH2 0x26E JUMPI PUSH1 0x40 MLOAD PUSH32 0x8C379A000000000000000000000000000000000000000000000000000000000 DUP2 MSTORE PUSH1 0x4 ADD PUSH2 0x265 SWAP1 PUSH2 0xD65 JUMP JUMPDEST PUSH1 0x40 MLOAD DUP1 SWAP2 SUB SWAP1 REVERT JUMPDEST PUSH0 DUP2 GT PUSH2 0x2B0 JUMPI PUSH1 0x40 MLOAD PUSH32 0x8C379A000000000000000000000000000000000000000000000000000000000 DUP2 MSTORE PUSH1 0x4 ADD PUSH2 0x2A7 SWAP1 PUSH2 0xDCD JUMP JUMPDEST PUSH1 0x40 MLOAD DUP1 SWAP2 SUB SWAP1 REVERT JUMPDEST DUP1 PUSH0 DUP1 CALLER PUSH20 0xFFFFFFFFFFFFFFFFFFFFFFFFFFFFFFFFFFFFFFFF AND PUSH20 0xFFFFFFFFFFFFFFFFFFFFFFFFFFFFFFFFFFFFFFFF AND DUP2 MSTORE PUSH1 0x20 ADD SWAP1 DUP2 MSTORE PUSH1 0x20 ADD PUSH0 KECCAK256 PUSH1 0x2 ADD SLOAD LT ISZERO PUSH2 0x332 JUMPI PUSH1 0x40 MLOAD PUSH32 0x8C379A000000000000000000000000000000000000000000000000000000000 DUP2 MSTORE PUSH1 0x4 ADD PUSH2 0x329 SWAP1 PUSH2 0xE35 JUMP JUMPDEST PUSH1 0x40 MLOAD DUP1 SWAP2 SUB SWAP1 REVERT JUMPDEST PUSH0 PUSH2 0x2710 PUSH1 0x3 SLOAD DUP4 PUSH2 0x344 SWAP2 SWAP1 PUSH2 0xE80 JUMP JUMPDEST PUSH2 0x34E SWAP2 SWAP1 PUSH2 0xEEE JUMP JUMPDEST SWAP1 POP PUSH0 DUP2 DUP4 PUSH2 0x35D SWAP2 SWAP1 PUSH2 0xF1E JUMP JUMPDEST SWAP1 POP DUP3 PUSH0 DUP1 CALLER PUSH20 0xFFFFFFFFFFFFFFFFFFFFFFFFFFFFFFFFFFFFFFFF AND PUSH20 0xFFFFFFFFFFFFFFFFFFFFFFFFFFFFFFFFFFFFFFFF AND DUP2 MSTORE PUSH1 0x20 ADD SWAP1 DUP2 MSTORE PUSH1 0x20 ADD PUSH0 KECCAK256 PUSH1 0x2 ADD PUSH0 DUP3 DUP3 SLOAD PUSH2 0x3AD SWAP2 SWAP1 PUSH2 0xF1E JUMP JUMPDEST SWAP3 POP POP DUP2 SWAP1 SSTORE POP DUP2 PUSH1 0x4 PUSH0 DUP3 DUP3 SLOAD PUSH2 0x3C5 SWAP2 SWAP1 PUSH2 0xF51 JUMP JUMPDEST SWAP3 POP POP DUP2 SWAP1 SSTORE POP CALLER PUSH20 0xFFFFFFFFFFFFFFFFFFFFFFFFFFFFFFFFFFFFFFFF AND PUSH2 0x8FC DUP3 SWAP1 DUP2 ISZERO MUL SWAP1 PUSH1 0x40 MLOAD PUSH0 PUSH1 0x40 MLOAD DUP1 DUP4 SUB DUP2 DUP6 DUP9 DUP9 CALL SWAP4 POP POP POP POP ISZERO DUP1 ISZERO PUSH2 0x40F JUMPI RETURNDATASIZE PUSH0 DUP1 RETURNDATACOPY RETURNDATASIZE PUSH0 REVERT JUMPDEST POP CALLER PUSH20 0xFFFFFFFFFFFFFFFFFFFFFFFFFFFFFFFFFFFFFFFF AND PUSH32 0xFBC3A599B784FE88772FC5ABCC07223F64CA0B13ACC341F4FB1E46BEF0510EB4 DUP3 DUP5 PUSH1 0x40 MLOAD PUSH2 0x458 SWAP3 SWAP2 SWAP1 PUSH2 0xF84 JUMP JUMPDEST PUSH1 0x40 MLOAD DUP1 SWAP2 SUB SWAP1 LOG2 POP POP POP JUMP JUMPDEST PUSH1 0x3 SLOAD DUP2 JUMP JUMPDEST PUSH0 DUP1 CALLER PUSH20 0xFFFFFFFFFFFFFFFFFFFFFFFFFFFFFFFFFFFFFFFF AND PUSH20 0xFFFFFFFFFFFFFFFFFFFFFFFFFFFFFFFFFFFFFFFF AND DUP2 MSTORE PUSH1 0x20 ADD SWAP1 DUP2 MSTORE PUSH1 0x20 ADD PUSH0 KECCAK256 PUSH1 0x3 ADD PUSH0 SWAP1 SLOAD SWAP1 PUSH2 0x100 EXP SWAP1 DIV PUSH1 0xFF AND PUSH2 0x4F6 JUMPI PUSH1 0x40 MLOAD PUSH32 0x8C379A000000000000000000000000000000000000000000000000000000000 DUP2 MSTORE PUSH1 0x4 ADD PUSH2 0x4ED SWAP1 PUSH2 0xD65 JUMP JUMPDEST PUSH1 0x40 MLOAD DUP1 SWAP2 SUB SWAP1 REVERT JUMPDEST PUSH0 CALLVALUE GT PUSH2 0x538 JUMPI PUSH1 0x40 MLOAD PUSH32 0x8C379A000000000000000000000000000000000000000000000000000000000 DUP2 MSTORE PUSH1 0x4 ADD PUSH2 0x52F SWAP1 PUSH2 0xFF5 JUMP JUMPDEST PUSH1 0x40 MLOAD DUP1 SWAP2 SUB SWAP1 REVERT JUMPDEST CALLVALUE PUSH0 DUP1 CALLER PUSH20 0xFFFFFFFFFFFFFFFFFFFFFFFFFFFFFFFFFFFFFFFF AND PUSH20 0xFFFFFFFFFFFFFFFFFFFFFFFFFFFFFFFFFFFFFFFF AND DUP2 MSTORE PUSH1 0x20 ADD SWAP1 DUP2 MSTORE PUSH1 0x20 ADD PUSH0 KECCAK256 PUSH1 0x2 ADD PUSH0 DUP3 DUP3 SLOAD PUSH2 0x586 SWAP2 SWAP1 PUSH2 0xF51 JUMP JUMPDEST SWAP3 POP POP DUP2 SWAP1 SSTORE POP CALLER PUSH20 0xFFFFFFFFFFFFFFFFFFFFFFFFFFFFFFFFFFFFFFFF AND PUSH32 0x543BA50A5EEC5E6178218E364B1D0F396157B3C8FA278522C2CB7FD99407D474 CALLVALUE PUSH1 0x40 MLOAD PUSH2 0x5D3 SWAP2 SWAP1 PUSH2 0xB5E JUMP JUMPDEST PUSH1 0x40 MLOAD DUP1 SWAP2 SUB SWAP1 LOG2 JUMP JUMPDEST PUSH0 DUP5 DUP5 SWAP1 POP GT PUSH2 0x622 JUMPI PUSH1 0x40 MLOAD PUSH32 0x8C379A000000000000000000000000000000000000000000000000000000000 DUP2 MSTORE PUSH1 0x4 ADD PUSH2 0x619 SWAP1 PUSH2 0x105D JUMP JUMPDEST PUSH1 0x40 MLOAD DUP1 SWAP2 SUB SWAP1 REVERT JUMPDEST PUSH0 DUP3 DUP3 SWAP1 POP GT PUSH2 0x667 JUMPI PUSH1 0x40 MLOAD PUSH32 0x8C379A000000000000000000000000000000000000000000000000000000000 DUP2 MSTORE PUSH1 0x4 ADD PUSH2 0x65E SWAP1 PUSH2 0x10C5 JUMP JUMPDEST PUSH1 0x40 MLOAD DUP1 SWAP2 SUB SWAP1 REVERT JUMPDEST PUSH0 DUP1 CALLER PUSH20 0xFFFFFFFFFFFFFFFFFFFFFFFFFFFFFFFFFFFFFFFF AND PUSH20 0xFFFFFFFFFFFFFFFFFFFFFFFFFFFFFFFFFFFFFFFF AND DUP2 MSTORE PUSH1 0x20 ADD SWAP1 DUP2 MSTORE PUSH1 0x20 ADD PUSH0 KECCAK256 PUSH1 0x3 ADD PUSH0 SWAP1 SLOAD SWAP1 PUSH2 0x100 EXP SWAP1 DIV PUSH1 0xFF AND ISZERO PUSH2 0x6F3 JUMPI PUSH1 0x40 MLOAD PUSH32 0x8C379A000000000000000000000000000000000000000000000000000000000 DUP2 MSTORE PUSH1 0x4 ADD PUSH2 0x6EA SWAP1 PUSH2 0x112D JUMP JUMPDEST PUSH1 0x40 MLOAD DUP1 SWAP2 SUB SWAP1 REVERT JUMPDEST PUSH1 0x40 MLOAD DUP1 PUSH1 0x80 ADD PUSH1 0x40 MSTORE DUP1 DUP6 DUP6 DUP1 DUP1 PUSH1 0x1F ADD PUSH1 0x20 DUP1 SWAP2 DIV MUL PUSH1 0x20 ADD PUSH1 0x40 MLOAD SWAP1 DUP2 ADD PUSH1 0x40 MSTORE DUP1 SWAP4 SWAP3 SWAP2 SWAP1 DUP2 DUP2 MSTORE PUSH1 0x20 ADD DUP4 DUP4 DUP1 DUP3 DUP5 CALLDATACOPY PUSH0 DUP2 DUP5 ADD MSTORE PUSH1 0x1F NOT PUSH1 0x1F DUP3 ADD AND SWAP1 POP DUP1 DUP4 ADD SWAP3 POP POP POP POP POP POP POP DUP2 MSTORE PUSH1 0x20 ADD DUP4 DUP4 DUP1 DUP1 PUSH1 0x1F ADD PUSH1 0x20 DUP1 SWAP2 DIV MUL PUSH1 0x20 ADD PUSH1 0x40 MLOAD SWAP1 DUP2 ADD PUSH1 0x40 MSTORE DUP1 SWAP4 SWAP3 SWAP2 SWAP1 DUP2 DUP2 MSTORE PUSH1 0x20 ADD DUP4 DUP4 DUP1 DUP3 DUP5 CALLDATACOPY PUSH0 DUP2 DUP5 ADD MSTORE PUSH1 0x1F NOT PUSH1 0x1F DUP3 ADD AND SWAP1 POP DUP1 DUP4 ADD SWAP3 POP POP POP POP POP POP POP DUP2 MSTORE PUSH1 0x20 ADD PUSH0 DUP2 MSTORE PUSH1 0x20 ADD PUSH1 0x1 ISZERO ISZERO DUP2 MSTORE POP PUSH0 DUP1 CALLER PUSH20 0xFFFFFFFFFFFFFFFFFFFFFFFFFFFFFFFFFFFFFFFF AND PUSH20 0xFFFFFFFFFFFFFFFFFFFFFFFFFFFFFFFFFFFFFFFF AND DUP2 MSTORE PUSH1 0x20 ADD SWAP1 DUP2 MSTORE PUSH1 0x20 ADD PUSH0 KECCAK256 PUSH0 DUP3 ADD MLOAD DUP2 PUSH0 ADD SWAP1 DUP2 PUSH2 0x7EC SWAP2 SWAP1 PUSH2 0x137C JUMP JUMPDEST POP PUSH1 0x20 DUP3 ADD MLOAD DUP2 PUSH1 0x1 ADD SWAP1 DUP2 PUSH2 0x802 SWAP2 SWAP1 PUSH2 0x137C JUMP JUMPDEST POP PUSH1 0x40 DUP3 ADD MLOAD DUP2 PUSH1 0x2 ADD SSTORE PUSH1 0x60 DUP3 ADD MLOAD DUP2 PUSH1 0x3 ADD PUSH0 PUSH2 0x100 EXP DUP2 SLOAD DUP2 PUSH1 0xFF MUL NOT AND SWAP1 DUP4 ISZERO ISZERO MUL OR SWAP1 SSTORE POP SWAP1 POP POP CALLER PUSH20 0xFFFFFFFFFFFFFFFFFFFFFFFFFFFFFFFFFFFFFFFF AND PUSH32 0xFC753EFF51EF9BC95CC7789CEFEF07D6F2B86DE04834071141298E2CC3E5360F DUP6 DUP6 DUP6 DUP6 PUSH1 0x40 MLOAD PUSH2 0x87B SWAP5 SWAP4 SWAP3 SWAP2 SWAP1 PUSH2 0x1495 JUMP JUMPDEST PUSH1 0x40 MLOAD DUP1 SWAP2 SUB SWAP1 LOG2 POP POP POP POP JUMP JUMPDEST PUSH0 DUP1 PUSH0 CALLER PUSH20 0xFFFFFFFFFFFFFFFFFFFFFFFFFFFFFFFFFFFFFFFF AND PUSH20 0xFFFFFFFFFFFFFFFFFFFFFFFFFFFFFFFFFFFFFFFF AND DUP2 MSTORE PUSH1 0x20 ADD SWAP1 DUP2 MSTORE PUSH1 0x20 ADD PUSH0 KECCAK256 PUSH1 0x3 ADD PUSH0 SWAP1 SLOAD SWAP1 PUSH2 0x100 EXP SWAP1 DIV PUSH1 0xFF AND PUSH2 0x915 JUMPI PUSH1 0x40 MLOAD PUSH32 0x8C379A000000000000000000000000000000000000000000000000000000000 DUP2 MSTORE PUSH1 0x4 ADD PUSH2 0x90C SWAP1 PUSH2 0xD65 JUMP JUMPDEST PUSH1 0x40 MLOAD DUP1 SWAP2 SUB SWAP1 REVERT JUMPDEST PUSH0 DUP1 CALLER PUSH20 0xFFFFFFFFFFFFFFFFFFFFFFFFFFFFFFFFFFFFFFFF AND PUSH20 0xFFFFFFFFFFFFFFFFFFFFFFFFFFFFFFFFFFFFFFFF AND DUP2 MSTORE PUSH1 0x20 ADD SWAP1 DUP2 MSTORE PUSH1 0x20 ADD PUSH0 KECCAK256 PUSH1 0x2 ADD SLOAD SWAP1 POP SWAP1 JUMP JUMPDEST PUSH1 0x2 PUSH0 SWAP1 SLOAD SWAP1 PUSH2 0x100 EXP SWAP1 DIV PUSH20 0xFFFFFFFFFFFFFFFFFFFFFFFFFFFFFFFFFFFFFFFF AND DUP2 JUMP JUMPDEST PUSH1 0x1 PUSH0 SWAP1 SLOAD SWAP1 PUSH2 0x100 EXP SWAP1 DIV PUSH20 0xFFFFFFFFFFFFFFFFFFFFFFFFFFFFFFFFFFFFFFFF AND DUP2 JUMP JUMPDEST PUSH1 0x1 PUSH0 SWAP1 SLOAD SWAP1 PUSH2 0x100 EXP SWAP1 DIV PUSH20 0xFFFFFFFFFFFFFFFFFFFFFFFFFFFFFFFFFFFFFFFF AND PUSH20 0xFFFFFFFFFFFFFFFFFFFFFFFFFFFFFFFFFFFFFFFF AND CALLER PUSH20 0xFFFFFFFFFFFFFFFFFFFFFFFFFFFFFFFFFFFFFFFF AND EQ PUSH2 0xA33 JUMPI PUSH1 0x40 MLOAD PUSH32 0x8C379A000000000000000000000000000000000000000000000000000000000 DUP2 MSTORE PUSH1 0x4 ADD PUSH2 0xA2A SWAP1 PUSH2 0x1518 JUMP JUMPDEST PUSH1 0x40 MLOAD DUP1 SWAP2 SUB SWAP1 REVERT JUMPDEST DUP1 PUSH1 0x4 SLOAD LT ISZERO PUSH2 0xA78 JUMPI PUSH1 0x40 MLOAD PUSH32 0x8C379A000000000000000000000000000000000000000000000000000000000 DUP2 MSTORE PUSH1 0x4 ADD PUSH2 0xA6F SWAP1 PUSH2 0x1580 JUMP JUMPDEST PUSH1 0x40 MLOAD DUP1 SWAP2 SUB SWAP1 REVERT JUMPDEST DUP1 PUSH1 0x4 PUSH0 DUP3 DUP3 SLOAD PUSH2 0xA89 SWAP2 SWAP1 PUSH2 0xF1E JUMP JUMPDEST SWAP3 POP POP DUP2 SWAP1 SSTORE POP CALLER PUSH20 0xFFFFFFFFFFFFFFFFFFFFFFFFFFFFFFFFFFFFFFFF AND PUSH2 0x8FC DUP3 SWAP1 DUP2 ISZERO MUL SWAP1 PUSH1 0x40 MLOAD PUSH0 PUSH1 0x40 MLOAD DUP1 DUP4 SUB DUP2 DUP6 DUP9 DUP9 CALL SWAP4 POP POP POP POP ISZERO DUP1 ISZERO PUSH2 0xAD3 JUMPI RETURNDATASIZE PUSH0 DUP1 RETURNDATACOPY RETURNDATASIZE PUSH0 REVERT JUMPDEST POP PUSH1 0x1 PUSH0 SWAP1 SLOAD SWAP1 PUSH2 0x100 EXP SWAP1 DIV PUSH20 0xFFFFFFFFFFFFFFFFFFFFFFFFFFFFFFFFFFFFFFFF AND PUSH20 0xFFFFFFFFFFFFFFFFFFFFFFFFFFFFFFFFFFFFFFFF AND PUSH32 0xA692503BC54C9F1D1483729B6058A24987097FF492084B1A8ADF8CAE08E4FB43 DUP3 PUSH1 0x40 MLOAD PUSH2 0xB3B SWAP2 SWAP1 PUSH2 0xB5E JUMP JUMPDEST PUSH1 0x40 MLOAD DUP1 SWAP2 SUB SWAP1 LOG2 POP JUMP JUMPDEST PUSH0 DUP2 SWAP1 POP SWAP2 SWAP1 POP JUMP JUMPDEST PUSH2 0xB58 DUP2 PUSH2 0xB46 JUMP JUMPDEST DUP3 MSTORE POP POP JUMP JUMPDEST PUSH0 PUSH1 0x20 DUP3 ADD SWAP1 POP PUSH2 0xB71 PUSH0 DUP4 ADD DUP5 PUSH2 0xB4F JUMP JUMPDEST SWAP3 SWAP2 POP POP JUMP JUMPDEST PUSH0 DUP1 REVERT JUMPDEST PUSH0 DUP1 REVERT JUMPDEST PUSH2 0xB88 DUP2 PUSH2 0xB46 JUMP JUMPDEST DUP2 EQ PUSH2 0xB92 JUMPI PUSH0 DUP1 REVERT JUMPDEST POP JUMP JUMPDEST PUSH0 DUP2 CALLDATALOAD SWAP1 POP PUSH2 0xBA3 DUP2 PUSH2 0xB7F JUMP JUMPDEST SWAP3 SWAP2 POP POP JUMP JUMPDEST PUSH0 PUSH1 0x20 DUP3 DUP5 SUB SLT ISZERO PUSH2 0xBBE JUMPI PUSH2 0xBBD PUSH2 0xB77 JUMP JUMPDEST JUMPDEST PUSH0 PUSH2 0xBCB DUP5 DUP3 DUP6 ADD PUSH2 0xB95 JUMP JUMPDEST SWAP2 POP POP SWAP3 SWAP2 POP POP JUMP JUMPDEST PUSH0 DUP1 REVERT JUMPDEST PUSH0 DUP1 REVERT JUMPDEST PUSH0 DUP1 REVERT JUMPDEST PUSH0 DUP1 DUP4 PUSH1 0x1F DUP5 ADD SLT PUSH2 0xBF5 JUMPI PUSH2 0xBF4 PUSH2 0xBD4 JUMP JUMPDEST JUMPDEST DUP3 CALLDATALOAD SWAP1 POP PUSH8 0xFFFFFFFFFFFFFFFF DUP2 GT ISZERO PUSH2 0xC12 JUMPI PUSH2 0xC11 PUSH2 0xBD8 JUMP JUMPDEST JUMPDEST PUSH1 0x20 DUP4 ADD SWAP2 POP DUP4 PUSH1 0x1 DUP3 MUL DUP4 ADD GT ISZERO PUSH2 0xC2E JUMPI PUSH2 0xC2D PUSH2 0xBDC JUMP JUMPDEST JUMPDEST SWAP3 POP SWAP3 SWAP1 POP JUMP JUMPDEST PUSH0 DUP1 PUSH0 DUP1 PUSH1 0x40 DUP6 DUP8 SUB SLT ISZERO PUSH2 0xC4D JUMPI PUSH2 0xC4C PUSH2 0xB77 JUMP JUMPDEST JUMPDEST PUSH0 DUP6 ADD CALLDATALOAD PUSH8 0xFFFFFFFFFFFFFFFF DUP2 GT ISZERO PUSH2 0xC6A JUMPI PUSH2 0xC69 PUSH2 0xB7B JUMP JUMPDEST JUMPDEST PUSH2 0xC76 DUP8 DUP3 DUP9 ADD PUSH2 0xBE0 JUMP JUMPDEST SWAP5 POP SWAP5 POP POP PUSH1 0x20 DUP6 ADD CALLDATALOAD PUSH8 0xFFFFFFFFFFFFFFFF DUP2 GT ISZERO PUSH2 0xC99 JUMPI PUSH2 0xC98 PUSH2 0xB7B JUMP JUMPDEST JUMPDEST PUSH2 0xCA5 DUP8 DUP3 DUP9 ADD PUSH2 0xBE0 JUMP JUMPDEST SWAP3 POP SWAP3 POP POP SWAP3 SWAP6 SWAP2 SWAP5 POP SWAP3 POP JUMP JUMPDEST PUSH0 PUSH20 0xFFFFFFFFFFFFFFFFFFFFFFFFFFFFFFFFFFFFFFFF DUP3 AND SWAP1 POP SWAP2 SWAP1 POP JUMP JUMPDEST PUSH0 PUSH2 0xCDC DUP3 PUSH2 0xCB3 JUMP JUMPDEST SWAP1 POP SWAP2 SWAP1 POP JUMP JUMPDEST PUSH2 0xCEC DUP2 PUSH2 0xCD2 JUMP JUMPDEST DUP3 MSTORE POP POP JUMP JUMPDEST PUSH0 PUSH1 0x20 DUP3 ADD SWAP1 POP PUSH2 0xD05 PUSH0 DUP4 ADD DUP5 PUSH2 0xCE3 JUMP JUMPDEST SWAP3 SWAP2 POP POP JUMP JUMPDEST PUSH0 DUP3 DUP3 MSTORE PUSH1 0x20 DUP3 ADD SWAP1 POP SWAP3 SWAP2 POP POP JUMP JUMPDEST PUSH32 0x4E6F207265676973747261646F00000000000000000000000000000000000000 PUSH0 DUP3 ADD MSTORE POP JUMP JUMPDEST PUSH0 PUSH2 0xD4F PUSH1 0xD DUP4 PUSH2 0xD0B JUMP JUMPDEST SWAP2 POP PUSH2 0xD5A DUP3 PUSH2 0xD1B JUMP JUMPDEST PUSH1 0x20 DUP3 ADD SWAP1 POP SWAP2 SWAP1 POP JUMP JUMPDEST PUSH0 PUSH1 0x20 DUP3 ADD SWAP1 POP DUP2 DUP2 SUB PUSH0 DUP4 ADD MSTORE PUSH2 0xD7C DUP2 PUSH2 0xD43 JUMP JUMPDEST SWAP1 POP SWAP2 SWAP1 POP JUMP JUMPDEST PUSH32 0x4D6F6E746F20646562652073657220706F73697469766F000000000000000000 PUSH0 DUP3 ADD MSTORE POP JUMP JUMPDEST PUSH0 PUSH2 0xDB7 PUSH1 0x17 DUP4 PUSH2 0xD0B JUMP JUMPDEST SWAP2 POP PUSH2 0xDC2 DUP3 PUSH2 0xD83 JUMP JUMPDEST PUSH1 0x20 DUP3 ADD SWAP1 POP SWAP2 SWAP1 POP JUMP JUMPDEST PUSH0 PUSH1 0x20 DUP3 ADD SWAP1 POP DUP2 DUP2 SUB PUSH0 DUP4 ADD MSTORE PUSH2 0xDE4 DUP2 PUSH2 0xDAB JUMP JUMPDEST SWAP1 POP SWAP2 SWAP1 POP JUMP JUMPDEST PUSH32 0x466F6E646F7320696E737566696369656E746573000000000000000000000000 PUSH0 DUP3 ADD MSTORE POP JUMP JUMPDEST PUSH0 PUSH2 0xE1F PUSH1 0x14 DUP4 PUSH2 0xD0B JUMP JUMPDEST SWAP2 POP PUSH2 0xE2A DUP3 PUSH2 0xDEB JUMP JUMPDEST PUSH1 0x20 DUP3 ADD SWAP1 POP SWAP2 SWAP1 POP JUMP JUMPDEST PUSH0 PUSH1 0x20 DUP3 ADD SWAP1 POP DUP2 DUP2 SUB PUSH0 DUP4 ADD MSTORE PUSH2 0xE4C DUP2 PUSH2 0xE13 JUMP JUMPDEST SWAP1 POP SWAP2 SWAP1 POP JUMP JUMPDEST PUSH32 0x4E487B7100000000000000000000000000000000000000000000000000000000 PUSH0 MSTORE PUSH1 0x11 PUSH1 0x4 MSTORE PUSH1 0x24 PUSH0 REVERT JUMPDEST PUSH0 PUSH2 0xE8A DUP3 PUSH2 0xB46 JUMP JUMPDEST SWAP2 POP PUSH2 0xE95 DUP4 PUSH2 0xB46 JUMP JUMPDEST SWAP3 POP DUP3 DUP3 MUL PUSH2 0xEA3 DUP2 PUSH2 0xB46 JUMP JUMPDEST SWAP2 POP DUP3 DUP3 DIV DUP5 EQ DUP4 ISZERO OR PUSH2 0xEBA JUMPI PUSH2 0xEB9 PUSH2 0xE53 JUMP JUMPDEST JUMPDEST POP SWAP3 SWAP2 POP POP JUMP JUMPDEST PUSH32 0x4E487B7100000000000000000000000000000000000000000000000000000000 PUSH0 MSTORE PUSH1 0x12 PUSH1 0x4 MSTORE PUSH1 0x24 PUSH0 REVERT JUMPDEST PUSH0 PUSH2 0xEF8 DUP3 PUSH2 0xB46 JUMP JUMPDEST SWAP2 POP PUSH2 0xF03 DUP4 PUSH2 0xB46 JUMP JUMPDEST SWAP3 POP DUP3 PUSH2 0xF13 JUMPI PUSH2 0xF12 PUSH2 0xEC1 JUMP JUMPDEST JUMPDEST DUP3 DUP3 DIV SWAP1 POP SWAP3 SWAP2 POP POP JUMP JUMPDEST PUSH0 PUSH2 0xF28 DUP3 PUSH2 0xB46 JUMP JUMPDEST SWAP2 POP PUSH2 0xF33 DUP4 PUSH2 0xB46 JUMP JUMPDEST SWAP3 POP DUP3 DUP3 SUB SWAP1 POP DUP2 DUP2 GT ISZERO PUSH2 0xF4B JUMPI PUSH2 0xF4A PUSH2 0xE53 JUMP JUMPDEST JUMPDEST SWAP3 SWAP2 POP POP JUMP JUMPDEST PUSH0 PUSH2 0xF5B DUP3 PUSH2 0xB46 JUMP JUMPDEST SWAP2 POP PUSH2 0xF66 DUP4 PUSH2 0xB46 JUMP JUMPDEST SWAP3 POP DUP3 DUP3 ADD SWAP1 POP DUP1 DUP3 GT ISZERO PUSH2 0xF7E JUMPI PUSH2 0xF7D PUSH2 0xE53 JUMP JUMPDEST JUMPDEST SWAP3 SWAP2 POP POP JUMP JUMPDEST PUSH0 PUSH1 0x40 DUP3 ADD SWAP1 POP PUSH2 0xF97 PUSH0 DUP4 ADD DUP6 PUSH2 0xB4F JUMP JUMPDEST PUSH2 0xFA4 PUSH1 0x20 DUP4 ADD DUP5 PUSH2 0xB4F JUMP JUMPDEST SWAP4 SWAP3 POP POP POP JUMP JUMPDEST PUSH32 0x4D6F6E746F206465626520736572206D61796F722061206365726F0000000000 PUSH0 DUP3 ADD MSTORE POP JUMP JUMPDEST PUSH0 PUSH2 0xFDF PUSH1 0x1B DUP4 PUSH2 0xD0B JUMP JUMPDEST SWAP2 POP PUSH2 0xFEA DUP3 PUSH2 0xFAB JUMP JUMPDEST PUSH1 0x20 DUP3 ADD SWAP1 POP SWAP2 SWAP1 POP JUMP JUMPDEST PUSH0 PUSH1 0x20 DUP3 ADD SWAP1 POP DUP2 DUP2 SUB PUSH0 DUP4 ADD MSTORE PUSH2 0x100C DUP2 PUSH2 0xFD3 JUMP JUMPDEST SWAP1 POP SWAP2 SWAP1 POP JUMP JUMPDEST PUSH32 0x4E6F6D6272652072657175657269646F00000000000000000000000000000000 PUSH0 DUP3 ADD MSTORE POP JUMP JUMPDEST PUSH0 PUSH2 0x1047 PUSH1 0x10 DUP4 PUSH2 0xD0B JUMP JUMPDEST SWAP2 POP PUSH2 0x1052 DUP3 PUSH2 0x1013 JUMP JUMPDEST PUSH1 0x20 DUP3 ADD SWAP1 POP SWAP2 SWAP1 POP JUMP JUMPDEST PUSH0 PUSH1 0x20 DUP3 ADD SWAP1 POP DUP2 DUP2 SUB PUSH0 DUP4 ADD MSTORE PUSH2 0x1074 DUP2 PUSH2 0x103B JUMP JUMPDEST SWAP1 POP SWAP2 SWAP1 POP JUMP JUMPDEST PUSH32 0x4170656C6C69646F2072657175657269646F0000000000000000000000000000 PUSH0 DUP3 ADD MSTORE POP JUMP JUMPDEST PUSH0 PUSH2 0x10AF PUSH1 0x12 DUP4 PUSH2 0xD0B JUMP JUMPDEST SWAP2 POP PUSH2 0x10BA DUP3 PUSH2 0x107B JUMP JUMPDEST PUSH1 0x20 DUP3 ADD SWAP1 POP SWAP2 SWAP1 POP JUMP JUMPDEST PUSH0 PUSH1 0x20 DUP3 ADD SWAP1 POP DUP2 DUP2 SUB PUSH0 DUP4 ADD MSTORE PUSH2 0x10DC DUP2 PUSH2 0x10A3 JUMP JUMPDEST SWAP1 POP SWAP2 SWAP1 POP JUMP JUMPDEST PUSH32 0x436C69656E7465207961207265676973747261646F0000000000000000000000 PUSH0 DUP3 ADD MSTORE POP JUMP JUMPDEST PUSH0 PUSH2 0x1117 PUSH1 0x15 DUP4 PUSH2 0xD0B JUMP JUMPDEST SWAP2 POP PUSH2 0x1122 DUP3 PUSH2 0x10E3 JUMP JUMPDEST PUSH1 0x20 DUP3 ADD SWAP1 POP SWAP2 SWAP1 POP JUMP JUMPDEST PUSH0 PUSH1 0x20 DUP3 ADD SWAP1 POP DUP2 DUP2 SUB PUSH0 DUP4 ADD MSTORE PUSH2 0x1144 DUP2 PUSH2 0x110B JUMP JUMPDEST SWAP1 POP SWAP2 SWAP1 POP JUMP JUMPDEST PUSH0 DUP2 MLOAD SWAP1 POP SWAP2 SWAP1 POP JUMP JUMPDEST PUSH32 0x4E487B7100000000000000000000000000000000000000000000000000000000 PUSH0 MSTORE PUSH1 0x41 PUSH1 0x4 MSTORE PUSH1 0x24 PUSH0 REVERT JUMPDEST PUSH32 0x4E487B7100000000000000000000000000000000000000000000000000000000 PUSH0 MSTORE PUSH1 0x22 PUSH1 0x4 MSTORE PUSH1 0x24 PUSH0 REVERT JUMPDEST PUSH0 PUSH1 0x2 DUP3 DIV SWAP1 POP PUSH1 0x1 DUP3 AND DUP1 PUSH2 0x11C6 JUMPI PUSH1 0x7F DUP3 AND SWAP2 POP JUMPDEST PUSH1 0x20 DUP3 LT DUP2 SUB PUSH2 0x11D9 JUMPI PUSH2 0x11D8 PUSH2 0x1182 JUMP JUMPDEST JUMPDEST POP SWAP2 SWAP1 POP JUMP JUMPDEST PUSH0 DUP2 SWAP1 POP DUP2 PUSH0 MSTORE PUSH1 0x20 PUSH0 KECCAK256 SWAP1 POP SWAP2 SWAP1 POP JUMP JUMPDEST PUSH0 PUSH1 0x20 PUSH1 0x1F DUP4 ADD DIV SWAP1 POP SWAP2 SWAP1 POP JUMP JUMPDEST PUSH0 DUP3 DUP3 SHL SWAP1 POP SWAP3 SWAP2 POP POP JUMP JUMPDEST PUSH0 PUSH1 0x8 DUP4 MUL PUSH2 0x123B PUSH32 0xFFFFFFFFFFFFFFFFFFFFFFFFFFFFFFFFFFFFFFFFFFFFFFFFFFFFFFFFFFFFFFFF DUP3 PUSH2 0x1200 JUMP JUMPDEST PUSH2 0x1245 DUP7 DUP4 PUSH2 0x1200 JUMP JUMPDEST SWAP6 POP DUP1 NOT DUP5 AND SWAP4 POP DUP1 DUP7 AND DUP5 OR SWAP3 POP POP POP SWAP4 SWAP3 POP POP POP JUMP JUMPDEST PUSH0 DUP2 SWAP1 POP SWAP2 SWAP1 POP JUMP JUMPDEST PUSH0 PUSH2 0x1280 PUSH2 0x127B PUSH2 0x1276 DUP5 PUSH2 0xB46 JUMP JUMPDEST PUSH2 0x125D JUMP JUMPDEST PUSH2 0xB46 JUMP JUMPDEST SWAP1 POP SWAP2 SWAP1 POP JUMP JUMPDEST PUSH0 DUP2 SWAP1 POP SWAP2 SWAP1 POP JUMP JUMPDEST PUSH2 0x1299 DUP4 PUSH2 0x1266 JUMP JUMPDEST PUSH2 0x12AD PUSH2 0x12A5 DUP3 PUSH2 0x1287 JUMP JUMPDEST DUP5 DUP5 SLOAD PUSH2 0x120C JUMP JUMPDEST DUP3 SSTORE POP POP POP POP JUMP JUMPDEST PUSH0 SWAP1 JUMP JUMPDEST PUSH2 0x12C1 PUSH2 0x12B5 JUMP JUMPDEST PUSH2 0x12CC DUP2 DUP5 DUP5 PUSH2 0x1290 JUMP JUMPDEST POP POP POP JUMP JUMPDEST JUMPDEST DUP2 DUP2 LT ISZERO PUSH2 0x12EF JUMPI PUSH2 0x12E4 PUSH0 DUP3 PUSH2 0x12B9 JUMP JUMPDEST PUSH1 0x1 DUP2 ADD SWAP1 POP PUSH2 0x12D2 JUMP JUMPDEST POP POP JUMP JUMPDEST PUSH1 0x1F DUP3 GT ISZERO PUSH2 0x1334 JUMPI PUSH2 0x1305 DUP2 PUSH2 0x11DF JUMP JUMPDEST PUSH2 0x130E DUP5 PUSH2 0x11F1 JUMP JUMPDEST DUP2 ADD PUSH1 0x20 DUP6 LT ISZERO PUSH2 0x131D JUMPI DUP2 SWAP1 POP JUMPDEST PUSH2 0x1331 PUSH2 0x1329 DUP6 PUSH2 0x11F1 JUMP JUMPDEST DUP4 ADD DUP3 PUSH2 0x12D1 JUMP JUMPDEST POP POP JUMPDEST POP POP POP JUMP JUMPDEST PUSH0 DUP3 DUP3 SHR SWAP1 POP SWAP3 SWAP2 POP POP JUMP JUMPDEST PUSH0 PUSH2 0x1354 PUSH0 NOT DUP5 PUSH1 0x8 MUL PUSH2 0x1339 JUMP JUMPDEST NOT DUP1 DUP4 AND SWAP2 POP POP SWAP3 SWAP2 POP POP JUMP JUMPDEST PUSH0 PUSH2 0x136C DUP4 DUP4 PUSH2 0x1345 JUMP JUMPDEST SWAP2 POP DUP3 PUSH1 0x2 MUL DUP3 OR SWAP1 POP SWAP3 SWAP2 POP POP JUMP JUMPDEST PUSH2 0x1385 DUP3 PUSH2 0x114B JUMP JUMPDEST PUSH8 0xFFFFFFFFFFFFFFFF DUP2 GT ISZERO PUSH2 0x139E JUMPI PUSH2 0x139D PUSH2 0x1155 JUMP JUMPDEST JUMPDEST PUSH2 0x13A8 DUP3 SLOAD PUSH2 0x11AF JUMP JUMPDEST PUSH2 0x13B3 DUP3 DUP3 DUP6 PUSH2 0x12F3 JUMP JUMPDEST PUSH0 PUSH1 0x20 SWAP1 POP PUSH1 0x1F DUP4 GT PUSH1 0x1 DUP2 EQ PUSH2 0x13E4 JUMPI PUSH0 DUP5 ISZERO PUSH2 0x13D2 JUMPI DUP3 DUP8 ADD MLOAD SWAP1 POP JUMPDEST PUSH2 0x13DC DUP6 DUP3 PUSH2 0x1361 JUMP JUMPDEST DUP7 SSTORE POP PUSH2 0x1443 JUMP JUMPDEST PUSH1 0x1F NOT DUP5 AND PUSH2 0x13F2 DUP7 PUSH2 0x11DF JUMP JUMPDEST PUSH0 JUMPDEST DUP3 DUP2 LT ISZERO PUSH2 0x1419 JUMPI DUP5 DUP10 ADD MLOAD DUP3 SSTORE PUSH1 0x1 DUP3 ADD SWAP2 POP PUSH1 0x20 DUP6 ADD SWAP5 POP PUSH1 0x20 DUP2 ADD SWAP1 POP PUSH2 0x13F4 JUMP JUMPDEST DUP7 DUP4 LT ISZERO PUSH2 0x1436 JUMPI DUP5 DUP10 ADD MLOAD PUSH2 0x1432 PUSH1 0x1F DUP10 AND DUP3 PUSH2 0x1345 JUMP JUMPDEST DUP4 SSTORE POP JUMPDEST PUSH1 0x1 PUSH1 0x2 DUP9 MUL ADD DUP9 SSTORE POP POP POP JUMPDEST POP POP POP POP POP POP JUMP JUMPDEST DUP3 DUP2 DUP4 CALLDATACOPY PUSH0 DUP4 DUP4 ADD MSTORE POP POP POP JUMP JUMPDEST PUSH0 PUSH1 0x1F NOT PUSH1 0x1F DUP4 ADD AND SWAP1 POP SWAP2 SWAP1 POP JUMP JUMPDEST PUSH0 PUSH2 0x1474 DUP4 DUP6 PUSH2 0xD0B JUMP JUMPDEST SWAP4 POP PUSH2 0x1481 DUP4 DUP6 DUP5 PUSH2 0x144B JUMP JUMPDEST PUSH2 0x148A DUP4 PUSH2 0x1459 JUMP JUMPDEST DUP5 ADD SWAP1 POP SWAP4 SWAP3 POP POP POP JUMP JUMPDEST PUSH0 PUSH1 0x40 DUP3 ADD SWAP1 POP DUP2 DUP2 SUB PUSH0 DUP4 ADD MSTORE PUSH2 0x14AE DUP2 DUP7 DUP9 PUSH2 0x1469 JUMP JUMPDEST SWAP1 POP DUP2 DUP2 SUB PUSH1 0x20 DUP4 ADD MSTORE PUSH2 0x14C3 DUP2 DUP5 DUP7 PUSH2 0x1469 JUMP JUMPDEST SWAP1 POP SWAP6 SWAP5 POP POP POP POP POP JUMP JUMPDEST PUSH32 0x536F6C6F2061646D696E00000000000000000000000000000000000000000000 PUSH0 DUP3 ADD MSTORE POP JUMP JUMPDEST PUSH0 PUSH2 0x1502 PUSH1 0xA DUP4 PUSH2 0xD0B JUMP JUMPDEST SWAP2 POP PUSH2 0x150D DUP3 PUSH2 0x14CE JUMP JUMPDEST PUSH1 0x20 DUP3 ADD SWAP1 POP SWAP2 SWAP1 POP JUMP JUMPDEST PUSH0 PUSH1 0x20 DUP3 ADD SWAP1 POP DUP2 DUP2 SUB PUSH0 DUP4 ADD MSTORE PUSH2 0x152F DUP2 PUSH2 0x14F6 JUMP JUMPDEST SWAP1 POP SWAP2 SWAP1 POP JUMP JUMPDEST PUSH32 0x466F6E646F7320696E737566696369656E74657320656E206375656E74610000 PUSH0 DUP3 ADD MSTORE POP JUMP JUMPDEST PUSH0 PUSH2 0x156A PUSH1 0x1E DUP4 PUSH2 0xD0B JUMP JUMPDEST SWAP2 POP PUSH2 0x1575 DUP3 PUSH2 0x1536 JUMP JUMPDEST PUSH1 0x20 DUP3 ADD SWAP1 POP SWAP2 SWAP1 POP JUMP JUMPDEST PUSH0 PUSH1 0x20 DUP3 ADD SWAP1 POP DUP2 DUP2 SUB PUSH0 DUP4 ADD MSTORE PUSH2 0x1597 DUP2 PUSH2 0x155E JUMP JUMPDEST SWAP1 POP SWAP2 SWAP1 POP JUMP INVALID LOG2 PUSH5 0x6970667358 0x22 SLT KECCAK256 KECCAK256 0xC1 0xAF 0x1E 0xB9 MCOPY TIMESTAMP 0x2A 0x2C CHAINID POP SHR PUSH4 0x2499CB7D CALLDATALOAD PUSH9 0xF90981C5A2601F1884 MLOAD 0xD2 0x2F 0xD PUSH5 0x736F6C6343 STOP ADDMOD BYTE STOP CALLER "
				},
				"gasEstimates": {
					"creation": {
						"codeDepositCost": "1117600",
						"executionCost": "infinite",
						"totalCost": "infinite"
					},
					"external": {
						"addFunds()": "infinite",
						"admin()": "2574",
						"checkBalance()": "4792",
						"fundAccount()": "2552",
						"fundBalance()": "2426",
						"retrieveFunds(uint256)": "infinite",
						"signUp(string,string)": "infinite",
						"takeOutFunds(uint256)": "infinite",
						"transactionFee()": "2470"
					}
				},
				"methodIdentifiers": {
					"addFunds()": "a26759cb",
					"admin()": "f851a440",
					"checkBalance()": "c71daccb",
					"fundAccount()": "d9a8748c",
					"fundBalance()": "3c067945",
					"retrieveFunds(uint256)": "fc41491e",
					"signUp(string,string)": "a469a332",
					"takeOutFunds(uint256)": "481113c2",
					"transactionFee()": "9ed3edf0"
				}
			},
			"storageLayout": {
				"storage": [
					{
						"astId": 16,
						"contract": "ETH - Henry/contracts/SimpleBank.sol:SimpleBank",
						"label": "clients",
						"offset": 0,
						"slot": "0",
						"type": "t_mapping(t_address,t_struct(Client)11_storage)"
					},
					{
						"astId": 18,
						"contract": "ETH - Henry/contracts/SimpleBank.sol:SimpleBank",
						"label": "admin",
						"offset": 0,
						"slot": "1",
						"type": "t_address"
					},
					{
						"astId": 20,
						"contract": "ETH - Henry/contracts/SimpleBank.sol:SimpleBank",
						"label": "fundAccount",
						"offset": 0,
						"slot": "2",
						"type": "t_address"
					},
					{
						"astId": 22,
						"contract": "ETH - Henry/contracts/SimpleBank.sol:SimpleBank",
						"label": "transactionFee",
						"offset": 0,
						"slot": "3",
						"type": "t_uint256"
					},
					{
						"astId": 24,
						"contract": "ETH - Henry/contracts/SimpleBank.sol:SimpleBank",
						"label": "fundBalance",
						"offset": 0,
						"slot": "4",
						"type": "t_uint256"
					}
				],
				"types": {
					"t_address": {
						"encoding": "inplace",
						"label": "address",
						"numberOfBytes": "20"
					},
					"t_bool": {
						"encoding": "inplace",
						"label": "bool",
						"numberOfBytes": "1"
					},
					"t_mapping(t_address,t_struct(Client)11_storage)": {
						"encoding": "mapping",
						"key": "t_address",
						"label": "mapping(address => struct SimpleBank.Client)",
						"numberOfBytes": "32",
						"value": "t_struct(Client)11_storage"
					},
					"t_string_storage": {
						"encoding": "bytes",
						"label": "string",
						"numberOfBytes": "32"
					},
					"t_struct(Client)11_storage": {
						"encoding": "inplace",
						"label": "struct SimpleBank.Client",
						"members": [
							{
								"astId": 4,
								"contract": "ETH - Henry/contracts/SimpleBank.sol:SimpleBank",
								"label": "name",
								"offset": 0,
								"slot": "0",
								"type": "t_string_storage"
							},
							{
								"astId": 6,
								"contract": "ETH - Henry/contracts/SimpleBank.sol:SimpleBank",
								"label": "surname",
								"offset": 0,
								"slot": "1",
								"type": "t_string_storage"
							},
							{
								"astId": 8,
								"contract": "ETH - Henry/contracts/SimpleBank.sol:SimpleBank",
								"label": "balance",
								"offset": 0,
								"slot": "2",
								"type": "t_uint256"
							},
							{
								"astId": 10,
								"contract": "ETH - Henry/contracts/SimpleBank.sol:SimpleBank",
								"label": "registered",
								"offset": 0,
								"slot": "3",
								"type": "t_bool"
							}
						],
						"numberOfBytes": "128"
					},
					"t_uint256": {
						"encoding": "inplace",
						"label": "uint256",
						"numberOfBytes": "32"
					}
				}
			},
			"userdoc": {
				"kind": "user",
				"methods": {},
				"version": 1
			}
		}
	}
}