{
	"data": {
		"bytecode": {
			"linkReferences": {},
			"object": "60806040525f3411610046576040517f08c379a000000000000000000000000000000000000000000000000000000000815260040161003d90610104565b60405180910390fd5b7f88a5966d370b9919b20f3e2c13ff65706f196a4e32cc2c12bf57088f885258743334604051610077929190610179565b60405180910390a16101a0565b5f82825260208201905092915050565b7f4465626520656e7669617220457468657220616c20646573706c6567617220655f8201527f6c20636f6e747261746f00000000000000000000000000000000000000000000602082015250565b5f6100ee602a83610084565b91506100f982610094565b604082019050919050565b5f6020820190508181035f83015261011b816100e2565b9050919050565b5f73ffffffffffffffffffffffffffffffffffffffff82169050919050565b5f61014b82610122565b9050919050565b61015b81610141565b82525050565b5f819050919050565b61017381610161565b82525050565b5f60408201905061018c5f830185610152565b610199602083018461016a565b9392505050565b610660806101ad5f395ff3fe608060405260043610610037575f3560e01c806312065fe0146100b25780633b4443d8146100dc578063c1756a2c146100e657610077565b36610077577f88a5966d370b9919b20f3e2c13ff65706f196a4e32cc2c12bf57088f88525874333460405161006d929190610312565b60405180910390a1005b7f88a5966d370b9919b20f3e2c13ff65706f196a4e32cc2c12bf57088f8852587433346040516100a8929190610312565b60405180910390a1005b3480156100bd575f5ffd5b506100c661010e565b6040516100d39190610339565b60405180910390f35b6100e4610115565b005b3480156100f1575f5ffd5b5061010c600480360381019061010791906103bb565b610192565b005b5f47905090565b5f3411610157576040517f08c379a000000000000000000000000000000000000000000000000000000000815260040161014e90610453565b60405180910390fd5b7f88a5966d370b9919b20f3e2c13ff65706f196a4e32cc2c12bf57088f885258743334604051610188929190610312565b60405180910390a1565b478111156101d5576040517f08c379a00000000000000000000000000000000000000000000000000000000081526004016101cc906104e1565b60405180910390fd5b5f8273ffffffffffffffffffffffffffffffffffffffff16826040516101fa9061052c565b5f6040518083038185875af1925050503d805f8114610234576040519150601f19603f3d011682016040523d82523d5f602084013e610239565b606091505b505090508061027d576040517f08c379a00000000000000000000000000000000000000000000000000000000081526004016102749061058a565b60405180910390fd5b7f510ffb4dcab972ae9d2007a58e13f1b0881776d23cd8f5cc32f8c5be2dbf70d283836040516102ae929190610603565b60405180910390a1505050565b5f73ffffffffffffffffffffffffffffffffffffffff82169050919050565b5f6102e4826102bb565b9050919050565b6102f4816102da565b82525050565b5f819050919050565b61030c816102fa565b82525050565b5f6040820190506103255f8301856102eb565b6103326020830184610303565b9392505050565b5f60208201905061034c5f830184610303565b92915050565b5f5ffd5b5f610360826102bb565b9050919050565b61037081610356565b811461037a575f5ffd5b50565b5f8135905061038b81610367565b92915050565b61039a816102fa565b81146103a4575f5ffd5b50565b5f813590506103b581610391565b92915050565b5f5f604083850312156103d1576103d0610352565b5b5f6103de8582860161037d565b92505060206103ef858286016103a7565b9150509250929050565b5f82825260208201905092915050565b7f4465626520656e7669617220616c676f206465204574686572000000000000005f82015250565b5f61043d6019836103f9565b915061044882610409565b602082019050919050565b5f6020820190508181035f83015261046a81610431565b9050919050565b7f466f6e646f7320696e737566696369656e74657320656e20656c20636f6e74725f8201527f61746f0000000000000000000000000000000000000000000000000000000000602082015250565b5f6104cb6023836103f9565b91506104d682610471565b604082019050919050565b5f6020820190508181035f8301526104f8816104bf565b9050919050565b5f81905092915050565b50565b5f6105175f836104ff565b915061052282610509565b5f82019050919050565b5f6105368261050c565b9150819050919050565b7f4572726f7220616c20656e7669617220457468657200000000000000000000005f82015250565b5f6105746015836103f9565b915061057f82610540565b602082019050919050565b5f6020820190508181035f8301526105a181610568565b9050919050565b5f819050919050565b5f6105cb6105c66105c1846102bb565b6105a8565b6102bb565b9050919050565b5f6105dc826105b1565b9050919050565b5f6105ed826105d2565b9050919050565b6105fd816105e3565b82525050565b5f6040820190506106165f8301856105f4565b6106236020830184610303565b939250505056fea264697066735822122026db7257085f329ab00e6d44097d535046fb8172b92120f15b9fa06a946c98d164736f6c634300081c0033",
			"opcodes": "PUSH1 0x80 PUSH1 0x40 MSTORE PUSH0 CALLVALUE GT PUSH2 0x46 JUMPI PUSH1 0x40 MLOAD PUSH32 0x8C379A000000000000000000000000000000000000000000000000000000000 DUP2 MSTORE PUSH1 0x4 ADD PUSH2 0x3D SWAP1 PUSH2 0x104 JUMP JUMPDEST PUSH1 0x40 MLOAD DUP1 SWAP2 SUB SWAP1 REVERT JUMPDEST PUSH32 0x88A5966D370B9919B20F3E2C13FF65706F196A4E32CC2C12BF57088F88525874 CALLER CALLVALUE PUSH1 0x40 MLOAD PUSH2 0x77 SWAP3 SWAP2 SWAP1 PUSH2 0x179 JUMP JUMPDEST PUSH1 0x40 MLOAD DUP1 SWAP2 SUB SWAP1 LOG1 PUSH2 0x1A0 JUMP JUMPDEST PUSH0 DUP3 DUP3 MSTORE PUSH1 0x20 DUP3 ADD SWAP1 POP SWAP3 SWAP2 POP POP JUMP JUMPDEST PUSH32 0x4465626520656E7669617220457468657220616C20646573706C656761722065 PUSH0 DUP3 ADD MSTORE PUSH32 0x6C20636F6E747261746F00000000000000000000000000000000000000000000 PUSH1 0x20 DUP3 ADD MSTORE POP JUMP JUMPDEST PUSH0 PUSH2 0xEE PUSH1 0x2A DUP4 PUSH2 0x84 JUMP JUMPDEST SWAP2 POP PUSH2 0xF9 DUP3 PUSH2 0x94 JUMP JUMPDEST PUSH1 0x40 DUP3 ADD SWAP1 POP SWAP2 SWAP1 POP JUMP JUMPDEST PUSH0 PUSH1 0x20 DUP3 ADD SWAP1 POP DUP2 DUP2 SUB PUSH0 DUP4 ADD MSTORE PUSH2 0x11B DUP2 PUSH2 0xE2 JUMP JUMPDEST SWAP1 POP SWAP2 SWAP1 POP JUMP JUMPDEST PUSH0 PUSH20 0xFFFFFFFFFFFFFFFFFFFFFFFFFFFFFFFFFFFFFFFF DUP3 AND SWAP1 POP SWAP2 SWAP1 POP JUMP JUMPDEST PUSH0 PUSH2 0x14B DUP3 PUSH2 0x122 JUMP JUMPDEST SWAP1 POP SWAP2 SWAP1 POP JUMP JUMPDEST PUSH2 0x15B DUP2 PUSH2 0x141 JUMP JUMPDEST DUP3 MSTORE POP POP JUMP JUMPDEST PUSH0 DUP2 SWAP1 POP SWAP2 SWAP1 POP JUMP JUMPDEST PUSH2 0x173 DUP2 PUSH2 0x161 JUMP JUMPDEST DUP3 MSTORE POP POP JUMP JUMPDEST PUSH0 PUSH1 0x40 DUP3 ADD SWAP1 POP PUSH2 0x18C PUSH0 DUP4 ADD DUP6 PUSH2 0x152 JUMP JUMPDEST PUSH2 0x199 PUSH1 0x20 DUP4 ADD DUP5 PUSH2 0x16A JUMP JUMPDEST SWAP4 SWAP3 POP POP POP JUMP JUMPDEST PUSH2 0x660 DUP1 PUSH2 0x1AD PUSH0 CODECOPY PUSH0 RETURN INVALID PUSH1 0x80 PUSH1 0x40 MSTORE PUSH1 0x4 CALLDATASIZE LT PUSH2 0x37 JUMPI PUSH0 CALLDATALOAD PUSH1 0xE0 SHR DUP1 PUSH4 0x12065FE0 EQ PUSH2 0xB2 JUMPI DUP1 PUSH4 0x3B4443D8 EQ PUSH2 0xDC JUMPI DUP1 PUSH4 0xC1756A2C EQ PUSH2 0xE6 JUMPI PUSH2 0x77 JUMP JUMPDEST CALLDATASIZE PUSH2 0x77 JUMPI PUSH32 0x88A5966D370B9919B20F3E2C13FF65706F196A4E32CC2C12BF57088F88525874 CALLER CALLVALUE PUSH1 0x40 MLOAD PUSH2 0x6D SWAP3 SWAP2 SWAP1 PUSH2 0x312 JUMP JUMPDEST PUSH1 0x40 MLOAD DUP1 SWAP2 SUB SWAP1 LOG1 STOP JUMPDEST PUSH32 0x88A5966D370B9919B20F3E2C13FF65706F196A4E32CC2C12BF57088F88525874 CALLER CALLVALUE PUSH1 0x40 MLOAD PUSH2 0xA8 SWAP3 SWAP2 SWAP1 PUSH2 0x312 JUMP JUMPDEST PUSH1 0x40 MLOAD DUP1 SWAP2 SUB SWAP1 LOG1 STOP JUMPDEST CALLVALUE DUP1 ISZERO PUSH2 0xBD JUMPI PUSH0 PUSH0 REVERT JUMPDEST POP PUSH2 0xC6 PUSH2 0x10E JUMP JUMPDEST PUSH1 0x40 MLOAD PUSH2 0xD3 SWAP2 SWAP1 PUSH2 0x339 JUMP JUMPDEST PUSH1 0x40 MLOAD DUP1 SWAP2 SUB SWAP1 RETURN JUMPDEST PUSH2 0xE4 PUSH2 0x115 JUMP JUMPDEST STOP JUMPDEST CALLVALUE DUP1 ISZERO PUSH2 0xF1 JUMPI PUSH0 PUSH0 REVERT JUMPDEST POP PUSH2 0x10C PUSH1 0x4 DUP1 CALLDATASIZE SUB DUP2 ADD SWAP1 PUSH2 0x107 SWAP2 SWAP1 PUSH2 0x3BB JUMP JUMPDEST PUSH2 0x192 JUMP JUMPDEST STOP JUMPDEST PUSH0 SELFBALANCE SWAP1 POP SWAP1 JUMP JUMPDEST PUSH0 CALLVALUE GT PUSH2 0x157 JUMPI PUSH1 0x40 MLOAD PUSH32 0x8C379A000000000000000000000000000000000000000000000000000000000 DUP2 MSTORE PUSH1 0x4 ADD PUSH2 0x14E SWAP1 PUSH2 0x453 JUMP JUMPDEST PUSH1 0x40 MLOAD DUP1 SWAP2 SUB SWAP1 REVERT JUMPDEST PUSH32 0x88A5966D370B9919B20F3E2C13FF65706F196A4E32CC2C12BF57088F88525874 CALLER CALLVALUE PUSH1 0x40 MLOAD PUSH2 0x188 SWAP3 SWAP2 SWAP1 PUSH2 0x312 JUMP JUMPDEST PUSH1 0x40 MLOAD DUP1 SWAP2 SUB SWAP1 LOG1 JUMP JUMPDEST SELFBALANCE DUP2 GT ISZERO PUSH2 0x1D5 JUMPI PUSH1 0x40 MLOAD PUSH32 0x8C379A000000000000000000000000000000000000000000000000000000000 DUP2 MSTORE PUSH1 0x4 ADD PUSH2 0x1CC SWAP1 PUSH2 0x4E1 JUMP JUMPDEST PUSH1 0x40 MLOAD DUP1 SWAP2 SUB SWAP1 REVERT JUMPDEST PUSH0 DUP3 PUSH20 0xFFFFFFFFFFFFFFFFFFFFFFFFFFFFFFFFFFFFFFFF AND DUP3 PUSH1 0x40 MLOAD PUSH2 0x1FA SWAP1 PUSH2 0x52C JUMP JUMPDEST PUSH0 PUSH1 0x40 MLOAD DUP1 DUP4 SUB DUP2 DUP6 DUP8 GAS CALL SWAP3 POP POP POP RETURNDATASIZE DUP1 PUSH0 DUP2 EQ PUSH2 0x234 JUMPI PUSH1 0x40 MLOAD SWAP2 POP PUSH1 0x1F NOT PUSH1 0x3F RETURNDATASIZE ADD AND DUP3 ADD PUSH1 0x40 MSTORE RETURNDATASIZE DUP3 MSTORE RETURNDATASIZE PUSH0 PUSH1 0x20 DUP5 ADD RETURNDATACOPY PUSH2 0x239 JUMP JUMPDEST PUSH1 0x60 SWAP2 POP JUMPDEST POP POP SWAP1 POP DUP1 PUSH2 0x27D JUMPI PUSH1 0x40 MLOAD PUSH32 0x8C379A000000000000000000000000000000000000000000000000000000000 DUP2 MSTORE PUSH1 0x4 ADD PUSH2 0x274 SWAP1 PUSH2 0x58A JUMP JUMPDEST PUSH1 0x40 MLOAD DUP1 SWAP2 SUB SWAP1 REVERT JUMPDEST PUSH32 0x510FFB4DCAB972AE9D2007A58E13F1B0881776D23CD8F5CC32F8C5BE2DBF70D2 DUP4 DUP4 PUSH1 0x40 MLOAD PUSH2 0x2AE SWAP3 SWAP2 SWAP1 PUSH2 0x603 JUMP JUMPDEST PUSH1 0x40 MLOAD DUP1 SWAP2 SUB SWAP1 LOG1 POP POP POP JUMP JUMPDEST PUSH0 PUSH20 0xFFFFFFFFFFFFFFFFFFFFFFFFFFFFFFFFFFFFFFFF DUP3 AND SWAP1 POP SWAP2 SWAP1 POP JUMP JUMPDEST PUSH0 PUSH2 0x2E4 DUP3 PUSH2 0x2BB JUMP JUMPDEST SWAP1 POP SWAP2 SWAP1 POP JUMP JUMPDEST PUSH2 0x2F4 DUP2 PUSH2 0x2DA JUMP JUMPDEST DUP3 MSTORE POP POP JUMP JUMPDEST PUSH0 DUP2 SWAP1 POP SWAP2 SWAP1 POP JUMP JUMPDEST PUSH2 0x30C DUP2 PUSH2 0x2FA JUMP JUMPDEST DUP3 MSTORE POP POP JUMP JUMPDEST PUSH0 PUSH1 0x40 DUP3 ADD SWAP1 POP PUSH2 0x325 PUSH0 DUP4 ADD DUP6 PUSH2 0x2EB JUMP JUMPDEST PUSH2 0x332 PUSH1 0x20 DUP4 ADD DUP5 PUSH2 0x303 JUMP JUMPDEST SWAP4 SWAP3 POP POP POP JUMP JUMPDEST PUSH0 PUSH1 0x20 DUP3 ADD SWAP1 POP PUSH2 0x34C PUSH0 DUP4 ADD DUP5 PUSH2 0x303 JUMP JUMPDEST SWAP3 SWAP2 POP POP JUMP JUMPDEST PUSH0 PUSH0 REVERT JUMPDEST PUSH0 PUSH2 0x360 DUP3 PUSH2 0x2BB JUMP JUMPDEST SWAP1 POP SWAP2 SWAP1 POP JUMP JUMPDEST PUSH2 0x370 DUP2 PUSH2 0x356 JUMP JUMPDEST DUP2 EQ PUSH2 0x37A JUMPI PUSH0 PUSH0 REVERT JUMPDEST POP JUMP JUMPDEST PUSH0 DUP2 CALLDATALOAD SWAP1 POP PUSH2 0x38B DUP2 PUSH2 0x367 JUMP JUMPDEST SWAP3 SWAP2 POP POP JUMP JUMPDEST PUSH2 0x39A DUP2 PUSH2 0x2FA JUMP JUMPDEST DUP2 EQ PUSH2 0x3A4 JUMPI PUSH0 PUSH0 REVERT JUMPDEST POP JUMP JUMPDEST PUSH0 DUP2 CALLDATALOAD SWAP1 POP PUSH2 0x3B5 DUP2 PUSH2 0x391 JUMP JUMPDEST SWAP3 SWAP2 POP POP JUMP JUMPDEST PUSH0 PUSH0 PUSH1 0x40 DUP4 DUP6 SUB SLT ISZERO PUSH2 0x3D1 JUMPI PUSH2 0x3D0 PUSH2 0x352 JUMP JUMPDEST JUMPDEST PUSH0 PUSH2 0x3DE DUP6 DUP3 DUP7 ADD PUSH2 0x37D JUMP JUMPDEST SWAP3 POP POP PUSH1 0x20 PUSH2 0x3EF DUP6 DUP3 DUP7 ADD PUSH2 0x3A7 JUMP JUMPDEST SWAP2 POP POP SWAP3 POP SWAP3 SWAP1 POP JUMP JUMPDEST PUSH0 DUP3 DUP3 MSTORE PUSH1 0x20 DUP3 ADD SWAP1 POP SWAP3 SWAP2 POP POP JUMP JUMPDEST PUSH32 0x4465626520656E7669617220616C676F20646520457468657200000000000000 PUSH0 DUP3 ADD MSTORE POP JUMP JUMPDEST PUSH0 PUSH2 0x43D PUSH1 0x19 DUP4 PUSH2 0x3F9 JUMP JUMPDEST SWAP2 POP PUSH2 0x448 DUP3 PUSH2 0x409 JUMP JUMPDEST PUSH1 0x20 DUP3 ADD SWAP1 POP SWAP2 SWAP1 POP JUMP JUMPDEST PUSH0 PUSH1 0x20 DUP3 ADD SWAP1 POP DUP2 DUP2 SUB PUSH0 DUP4 ADD MSTORE PUSH2 0x46A DUP2 PUSH2 0x431 JUMP JUMPDEST SWAP1 POP SWAP2 SWAP1 POP JUMP JUMPDEST PUSH32 0x466F6E646F7320696E737566696369656E74657320656E20656C20636F6E7472 PUSH0 DUP3 ADD MSTORE PUSH32 0x61746F0000000000000000000000000000000000000000000000000000000000 PUSH1 0x20 DUP3 ADD MSTORE POP JUMP JUMPDEST PUSH0 PUSH2 0x4CB PUSH1 0x23 DUP4 PUSH2 0x3F9 JUMP JUMPDEST SWAP2 POP PUSH2 0x4D6 DUP3 PUSH2 0x471 JUMP JUMPDEST PUSH1 0x40 DUP3 ADD SWAP1 POP SWAP2 SWAP1 POP JUMP JUMPDEST PUSH0 PUSH1 0x20 DUP3 ADD SWAP1 POP DUP2 DUP2 SUB PUSH0 DUP4 ADD MSTORE PUSH2 0x4F8 DUP2 PUSH2 0x4BF JUMP JUMPDEST SWAP1 POP SWAP2 SWAP1 POP JUMP JUMPDEST PUSH0 DUP2 SWAP1 POP SWAP3 SWAP2 POP POP JUMP JUMPDEST POP JUMP JUMPDEST PUSH0 PUSH2 0x517 PUSH0 DUP4 PUSH2 0x4FF JUMP JUMPDEST SWAP2 POP PUSH2 0x522 DUP3 PUSH2 0x509 JUMP JUMPDEST PUSH0 DUP3 ADD SWAP1 POP SWAP2 SWAP1 POP JUMP JUMPDEST PUSH0 PUSH2 0x536 DUP3 PUSH2 0x50C JUMP JUMPDEST SWAP2 POP DUP2 SWAP1 POP SWAP2 SWAP1 POP JUMP JUMPDEST PUSH32 0x4572726F7220616C20656E766961722045746865720000000000000000000000 PUSH0 DUP3 ADD MSTORE POP JUMP JUMPDEST PUSH0 PUSH2 0x574 PUSH1 0x15 DUP4 PUSH2 0x3F9 JUMP JUMPDEST SWAP2 POP PUSH2 0x57F DUP3 PUSH2 0x540 JUMP JUMPDEST PUSH1 0x20 DUP3 ADD SWAP1 POP SWAP2 SWAP1 POP JUMP JUMPDEST PUSH0 PUSH1 0x20 DUP3 ADD SWAP1 POP DUP2 DUP2 SUB PUSH0 DUP4 ADD MSTORE PUSH2 0x5A1 DUP2 PUSH2 0x568 JUMP JUMPDEST SWAP1 POP SWAP2 SWAP1 POP JUMP JUMPDEST PUSH0 DUP2 SWAP1 POP SWAP2 SWAP1 POP JUMP JUMPDEST PUSH0 PUSH2 0x5CB PUSH2 0x5C6 PUSH2 0x5C1 DUP5 PUSH2 0x2BB JUMP JUMPDEST PUSH2 0x5A8 JUMP JUMPDEST PUSH2 0x2BB JUMP JUMPDEST SWAP1 POP SWAP2 SWAP1 POP JUMP JUMPDEST PUSH0 PUSH2 0x5DC DUP3 PUSH2 0x5B1 JUMP JUMPDEST SWAP1 POP SWAP2 SWAP1 POP JUMP JUMPDEST PUSH0 PUSH2 0x5ED DUP3 PUSH2 0x5D2 JUMP JUMPDEST SWAP1 POP SWAP2 SWAP1 POP JUMP JUMPDEST PUSH2 0x5FD DUP2 PUSH2 0x5E3 JUMP JUMPDEST DUP3 MSTORE POP POP JUMP JUMPDEST PUSH0 PUSH1 0x40 DUP3 ADD SWAP1 POP PUSH2 0x616 PUSH0 DUP4 ADD DUP6 PUSH2 0x5F4 JUMP JUMPDEST PUSH2 0x623 PUSH1 0x20 DUP4 ADD DUP5 PUSH2 0x303 JUMP JUMPDEST SWAP4 SWAP3 POP POP POP JUMP INVALID LOG2 PUSH5 0x6970667358 0x22 SLT KECCAK256 0x26 0xDB PUSH19 0x57085F329AB00E6D44097D535046FB8172B921 KECCAK256 CALL JUMPDEST SWAP16 LOG0 PUSH11 0x946C98D164736F6C634300 ADDMOD SHR STOP CALLER "
		},
		"gasEstimates": {
			"creation": {
				"codeDepositCost": "326400",
				"executionCost": "1952",
				"totalCost": "328352"
			},
			"external": {
				"": "1720",
				"depositWithMessage()": "1732",
				"getBalance()": "312",
				"sendEther(address,uint256)": "infinite"
			}
		},
		"methodIdentifiers": {
			"depositWithMessage()": "3b4443d8",
			"getBalance()": "12065fe0",
			"sendEther(address,uint256)": "c1756a2c"
		}
	},
	"abi": [
		{
			"inputs": [],
			"stateMutability": "payable",
			"type": "constructor"
		},
		{
			"anonymous": false,
			"inputs": [
				{
					"indexed": false,
					"internalType": "address",
					"name": "sender",
					"type": "address"
				},
				{
					"indexed": false,
					"internalType": "uint256",
					"name": "amount",
					"type": "uint256"
				}
			],
			"name": "Received",
			"type": "event"
		},
		{
			"anonymous": false,
			"inputs": [
				{
					"indexed": false,
					"internalType": "address",
					"name": "recipient",
					"type": "address"
				},
				{
					"indexed": false,
					"internalType": "uint256",
					"name": "amount",
					"type": "uint256"
				}
			],
			"name": "Sent",
			"type": "event"
		},
		{
			"stateMutability": "payable",
			"type": "fallback"
		},
		{
			"inputs": [],
			"name": "depositWithMessage",
			"outputs": [],
			"stateMutability": "payable",
			"type": "function"
		},
		{
			"inputs": [],
			"name": "getBalance",
			"outputs": [
				{
					"internalType": "uint256",
					"name": "",
					"type": "uint256"
				}
			],
			"stateMutability": "view",
			"type": "function"
		},
		{
			"inputs": [
				{
					"internalType": "address payable",
					"name": "recipient",
					"type": "address"
				},
				{
					"internalType": "uint256",
					"name": "amount",
					"type": "uint256"
				}
			],
			"name": "sendEther",
			"outputs": [],
			"stateMutability": "nonpayable",
			"type": "function"
		},
		{
			"stateMutability": "payable",
			"type": "receive"
		}
	]
}