{
	"data": {
		"bytecode": {
			"linkReferences": {},
			"object": "6080604052348015600e575f5ffd5b503360015f6101000a81548173ffffffffffffffffffffffffffffffffffffffff021916908373ffffffffffffffffffffffffffffffffffffffff1602179055506108418061005c5f395ff3fe608060405234801561000f575f5ffd5b506004361061004a575f3560e01c80632af4c31e1461004e5780635a9b0b891461006a5780638da5cb5b14610088578063937f6e77146100a6575b5f5ffd5b610068600480360381019061006391906102e0565b6100c2565b005b61007261015a565b60405161007f919061037b565b60405180910390f35b6100906101e9565b60405161009d91906103aa565b60405180910390f35b6100c060048036038101906100bb91906104ef565b61020e565b005b60015f9054906101000a900473ffffffffffffffffffffffffffffffffffffffff1673ffffffffffffffffffffffffffffffffffffffff163373ffffffffffffffffffffffffffffffffffffffff1603610157578060015f6101000a81548173ffffffffffffffffffffffffffffffffffffffff021916908373ffffffffffffffffffffffffffffffffffffffff1602179055505b50565b60605f805461016890610563565b80601f016020809104026020016040519081016040528092919081815260200182805461019490610563565b80156101df5780601f106101b6576101008083540402835291602001916101df565b820191905f5260205f20905b8154815290600101906020018083116101c257829003601f168201915b5050505050905090565b60015f9054906101000a900473ffffffffffffffffffffffffffffffffffffffff1681565b60015f9054906101000a900473ffffffffffffffffffffffffffffffffffffffff1673ffffffffffffffffffffffffffffffffffffffff163373ffffffffffffffffffffffffffffffffffffffff160361027257805f9081610270919061073c565b505b50565b5f604051905090565b5f5ffd5b5f5ffd5b5f73ffffffffffffffffffffffffffffffffffffffff82169050919050565b5f6102af82610286565b9050919050565b6102bf816102a5565b81146102c9575f5ffd5b50565b5f813590506102da816102b6565b92915050565b5f602082840312156102f5576102f461027e565b5b5f610302848285016102cc565b91505092915050565b5f81519050919050565b5f82825260208201905092915050565b8281835e5f83830152505050565b5f601f19601f8301169050919050565b5f61034d8261030b565b6103578185610315565b9350610367818560208601610325565b61037081610333565b840191505092915050565b5f6020820190508181035f8301526103938184610343565b905092915050565b6103a4816102a5565b82525050565b5f6020820190506103bd5f83018461039b565b92915050565b5f5ffd5b5f5ffd5b7f4e487b71000000000000000000000000000000000000000000000000000000005f52604160045260245ffd5b61040182610333565b810181811067ffffffffffffffff821117156104205761041f6103cb565b5b80604052505050565b5f610432610275565b905061043e82826103f8565b919050565b5f67ffffffffffffffff82111561045d5761045c6103cb565b5b61046682610333565b9050602081019050919050565b828183375f83830152505050565b5f61049361048e84610443565b610429565b9050828152602081018484840111156104af576104ae6103c7565b5b6104ba848285610473565b509392505050565b5f82601f8301126104d6576104d56103c3565b5b81356104e6848260208601610481565b91505092915050565b5f602082840312156105045761050361027e565b5b5f82013567ffffffffffffffff81111561052157610520610282565b5b61052d848285016104c2565b91505092915050565b7f4e487b71000000000000000000000000000000000000000000000000000000005f52602260045260245ffd5b5f600282049050600182168061057a57607f821691505b60208210810361058d5761058c610536565b5b50919050565b5f819050815f5260205f209050919050565b5f6020601f8301049050919050565b5f82821b905092915050565b5f600883026105ef7fffffffffffffffffffffffffffffffffffffffffffffffffffffffffffffffff826105b4565b6105f986836105b4565b95508019841693508086168417925050509392505050565b5f819050919050565b5f819050919050565b5f61063d61063861063384610611565b61061a565b610611565b9050919050565b5f819050919050565b61065683610623565b61066a61066282610644565b8484546105c0565b825550505050565b5f5f905090565b610681610672565b61068c81848461064d565b505050565b5b818110156106af576106a45f82610679565b600181019050610692565b5050565b601f8211156106f4576106c581610593565b6106ce846105a5565b810160208510156106dd578190505b6106f16106e9856105a5565b830182610691565b50505b505050565b5f82821c905092915050565b5f6107145f19846008026106f9565b1980831691505092915050565b5f61072c8383610705565b9150826002028217905092915050565b6107458261030b565b67ffffffffffffffff81111561075e5761075d6103cb565b5b6107688254610563565b6107738282856106b3565b5f60209050601f8311600181146107a4575f8415610792578287015190505b61079c8582610721565b865550610803565b601f1984166107b286610593565b5f5b828110156107d9578489015182556001820191506020850194506020810190506107b4565b868310156107f657848901516107f2601f891682610705565b8355505b6001600288020188555050505b50505050505056fea2646970667358221220e2d4665b253d7895d2238bfce2cdff9b048bc76a75d47667042732f2cd53e64c64736f6c634300081c0033",
			"opcodes": "PUSH1 0x80 PUSH1 0x40 MSTORE CALLVALUE DUP1 ISZERO PUSH1 0xE JUMPI PUSH0 PUSH0 REVERT JUMPDEST POP CALLER PUSH1 0x1 PUSH0 PUSH2 0x100 EXP DUP2 SLOAD DUP2 PUSH20 0xFFFFFFFFFFFFFFFFFFFFFFFFFFFFFFFFFFFFFFFF MUL NOT AND SWAP1 DUP4 PUSH20 0xFFFFFFFFFFFFFFFFFFFFFFFFFFFFFFFFFFFFFFFF AND MUL OR SWAP1 SSTORE POP PUSH2 0x841 DUP1 PUSH2 0x5C PUSH0 CODECOPY PUSH0 RETURN INVALID PUSH1 0x80 PUSH1 0x40 MSTORE CALLVALUE DUP1 ISZERO PUSH2 0xF JUMPI PUSH0 PUSH0 REVERT JUMPDEST POP PUSH1 0x4 CALLDATASIZE LT PUSH2 0x4A JUMPI PUSH0 CALLDATALOAD PUSH1 0xE0 SHR DUP1 PUSH4 0x2AF4C31E EQ PUSH2 0x4E JUMPI DUP1 PUSH4 0x5A9B0B89 EQ PUSH2 0x6A JUMPI DUP1 PUSH4 0x8DA5CB5B EQ PUSH2 0x88 JUMPI DUP1 PUSH4 0x937F6E77 EQ PUSH2 0xA6 JUMPI JUMPDEST PUSH0 PUSH0 REVERT JUMPDEST PUSH2 0x68 PUSH1 0x4 DUP1 CALLDATASIZE SUB DUP2 ADD SWAP1 PUSH2 0x63 SWAP2 SWAP1 PUSH2 0x2E0 JUMP JUMPDEST PUSH2 0xC2 JUMP JUMPDEST STOP JUMPDEST PUSH2 0x72 PUSH2 0x15A JUMP JUMPDEST PUSH1 0x40 MLOAD PUSH2 0x7F SWAP2 SWAP1 PUSH2 0x37B JUMP JUMPDEST PUSH1 0x40 MLOAD DUP1 SWAP2 SUB SWAP1 RETURN JUMPDEST PUSH2 0x90 PUSH2 0x1E9 JUMP JUMPDEST PUSH1 0x40 MLOAD PUSH2 0x9D SWAP2 SWAP1 PUSH2 0x3AA JUMP JUMPDEST PUSH1 0x40 MLOAD DUP1 SWAP2 SUB SWAP1 RETURN JUMPDEST PUSH2 0xC0 PUSH1 0x4 DUP1 CALLDATASIZE SUB DUP2 ADD SWAP1 PUSH2 0xBB SWAP2 SWAP1 PUSH2 0x4EF JUMP JUMPDEST PUSH2 0x20E JUMP JUMPDEST STOP JUMPDEST PUSH1 0x1 PUSH0 SWAP1 SLOAD SWAP1 PUSH2 0x100 EXP SWAP1 DIV PUSH20 0xFFFFFFFFFFFFFFFFFFFFFFFFFFFFFFFFFFFFFFFF AND PUSH20 0xFFFFFFFFFFFFFFFFFFFFFFFFFFFFFFFFFFFFFFFF AND CALLER PUSH20 0xFFFFFFFFFFFFFFFFFFFFFFFFFFFFFFFFFFFFFFFF AND SUB PUSH2 0x157 JUMPI DUP1 PUSH1 0x1 PUSH0 PUSH2 0x100 EXP DUP2 SLOAD DUP2 PUSH20 0xFFFFFFFFFFFFFFFFFFFFFFFFFFFFFFFFFFFFFFFF MUL NOT AND SWAP1 DUP4 PUSH20 0xFFFFFFFFFFFFFFFFFFFFFFFFFFFFFFFFFFFFFFFF AND MUL OR SWAP1 SSTORE POP JUMPDEST POP JUMP JUMPDEST PUSH1 0x60 PUSH0 DUP1 SLOAD PUSH2 0x168 SWAP1 PUSH2 0x563 JUMP JUMPDEST DUP1 PUSH1 0x1F ADD PUSH1 0x20 DUP1 SWAP2 DIV MUL PUSH1 0x20 ADD PUSH1 0x40 MLOAD SWAP1 DUP2 ADD PUSH1 0x40 MSTORE DUP1 SWAP3 SWAP2 SWAP1 DUP2 DUP2 MSTORE PUSH1 0x20 ADD DUP3 DUP1 SLOAD PUSH2 0x194 SWAP1 PUSH2 0x563 JUMP JUMPDEST DUP1 ISZERO PUSH2 0x1DF JUMPI DUP1 PUSH1 0x1F LT PUSH2 0x1B6 JUMPI PUSH2 0x100 DUP1 DUP4 SLOAD DIV MUL DUP4 MSTORE SWAP2 PUSH1 0x20 ADD SWAP2 PUSH2 0x1DF JUMP JUMPDEST DUP3 ADD SWAP2 SWAP1 PUSH0 MSTORE PUSH1 0x20 PUSH0 KECCAK256 SWAP1 JUMPDEST DUP2 SLOAD DUP2 MSTORE SWAP1 PUSH1 0x1 ADD SWAP1 PUSH1 0x20 ADD DUP1 DUP4 GT PUSH2 0x1C2 JUMPI DUP3 SWAP1 SUB PUSH1 0x1F AND DUP3 ADD SWAP2 JUMPDEST POP POP POP POP POP SWAP1 POP SWAP1 JUMP JUMPDEST PUSH1 0x1 PUSH0 SWAP1 SLOAD SWAP1 PUSH2 0x100 EXP SWAP1 DIV PUSH20 0xFFFFFFFFFFFFFFFFFFFFFFFFFFFFFFFFFFFFFFFF AND DUP2 JUMP JUMPDEST PUSH1 0x1 PUSH0 SWAP1 SLOAD SWAP1 PUSH2 0x100 EXP SWAP1 DIV PUSH20 0xFFFFFFFFFFFFFFFFFFFFFFFFFFFFFFFFFFFFFFFF AND PUSH20 0xFFFFFFFFFFFFFFFFFFFFFFFFFFFFFFFFFFFFFFFF AND CALLER PUSH20 0xFFFFFFFFFFFFFFFFFFFFFFFFFFFFFFFFFFFFFFFF AND SUB PUSH2 0x272 JUMPI DUP1 PUSH0 SWAP1 DUP2 PUSH2 0x270 SWAP2 SWAP1 PUSH2 0x73C JUMP JUMPDEST POP JUMPDEST POP JUMP JUMPDEST PUSH0 PUSH1 0x40 MLOAD SWAP1 POP SWAP1 JUMP JUMPDEST PUSH0 PUSH0 REVERT JUMPDEST PUSH0 PUSH0 REVERT JUMPDEST PUSH0 PUSH20 0xFFFFFFFFFFFFFFFFFFFFFFFFFFFFFFFFFFFFFFFF DUP3 AND SWAP1 POP SWAP2 SWAP1 POP JUMP JUMPDEST PUSH0 PUSH2 0x2AF DUP3 PUSH2 0x286 JUMP JUMPDEST SWAP1 POP SWAP2 SWAP1 POP JUMP JUMPDEST PUSH2 0x2BF DUP2 PUSH2 0x2A5 JUMP JUMPDEST DUP2 EQ PUSH2 0x2C9 JUMPI PUSH0 PUSH0 REVERT JUMPDEST POP JUMP JUMPDEST PUSH0 DUP2 CALLDATALOAD SWAP1 POP PUSH2 0x2DA DUP2 PUSH2 0x2B6 JUMP JUMPDEST SWAP3 SWAP2 POP POP JUMP JUMPDEST PUSH0 PUSH1 0x20 DUP3 DUP5 SUB SLT ISZERO PUSH2 0x2F5 JUMPI PUSH2 0x2F4 PUSH2 0x27E JUMP JUMPDEST JUMPDEST PUSH0 PUSH2 0x302 DUP5 DUP3 DUP6 ADD PUSH2 0x2CC JUMP JUMPDEST SWAP2 POP POP SWAP3 SWAP2 POP POP JUMP JUMPDEST PUSH0 DUP2 MLOAD SWAP1 POP SWAP2 SWAP1 POP JUMP JUMPDEST PUSH0 DUP3 DUP3 MSTORE PUSH1 0x20 DUP3 ADD SWAP1 POP SWAP3 SWAP2 POP POP JUMP JUMPDEST DUP3 DUP2 DUP4 MCOPY PUSH0 DUP4 DUP4 ADD MSTORE POP POP POP JUMP JUMPDEST PUSH0 PUSH1 0x1F NOT PUSH1 0x1F DUP4 ADD AND SWAP1 POP SWAP2 SWAP1 POP JUMP JUMPDEST PUSH0 PUSH2 0x34D DUP3 PUSH2 0x30B JUMP JUMPDEST PUSH2 0x357 DUP2 DUP6 PUSH2 0x315 JUMP JUMPDEST SWAP4 POP PUSH2 0x367 DUP2 DUP6 PUSH1 0x20 DUP7 ADD PUSH2 0x325 JUMP JUMPDEST PUSH2 0x370 DUP2 PUSH2 0x333 JUMP JUMPDEST DUP5 ADD SWAP2 POP POP SWAP3 SWAP2 POP POP JUMP JUMPDEST PUSH0 PUSH1 0x20 DUP3 ADD SWAP1 POP DUP2 DUP2 SUB PUSH0 DUP4 ADD MSTORE PUSH2 0x393 DUP2 DUP5 PUSH2 0x343 JUMP JUMPDEST SWAP1 POP SWAP3 SWAP2 POP POP JUMP JUMPDEST PUSH2 0x3A4 DUP2 PUSH2 0x2A5 JUMP JUMPDEST DUP3 MSTORE POP POP JUMP JUMPDEST PUSH0 PUSH1 0x20 DUP3 ADD SWAP1 POP PUSH2 0x3BD PUSH0 DUP4 ADD DUP5 PUSH2 0x39B JUMP JUMPDEST SWAP3 SWAP2 POP POP JUMP JUMPDEST PUSH0 PUSH0 REVERT JUMPDEST PUSH0 PUSH0 REVERT JUMPDEST PUSH32 0x4E487B7100000000000000000000000000000000000000000000000000000000 PUSH0 MSTORE PUSH1 0x41 PUSH1 0x4 MSTORE PUSH1 0x24 PUSH0 REVERT JUMPDEST PUSH2 0x401 DUP3 PUSH2 0x333 JUMP JUMPDEST DUP2 ADD DUP2 DUP2 LT PUSH8 0xFFFFFFFFFFFFFFFF DUP3 GT OR ISZERO PUSH2 0x420 JUMPI PUSH2 0x41F PUSH2 0x3CB JUMP JUMPDEST JUMPDEST DUP1 PUSH1 0x40 MSTORE POP POP POP JUMP JUMPDEST PUSH0 PUSH2 0x432 PUSH2 0x275 JUMP JUMPDEST SWAP1 POP PUSH2 0x43E DUP3 DUP3 PUSH2 0x3F8 JUMP JUMPDEST SWAP2 SWAP1 POP JUMP JUMPDEST PUSH0 PUSH8 0xFFFFFFFFFFFFFFFF DUP3 GT ISZERO PUSH2 0x45D JUMPI PUSH2 0x45C PUSH2 0x3CB JUMP JUMPDEST JUMPDEST PUSH2 0x466 DUP3 PUSH2 0x333 JUMP JUMPDEST SWAP1 POP PUSH1 0x20 DUP2 ADD SWAP1 POP SWAP2 SWAP1 POP JUMP JUMPDEST DUP3 DUP2 DUP4 CALLDATACOPY PUSH0 DUP4 DUP4 ADD MSTORE POP POP POP JUMP JUMPDEST PUSH0 PUSH2 0x493 PUSH2 0x48E DUP5 PUSH2 0x443 JUMP JUMPDEST PUSH2 0x429 JUMP JUMPDEST SWAP1 POP DUP3 DUP2 MSTORE PUSH1 0x20 DUP2 ADD DUP5 DUP5 DUP5 ADD GT ISZERO PUSH2 0x4AF JUMPI PUSH2 0x4AE PUSH2 0x3C7 JUMP JUMPDEST JUMPDEST PUSH2 0x4BA DUP5 DUP3 DUP6 PUSH2 0x473 JUMP JUMPDEST POP SWAP4 SWAP3 POP POP POP JUMP JUMPDEST PUSH0 DUP3 PUSH1 0x1F DUP4 ADD SLT PUSH2 0x4D6 JUMPI PUSH2 0x4D5 PUSH2 0x3C3 JUMP JUMPDEST JUMPDEST DUP2 CALLDATALOAD PUSH2 0x4E6 DUP5 DUP3 PUSH1 0x20 DUP7 ADD PUSH2 0x481 JUMP JUMPDEST SWAP2 POP POP SWAP3 SWAP2 POP POP JUMP JUMPDEST PUSH0 PUSH1 0x20 DUP3 DUP5 SUB SLT ISZERO PUSH2 0x504 JUMPI PUSH2 0x503 PUSH2 0x27E JUMP JUMPDEST JUMPDEST PUSH0 DUP3 ADD CALLDATALOAD PUSH8 0xFFFFFFFFFFFFFFFF DUP2 GT ISZERO PUSH2 0x521 JUMPI PUSH2 0x520 PUSH2 0x282 JUMP JUMPDEST JUMPDEST PUSH2 0x52D DUP5 DUP3 DUP6 ADD PUSH2 0x4C2 JUMP JUMPDEST SWAP2 POP POP SWAP3 SWAP2 POP POP JUMP JUMPDEST PUSH32 0x4E487B7100000000000000000000000000000000000000000000000000000000 PUSH0 MSTORE PUSH1 0x22 PUSH1 0x4 MSTORE PUSH1 0x24 PUSH0 REVERT JUMPDEST PUSH0 PUSH1 0x2 DUP3 DIV SWAP1 POP PUSH1 0x1 DUP3 AND DUP1 PUSH2 0x57A JUMPI PUSH1 0x7F DUP3 AND SWAP2 POP JUMPDEST PUSH1 0x20 DUP3 LT DUP2 SUB PUSH2 0x58D JUMPI PUSH2 0x58C PUSH2 0x536 JUMP JUMPDEST JUMPDEST POP SWAP2 SWAP1 POP JUMP JUMPDEST PUSH0 DUP2 SWAP1 POP DUP2 PUSH0 MSTORE PUSH1 0x20 PUSH0 KECCAK256 SWAP1 POP SWAP2 SWAP1 POP JUMP JUMPDEST PUSH0 PUSH1 0x20 PUSH1 0x1F DUP4 ADD DIV SWAP1 POP SWAP2 SWAP1 POP JUMP JUMPDEST PUSH0 DUP3 DUP3 SHL SWAP1 POP SWAP3 SWAP2 POP POP JUMP JUMPDEST PUSH0 PUSH1 0x8 DUP4 MUL PUSH2 0x5EF PUSH32 0xFFFFFFFFFFFFFFFFFFFFFFFFFFFFFFFFFFFFFFFFFFFFFFFFFFFFFFFFFFFFFFFF DUP3 PUSH2 0x5B4 JUMP JUMPDEST PUSH2 0x5F9 DUP7 DUP4 PUSH2 0x5B4 JUMP JUMPDEST SWAP6 POP DUP1 NOT DUP5 AND SWAP4 POP DUP1 DUP7 AND DUP5 OR SWAP3 POP POP POP SWAP4 SWAP3 POP POP POP JUMP JUMPDEST PUSH0 DUP2 SWAP1 POP SWAP2 SWAP1 POP JUMP JUMPDEST PUSH0 DUP2 SWAP1 POP SWAP2 SWAP1 POP JUMP JUMPDEST PUSH0 PUSH2 0x63D PUSH2 0x638 PUSH2 0x633 DUP5 PUSH2 0x611 JUMP JUMPDEST PUSH2 0x61A JUMP JUMPDEST PUSH2 0x611 JUMP JUMPDEST SWAP1 POP SWAP2 SWAP1 POP JUMP JUMPDEST PUSH0 DUP2 SWAP1 POP SWAP2 SWAP1 POP JUMP JUMPDEST PUSH2 0x656 DUP4 PUSH2 0x623 JUMP JUMPDEST PUSH2 0x66A PUSH2 0x662 DUP3 PUSH2 0x644 JUMP JUMPDEST DUP5 DUP5 SLOAD PUSH2 0x5C0 JUMP JUMPDEST DUP3 SSTORE POP POP POP POP JUMP JUMPDEST PUSH0 PUSH0 SWAP1 POP SWAP1 JUMP JUMPDEST PUSH2 0x681 PUSH2 0x672 JUMP JUMPDEST PUSH2 0x68C DUP2 DUP5 DUP5 PUSH2 0x64D JUMP JUMPDEST POP POP POP JUMP JUMPDEST JUMPDEST DUP2 DUP2 LT ISZERO PUSH2 0x6AF JUMPI PUSH2 0x6A4 PUSH0 DUP3 PUSH2 0x679 JUMP JUMPDEST PUSH1 0x1 DUP2 ADD SWAP1 POP PUSH2 0x692 JUMP JUMPDEST POP POP JUMP JUMPDEST PUSH1 0x1F DUP3 GT ISZERO PUSH2 0x6F4 JUMPI PUSH2 0x6C5 DUP2 PUSH2 0x593 JUMP JUMPDEST PUSH2 0x6CE DUP5 PUSH2 0x5A5 JUMP JUMPDEST DUP2 ADD PUSH1 0x20 DUP6 LT ISZERO PUSH2 0x6DD JUMPI DUP2 SWAP1 POP JUMPDEST PUSH2 0x6F1 PUSH2 0x6E9 DUP6 PUSH2 0x5A5 JUMP JUMPDEST DUP4 ADD DUP3 PUSH2 0x691 JUMP JUMPDEST POP POP JUMPDEST POP POP POP JUMP JUMPDEST PUSH0 DUP3 DUP3 SHR SWAP1 POP SWAP3 SWAP2 POP POP JUMP JUMPDEST PUSH0 PUSH2 0x714 PUSH0 NOT DUP5 PUSH1 0x8 MUL PUSH2 0x6F9 JUMP JUMPDEST NOT DUP1 DUP4 AND SWAP2 POP POP SWAP3 SWAP2 POP POP JUMP JUMPDEST PUSH0 PUSH2 0x72C DUP4 DUP4 PUSH2 0x705 JUMP JUMPDEST SWAP2 POP DUP3 PUSH1 0x2 MUL DUP3 OR SWAP1 POP SWAP3 SWAP2 POP POP JUMP JUMPDEST PUSH2 0x745 DUP3 PUSH2 0x30B JUMP JUMPDEST PUSH8 0xFFFFFFFFFFFFFFFF DUP2 GT ISZERO PUSH2 0x75E JUMPI PUSH2 0x75D PUSH2 0x3CB JUMP JUMPDEST JUMPDEST PUSH2 0x768 DUP3 SLOAD PUSH2 0x563 JUMP JUMPDEST PUSH2 0x773 DUP3 DUP3 DUP6 PUSH2 0x6B3 JUMP JUMPDEST PUSH0 PUSH1 0x20 SWAP1 POP PUSH1 0x1F DUP4 GT PUSH1 0x1 DUP2 EQ PUSH2 0x7A4 JUMPI PUSH0 DUP5 ISZERO PUSH2 0x792 JUMPI DUP3 DUP8 ADD MLOAD SWAP1 POP JUMPDEST PUSH2 0x79C DUP6 DUP3 PUSH2 0x721 JUMP JUMPDEST DUP7 SSTORE POP PUSH2 0x803 JUMP JUMPDEST PUSH1 0x1F NOT DUP5 AND PUSH2 0x7B2 DUP7 PUSH2 0x593 JUMP JUMPDEST PUSH0 JUMPDEST DUP3 DUP2 LT ISZERO PUSH2 0x7D9 JUMPI DUP5 DUP10 ADD MLOAD DUP3 SSTORE PUSH1 0x1 DUP3 ADD SWAP2 POP PUSH1 0x20 DUP6 ADD SWAP5 POP PUSH1 0x20 DUP2 ADD SWAP1 POP PUSH2 0x7B4 JUMP JUMPDEST DUP7 DUP4 LT ISZERO PUSH2 0x7F6 JUMPI DUP5 DUP10 ADD MLOAD PUSH2 0x7F2 PUSH1 0x1F DUP10 AND DUP3 PUSH2 0x705 JUMP JUMPDEST DUP4 SSTORE POP JUMPDEST PUSH1 0x1 PUSH1 0x2 DUP9 MUL ADD DUP9 SSTORE POP POP POP JUMPDEST POP POP POP POP POP POP JUMP INVALID LOG2 PUSH5 0x6970667358 0x22 SLT KECCAK256 0xE2 0xD4 PUSH7 0x5B253D7895D223 DUP12 0xFC 0xE2 0xCD SELFDESTRUCT SWAP12 DIV DUP12 0xC7 PUSH11 0x75D47667042732F2CD53E6 0x4C PUSH5 0x736F6C6343 STOP ADDMOD SHR STOP CALLER "
		},
		"gasEstimates": {
			"creation": {
				"codeDepositCost": "422600",
				"executionCost": "24724",
				"totalCost": "447324"
			},
			"external": {
				"changeOwnership(address)": "26862",
				"getInfo()": "infinite",
				"owner()": "2530",
				"setInfo(string)": "infinite"
			}
		},
		"methodIdentifiers": {
			"changeOwnership(address)": "2af4c31e",
			"getInfo()": "5a9b0b89",
			"owner()": "8da5cb5b",
			"setInfo(string)": "937f6e77"
		}
	},
	"abi": [
		{
			"inputs": [],
			"stateMutability": "nonpayable",
			"type": "constructor"
		},
		{
			"inputs": [
				{
					"internalType": "address",
					"name": "newOwner",
					"type": "address"
				}
			],
			"name": "changeOwnership",
			"outputs": [],
			"stateMutability": "nonpayable",
			"type": "function"
		},
		{
			"inputs": [],
			"name": "getInfo",
			"outputs": [
				{
					"internalType": "string",
					"name": "",
					"type": "string"
				}
			],
			"stateMutability": "view",
			"type": "function"
		},
		{
			"inputs": [],
			"name": "owner",
			"outputs": [
				{
					"internalType": "address",
					"name": "",
					"type": "address"
				}
			],
			"stateMutability": "view",
			"type": "function"
		},
		{
			"inputs": [
				{
					"internalType": "string",
					"name": "myInfo",
					"type": "string"
				}
			],
			"name": "setInfo",
			"outputs": [],
			"stateMutability": "nonpayable",
			"type": "function"
		}
	]
}