{
	"data": {
		"bytecode": {
			"linkReferences": {},
			"object": "6080604052348015600e575f5ffd5b503360015f6101000a81548173ffffffffffffffffffffffffffffffffffffffff021916908373ffffffffffffffffffffffffffffffffffffffff1602179055506107f58061005c5f395ff3fe608060405234801561000f575f5ffd5b506004361061003f575f3560e01c80635a9b0b89146100435780638da5cb5b14610061578063937f6e771461007f575b5f5ffd5b61004b61009b565b6040516100589190610260565b60405180910390f35b61006961012a565b60405161007691906102bf565b60405180910390f35b61009960048036038101906100949190610415565b61014f565b005b60605f80546100a990610489565b80601f01602080910402602001604051908101604052809291908181526020018280546100d590610489565b80156101205780601f106100f757610100808354040283529160200191610120565b820191905f5260205f20905b81548152906001019060200180831161010357829003601f168201915b5050505050905090565b60015f9054906101000a900473ffffffffffffffffffffffffffffffffffffffff1681565b60015f9054906101000a900473ffffffffffffffffffffffffffffffffffffffff1673ffffffffffffffffffffffffffffffffffffffff163373ffffffffffffffffffffffffffffffffffffffff16146101de576040517f08c379a00000000000000000000000000000000000000000000000000000000081526004016101d590610529565b60405180910390fd5b805f90816101ec91906106f0565b5050565b5f81519050919050565b5f82825260208201905092915050565b8281835e5f83830152505050565b5f601f19601f8301169050919050565b5f610232826101f0565b61023c81856101fa565b935061024c81856020860161020a565b61025581610218565b840191505092915050565b5f6020820190508181035f8301526102788184610228565b905092915050565b5f73ffffffffffffffffffffffffffffffffffffffff82169050919050565b5f6102a982610280565b9050919050565b6102b98161029f565b82525050565b5f6020820190506102d25f8301846102b0565b92915050565b5f604051905090565b5f5ffd5b5f5ffd5b5f5ffd5b5f5ffd5b7f4e487b71000000000000000000000000000000000000000000000000000000005f52604160045260245ffd5b61032782610218565b810181811067ffffffffffffffff82111715610346576103456102f1565b5b80604052505050565b5f6103586102d8565b9050610364828261031e565b919050565b5f67ffffffffffffffff821115610383576103826102f1565b5b61038c82610218565b9050602081019050919050565b828183375f83830152505050565b5f6103b96103b484610369565b61034f565b9050828152602081018484840111156103d5576103d46102ed565b5b6103e0848285610399565b509392505050565b5f82601f8301126103fc576103fb6102e9565b5b813561040c8482602086016103a7565b91505092915050565b5f6020828403121561042a576104296102e1565b5b5f82013567ffffffffffffffff811115610447576104466102e5565b5b610453848285016103e8565b91505092915050565b7f4e487b71000000000000000000000000000000000000000000000000000000005f52602260045260245ffd5b5f60028204905060018216806104a057607f821691505b6020821081036104b3576104b261045c565b5b50919050565b7f536f6c6f20656c204f776e65722070756564652063616d6269617220656c20765f8201527f616c6f7200000000000000000000000000000000000000000000000000000000602082015250565b5f6105136024836101fa565b915061051e826104b9565b604082019050919050565b5f6020820190508181035f83015261054081610507565b9050919050565b5f819050815f5260205f209050919050565b5f6020601f8301049050919050565b5f82821b905092915050565b5f600883026105a37fffffffffffffffffffffffffffffffffffffffffffffffffffffffffffffffff82610568565b6105ad8683610568565b95508019841693508086168417925050509392505050565b5f819050919050565b5f819050919050565b5f6105f16105ec6105e7846105c5565b6105ce565b6105c5565b9050919050565b5f819050919050565b61060a836105d7565b61061e610616826105f8565b848454610574565b825550505050565b5f5f905090565b610635610626565b610640818484610601565b505050565b5b81811015610663576106585f8261062d565b600181019050610646565b5050565b601f8211156106a85761067981610547565b61068284610559565b81016020851015610691578190505b6106a561069d85610559565b830182610645565b50505b505050565b5f82821c905092915050565b5f6106c85f19846008026106ad565b1980831691505092915050565b5f6106e083836106b9565b9150826002028217905092915050565b6106f9826101f0565b67ffffffffffffffff811115610712576107116102f1565b5b61071c8254610489565b610727828285610667565b5f60209050601f831160018114610758575f8415610746578287015190505b61075085826106d5565b8655506107b7565b601f19841661076686610547565b5f5b8281101561078d57848901518255600182019150602085019450602081019050610768565b868310156107aa57848901516107a6601f8916826106b9565b8355505b6001600288020188555050505b50505050505056fea26469706673582212200c653add1dd5977edba0003043ea2d1d5169a2a8f90176300b7829779a18216164736f6c634300081c0033",
			"opcodes": "PUSH1 0x80 PUSH1 0x40 MSTORE CALLVALUE DUP1 ISZERO PUSH1 0xE JUMPI PUSH0 PUSH0 REVERT JUMPDEST POP CALLER PUSH1 0x1 PUSH0 PUSH2 0x100 EXP DUP2 SLOAD DUP2 PUSH20 0xFFFFFFFFFFFFFFFFFFFFFFFFFFFFFFFFFFFFFFFF MUL NOT AND SWAP1 DUP4 PUSH20 0xFFFFFFFFFFFFFFFFFFFFFFFFFFFFFFFFFFFFFFFF AND MUL OR SWAP1 SSTORE POP PUSH2 0x7F5 DUP1 PUSH2 0x5C PUSH0 CODECOPY PUSH0 RETURN INVALID PUSH1 0x80 PUSH1 0x40 MSTORE CALLVALUE DUP1 ISZERO PUSH2 0xF JUMPI PUSH0 PUSH0 REVERT JUMPDEST POP PUSH1 0x4 CALLDATASIZE LT PUSH2 0x3F JUMPI PUSH0 CALLDATALOAD PUSH1 0xE0 SHR DUP1 PUSH4 0x5A9B0B89 EQ PUSH2 0x43 JUMPI DUP1 PUSH4 0x8DA5CB5B EQ PUSH2 0x61 JUMPI DUP1 PUSH4 0x937F6E77 EQ PUSH2 0x7F JUMPI JUMPDEST PUSH0 PUSH0 REVERT JUMPDEST PUSH2 0x4B PUSH2 0x9B JUMP JUMPDEST PUSH1 0x40 MLOAD PUSH2 0x58 SWAP2 SWAP1 PUSH2 0x260 JUMP JUMPDEST PUSH1 0x40 MLOAD DUP1 SWAP2 SUB SWAP1 RETURN JUMPDEST PUSH2 0x69 PUSH2 0x12A JUMP JUMPDEST PUSH1 0x40 MLOAD PUSH2 0x76 SWAP2 SWAP1 PUSH2 0x2BF JUMP JUMPDEST PUSH1 0x40 MLOAD DUP1 SWAP2 SUB SWAP1 RETURN JUMPDEST PUSH2 0x99 PUSH1 0x4 DUP1 CALLDATASIZE SUB DUP2 ADD SWAP1 PUSH2 0x94 SWAP2 SWAP1 PUSH2 0x415 JUMP JUMPDEST PUSH2 0x14F JUMP JUMPDEST STOP JUMPDEST PUSH1 0x60 PUSH0 DUP1 SLOAD PUSH2 0xA9 SWAP1 PUSH2 0x489 JUMP JUMPDEST DUP1 PUSH1 0x1F ADD PUSH1 0x20 DUP1 SWAP2 DIV MUL PUSH1 0x20 ADD PUSH1 0x40 MLOAD SWAP1 DUP2 ADD PUSH1 0x40 MSTORE DUP1 SWAP3 SWAP2 SWAP1 DUP2 DUP2 MSTORE PUSH1 0x20 ADD DUP3 DUP1 SLOAD PUSH2 0xD5 SWAP1 PUSH2 0x489 JUMP JUMPDEST DUP1 ISZERO PUSH2 0x120 JUMPI DUP1 PUSH1 0x1F LT PUSH2 0xF7 JUMPI PUSH2 0x100 DUP1 DUP4 SLOAD DIV MUL DUP4 MSTORE SWAP2 PUSH1 0x20 ADD SWAP2 PUSH2 0x120 JUMP JUMPDEST DUP3 ADD SWAP2 SWAP1 PUSH0 MSTORE PUSH1 0x20 PUSH0 KECCAK256 SWAP1 JUMPDEST DUP2 SLOAD DUP2 MSTORE SWAP1 PUSH1 0x1 ADD SWAP1 PUSH1 0x20 ADD DUP1 DUP4 GT PUSH2 0x103 JUMPI DUP3 SWAP1 SUB PUSH1 0x1F AND DUP3 ADD SWAP2 JUMPDEST POP POP POP POP POP SWAP1 POP SWAP1 JUMP JUMPDEST PUSH1 0x1 PUSH0 SWAP1 SLOAD SWAP1 PUSH2 0x100 EXP SWAP1 DIV PUSH20 0xFFFFFFFFFFFFFFFFFFFFFFFFFFFFFFFFFFFFFFFF AND DUP2 JUMP JUMPDEST PUSH1 0x1 PUSH0 SWAP1 SLOAD SWAP1 PUSH2 0x100 EXP SWAP1 DIV PUSH20 0xFFFFFFFFFFFFFFFFFFFFFFFFFFFFFFFFFFFFFFFF AND PUSH20 0xFFFFFFFFFFFFFFFFFFFFFFFFFFFFFFFFFFFFFFFF AND CALLER PUSH20 0xFFFFFFFFFFFFFFFFFFFFFFFFFFFFFFFFFFFFFFFF AND EQ PUSH2 0x1DE JUMPI PUSH1 0x40 MLOAD PUSH32 0x8C379A000000000000000000000000000000000000000000000000000000000 DUP2 MSTORE PUSH1 0x4 ADD PUSH2 0x1D5 SWAP1 PUSH2 0x529 JUMP JUMPDEST PUSH1 0x40 MLOAD DUP1 SWAP2 SUB SWAP1 REVERT JUMPDEST DUP1 PUSH0 SWAP1 DUP2 PUSH2 0x1EC SWAP2 SWAP1 PUSH2 0x6F0 JUMP JUMPDEST POP POP JUMP JUMPDEST PUSH0 DUP2 MLOAD SWAP1 POP SWAP2 SWAP1 POP JUMP JUMPDEST PUSH0 DUP3 DUP3 MSTORE PUSH1 0x20 DUP3 ADD SWAP1 POP SWAP3 SWAP2 POP POP JUMP JUMPDEST DUP3 DUP2 DUP4 MCOPY PUSH0 DUP4 DUP4 ADD MSTORE POP POP POP JUMP JUMPDEST PUSH0 PUSH1 0x1F NOT PUSH1 0x1F DUP4 ADD AND SWAP1 POP SWAP2 SWAP1 POP JUMP JUMPDEST PUSH0 PUSH2 0x232 DUP3 PUSH2 0x1F0 JUMP JUMPDEST PUSH2 0x23C DUP2 DUP6 PUSH2 0x1FA JUMP JUMPDEST SWAP4 POP PUSH2 0x24C DUP2 DUP6 PUSH1 0x20 DUP7 ADD PUSH2 0x20A JUMP JUMPDEST PUSH2 0x255 DUP2 PUSH2 0x218 JUMP JUMPDEST DUP5 ADD SWAP2 POP POP SWAP3 SWAP2 POP POP JUMP JUMPDEST PUSH0 PUSH1 0x20 DUP3 ADD SWAP1 POP DUP2 DUP2 SUB PUSH0 DUP4 ADD MSTORE PUSH2 0x278 DUP2 DUP5 PUSH2 0x228 JUMP JUMPDEST SWAP1 POP SWAP3 SWAP2 POP POP JUMP JUMPDEST PUSH0 PUSH20 0xFFFFFFFFFFFFFFFFFFFFFFFFFFFFFFFFFFFFFFFF DUP3 AND SWAP1 POP SWAP2 SWAP1 POP JUMP JUMPDEST PUSH0 PUSH2 0x2A9 DUP3 PUSH2 0x280 JUMP JUMPDEST SWAP1 POP SWAP2 SWAP1 POP JUMP JUMPDEST PUSH2 0x2B9 DUP2 PUSH2 0x29F JUMP JUMPDEST DUP3 MSTORE POP POP JUMP JUMPDEST PUSH0 PUSH1 0x20 DUP3 ADD SWAP1 POP PUSH2 0x2D2 PUSH0 DUP4 ADD DUP5 PUSH2 0x2B0 JUMP JUMPDEST SWAP3 SWAP2 POP POP JUMP JUMPDEST PUSH0 PUSH1 0x40 MLOAD SWAP1 POP SWAP1 JUMP JUMPDEST PUSH0 PUSH0 REVERT JUMPDEST PUSH0 PUSH0 REVERT JUMPDEST PUSH0 PUSH0 REVERT JUMPDEST PUSH0 PUSH0 REVERT JUMPDEST PUSH32 0x4E487B7100000000000000000000000000000000000000000000000000000000 PUSH0 MSTORE PUSH1 0x41 PUSH1 0x4 MSTORE PUSH1 0x24 PUSH0 REVERT JUMPDEST PUSH2 0x327 DUP3 PUSH2 0x218 JUMP JUMPDEST DUP2 ADD DUP2 DUP2 LT PUSH8 0xFFFFFFFFFFFFFFFF DUP3 GT OR ISZERO PUSH2 0x346 JUMPI PUSH2 0x345 PUSH2 0x2F1 JUMP JUMPDEST JUMPDEST DUP1 PUSH1 0x40 MSTORE POP POP POP JUMP JUMPDEST PUSH0 PUSH2 0x358 PUSH2 0x2D8 JUMP JUMPDEST SWAP1 POP PUSH2 0x364 DUP3 DUP3 PUSH2 0x31E JUMP JUMPDEST SWAP2 SWAP1 POP JUMP JUMPDEST PUSH0 PUSH8 0xFFFFFFFFFFFFFFFF DUP3 GT ISZERO PUSH2 0x383 JUMPI PUSH2 0x382 PUSH2 0x2F1 JUMP JUMPDEST JUMPDEST PUSH2 0x38C DUP3 PUSH2 0x218 JUMP JUMPDEST SWAP1 POP PUSH1 0x20 DUP2 ADD SWAP1 POP SWAP2 SWAP1 POP JUMP JUMPDEST DUP3 DUP2 DUP4 CALLDATACOPY PUSH0 DUP4 DUP4 ADD MSTORE POP POP POP JUMP JUMPDEST PUSH0 PUSH2 0x3B9 PUSH2 0x3B4 DUP5 PUSH2 0x369 JUMP JUMPDEST PUSH2 0x34F JUMP JUMPDEST SWAP1 POP DUP3 DUP2 MSTORE PUSH1 0x20 DUP2 ADD DUP5 DUP5 DUP5 ADD GT ISZERO PUSH2 0x3D5 JUMPI PUSH2 0x3D4 PUSH2 0x2ED JUMP JUMPDEST JUMPDEST PUSH2 0x3E0 DUP5 DUP3 DUP6 PUSH2 0x399 JUMP JUMPDEST POP SWAP4 SWAP3 POP POP POP JUMP JUMPDEST PUSH0 DUP3 PUSH1 0x1F DUP4 ADD SLT PUSH2 0x3FC JUMPI PUSH2 0x3FB PUSH2 0x2E9 JUMP JUMPDEST JUMPDEST DUP2 CALLDATALOAD PUSH2 0x40C DUP5 DUP3 PUSH1 0x20 DUP7 ADD PUSH2 0x3A7 JUMP JUMPDEST SWAP2 POP POP SWAP3 SWAP2 POP POP JUMP JUMPDEST PUSH0 PUSH1 0x20 DUP3 DUP5 SUB SLT ISZERO PUSH2 0x42A JUMPI PUSH2 0x429 PUSH2 0x2E1 JUMP JUMPDEST JUMPDEST PUSH0 DUP3 ADD CALLDATALOAD PUSH8 0xFFFFFFFFFFFFFFFF DUP2 GT ISZERO PUSH2 0x447 JUMPI PUSH2 0x446 PUSH2 0x2E5 JUMP JUMPDEST JUMPDEST PUSH2 0x453 DUP5 DUP3 DUP6 ADD PUSH2 0x3E8 JUMP JUMPDEST SWAP2 POP POP SWAP3 SWAP2 POP POP JUMP JUMPDEST PUSH32 0x4E487B7100000000000000000000000000000000000000000000000000000000 PUSH0 MSTORE PUSH1 0x22 PUSH1 0x4 MSTORE PUSH1 0x24 PUSH0 REVERT JUMPDEST PUSH0 PUSH1 0x2 DUP3 DIV SWAP1 POP PUSH1 0x1 DUP3 AND DUP1 PUSH2 0x4A0 JUMPI PUSH1 0x7F DUP3 AND SWAP2 POP JUMPDEST PUSH1 0x20 DUP3 LT DUP2 SUB PUSH2 0x4B3 JUMPI PUSH2 0x4B2 PUSH2 0x45C JUMP JUMPDEST JUMPDEST POP SWAP2 SWAP1 POP JUMP JUMPDEST PUSH32 0x536F6C6F20656C204F776E65722070756564652063616D6269617220656C2076 PUSH0 DUP3 ADD MSTORE PUSH32 0x616C6F7200000000000000000000000000000000000000000000000000000000 PUSH1 0x20 DUP3 ADD MSTORE POP JUMP JUMPDEST PUSH0 PUSH2 0x513 PUSH1 0x24 DUP4 PUSH2 0x1FA JUMP JUMPDEST SWAP2 POP PUSH2 0x51E DUP3 PUSH2 0x4B9 JUMP JUMPDEST PUSH1 0x40 DUP3 ADD SWAP1 POP SWAP2 SWAP1 POP JUMP JUMPDEST PUSH0 PUSH1 0x20 DUP3 ADD SWAP1 POP DUP2 DUP2 SUB PUSH0 DUP4 ADD MSTORE PUSH2 0x540 DUP2 PUSH2 0x507 JUMP JUMPDEST SWAP1 POP SWAP2 SWAP1 POP JUMP JUMPDEST PUSH0 DUP2 SWAP1 POP DUP2 PUSH0 MSTORE PUSH1 0x20 PUSH0 KECCAK256 SWAP1 POP SWAP2 SWAP1 POP JUMP JUMPDEST PUSH0 PUSH1 0x20 PUSH1 0x1F DUP4 ADD DIV SWAP1 POP SWAP2 SWAP1 POP JUMP JUMPDEST PUSH0 DUP3 DUP3 SHL SWAP1 POP SWAP3 SWAP2 POP POP JUMP JUMPDEST PUSH0 PUSH1 0x8 DUP4 MUL PUSH2 0x5A3 PUSH32 0xFFFFFFFFFFFFFFFFFFFFFFFFFFFFFFFFFFFFFFFFFFFFFFFFFFFFFFFFFFFFFFFF DUP3 PUSH2 0x568 JUMP JUMPDEST PUSH2 0x5AD DUP7 DUP4 PUSH2 0x568 JUMP JUMPDEST SWAP6 POP DUP1 NOT DUP5 AND SWAP4 POP DUP1 DUP7 AND DUP5 OR SWAP3 POP POP POP SWAP4 SWAP3 POP POP POP JUMP JUMPDEST PUSH0 DUP2 SWAP1 POP SWAP2 SWAP1 POP JUMP JUMPDEST PUSH0 DUP2 SWAP1 POP SWAP2 SWAP1 POP JUMP JUMPDEST PUSH0 PUSH2 0x5F1 PUSH2 0x5EC PUSH2 0x5E7 DUP5 PUSH2 0x5C5 JUMP JUMPDEST PUSH2 0x5CE JUMP JUMPDEST PUSH2 0x5C5 JUMP JUMPDEST SWAP1 POP SWAP2 SWAP1 POP JUMP JUMPDEST PUSH0 DUP2 SWAP1 POP SWAP2 SWAP1 POP JUMP JUMPDEST PUSH2 0x60A DUP4 PUSH2 0x5D7 JUMP JUMPDEST PUSH2 0x61E PUSH2 0x616 DUP3 PUSH2 0x5F8 JUMP JUMPDEST DUP5 DUP5 SLOAD PUSH2 0x574 JUMP JUMPDEST DUP3 SSTORE POP POP POP POP JUMP JUMPDEST PUSH0 PUSH0 SWAP1 POP SWAP1 JUMP JUMPDEST PUSH2 0x635 PUSH2 0x626 JUMP JUMPDEST PUSH2 0x640 DUP2 DUP5 DUP5 PUSH2 0x601 JUMP JUMPDEST POP POP POP JUMP JUMPDEST JUMPDEST DUP2 DUP2 LT ISZERO PUSH2 0x663 JUMPI PUSH2 0x658 PUSH0 DUP3 PUSH2 0x62D JUMP JUMPDEST PUSH1 0x1 DUP2 ADD SWAP1 POP PUSH2 0x646 JUMP JUMPDEST POP POP JUMP JUMPDEST PUSH1 0x1F DUP3 GT ISZERO PUSH2 0x6A8 JUMPI PUSH2 0x679 DUP2 PUSH2 0x547 JUMP JUMPDEST PUSH2 0x682 DUP5 PUSH2 0x559 JUMP JUMPDEST DUP2 ADD PUSH1 0x20 DUP6 LT ISZERO PUSH2 0x691 JUMPI DUP2 SWAP1 POP JUMPDEST PUSH2 0x6A5 PUSH2 0x69D DUP6 PUSH2 0x559 JUMP JUMPDEST DUP4 ADD DUP3 PUSH2 0x645 JUMP JUMPDEST POP POP JUMPDEST POP POP POP JUMP JUMPDEST PUSH0 DUP3 DUP3 SHR SWAP1 POP SWAP3 SWAP2 POP POP JUMP JUMPDEST PUSH0 PUSH2 0x6C8 PUSH0 NOT DUP5 PUSH1 0x8 MUL PUSH2 0x6AD JUMP JUMPDEST NOT DUP1 DUP4 AND SWAP2 POP POP SWAP3 SWAP2 POP POP JUMP JUMPDEST PUSH0 PUSH2 0x6E0 DUP4 DUP4 PUSH2 0x6B9 JUMP JUMPDEST SWAP2 POP DUP3 PUSH1 0x2 MUL DUP3 OR SWAP1 POP SWAP3 SWAP2 POP POP JUMP JUMPDEST PUSH2 0x6F9 DUP3 PUSH2 0x1F0 JUMP JUMPDEST PUSH8 0xFFFFFFFFFFFFFFFF DUP2 GT ISZERO PUSH2 0x712 JUMPI PUSH2 0x711 PUSH2 0x2F1 JUMP JUMPDEST JUMPDEST PUSH2 0x71C DUP3 SLOAD PUSH2 0x489 JUMP JUMPDEST PUSH2 0x727 DUP3 DUP3 DUP6 PUSH2 0x667 JUMP JUMPDEST PUSH0 PUSH1 0x20 SWAP1 POP PUSH1 0x1F DUP4 GT PUSH1 0x1 DUP2 EQ PUSH2 0x758 JUMPI PUSH0 DUP5 ISZERO PUSH2 0x746 JUMPI DUP3 DUP8 ADD MLOAD SWAP1 POP JUMPDEST PUSH2 0x750 DUP6 DUP3 PUSH2 0x6D5 JUMP JUMPDEST DUP7 SSTORE POP PUSH2 0x7B7 JUMP JUMPDEST PUSH1 0x1F NOT DUP5 AND PUSH2 0x766 DUP7 PUSH2 0x547 JUMP JUMPDEST PUSH0 JUMPDEST DUP3 DUP2 LT ISZERO PUSH2 0x78D JUMPI DUP5 DUP10 ADD MLOAD DUP3 SSTORE PUSH1 0x1 DUP3 ADD SWAP2 POP PUSH1 0x20 DUP6 ADD SWAP5 POP PUSH1 0x20 DUP2 ADD SWAP1 POP PUSH2 0x768 JUMP JUMPDEST DUP7 DUP4 LT ISZERO PUSH2 0x7AA JUMPI DUP5 DUP10 ADD MLOAD PUSH2 0x7A6 PUSH1 0x1F DUP10 AND DUP3 PUSH2 0x6B9 JUMP JUMPDEST DUP4 SSTORE POP JUMPDEST PUSH1 0x1 PUSH1 0x2 DUP9 MUL ADD DUP9 SSTORE POP POP POP JUMPDEST POP POP POP POP POP POP JUMP INVALID LOG2 PUSH5 0x6970667358 0x22 SLT KECCAK256 0xC PUSH6 0x3ADD1DD5977E 0xDB LOG0 STOP ADDRESS NUMBER 0xEA 0x2D SAR MLOAD PUSH10 0xA2A8F90176300B782977 SWAP11 XOR 0x21 PUSH2 0x6473 PUSH16 0x6C634300081C00330000000000000000 "
		},
		"gasEstimates": {
			"creation": {
				"codeDepositCost": "407400",
				"executionCost": "24706",
				"totalCost": "432106"
			},
			"external": {
				"getInfo()": "infinite",
				"owner()": "2508",
				"setInfo(string)": "infinite"
			}
		},
		"methodIdentifiers": {
			"getInfo()": "5a9b0b89",
			"owner()": "8da5cb5b",
			"setInfo(string)": "937f6e77"
		}
	},
	"abi": [
		{
			"inputs": [],
			"stateMutability": "nonpayable",
			"type": "constructor"
		},
		{
			"inputs": [],
			"name": "getInfo",
			"outputs": [
				{
					"internalType": "string",
					"name": "",
					"type": "string"
				}
			],
			"stateMutability": "view",
			"type": "function"
		},
		{
			"inputs": [],
			"name": "owner",
			"outputs": [
				{
					"internalType": "address",
					"name": "",
					"type": "address"
				}
			],
			"stateMutability": "view",
			"type": "function"
		},
		{
			"inputs": [
				{
					"internalType": "string",
					"name": "myInfo",
					"type": "string"
				}
			],
			"name": "setInfo",
			"outputs": [],
			"stateMutability": "nonpayable",
			"type": "function"
		}
	]
}