{
	"data": {
		"bytecode": {
			"linkReferences": {},
			"object": "60806040525f600155348015610013575f5ffd5b503360025f6101000a81548173ffffffffffffffffffffffffffffffffffffffff021916908373ffffffffffffffffffffffffffffffffffffffff1602179055506040518060400160405280600b81526020017f48656c6c6f20776f726c640000000000000000000000000000000000000000008152505f908161009791906102da565b506103a9565b5f81519050919050565b7f4e487b71000000000000000000000000000000000000000000000000000000005f52604160045260245ffd5b7f4e487b71000000000000000000000000000000000000000000000000000000005f52602260045260245ffd5b5f600282049050600182168061011857607f821691505b60208210810361012b5761012a6100d4565b5b50919050565b5f819050815f5260205f209050919050565b5f6020601f8301049050919050565b5f82821b905092915050565b5f6008830261018d7fffffffffffffffffffffffffffffffffffffffffffffffffffffffffffffffff82610152565b6101978683610152565b95508019841693508086168417925050509392505050565b5f819050919050565b5f819050919050565b5f6101db6101d66101d1846101af565b6101b8565b6101af565b9050919050565b5f819050919050565b6101f4836101c1565b610208610200826101e2565b84845461015e565b825550505050565b5f5f905090565b61021f610210565b61022a8184846101eb565b505050565b5b8181101561024d576102425f82610217565b600181019050610230565b5050565b601f8211156102925761026381610131565b61026c84610143565b8101602085101561027b578190505b61028f61028785610143565b83018261022f565b50505b505050565b5f82821c905092915050565b5f6102b25f1984600802610297565b1980831691505092915050565b5f6102ca83836102a3565b9150826002028217905092915050565b6102e38261009d565b67ffffffffffffffff8111156102fc576102fb6100a7565b5b6103068254610101565b610311828285610251565b5f60209050601f831160018114610342575f8415610330578287015190505b61033a85826102bf565b8655506103a1565b601f19841661035086610131565b5f5b8281101561037757848901518255600182019150602085019450602081019050610352565b868310156103945784890151610390601f8916826102a3565b8355505b6001600288020188555050505b505050505050565b6109a0806103b65f395ff3fe608060405234801561000f575f5ffd5b506004361061004a575f3560e01c80632af2bc271461004e5780635a9b0b891461006c5780638da5cb5b1461008a578063937f6e77146100a8575b5f5ffd5b6100566100c4565b6040516100639190610287565b60405180910390f35b6100746100ca565b6040516100819190610310565b60405180910390f35b610092610159565b60405161009f919061036f565b60405180910390f35b6100c260048036038101906100bd91906104c5565b61017e565b005b60015481565b60605f80546100d890610539565b80601f016020809104026020016040519081016040528092919081815260200182805461010490610539565b801561014f5780601f106101265761010080835404028352916020019161014f565b820191905f5260205f20905b81548152906001019060200180831161013257829003601f168201915b5050505050905090565b60025f9054906101000a900473ffffffffffffffffffffffffffffffffffffffff1681565b60025f9054906101000a900473ffffffffffffffffffffffffffffffffffffffff1673ffffffffffffffffffffffffffffffffffffffff163373ffffffffffffffffffffffffffffffffffffffff161461020d576040517f08c379a0000000000000000000000000000000000000000000000000000000008152600401610204906105b3565b60405180910390fd5b7f305058d54db6daf26994cd687b168a24cdd9a7201462f1659782c4e4299879925f8260405161023e929190610664565b60405180910390a1805f90816102549190610827565b5060015f81548092919061026790610923565b919050555050565b5f819050919050565b6102818161026f565b82525050565b5f60208201905061029a5f830184610278565b92915050565b5f81519050919050565b5f82825260208201905092915050565b8281835e5f83830152505050565b5f601f19601f8301169050919050565b5f6102e2826102a0565b6102ec81856102aa565b93506102fc8185602086016102ba565b610305816102c8565b840191505092915050565b5f6020820190508181035f83015261032881846102d8565b905092915050565b5f73ffffffffffffffffffffffffffffffffffffffff82169050919050565b5f61035982610330565b9050919050565b6103698161034f565b82525050565b5f6020820190506103825f830184610360565b92915050565b5f604051905090565b5f5ffd5b5f5ffd5b5f5ffd5b5f5ffd5b7f4e487b71000000000000000000000000000000000000000000000000000000005f52604160045260245ffd5b6103d7826102c8565b810181811067ffffffffffffffff821117156103f6576103f56103a1565b5b80604052505050565b5f610408610388565b905061041482826103ce565b919050565b5f67ffffffffffffffff821115610433576104326103a1565b5b61043c826102c8565b9050602081019050919050565b828183375f83830152505050565b5f61046961046484610419565b6103ff565b9050828152602081018484840111156104855761048461039d565b5b610490848285610449565b509392505050565b5f82601f8301126104ac576104ab610399565b5b81356104bc848260208601610457565b91505092915050565b5f602082840312156104da576104d9610391565b5b5f82013567ffffffffffffffff8111156104f7576104f6610395565b5b61050384828501610498565b91505092915050565b7f4e487b71000000000000000000000000000000000000000000000000000000005f52602260045260245ffd5b5f600282049050600182168061055057607f821691505b6020821081036105635761056261050c565b5b50919050565b7f4f6e6c79206f776e6572000000000000000000000000000000000000000000005f82015250565b5f61059d600a836102aa565b91506105a882610569565b602082019050919050565b5f6020820190508181035f8301526105ca81610591565b9050919050565b5f819050815f5260205f209050919050565b5f81546105ef81610539565b6105f981866102aa565b9450600182165f811461061357600181146106295761065b565b60ff19831686528115156020028601935061065b565b610632856105d1565b5f5b8381101561065357815481890152600182019150602081019050610634565b808801955050505b50505092915050565b5f6040820190508181035f83015261067c81856105e3565b9050818103602083015261069081846102d8565b90509392505050565b5f6020601f8301049050919050565b5f82821b905092915050565b5f600883026106e37fffffffffffffffffffffffffffffffffffffffffffffffffffffffffffffffff826106a8565b6106ed86836106a8565b95508019841693508086168417925050509392505050565b5f819050919050565b5f61072861072361071e8461026f565b610705565b61026f565b9050919050565b5f819050919050565b6107418361070e565b61075561074d8261072f565b8484546106b4565b825550505050565b5f5f905090565b61076c61075d565b610777818484610738565b505050565b5b8181101561079a5761078f5f82610764565b60018101905061077d565b5050565b601f8211156107df576107b0816105d1565b6107b984610699565b810160208510156107c8578190505b6107dc6107d485610699565b83018261077c565b50505b505050565b5f82821c905092915050565b5f6107ff5f19846008026107e4565b1980831691505092915050565b5f61081783836107f0565b9150826002028217905092915050565b610830826102a0565b67ffffffffffffffff811115610849576108486103a1565b5b6108538254610539565b61085e82828561079e565b5f60209050601f83116001811461088f575f841561087d578287015190505b610887858261080c565b8655506108ee565b601f19841661089d866105d1565b5f5b828110156108c45784890151825560018201915060208501945060208101905061089f565b868310156108e157848901516108dd601f8916826107f0565b8355505b6001600288020188555050505b505050505050565b7f4e487b71000000000000000000000000000000000000000000000000000000005f52601160045260245ffd5b5f61092d8261026f565b91507fffffffffffffffffffffffffffffffffffffffffffffffffffffffffffffffff820361095f5761095e6108f6565b5b60018201905091905056fea2646970667358221220e7d1ee0bc63d8d0f122eab187496467786dc09ac9f999c9faf421433d5f9c22d64736f6c634300081c0033",
			"opcodes": "PUSH1 0x80 PUSH1 0x40 MSTORE PUSH0 PUSH1 0x1 SSTORE CALLVALUE DUP1 ISZERO PUSH2 0x13 JUMPI PUSH0 PUSH0 REVERT JUMPDEST POP CALLER PUSH1 0x2 PUSH0 PUSH2 0x100 EXP DUP2 SLOAD DUP2 PUSH20 0xFFFFFFFFFFFFFFFFFFFFFFFFFFFFFFFFFFFFFFFF MUL NOT AND SWAP1 DUP4 PUSH20 0xFFFFFFFFFFFFFFFFFFFFFFFFFFFFFFFFFFFFFFFF AND MUL OR SWAP1 SSTORE POP PUSH1 0x40 MLOAD DUP1 PUSH1 0x40 ADD PUSH1 0x40 MSTORE DUP1 PUSH1 0xB DUP2 MSTORE PUSH1 0x20 ADD PUSH32 0x48656C6C6F20776F726C64000000000000000000000000000000000000000000 DUP2 MSTORE POP PUSH0 SWAP1 DUP2 PUSH2 0x97 SWAP2 SWAP1 PUSH2 0x2DA JUMP JUMPDEST POP PUSH2 0x3A9 JUMP JUMPDEST PUSH0 DUP2 MLOAD SWAP1 POP SWAP2 SWAP1 POP JUMP JUMPDEST PUSH32 0x4E487B7100000000000000000000000000000000000000000000000000000000 PUSH0 MSTORE PUSH1 0x41 PUSH1 0x4 MSTORE PUSH1 0x24 PUSH0 REVERT JUMPDEST PUSH32 0x4E487B7100000000000000000000000000000000000000000000000000000000 PUSH0 MSTORE PUSH1 0x22 PUSH1 0x4 MSTORE PUSH1 0x24 PUSH0 REVERT JUMPDEST PUSH0 PUSH1 0x2 DUP3 DIV SWAP1 POP PUSH1 0x1 DUP3 AND DUP1 PUSH2 0x118 JUMPI PUSH1 0x7F DUP3 AND SWAP2 POP JUMPDEST PUSH1 0x20 DUP3 LT DUP2 SUB PUSH2 0x12B JUMPI PUSH2 0x12A PUSH2 0xD4 JUMP JUMPDEST JUMPDEST POP SWAP2 SWAP1 POP JUMP JUMPDEST PUSH0 DUP2 SWAP1 POP DUP2 PUSH0 MSTORE PUSH1 0x20 PUSH0 KECCAK256 SWAP1 POP SWAP2 SWAP1 POP JUMP JUMPDEST PUSH0 PUSH1 0x20 PUSH1 0x1F DUP4 ADD DIV SWAP1 POP SWAP2 SWAP1 POP JUMP JUMPDEST PUSH0 DUP3 DUP3 SHL SWAP1 POP SWAP3 SWAP2 POP POP JUMP JUMPDEST PUSH0 PUSH1 0x8 DUP4 MUL PUSH2 0x18D PUSH32 0xFFFFFFFFFFFFFFFFFFFFFFFFFFFFFFFFFFFFFFFFFFFFFFFFFFFFFFFFFFFFFFFF DUP3 PUSH2 0x152 JUMP JUMPDEST PUSH2 0x197 DUP7 DUP4 PUSH2 0x152 JUMP JUMPDEST SWAP6 POP DUP1 NOT DUP5 AND SWAP4 POP DUP1 DUP7 AND DUP5 OR SWAP3 POP POP POP SWAP4 SWAP3 POP POP POP JUMP JUMPDEST PUSH0 DUP2 SWAP1 POP SWAP2 SWAP1 POP JUMP JUMPDEST PUSH0 DUP2 SWAP1 POP SWAP2 SWAP1 POP JUMP JUMPDEST PUSH0 PUSH2 0x1DB PUSH2 0x1D6 PUSH2 0x1D1 DUP5 PUSH2 0x1AF JUMP JUMPDEST PUSH2 0x1B8 JUMP JUMPDEST PUSH2 0x1AF JUMP JUMPDEST SWAP1 POP SWAP2 SWAP1 POP JUMP JUMPDEST PUSH0 DUP2 SWAP1 POP SWAP2 SWAP1 POP JUMP JUMPDEST PUSH2 0x1F4 DUP4 PUSH2 0x1C1 JUMP JUMPDEST PUSH2 0x208 PUSH2 0x200 DUP3 PUSH2 0x1E2 JUMP JUMPDEST DUP5 DUP5 SLOAD PUSH2 0x15E JUMP JUMPDEST DUP3 SSTORE POP POP POP POP JUMP JUMPDEST PUSH0 PUSH0 SWAP1 POP SWAP1 JUMP JUMPDEST PUSH2 0x21F PUSH2 0x210 JUMP JUMPDEST PUSH2 0x22A DUP2 DUP5 DUP5 PUSH2 0x1EB JUMP JUMPDEST POP POP POP JUMP JUMPDEST JUMPDEST DUP2 DUP2 LT ISZERO PUSH2 0x24D JUMPI PUSH2 0x242 PUSH0 DUP3 PUSH2 0x217 JUMP JUMPDEST PUSH1 0x1 DUP2 ADD SWAP1 POP PUSH2 0x230 JUMP JUMPDEST POP POP JUMP JUMPDEST PUSH1 0x1F DUP3 GT ISZERO PUSH2 0x292 JUMPI PUSH2 0x263 DUP2 PUSH2 0x131 JUMP JUMPDEST PUSH2 0x26C DUP5 PUSH2 0x143 JUMP JUMPDEST DUP2 ADD PUSH1 0x20 DUP6 LT ISZERO PUSH2 0x27B JUMPI DUP2 SWAP1 POP JUMPDEST PUSH2 0x28F PUSH2 0x287 DUP6 PUSH2 0x143 JUMP JUMPDEST DUP4 ADD DUP3 PUSH2 0x22F JUMP JUMPDEST POP POP JUMPDEST POP POP POP JUMP JUMPDEST PUSH0 DUP3 DUP3 SHR SWAP1 POP SWAP3 SWAP2 POP POP JUMP JUMPDEST PUSH0 PUSH2 0x2B2 PUSH0 NOT DUP5 PUSH1 0x8 MUL PUSH2 0x297 JUMP JUMPDEST NOT DUP1 DUP4 AND SWAP2 POP POP SWAP3 SWAP2 POP POP JUMP JUMPDEST PUSH0 PUSH2 0x2CA DUP4 DUP4 PUSH2 0x2A3 JUMP JUMPDEST SWAP2 POP DUP3 PUSH1 0x2 MUL DUP3 OR SWAP1 POP SWAP3 SWAP2 POP POP JUMP JUMPDEST PUSH2 0x2E3 DUP3 PUSH2 0x9D JUMP JUMPDEST PUSH8 0xFFFFFFFFFFFFFFFF DUP2 GT ISZERO PUSH2 0x2FC JUMPI PUSH2 0x2FB PUSH2 0xA7 JUMP JUMPDEST JUMPDEST PUSH2 0x306 DUP3 SLOAD PUSH2 0x101 JUMP JUMPDEST PUSH2 0x311 DUP3 DUP3 DUP6 PUSH2 0x251 JUMP JUMPDEST PUSH0 PUSH1 0x20 SWAP1 POP PUSH1 0x1F DUP4 GT PUSH1 0x1 DUP2 EQ PUSH2 0x342 JUMPI PUSH0 DUP5 ISZERO PUSH2 0x330 JUMPI DUP3 DUP8 ADD MLOAD SWAP1 POP JUMPDEST PUSH2 0x33A DUP6 DUP3 PUSH2 0x2BF JUMP JUMPDEST DUP7 SSTORE POP PUSH2 0x3A1 JUMP JUMPDEST PUSH1 0x1F NOT DUP5 AND PUSH2 0x350 DUP7 PUSH2 0x131 JUMP JUMPDEST PUSH0 JUMPDEST DUP3 DUP2 LT ISZERO PUSH2 0x377 JUMPI DUP5 DUP10 ADD MLOAD DUP3 SSTORE PUSH1 0x1 DUP3 ADD SWAP2 POP PUSH1 0x20 DUP6 ADD SWAP5 POP PUSH1 0x20 DUP2 ADD SWAP1 POP PUSH2 0x352 JUMP JUMPDEST DUP7 DUP4 LT ISZERO PUSH2 0x394 JUMPI DUP5 DUP10 ADD MLOAD PUSH2 0x390 PUSH1 0x1F DUP10 AND DUP3 PUSH2 0x2A3 JUMP JUMPDEST DUP4 SSTORE POP JUMPDEST PUSH1 0x1 PUSH1 0x2 DUP9 MUL ADD DUP9 SSTORE POP POP POP JUMPDEST POP POP POP POP POP POP JUMP JUMPDEST PUSH2 0x9A0 DUP1 PUSH2 0x3B6 PUSH0 CODECOPY PUSH0 RETURN INVALID PUSH1 0x80 PUSH1 0x40 MSTORE CALLVALUE DUP1 ISZERO PUSH2 0xF JUMPI PUSH0 PUSH0 REVERT JUMPDEST POP PUSH1 0x4 CALLDATASIZE LT PUSH2 0x4A JUMPI PUSH0 CALLDATALOAD PUSH1 0xE0 SHR DUP1 PUSH4 0x2AF2BC27 EQ PUSH2 0x4E JUMPI DUP1 PUSH4 0x5A9B0B89 EQ PUSH2 0x6C JUMPI DUP1 PUSH4 0x8DA5CB5B EQ PUSH2 0x8A JUMPI DUP1 PUSH4 0x937F6E77 EQ PUSH2 0xA8 JUMPI JUMPDEST PUSH0 PUSH0 REVERT JUMPDEST PUSH2 0x56 PUSH2 0xC4 JUMP JUMPDEST PUSH1 0x40 MLOAD PUSH2 0x63 SWAP2 SWAP1 PUSH2 0x287 JUMP JUMPDEST PUSH1 0x40 MLOAD DUP1 SWAP2 SUB SWAP1 RETURN JUMPDEST PUSH2 0x74 PUSH2 0xCA JUMP JUMPDEST PUSH1 0x40 MLOAD PUSH2 0x81 SWAP2 SWAP1 PUSH2 0x310 JUMP JUMPDEST PUSH1 0x40 MLOAD DUP1 SWAP2 SUB SWAP1 RETURN JUMPDEST PUSH2 0x92 PUSH2 0x159 JUMP JUMPDEST PUSH1 0x40 MLOAD PUSH2 0x9F SWAP2 SWAP1 PUSH2 0x36F JUMP JUMPDEST PUSH1 0x40 MLOAD DUP1 SWAP2 SUB SWAP1 RETURN JUMPDEST PUSH2 0xC2 PUSH1 0x4 DUP1 CALLDATASIZE SUB DUP2 ADD SWAP1 PUSH2 0xBD SWAP2 SWAP1 PUSH2 0x4C5 JUMP JUMPDEST PUSH2 0x17E JUMP JUMPDEST STOP JUMPDEST PUSH1 0x1 SLOAD DUP2 JUMP JUMPDEST PUSH1 0x60 PUSH0 DUP1 SLOAD PUSH2 0xD8 SWAP1 PUSH2 0x539 JUMP JUMPDEST DUP1 PUSH1 0x1F ADD PUSH1 0x20 DUP1 SWAP2 DIV MUL PUSH1 0x20 ADD PUSH1 0x40 MLOAD SWAP1 DUP2 ADD PUSH1 0x40 MSTORE DUP1 SWAP3 SWAP2 SWAP1 DUP2 DUP2 MSTORE PUSH1 0x20 ADD DUP3 DUP1 SLOAD PUSH2 0x104 SWAP1 PUSH2 0x539 JUMP JUMPDEST DUP1 ISZERO PUSH2 0x14F JUMPI DUP1 PUSH1 0x1F LT PUSH2 0x126 JUMPI PUSH2 0x100 DUP1 DUP4 SLOAD DIV MUL DUP4 MSTORE SWAP2 PUSH1 0x20 ADD SWAP2 PUSH2 0x14F JUMP JUMPDEST DUP3 ADD SWAP2 SWAP1 PUSH0 MSTORE PUSH1 0x20 PUSH0 KECCAK256 SWAP1 JUMPDEST DUP2 SLOAD DUP2 MSTORE SWAP1 PUSH1 0x1 ADD SWAP1 PUSH1 0x20 ADD DUP1 DUP4 GT PUSH2 0x132 JUMPI DUP3 SWAP1 SUB PUSH1 0x1F AND DUP3 ADD SWAP2 JUMPDEST POP POP POP POP POP SWAP1 POP SWAP1 JUMP JUMPDEST PUSH1 0x2 PUSH0 SWAP1 SLOAD SWAP1 PUSH2 0x100 EXP SWAP1 DIV PUSH20 0xFFFFFFFFFFFFFFFFFFFFFFFFFFFFFFFFFFFFFFFF AND DUP2 JUMP JUMPDEST PUSH1 0x2 PUSH0 SWAP1 SLOAD SWAP1 PUSH2 0x100 EXP SWAP1 DIV PUSH20 0xFFFFFFFFFFFFFFFFFFFFFFFFFFFFFFFFFFFFFFFF AND PUSH20 0xFFFFFFFFFFFFFFFFFFFFFFFFFFFFFFFFFFFFFFFF AND CALLER PUSH20 0xFFFFFFFFFFFFFFFFFFFFFFFFFFFFFFFFFFFFFFFF AND EQ PUSH2 0x20D JUMPI PUSH1 0x40 MLOAD PUSH32 0x8C379A000000000000000000000000000000000000000000000000000000000 DUP2 MSTORE PUSH1 0x4 ADD PUSH2 0x204 SWAP1 PUSH2 0x5B3 JUMP JUMPDEST PUSH1 0x40 MLOAD DUP1 SWAP2 SUB SWAP1 REVERT JUMPDEST PUSH32 0x305058D54DB6DAF26994CD687B168A24CDD9A7201462F1659782C4E429987992 PUSH0 DUP3 PUSH1 0x40 MLOAD PUSH2 0x23E SWAP3 SWAP2 SWAP1 PUSH2 0x664 JUMP JUMPDEST PUSH1 0x40 MLOAD DUP1 SWAP2 SUB SWAP1 LOG1 DUP1 PUSH0 SWAP1 DUP2 PUSH2 0x254 SWAP2 SWAP1 PUSH2 0x827 JUMP JUMPDEST POP PUSH1 0x1 PUSH0 DUP2 SLOAD DUP1 SWAP3 SWAP2 SWAP1 PUSH2 0x267 SWAP1 PUSH2 0x923 JUMP JUMPDEST SWAP2 SWAP1 POP SSTORE POP POP JUMP JUMPDEST PUSH0 DUP2 SWAP1 POP SWAP2 SWAP1 POP JUMP JUMPDEST PUSH2 0x281 DUP2 PUSH2 0x26F JUMP JUMPDEST DUP3 MSTORE POP POP JUMP JUMPDEST PUSH0 PUSH1 0x20 DUP3 ADD SWAP1 POP PUSH2 0x29A PUSH0 DUP4 ADD DUP5 PUSH2 0x278 JUMP JUMPDEST SWAP3 SWAP2 POP POP JUMP JUMPDEST PUSH0 DUP2 MLOAD SWAP1 POP SWAP2 SWAP1 POP JUMP JUMPDEST PUSH0 DUP3 DUP3 MSTORE PUSH1 0x20 DUP3 ADD SWAP1 POP SWAP3 SWAP2 POP POP JUMP JUMPDEST DUP3 DUP2 DUP4 MCOPY PUSH0 DUP4 DUP4 ADD MSTORE POP POP POP JUMP JUMPDEST PUSH0 PUSH1 0x1F NOT PUSH1 0x1F DUP4 ADD AND SWAP1 POP SWAP2 SWAP1 POP JUMP JUMPDEST PUSH0 PUSH2 0x2E2 DUP3 PUSH2 0x2A0 JUMP JUMPDEST PUSH2 0x2EC DUP2 DUP6 PUSH2 0x2AA JUMP JUMPDEST SWAP4 POP PUSH2 0x2FC DUP2 DUP6 PUSH1 0x20 DUP7 ADD PUSH2 0x2BA JUMP JUMPDEST PUSH2 0x305 DUP2 PUSH2 0x2C8 JUMP JUMPDEST DUP5 ADD SWAP2 POP POP SWAP3 SWAP2 POP POP JUMP JUMPDEST PUSH0 PUSH1 0x20 DUP3 ADD SWAP1 POP DUP2 DUP2 SUB PUSH0 DUP4 ADD MSTORE PUSH2 0x328 DUP2 DUP5 PUSH2 0x2D8 JUMP JUMPDEST SWAP1 POP SWAP3 SWAP2 POP POP JUMP JUMPDEST PUSH0 PUSH20 0xFFFFFFFFFFFFFFFFFFFFFFFFFFFFFFFFFFFFFFFF DUP3 AND SWAP1 POP SWAP2 SWAP1 POP JUMP JUMPDEST PUSH0 PUSH2 0x359 DUP3 PUSH2 0x330 JUMP JUMPDEST SWAP1 POP SWAP2 SWAP1 POP JUMP JUMPDEST PUSH2 0x369 DUP2 PUSH2 0x34F JUMP JUMPDEST DUP3 MSTORE POP POP JUMP JUMPDEST PUSH0 PUSH1 0x20 DUP3 ADD SWAP1 POP PUSH2 0x382 PUSH0 DUP4 ADD DUP5 PUSH2 0x360 JUMP JUMPDEST SWAP3 SWAP2 POP POP JUMP JUMPDEST PUSH0 PUSH1 0x40 MLOAD SWAP1 POP SWAP1 JUMP JUMPDEST PUSH0 PUSH0 REVERT JUMPDEST PUSH0 PUSH0 REVERT JUMPDEST PUSH0 PUSH0 REVERT JUMPDEST PUSH0 PUSH0 REVERT JUMPDEST PUSH32 0x4E487B7100000000000000000000000000000000000000000000000000000000 PUSH0 MSTORE PUSH1 0x41 PUSH1 0x4 MSTORE PUSH1 0x24 PUSH0 REVERT JUMPDEST PUSH2 0x3D7 DUP3 PUSH2 0x2C8 JUMP JUMPDEST DUP2 ADD DUP2 DUP2 LT PUSH8 0xFFFFFFFFFFFFFFFF DUP3 GT OR ISZERO PUSH2 0x3F6 JUMPI PUSH2 0x3F5 PUSH2 0x3A1 JUMP JUMPDEST JUMPDEST DUP1 PUSH1 0x40 MSTORE POP POP POP JUMP JUMPDEST PUSH0 PUSH2 0x408 PUSH2 0x388 JUMP JUMPDEST SWAP1 POP PUSH2 0x414 DUP3 DUP3 PUSH2 0x3CE JUMP JUMPDEST SWAP2 SWAP1 POP JUMP JUMPDEST PUSH0 PUSH8 0xFFFFFFFFFFFFFFFF DUP3 GT ISZERO PUSH2 0x433 JUMPI PUSH2 0x432 PUSH2 0x3A1 JUMP JUMPDEST JUMPDEST PUSH2 0x43C DUP3 PUSH2 0x2C8 JUMP JUMPDEST SWAP1 POP PUSH1 0x20 DUP2 ADD SWAP1 POP SWAP2 SWAP1 POP JUMP JUMPDEST DUP3 DUP2 DUP4 CALLDATACOPY PUSH0 DUP4 DUP4 ADD MSTORE POP POP POP JUMP JUMPDEST PUSH0 PUSH2 0x469 PUSH2 0x464 DUP5 PUSH2 0x419 JUMP JUMPDEST PUSH2 0x3FF JUMP JUMPDEST SWAP1 POP DUP3 DUP2 MSTORE PUSH1 0x20 DUP2 ADD DUP5 DUP5 DUP5 ADD GT ISZERO PUSH2 0x485 JUMPI PUSH2 0x484 PUSH2 0x39D JUMP JUMPDEST JUMPDEST PUSH2 0x490 DUP5 DUP3 DUP6 PUSH2 0x449 JUMP JUMPDEST POP SWAP4 SWAP3 POP POP POP JUMP JUMPDEST PUSH0 DUP3 PUSH1 0x1F DUP4 ADD SLT PUSH2 0x4AC JUMPI PUSH2 0x4AB PUSH2 0x399 JUMP JUMPDEST JUMPDEST DUP2 CALLDATALOAD PUSH2 0x4BC DUP5 DUP3 PUSH1 0x20 DUP7 ADD PUSH2 0x457 JUMP JUMPDEST SWAP2 POP POP SWAP3 SWAP2 POP POP JUMP JUMPDEST PUSH0 PUSH1 0x20 DUP3 DUP5 SUB SLT ISZERO PUSH2 0x4DA JUMPI PUSH2 0x4D9 PUSH2 0x391 JUMP JUMPDEST JUMPDEST PUSH0 DUP3 ADD CALLDATALOAD PUSH8 0xFFFFFFFFFFFFFFFF DUP2 GT ISZERO PUSH2 0x4F7 JUMPI PUSH2 0x4F6 PUSH2 0x395 JUMP JUMPDEST JUMPDEST PUSH2 0x503 DUP5 DUP3 DUP6 ADD PUSH2 0x498 JUMP JUMPDEST SWAP2 POP POP SWAP3 SWAP2 POP POP JUMP JUMPDEST PUSH32 0x4E487B7100000000000000000000000000000000000000000000000000000000 PUSH0 MSTORE PUSH1 0x22 PUSH1 0x4 MSTORE PUSH1 0x24 PUSH0 REVERT JUMPDEST PUSH0 PUSH1 0x2 DUP3 DIV SWAP1 POP PUSH1 0x1 DUP3 AND DUP1 PUSH2 0x550 JUMPI PUSH1 0x7F DUP3 AND SWAP2 POP JUMPDEST PUSH1 0x20 DUP3 LT DUP2 SUB PUSH2 0x563 JUMPI PUSH2 0x562 PUSH2 0x50C JUMP JUMPDEST JUMPDEST POP SWAP2 SWAP1 POP JUMP JUMPDEST PUSH32 0x4F6E6C79206F776E657200000000000000000000000000000000000000000000 PUSH0 DUP3 ADD MSTORE POP JUMP JUMPDEST PUSH0 PUSH2 0x59D PUSH1 0xA DUP4 PUSH2 0x2AA JUMP JUMPDEST SWAP2 POP PUSH2 0x5A8 DUP3 PUSH2 0x569 JUMP JUMPDEST PUSH1 0x20 DUP3 ADD SWAP1 POP SWAP2 SWAP1 POP JUMP JUMPDEST PUSH0 PUSH1 0x20 DUP3 ADD SWAP1 POP DUP2 DUP2 SUB PUSH0 DUP4 ADD MSTORE PUSH2 0x5CA DUP2 PUSH2 0x591 JUMP JUMPDEST SWAP1 POP SWAP2 SWAP1 POP JUMP JUMPDEST PUSH0 DUP2 SWAP1 POP DUP2 PUSH0 MSTORE PUSH1 0x20 PUSH0 KECCAK256 SWAP1 POP SWAP2 SWAP1 POP JUMP JUMPDEST PUSH0 DUP2 SLOAD PUSH2 0x5EF DUP2 PUSH2 0x539 JUMP JUMPDEST PUSH2 0x5F9 DUP2 DUP7 PUSH2 0x2AA JUMP JUMPDEST SWAP5 POP PUSH1 0x1 DUP3 AND PUSH0 DUP2 EQ PUSH2 0x613 JUMPI PUSH1 0x1 DUP2 EQ PUSH2 0x629 JUMPI PUSH2 0x65B JUMP JUMPDEST PUSH1 0xFF NOT DUP4 AND DUP7 MSTORE DUP2 ISZERO ISZERO PUSH1 0x20 MUL DUP7 ADD SWAP4 POP PUSH2 0x65B JUMP JUMPDEST PUSH2 0x632 DUP6 PUSH2 0x5D1 JUMP JUMPDEST PUSH0 JUMPDEST DUP4 DUP2 LT ISZERO PUSH2 0x653 JUMPI DUP2 SLOAD DUP2 DUP10 ADD MSTORE PUSH1 0x1 DUP3 ADD SWAP2 POP PUSH1 0x20 DUP2 ADD SWAP1 POP PUSH2 0x634 JUMP JUMPDEST DUP1 DUP9 ADD SWAP6 POP POP POP JUMPDEST POP POP POP SWAP3 SWAP2 POP POP JUMP JUMPDEST PUSH0 PUSH1 0x40 DUP3 ADD SWAP1 POP DUP2 DUP2 SUB PUSH0 DUP4 ADD MSTORE PUSH2 0x67C DUP2 DUP6 PUSH2 0x5E3 JUMP JUMPDEST SWAP1 POP DUP2 DUP2 SUB PUSH1 0x20 DUP4 ADD MSTORE PUSH2 0x690 DUP2 DUP5 PUSH2 0x2D8 JUMP JUMPDEST SWAP1 POP SWAP4 SWAP3 POP POP POP JUMP JUMPDEST PUSH0 PUSH1 0x20 PUSH1 0x1F DUP4 ADD DIV SWAP1 POP SWAP2 SWAP1 POP JUMP JUMPDEST PUSH0 DUP3 DUP3 SHL SWAP1 POP SWAP3 SWAP2 POP POP JUMP JUMPDEST PUSH0 PUSH1 0x8 DUP4 MUL PUSH2 0x6E3 PUSH32 0xFFFFFFFFFFFFFFFFFFFFFFFFFFFFFFFFFFFFFFFFFFFFFFFFFFFFFFFFFFFFFFFF DUP3 PUSH2 0x6A8 JUMP JUMPDEST PUSH2 0x6ED DUP7 DUP4 PUSH2 0x6A8 JUMP JUMPDEST SWAP6 POP DUP1 NOT DUP5 AND SWAP4 POP DUP1 DUP7 AND DUP5 OR SWAP3 POP POP POP SWAP4 SWAP3 POP POP POP JUMP JUMPDEST PUSH0 DUP2 SWAP1 POP SWAP2 SWAP1 POP JUMP JUMPDEST PUSH0 PUSH2 0x728 PUSH2 0x723 PUSH2 0x71E DUP5 PUSH2 0x26F JUMP JUMPDEST PUSH2 0x705 JUMP JUMPDEST PUSH2 0x26F JUMP JUMPDEST SWAP1 POP SWAP2 SWAP1 POP JUMP JUMPDEST PUSH0 DUP2 SWAP1 POP SWAP2 SWAP1 POP JUMP JUMPDEST PUSH2 0x741 DUP4 PUSH2 0x70E JUMP JUMPDEST PUSH2 0x755 PUSH2 0x74D DUP3 PUSH2 0x72F JUMP JUMPDEST DUP5 DUP5 SLOAD PUSH2 0x6B4 JUMP JUMPDEST DUP3 SSTORE POP POP POP POP JUMP JUMPDEST PUSH0 PUSH0 SWAP1 POP SWAP1 JUMP JUMPDEST PUSH2 0x76C PUSH2 0x75D JUMP JUMPDEST PUSH2 0x777 DUP2 DUP5 DUP5 PUSH2 0x738 JUMP JUMPDEST POP POP POP JUMP JUMPDEST JUMPDEST DUP2 DUP2 LT ISZERO PUSH2 0x79A JUMPI PUSH2 0x78F PUSH0 DUP3 PUSH2 0x764 JUMP JUMPDEST PUSH1 0x1 DUP2 ADD SWAP1 POP PUSH2 0x77D JUMP JUMPDEST POP POP JUMP JUMPDEST PUSH1 0x1F DUP3 GT ISZERO PUSH2 0x7DF JUMPI PUSH2 0x7B0 DUP2 PUSH2 0x5D1 JUMP JUMPDEST PUSH2 0x7B9 DUP5 PUSH2 0x699 JUMP JUMPDEST DUP2 ADD PUSH1 0x20 DUP6 LT ISZERO PUSH2 0x7C8 JUMPI DUP2 SWAP1 POP JUMPDEST PUSH2 0x7DC PUSH2 0x7D4 DUP6 PUSH2 0x699 JUMP JUMPDEST DUP4 ADD DUP3 PUSH2 0x77C JUMP JUMPDEST POP POP JUMPDEST POP POP POP JUMP JUMPDEST PUSH0 DUP3 DUP3 SHR SWAP1 POP SWAP3 SWAP2 POP POP JUMP JUMPDEST PUSH0 PUSH2 0x7FF PUSH0 NOT DUP5 PUSH1 0x8 MUL PUSH2 0x7E4 JUMP JUMPDEST NOT DUP1 DUP4 AND SWAP2 POP POP SWAP3 SWAP2 POP POP JUMP JUMPDEST PUSH0 PUSH2 0x817 DUP4 DUP4 PUSH2 0x7F0 JUMP JUMPDEST SWAP2 POP DUP3 PUSH1 0x2 MUL DUP3 OR SWAP1 POP SWAP3 SWAP2 POP POP JUMP JUMPDEST PUSH2 0x830 DUP3 PUSH2 0x2A0 JUMP JUMPDEST PUSH8 0xFFFFFFFFFFFFFFFF DUP2 GT ISZERO PUSH2 0x849 JUMPI PUSH2 0x848 PUSH2 0x3A1 JUMP JUMPDEST JUMPDEST PUSH2 0x853 DUP3 SLOAD PUSH2 0x539 JUMP JUMPDEST PUSH2 0x85E DUP3 DUP3 DUP6 PUSH2 0x79E JUMP JUMPDEST PUSH0 PUSH1 0x20 SWAP1 POP PUSH1 0x1F DUP4 GT PUSH1 0x1 DUP2 EQ PUSH2 0x88F JUMPI PUSH0 DUP5 ISZERO PUSH2 0x87D JUMPI DUP3 DUP8 ADD MLOAD SWAP1 POP JUMPDEST PUSH2 0x887 DUP6 DUP3 PUSH2 0x80C JUMP JUMPDEST DUP7 SSTORE POP PUSH2 0x8EE JUMP JUMPDEST PUSH1 0x1F NOT DUP5 AND PUSH2 0x89D DUP7 PUSH2 0x5D1 JUMP JUMPDEST PUSH0 JUMPDEST DUP3 DUP2 LT ISZERO PUSH2 0x8C4 JUMPI DUP5 DUP10 ADD MLOAD DUP3 SSTORE PUSH1 0x1 DUP3 ADD SWAP2 POP PUSH1 0x20 DUP6 ADD SWAP5 POP PUSH1 0x20 DUP2 ADD SWAP1 POP PUSH2 0x89F JUMP JUMPDEST DUP7 DUP4 LT ISZERO PUSH2 0x8E1 JUMPI DUP5 DUP10 ADD MLOAD PUSH2 0x8DD PUSH1 0x1F DUP10 AND DUP3 PUSH2 0x7F0 JUMP JUMPDEST DUP4 SSTORE POP JUMPDEST PUSH1 0x1 PUSH1 0x2 DUP9 MUL ADD DUP9 SSTORE POP POP POP JUMPDEST POP POP POP POP POP POP JUMP JUMPDEST PUSH32 0x4E487B7100000000000000000000000000000000000000000000000000000000 PUSH0 MSTORE PUSH1 0x11 PUSH1 0x4 MSTORE PUSH1 0x24 PUSH0 REVERT JUMPDEST PUSH0 PUSH2 0x92D DUP3 PUSH2 0x26F JUMP JUMPDEST SWAP2 POP PUSH32 0xFFFFFFFFFFFFFFFFFFFFFFFFFFFFFFFFFFFFFFFFFFFFFFFFFFFFFFFFFFFFFFFF DUP3 SUB PUSH2 0x95F JUMPI PUSH2 0x95E PUSH2 0x8F6 JUMP JUMPDEST JUMPDEST PUSH1 0x1 DUP3 ADD SWAP1 POP SWAP2 SWAP1 POP JUMP INVALID LOG2 PUSH5 0x6970667358 0x22 SLT KECCAK256 0xE7 0xD1 0xEE SIGNEXTEND 0xC6 RETURNDATASIZE DUP14 0xF SLT 0x2E 0xAB XOR PUSH21 0x96467786DC09AC9F999C9FAF421433D5F9C22D6473 PUSH16 0x6C634300081C00330000000000000000 "
		},
		"gasEstimates": {
			"creation": {
				"codeDepositCost": "492800",
				"executionCost": "infinite",
				"totalCost": "infinite"
			},
			"external": {
				"countChanges()": "2403",
				"getInfo()": "infinite",
				"owner()": "2530",
				"setInfo(string)": "infinite"
			}
		},
		"methodIdentifiers": {
			"countChanges()": "2af2bc27",
			"getInfo()": "5a9b0b89",
			"owner()": "8da5cb5b",
			"setInfo(string)": "937f6e77"
		}
	},
	"abi": [
		{
			"inputs": [],
			"stateMutability": "nonpayable",
			"type": "constructor"
		},
		{
			"anonymous": false,
			"inputs": [
				{
					"indexed": false,
					"internalType": "string",
					"name": "oldInfo",
					"type": "string"
				},
				{
					"indexed": false,
					"internalType": "string",
					"name": "newInfo",
					"type": "string"
				}
			],
			"name": "InfoChange",
			"type": "event"
		},
		{
			"inputs": [],
			"name": "countChanges",
			"outputs": [
				{
					"internalType": "uint256",
					"name": "",
					"type": "uint256"
				}
			],
			"stateMutability": "view",
			"type": "function"
		},
		{
			"inputs": [],
			"name": "getInfo",
			"outputs": [
				{
					"internalType": "string",
					"name": "",
					"type": "string"
				}
			],
			"stateMutability": "view",
			"type": "function"
		},
		{
			"inputs": [],
			"name": "owner",
			"outputs": [
				{
					"internalType": "address",
					"name": "",
					"type": "address"
				}
			],
			"stateMutability": "view",
			"type": "function"
		},
		{
			"inputs": [
				{
					"internalType": "string",
					"name": "myInfo",
					"type": "string"
				}
			],
			"name": "setInfo",
			"outputs": [],
			"stateMutability": "nonpayable",
			"type": "function"
		}
	]
}