{
	"data": {
		"bytecode": {
			"linkReferences": {},
			"object": "608060405234801561000f575f5ffd5b505f8060018154018082558091505060019003905f5260205f20015f6040518060400160405280601181526020017f496e666f2031206f6e20696e64657820300000000000000000000000000000008152509091909150908161007291906103de565b505f8060018154018082558091505060019003905f5260205f20015f6040518060400160405280601181526020017f496e666f2032206f6e20696e6465782031000000000000000000000000000000815250909190915090816100d591906103de565b505f8060018154018082558091505060019003905f5260205f20015f6040518060400160405280601181526020017f496e666f2033206f6e20696e64657820320000000000000000000000000000008152509091909150908161013891906103de565b505f8060018154018082558091505060019003905f5260205f20015f6040518060400160405280601181526020017f496e666f2034206f6e20696e64657820330000000000000000000000000000008152509091909150908161019b91906103de565b506104ad565b5f81519050919050565b7f4e487b71000000000000000000000000000000000000000000000000000000005f52604160045260245ffd5b7f4e487b71000000000000000000000000000000000000000000000000000000005f52602260045260245ffd5b5f600282049050600182168061021c57607f821691505b60208210810361022f5761022e6101d8565b5b50919050565b5f819050815f5260205f209050919050565b5f6020601f8301049050919050565b5f82821b905092915050565b5f600883026102917fffffffffffffffffffffffffffffffffffffffffffffffffffffffffffffffff82610256565b61029b8683610256565b95508019841693508086168417925050509392505050565b5f819050919050565b5f819050919050565b5f6102df6102da6102d5846102b3565b6102bc565b6102b3565b9050919050565b5f819050919050565b6102f8836102c5565b61030c610304826102e6565b848454610262565b825550505050565b5f5f905090565b610323610314565b61032e8184846102ef565b505050565b5b81811015610351576103465f8261031b565b600181019050610334565b5050565b601f8211156103965761036781610235565b61037084610247565b8101602085101561037f578190505b61039361038b85610247565b830182610333565b50505b505050565b5f82821c905092915050565b5f6103b65f198460080261039b565b1980831691505092915050565b5f6103ce83836103a7565b9150826002028217905092915050565b6103e7826101a1565b67ffffffffffffffff811115610400576103ff6101ab565b5b61040a8254610205565b610415828285610355565b5f60209050601f831160018114610446575f8415610434578287015190505b61043e85826103c3565b8655506104a5565b601f19841661045486610235565b5f5b8281101561047b57848901518255600182019150602085019450602081019050610456565b868310156104985784890151610494601f8916826103a7565b8355505b6001600288020188555050505b505050505050565b610da7806104ba5f395ff3fe608060405234801561000f575f5ffd5b5060043610610055575f3560e01c80630bf803e41461005957806350c001971461008957806394b1a5bc146100a55780639c2955a2146100d5578063edc2784e14610105575b5f5ffd5b610073600480360381019061006e919061060d565b610123565b604051610080919061066c565b60405180910390f35b6100a3600480360381019061009e91906106af565b61016d565b005b6100bf60048036038101906100ba9190610709565b6101e0565b6040516100cc9190610794565b60405180910390f35b6100ef60048036038101906100ea91906107b4565b6102d1565b6040516100fc91906108f5565b60405180910390f35b61010d61049f565b60405161011a91906108f5565b60405180910390f35b5f5f82908060018154018082558091505060019003905f5260205f20015f9091909190915090816101549190610b12565b5060015f805490506101669190610c0e565b9050919050565b5f8054905082106101b3576040517f08c379a00000000000000000000000000000000000000000000000000000000081526004016101aa90610c8b565b60405180910390fd5b805f83815481106101c7576101c6610ca9565b5b905f5260205f200190816101db9190610b12565b505050565b60605f805490508210610228576040517f08c379a000000000000000000000000000000000000000000000000000000000815260040161021f90610c8b565b60405180910390fd5b5f828154811061023b5761023a610ca9565b5b905f5260205f2001805461024e90610942565b80601f016020809104026020016040519081016040528092919081815260200182805461027a90610942565b80156102c55780601f1061029c576101008083540402835291602001916102c5565b820191905f5260205f20905b8154815290600101906020018083116102a857829003601f168201915b50505050509050919050565b60605f805490508211156102f35760015f805490506102f09190610c0e565b91505b81831115610336576040517f08c379a000000000000000000000000000000000000000000000000000000000815260040161032d90610d20565b60405180910390fd5b5f600184846103459190610c0e565b61034f9190610d3e565b90505f8167ffffffffffffffff81111561036c5761036b6104e9565b5b60405190808252806020026020018201604052801561039f57816020015b606081526020019060019003908161038a5790505b5090505f8590505b6001856103b49190610d3e565b811015610493575f81815481106103ce576103cd610ca9565b5b905f5260205f200180546103e190610942565b80601f016020809104026020016040519081016040528092919081815260200182805461040d90610942565b80156104585780601f1061042f57610100808354040283529160200191610458565b820191905f5260205f20905b81548152906001019060200180831161043b57829003601f168201915b505050505082878361046a9190610c0e565b8151811061047b5761047a610ca9565b5b602002602001018190525080806001019150506103a7565b50809250505092915050565b60606104bb5f60015f805490506104b69190610c0e565b6102d1565b905090565b5f604051905090565b5f5ffd5b5f5ffd5b5f5ffd5b5f5ffd5b5f601f19601f8301169050919050565b7f4e487b71000000000000000000000000000000000000000000000000000000005f52604160045260245ffd5b61051f826104d9565b810181811067ffffffffffffffff8211171561053e5761053d6104e9565b5b80604052505050565b5f6105506104c0565b905061055c8282610516565b919050565b5f67ffffffffffffffff82111561057b5761057a6104e9565b5b610584826104d9565b9050602081019050919050565b828183375f83830152505050565b5f6105b16105ac84610561565b610547565b9050828152602081018484840111156105cd576105cc6104d5565b5b6105d8848285610591565b509392505050565b5f82601f8301126105f4576105f36104d1565b5b813561060484826020860161059f565b91505092915050565b5f60208284031215610622576106216104c9565b5b5f82013567ffffffffffffffff81111561063f5761063e6104cd565b5b61064b848285016105e0565b91505092915050565b5f819050919050565b61066681610654565b82525050565b5f60208201905061067f5f83018461065d565b92915050565b61068e81610654565b8114610698575f5ffd5b50565b5f813590506106a981610685565b92915050565b5f5f604083850312156106c5576106c46104c9565b5b5f6106d28582860161069b565b925050602083013567ffffffffffffffff8111156106f3576106f26104cd565b5b6106ff858286016105e0565b9150509250929050565b5f6020828403121561071e5761071d6104c9565b5b5f61072b8482850161069b565b91505092915050565b5f81519050919050565b5f82825260208201905092915050565b8281835e5f83830152505050565b5f61076682610734565b610770818561073e565b935061078081856020860161074e565b610789816104d9565b840191505092915050565b5f6020820190508181035f8301526107ac818461075c565b905092915050565b5f5f604083850312156107ca576107c96104c9565b5b5f6107d78582860161069b565b92505060206107e88582860161069b565b9150509250929050565b5f81519050919050565b5f82825260208201905092915050565b5f819050602082019050919050565b5f82825260208201905092915050565b5f61083582610734565b61083f818561081b565b935061084f81856020860161074e565b610858816104d9565b840191505092915050565b5f61086e838361082b565b905092915050565b5f602082019050919050565b5f61088c826107f2565b61089681856107fc565b9350836020820285016108a88561080c565b805f5b858110156108e357848403895281516108c48582610863565b94506108cf83610876565b925060208a019950506001810190506108ab565b50829750879550505050505092915050565b5f6020820190508181035f83015261090d8184610882565b905092915050565b7f4e487b71000000000000000000000000000000000000000000000000000000005f52602260045260245ffd5b5f600282049050600182168061095957607f821691505b60208210810361096c5761096b610915565b5b50919050565b5f819050815f5260205f209050919050565b5f6020601f8301049050919050565b5f82821b905092915050565b5f600883026109ce7fffffffffffffffffffffffffffffffffffffffffffffffffffffffffffffffff82610993565b6109d88683610993565b95508019841693508086168417925050509392505050565b5f819050919050565b5f610a13610a0e610a0984610654565b6109f0565b610654565b9050919050565b5f819050919050565b610a2c836109f9565b610a40610a3882610a1a565b84845461099f565b825550505050565b5f5f905090565b610a57610a48565b610a62818484610a23565b505050565b5b81811015610a8557610a7a5f82610a4f565b600181019050610a68565b5050565b601f821115610aca57610a9b81610972565b610aa484610984565b81016020851015610ab3578190505b610ac7610abf85610984565b830182610a67565b50505b505050565b5f82821c905092915050565b5f610aea5f1984600802610acf565b1980831691505092915050565b5f610b028383610adb565b9150826002028217905092915050565b610b1b82610734565b67ffffffffffffffff811115610b3457610b336104e9565b5b610b3e8254610942565b610b49828285610a89565b5f60209050601f831160018114610b7a575f8415610b68578287015190505b610b728582610af7565b865550610bd9565b601f198416610b8886610972565b5f5b82811015610baf57848901518255600182019150602085019450602081019050610b8a565b86831015610bcc5784890151610bc8601f891682610adb565b8355505b6001600288020188555050505b505050505050565b7f4e487b71000000000000000000000000000000000000000000000000000000005f52601160045260245ffd5b5f610c1882610654565b9150610c2383610654565b9250828203905081811115610c3b57610c3a610be1565b5b92915050565b7f696e76616c696420696e646578000000000000000000000000000000000000005f82015250565b5f610c75600d8361073e565b9150610c8082610c41565b602082019050919050565b5f6020820190508181035f830152610ca281610c69565b9050919050565b7f4e487b71000000000000000000000000000000000000000000000000000000005f52603260045260245ffd5b7f7374617274206d757374203c3d20656e640000000000000000000000000000005f82015250565b5f610d0a60118361073e565b9150610d1582610cd6565b602082019050919050565b5f6020820190508181035f830152610d3781610cfe565b9050919050565b5f610d4882610654565b9150610d5383610654565b9250828201905080821115610d6b57610d6a610be1565b5b9291505056fea26469706673582212204c86174696ae22808fe64d2d802177735fc75e7c408b5a7d52713649815ba0e264736f6c634300081c0033",
			"opcodes": "PUSH1 0x80 PUSH1 0x40 MSTORE CALLVALUE DUP1 ISZERO PUSH2 0xF JUMPI PUSH0 PUSH0 REVERT JUMPDEST POP PUSH0 DUP1 PUSH1 0x1 DUP2 SLOAD ADD DUP1 DUP3 SSTORE DUP1 SWAP2 POP POP PUSH1 0x1 SWAP1 SUB SWAP1 PUSH0 MSTORE PUSH1 0x20 PUSH0 KECCAK256 ADD PUSH0 PUSH1 0x40 MLOAD DUP1 PUSH1 0x40 ADD PUSH1 0x40 MSTORE DUP1 PUSH1 0x11 DUP2 MSTORE PUSH1 0x20 ADD PUSH32 0x496E666F2031206F6E20696E6465782030000000000000000000000000000000 DUP2 MSTORE POP SWAP1 SWAP2 SWAP1 SWAP2 POP SWAP1 DUP2 PUSH2 0x72 SWAP2 SWAP1 PUSH2 0x3DE JUMP JUMPDEST POP PUSH0 DUP1 PUSH1 0x1 DUP2 SLOAD ADD DUP1 DUP3 SSTORE DUP1 SWAP2 POP POP PUSH1 0x1 SWAP1 SUB SWAP1 PUSH0 MSTORE PUSH1 0x20 PUSH0 KECCAK256 ADD PUSH0 PUSH1 0x40 MLOAD DUP1 PUSH1 0x40 ADD PUSH1 0x40 MSTORE DUP1 PUSH1 0x11 DUP2 MSTORE PUSH1 0x20 ADD PUSH32 0x496E666F2032206F6E20696E6465782031000000000000000000000000000000 DUP2 MSTORE POP SWAP1 SWAP2 SWAP1 SWAP2 POP SWAP1 DUP2 PUSH2 0xD5 SWAP2 SWAP1 PUSH2 0x3DE JUMP JUMPDEST POP PUSH0 DUP1 PUSH1 0x1 DUP2 SLOAD ADD DUP1 DUP3 SSTORE DUP1 SWAP2 POP POP PUSH1 0x1 SWAP1 SUB SWAP1 PUSH0 MSTORE PUSH1 0x20 PUSH0 KECCAK256 ADD PUSH0 PUSH1 0x40 MLOAD DUP1 PUSH1 0x40 ADD PUSH1 0x40 MSTORE DUP1 PUSH1 0x11 DUP2 MSTORE PUSH1 0x20 ADD PUSH32 0x496E666F2033206F6E20696E6465782032000000000000000000000000000000 DUP2 MSTORE POP SWAP1 SWAP2 SWAP1 SWAP2 POP SWAP1 DUP2 PUSH2 0x138 SWAP2 SWAP1 PUSH2 0x3DE JUMP JUMPDEST POP PUSH0 DUP1 PUSH1 0x1 DUP2 SLOAD ADD DUP1 DUP3 SSTORE DUP1 SWAP2 POP POP PUSH1 0x1 SWAP1 SUB SWAP1 PUSH0 MSTORE PUSH1 0x20 PUSH0 KECCAK256 ADD PUSH0 PUSH1 0x40 MLOAD DUP1 PUSH1 0x40 ADD PUSH1 0x40 MSTORE DUP1 PUSH1 0x11 DUP2 MSTORE PUSH1 0x20 ADD PUSH32 0x496E666F2034206F6E20696E6465782033000000000000000000000000000000 DUP2 MSTORE POP SWAP1 SWAP2 SWAP1 SWAP2 POP SWAP1 DUP2 PUSH2 0x19B SWAP2 SWAP1 PUSH2 0x3DE JUMP JUMPDEST POP PUSH2 0x4AD JUMP JUMPDEST PUSH0 DUP2 MLOAD SWAP1 POP SWAP2 SWAP1 POP JUMP JUMPDEST PUSH32 0x4E487B7100000000000000000000000000000000000000000000000000000000 PUSH0 MSTORE PUSH1 0x41 PUSH1 0x4 MSTORE PUSH1 0x24 PUSH0 REVERT JUMPDEST PUSH32 0x4E487B7100000000000000000000000000000000000000000000000000000000 PUSH0 MSTORE PUSH1 0x22 PUSH1 0x4 MSTORE PUSH1 0x24 PUSH0 REVERT JUMPDEST PUSH0 PUSH1 0x2 DUP3 DIV SWAP1 POP PUSH1 0x1 DUP3 AND DUP1 PUSH2 0x21C JUMPI PUSH1 0x7F DUP3 AND SWAP2 POP JUMPDEST PUSH1 0x20 DUP3 LT DUP2 SUB PUSH2 0x22F JUMPI PUSH2 0x22E PUSH2 0x1D8 JUMP JUMPDEST JUMPDEST POP SWAP2 SWAP1 POP JUMP JUMPDEST PUSH0 DUP2 SWAP1 POP DUP2 PUSH0 MSTORE PUSH1 0x20 PUSH0 KECCAK256 SWAP1 POP SWAP2 SWAP1 POP JUMP JUMPDEST PUSH0 PUSH1 0x20 PUSH1 0x1F DUP4 ADD DIV SWAP1 POP SWAP2 SWAP1 POP JUMP JUMPDEST PUSH0 DUP3 DUP3 SHL SWAP1 POP SWAP3 SWAP2 POP POP JUMP JUMPDEST PUSH0 PUSH1 0x8 DUP4 MUL PUSH2 0x291 PUSH32 0xFFFFFFFFFFFFFFFFFFFFFFFFFFFFFFFFFFFFFFFFFFFFFFFFFFFFFFFFFFFFFFFF DUP3 PUSH2 0x256 JUMP JUMPDEST PUSH2 0x29B DUP7 DUP4 PUSH2 0x256 JUMP JUMPDEST SWAP6 POP DUP1 NOT DUP5 AND SWAP4 POP DUP1 DUP7 AND DUP5 OR SWAP3 POP POP POP SWAP4 SWAP3 POP POP POP JUMP JUMPDEST PUSH0 DUP2 SWAP1 POP SWAP2 SWAP1 POP JUMP JUMPDEST PUSH0 DUP2 SWAP1 POP SWAP2 SWAP1 POP JUMP JUMPDEST PUSH0 PUSH2 0x2DF PUSH2 0x2DA PUSH2 0x2D5 DUP5 PUSH2 0x2B3 JUMP JUMPDEST PUSH2 0x2BC JUMP JUMPDEST PUSH2 0x2B3 JUMP JUMPDEST SWAP1 POP SWAP2 SWAP1 POP JUMP JUMPDEST PUSH0 DUP2 SWAP1 POP SWAP2 SWAP1 POP JUMP JUMPDEST PUSH2 0x2F8 DUP4 PUSH2 0x2C5 JUMP JUMPDEST PUSH2 0x30C PUSH2 0x304 DUP3 PUSH2 0x2E6 JUMP JUMPDEST DUP5 DUP5 SLOAD PUSH2 0x262 JUMP JUMPDEST DUP3 SSTORE POP POP POP POP JUMP JUMPDEST PUSH0 PUSH0 SWAP1 POP SWAP1 JUMP JUMPDEST PUSH2 0x323 PUSH2 0x314 JUMP JUMPDEST PUSH2 0x32E DUP2 DUP5 DUP5 PUSH2 0x2EF JUMP JUMPDEST POP POP POP JUMP JUMPDEST JUMPDEST DUP2 DUP2 LT ISZERO PUSH2 0x351 JUMPI PUSH2 0x346 PUSH0 DUP3 PUSH2 0x31B JUMP JUMPDEST PUSH1 0x1 DUP2 ADD SWAP1 POP PUSH2 0x334 JUMP JUMPDEST POP POP JUMP JUMPDEST PUSH1 0x1F DUP3 GT ISZERO PUSH2 0x396 JUMPI PUSH2 0x367 DUP2 PUSH2 0x235 JUMP JUMPDEST PUSH2 0x370 DUP5 PUSH2 0x247 JUMP JUMPDEST DUP2 ADD PUSH1 0x20 DUP6 LT ISZERO PUSH2 0x37F JUMPI DUP2 SWAP1 POP JUMPDEST PUSH2 0x393 PUSH2 0x38B DUP6 PUSH2 0x247 JUMP JUMPDEST DUP4 ADD DUP3 PUSH2 0x333 JUMP JUMPDEST POP POP JUMPDEST POP POP POP JUMP JUMPDEST PUSH0 DUP3 DUP3 SHR SWAP1 POP SWAP3 SWAP2 POP POP JUMP JUMPDEST PUSH0 PUSH2 0x3B6 PUSH0 NOT DUP5 PUSH1 0x8 MUL PUSH2 0x39B JUMP JUMPDEST NOT DUP1 DUP4 AND SWAP2 POP POP SWAP3 SWAP2 POP POP JUMP JUMPDEST PUSH0 PUSH2 0x3CE DUP4 DUP4 PUSH2 0x3A7 JUMP JUMPDEST SWAP2 POP DUP3 PUSH1 0x2 MUL DUP3 OR SWAP1 POP SWAP3 SWAP2 POP POP JUMP JUMPDEST PUSH2 0x3E7 DUP3 PUSH2 0x1A1 JUMP JUMPDEST PUSH8 0xFFFFFFFFFFFFFFFF DUP2 GT ISZERO PUSH2 0x400 JUMPI PUSH2 0x3FF PUSH2 0x1AB JUMP JUMPDEST JUMPDEST PUSH2 0x40A DUP3 SLOAD PUSH2 0x205 JUMP JUMPDEST PUSH2 0x415 DUP3 DUP3 DUP6 PUSH2 0x355 JUMP JUMPDEST PUSH0 PUSH1 0x20 SWAP1 POP PUSH1 0x1F DUP4 GT PUSH1 0x1 DUP2 EQ PUSH2 0x446 JUMPI PUSH0 DUP5 ISZERO PUSH2 0x434 JUMPI DUP3 DUP8 ADD MLOAD SWAP1 POP JUMPDEST PUSH2 0x43E DUP6 DUP3 PUSH2 0x3C3 JUMP JUMPDEST DUP7 SSTORE POP PUSH2 0x4A5 JUMP JUMPDEST PUSH1 0x1F NOT DUP5 AND PUSH2 0x454 DUP7 PUSH2 0x235 JUMP JUMPDEST PUSH0 JUMPDEST DUP3 DUP2 LT ISZERO PUSH2 0x47B JUMPI DUP5 DUP10 ADD MLOAD DUP3 SSTORE PUSH1 0x1 DUP3 ADD SWAP2 POP PUSH1 0x20 DUP6 ADD SWAP5 POP PUSH1 0x20 DUP2 ADD SWAP1 POP PUSH2 0x456 JUMP JUMPDEST DUP7 DUP4 LT ISZERO PUSH2 0x498 JUMPI DUP5 DUP10 ADD MLOAD PUSH2 0x494 PUSH1 0x1F DUP10 AND DUP3 PUSH2 0x3A7 JUMP JUMPDEST DUP4 SSTORE POP JUMPDEST PUSH1 0x1 PUSH1 0x2 DUP9 MUL ADD DUP9 SSTORE POP POP POP JUMPDEST POP POP POP POP POP POP JUMP JUMPDEST PUSH2 0xDA7 DUP1 PUSH2 0x4BA PUSH0 CODECOPY PUSH0 RETURN INVALID PUSH1 0x80 PUSH1 0x40 MSTORE CALLVALUE DUP1 ISZERO PUSH2 0xF JUMPI PUSH0 PUSH0 REVERT JUMPDEST POP PUSH1 0x4 CALLDATASIZE LT PUSH2 0x55 JUMPI PUSH0 CALLDATALOAD PUSH1 0xE0 SHR DUP1 PUSH4 0xBF803E4 EQ PUSH2 0x59 JUMPI DUP1 PUSH4 0x50C00197 EQ PUSH2 0x89 JUMPI DUP1 PUSH4 0x94B1A5BC EQ PUSH2 0xA5 JUMPI DUP1 PUSH4 0x9C2955A2 EQ PUSH2 0xD5 JUMPI DUP1 PUSH4 0xEDC2784E EQ PUSH2 0x105 JUMPI JUMPDEST PUSH0 PUSH0 REVERT JUMPDEST PUSH2 0x73 PUSH1 0x4 DUP1 CALLDATASIZE SUB DUP2 ADD SWAP1 PUSH2 0x6E SWAP2 SWAP1 PUSH2 0x60D JUMP JUMPDEST PUSH2 0x123 JUMP JUMPDEST PUSH1 0x40 MLOAD PUSH2 0x80 SWAP2 SWAP1 PUSH2 0x66C JUMP JUMPDEST PUSH1 0x40 MLOAD DUP1 SWAP2 SUB SWAP1 RETURN JUMPDEST PUSH2 0xA3 PUSH1 0x4 DUP1 CALLDATASIZE SUB DUP2 ADD SWAP1 PUSH2 0x9E SWAP2 SWAP1 PUSH2 0x6AF JUMP JUMPDEST PUSH2 0x16D JUMP JUMPDEST STOP JUMPDEST PUSH2 0xBF PUSH1 0x4 DUP1 CALLDATASIZE SUB DUP2 ADD SWAP1 PUSH2 0xBA SWAP2 SWAP1 PUSH2 0x709 JUMP JUMPDEST PUSH2 0x1E0 JUMP JUMPDEST PUSH1 0x40 MLOAD PUSH2 0xCC SWAP2 SWAP1 PUSH2 0x794 JUMP JUMPDEST PUSH1 0x40 MLOAD DUP1 SWAP2 SUB SWAP1 RETURN JUMPDEST PUSH2 0xEF PUSH1 0x4 DUP1 CALLDATASIZE SUB DUP2 ADD SWAP1 PUSH2 0xEA SWAP2 SWAP1 PUSH2 0x7B4 JUMP JUMPDEST PUSH2 0x2D1 JUMP JUMPDEST PUSH1 0x40 MLOAD PUSH2 0xFC SWAP2 SWAP1 PUSH2 0x8F5 JUMP JUMPDEST PUSH1 0x40 MLOAD DUP1 SWAP2 SUB SWAP1 RETURN JUMPDEST PUSH2 0x10D PUSH2 0x49F JUMP JUMPDEST PUSH1 0x40 MLOAD PUSH2 0x11A SWAP2 SWAP1 PUSH2 0x8F5 JUMP JUMPDEST PUSH1 0x40 MLOAD DUP1 SWAP2 SUB SWAP1 RETURN JUMPDEST PUSH0 PUSH0 DUP3 SWAP1 DUP1 PUSH1 0x1 DUP2 SLOAD ADD DUP1 DUP3 SSTORE DUP1 SWAP2 POP POP PUSH1 0x1 SWAP1 SUB SWAP1 PUSH0 MSTORE PUSH1 0x20 PUSH0 KECCAK256 ADD PUSH0 SWAP1 SWAP2 SWAP1 SWAP2 SWAP1 SWAP2 POP SWAP1 DUP2 PUSH2 0x154 SWAP2 SWAP1 PUSH2 0xB12 JUMP JUMPDEST POP PUSH1 0x1 PUSH0 DUP1 SLOAD SWAP1 POP PUSH2 0x166 SWAP2 SWAP1 PUSH2 0xC0E JUMP JUMPDEST SWAP1 POP SWAP2 SWAP1 POP JUMP JUMPDEST PUSH0 DUP1 SLOAD SWAP1 POP DUP3 LT PUSH2 0x1B3 JUMPI PUSH1 0x40 MLOAD PUSH32 0x8C379A000000000000000000000000000000000000000000000000000000000 DUP2 MSTORE PUSH1 0x4 ADD PUSH2 0x1AA SWAP1 PUSH2 0xC8B JUMP JUMPDEST PUSH1 0x40 MLOAD DUP1 SWAP2 SUB SWAP1 REVERT JUMPDEST DUP1 PUSH0 DUP4 DUP2 SLOAD DUP2 LT PUSH2 0x1C7 JUMPI PUSH2 0x1C6 PUSH2 0xCA9 JUMP JUMPDEST JUMPDEST SWAP1 PUSH0 MSTORE PUSH1 0x20 PUSH0 KECCAK256 ADD SWAP1 DUP2 PUSH2 0x1DB SWAP2 SWAP1 PUSH2 0xB12 JUMP JUMPDEST POP POP POP JUMP JUMPDEST PUSH1 0x60 PUSH0 DUP1 SLOAD SWAP1 POP DUP3 LT PUSH2 0x228 JUMPI PUSH1 0x40 MLOAD PUSH32 0x8C379A000000000000000000000000000000000000000000000000000000000 DUP2 MSTORE PUSH1 0x4 ADD PUSH2 0x21F SWAP1 PUSH2 0xC8B JUMP JUMPDEST PUSH1 0x40 MLOAD DUP1 SWAP2 SUB SWAP1 REVERT JUMPDEST PUSH0 DUP3 DUP2 SLOAD DUP2 LT PUSH2 0x23B JUMPI PUSH2 0x23A PUSH2 0xCA9 JUMP JUMPDEST JUMPDEST SWAP1 PUSH0 MSTORE PUSH1 0x20 PUSH0 KECCAK256 ADD DUP1 SLOAD PUSH2 0x24E SWAP1 PUSH2 0x942 JUMP JUMPDEST DUP1 PUSH1 0x1F ADD PUSH1 0x20 DUP1 SWAP2 DIV MUL PUSH1 0x20 ADD PUSH1 0x40 MLOAD SWAP1 DUP2 ADD PUSH1 0x40 MSTORE DUP1 SWAP3 SWAP2 SWAP1 DUP2 DUP2 MSTORE PUSH1 0x20 ADD DUP3 DUP1 SLOAD PUSH2 0x27A SWAP1 PUSH2 0x942 JUMP JUMPDEST DUP1 ISZERO PUSH2 0x2C5 JUMPI DUP1 PUSH1 0x1F LT PUSH2 0x29C JUMPI PUSH2 0x100 DUP1 DUP4 SLOAD DIV MUL DUP4 MSTORE SWAP2 PUSH1 0x20 ADD SWAP2 PUSH2 0x2C5 JUMP JUMPDEST DUP3 ADD SWAP2 SWAP1 PUSH0 MSTORE PUSH1 0x20 PUSH0 KECCAK256 SWAP1 JUMPDEST DUP2 SLOAD DUP2 MSTORE SWAP1 PUSH1 0x1 ADD SWAP1 PUSH1 0x20 ADD DUP1 DUP4 GT PUSH2 0x2A8 JUMPI DUP3 SWAP1 SUB PUSH1 0x1F AND DUP3 ADD SWAP2 JUMPDEST POP POP POP POP POP SWAP1 POP SWAP2 SWAP1 POP JUMP JUMPDEST PUSH1 0x60 PUSH0 DUP1 SLOAD SWAP1 POP DUP3 GT ISZERO PUSH2 0x2F3 JUMPI PUSH1 0x1 PUSH0 DUP1 SLOAD SWAP1 POP PUSH2 0x2F0 SWAP2 SWAP1 PUSH2 0xC0E JUMP JUMPDEST SWAP2 POP JUMPDEST DUP2 DUP4 GT ISZERO PUSH2 0x336 JUMPI PUSH1 0x40 MLOAD PUSH32 0x8C379A000000000000000000000000000000000000000000000000000000000 DUP2 MSTORE PUSH1 0x4 ADD PUSH2 0x32D SWAP1 PUSH2 0xD20 JUMP JUMPDEST PUSH1 0x40 MLOAD DUP1 SWAP2 SUB SWAP1 REVERT JUMPDEST PUSH0 PUSH1 0x1 DUP5 DUP5 PUSH2 0x345 SWAP2 SWAP1 PUSH2 0xC0E JUMP JUMPDEST PUSH2 0x34F SWAP2 SWAP1 PUSH2 0xD3E JUMP JUMPDEST SWAP1 POP PUSH0 DUP2 PUSH8 0xFFFFFFFFFFFFFFFF DUP2 GT ISZERO PUSH2 0x36C JUMPI PUSH2 0x36B PUSH2 0x4E9 JUMP JUMPDEST JUMPDEST PUSH1 0x40 MLOAD SWAP1 DUP1 DUP3 MSTORE DUP1 PUSH1 0x20 MUL PUSH1 0x20 ADD DUP3 ADD PUSH1 0x40 MSTORE DUP1 ISZERO PUSH2 0x39F JUMPI DUP2 PUSH1 0x20 ADD JUMPDEST PUSH1 0x60 DUP2 MSTORE PUSH1 0x20 ADD SWAP1 PUSH1 0x1 SWAP1 SUB SWAP1 DUP2 PUSH2 0x38A JUMPI SWAP1 POP JUMPDEST POP SWAP1 POP PUSH0 DUP6 SWAP1 POP JUMPDEST PUSH1 0x1 DUP6 PUSH2 0x3B4 SWAP2 SWAP1 PUSH2 0xD3E JUMP JUMPDEST DUP2 LT ISZERO PUSH2 0x493 JUMPI PUSH0 DUP2 DUP2 SLOAD DUP2 LT PUSH2 0x3CE JUMPI PUSH2 0x3CD PUSH2 0xCA9 JUMP JUMPDEST JUMPDEST SWAP1 PUSH0 MSTORE PUSH1 0x20 PUSH0 KECCAK256 ADD DUP1 SLOAD PUSH2 0x3E1 SWAP1 PUSH2 0x942 JUMP JUMPDEST DUP1 PUSH1 0x1F ADD PUSH1 0x20 DUP1 SWAP2 DIV MUL PUSH1 0x20 ADD PUSH1 0x40 MLOAD SWAP1 DUP2 ADD PUSH1 0x40 MSTORE DUP1 SWAP3 SWAP2 SWAP1 DUP2 DUP2 MSTORE PUSH1 0x20 ADD DUP3 DUP1 SLOAD PUSH2 0x40D SWAP1 PUSH2 0x942 JUMP JUMPDEST DUP1 ISZERO PUSH2 0x458 JUMPI DUP1 PUSH1 0x1F LT PUSH2 0x42F JUMPI PUSH2 0x100 DUP1 DUP4 SLOAD DIV MUL DUP4 MSTORE SWAP2 PUSH1 0x20 ADD SWAP2 PUSH2 0x458 JUMP JUMPDEST DUP3 ADD SWAP2 SWAP1 PUSH0 MSTORE PUSH1 0x20 PUSH0 KECCAK256 SWAP1 JUMPDEST DUP2 SLOAD DUP2 MSTORE SWAP1 PUSH1 0x1 ADD SWAP1 PUSH1 0x20 ADD DUP1 DUP4 GT PUSH2 0x43B JUMPI DUP3 SWAP1 SUB PUSH1 0x1F AND DUP3 ADD SWAP2 JUMPDEST POP POP POP POP POP DUP3 DUP8 DUP4 PUSH2 0x46A SWAP2 SWAP1 PUSH2 0xC0E JUMP JUMPDEST DUP2 MLOAD DUP2 LT PUSH2 0x47B JUMPI PUSH2 0x47A PUSH2 0xCA9 JUMP JUMPDEST JUMPDEST PUSH1 0x20 MUL PUSH1 0x20 ADD ADD DUP2 SWAP1 MSTORE POP DUP1 DUP1 PUSH1 0x1 ADD SWAP2 POP POP PUSH2 0x3A7 JUMP JUMPDEST POP DUP1 SWAP3 POP POP POP SWAP3 SWAP2 POP POP JUMP JUMPDEST PUSH1 0x60 PUSH2 0x4BB PUSH0 PUSH1 0x1 PUSH0 DUP1 SLOAD SWAP1 POP PUSH2 0x4B6 SWAP2 SWAP1 PUSH2 0xC0E JUMP JUMPDEST PUSH2 0x2D1 JUMP JUMPDEST SWAP1 POP SWAP1 JUMP JUMPDEST PUSH0 PUSH1 0x40 MLOAD SWAP1 POP SWAP1 JUMP JUMPDEST PUSH0 PUSH0 REVERT JUMPDEST PUSH0 PUSH0 REVERT JUMPDEST PUSH0 PUSH0 REVERT JUMPDEST PUSH0 PUSH0 REVERT JUMPDEST PUSH0 PUSH1 0x1F NOT PUSH1 0x1F DUP4 ADD AND SWAP1 POP SWAP2 SWAP1 POP JUMP JUMPDEST PUSH32 0x4E487B7100000000000000000000000000000000000000000000000000000000 PUSH0 MSTORE PUSH1 0x41 PUSH1 0x4 MSTORE PUSH1 0x24 PUSH0 REVERT JUMPDEST PUSH2 0x51F DUP3 PUSH2 0x4D9 JUMP JUMPDEST DUP2 ADD DUP2 DUP2 LT PUSH8 0xFFFFFFFFFFFFFFFF DUP3 GT OR ISZERO PUSH2 0x53E JUMPI PUSH2 0x53D PUSH2 0x4E9 JUMP JUMPDEST JUMPDEST DUP1 PUSH1 0x40 MSTORE POP POP POP JUMP JUMPDEST PUSH0 PUSH2 0x550 PUSH2 0x4C0 JUMP JUMPDEST SWAP1 POP PUSH2 0x55C DUP3 DUP3 PUSH2 0x516 JUMP JUMPDEST SWAP2 SWAP1 POP JUMP JUMPDEST PUSH0 PUSH8 0xFFFFFFFFFFFFFFFF DUP3 GT ISZERO PUSH2 0x57B JUMPI PUSH2 0x57A PUSH2 0x4E9 JUMP JUMPDEST JUMPDEST PUSH2 0x584 DUP3 PUSH2 0x4D9 JUMP JUMPDEST SWAP1 POP PUSH1 0x20 DUP2 ADD SWAP1 POP SWAP2 SWAP1 POP JUMP JUMPDEST DUP3 DUP2 DUP4 CALLDATACOPY PUSH0 DUP4 DUP4 ADD MSTORE POP POP POP JUMP JUMPDEST PUSH0 PUSH2 0x5B1 PUSH2 0x5AC DUP5 PUSH2 0x561 JUMP JUMPDEST PUSH2 0x547 JUMP JUMPDEST SWAP1 POP DUP3 DUP2 MSTORE PUSH1 0x20 DUP2 ADD DUP5 DUP5 DUP5 ADD GT ISZERO PUSH2 0x5CD JUMPI PUSH2 0x5CC PUSH2 0x4D5 JUMP JUMPDEST JUMPDEST PUSH2 0x5D8 DUP5 DUP3 DUP6 PUSH2 0x591 JUMP JUMPDEST POP SWAP4 SWAP3 POP POP POP JUMP JUMPDEST PUSH0 DUP3 PUSH1 0x1F DUP4 ADD SLT PUSH2 0x5F4 JUMPI PUSH2 0x5F3 PUSH2 0x4D1 JUMP JUMPDEST JUMPDEST DUP2 CALLDATALOAD PUSH2 0x604 DUP5 DUP3 PUSH1 0x20 DUP7 ADD PUSH2 0x59F JUMP JUMPDEST SWAP2 POP POP SWAP3 SWAP2 POP POP JUMP JUMPDEST PUSH0 PUSH1 0x20 DUP3 DUP5 SUB SLT ISZERO PUSH2 0x622 JUMPI PUSH2 0x621 PUSH2 0x4C9 JUMP JUMPDEST JUMPDEST PUSH0 DUP3 ADD CALLDATALOAD PUSH8 0xFFFFFFFFFFFFFFFF DUP2 GT ISZERO PUSH2 0x63F JUMPI PUSH2 0x63E PUSH2 0x4CD JUMP JUMPDEST JUMPDEST PUSH2 0x64B DUP5 DUP3 DUP6 ADD PUSH2 0x5E0 JUMP JUMPDEST SWAP2 POP POP SWAP3 SWAP2 POP POP JUMP JUMPDEST PUSH0 DUP2 SWAP1 POP SWAP2 SWAP1 POP JUMP JUMPDEST PUSH2 0x666 DUP2 PUSH2 0x654 JUMP JUMPDEST DUP3 MSTORE POP POP JUMP JUMPDEST PUSH0 PUSH1 0x20 DUP3 ADD SWAP1 POP PUSH2 0x67F PUSH0 DUP4 ADD DUP5 PUSH2 0x65D JUMP JUMPDEST SWAP3 SWAP2 POP POP JUMP JUMPDEST PUSH2 0x68E DUP2 PUSH2 0x654 JUMP JUMPDEST DUP2 EQ PUSH2 0x698 JUMPI PUSH0 PUSH0 REVERT JUMPDEST POP JUMP JUMPDEST PUSH0 DUP2 CALLDATALOAD SWAP1 POP PUSH2 0x6A9 DUP2 PUSH2 0x685 JUMP JUMPDEST SWAP3 SWAP2 POP POP JUMP JUMPDEST PUSH0 PUSH0 PUSH1 0x40 DUP4 DUP6 SUB SLT ISZERO PUSH2 0x6C5 JUMPI PUSH2 0x6C4 PUSH2 0x4C9 JUMP JUMPDEST JUMPDEST PUSH0 PUSH2 0x6D2 DUP6 DUP3 DUP7 ADD PUSH2 0x69B JUMP JUMPDEST SWAP3 POP POP PUSH1 0x20 DUP4 ADD CALLDATALOAD PUSH8 0xFFFFFFFFFFFFFFFF DUP2 GT ISZERO PUSH2 0x6F3 JUMPI PUSH2 0x6F2 PUSH2 0x4CD JUMP JUMPDEST JUMPDEST PUSH2 0x6FF DUP6 DUP3 DUP7 ADD PUSH2 0x5E0 JUMP JUMPDEST SWAP2 POP POP SWAP3 POP SWAP3 SWAP1 POP JUMP JUMPDEST PUSH0 PUSH1 0x20 DUP3 DUP5 SUB SLT ISZERO PUSH2 0x71E JUMPI PUSH2 0x71D PUSH2 0x4C9 JUMP JUMPDEST JUMPDEST PUSH0 PUSH2 0x72B DUP5 DUP3 DUP6 ADD PUSH2 0x69B JUMP JUMPDEST SWAP2 POP POP SWAP3 SWAP2 POP POP JUMP JUMPDEST PUSH0 DUP2 MLOAD SWAP1 POP SWAP2 SWAP1 POP JUMP JUMPDEST PUSH0 DUP3 DUP3 MSTORE PUSH1 0x20 DUP3 ADD SWAP1 POP SWAP3 SWAP2 POP POP JUMP JUMPDEST DUP3 DUP2 DUP4 MCOPY PUSH0 DUP4 DUP4 ADD MSTORE POP POP POP JUMP JUMPDEST PUSH0 PUSH2 0x766 DUP3 PUSH2 0x734 JUMP JUMPDEST PUSH2 0x770 DUP2 DUP6 PUSH2 0x73E JUMP JUMPDEST SWAP4 POP PUSH2 0x780 DUP2 DUP6 PUSH1 0x20 DUP7 ADD PUSH2 0x74E JUMP JUMPDEST PUSH2 0x789 DUP2 PUSH2 0x4D9 JUMP JUMPDEST DUP5 ADD SWAP2 POP POP SWAP3 SWAP2 POP POP JUMP JUMPDEST PUSH0 PUSH1 0x20 DUP3 ADD SWAP1 POP DUP2 DUP2 SUB PUSH0 DUP4 ADD MSTORE PUSH2 0x7AC DUP2 DUP5 PUSH2 0x75C JUMP JUMPDEST SWAP1 POP SWAP3 SWAP2 POP POP JUMP JUMPDEST PUSH0 PUSH0 PUSH1 0x40 DUP4 DUP6 SUB SLT ISZERO PUSH2 0x7CA JUMPI PUSH2 0x7C9 PUSH2 0x4C9 JUMP JUMPDEST JUMPDEST PUSH0 PUSH2 0x7D7 DUP6 DUP3 DUP7 ADD PUSH2 0x69B JUMP JUMPDEST SWAP3 POP POP PUSH1 0x20 PUSH2 0x7E8 DUP6 DUP3 DUP7 ADD PUSH2 0x69B JUMP JUMPDEST SWAP2 POP POP SWAP3 POP SWAP3 SWAP1 POP JUMP JUMPDEST PUSH0 DUP2 MLOAD SWAP1 POP SWAP2 SWAP1 POP JUMP JUMPDEST PUSH0 DUP3 DUP3 MSTORE PUSH1 0x20 DUP3 ADD SWAP1 POP SWAP3 SWAP2 POP POP JUMP JUMPDEST PUSH0 DUP2 SWAP1 POP PUSH1 0x20 DUP3 ADD SWAP1 POP SWAP2 SWAP1 POP JUMP JUMPDEST PUSH0 DUP3 DUP3 MSTORE PUSH1 0x20 DUP3 ADD SWAP1 POP SWAP3 SWAP2 POP POP JUMP JUMPDEST PUSH0 PUSH2 0x835 DUP3 PUSH2 0x734 JUMP JUMPDEST PUSH2 0x83F DUP2 DUP6 PUSH2 0x81B JUMP JUMPDEST SWAP4 POP PUSH2 0x84F DUP2 DUP6 PUSH1 0x20 DUP7 ADD PUSH2 0x74E JUMP JUMPDEST PUSH2 0x858 DUP2 PUSH2 0x4D9 JUMP JUMPDEST DUP5 ADD SWAP2 POP POP SWAP3 SWAP2 POP POP JUMP JUMPDEST PUSH0 PUSH2 0x86E DUP4 DUP4 PUSH2 0x82B JUMP JUMPDEST SWAP1 POP SWAP3 SWAP2 POP POP JUMP JUMPDEST PUSH0 PUSH1 0x20 DUP3 ADD SWAP1 POP SWAP2 SWAP1 POP JUMP JUMPDEST PUSH0 PUSH2 0x88C DUP3 PUSH2 0x7F2 JUMP JUMPDEST PUSH2 0x896 DUP2 DUP6 PUSH2 0x7FC JUMP JUMPDEST SWAP4 POP DUP4 PUSH1 0x20 DUP3 MUL DUP6 ADD PUSH2 0x8A8 DUP6 PUSH2 0x80C JUMP JUMPDEST DUP1 PUSH0 JUMPDEST DUP6 DUP2 LT ISZERO PUSH2 0x8E3 JUMPI DUP5 DUP5 SUB DUP10 MSTORE DUP2 MLOAD PUSH2 0x8C4 DUP6 DUP3 PUSH2 0x863 JUMP JUMPDEST SWAP5 POP PUSH2 0x8CF DUP4 PUSH2 0x876 JUMP JUMPDEST SWAP3 POP PUSH1 0x20 DUP11 ADD SWAP10 POP POP PUSH1 0x1 DUP2 ADD SWAP1 POP PUSH2 0x8AB JUMP JUMPDEST POP DUP3 SWAP8 POP DUP8 SWAP6 POP POP POP POP POP POP SWAP3 SWAP2 POP POP JUMP JUMPDEST PUSH0 PUSH1 0x20 DUP3 ADD SWAP1 POP DUP2 DUP2 SUB PUSH0 DUP4 ADD MSTORE PUSH2 0x90D DUP2 DUP5 PUSH2 0x882 JUMP JUMPDEST SWAP1 POP SWAP3 SWAP2 POP POP JUMP JUMPDEST PUSH32 0x4E487B7100000000000000000000000000000000000000000000000000000000 PUSH0 MSTORE PUSH1 0x22 PUSH1 0x4 MSTORE PUSH1 0x24 PUSH0 REVERT JUMPDEST PUSH0 PUSH1 0x2 DUP3 DIV SWAP1 POP PUSH1 0x1 DUP3 AND DUP1 PUSH2 0x959 JUMPI PUSH1 0x7F DUP3 AND SWAP2 POP JUMPDEST PUSH1 0x20 DUP3 LT DUP2 SUB PUSH2 0x96C JUMPI PUSH2 0x96B PUSH2 0x915 JUMP JUMPDEST JUMPDEST POP SWAP2 SWAP1 POP JUMP JUMPDEST PUSH0 DUP2 SWAP1 POP DUP2 PUSH0 MSTORE PUSH1 0x20 PUSH0 KECCAK256 SWAP1 POP SWAP2 SWAP1 POP JUMP JUMPDEST PUSH0 PUSH1 0x20 PUSH1 0x1F DUP4 ADD DIV SWAP1 POP SWAP2 SWAP1 POP JUMP JUMPDEST PUSH0 DUP3 DUP3 SHL SWAP1 POP SWAP3 SWAP2 POP POP JUMP JUMPDEST PUSH0 PUSH1 0x8 DUP4 MUL PUSH2 0x9CE PUSH32 0xFFFFFFFFFFFFFFFFFFFFFFFFFFFFFFFFFFFFFFFFFFFFFFFFFFFFFFFFFFFFFFFF DUP3 PUSH2 0x993 JUMP JUMPDEST PUSH2 0x9D8 DUP7 DUP4 PUSH2 0x993 JUMP JUMPDEST SWAP6 POP DUP1 NOT DUP5 AND SWAP4 POP DUP1 DUP7 AND DUP5 OR SWAP3 POP POP POP SWAP4 SWAP3 POP POP POP JUMP JUMPDEST PUSH0 DUP2 SWAP1 POP SWAP2 SWAP1 POP JUMP JUMPDEST PUSH0 PUSH2 0xA13 PUSH2 0xA0E PUSH2 0xA09 DUP5 PUSH2 0x654 JUMP JUMPDEST PUSH2 0x9F0 JUMP JUMPDEST PUSH2 0x654 JUMP JUMPDEST SWAP1 POP SWAP2 SWAP1 POP JUMP JUMPDEST PUSH0 DUP2 SWAP1 POP SWAP2 SWAP1 POP JUMP JUMPDEST PUSH2 0xA2C DUP4 PUSH2 0x9F9 JUMP JUMPDEST PUSH2 0xA40 PUSH2 0xA38 DUP3 PUSH2 0xA1A JUMP JUMPDEST DUP5 DUP5 SLOAD PUSH2 0x99F JUMP JUMPDEST DUP3 SSTORE POP POP POP POP JUMP JUMPDEST PUSH0 PUSH0 SWAP1 POP SWAP1 JUMP JUMPDEST PUSH2 0xA57 PUSH2 0xA48 JUMP JUMPDEST PUSH2 0xA62 DUP2 DUP5 DUP5 PUSH2 0xA23 JUMP JUMPDEST POP POP POP JUMP JUMPDEST JUMPDEST DUP2 DUP2 LT ISZERO PUSH2 0xA85 JUMPI PUSH2 0xA7A PUSH0 DUP3 PUSH2 0xA4F JUMP JUMPDEST PUSH1 0x1 DUP2 ADD SWAP1 POP PUSH2 0xA68 JUMP JUMPDEST POP POP JUMP JUMPDEST PUSH1 0x1F DUP3 GT ISZERO PUSH2 0xACA JUMPI PUSH2 0xA9B DUP2 PUSH2 0x972 JUMP JUMPDEST PUSH2 0xAA4 DUP5 PUSH2 0x984 JUMP JUMPDEST DUP2 ADD PUSH1 0x20 DUP6 LT ISZERO PUSH2 0xAB3 JUMPI DUP2 SWAP1 POP JUMPDEST PUSH2 0xAC7 PUSH2 0xABF DUP6 PUSH2 0x984 JUMP JUMPDEST DUP4 ADD DUP3 PUSH2 0xA67 JUMP JUMPDEST POP POP JUMPDEST POP POP POP JUMP JUMPDEST PUSH0 DUP3 DUP3 SHR SWAP1 POP SWAP3 SWAP2 POP POP JUMP JUMPDEST PUSH0 PUSH2 0xAEA PUSH0 NOT DUP5 PUSH1 0x8 MUL PUSH2 0xACF JUMP JUMPDEST NOT DUP1 DUP4 AND SWAP2 POP POP SWAP3 SWAP2 POP POP JUMP JUMPDEST PUSH0 PUSH2 0xB02 DUP4 DUP4 PUSH2 0xADB JUMP JUMPDEST SWAP2 POP DUP3 PUSH1 0x2 MUL DUP3 OR SWAP1 POP SWAP3 SWAP2 POP POP JUMP JUMPDEST PUSH2 0xB1B DUP3 PUSH2 0x734 JUMP JUMPDEST PUSH8 0xFFFFFFFFFFFFFFFF DUP2 GT ISZERO PUSH2 0xB34 JUMPI PUSH2 0xB33 PUSH2 0x4E9 JUMP JUMPDEST JUMPDEST PUSH2 0xB3E DUP3 SLOAD PUSH2 0x942 JUMP JUMPDEST PUSH2 0xB49 DUP3 DUP3 DUP6 PUSH2 0xA89 JUMP JUMPDEST PUSH0 PUSH1 0x20 SWAP1 POP PUSH1 0x1F DUP4 GT PUSH1 0x1 DUP2 EQ PUSH2 0xB7A JUMPI PUSH0 DUP5 ISZERO PUSH2 0xB68 JUMPI DUP3 DUP8 ADD MLOAD SWAP1 POP JUMPDEST PUSH2 0xB72 DUP6 DUP3 PUSH2 0xAF7 JUMP JUMPDEST DUP7 SSTORE POP PUSH2 0xBD9 JUMP JUMPDEST PUSH1 0x1F NOT DUP5 AND PUSH2 0xB88 DUP7 PUSH2 0x972 JUMP JUMPDEST PUSH0 JUMPDEST DUP3 DUP2 LT ISZERO PUSH2 0xBAF JUMPI DUP5 DUP10 ADD MLOAD DUP3 SSTORE PUSH1 0x1 DUP3 ADD SWAP2 POP PUSH1 0x20 DUP6 ADD SWAP5 POP PUSH1 0x20 DUP2 ADD SWAP1 POP PUSH2 0xB8A JUMP JUMPDEST DUP7 DUP4 LT ISZERO PUSH2 0xBCC JUMPI DUP5 DUP10 ADD MLOAD PUSH2 0xBC8 PUSH1 0x1F DUP10 AND DUP3 PUSH2 0xADB JUMP JUMPDEST DUP4 SSTORE POP JUMPDEST PUSH1 0x1 PUSH1 0x2 DUP9 MUL ADD DUP9 SSTORE POP POP POP JUMPDEST POP POP POP POP POP POP JUMP JUMPDEST PUSH32 0x4E487B7100000000000000000000000000000000000000000000000000000000 PUSH0 MSTORE PUSH1 0x11 PUSH1 0x4 MSTORE PUSH1 0x24 PUSH0 REVERT JUMPDEST PUSH0 PUSH2 0xC18 DUP3 PUSH2 0x654 JUMP JUMPDEST SWAP2 POP PUSH2 0xC23 DUP4 PUSH2 0x654 JUMP JUMPDEST SWAP3 POP DUP3 DUP3 SUB SWAP1 POP DUP2 DUP2 GT ISZERO PUSH2 0xC3B JUMPI PUSH2 0xC3A PUSH2 0xBE1 JUMP JUMPDEST JUMPDEST SWAP3 SWAP2 POP POP JUMP JUMPDEST PUSH32 0x696E76616C696420696E64657800000000000000000000000000000000000000 PUSH0 DUP3 ADD MSTORE POP JUMP JUMPDEST PUSH0 PUSH2 0xC75 PUSH1 0xD DUP4 PUSH2 0x73E JUMP JUMPDEST SWAP2 POP PUSH2 0xC80 DUP3 PUSH2 0xC41 JUMP JUMPDEST PUSH1 0x20 DUP3 ADD SWAP1 POP SWAP2 SWAP1 POP JUMP JUMPDEST PUSH0 PUSH1 0x20 DUP3 ADD SWAP1 POP DUP2 DUP2 SUB PUSH0 DUP4 ADD MSTORE PUSH2 0xCA2 DUP2 PUSH2 0xC69 JUMP JUMPDEST SWAP1 POP SWAP2 SWAP1 POP JUMP JUMPDEST PUSH32 0x4E487B7100000000000000000000000000000000000000000000000000000000 PUSH0 MSTORE PUSH1 0x32 PUSH1 0x4 MSTORE PUSH1 0x24 PUSH0 REVERT JUMPDEST PUSH32 0x7374617274206D757374203C3D20656E64000000000000000000000000000000 PUSH0 DUP3 ADD MSTORE POP JUMP JUMPDEST PUSH0 PUSH2 0xD0A PUSH1 0x11 DUP4 PUSH2 0x73E JUMP JUMPDEST SWAP2 POP PUSH2 0xD15 DUP3 PUSH2 0xCD6 JUMP JUMPDEST PUSH1 0x20 DUP3 ADD SWAP1 POP SWAP2 SWAP1 POP JUMP JUMPDEST PUSH0 PUSH1 0x20 DUP3 ADD SWAP1 POP DUP2 DUP2 SUB PUSH0 DUP4 ADD MSTORE PUSH2 0xD37 DUP2 PUSH2 0xCFE JUMP JUMPDEST SWAP1 POP SWAP2 SWAP1 POP JUMP JUMPDEST PUSH0 PUSH2 0xD48 DUP3 PUSH2 0x654 JUMP JUMPDEST SWAP2 POP PUSH2 0xD53 DUP4 PUSH2 0x654 JUMP JUMPDEST SWAP3 POP DUP3 DUP3 ADD SWAP1 POP DUP1 DUP3 GT ISZERO PUSH2 0xD6B JUMPI PUSH2 0xD6A PUSH2 0xBE1 JUMP JUMPDEST JUMPDEST SWAP3 SWAP2 POP POP JUMP INVALID LOG2 PUSH5 0x6970667358 0x22 SLT KECCAK256 0x4C DUP7 OR CHAINID SWAP7 0xAE 0x22 DUP1 DUP16 0xE6 0x4D 0x2D DUP1 0x21 PUSH24 0x735FC75E7C408B5A7D52713649815BA0E264736F6C634300 ADDMOD SHR STOP CALLER "
		},
		"gasEstimates": {
			"creation": {
				"codeDepositCost": "699000",
				"executionCost": "infinite",
				"totalCost": "infinite"
			},
			"external": {
				"addInfo(string)": "infinite",
				"getOneInfo(uint256)": "infinite",
				"listAllInfo()": "infinite",
				"listInfo(uint256,uint256)": "infinite",
				"updateInfo(uint256,string)": "infinite"
			}
		},
		"methodIdentifiers": {
			"addInfo(string)": "0bf803e4",
			"getOneInfo(uint256)": "94b1a5bc",
			"listAllInfo()": "edc2784e",
			"listInfo(uint256,uint256)": "9c2955a2",
			"updateInfo(uint256,string)": "50c00197"
		}
	},
	"abi": [
		{
			"inputs": [],
			"stateMutability": "nonpayable",
			"type": "constructor"
		},
		{
			"inputs": [
				{
					"internalType": "string",
					"name": "myInfo",
					"type": "string"
				}
			],
			"name": "addInfo",
			"outputs": [
				{
					"internalType": "uint256",
					"name": "index",
					"type": "uint256"
				}
			],
			"stateMutability": "nonpayable",
			"type": "function"
		},
		{
			"inputs": [
				{
					"internalType": "uint256",
					"name": "index",
					"type": "uint256"
				}
			],
			"name": "getOneInfo",
			"outputs": [
				{
					"internalType": "string",
					"name": "",
					"type": "string"
				}
			],
			"stateMutability": "view",
			"type": "function"
		},
		{
			"inputs": [],
			"name": "listAllInfo",
			"outputs": [
				{
					"internalType": "string[]",
					"name": "",
					"type": "string[]"
				}
			],
			"stateMutability": "view",
			"type": "function"
		},
		{
			"inputs": [
				{
					"internalType": "uint256",
					"name": "start",
					"type": "uint256"
				},
				{
					"internalType": "uint256",
					"name": "end",
					"type": "uint256"
				}
			],
			"name": "listInfo",
			"outputs": [
				{
					"internalType": "string[]",
					"name": "",
					"type": "string[]"
				}
			],
			"stateMutability": "view",
			"type": "function"
		},
		{
			"inputs": [
				{
					"internalType": "uint256",
					"name": "index",
					"type": "uint256"
				},
				{
					"internalType": "string",
					"name": "newInfo",
					"type": "string"
				}
			],
			"name": "updateInfo",
			"outputs": [],
			"stateMutability": "nonpayable",
			"type": "function"
		}
	]
}